: Adding FIX 4.0 protocol
: Adding FIX 4.1 protocol
: Adding FIX 4.2 protocol
: Adding FIX 4.3 protocol
: Adding FIX 4.4 protocol
: Bulding FIX 4.4 help
: Pipe (batch/log) interface active at \\.\pipe\minifix
: (C)2009-2013 Bj—rn Ahlqvist, available free of charge from http://elato.se/minifix/
: Welcome to Mini-FIX 1.5.25!
: Pipe interface connected
: Pipe interface disconnected (code 109)
: Pipe interface connected
: Batch Session sequence numbers reset
: SenderCompId set to MINIFIX
: TargetCompId set to EXCHANGE
: Batch Connect 127.0.0.1:9876
: Pipe interface disconnected (code 109)
: Connect to 127.0.0.1, resolving..
: IP address 127.0.0.1 port 9876, connecting..
: Connected to 127.0.0.1:9876 at 20260416-01:47:27 UTC
< 8=FIX.4.2|9=66|35=A|49=MINIFIX|56=EXCHANGE|34=1|52=20260416-01:47:27|98=0|108=30|10=147|
> 8=FIX.4.2|9=70|35=A|34=1|49=EXCHANGE|52=20260416-01:47:27.924|56=MINIFIX|98=0|108=30|10=091|
: <done waiting, message matches>
< 8=FIX.4.2|9=135|35=D|49=MINIFIX|56=EXCHANGE|34=1|52=20260416-01:47:27|11=1997813824|21=1|55=AAPL|54=1|60=20260416-01:47:27|40=2|44=140.00|38=1000|59=0|10=192|
> 8=FIX.4.2|9=222|35=8|34=2|49=EXCHANGE|52=20260416-01:47:27.943|56=MINIFIX|6=0|11=1997813824|14=0|17=EXEC-1776303563123|31=0|32=0|37=20260416-071727-612726|38=1000|39=0|40=2|44=140|54=1|55=AAPL|59=0|60=20260416-07:17:27.943|150=0|151=1000|10=031|
< 8=FIX.4.2|9=134|35=D|49=MINIFIX|56=EXCHANGE|34=2|52=20260416-01:47:28|11=1997813826|21=1|55=AAPL|54=2|60=20260416-01:47:28|40=2|44=140.00|38=300|59=0|10=151|
> 8=FIX.4.2|9=220|35=8|34=3|49=EXCHANGE|52=20260416-01:47:28.250|56=MINIFIX|6=0|11=1997813826|14=0|17=EXEC-1776303563124|31=0|32=0|37=20260416-071728-612727|38=300|39=0|40=2|44=140|54=2|55=AAPL|59=0|60=20260416-07:17:28.250|150=0|151=300|10=184|
> 8=FIX.4.2|9=261|35=8|34=4|49=EXCHANGE|52=20260416-01:47:28.251|56=MINIFIX|6=140|11=1997813824|14=300|17=EXEC-1776304048250-929|31=140|32=300|37=20260416-071727-612726|38=1000|39=1|40=2|44=140|54=1|55=AAPL|59=0|60=20260416-07:17:28.251|150=F|151=700|527=TRADE-1776304048250-929|10=077|
> 8=FIX.4.2|9=258|35=8|34=5|49=EXCHANGE|52=20260416-01:47:28.252|56=MINIFIX|6=140|11=1997813826|14=300|17=EXEC-1776304048250-929|31=140|32=300|37=20260416-071728-612727|38=300|39=2|40=2|44=140|54=2|55=AAPL|59=0|60=20260416-07:17:28.252|150=F|151=0|527=TRADE-1776304048250-929|10=199|
< 8=FIX.4.2|9=134|35=D|49=MINIFIX|56=EXCHANGE|34=3|52=20260416-01:47:29|11=1997813828|21=1|55=AAPL|54=2|60=20260416-01:47:29|40=2|44=140.00|38=300|59=0|10=156|
> 8=FIX.4.2|9=220|35=8|34=6|49=EXCHANGE|52=20260416-01:47:29.182|56=MINIFIX|6=0|11=1997813828|14=0|17=EXEC-1776303563127|31=0|32=0|37=20260416-071729-612728|38=300|39=0|40=2|44=140|54=2|55=AAPL|59=0|60=20260416-07:17:29.182|150=0|151=300|10=204|
> 8=FIX.4.2|9=261|35=8|34=7|49=EXCHANGE|52=20260416-01:47:29.183|56=MINIFIX|6=140|11=1997813824|14=600|17=EXEC-1776304049182-930|31=140|32=300|37=20260416-071727-612726|38=1000|39=1|40=2|44=140|54=1|55=AAPL|59=0|60=20260416-07:17:29.183|150=F|151=400|527=TRADE-1776304049182-930|10=084|
> 8=FIX.4.2|9=258|35=8|34=8|49=EXCHANGE|52=20260416-01:47:29.183|56=MINIFIX|6=140|11=1997813828|14=300|17=EXEC-1776304049182-930|31=140|32=300|37=20260416-071729-612728|38=300|39=2|40=2|44=140|54=2|55=AAPL|59=0|60=20260416-07:17:29.183|150=F|151=0|527=TRADE-1776304049182-930|10=208|
< 8=FIX.4.2|9=134|35=D|49=MINIFIX|56=EXCHANGE|34=4|52=20260416-01:47:30|11=1997813830|21=1|55=AAPL|54=2|60=20260416-01:47:30|40=2|44=140.00|38=400|59=0|10=135|
> 8=FIX.4.2|9=220|35=8|34=9|49=EXCHANGE|52=20260416-01:47:30.123|56=MINIFIX|6=0|11=1997813830|14=0|17=EXEC-1776303563130|31=0|32=0|37=20260416-071730-612729|38=400|39=0|40=2|44=140|54=2|55=AAPL|59=0|60=20260416-07:17:30.123|150=0|151=400|10=163|
> 8=FIX.4.2|9=261|35=8|34=10|49=EXCHANGE|52=20260416-01:47:30.124|56=MINIFIX|6=140|11=1997813824|14=1000|17=EXEC-1776304050123-931|31=140|32=400|37=20260416-071727-612726|38=1000|39=2|40=2|44=140|54=1|55=AAPL|59=0|60=20260416-07:17:30.124|150=F|151=0|527=TRADE-1776304050123-931|10=021|
> 8=FIX.4.2|9=259|35=8|34=11|49=EXCHANGE|52=20260416-01:47:30.125|56=MINIFIX|6=140|11=1997813830|14=400|17=EXEC-1776304050123-931|31=140|32=400|37=20260416-071730-612729|38=400|39=2|40=2|44=140|54=2|55=AAPL|59=0|60=20260416-07:17:30.125|150=F|151=0|527=TRADE-1776304050123-931|10=192|
: T06 PASSED - Multiple partial fills with correct CumQty progression (300 -> 600 -> 1000)
: Batch Save to C:\Users\Aarav\OneDrive\Desktop\cmltest\fix-trading-simulator\external-scenarios\results\T06_result.txt
