: Adding FIX 4.0 protocol
: Adding FIX 4.1 protocol
: Adding FIX 4.2 protocol
: Adding FIX 4.3 protocol
: Adding FIX 4.4 protocol
: Bulding FIX 4.4 help
: Pipe (batch/log) interface active at \\.\pipe\minifix
: (C)2009-2013 Björn Ahlqvist, available free of charge from http://elato.se/minifix/
: Welcome to Mini-FIX 1.5.25!
: Pipe interface connected
: Pipe interface disconnected (code 109)
: Pipe interface connected
: Batch Session sequence numbers reset
: SenderCompId set to MINIFIX
: TargetCompId set to EXCHANGE
: Batch Connect 127.0.0.1:9876
: Pipe interface disconnected (code 109)
: Connect to 127.0.0.1, resolving..
: IP address 127.0.0.1 port 9876, connecting..
: Connected to 127.0.0.1:9876 at 20260416-01:47:58 UTC
< 8=FIX.4.2|9=66|35=A|49=MINIFIX|56=EXCHANGE|34=1|52=20260416-01:47:58|98=0|108=30|10=151|
> 8=FIX.4.2|9=70|35=A|34=1|49=EXCHANGE|52=20260416-01:47:58.213|56=MINIFIX|98=0|108=30|10=086|
: <done waiting, message matches>
< 8=FIX.4.2|9=134|35=D|49=MINIFIX|56=EXCHANGE|34=1|52=20260416-01:47:58|11=1149189153|21=1|55=AAPL|54=1|60=20260416-01:47:58|40=2|44=100.00|38=100|59=0|10=137|
> 8=FIX.4.2|9=220|35=8|34=2|49=EXCHANGE|52=20260416-01:47:58.233|56=MINIFIX|6=0|11=1149189153|14=0|17=EXEC-1776303563167|31=0|32=0|37=20260416-071758-612747|38=100|39=0|40=2|44=100|54=1|55=AAPL|59=0|60=20260416-07:17:58.233|150=0|151=100|10=182|
< 8=FIX.4.2|9=134|35=D|49=MINIFIX|56=EXCHANGE|34=2|52=20260416-01:47:58|11=1149189155|21=1|55=AAPL|54=1|60=20260416-01:47:58|40=2|44=105.00|38=100|59=0|10=145|
> 8=FIX.4.2|9=220|35=8|34=3|49=EXCHANGE|52=20260416-01:47:58.533|56=MINIFIX|6=0|11=1149189155|14=0|17=EXEC-1776303563168|31=0|32=0|37=20260416-071758-612748|38=100|39=0|40=2|44=105|54=1|55=AAPL|59=0|60=20260416-07:17:58.533|150=0|151=100|10=198|
< 8=FIX.4.2|9=134|35=D|49=MINIFIX|56=EXCHANGE|34=3|52=20260416-01:47:58|11=1149189157|21=1|55=AAPL|54=1|60=20260416-01:47:58|40=2|44=105.00|38=100|59=0|10=148|
> 8=FIX.4.2|9=220|35=8|34=4|49=EXCHANGE|52=20260416-01:47:58.845|56=MINIFIX|6=0|11=1149189157|14=0|17=EXEC-1776303563169|31=0|32=0|37=20260416-071758-612749|38=100|39=0|40=2|44=105|54=1|55=AAPL|59=0|60=20260416-07:17:58.845|150=0|151=100|10=215|
< 8=FIX.4.2|9=134|35=D|49=MINIFIX|56=EXCHANGE|34=4|52=20260416-01:47:59|11=1149189159|21=1|55=AAPL|54=2|60=20260416-01:47:59|40=2|44=100.00|38=200|59=0|10=150|
> 8=FIX.4.2|9=220|35=8|34=5|49=EXCHANGE|52=20260416-01:47:59.157|56=MINIFIX|6=0|11=1149189159|14=0|17=EXEC-1776303563170|31=0|32=0|37=20260416-071759-612750|38=200|39=0|40=2|44=100|54=2|55=AAPL|59=0|60=20260416-07:17:59.157|150=0|151=200|10=195|
> 8=FIX.4.2|9=258|35=8|34=6|49=EXCHANGE|52=20260416-01:47:59.160|56=MINIFIX|6=105|11=1149189155|14=100|17=EXEC-1776304079159-938|31=105|32=100|37=20260416-071758-612748|38=100|39=2|40=2|44=105|54=1|55=AAPL|59=0|60=20260416-07:17:59.160|150=F|151=0|527=TRADE-1776304079159-938|10=220|
> 8=FIX.4.2|9=258|35=8|34=7|49=EXCHANGE|52=20260416-01:47:59.162|56=MINIFIX|6=105|11=1149189157|14=100|17=EXEC-1776304079159-939|31=105|32=100|37=20260416-071758-612749|38=100|39=2|40=2|44=105|54=1|55=AAPL|59=0|60=20260416-07:17:59.162|150=F|151=0|527=TRADE-1776304079159-939|10=230|
> 8=FIX.4.2|9=260|35=8|34=8|49=EXCHANGE|52=20260416-01:47:59.162|56=MINIFIX|6=105|11=1149189159|14=100|17=EXEC-1776304079159-938|31=105|32=100|37=20260416-071759-612750|38=200|39=1|40=2|44=100|54=2|55=AAPL|59=0|60=20260416-07:17:59.162|150=F|151=100|527=TRADE-1776304079159-938|10=054|
> 8=FIX.4.2|9=258|35=8|34=9|49=EXCHANGE|52=20260416-01:47:59.162|56=MINIFIX|6=105|11=1149189159|14=200|17=EXEC-1776304079159-939|31=105|32=100|37=20260416-071759-612750|38=200|39=2|40=2|44=100|54=2|55=AAPL|59=0|60=20260416-07:17:59.162|150=F|151=0|527=TRADE-1776304079159-939|10=225|
: T11 PASSED - Combined price-time priority: 105 level fills before 100 level FIFO within level
: Batch Save to C:\Users\Aarav\OneDrive\Desktop\cmltest\fix-trading-simulator\external-scenarios\results\T11_result.txt
