: Adding FIX 4.0 protocol
: Adding FIX 4.1 protocol
: Adding FIX 4.2 protocol
: Adding FIX 4.3 protocol
: Adding FIX 4.4 protocol
: Bulding FIX 4.4 help
: Pipe (batch/log) interface active at \\.\pipe\minifix
: (C)2009-2013 Björn Ahlqvist, available free of charge from http://elato.se/minifix/
: Welcome to Mini-FIX 1.5.25!
: Pipe interface connected
: Pipe interface disconnected (code 109)
: Pipe interface connected
: Batch Session sequence numbers reset
: SenderCompId set to MINIFIX
: TargetCompId set to EXCHANGE
: Batch Connect 127.0.0.1:9876
: Pipe interface disconnected (code 109)
: Connect to 127.0.0.1, resolving..
: IP address 127.0.0.1 port 9876, connecting..
: Connected to 127.0.0.1:9876 at 20260416-01:48:04 UTC
< 8=FIX.4.2|9=66|35=A|49=MINIFIX|56=EXCHANGE|34=1|52=20260416-01:48:04|98=0|108=30|10=143|
> 8=FIX.4.2|9=70|35=A|34=1|49=EXCHANGE|52=20260416-01:48:04.789|56=MINIFIX|98=0|108=30|10=096|
: <done waiting, message matches>
< 8=FIX.4.2|9=134|35=D|49=MINIFIX|56=EXCHANGE|34=1|52=20260416-01:48:04|11=1035718108|21=1|55=AAPL|54=1|60=20260416-01:48:04|40=2|44=160.00|38=200|59=0|10=120|
> 8=FIX.4.2|9=220|35=8|34=2|49=EXCHANGE|52=20260416-01:48:04.807|56=MINIFIX|6=0|11=1035718108|14=0|17=EXEC-1776303563179|31=0|32=0|37=20260416-071804-612752|38=200|39=0|40=2|44=160|54=1|55=AAPL|59=0|60=20260416-07:18:04.807|150=0|151=200|10=171|
< 8=FIX.4.2|9=134|35=D|49=MINIFIX|56=EXCHANGE|34=2|52=20260416-01:48:05|11=1035718110|21=1|55=AAPL|54=1|60=20260416-01:48:05|40=2|44=160.00|38=100|59=0|10=115|
> 8=FIX.4.2|9=220|35=8|34=3|49=EXCHANGE|52=20260416-01:48:05.120|56=MINIFIX|6=0|11=1035718110|14=0|17=EXEC-1776303563180|31=0|32=0|37=20260416-071805-612753|38=100|39=0|40=2|44=160|54=1|55=AAPL|59=0|60=20260416-07:18:05.120|150=0|151=100|10=135|
< 8=FIX.4.2|9=134|35=D|49=MINIFIX|56=EXCHANGE|34=3|52=20260416-01:48:05|11=1035718112|21=1|55=AAPL|54=1|60=20260416-01:48:05|40=2|44=158.00|38=150|59=0|10=130|
> 8=FIX.4.2|9=220|35=8|34=4|49=EXCHANGE|52=20260416-01:48:05.433|56=MINIFIX|6=0|11=1035718112|14=0|17=EXEC-1776303563181|31=0|32=0|37=20260416-071805-612754|38=150|39=0|40=2|44=158|54=1|55=AAPL|59=0|60=20260416-07:18:05.433|150=0|151=150|10=171|
< 8=FIX.4.2|9=134|35=D|49=MINIFIX|56=EXCHANGE|34=4|52=20260416-01:48:05|11=1035718114|21=1|55=AAPL|54=1|60=20260416-01:48:05|40=2|44=158.00|38=150|59=0|10=133|
> 8=FIX.4.2|9=220|35=8|34=5|49=EXCHANGE|52=20260416-01:48:05.746|56=MINIFIX|6=0|11=1035718114|14=0|17=EXEC-1776303563182|31=0|32=0|37=20260416-071805-612755|38=150|39=0|40=2|44=158|54=1|55=AAPL|59=0|60=20260416-07:18:05.746|150=0|151=150|10=190|
< 8=FIX.4.2|9=134|35=D|49=MINIFIX|56=EXCHANGE|34=5|52=20260416-01:48:06|11=1035718116|21=1|55=AAPL|54=1|60=20260416-01:48:06|40=2|44=155.00|38=200|59=0|10=131|
> 8=FIX.4.2|9=220|35=8|34=6|49=EXCHANGE|52=20260416-01:48:06.062|56=MINIFIX|6=0|11=1035718116|14=0|17=EXEC-1776303563183|31=0|32=0|37=20260416-071806-612756|38=200|39=0|40=2|44=155|54=1|55=AAPL|59=0|60=20260416-07:18:06.062|150=0|151=200|10=169|
< 8=FIX.4.2|9=134|35=D|49=MINIFIX|56=EXCHANGE|34=6|52=20260416-01:48:06|11=1035718118|21=1|55=AAPL|54=1|60=20260416-01:48:06|40=2|44=155.00|38=100|59=0|10=133|
> 8=FIX.4.2|9=220|35=8|34=7|49=EXCHANGE|52=20260416-01:48:06.370|56=MINIFIX|6=0|11=1035718118|14=0|17=EXEC-1776303563184|31=0|32=0|37=20260416-071806-612757|38=100|39=0|40=2|44=155|54=1|55=AAPL|59=0|60=20260416-07:18:06.370|150=0|151=100|10=176|
< 8=FIX.4.2|9=134|35=D|49=MINIFIX|56=EXCHANGE|34=7|52=20260416-01:48:06|11=1035718120|21=1|55=AAPL|54=2|60=20260416-01:48:06|40=2|44=155.00|38=700|59=0|10=134|
> 8=FIX.4.2|9=220|35=8|34=8|49=EXCHANGE|52=20260416-01:48:06.684|56=MINIFIX|6=0|11=1035718120|14=0|17=EXEC-1776303563185|31=0|32=0|37=20260416-071806-612758|38=700|39=0|40=2|44=155|54=2|55=AAPL|59=0|60=20260416-07:18:06.684|150=0|151=700|10=201|
> 8=FIX.4.2|9=258|35=8|34=9|49=EXCHANGE|52=20260416-01:48:06.685|56=MINIFIX|6=160|11=1035718108|14=200|17=EXEC-1776304086685-941|31=160|32=200|37=20260416-071804-612752|38=200|39=2|40=2|44=160|54=1|55=AAPL|59=0|60=20260416-07:18:06.685|150=F|151=0|527=TRADE-1776304086685-941|10=208|
> 8=FIX.4.2|9=259|35=8|34=10|49=EXCHANGE|52=20260416-01:48:06.686|56=MINIFIX|6=160|11=1035718110|14=100|17=EXEC-1776304086685-942|31=160|32=100|37=20260416-071805-612753|38=100|39=2|40=2|44=160|54=1|55=AAPL|59=0|60=20260416-07:18:06.686|150=F|151=0|527=TRADE-1776304086685-942|10=245|
> 8=FIX.4.2|9=259|35=8|34=11|49=EXCHANGE|52=20260416-01:48:06.688|56=MINIFIX|6=158|11=1035718112|14=150|17=EXEC-1776304086685-943|31=158|32=150|37=20260416-071805-612754|38=150|39=2|40=2|44=158|54=1|55=AAPL|59=0|60=20260416-07:18:06.688|150=F|151=0|527=TRADE-1776304086685-943|10=035|
> 8=FIX.4.2|9=259|35=8|34=12|49=EXCHANGE|52=20260416-01:48:06.690|56=MINIFIX|6=158|11=1035718114|14=150|17=EXEC-1776304086685-944|31=158|32=150|37=20260416-071805-612755|38=150|39=2|40=2|44=158|54=1|55=AAPL|59=0|60=20260416-07:18:06.690|150=F|151=0|527=TRADE-1776304086685-944|10=027|
> 8=FIX.4.2|9=261|35=8|34=13|49=EXCHANGE|52=20260416-01:48:06.692|56=MINIFIX|6=155|11=1035718116|14=100|17=EXEC-1776304086685-945|31=155|32=100|37=20260416-071806-612756|38=200|39=1|40=2|44=155|54=1|55=AAPL|59=0|60=20260416-07:18:06.692|150=F|151=100|527=TRADE-1776304086685-945|10=104|
> 8=FIX.4.2|9=276|35=8|34=14|49=EXCHANGE|52=20260416-01:48:06.692|56=MINIFIX|6=158.42857142857142|11=1035718120|14=200|17=EXEC-1776304086685-941|31=160|32=200|37=20260416-071806-612758|38=700|39=1|40=2|44=155|54=2|55=AAPL|59=0|60=20260416-07:18:06.692|150=F|151=500|527=TRADE-1776304086685-941|10=121|
> 8=FIX.4.2|9=276|35=8|34=15|49=EXCHANGE|52=20260416-01:48:06.692|56=MINIFIX|6=158.42857142857142|11=1035718120|14=300|17=EXEC-1776304086685-942|31=160|32=100|37=20260416-071806-612758|38=700|39=1|40=2|44=155|54=2|55=AAPL|59=0|60=20260416-07:18:06.692|150=F|151=400|527=TRADE-1776304086685-942|10=123|
> 8=FIX.4.2|9=276|35=8|34=16|49=EXCHANGE|52=20260416-01:48:06.692|56=MINIFIX|6=158.42857142857142|11=1035718120|14=450|17=EXEC-1776304086685-943|31=158|32=150|37=20260416-071806-612758|38=700|39=1|40=2|44=155|54=2|55=AAPL|59=0|60=20260416-07:18:06.692|150=F|151=250|527=TRADE-1776304086685-943|10=147|
> 8=FIX.4.2|9=276|35=8|34=17|49=EXCHANGE|52=20260416-01:48:06.692|56=MINIFIX|6=158.42857142857142|11=1035718120|14=600|17=EXEC-1776304086685-944|31=158|32=150|37=20260416-071806-612758|38=700|39=1|40=2|44=155|54=2|55=AAPL|59=0|60=20260416-07:18:06.692|150=F|151=100|527=TRADE-1776304086685-944|10=141|
> 8=FIX.4.2|9=274|35=8|34=18|49=EXCHANGE|52=20260416-01:48:06.692|56=MINIFIX|6=158.42857142857142|11=1035718120|14=700|17=EXEC-1776304086685-945|31=155|32=100|37=20260416-071806-612758|38=700|39=2|40=2|44=155|54=2|55=AAPL|59=0|60=20260416-07:18:06.692|150=F|151=0|527=TRADE-1776304086685-945|10=039|
: T12 PASSED - Complex multi-level sweep: 3 price levels 6 orders correct fill sequence
: Batch Save to C:\Users\Aarav\OneDrive\Desktop\cmltest\fix-trading-simulator\external-scenarios\results\T12_result.txt
