: Adding FIX 4.0 protocol
: Adding FIX 4.1 protocol
: Adding FIX 4.2 protocol
: Adding FIX 4.3 protocol
: Adding FIX 4.4 protocol
: Bulding FIX 4.4 help
: Pipe (batch/log) interface active at \\.\pipe\minifix
: (C)2009-2013 Björn Ahlqvist, available free of charge from http://elato.se/minifix/
: Welcome to Mini-FIX 1.5.25!
: Pipe interface connected
: Pipe interface disconnected (code 109)
: Pipe interface connected
: Batch Session sequence numbers reset
: SenderCompId set to MINIFIX
: TargetCompId set to EXCHANGE
: Batch Connect 127.0.0.1:9876
: Pipe interface disconnected (code 109)
: Connect to 127.0.0.1, resolving..
: IP address 127.0.0.1 port 9876, connecting..
: Connected to 127.0.0.1:9876 at 20260416-01:49:14 UTC
< 8=FIX.4.2|9=66|35=A|49=MINIFIX|56=EXCHANGE|34=1|52=20260416-01:49:14|98=0|108=30|10=145|
> 8=FIX.4.2|9=70|35=A|34=1|49=EXCHANGE|52=20260416-01:49:14.695|56=MINIFIX|98=0|108=30|10=094|
: <done waiting, message matches>
< 8=FIX.4.2|9=132|35=D|49=MINIFIX|56=EXCHANGE|34=1|52=20260416-01:49:14|11=928586085|21=1|55=AAPL|54=2|60=20260416-01:49:14|40=2|44=45.00|38=100|59=0|10=045|
> 8=FIX.4.2|9=218|35=8|34=2|49=EXCHANGE|52=20260416-01:49:14.713|56=MINIFIX|6=0|11=928586085|14=0|17=EXEC-1776303563266|31=0|32=0|37=20260416-071914-612790|38=100|39=0|40=2|44=45|54=2|55=AAPL|59=0|60=20260416-07:19:14.713|150=0|151=100|10=097|
< 8=FIX.4.2|9=132|35=D|49=MINIFIX|56=EXCHANGE|34=2|52=20260416-01:49:15|11=928586087|21=1|55=AAPL|54=2|60=20260416-01:49:15|40=2|44=45.50|38=100|59=0|10=055|
> 8=FIX.4.2|9=220|35=8|34=3|49=EXCHANGE|52=20260416-01:49:15.028|56=MINIFIX|6=0|11=928586087|14=0|17=EXEC-1776303563267|31=0|32=0|37=20260416-071915-612791|38=100|39=0|40=2|44=45.5|54=2|55=AAPL|59=0|60=20260416-07:19:15.028|150=0|151=100|10=195|
< 8=FIX.4.2|9=132|35=D|49=MINIFIX|56=EXCHANGE|34=3|52=20260416-01:49:15|11=928586089|21=1|55=AAPL|54=2|60=20260416-01:49:15|40=2|44=46.00|38=100|59=0|10=054|
> 8=FIX.4.2|9=218|35=8|34=4|49=EXCHANGE|52=20260416-01:49:15.331|56=MINIFIX|6=0|11=928586089|14=0|17=EXEC-1776303563268|31=0|32=0|37=20260416-071915-612792|38=100|39=0|40=2|44=46|54=2|55=AAPL|59=0|60=20260416-07:19:15.331|150=0|151=100|10=103|
< 8=FIX.4.2|9=132|35=D|49=MINIFIX|56=EXCHANGE|34=4|52=20260416-01:49:15|11=928586091|21=1|55=AAPL|54=1|60=20260416-01:49:15|40=2|44=46.00|38=250|59=0|10=053|
> 8=FIX.4.2|9=218|35=8|34=5|49=EXCHANGE|52=20260416-01:49:15.648|56=MINIFIX|6=0|11=928586091|14=0|17=EXEC-1776303563269|31=0|32=0|37=20260416-071915-612793|38=250|39=0|40=2|44=46|54=1|55=AAPL|59=0|60=20260416-07:19:15.648|150=0|151=250|10=132|
> 8=FIX.4.2|9=254|35=8|34=6|49=EXCHANGE|52=20260416-01:49:15.648|56=MINIFIX|6=45|11=928586085|14=100|17=EXEC-1776304155648-956|31=45|32=100|37=20260416-071914-612790|38=100|39=2|40=2|44=45|54=2|55=AAPL|59=0|60=20260416-07:19:15.648|150=F|151=0|527=TRADE-1776304155648-956|10=038|
> 8=FIX.4.2|9=260|35=8|34=7|49=EXCHANGE|52=20260416-01:49:15.648|56=MINIFIX|6=45.5|11=928586087|14=100|17=EXEC-1776304155648-957|31=45.5|32=100|37=20260416-071915-612791|38=100|39=2|40=2|44=45.5|54=2|55=AAPL|59=0|60=20260416-07:19:15.648|150=F|151=0|527=TRADE-1776304155648-957|10=083|
> 8=FIX.4.2|9=253|35=8|34=8|49=EXCHANGE|52=20260416-01:49:15.648|56=MINIFIX|6=46|11=928586089|14=50|17=EXEC-1776304155648-958|31=46|32=50|37=20260416-071915-612792|38=100|39=1|40=2|44=46|54=2|55=AAPL|59=0|60=20260416-07:19:15.648|150=F|151=50|527=TRADE-1776304155648-958|10=017|
> 8=FIX.4.2|9=258|35=8|34=9|49=EXCHANGE|52=20260416-01:49:15.648|56=MINIFIX|6=45.4|11=928586091|14=100|17=EXEC-1776304155648-956|31=45|32=100|37=20260416-071915-612793|38=250|39=1|40=2|44=46|54=1|55=AAPL|59=0|60=20260416-07:19:15.648|150=F|151=150|527=TRADE-1776304155648-956|10=251|
> 8=FIX.4.2|9=260|35=8|34=10|49=EXCHANGE|52=20260416-01:49:15.648|56=MINIFIX|6=45.4|11=928586091|14=200|17=EXEC-1776304155648-957|31=45.5|32=100|37=20260416-071915-612793|38=250|39=1|40=2|44=46|54=1|55=AAPL|59=0|60=20260416-07:19:15.648|150=F|151=50|527=TRADE-1776304155648-957|10=081|
> 8=FIX.4.2|9=256|35=8|34=11|49=EXCHANGE|52=20260416-01:49:15.648|56=MINIFIX|6=45.4|11=928586091|14=250|17=EXEC-1776304155648-958|31=46|32=50|37=20260416-071915-612793|38=250|39=2|40=2|44=46|54=1|55=AAPL|59=0|60=20260416-07:19:15.648|150=F|151=0|527=TRADE-1776304155648-958|10=156|
: T24 PASSED - Multi-level sweep fills 3 levels in correct order with correct quantities
: Batch Save to C:\Users\Aarav\OneDrive\Desktop\cmltest\fix-trading-simulator\external-scenarios\results\T24_result.txt
