: Adding FIX 4.0 protocol
: Adding FIX 4.1 protocol
: Adding FIX 4.2 protocol
: Adding FIX 4.3 protocol
: Adding FIX 4.4 protocol
: Bulding FIX 4.4 help
: Pipe (batch/log) interface active at \\.\pipe\minifix
: (C)2009-2013 Björn Ahlqvist, available free of charge from http://elato.se/minifix/
: Welcome to Mini-FIX 1.5.25!
: Pipe interface connected
: Pipe interface disconnected (code 109)
: Pipe interface connected
: Batch Session sequence numbers reset
: SenderCompId set to MINIFIX
: TargetCompId set to EXCHANGE
: Batch Connect 127.0.0.1:9876
: Pipe interface disconnected (code 109)
: Connect to 127.0.0.1, resolving..
: IP address 127.0.0.1 port 9876, connecting..
: Connected to 127.0.0.1:9876 at 20260416-01:49:21 UTC
< 8=FIX.4.2|9=66|35=A|49=MINIFIX|56=EXCHANGE|34=1|52=20260416-01:49:21|98=0|108=30|10=143|
> 8=FIX.4.2|9=70|35=A|34=1|49=EXCHANGE|52=20260416-01:49:21.977|56=MINIFIX|98=0|108=30|10=095|
: <done waiting, message matches>
< 8=FIX.4.2|9=134|35=D|49=MINIFIX|56=EXCHANGE|34=2|52=20260416-01:49:21|11=1031208849|21=1|55=AAPL|54=1|60=20260416-01:49:21|40=2|44=900.00|38=100|59=0|10=124|
> 8=FIX.4.2|9=220|35=8|34=2|49=EXCHANGE|52=20260416-01:49:21.995|56=MINIFIX|6=0|11=1031208849|14=0|17=EXEC-1776303563278|31=0|32=0|37=20260416-071921-612795|38=100|39=0|40=2|44=900|54=1|55=AAPL|59=0|60=20260416-07:19:21.995|150=0|151=100|10=196|
< 8=FIX.4.2|9=123|35=F|49=MINIFIX|56=EXCHANGE|34=3|52=20260416-01:49:22|41=1031208849|11=1031208850|55=AAPL|54=1|60=20260416-01:49:22|38=100|10=207|
> 8=FIX.4.2|9=218|35=8|34=3|49=EXCHANGE|52=20260416-01:49:22.297|56=MINIFIX|6=0|11=1031208849|14=0|17=EXEC-1776303563279|31=0|32=0|37=20260416-071921-612795|38=100|39=4|40=2|44=900|54=1|55=AAPL|59=0|60=20260416-07:19:22.297|150=4|151=0|10=108|
< 8=FIX.4.2|9=134|35=D|49=MINIFIX|56=EXCHANGE|34=4|52=20260416-01:49:22|11=1031208852|21=1|55=AAPL|54=1|60=20260416-01:49:22|40=2|44=900.00|38=100|59=0|10=122|
> 8=FIX.4.2|9=220|35=8|34=4|49=EXCHANGE|52=20260416-01:49:22.600|56=MINIFIX|6=0|11=1031208852|14=0|17=EXEC-1776303563280|31=0|32=0|37=20260416-071922-612796|38=100|39=0|40=2|44=900|54=1|55=AAPL|59=0|60=20260416-07:19:22.600|150=0|151=100|10=155|
< 8=FIX.4.2|9=123|35=F|49=MINIFIX|56=EXCHANGE|34=5|52=20260416-01:49:22|41=1031208852|11=1031208853|55=AAPL|54=1|60=20260416-01:49:22|38=100|10=206|
> 8=FIX.4.2|9=218|35=8|34=5|49=EXCHANGE|52=20260416-01:49:22.903|56=MINIFIX|6=0|11=1031208852|14=0|17=EXEC-1776303563281|31=0|32=0|37=20260416-071922-612796|38=100|39=4|40=2|44=900|54=1|55=AAPL|59=0|60=20260416-07:19:22.903|150=4|151=0|10=087|
< 8=FIX.4.2|9=134|35=D|49=MINIFIX|56=EXCHANGE|34=6|52=20260416-01:49:23|11=1031208855|21=1|55=AAPL|54=1|60=20260416-01:49:23|40=2|44=900.00|38=100|59=0|10=129|
> 8=FIX.4.2|9=220|35=8|34=6|49=EXCHANGE|52=20260416-01:49:23.209|56=MINIFIX|6=0|11=1031208855|14=0|17=EXEC-1776303563282|31=0|32=0|37=20260416-071923-612797|38=100|39=0|40=2|44=900|54=1|55=AAPL|59=0|60=20260416-07:19:23.209|150=0|151=100|10=176|
< 8=FIX.4.2|9=123|35=F|49=MINIFIX|56=EXCHANGE|34=7|52=20260416-01:49:23|41=1031208855|11=1031208856|55=AAPL|54=1|60=20260416-01:49:23|38=100|10=216|
> 8=FIX.4.2|9=218|35=8|34=7|49=EXCHANGE|52=20260416-01:49:23.509|56=MINIFIX|6=0|11=1031208855|14=0|17=EXEC-1776303563283|31=0|32=0|37=20260416-071923-612797|38=100|39=4|40=2|44=900|54=1|55=AAPL|59=0|60=20260416-07:19:23.509|150=4|151=0|10=102|
< 8=FIX.4.2|9=134|35=D|49=MINIFIX|56=EXCHANGE|34=8|52=20260416-01:49:23|11=1031208858|21=1|55=AAPL|54=1|60=20260416-01:49:23|40=2|44=900.00|38=100|59=0|10=134|
> 8=FIX.4.2|9=220|35=8|34=8|49=EXCHANGE|52=20260416-01:49:23.813|56=MINIFIX|6=0|11=1031208858|14=0|17=EXEC-1776303563284|31=0|32=0|37=20260416-071923-612798|38=100|39=0|40=2|44=900|54=1|55=AAPL|59=0|60=20260416-07:19:23.813|150=0|151=100|10=186|
< 8=FIX.4.2|9=123|35=F|49=MINIFIX|56=EXCHANGE|34=9|52=20260416-01:49:24|41=1031208858|11=1031208859|55=AAPL|54=1|60=20260416-01:49:24|38=100|10=226|
> 8=FIX.4.2|9=218|35=8|34=9|49=EXCHANGE|52=20260416-01:49:24.116|56=MINIFIX|6=0|11=1031208858|14=0|17=EXEC-1776303563285|31=0|32=0|37=20260416-071923-612798|38=100|39=4|40=2|44=900|54=1|55=AAPL|59=0|60=20260416-07:19:24.116|150=4|151=0|10=100|
< 8=FIX.4.2|9=135|35=D|49=MINIFIX|56=EXCHANGE|34=10|52=20260416-01:49:24|11=1031208861|21=1|55=AAPL|54=1|60=20260416-01:49:24|40=2|44=900.00|38=100|59=0|10=172|
> 8=FIX.4.2|9=221|35=8|34=10|49=EXCHANGE|52=20260416-01:49:24.419|56=MINIFIX|6=0|11=1031208861|14=0|17=EXEC-1776303563286|31=0|32=0|37=20260416-071924-612799|38=100|39=0|40=2|44=900|54=1|55=AAPL|59=0|60=20260416-07:19:24.419|150=0|151=100|10=232|
< 8=FIX.4.2|9=124|35=F|49=MINIFIX|56=EXCHANGE|34=11|52=20260416-01:49:24|41=1031208861|11=1031208862|55=AAPL|54=1|60=20260416-01:49:24|38=100|10=000|
> 8=FIX.4.2|9=219|35=8|34=11|49=EXCHANGE|52=20260416-01:49:24.723|56=MINIFIX|6=0|11=1031208861|14=0|17=EXEC-1776303563287|31=0|32=0|37=20260416-071924-612799|38=100|39=4|40=2|44=900|54=1|55=AAPL|59=0|60=20260416-07:19:24.723|150=4|151=0|10=148|
< 8=FIX.4.2|9=135|35=D|49=MINIFIX|56=EXCHANGE|34=12|52=20260416-01:49:25|11=1031208864|21=1|55=AAPL|54=2|60=20260416-01:49:25|40=2|44=900.00|38=100|59=0|10=180|
> 8=FIX.4.2|9=221|35=8|34=12|49=EXCHANGE|52=20260416-01:49:25.027|56=MINIFIX|6=0|11=1031208864|14=0|17=EXEC-1776303563288|31=0|32=0|37=20260416-071925-612800|38=100|39=0|40=2|44=900|54=2|55=AAPL|59=0|60=20260416-07:19:25.027|150=0|151=100|10=216|
< 8=FIX.4.2|9=124|35=F|49=MINIFIX|56=EXCHANGE|34=13|52=20260416-01:49:25|41=1031208864|11=1031208865|55=AAPL|54=2|60=20260416-01:49:25|38=100|10=011|
> 8=FIX.4.2|9=219|35=8|34=13|49=EXCHANGE|52=20260416-01:49:25.329|56=MINIFIX|6=0|11=1031208864|14=0|17=EXEC-1776303563289|31=0|32=0|37=20260416-071925-612800|38=100|39=4|40=2|44=900|54=2|55=AAPL|59=0|60=20260416-07:19:25.329|150=4|151=0|10=146|
< 8=FIX.4.2|9=135|35=D|49=MINIFIX|56=EXCHANGE|34=14|52=20260416-01:49:25|11=1031208867|21=1|55=AAPL|54=2|60=20260416-01:49:25|40=2|44=900.00|38=100|59=0|10=185|
> 8=FIX.4.2|9=221|35=8|34=14|49=EXCHANGE|52=20260416-01:49:25.631|56=MINIFIX|6=0|11=1031208867|14=0|17=EXEC-1776303563290|31=0|32=0|37=20260416-071925-612801|38=100|39=0|40=2|44=900|54=2|55=AAPL|59=0|60=20260416-07:19:25.631|150=0|151=100|10=217|
< 8=FIX.4.2|9=124|35=F|49=MINIFIX|56=EXCHANGE|34=15|52=20260416-01:49:25|41=1031208867|11=1031208868|55=AAPL|54=2|60=20260416-01:49:25|38=100|10=019|
> 8=FIX.4.2|9=219|35=8|34=15|49=EXCHANGE|52=20260416-01:49:25.934|56=MINIFIX|6=0|11=1031208867|14=0|17=EXEC-1776303563291|31=0|32=0|37=20260416-071925-612801|38=100|39=4|40=2|44=900|54=2|55=AAPL|59=0|60=20260416-07:19:25.934|150=4|151=0|10=149|
< 8=FIX.4.2|9=135|35=D|49=MINIFIX|56=EXCHANGE|34=16|52=20260416-01:49:26|11=1031208870|21=1|55=AAPL|54=2|60=20260416-01:49:26|40=2|44=900.00|38=100|59=0|10=183|
> 8=FIX.4.2|9=221|35=8|34=16|49=EXCHANGE|52=20260416-01:49:26.237|56=MINIFIX|6=0|11=1031208870|14=0|17=EXEC-1776303563292|31=0|32=0|37=20260416-071926-612802|38=100|39=0|40=2|44=900|54=2|55=AAPL|59=0|60=20260416-07:19:26.237|150=0|151=100|10=223|
< 8=FIX.4.2|9=124|35=F|49=MINIFIX|56=EXCHANGE|34=17|52=20260416-01:49:26|41=1031208870|11=1031208871|55=AAPL|54=2|60=20260416-01:49:26|38=100|10=011|
> 8=FIX.4.2|9=219|35=8|34=17|49=EXCHANGE|52=20260416-01:49:26.540|56=MINIFIX|6=0|11=1031208870|14=0|17=EXEC-1776303563293|31=0|32=0|37=20260416-071926-612802|38=100|39=4|40=2|44=900|54=2|55=AAPL|59=0|60=20260416-07:19:26.540|150=4|151=0|10=137|
< 8=FIX.4.2|9=135|35=D|49=MINIFIX|56=EXCHANGE|34=18|52=20260416-01:49:26|11=1031208873|21=1|55=AAPL|54=1|60=20260416-01:49:26|40=2|44=900.00|38=100|59=0|10=187|
> 8=FIX.4.2|9=221|35=8|34=18|49=EXCHANGE|52=20260416-01:49:26.844|56=MINIFIX|6=0|11=1031208873|14=0|17=EXEC-1776303563294|31=0|32=0|37=20260416-071926-612803|38=100|39=0|40=2|44=900|54=1|55=AAPL|59=0|60=20260416-07:19:26.844|150=0|151=100|10=238|
< 8=FIX.4.2|9=124|35=F|49=MINIFIX|56=EXCHANGE|34=19|52=20260416-01:49:27|41=1031208873|11=1031208874|55=AAPL|54=1|60=20260416-01:49:27|38=100|10=020|
> 8=FIX.4.2|9=219|35=8|34=19|49=EXCHANGE|52=20260416-01:49:27.146|56=MINIFIX|6=0|11=1031208873|14=0|17=EXEC-1776303563295|31=0|32=0|37=20260416-071926-612803|38=100|39=4|40=2|44=900|54=1|55=AAPL|59=0|60=20260416-07:19:27.146|150=4|151=0|10=150|
< 8=FIX.4.2|9=135|35=D|49=MINIFIX|56=EXCHANGE|34=20|52=20260416-01:49:27|11=1031208876|21=1|55=AAPL|54=2|60=20260416-01:49:27|40=2|44=900.00|38=100|59=0|10=186|
> 8=FIX.4.2|9=221|35=8|34=20|49=EXCHANGE|52=20260416-01:49:27.449|56=MINIFIX|6=0|11=1031208876|14=0|17=EXEC-1776303563296|31=0|32=0|37=20260416-071927-612804|38=100|39=0|40=2|44=900|54=2|55=AAPL|59=0|60=20260416-07:19:27.449|150=0|151=100|10=243|
< 8=FIX.4.2|9=124|35=F|49=MINIFIX|56=EXCHANGE|34=21|52=20260416-01:49:27|41=1031208876|11=1031208877|55=AAPL|54=2|60=20260416-01:49:27|38=100|10=020|
> 8=FIX.4.2|9=219|35=8|34=21|49=EXCHANGE|52=20260416-01:49:27.754|56=MINIFIX|6=0|11=1031208876|14=0|17=EXEC-1776303563297|31=0|32=0|37=20260416-071927-612804|38=100|39=4|40=2|44=900|54=2|55=AAPL|59=0|60=20260416-07:19:27.754|150=4|151=0|10=161|
: T25 PASSED - 10 rapid submit-cancel pairs all canceled without spurious matches
: Batch Save to C:\Users\Aarav\OneDrive\Desktop\cmltest\fix-trading-simulator\external-scenarios\results\T25_result.txt
