: Adding FIX 4.0 protocol
: Adding FIX 4.1 protocol
: Adding FIX 4.2 protocol
: Adding FIX 4.3 protocol
: Adding FIX 4.4 protocol
: Bulding FIX 4.4 help
: Pipe (batch/log) interface active at \\.\pipe\minifix
: (C)2009-2013 Bj—rn Ahlqvist, available free of charge from http://elato.se/minifix/
: Welcome to Mini-FIX 1.5.25!
: Pipe interface connected
: Pipe interface disconnected (code 109)
: Pipe interface connected
: Batch Session sequence numbers reset
: SenderCompId set to MINIFIX
: TargetCompId set to EXCHANGE
: Batch Connect 127.0.0.1:9876
: Pipe interface disconnected (code 109)
: Connect to 127.0.0.1, resolving..
: IP address 127.0.0.1 port 9876, connecting..
: Connected to 127.0.0.1:9876 at 20260416-01:49:53 UTC
< 8=FIX.4.2|9=66|35=A|49=MINIFIX|56=EXCHANGE|34=1|52=20260416-01:49:53|98=0|108=30|10=148|
> 8=FIX.4.2|9=70|35=A|34=1|49=EXCHANGE|52=20260416-01:49:54.004|56=MINIFIX|98=0|108=30|10=082|
: <done waiting, message matches>
: T30 START 20260416-01:49:54
< 8=FIX.4.2|9=133|35=D|49=MINIFIX|56=EXCHANGE|34=2|52=20260416-01:49:54|11=496510159|21=1|55=AAPL|54=1|60=20260416-01:49:54|40=2|44=150.00|38=100|59=0|10=088|
< 8=FIX.4.2|9=133|35=D|49=MINIFIX|56=EXCHANGE|34=3|52=20260416-01:49:54|11=496510161|21=1|55=AAPL|54=2|60=20260416-01:49:54|40=2|44=150.00|38=100|59=0|10=083|
< 8=FIX.4.2|9=133|35=D|49=MINIFIX|56=EXCHANGE|34=4|52=20260416-01:49:54|11=496510163|21=1|55=AAPL|54=1|60=20260416-01:49:54|40=2|44=150.00|38=100|59=0|10=085|
> 8=FIX.4.2|9=219|35=8|34=2|49=EXCHANGE|52=20260416-01:49:54.029|56=MINIFIX|6=0|11=496510159|14=0|17=EXEC-1776303563319|31=0|32=0|37=20260416-071954-612816|38=100|39=0|40=2|44=150|54=1|55=AAPL|59=0|60=20260416-07:19:54.029|150=0|151=100|10=141|
< 8=FIX.4.2|9=133|35=D|49=MINIFIX|56=EXCHANGE|34=5|52=20260416-01:49:54|11=496510165|21=1|55=AAPL|54=2|60=20260416-01:49:54|40=2|44=150.00|38=100|59=0|10=089|
< 8=FIX.4.2|9=133|35=D|49=MINIFIX|56=EXCHANGE|34=6|52=20260416-01:49:54|11=496510167|21=1|55=AAPL|54=1|60=20260416-01:49:54|40=2|44=150.00|38=100|59=0|10=091|
> 8=FIX.4.2|9=219|35=8|34=3|49=EXCHANGE|52=20260416-01:49:54.030|56=MINIFIX|6=0|11=496510161|14=0|17=EXEC-1776303563320|31=0|32=0|37=20260416-071954-612817|38=100|39=0|40=2|44=150|54=2|55=AAPL|59=0|60=20260416-07:19:54.030|150=0|151=100|10=113|
< 8=FIX.4.2|9=133|35=D|49=MINIFIX|56=EXCHANGE|34=7|52=20260416-01:49:54|11=496510169|21=1|55=AAPL|54=2|60=20260416-01:49:54|40=2|44=150.00|38=100|59=0|10=095|
< 8=FIX.4.2|9=133|35=D|49=MINIFIX|56=EXCHANGE|34=8|52=20260416-01:49:54|11=496510171|21=1|55=AAPL|54=1|60=20260416-01:49:54|40=2|44=150.00|38=100|59=0|10=088|
> 8=FIX.4.2|9=257|35=8|34=4|49=EXCHANGE|52=20260416-01:49:54.032|56=MINIFIX|6=150|11=496510159|14=100|17=EXEC-1776304194030-962|31=150|32=100|37=20260416-071954-612816|38=100|39=2|40=2|44=150|54=1|55=AAPL|59=0|60=20260416-07:19:54.032|150=F|151=0|527=TRADE-1776304194030-962|10=115|
> 8=FIX.4.2|9=257|35=8|34=5|49=EXCHANGE|52=20260416-01:49:54.032|56=MINIFIX|6=150|11=496510161|14=100|17=EXEC-1776304194030-962|31=150|32=100|37=20260416-071954-612817|38=100|39=2|40=2|44=150|54=2|55=AAPL|59=0|60=20260416-07:19:54.032|150=F|151=0|527=TRADE-1776304194030-962|10=111|
< 8=FIX.4.2|9=133|35=D|49=MINIFIX|56=EXCHANGE|34=9|52=20260416-01:49:54|11=496510173|21=1|55=AAPL|54=2|60=20260416-01:49:54|40=2|44=150.00|38=100|59=0|10=092|
< 8=FIX.4.2|9=134|35=D|49=MINIFIX|56=EXCHANGE|34=10|52=20260416-01:49:54|11=496510175|21=1|55=AAPL|54=1|60=20260416-01:49:54|40=2|44=150.00|38=100|59=0|10=134|
> 8=FIX.4.2|9=219|35=8|34=6|49=EXCHANGE|52=20260416-01:49:54.032|56=MINIFIX|6=0|11=496510163|14=0|17=EXEC-1776303563323|31=0|32=0|37=20260416-071954-612818|38=100|39=0|40=2|44=150|54=1|55=AAPL|59=0|60=20260416-07:19:54.032|150=0|151=100|10=125|
< 8=FIX.4.2|9=134|35=D|49=MINIFIX|56=EXCHANGE|34=11|52=20260416-01:49:54|11=496510177|21=1|55=AAPL|54=2|60=20260416-01:49:54|40=2|44=150.00|38=100|59=0|10=138|
< 8=FIX.4.2|9=134|35=D|49=MINIFIX|56=EXCHANGE|34=12|52=20260416-01:49:54|11=496510179|21=1|55=AAPL|54=1|60=20260416-01:49:54|40=2|44=150.00|38=100|59=0|10=140|
> 8=FIX.4.2|9=219|35=8|34=7|49=EXCHANGE|52=20260416-01:49:54.035|56=MINIFIX|6=0|11=496510165|14=0|17=EXEC-1776303563324|31=0|32=0|37=20260416-071954-612819|38=100|39=0|40=2|44=150|54=2|55=AAPL|59=0|60=20260416-07:19:54.035|150=0|151=100|10=137|
< 8=FIX.4.2|9=134|35=D|49=MINIFIX|56=EXCHANGE|34=13|52=20260416-01:49:54|11=496510181|21=1|55=AAPL|54=2|60=20260416-01:49:54|40=2|44=150.00|38=100|59=0|10=135|
< 8=FIX.4.2|9=134|35=D|49=MINIFIX|56=EXCHANGE|34=14|52=20260416-01:49:54|11=496510183|21=1|55=AAPL|54=1|60=20260416-01:49:54|40=2|44=150.00|38=100|59=0|10=137|
> 8=FIX.4.2|9=257|35=8|34=8|49=EXCHANGE|52=20260416-01:49:54.036|56=MINIFIX|6=150|11=496510163|14=100|17=EXEC-1776304194036-963|31=150|32=100|37=20260416-071954-612818|38=100|39=2|40=2|44=150|54=1|55=AAPL|59=0|60=20260416-07:19:54.036|150=F|151=0|527=TRADE-1776304194036-963|10=138|
> 8=FIX.4.2|9=257|35=8|34=9|49=EXCHANGE|52=20260416-01:49:54.036|56=MINIFIX|6=150|11=496510165|14=100|17=EXEC-1776304194036-963|31=150|32=100|37=20260416-071954-612819|38=100|39=2|40=2|44=150|54=2|55=AAPL|59=0|60=20260416-07:19:54.036|150=F|151=0|527=TRADE-1776304194036-963|10=143|
< 8=FIX.4.2|9=134|35=D|49=MINIFIX|56=EXCHANGE|34=15|52=20260416-01:49:54|11=496510185|21=1|55=AAPL|54=2|60=20260416-01:49:54|40=2|44=150.00|38=100|59=0|10=141|
< 8=FIX.4.2|9=134|35=D|49=MINIFIX|56=EXCHANGE|34=16|52=20260416-01:49:54|11=496510187|21=1|55=AAPL|54=1|60=20260416-01:49:54|40=2|44=150.00|38=100|59=0|10=143|
> 8=FIX.4.2|9=220|35=8|34=10|49=EXCHANGE|52=20260416-01:49:54.039|56=MINIFIX|6=0|11=496510167|14=0|17=EXEC-1776303563327|31=0|32=0|37=20260416-071954-612820|38=100|39=0|40=2|44=150|54=1|55=AAPL|59=0|60=20260416-07:19:54.039|150=0|151=100|10=175|
< 8=FIX.4.2|9=134|35=D|49=MINIFIX|56=EXCHANGE|34=17|52=20260416-01:49:54|11=496510189|21=1|55=AAPL|54=2|60=20260416-01:49:54|40=2|44=150.00|38=100|59=0|10=147|
< 8=FIX.4.2|9=134|35=D|49=MINIFIX|56=EXCHANGE|34=18|52=20260416-01:49:54|11=496510191|21=1|55=AAPL|54=1|60=20260416-01:49:54|40=2|44=150.00|38=100|59=0|10=140|
> 8=FIX.4.2|9=220|35=8|34=11|49=EXCHANGE|52=20260416-01:49:54.039|56=MINIFIX|6=0|11=496510169|14=0|17=EXEC-1776303563328|31=0|32=0|37=20260416-071954-612821|38=100|39=0|40=2|44=150|54=2|55=AAPL|59=0|60=20260416-07:19:54.039|150=0|151=100|10=181|
< 8=FIX.4.2|9=134|35=D|49=MINIFIX|56=EXCHANGE|34=19|52=20260416-01:49:54|11=496510193|21=1|55=AAPL|54=2|60=20260416-01:49:54|40=2|44=150.00|38=100|59=0|10=144|
> 8=FIX.4.2|9=258|35=8|34=12|49=EXCHANGE|52=20260416-01:49:54.042|56=MINIFIX|6=150|11=496510167|14=100|17=EXEC-1776304194039-964|31=150|32=100|37=20260416-071954-612820|38=100|39=2|40=2|44=150|54=1|55=AAPL|59=0|60=20260416-07:19:54.042|150=F|151=0|527=TRADE-1776304194039-964|10=181|
< 8=FIX.4.2|9=134|35=D|49=MINIFIX|56=EXCHANGE|34=20|52=20260416-01:49:54|11=496510195|21=1|55=AAPL|54=1|60=20260416-01:49:54|40=2|44=150.00|38=100|59=0|10=137|
> 8=FIX.4.2|9=258|35=8|34=13|49=EXCHANGE|52=20260416-01:49:54.042|56=MINIFIX|6=150|11=496510169|14=100|17=EXEC-1776304194039-964|31=150|32=100|37=20260416-071954-612821|38=100|39=2|40=2|44=150|54=2|55=AAPL|59=0|60=20260416-07:19:54.042|150=F|151=0|527=TRADE-1776304194039-964|10=186|
< 8=FIX.4.2|9=134|35=D|49=MINIFIX|56=EXCHANGE|34=21|52=20260416-01:49:54|11=496510197|21=1|55=AAPL|54=2|60=20260416-01:49:54|40=2|44=150.00|38=100|59=0|10=141|
< 8=FIX.4.2|9=134|35=D|49=MINIFIX|56=EXCHANGE|34=22|52=20260416-01:49:54|11=496510199|21=1|55=AAPL|54=1|60=20260416-01:49:54|40=2|44=150.00|38=100|59=0|10=143|
> 8=FIX.4.2|9=220|35=8|34=14|49=EXCHANGE|52=20260416-01:49:54.042|56=MINIFIX|6=0|11=496510171|14=0|17=EXEC-1776303563331|31=0|32=0|37=20260416-071954-612822|38=100|39=0|40=2|44=150|54=1|55=AAPL|59=0|60=20260416-07:19:54.042|150=0|151=100|10=159|
< 8=FIX.4.2|9=134|35=D|49=MINIFIX|56=EXCHANGE|34=23|52=20260416-01:49:54|11=496510201|21=1|55=AAPL|54=2|60=20260416-01:49:54|40=2|44=150.00|38=100|59=0|10=129|
< 8=FIX.4.2|9=134|35=D|49=MINIFIX|56=EXCHANGE|34=24|52=20260416-01:49:54|11=496510203|21=1|55=AAPL|54=1|60=20260416-01:49:54|40=2|44=150.00|38=100|59=0|10=131|
> 8=FIX.4.2|9=220|35=8|34=15|49=EXCHANGE|52=20260416-01:49:54.042|56=MINIFIX|6=0|11=496510173|14=0|17=EXEC-1776303563332|31=0|32=0|37=20260416-071954-612823|38=100|39=0|40=2|44=150|54=2|55=AAPL|59=0|60=20260416-07:19:54.042|150=0|151=100|10=165|
< 8=FIX.4.2|9=134|35=D|49=MINIFIX|56=EXCHANGE|34=25|52=20260416-01:49:54|11=496510205|21=1|55=AAPL|54=2|60=20260416-01:49:54|40=2|44=150.00|38=100|59=0|10=135|
> 8=FIX.4.2|9=258|35=8|34=16|49=EXCHANGE|52=20260416-01:49:54.042|56=MINIFIX|6=150|11=496510171|14=100|17=EXEC-1776304194042-965|31=150|32=100|37=20260416-071954-612822|38=100|39=2|40=2|44=150|54=1|55=AAPL|59=0|60=20260416-07:19:54.042|150=F|151=0|527=TRADE-1776304194042-965|10=172|
< 8=FIX.4.2|9=134|35=D|49=MINIFIX|56=EXCHANGE|34=26|52=20260416-01:49:54|11=496510207|21=1|55=AAPL|54=1|60=20260416-01:49:54|40=2|44=150.00|38=100|59=0|10=137|
> 8=FIX.4.2|9=258|35=8|34=17|49=EXCHANGE|52=20260416-01:49:54.042|56=MINIFIX|6=150|11=496510173|14=100|17=EXEC-1776304194042-965|31=150|32=100|37=20260416-071954-612823|38=100|39=2|40=2|44=150|54=2|55=AAPL|59=0|60=20260416-07:19:54.042|150=F|151=0|527=TRADE-1776304194042-965|10=177|
< 8=FIX.4.2|9=134|35=D|49=MINIFIX|56=EXCHANGE|34=27|52=20260416-01:49:54|11=496510209|21=1|55=AAPL|54=2|60=20260416-01:49:54|40=2|44=150.00|38=100|59=0|10=141|
< 8=FIX.4.2|9=134|35=D|49=MINIFIX|56=EXCHANGE|34=28|52=20260416-01:49:54|11=496510211|21=1|55=AAPL|54=1|60=20260416-01:49:54|40=2|44=150.00|38=100|59=0|10=134|
> 8=FIX.4.2|9=220|35=8|34=18|49=EXCHANGE|52=20260416-01:49:54.048|56=MINIFIX|6=0|11=496510175|14=0|17=EXEC-1776303563335|31=0|32=0|37=20260416-071954-612824|38=100|39=0|40=2|44=150|54=1|55=AAPL|59=0|60=20260416-07:19:54.048|150=0|151=100|10=185|
< 8=FIX.4.2|9=134|35=D|49=MINIFIX|56=EXCHANGE|34=29|52=20260416-01:49:54|11=496510213|21=1|55=AAPL|54=2|60=20260416-01:49:54|40=2|44=150.00|38=100|59=0|10=138|
< 8=FIX.4.2|9=134|35=D|49=MINIFIX|56=EXCHANGE|34=30|52=20260416-01:49:54|11=496510215|21=1|55=AAPL|54=1|60=20260416-01:49:54|40=2|44=150.00|38=100|59=0|10=131|
> 8=FIX.4.2|9=220|35=8|34=19|49=EXCHANGE|52=20260416-01:49:54.048|56=MINIFIX|6=0|11=496510177|14=0|17=EXEC-1776303563336|31=0|32=0|37=20260416-071954-612825|38=100|39=0|40=2|44=150|54=2|55=AAPL|59=0|60=20260416-07:19:54.048|150=0|151=100|10=191|
< 8=FIX.4.2|9=134|35=D|49=MINIFIX|56=EXCHANGE|34=31|52=20260416-01:49:54|11=496510217|21=1|55=AAPL|54=2|60=20260416-01:49:54|40=2|44=150.00|38=100|59=0|10=135|
> 8=FIX.4.2|9=258|35=8|34=20|49=EXCHANGE|52=20260416-01:49:54.048|56=MINIFIX|6=150|11=496510175|14=100|17=EXEC-1776304194048-966|31=150|32=100|37=20260416-071954-612824|38=100|39=2|40=2|44=150|54=1|55=AAPL|59=0|60=20260416-07:19:54.048|150=F|151=0|527=TRADE-1776304194048-966|10=199|
< 8=FIX.4.2|9=134|35=D|49=MINIFIX|56=EXCHANGE|34=32|52=20260416-01:49:54|11=496510219|21=1|55=AAPL|54=1|60=20260416-01:49:54|40=2|44=150.00|38=100|59=0|10=137|
> 8=FIX.4.2|9=258|35=8|34=21|49=EXCHANGE|52=20260416-01:49:54.052|56=MINIFIX|6=150|11=496510177|14=100|17=EXEC-1776304194048-966|31=150|32=100|37=20260416-071954-612825|38=100|39=2|40=2|44=150|54=2|55=AAPL|59=0|60=20260416-07:19:54.052|150=F|151=0|527=TRADE-1776304194048-966|10=194|
< 8=FIX.4.2|9=134|35=D|49=MINIFIX|56=EXCHANGE|34=33|52=20260416-01:49:54|11=496510221|21=1|55=AAPL|54=2|60=20260416-01:49:54|40=2|44=150.00|38=100|59=0|10=132|
< 8=FIX.4.2|9=134|35=D|49=MINIFIX|56=EXCHANGE|34=34|52=20260416-01:49:54|11=496510223|21=1|55=AAPL|54=1|60=20260416-01:49:54|40=2|44=150.00|38=100|59=0|10=134|
> 8=FIX.4.2|9=220|35=8|34=22|49=EXCHANGE|52=20260416-01:49:54.052|56=MINIFIX|6=0|11=496510179|14=0|17=EXEC-1776303563339|31=0|32=0|37=20260416-071954-612826|38=100|39=0|40=2|44=150|54=1|55=AAPL|59=0|60=20260416-07:19:54.052|150=0|151=100|10=180|
< 8=FIX.4.2|9=134|35=D|49=MINIFIX|56=EXCHANGE|34=35|52=20260416-01:49:54|11=496510225|21=1|55=AAPL|54=2|60=20260416-01:49:54|40=2|44=150.00|38=100|59=0|10=138|
< 8=FIX.4.2|9=134|35=D|49=MINIFIX|56=EXCHANGE|34=36|52=20260416-01:49:54|11=496510227|21=1|55=AAPL|54=1|60=20260416-01:49:54|40=2|44=150.00|38=100|59=0|10=140|
> 8=FIX.4.2|9=220|35=8|34=23|49=EXCHANGE|52=20260416-01:49:54.054|56=MINIFIX|6=0|11=496510181|14=0|17=EXEC-1776303563340|31=0|32=0|37=20260416-071954-612827|38=100|39=0|40=2|44=150|54=2|55=AAPL|59=0|60=20260416-07:19:54.054|150=0|151=100|10=172|
< 8=FIX.4.2|9=134|35=D|49=MINIFIX|56=EXCHANGE|34=37|52=20260416-01:49:54|11=496510229|21=1|55=AAPL|54=2|60=20260416-01:49:54|40=2|44=150.00|38=100|59=0|10=144|
< 8=FIX.4.2|9=134|35=D|49=MINIFIX|56=EXCHANGE|34=38|52=20260416-01:49:54|11=496510231|21=1|55=AAPL|54=1|60=20260416-01:49:54|40=2|44=150.00|38=100|59=0|10=137|
< 8=FIX.4.2|9=134|35=D|49=MINIFIX|56=EXCHANGE|34=39|52=20260416-01:49:54|11=496510233|21=1|55=AAPL|54=2|60=20260416-01:49:54|40=2|44=150.00|38=100|59=0|10=141|
> 8=FIX.4.2|9=258|35=8|34=24|49=EXCHANGE|52=20260416-01:49:54.056|56=MINIFIX|6=150|11=496510179|14=100|17=EXEC-1776304194054-967|31=150|32=100|37=20260416-071954-612826|38=100|39=2|40=2|44=150|54=1|55=AAPL|59=0|60=20260416-07:19:54.056|150=F|151=0|527=TRADE-1776304194054-967|10=203|
> 8=FIX.4.2|9=258|35=8|34=25|49=EXCHANGE|52=20260416-01:49:54.056|56=MINIFIX|6=150|11=496510181|14=100|17=EXEC-1776304194054-967|31=150|32=100|37=20260416-071954-612827|38=100|39=2|40=2|44=150|54=2|55=AAPL|59=0|60=20260416-07:19:54.056|150=F|151=0|527=TRADE-1776304194054-967|10=199|
< 8=FIX.4.2|9=134|35=D|49=MINIFIX|56=EXCHANGE|34=40|52=20260416-01:49:54|11=496510235|21=1|55=AAPL|54=1|60=20260416-01:49:54|40=2|44=150.00|38=100|59=0|10=134|
< 8=FIX.4.2|9=134|35=D|49=MINIFIX|56=EXCHANGE|34=41|52=20260416-01:49:54|11=496510237|21=1|55=AAPL|54=2|60=20260416-01:49:54|40=2|44=150.00|38=100|59=0|10=138|
> 8=FIX.4.2|9=220|35=8|34=26|49=EXCHANGE|52=20260416-01:49:54.058|56=MINIFIX|6=0|11=496510183|14=0|17=EXEC-1776303563343|31=0|32=0|37=20260416-071954-612828|38=100|39=0|40=2|44=150|54=1|55=AAPL|59=0|60=20260416-07:19:54.058|150=0|151=100|10=188|
< 8=FIX.4.2|9=134|35=D|49=MINIFIX|56=EXCHANGE|34=42|52=20260416-01:49:54|11=496510239|21=1|55=AAPL|54=1|60=20260416-01:49:54|40=2|44=150.00|38=100|59=0|10=140|
< 8=FIX.4.2|9=134|35=D|49=MINIFIX|56=EXCHANGE|34=43|52=20260416-01:49:54|11=496510241|21=1|55=AAPL|54=2|60=20260416-01:49:54|40=2|44=150.00|38=100|59=0|10=135|
> 8=FIX.4.2|9=220|35=8|34=27|49=EXCHANGE|52=20260416-01:49:54.058|56=MINIFIX|6=0|11=496510185|14=0|17=EXEC-1776303563344|31=0|32=0|37=20260416-071954-612829|38=100|39=0|40=2|44=150|54=2|55=AAPL|59=0|60=20260416-07:19:54.058|150=0|151=100|10=194|
< 8=FIX.4.2|9=134|35=D|49=MINIFIX|56=EXCHANGE|34=44|52=20260416-01:49:54|11=496510243|21=1|55=AAPL|54=1|60=20260416-01:49:54|40=2|44=150.00|38=100|59=0|10=137|
< 8=FIX.4.2|9=134|35=D|49=MINIFIX|56=EXCHANGE|34=45|52=20260416-01:49:54|11=496510245|21=1|55=AAPL|54=2|60=20260416-01:49:54|40=2|44=150.00|38=100|59=0|10=141|
< 8=FIX.4.2|9=134|35=D|49=MINIFIX|56=EXCHANGE|34=46|52=20260416-01:49:54|11=496510247|21=1|55=AAPL|54=1|60=20260416-01:49:54|40=2|44=150.00|38=100|59=0|10=143|
> 8=FIX.4.2|9=258|35=8|34=28|49=EXCHANGE|52=20260416-01:49:54.061|56=MINIFIX|6=150|11=496510183|14=100|17=EXEC-1776304194061-968|31=150|32=100|37=20260416-071954-612828|38=100|39=2|40=2|44=150|54=1|55=AAPL|59=0|60=20260416-07:19:54.061|150=F|151=0|527=TRADE-1776304194061-968|10=194|
< 8=FIX.4.2|9=134|35=D|49=MINIFIX|56=EXCHANGE|34=47|52=20260416-01:49:54|11=496510249|21=1|55=AAPL|54=2|60=20260416-01:49:54|40=2|44=150.00|38=100|59=0|10=147|
> 8=FIX.4.2|9=258|35=8|34=29|49=EXCHANGE|52=20260416-01:49:54.063|56=MINIFIX|6=150|11=496510185|14=100|17=EXEC-1776304194061-968|31=150|32=100|37=20260416-071954-612829|38=100|39=2|40=2|44=150|54=2|55=AAPL|59=0|60=20260416-07:19:54.063|150=F|151=0|527=TRADE-1776304194061-968|10=203|
< 8=FIX.4.2|9=134|35=D|49=MINIFIX|56=EXCHANGE|34=48|52=20260416-01:49:54|11=496510251|21=1|55=AAPL|54=1|60=20260416-01:49:54|40=2|44=150.00|38=100|59=0|10=140|
> 8=FIX.4.2|9=220|35=8|34=30|49=EXCHANGE|52=20260416-01:49:54.063|56=MINIFIX|6=0|11=496510187|14=0|17=EXEC-1776303563347|31=0|32=0|37=20260416-071954-612830|38=100|39=0|40=2|44=150|54=1|55=AAPL|59=0|60=20260416-07:19:54.063|150=0|151=100|10=176|
< 8=FIX.4.2|9=134|35=D|49=MINIFIX|56=EXCHANGE|34=49|52=20260416-01:49:54|11=496510253|21=1|55=AAPL|54=2|60=20260416-01:49:54|40=2|44=150.00|38=100|59=0|10=144|
< 8=FIX.4.2|9=134|35=D|49=MINIFIX|56=EXCHANGE|34=50|52=20260416-01:49:54|11=496510255|21=1|55=AAPL|54=1|60=20260416-01:49:54|40=2|44=150.00|38=100|59=0|10=137|
> 8=FIX.4.2|9=220|35=8|34=31|49=EXCHANGE|52=20260416-01:49:54.063|56=MINIFIX|6=0|11=496510189|14=0|17=EXEC-1776303563348|31=0|32=0|37=20260416-071954-612831|38=100|39=0|40=2|44=150|54=2|55=AAPL|59=0|60=20260416-07:19:54.063|150=0|151=100|10=182|
< 8=FIX.4.2|9=134|35=D|49=MINIFIX|56=EXCHANGE|34=51|52=20260416-01:49:54|11=496510257|21=1|55=AAPL|54=2|60=20260416-01:49:54|40=2|44=150.00|38=100|59=0|10=141|
< 8=FIX.4.2|9=134|35=D|49=MINIFIX|56=EXCHANGE|34=52|52=20260416-01:49:54|11=496510259|21=1|55=AAPL|54=1|60=20260416-01:49:54|40=2|44=150.00|38=100|59=0|10=143|
> 8=FIX.4.2|9=258|35=8|34=32|49=EXCHANGE|52=20260416-01:49:54.068|56=MINIFIX|6=150|11=496510187|14=100|17=EXEC-1776304194063-969|31=150|32=100|37=20260416-071954-612830|38=100|39=2|40=2|44=150|54=1|55=AAPL|59=0|60=20260416-07:19:54.068|150=F|151=0|527=TRADE-1776304194063-969|10=206|
< 8=FIX.4.2|9=134|35=D|49=MINIFIX|56=EXCHANGE|34=53|52=20260416-01:49:54|11=496510261|21=1|55=AAPL|54=2|60=20260416-01:49:54|40=2|44=150.00|38=100|59=0|10=138|
> 8=FIX.4.2|9=258|35=8|34=33|49=EXCHANGE|52=20260416-01:49:54.068|56=MINIFIX|6=150|11=496510189|14=100|17=EXEC-1776304194063-969|31=150|32=100|37=20260416-071954-612831|38=100|39=2|40=2|44=150|54=2|55=AAPL|59=0|60=20260416-07:19:54.068|150=F|151=0|527=TRADE-1776304194063-969|10=211|
< 8=FIX.4.2|9=134|35=D|49=MINIFIX|56=EXCHANGE|34=54|52=20260416-01:49:54|11=496510263|21=1|55=AAPL|54=1|60=20260416-01:49:54|40=2|44=150.00|38=100|59=0|10=140|
> 8=FIX.4.2|9=220|35=8|34=34|49=EXCHANGE|52=20260416-01:49:54.068|56=MINIFIX|6=0|11=496510191|14=0|17=EXEC-1776303563351|31=0|32=0|37=20260416-071954-612832|38=100|39=0|40=2|44=150|54=1|55=AAPL|59=0|60=20260416-07:19:54.068|150=0|151=100|10=182|
< 8=FIX.4.2|9=134|35=D|49=MINIFIX|56=EXCHANGE|34=55|52=20260416-01:49:54|11=496510265|21=1|55=AAPL|54=2|60=20260416-01:49:54|40=2|44=150.00|38=100|59=0|10=144|
< 8=FIX.4.2|9=134|35=D|49=MINIFIX|56=EXCHANGE|34=56|52=20260416-01:49:54|11=496510267|21=1|55=AAPL|54=1|60=20260416-01:49:54|40=2|44=150.00|38=100|59=0|10=146|
> 8=FIX.4.2|9=220|35=8|34=35|49=EXCHANGE|52=20260416-01:49:54.070|56=MINIFIX|6=0|11=496510193|14=0|17=EXEC-1776303563352|31=0|32=0|37=20260416-071954-612833|38=100|39=0|40=2|44=150|54=2|55=AAPL|59=0|60=20260416-07:19:54.070|150=0|151=100|10=174|
< 8=FIX.4.2|9=134|35=D|49=MINIFIX|56=EXCHANGE|34=57|52=20260416-01:49:54|11=496510269|21=1|55=AAPL|54=2|60=20260416-01:49:54|40=2|44=150.00|38=100|59=0|10=150|
< 8=FIX.4.2|9=134|35=D|49=MINIFIX|56=EXCHANGE|34=58|52=20260416-01:49:54|11=496510271|21=1|55=AAPL|54=1|60=20260416-01:49:54|40=2|44=150.00|38=100|59=0|10=143|
> 8=FIX.4.2|9=258|35=8|34=36|49=EXCHANGE|52=20260416-01:49:54.073|56=MINIFIX|6=150|11=496510191|14=100|17=EXEC-1776304194070-970|31=150|32=100|37=20260416-071954-612832|38=100|39=2|40=2|44=150|54=1|55=AAPL|59=0|60=20260416-07:19:54.073|150=F|151=0|527=TRADE-1776304194070-970|10=179|
< 8=FIX.4.2|9=134|35=D|49=MINIFIX|56=EXCHANGE|34=59|52=20260416-01:49:54|11=496510273|21=1|55=AAPL|54=2|60=20260416-01:49:54|40=2|44=150.00|38=100|59=0|10=147|
> 8=FIX.4.2|9=258|35=8|34=37|49=EXCHANGE|52=20260416-01:49:54.074|56=MINIFIX|6=150|11=496510193|14=100|17=EXEC-1776304194070-970|31=150|32=100|37=20260416-071954-612833|38=100|39=2|40=2|44=150|54=2|55=AAPL|59=0|60=20260416-07:19:54.074|150=F|151=0|527=TRADE-1776304194070-970|10=186|
< 8=FIX.4.2|9=134|35=D|49=MINIFIX|56=EXCHANGE|34=60|52=20260416-01:49:54|11=496510275|21=1|55=AAPL|54=1|60=20260416-01:49:54|40=2|44=150.00|38=100|59=0|10=140|
> 8=FIX.4.2|9=220|35=8|34=38|49=EXCHANGE|52=20260416-01:49:54.075|56=MINIFIX|6=0|11=496510195|14=0|17=EXEC-1776303563355|31=0|32=0|37=20260416-071954-612834|38=100|39=0|40=2|44=150|54=1|55=AAPL|59=0|60=20260416-07:19:54.075|150=0|151=100|10=192|
< 8=FIX.4.2|9=134|35=D|49=MINIFIX|56=EXCHANGE|34=61|52=20260416-01:49:54|11=496510277|21=1|55=AAPL|54=2|60=20260416-01:49:54|40=2|44=150.00|38=100|59=0|10=144|
< 8=FIX.4.2|9=134|35=D|49=MINIFIX|56=EXCHANGE|34=62|52=20260416-01:49:54|11=496510279|21=1|55=AAPL|54=1|60=20260416-01:49:54|40=2|44=150.00|38=100|59=0|10=146|
> 8=FIX.4.2|9=220|35=8|34=39|49=EXCHANGE|52=20260416-01:49:54.075|56=MINIFIX|6=0|11=496510197|14=0|17=EXEC-1776303563356|31=0|32=0|37=20260416-071954-612835|38=100|39=0|40=2|44=150|54=2|55=AAPL|59=0|60=20260416-07:19:54.075|150=0|151=100|10=198|
< 8=FIX.4.2|9=134|35=D|49=MINIFIX|56=EXCHANGE|34=63|52=20260416-01:49:54|11=496510281|21=1|55=AAPL|54=2|60=20260416-01:49:54|40=2|44=150.00|38=100|59=0|10=141|
< 8=FIX.4.2|9=134|35=D|49=MINIFIX|56=EXCHANGE|34=64|52=20260416-01:49:54|11=496510283|21=1|55=AAPL|54=1|60=20260416-01:49:54|40=2|44=150.00|38=100|59=0|10=143|
> 8=FIX.4.2|9=258|35=8|34=40|49=EXCHANGE|52=20260416-01:49:54.078|56=MINIFIX|6=150|11=496510195|14=100|17=EXEC-1776304194075-971|31=150|32=100|37=20260416-071954-612834|38=100|39=2|40=2|44=150|54=1|55=AAPL|59=0|60=20260416-07:19:54.078|150=F|151=0|527=TRADE-1776304194075-971|10=202|
> 8=FIX.4.2|9=258|35=8|34=41|49=EXCHANGE|52=20260416-01:49:54.078|56=MINIFIX|6=150|11=496510197|14=100|17=EXEC-1776304194075-971|31=150|32=100|37=20260416-071954-612835|38=100|39=2|40=2|44=150|54=2|55=AAPL|59=0|60=20260416-07:19:54.078|150=F|151=0|527=TRADE-1776304194075-971|10=207|
< 8=FIX.4.2|9=134|35=D|49=MINIFIX|56=EXCHANGE|34=65|52=20260416-01:49:54|11=496510285|21=1|55=AAPL|54=2|60=20260416-01:49:54|40=2|44=150.00|38=100|59=0|10=147|
< 8=FIX.4.2|9=134|35=D|49=MINIFIX|56=EXCHANGE|34=66|52=20260416-01:49:54|11=496510287|21=1|55=AAPL|54=1|60=20260416-01:49:54|40=2|44=150.00|38=100|59=0|10=149|
> 8=FIX.4.2|9=220|35=8|34=42|49=EXCHANGE|52=20260416-01:49:54.078|56=MINIFIX|6=0|11=496510199|14=0|17=EXEC-1776303563359|31=0|32=0|37=20260416-071954-612836|38=100|39=0|40=2|44=150|54=1|55=AAPL|59=0|60=20260416-07:19:54.078|150=0|151=100|10=203|
< 8=FIX.4.2|9=134|35=D|49=MINIFIX|56=EXCHANGE|34=67|52=20260416-01:49:54|11=496510289|21=1|55=AAPL|54=2|60=20260416-01:49:54|40=2|44=150.00|38=100|59=0|10=153|
< 8=FIX.4.2|9=134|35=D|49=MINIFIX|56=EXCHANGE|34=68|52=20260416-01:49:54|11=496510291|21=1|55=AAPL|54=1|60=20260416-01:49:54|40=2|44=150.00|38=100|59=0|10=146|
> 8=FIX.4.2|9=220|35=8|34=43|49=EXCHANGE|52=20260416-01:49:54.080|56=MINIFIX|6=0|11=496510201|14=0|17=EXEC-1776303563360|31=0|32=0|37=20260416-071954-612837|38=100|39=0|40=2|44=150|54=2|55=AAPL|59=0|60=20260416-07:19:54.080|150=0|151=100|10=168|
< 8=FIX.4.2|9=134|35=D|49=MINIFIX|56=EXCHANGE|34=69|52=20260416-01:49:54|11=496510293|21=1|55=AAPL|54=2|60=20260416-01:49:54|40=2|44=150.00|38=100|59=0|10=150|
< 8=FIX.4.2|9=134|35=D|49=MINIFIX|56=EXCHANGE|34=70|52=20260416-01:49:54|11=496510295|21=1|55=AAPL|54=1|60=20260416-01:49:54|40=2|44=150.00|38=100|59=0|10=143|
> 8=FIX.4.2|9=258|35=8|34=44|49=EXCHANGE|52=20260416-01:49:54.080|56=MINIFIX|6=150|11=496510199|14=100|17=EXEC-1776304194080-972|31=150|32=100|37=20260416-071954-612836|38=100|39=2|40=2|44=150|54=1|55=AAPL|59=0|60=20260416-07:19:54.080|150=F|151=0|527=TRADE-1776304194080-972|10=192|
> 8=FIX.4.2|9=258|35=8|34=45|49=EXCHANGE|52=20260416-01:49:54.080|56=MINIFIX|6=150|11=496510201|14=100|17=EXEC-1776304194080-972|31=150|32=100|37=20260416-071954-612837|38=100|39=2|40=2|44=150|54=2|55=AAPL|59=0|60=20260416-07:19:54.080|150=F|151=0|527=TRADE-1776304194080-972|10=179|
< 8=FIX.4.2|9=134|35=D|49=MINIFIX|56=EXCHANGE|34=71|52=20260416-01:49:54|11=496510297|21=1|55=AAPL|54=2|60=20260416-01:49:54|40=2|44=150.00|38=100|59=0|10=147|
< 8=FIX.4.2|9=134|35=D|49=MINIFIX|56=EXCHANGE|34=72|52=20260416-01:49:54|11=496510299|21=1|55=AAPL|54=1|60=20260416-01:49:54|40=2|44=150.00|38=100|59=0|10=149|
> 8=FIX.4.2|9=220|35=8|34=46|49=EXCHANGE|52=20260416-01:49:54.084|56=MINIFIX|6=0|11=496510203|14=0|17=EXEC-1776303563363|31=0|32=0|37=20260416-071954-612838|38=100|39=0|40=2|44=150|54=1|55=AAPL|59=0|60=20260416-07:19:54.084|150=0|151=100|10=184|
< 8=FIX.4.2|9=134|35=D|49=MINIFIX|56=EXCHANGE|34=73|52=20260416-01:49:54|11=496510301|21=1|55=AAPL|54=2|60=20260416-01:49:54|40=2|44=150.00|38=100|59=0|10=135|
> 8=FIX.4.2|9=220|35=8|34=47|49=EXCHANGE|52=20260416-01:49:54.086|56=MINIFIX|6=0|11=496510205|14=0|17=EXEC-1776303563364|31=0|32=0|37=20260416-071954-612839|38=100|39=0|40=2|44=150|54=2|55=AAPL|59=0|60=20260416-07:19:54.086|150=0|151=100|10=194|
< 8=FIX.4.2|9=134|35=D|49=MINIFIX|56=EXCHANGE|34=74|52=20260416-01:49:54|11=496510303|21=1|55=AAPL|54=1|60=20260416-01:49:54|40=2|44=150.00|38=100|59=0|10=137|
< 8=FIX.4.2|9=134|35=D|49=MINIFIX|56=EXCHANGE|34=75|52=20260416-01:49:54|11=496510305|21=1|55=AAPL|54=2|60=20260416-01:49:54|40=2|44=150.00|38=100|59=0|10=141|
< 8=FIX.4.2|9=134|35=D|49=MINIFIX|56=EXCHANGE|34=76|52=20260416-01:49:54|11=496510307|21=1|55=AAPL|54=1|60=20260416-01:49:54|40=2|44=150.00|38=100|59=0|10=143|
> 8=FIX.4.2|9=258|35=8|34=48|49=EXCHANGE|52=20260416-01:49:54.087|56=MINIFIX|6=150|11=496510203|14=100|17=EXEC-1776304194086-973|31=150|32=100|37=20260416-071954-612838|38=100|39=2|40=2|44=150|54=1|55=AAPL|59=0|60=20260416-07:19:54.087|150=F|151=0|527=TRADE-1776304194086-973|10=212|
> 8=FIX.4.2|9=258|35=8|34=49|49=EXCHANGE|52=20260416-01:49:54.087|56=MINIFIX|6=150|11=496510205|14=100|17=EXEC-1776304194086-973|31=150|32=100|37=20260416-071954-612839|38=100|39=2|40=2|44=150|54=2|55=AAPL|59=0|60=20260416-07:19:54.087|150=F|151=0|527=TRADE-1776304194086-973|10=217|
< 8=FIX.4.2|9=134|35=D|49=MINIFIX|56=EXCHANGE|34=77|52=20260416-01:49:54|11=496510309|21=1|55=AAPL|54=2|60=20260416-01:49:54|40=2|44=150.00|38=100|59=0|10=147|
< 8=FIX.4.2|9=134|35=D|49=MINIFIX|56=EXCHANGE|34=78|52=20260416-01:49:54|11=496510311|21=1|55=AAPL|54=1|60=20260416-01:49:54|40=2|44=150.00|38=100|59=0|10=140|
< 8=FIX.4.2|9=134|35=D|49=MINIFIX|56=EXCHANGE|34=79|52=20260416-01:49:54|11=496510313|21=1|55=AAPL|54=2|60=20260416-01:49:54|40=2|44=150.00|38=100|59=0|10=144|
> 8=FIX.4.2|9=220|35=8|34=50|49=EXCHANGE|52=20260416-01:49:54.091|56=MINIFIX|6=0|11=496510207|14=0|17=EXEC-1776303563367|31=0|32=0|37=20260416-071954-612840|38=100|39=0|40=2|44=150|54=1|55=AAPL|59=0|60=20260416-07:19:54.091|150=0|151=100|10=176|
< 8=FIX.4.2|9=134|35=D|49=MINIFIX|56=EXCHANGE|34=80|52=20260416-01:49:54|11=496510315|21=1|55=AAPL|54=1|60=20260416-01:49:54|40=2|44=150.00|38=100|59=0|10=137|
< 8=FIX.4.2|9=134|35=D|49=MINIFIX|56=EXCHANGE|34=81|52=20260416-01:49:54|11=496510317|21=1|55=AAPL|54=2|60=20260416-01:49:54|40=2|44=150.00|38=100|59=0|10=141|
> 8=FIX.4.2|9=220|35=8|34=51|49=EXCHANGE|52=20260416-01:49:54.091|56=MINIFIX|6=0|11=496510209|14=0|17=EXEC-1776303563368|31=0|32=0|37=20260416-071954-612841|38=100|39=0|40=2|44=150|54=2|55=AAPL|59=0|60=20260416-07:19:54.091|150=0|151=100|10=182|
< 8=FIX.4.2|9=134|35=D|49=MINIFIX|56=EXCHANGE|34=82|52=20260416-01:49:54|11=496510319|21=1|55=AAPL|54=1|60=20260416-01:49:54|40=2|44=150.00|38=100|59=0|10=143|
> 8=FIX.4.2|9=258|35=8|34=52|49=EXCHANGE|52=20260416-01:49:54.091|56=MINIFIX|6=150|11=496510207|14=100|17=EXEC-1776304194091-974|31=150|32=100|37=20260416-071954-612840|38=100|39=2|40=2|44=150|54=1|55=AAPL|59=0|60=20260416-07:19:54.091|150=F|151=0|527=TRADE-1776304194091-974|10=188|
< 8=FIX.4.2|9=134|35=D|49=MINIFIX|56=EXCHANGE|34=83|52=20260416-01:49:54|11=496510321|21=1|55=AAPL|54=2|60=20260416-01:49:54|40=2|44=150.00|38=100|59=0|10=138|
> 8=FIX.4.2|9=258|35=8|34=53|49=EXCHANGE|52=20260416-01:49:54.095|56=MINIFIX|6=150|11=496510209|14=100|17=EXEC-1776304194091-974|31=150|32=100|37=20260416-071954-612841|38=100|39=2|40=2|44=150|54=2|55=AAPL|59=0|60=20260416-07:19:54.095|150=F|151=0|527=TRADE-1776304194091-974|10=201|
< 8=FIX.4.2|9=134|35=D|49=MINIFIX|56=EXCHANGE|34=84|52=20260416-01:49:54|11=496510323|21=1|55=AAPL|54=1|60=20260416-01:49:54|40=2|44=150.00|38=100|59=0|10=140|
> 8=FIX.4.2|9=220|35=8|34=54|49=EXCHANGE|52=20260416-01:49:54.095|56=MINIFIX|6=0|11=496510211|14=0|17=EXEC-1776303563371|31=0|32=0|37=20260416-071954-612842|38=100|39=0|40=2|44=150|54=1|55=AAPL|59=0|60=20260416-07:19:54.095|150=0|151=100|10=180|
< 8=FIX.4.2|9=134|35=D|49=MINIFIX|56=EXCHANGE|34=85|52=20260416-01:49:54|11=496510325|21=1|55=AAPL|54=2|60=20260416-01:49:54|40=2|44=150.00|38=100|59=0|10=144|
< 8=FIX.4.2|9=134|35=D|49=MINIFIX|56=EXCHANGE|34=86|52=20260416-01:49:54|11=496510327|21=1|55=AAPL|54=1|60=20260416-01:49:54|40=2|44=150.00|38=100|59=0|10=146|
> 8=FIX.4.2|9=220|35=8|34=55|49=EXCHANGE|52=20260416-01:49:54.095|56=MINIFIX|6=0|11=496510213|14=0|17=EXEC-1776303563372|31=0|32=0|37=20260416-071954-612843|38=100|39=0|40=2|44=150|54=2|55=AAPL|59=0|60=20260416-07:19:54.095|150=0|151=100|10=186|
< 8=FIX.4.2|9=134|35=D|49=MINIFIX|56=EXCHANGE|34=87|52=20260416-01:49:54|11=496510329|21=1|55=AAPL|54=2|60=20260416-01:49:54|40=2|44=150.00|38=100|59=0|10=150|
< 8=FIX.4.2|9=134|35=D|49=MINIFIX|56=EXCHANGE|34=88|52=20260416-01:49:54|11=496510331|21=1|55=AAPL|54=1|60=20260416-01:49:54|40=2|44=150.00|38=100|59=0|10=143|
> 8=FIX.4.2|9=258|35=8|34=56|49=EXCHANGE|52=20260416-01:49:54.098|56=MINIFIX|6=150|11=496510211|14=100|17=EXEC-1776304194098-975|31=150|32=100|37=20260416-071954-612842|38=100|39=2|40=2|44=150|54=1|55=AAPL|59=0|60=20260416-07:19:54.098|150=F|151=0|527=TRADE-1776304194098-975|10=219|
< 8=FIX.4.2|9=134|35=D|49=MINIFIX|56=EXCHANGE|34=89|52=20260416-01:49:54|11=496510333|21=1|55=AAPL|54=2|60=20260416-01:49:54|40=2|44=150.00|38=100|59=0|10=147|
> 8=FIX.4.2|9=258|35=8|34=57|49=EXCHANGE|52=20260416-01:49:54.098|56=MINIFIX|6=150|11=496510213|14=100|17=EXEC-1776304194098-975|31=150|32=100|37=20260416-071954-612843|38=100|39=2|40=2|44=150|54=2|55=AAPL|59=0|60=20260416-07:19:54.098|150=F|151=0|527=TRADE-1776304194098-975|10=224|
< 8=FIX.4.2|9=134|35=D|49=MINIFIX|56=EXCHANGE|34=90|52=20260416-01:49:54|11=496510335|21=1|55=AAPL|54=1|60=20260416-01:49:54|40=2|44=150.00|38=100|59=0|10=140|
> 8=FIX.4.2|9=220|35=8|34=58|49=EXCHANGE|52=20260416-01:49:54.100|56=MINIFIX|6=0|11=496510215|14=0|17=EXEC-1776303563375|31=0|32=0|37=20260416-071954-612844|38=100|39=0|40=2|44=150|54=1|55=AAPL|59=0|60=20260416-07:19:54.100|150=0|151=100|10=168|
< 8=FIX.4.2|9=134|35=D|49=MINIFIX|56=EXCHANGE|34=91|52=20260416-01:49:54|11=496510337|21=1|55=AAPL|54=2|60=20260416-01:49:54|40=2|44=150.00|38=100|59=0|10=144|
< 8=FIX.4.2|9=134|35=D|49=MINIFIX|56=EXCHANGE|34=92|52=20260416-01:49:54|11=496510339|21=1|55=AAPL|54=1|60=20260416-01:49:54|40=2|44=150.00|38=100|59=0|10=146|
> 8=FIX.4.2|9=220|35=8|34=59|49=EXCHANGE|52=20260416-01:49:54.102|56=MINIFIX|6=0|11=496510217|14=0|17=EXEC-1776303563376|31=0|32=0|37=20260416-071954-612845|38=100|39=0|40=2|44=150|54=2|55=AAPL|59=0|60=20260416-07:19:54.102|150=0|151=100|10=178|
< 8=FIX.4.2|9=134|35=D|49=MINIFIX|56=EXCHANGE|34=93|52=20260416-01:49:54|11=496510341|21=1|55=AAPL|54=2|60=20260416-01:49:54|40=2|44=150.00|38=100|59=0|10=141|
> 8=FIX.4.2|9=258|35=8|34=60|49=EXCHANGE|52=20260416-01:49:54.103|56=MINIFIX|6=150|11=496510215|14=100|17=EXEC-1776304194102-976|31=150|32=100|37=20260416-071954-612844|38=100|39=2|40=2|44=150|54=1|55=AAPL|59=0|60=20260416-07:19:54.103|150=F|151=0|527=TRADE-1776304194102-976|10=168|
< 8=FIX.4.2|9=134|35=D|49=MINIFIX|56=EXCHANGE|34=94|52=20260416-01:49:54|11=496510343|21=1|55=AAPL|54=1|60=20260416-01:49:54|40=2|44=150.00|38=100|59=0|10=143|
< 8=FIX.4.2|9=134|35=D|49=MINIFIX|56=EXCHANGE|34=95|52=20260416-01:49:54|11=496510345|21=1|55=AAPL|54=2|60=20260416-01:49:54|40=2|44=150.00|38=100|59=0|10=147|
> 8=FIX.4.2|9=258|35=8|34=61|49=EXCHANGE|52=20260416-01:49:54.103|56=MINIFIX|6=150|11=496510217|14=100|17=EXEC-1776304194102-976|31=150|32=100|37=20260416-071954-612845|38=100|39=2|40=2|44=150|54=2|55=AAPL|59=0|60=20260416-07:19:54.103|150=F|151=0|527=TRADE-1776304194102-976|10=173|
< 8=FIX.4.2|9=134|35=D|49=MINIFIX|56=EXCHANGE|34=96|52=20260416-01:49:54|11=496510347|21=1|55=AAPL|54=1|60=20260416-01:49:54|40=2|44=150.00|38=100|59=0|10=149|
> 8=FIX.4.2|9=220|35=8|34=62|49=EXCHANGE|52=20260416-01:49:54.103|56=MINIFIX|6=0|11=496510219|14=0|17=EXEC-1776303563379|31=0|32=0|37=20260416-071954-612846|38=100|39=0|40=2|44=150|54=1|55=AAPL|59=0|60=20260416-07:19:54.103|150=0|151=100|10=179|
< 8=FIX.4.2|9=134|35=D|49=MINIFIX|56=EXCHANGE|34=97|52=20260416-01:49:54|11=496510349|21=1|55=AAPL|54=2|60=20260416-01:49:54|40=2|44=150.00|38=100|59=0|10=153|
< 8=FIX.4.2|9=134|35=D|49=MINIFIX|56=EXCHANGE|34=98|52=20260416-01:49:54|11=496510351|21=1|55=AAPL|54=1|60=20260416-01:49:54|40=2|44=150.00|38=100|59=0|10=146|
> 8=FIX.4.2|9=220|35=8|34=63|49=EXCHANGE|52=20260416-01:49:54.103|56=MINIFIX|6=0|11=496510221|14=0|17=EXEC-1776303563380|31=0|32=0|37=20260416-071954-612847|38=100|39=0|40=2|44=150|54=2|55=AAPL|59=0|60=20260416-07:19:54.103|150=0|151=100|10=167|
< 8=FIX.4.2|9=134|35=D|49=MINIFIX|56=EXCHANGE|34=99|52=20260416-01:49:54|11=496510353|21=1|55=AAPL|54=2|60=20260416-01:49:54|40=2|44=150.00|38=100|59=0|10=150|
< 8=FIX.4.2|9=135|35=D|49=MINIFIX|56=EXCHANGE|34=100|52=20260416-01:49:54|11=496510355|21=1|55=AAPL|54=1|60=20260416-01:49:54|40=2|44=150.00|38=100|59=0|10=183|
> 8=FIX.4.2|9=258|35=8|34=64|49=EXCHANGE|52=20260416-01:49:54.103|56=MINIFIX|6=150|11=496510219|14=100|17=EXEC-1776304194103-977|31=150|32=100|37=20260416-071954-612846|38=100|39=2|40=2|44=150|54=1|55=AAPL|59=0|60=20260416-07:19:54.103|150=F|151=0|527=TRADE-1776304194103-977|10=182|
< 8=FIX.4.2|9=135|35=D|49=MINIFIX|56=EXCHANGE|34=101|52=20260416-01:49:54|11=496510357|21=1|55=AAPL|54=2|60=20260416-01:49:54|40=2|44=150.00|38=100|59=0|10=187|
> 8=FIX.4.2|9=258|35=8|34=65|49=EXCHANGE|52=20260416-01:49:54.109|56=MINIFIX|6=150|11=496510221|14=100|17=EXEC-1776304194103-977|31=150|32=100|37=20260416-071954-612847|38=100|39=2|40=2|44=150|54=2|55=AAPL|59=0|60=20260416-07:19:54.109|150=F|151=0|527=TRADE-1776304194103-977|10=190|
< 8=FIX.4.2|9=135|35=D|49=MINIFIX|56=EXCHANGE|34=102|52=20260416-01:49:54|11=496510359|21=1|55=AAPL|54=1|60=20260416-01:49:54|40=2|44=150.00|38=100|59=0|10=189|
< 8=FIX.4.2|9=135|35=D|49=MINIFIX|56=EXCHANGE|34=103|52=20260416-01:49:54|11=496510361|21=1|55=AAPL|54=2|60=20260416-01:49:54|40=2|44=150.00|38=100|59=0|10=184|
> 8=FIX.4.2|9=220|35=8|34=66|49=EXCHANGE|52=20260416-01:49:54.109|56=MINIFIX|6=0|11=496510223|14=0|17=EXEC-1776303563383|31=0|32=0|37=20260416-071954-612848|38=100|39=0|40=2|44=150|54=1|55=AAPL|59=0|60=20260416-07:19:54.109|150=0|151=100|10=187|
< 8=FIX.4.2|9=135|35=D|49=MINIFIX|56=EXCHANGE|34=104|52=20260416-01:49:54|11=496510363|21=1|55=AAPL|54=1|60=20260416-01:49:54|40=2|44=150.00|38=100|59=0|10=186|
< 8=FIX.4.2|9=135|35=D|49=MINIFIX|56=EXCHANGE|34=105|52=20260416-01:49:54|11=496510365|21=1|55=AAPL|54=2|60=20260416-01:49:54|40=2|44=150.00|38=100|59=0|10=190|
> 8=FIX.4.2|9=220|35=8|34=67|49=EXCHANGE|52=20260416-01:49:54.109|56=MINIFIX|6=0|11=496510225|14=0|17=EXEC-1776303563384|31=0|32=0|37=20260416-071954-612849|38=100|39=0|40=2|44=150|54=2|55=AAPL|59=0|60=20260416-07:19:54.109|150=0|151=100|10=193|
< 8=FIX.4.2|9=135|35=D|49=MINIFIX|56=EXCHANGE|34=106|52=20260416-01:49:54|11=496510367|21=1|55=AAPL|54=1|60=20260416-01:49:54|40=2|44=150.00|38=100|59=0|10=192|
< 8=FIX.4.2|9=135|35=D|49=MINIFIX|56=EXCHANGE|34=107|52=20260416-01:49:54|11=496510369|21=1|55=AAPL|54=2|60=20260416-01:49:54|40=2|44=150.00|38=100|59=0|10=196|
> 8=FIX.4.2|9=258|35=8|34=68|49=EXCHANGE|52=20260416-01:49:54.109|56=MINIFIX|6=150|11=496510223|14=100|17=EXEC-1776304194109-978|31=150|32=100|37=20260416-071954-612848|38=100|39=2|40=2|44=150|54=1|55=AAPL|59=0|60=20260416-07:19:54.109|150=F|151=0|527=TRADE-1776304194109-978|10=209|
< 8=FIX.4.2|9=135|35=D|49=MINIFIX|56=EXCHANGE|34=108|52=20260416-01:49:54|11=496510371|21=1|55=AAPL|54=1|60=20260416-01:49:54|40=2|44=150.00|38=100|59=0|10=189|
> 8=FIX.4.2|9=258|35=8|34=69|49=EXCHANGE|52=20260416-01:49:54.114|56=MINIFIX|6=150|11=496510225|14=100|17=EXEC-1776304194109-978|31=150|32=100|37=20260416-071954-612849|38=100|39=2|40=2|44=150|54=2|55=AAPL|59=0|60=20260416-07:19:54.114|150=F|151=0|527=TRADE-1776304194109-978|10=206|
< 8=FIX.4.2|9=135|35=D|49=MINIFIX|56=EXCHANGE|34=109|52=20260416-01:49:54|11=496510373|21=1|55=AAPL|54=2|60=20260416-01:49:54|40=2|44=150.00|38=100|59=0|10=193|
< 8=FIX.4.2|9=135|35=D|49=MINIFIX|56=EXCHANGE|34=110|52=20260416-01:49:54|11=496510375|21=1|55=AAPL|54=1|60=20260416-01:49:54|40=2|44=150.00|38=100|59=0|10=186|
> 8=FIX.4.2|9=220|35=8|34=70|49=EXCHANGE|52=20260416-01:49:54.115|56=MINIFIX|6=0|11=496510227|14=0|17=EXEC-1776303563387|31=0|32=0|37=20260416-071954-612850|38=100|39=0|40=2|44=150|54=1|55=AAPL|59=0|60=20260416-07:19:54.115|150=0|151=100|10=177|
< 8=FIX.4.2|9=135|35=D|49=MINIFIX|56=EXCHANGE|34=111|52=20260416-01:49:54|11=496510377|21=1|55=AAPL|54=2|60=20260416-01:49:54|40=2|44=150.00|38=100|59=0|10=190|
< 8=FIX.4.2|9=135|35=D|49=MINIFIX|56=EXCHANGE|34=112|52=20260416-01:49:54|11=496510379|21=1|55=AAPL|54=1|60=20260416-01:49:54|40=2|44=150.00|38=100|59=0|10=192|
< 8=FIX.4.2|9=135|35=D|49=MINIFIX|56=EXCHANGE|34=113|52=20260416-01:49:54|11=496510381|21=1|55=AAPL|54=2|60=20260416-01:49:54|40=2|44=150.00|38=100|59=0|10=187|
< 8=FIX.4.2|9=135|35=D|49=MINIFIX|56=EXCHANGE|34=114|52=20260416-01:49:54|11=496510383|21=1|55=AAPL|54=1|60=20260416-01:49:54|40=2|44=150.00|38=100|59=0|10=189|
> 8=FIX.4.2|9=220|35=8|34=71|49=EXCHANGE|52=20260416-01:49:54.117|56=MINIFIX|6=0|11=496510229|14=0|17=EXEC-1776303563388|31=0|32=0|37=20260416-071954-612851|38=100|39=0|40=2|44=150|54=2|55=AAPL|59=0|60=20260416-07:19:54.117|150=0|151=100|10=187|
< 8=FIX.4.2|9=135|35=D|49=MINIFIX|56=EXCHANGE|34=115|52=20260416-01:49:54|11=496510385|21=1|55=AAPL|54=2|60=20260416-01:49:54|40=2|44=150.00|38=100|59=0|10=193|
> 8=FIX.4.2|9=258|35=8|34=72|49=EXCHANGE|52=20260416-01:49:54.117|56=MINIFIX|6=150|11=496510227|14=100|17=EXEC-1776304194117-979|31=150|32=100|37=20260416-071954-612850|38=100|39=2|40=2|44=150|54=1|55=AAPL|59=0|60=20260416-07:19:54.117|150=F|151=0|527=TRADE-1776304194117-979|10=199|
< 8=FIX.4.2|9=135|35=D|49=MINIFIX|56=EXCHANGE|34=116|52=20260416-01:49:54|11=496510387|21=1|55=AAPL|54=1|60=20260416-01:49:54|40=2|44=150.00|38=100|59=0|10=195|
> 8=FIX.4.2|9=258|35=8|34=73|49=EXCHANGE|52=20260416-01:49:54.120|56=MINIFIX|6=150|11=496510229|14=100|17=EXEC-1776304194117-979|31=150|32=100|37=20260416-071954-612851|38=100|39=2|40=2|44=150|54=2|55=AAPL|59=0|60=20260416-07:19:54.120|150=F|151=0|527=TRADE-1776304194117-979|10=192|
< 8=FIX.4.2|9=135|35=D|49=MINIFIX|56=EXCHANGE|34=117|52=20260416-01:49:54|11=496510389|21=1|55=AAPL|54=2|60=20260416-01:49:54|40=2|44=150.00|38=100|59=0|10=199|
< 8=FIX.4.2|9=135|35=D|49=MINIFIX|56=EXCHANGE|34=118|52=20260416-01:49:54|11=496510391|21=1|55=AAPL|54=1|60=20260416-01:49:54|40=2|44=150.00|38=100|59=0|10=192|
> 8=FIX.4.2|9=220|35=8|34=74|49=EXCHANGE|52=20260416-01:49:54.121|56=MINIFIX|6=0|11=496510231|14=0|17=EXEC-1776303563391|31=0|32=0|37=20260416-071954-612852|38=100|39=0|40=2|44=150|54=1|55=AAPL|59=0|60=20260416-07:19:54.121|150=0|151=100|10=167|
< 8=FIX.4.2|9=135|35=D|49=MINIFIX|56=EXCHANGE|34=119|52=20260416-01:49:54|11=496510393|21=1|55=AAPL|54=2|60=20260416-01:49:54|40=2|44=150.00|38=100|59=0|10=196|
< 8=FIX.4.2|9=135|35=D|49=MINIFIX|56=EXCHANGE|34=120|52=20260416-01:49:54|11=496510395|21=1|55=AAPL|54=1|60=20260416-01:49:54|40=2|44=150.00|38=100|59=0|10=189|
> 8=FIX.4.2|9=220|35=8|34=75|49=EXCHANGE|52=20260416-01:49:54.123|56=MINIFIX|6=0|11=496510233|14=0|17=EXEC-1776303563392|31=0|32=0|37=20260416-071954-612853|38=100|39=0|40=2|44=150|54=2|55=AAPL|59=0|60=20260416-07:19:54.123|150=0|151=100|10=177|
< 8=FIX.4.2|9=135|35=D|49=MINIFIX|56=EXCHANGE|34=121|52=20260416-01:49:54|11=496510397|21=1|55=AAPL|54=2|60=20260416-01:49:54|40=2|44=150.00|38=100|59=0|10=193|
< 8=FIX.4.2|9=135|35=D|49=MINIFIX|56=EXCHANGE|34=122|52=20260416-01:49:54|11=496510399|21=1|55=AAPL|54=1|60=20260416-01:49:54|40=2|44=150.00|38=100|59=0|10=195|
> 8=FIX.4.2|9=258|35=8|34=76|49=EXCHANGE|52=20260416-01:49:54.123|56=MINIFIX|6=150|11=496510231|14=100|17=EXEC-1776304194123-980|31=150|32=100|37=20260416-071954-612852|38=100|39=2|40=2|44=150|54=1|55=AAPL|59=0|60=20260416-07:19:54.123|150=F|151=0|527=TRADE-1776304194123-980|10=172|
> 8=FIX.4.2|9=258|35=8|34=77|49=EXCHANGE|52=20260416-01:49:54.123|56=MINIFIX|6=150|11=496510233|14=100|17=EXEC-1776304194123-980|31=150|32=100|37=20260416-071954-612853|38=100|39=2|40=2|44=150|54=2|55=AAPL|59=0|60=20260416-07:19:54.123|150=F|151=0|527=TRADE-1776304194123-980|10=177|
< 8=FIX.4.2|9=135|35=D|49=MINIFIX|56=EXCHANGE|34=123|52=20260416-01:49:54|11=496510401|21=1|55=AAPL|54=2|60=20260416-01:49:54|40=2|44=150.00|38=100|59=0|10=181|
< 8=FIX.4.2|9=135|35=D|49=MINIFIX|56=EXCHANGE|34=124|52=20260416-01:49:54|11=496510403|21=1|55=AAPL|54=1|60=20260416-01:49:54|40=2|44=150.00|38=100|59=0|10=183|
> 8=FIX.4.2|9=220|35=8|34=78|49=EXCHANGE|52=20260416-01:49:54.127|56=MINIFIX|6=0|11=496510235|14=0|17=EXEC-1776303563395|31=0|32=0|37=20260416-071954-612854|38=100|39=0|40=2|44=150|54=1|55=AAPL|59=0|60=20260416-07:19:54.127|150=0|151=100|10=193|
< 8=FIX.4.2|9=135|35=D|49=MINIFIX|56=EXCHANGE|34=125|52=20260416-01:49:54|11=496510405|21=1|55=AAPL|54=2|60=20260416-01:49:54|40=2|44=150.00|38=100|59=0|10=187|
< 8=FIX.4.2|9=135|35=D|49=MINIFIX|56=EXCHANGE|34=126|52=20260416-01:49:54|11=496510407|21=1|55=AAPL|54=1|60=20260416-01:49:54|40=2|44=150.00|38=100|59=0|10=189|
> 8=FIX.4.2|9=220|35=8|34=79|49=EXCHANGE|52=20260416-01:49:54.127|56=MINIFIX|6=0|11=496510237|14=0|17=EXEC-1776303563396|31=0|32=0|37=20260416-071954-612855|38=100|39=0|40=2|44=150|54=2|55=AAPL|59=0|60=20260416-07:19:54.127|150=0|151=100|10=199|
< 8=FIX.4.2|9=135|35=D|49=MINIFIX|56=EXCHANGE|34=127|52=20260416-01:49:54|11=496510409|21=1|55=AAPL|54=2|60=20260416-01:49:54|40=2|44=150.00|38=100|59=0|10=193|
< 8=FIX.4.2|9=135|35=D|49=MINIFIX|56=EXCHANGE|34=128|52=20260416-01:49:54|11=496510411|21=1|55=AAPL|54=1|60=20260416-01:49:54|40=2|44=150.00|38=100|59=0|10=186|
> 8=FIX.4.2|9=258|35=8|34=80|49=EXCHANGE|52=20260416-01:49:54.129|56=MINIFIX|6=150|11=496510235|14=100|17=EXEC-1776304194129-981|31=150|32=100|37=20260416-071954-612854|38=100|39=2|40=2|44=150|54=1|55=AAPL|59=0|60=20260416-07:19:54.129|150=F|151=0|527=TRADE-1776304194129-981|10=199|
< 8=FIX.4.2|9=135|35=D|49=MINIFIX|56=EXCHANGE|34=129|52=20260416-01:49:54|11=496510413|21=1|55=AAPL|54=2|60=20260416-01:49:54|40=2|44=150.00|38=100|59=0|10=190|
> 8=FIX.4.2|9=258|35=8|34=81|49=EXCHANGE|52=20260416-01:49:54.131|56=MINIFIX|6=150|11=496510237|14=100|17=EXEC-1776304194129-981|31=150|32=100|37=20260416-071954-612855|38=100|39=2|40=2|44=150|54=2|55=AAPL|59=0|60=20260416-07:19:54.131|150=F|151=0|527=TRADE-1776304194129-981|10=190|
< 8=FIX.4.2|9=135|35=D|49=MINIFIX|56=EXCHANGE|34=130|52=20260416-01:49:54|11=496510415|21=1|55=AAPL|54=1|60=20260416-01:49:54|40=2|44=150.00|38=100|59=0|10=183|
> 8=FIX.4.2|9=220|35=8|34=82|49=EXCHANGE|52=20260416-01:49:54.132|56=MINIFIX|6=0|11=496510239|14=0|17=EXEC-1776303563399|31=0|32=0|37=20260416-071954-612856|38=100|39=0|40=2|44=150|54=1|55=AAPL|59=0|60=20260416-07:19:54.132|150=0|151=100|10=190|
< 8=FIX.4.2|9=135|35=D|49=MINIFIX|56=EXCHANGE|34=131|52=20260416-01:49:54|11=496510417|21=1|55=AAPL|54=2|60=20260416-01:49:54|40=2|44=150.00|38=100|59=0|10=187|
< 8=FIX.4.2|9=135|35=D|49=MINIFIX|56=EXCHANGE|34=132|52=20260416-01:49:54|11=496510419|21=1|55=AAPL|54=1|60=20260416-01:49:54|40=2|44=150.00|38=100|59=0|10=189|
> 8=FIX.4.2|9=220|35=8|34=83|49=EXCHANGE|52=20260416-01:49:54.133|56=MINIFIX|6=0|11=496510241|14=0|17=EXEC-1776303563400|31=0|32=0|37=20260416-071954-612857|38=100|39=0|40=2|44=150|54=2|55=AAPL|59=0|60=20260416-07:19:54.133|150=0|151=100|10=171|
< 8=FIX.4.2|9=135|35=D|49=MINIFIX|56=EXCHANGE|34=133|52=20260416-01:49:54|11=496510421|21=1|55=AAPL|54=2|60=20260416-01:49:54|40=2|44=150.00|38=100|59=0|10=184|
> 8=FIX.4.2|9=258|35=8|34=84|49=EXCHANGE|52=20260416-01:49:54.133|56=MINIFIX|6=150|11=496510239|14=100|17=EXEC-1776304194133-982|31=150|32=100|37=20260416-071954-612856|38=100|39=2|40=2|44=150|54=1|55=AAPL|59=0|60=20260416-07:19:54.133|150=F|151=0|527=TRADE-1776304194133-982|10=191|
< 8=FIX.4.2|9=135|35=D|49=MINIFIX|56=EXCHANGE|34=134|52=20260416-01:49:54|11=496510423|21=1|55=AAPL|54=1|60=20260416-01:49:54|40=2|44=150.00|38=100|59=0|10=186|
> 8=FIX.4.2|9=258|35=8|34=85|49=EXCHANGE|52=20260416-01:49:54.133|56=MINIFIX|6=150|11=496510241|14=100|17=EXEC-1776304194133-982|31=150|32=100|37=20260416-071954-612857|38=100|39=2|40=2|44=150|54=2|55=AAPL|59=0|60=20260416-07:19:54.133|150=F|151=0|527=TRADE-1776304194133-982|10=187|
< 8=FIX.4.2|9=135|35=D|49=MINIFIX|56=EXCHANGE|34=135|52=20260416-01:49:54|11=496510425|21=1|55=AAPL|54=2|60=20260416-01:49:54|40=2|44=150.00|38=100|59=0|10=190|
< 8=FIX.4.2|9=135|35=D|49=MINIFIX|56=EXCHANGE|34=136|52=20260416-01:49:54|11=496510427|21=1|55=AAPL|54=1|60=20260416-01:49:54|40=2|44=150.00|38=100|59=0|10=192|
> 8=FIX.4.2|9=220|35=8|34=86|49=EXCHANGE|52=20260416-01:49:54.136|56=MINIFIX|6=0|11=496510243|14=0|17=EXEC-1776303563403|31=0|32=0|37=20260416-071954-612858|38=100|39=0|40=2|44=150|54=1|55=AAPL|59=0|60=20260416-07:19:54.136|150=0|151=100|10=185|
< 8=FIX.4.2|9=135|35=D|49=MINIFIX|56=EXCHANGE|34=137|52=20260416-01:49:54|11=496510429|21=1|55=AAPL|54=2|60=20260416-01:49:54|40=2|44=150.00|38=100|59=0|10=196|
> 8=FIX.4.2|9=220|35=8|34=87|49=EXCHANGE|52=20260416-01:49:54.136|56=MINIFIX|6=0|11=496510245|14=0|17=EXEC-1776303563404|31=0|32=0|37=20260416-071954-612859|38=100|39=0|40=2|44=150|54=2|55=AAPL|59=0|60=20260416-07:19:54.136|150=0|151=100|10=191|
< 8=FIX.4.2|9=135|35=D|49=MINIFIX|56=EXCHANGE|34=138|52=20260416-01:49:54|11=496510431|21=1|55=AAPL|54=1|60=20260416-01:49:54|40=2|44=150.00|38=100|59=0|10=189|
< 8=FIX.4.2|9=135|35=D|49=MINIFIX|56=EXCHANGE|34=139|52=20260416-01:49:54|11=496510433|21=1|55=AAPL|54=2|60=20260416-01:49:54|40=2|44=150.00|38=100|59=0|10=193|
> 8=FIX.4.2|9=258|35=8|34=88|49=EXCHANGE|52=20260416-01:49:54.139|56=MINIFIX|6=150|11=496510243|14=100|17=EXEC-1776304194138-983|31=150|32=100|37=20260416-071954-612858|38=100|39=2|40=2|44=150|54=1|55=AAPL|59=0|60=20260416-07:19:54.139|150=F|151=0|527=TRADE-1776304194138-983|10=216|
< 8=FIX.4.2|9=135|35=D|49=MINIFIX|56=EXCHANGE|34=140|52=20260416-01:49:54|11=496510435|21=1|55=AAPL|54=1|60=20260416-01:49:54|40=2|44=150.00|38=100|59=0|10=186|
> 8=FIX.4.2|9=258|35=8|34=89|49=EXCHANGE|52=20260416-01:49:54.139|56=MINIFIX|6=150|11=496510245|14=100|17=EXEC-1776304194138-983|31=150|32=100|37=20260416-071954-612859|38=100|39=2|40=2|44=150|54=2|55=AAPL|59=0|60=20260416-07:19:54.139|150=F|151=0|527=TRADE-1776304194138-983|10=221|
< 8=FIX.4.2|9=135|35=D|49=MINIFIX|56=EXCHANGE|34=141|52=20260416-01:49:54|11=496510437|21=1|55=AAPL|54=2|60=20260416-01:49:54|40=2|44=150.00|38=100|59=0|10=190|
> 8=FIX.4.2|9=220|35=8|34=90|49=EXCHANGE|52=20260416-01:49:54.139|56=MINIFIX|6=0|11=496510247|14=0|17=EXEC-1776303563407|31=0|32=0|37=20260416-071954-612860|38=100|39=0|40=2|44=150|54=1|55=AAPL|59=0|60=20260416-07:19:54.139|150=0|151=100|10=187|
< 8=FIX.4.2|9=135|35=D|49=MINIFIX|56=EXCHANGE|34=142|52=20260416-01:49:54|11=496510439|21=1|55=AAPL|54=1|60=20260416-01:49:54|40=2|44=150.00|38=100|59=0|10=192|
< 8=FIX.4.2|9=135|35=D|49=MINIFIX|56=EXCHANGE|34=143|52=20260416-01:49:54|11=496510441|21=1|55=AAPL|54=2|60=20260416-01:49:54|40=2|44=150.00|38=100|59=0|10=187|
> 8=FIX.4.2|9=220|35=8|34=91|49=EXCHANGE|52=20260416-01:49:54.139|56=MINIFIX|6=0|11=496510249|14=0|17=EXEC-1776303563408|31=0|32=0|37=20260416-071954-612861|38=100|39=0|40=2|44=150|54=2|55=AAPL|59=0|60=20260416-07:19:54.139|150=0|151=100|10=193|
< 8=FIX.4.2|9=135|35=D|49=MINIFIX|56=EXCHANGE|34=144|52=20260416-01:49:54|11=496510443|21=1|55=AAPL|54=1|60=20260416-01:49:54|40=2|44=150.00|38=100|59=0|10=189|
< 8=FIX.4.2|9=135|35=D|49=MINIFIX|56=EXCHANGE|34=145|52=20260416-01:49:54|11=496510445|21=1|55=AAPL|54=2|60=20260416-01:49:54|40=2|44=150.00|38=100|59=0|10=193|
> 8=FIX.4.2|9=258|35=8|34=92|49=EXCHANGE|52=20260416-01:49:54.144|56=MINIFIX|6=150|11=496510247|14=100|17=EXEC-1776304194139-984|31=150|32=100|37=20260416-071954-612860|38=100|39=2|40=2|44=150|54=1|55=AAPL|59=0|60=20260416-07:19:54.144|150=F|151=0|527=TRADE-1776304194139-984|10=204|
> 8=FIX.4.2|9=258|35=8|34=93|49=EXCHANGE|52=20260416-01:49:54.145|56=MINIFIX|6=150|11=496510249|14=100|17=EXEC-1776304194139-984|31=150|32=100|37=20260416-071954-612861|38=100|39=2|40=2|44=150|54=2|55=AAPL|59=0|60=20260416-07:19:54.145|150=F|151=0|527=TRADE-1776304194139-984|10=211|
< 8=FIX.4.2|9=135|35=D|49=MINIFIX|56=EXCHANGE|34=146|52=20260416-01:49:54|11=496510447|21=1|55=AAPL|54=1|60=20260416-01:49:54|40=2|44=150.00|38=100|59=0|10=195|
< 8=FIX.4.2|9=135|35=D|49=MINIFIX|56=EXCHANGE|34=147|52=20260416-01:49:54|11=496510449|21=1|55=AAPL|54=2|60=20260416-01:49:54|40=2|44=150.00|38=100|59=0|10=199|
> 8=FIX.4.2|9=220|35=8|34=94|49=EXCHANGE|52=20260416-01:49:54.145|56=MINIFIX|6=0|11=496510251|14=0|17=EXEC-1776303563411|31=0|32=0|37=20260416-071954-612862|38=100|39=0|40=2|44=150|54=1|55=AAPL|59=0|60=20260416-07:19:54.145|150=0|151=100|10=177|
< 8=FIX.4.2|9=135|35=D|49=MINIFIX|56=EXCHANGE|34=148|52=20260416-01:49:54|11=496510451|21=1|55=AAPL|54=1|60=20260416-01:49:54|40=2|44=150.00|38=100|59=0|10=192|
< 8=FIX.4.2|9=135|35=D|49=MINIFIX|56=EXCHANGE|34=149|52=20260416-01:49:54|11=496510453|21=1|55=AAPL|54=2|60=20260416-01:49:54|40=2|44=150.00|38=100|59=0|10=196|
> 8=FIX.4.2|9=220|35=8|34=95|49=EXCHANGE|52=20260416-01:49:54.145|56=MINIFIX|6=0|11=496510253|14=0|17=EXEC-1776303563412|31=0|32=0|37=20260416-071954-612863|38=100|39=0|40=2|44=150|54=2|55=AAPL|59=0|60=20260416-07:19:54.145|150=0|151=100|10=183|
< 8=FIX.4.2|9=135|35=D|49=MINIFIX|56=EXCHANGE|34=150|52=20260416-01:49:54|11=496510455|21=1|55=AAPL|54=1|60=20260416-01:49:54|40=2|44=150.00|38=100|59=0|10=189|
< 8=FIX.4.2|9=135|35=D|49=MINIFIX|56=EXCHANGE|34=151|52=20260416-01:49:54|11=496510457|21=1|55=AAPL|54=2|60=20260416-01:49:54|40=2|44=150.00|38=100|59=0|10=193|
> 8=FIX.4.2|9=258|35=8|34=96|49=EXCHANGE|52=20260416-01:49:54.145|56=MINIFIX|6=150|11=496510251|14=100|17=EXEC-1776304194145-985|31=150|32=100|37=20260416-071954-612862|38=100|39=2|40=2|44=150|54=1|55=AAPL|59=0|60=20260416-07:19:54.145|150=F|151=0|527=TRADE-1776304194145-985|10=203|
< 8=FIX.4.2|9=135|35=D|49=MINIFIX|56=EXCHANGE|34=152|52=20260416-01:49:54|11=496510459|21=1|55=AAPL|54=1|60=20260416-01:49:54|40=2|44=150.00|38=100|59=0|10=195|
> 8=FIX.4.2|9=258|35=8|34=97|49=EXCHANGE|52=20260416-01:49:54.145|56=MINIFIX|6=150|11=496510253|14=100|17=EXEC-1776304194145-985|31=150|32=100|37=20260416-071954-612863|38=100|39=2|40=2|44=150|54=2|55=AAPL|59=0|60=20260416-07:19:54.145|150=F|151=0|527=TRADE-1776304194145-985|10=208|
< 8=FIX.4.2|9=135|35=D|49=MINIFIX|56=EXCHANGE|34=153|52=20260416-01:49:54|11=496510461|21=1|55=AAPL|54=2|60=20260416-01:49:54|40=2|44=150.00|38=100|59=0|10=190|
< 8=FIX.4.2|9=135|35=D|49=MINIFIX|56=EXCHANGE|34=154|52=20260416-01:49:54|11=496510463|21=1|55=AAPL|54=1|60=20260416-01:49:54|40=2|44=150.00|38=100|59=0|10=192|
> 8=FIX.4.2|9=220|35=8|34=98|49=EXCHANGE|52=20260416-01:49:54.151|56=MINIFIX|6=0|11=496510255|14=0|17=EXEC-1776303563415|31=0|32=0|37=20260416-071954-612864|38=100|39=0|40=2|44=150|54=1|55=AAPL|59=0|60=20260416-07:19:54.151|150=0|151=100|10=185|
< 8=FIX.4.2|9=135|35=D|49=MINIFIX|56=EXCHANGE|34=155|52=20260416-01:49:54|11=496510465|21=1|55=AAPL|54=2|60=20260416-01:49:54|40=2|44=150.00|38=100|59=0|10=196|
< 8=FIX.4.2|9=135|35=D|49=MINIFIX|56=EXCHANGE|34=156|52=20260416-01:49:54|11=496510467|21=1|55=AAPL|54=1|60=20260416-01:49:54|40=2|44=150.00|38=100|59=0|10=198|
> 8=FIX.4.2|9=220|35=8|34=99|49=EXCHANGE|52=20260416-01:49:54.151|56=MINIFIX|6=0|11=496510257|14=0|17=EXEC-1776303563416|31=0|32=0|37=20260416-071954-612865|38=100|39=0|40=2|44=150|54=2|55=AAPL|59=0|60=20260416-07:19:54.151|150=0|151=100|10=191|
< 8=FIX.4.2|9=135|35=D|49=MINIFIX|56=EXCHANGE|34=157|52=20260416-01:49:54|11=496510469|21=1|55=AAPL|54=2|60=20260416-01:49:54|40=2|44=150.00|38=100|59=0|10=202|
< 8=FIX.4.2|9=135|35=D|49=MINIFIX|56=EXCHANGE|34=158|52=20260416-01:49:54|11=496510471|21=1|55=AAPL|54=1|60=20260416-01:49:54|40=2|44=150.00|38=100|59=0|10=195|
> 8=FIX.4.2|9=259|35=8|34=100|49=EXCHANGE|52=20260416-01:49:54.154|56=MINIFIX|6=150|11=496510255|14=100|17=EXEC-1776304194151-986|31=150|32=100|37=20260416-071954-612864|38=100|39=2|40=2|44=150|54=1|55=AAPL|59=0|60=20260416-07:19:54.154|150=F|151=0|527=TRADE-1776304194151-986|10=240|
< 8=FIX.4.2|9=135|35=D|49=MINIFIX|56=EXCHANGE|34=159|52=20260416-01:49:54|11=496510473|21=1|55=AAPL|54=2|60=20260416-01:49:54|40=2|44=150.00|38=100|59=0|10=199|
> 8=FIX.4.2|9=259|35=8|34=101|49=EXCHANGE|52=20260416-01:49:54.154|56=MINIFIX|6=150|11=496510257|14=100|17=EXEC-1776304194151-986|31=150|32=100|37=20260416-071954-612865|38=100|39=2|40=2|44=150|54=2|55=AAPL|59=0|60=20260416-07:19:54.154|150=F|151=0|527=TRADE-1776304194151-986|10=245|
< 8=FIX.4.2|9=135|35=D|49=MINIFIX|56=EXCHANGE|34=160|52=20260416-01:49:54|11=496510475|21=1|55=AAPL|54=1|60=20260416-01:49:54|40=2|44=150.00|38=100|59=0|10=192|
> 8=FIX.4.2|9=221|35=8|34=102|49=EXCHANGE|52=20260416-01:49:54.154|56=MINIFIX|6=0|11=496510259|14=0|17=EXEC-1776303563419|31=0|32=0|37=20260416-071954-612866|38=100|39=0|40=2|44=150|54=1|55=AAPL|59=0|60=20260416-07:19:54.154|150=0|151=100|10=236|
< 8=FIX.4.2|9=135|35=D|49=MINIFIX|56=EXCHANGE|34=161|52=20260416-01:49:54|11=496510477|21=1|55=AAPL|54=2|60=20260416-01:49:54|40=2|44=150.00|38=100|59=0|10=196|
< 8=FIX.4.2|9=135|35=D|49=MINIFIX|56=EXCHANGE|34=162|52=20260416-01:49:54|11=496510479|21=1|55=AAPL|54=1|60=20260416-01:49:54|40=2|44=150.00|38=100|59=0|10=198|
< 8=FIX.4.2|9=135|35=D|49=MINIFIX|56=EXCHANGE|34=163|52=20260416-01:49:54|11=496510481|21=1|55=AAPL|54=2|60=20260416-01:49:54|40=2|44=150.00|38=100|59=0|10=193|
< 8=FIX.4.2|9=135|35=D|49=MINIFIX|56=EXCHANGE|34=164|52=20260416-01:49:54|11=496510483|21=1|55=AAPL|54=1|60=20260416-01:49:54|40=2|44=150.00|38=100|59=0|10=195|
> 8=FIX.4.2|9=221|35=8|34=103|49=EXCHANGE|52=20260416-01:49:54.158|56=MINIFIX|6=0|11=496510261|14=0|17=EXEC-1776303563420|31=0|32=0|37=20260416-071954-612867|38=100|39=0|40=2|44=150|54=2|55=AAPL|59=0|60=20260416-07:19:54.158|150=0|151=100|10=232|
< 8=FIX.4.2|9=135|35=D|49=MINIFIX|56=EXCHANGE|34=165|52=20260416-01:49:54|11=496510485|21=1|55=AAPL|54=2|60=20260416-01:49:54|40=2|44=150.00|38=100|59=0|10=199|
< 8=FIX.4.2|9=135|35=D|49=MINIFIX|56=EXCHANGE|34=166|52=20260416-01:49:54|11=496510487|21=1|55=AAPL|54=1|60=20260416-01:49:54|40=2|44=150.00|38=100|59=0|10=201|
> 8=FIX.4.2|9=259|35=8|34=104|49=EXCHANGE|52=20260416-01:49:54.158|56=MINIFIX|6=150|11=496510259|14=100|17=EXEC-1776304194158-987|31=150|32=100|37=20260416-071954-612866|38=100|39=2|40=2|44=150|54=1|55=AAPL|59=0|60=20260416-07:19:54.158|150=F|151=0|527=TRADE-1776304194158-987|10=018|
< 8=FIX.4.2|9=135|35=D|49=MINIFIX|56=EXCHANGE|34=167|52=20260416-01:49:54|11=496510489|21=1|55=AAPL|54=2|60=20260416-01:49:54|40=2|44=150.00|38=100|59=0|10=205|
> 8=FIX.4.2|9=259|35=8|34=105|49=EXCHANGE|52=20260416-01:49:54.158|56=MINIFIX|6=150|11=496510261|14=100|17=EXEC-1776304194158-987|31=150|32=100|37=20260416-071954-612867|38=100|39=2|40=2|44=150|54=2|55=AAPL|59=0|60=20260416-07:19:54.158|150=F|151=0|527=TRADE-1776304194158-987|10=014|
< 8=FIX.4.2|9=135|35=D|49=MINIFIX|56=EXCHANGE|34=168|52=20260416-01:49:54|11=496510491|21=1|55=AAPL|54=1|60=20260416-01:49:54|40=2|44=150.00|38=100|59=0|10=198|
> 8=FIX.4.2|9=221|35=8|34=106|49=EXCHANGE|52=20260416-01:49:54.163|56=MINIFIX|6=0|11=496510263|14=0|17=EXEC-1776303563423|31=0|32=0|37=20260416-071954-612868|38=100|39=0|40=2|44=150|54=1|55=AAPL|59=0|60=20260416-07:19:54.163|150=0|151=100|10=232|
< 8=FIX.4.2|9=135|35=D|49=MINIFIX|56=EXCHANGE|34=169|52=20260416-01:49:54|11=496510493|21=1|55=AAPL|54=2|60=20260416-01:49:54|40=2|44=150.00|38=100|59=0|10=202|
< 8=FIX.4.2|9=135|35=D|49=MINIFIX|56=EXCHANGE|34=170|52=20260416-01:49:54|11=496510495|21=1|55=AAPL|54=1|60=20260416-01:49:54|40=2|44=150.00|38=100|59=0|10=195|
> 8=FIX.4.2|9=221|35=8|34=107|49=EXCHANGE|52=20260416-01:49:54.163|56=MINIFIX|6=0|11=496510265|14=0|17=EXEC-1776303563424|31=0|32=0|37=20260416-071954-612869|38=100|39=0|40=2|44=150|54=2|55=AAPL|59=0|60=20260416-07:19:54.163|150=0|151=100|10=238|
< 8=FIX.4.2|9=135|35=D|49=MINIFIX|56=EXCHANGE|34=171|52=20260416-01:49:54|11=496510497|21=1|55=AAPL|54=2|60=20260416-01:49:54|40=2|44=150.00|38=100|59=0|10=199|
< 8=FIX.4.2|9=135|35=D|49=MINIFIX|56=EXCHANGE|34=172|52=20260416-01:49:54|11=496510499|21=1|55=AAPL|54=1|60=20260416-01:49:54|40=2|44=150.00|38=100|59=0|10=201|
< 8=FIX.4.2|9=135|35=D|49=MINIFIX|56=EXCHANGE|34=173|52=20260416-01:49:54|11=496510501|21=1|55=AAPL|54=2|60=20260416-01:49:54|40=2|44=150.00|38=100|59=0|10=187|
> 8=FIX.4.2|9=259|35=8|34=108|49=EXCHANGE|52=20260416-01:49:54.163|56=MINIFIX|6=150|11=496510263|14=100|17=EXEC-1776304194163-988|31=150|32=100|37=20260416-071954-612868|38=100|39=2|40=2|44=150|54=1|55=AAPL|59=0|60=20260416-07:19:54.163|150=F|151=0|527=TRADE-1776304194163-988|10=005|
> 8=FIX.4.2|9=259|35=8|34=109|49=EXCHANGE|52=20260416-01:49:54.163|56=MINIFIX|6=150|11=496510265|14=100|17=EXEC-1776304194163-988|31=150|32=100|37=20260416-071954-612869|38=100|39=2|40=2|44=150|54=2|55=AAPL|59=0|60=20260416-07:19:54.163|150=F|151=0|527=TRADE-1776304194163-988|10=010|
< 8=FIX.4.2|9=135|35=D|49=MINIFIX|56=EXCHANGE|34=174|52=20260416-01:49:54|11=496510503|21=1|55=AAPL|54=1|60=20260416-01:49:54|40=2|44=150.00|38=100|59=0|10=189|
< 8=FIX.4.2|9=135|35=D|49=MINIFIX|56=EXCHANGE|34=175|52=20260416-01:49:54|11=496510505|21=1|55=AAPL|54=2|60=20260416-01:49:54|40=2|44=150.00|38=100|59=0|10=193|
> 8=FIX.4.2|9=221|35=8|34=110|49=EXCHANGE|52=20260416-01:49:54.163|56=MINIFIX|6=0|11=496510267|14=0|17=EXEC-1776303563427|31=0|32=0|37=20260416-071954-612870|38=100|39=0|40=2|44=150|54=1|55=AAPL|59=0|60=20260416-07:19:54.163|150=0|151=100|10=228|
< 8=FIX.4.2|9=135|35=D|49=MINIFIX|56=EXCHANGE|34=176|52=20260416-01:49:54|11=496510507|21=1|55=AAPL|54=1|60=20260416-01:49:54|40=2|44=150.00|38=100|59=0|10=195|
< 8=FIX.4.2|9=135|35=D|49=MINIFIX|56=EXCHANGE|34=177|52=20260416-01:49:54|11=496510509|21=1|55=AAPL|54=2|60=20260416-01:49:54|40=2|44=150.00|38=100|59=0|10=199|
> 8=FIX.4.2|9=221|35=8|34=111|49=EXCHANGE|52=20260416-01:49:54.163|56=MINIFIX|6=0|11=496510269|14=0|17=EXEC-1776303563428|31=0|32=0|37=20260416-071954-612871|38=100|39=0|40=2|44=150|54=2|55=AAPL|59=0|60=20260416-07:19:54.163|150=0|151=100|10=234|
< 8=FIX.4.2|9=135|35=D|49=MINIFIX|56=EXCHANGE|34=178|52=20260416-01:49:54|11=496510511|21=1|55=AAPL|54=1|60=20260416-01:49:54|40=2|44=150.00|38=100|59=0|10=192|
> 8=FIX.4.2|9=259|35=8|34=112|49=EXCHANGE|52=20260416-01:49:54.169|56=MINIFIX|6=150|11=496510267|14=100|17=EXEC-1776304194169-989|31=150|32=100|37=20260416-071954-612870|38=100|39=2|40=2|44=150|54=1|55=AAPL|59=0|60=20260416-07:19:54.169|150=F|151=0|527=TRADE-1776304194169-989|10=023|
< 8=FIX.4.2|9=135|35=D|49=MINIFIX|56=EXCHANGE|34=179|52=20260416-01:49:54|11=496510513|21=1|55=AAPL|54=2|60=20260416-01:49:54|40=2|44=150.00|38=100|59=0|10=196|
> 8=FIX.4.2|9=259|35=8|34=113|49=EXCHANGE|52=20260416-01:49:54.169|56=MINIFIX|6=150|11=496510269|14=100|17=EXEC-1776304194169-989|31=150|32=100|37=20260416-071954-612871|38=100|39=2|40=2|44=150|54=2|55=AAPL|59=0|60=20260416-07:19:54.169|150=F|151=0|527=TRADE-1776304194169-989|10=028|
< 8=FIX.4.2|9=135|35=D|49=MINIFIX|56=EXCHANGE|34=180|52=20260416-01:49:54|11=496510515|21=1|55=AAPL|54=1|60=20260416-01:49:54|40=2|44=150.00|38=100|59=0|10=189|
> 8=FIX.4.2|9=221|35=8|34=114|49=EXCHANGE|52=20260416-01:49:54.169|56=MINIFIX|6=0|11=496510271|14=0|17=EXEC-1776303563431|31=0|32=0|37=20260416-071954-612872|38=100|39=0|40=2|44=150|54=1|55=AAPL|59=0|60=20260416-07:19:54.169|150=0|151=100|10=236|
< 8=FIX.4.2|9=135|35=D|49=MINIFIX|56=EXCHANGE|34=181|52=20260416-01:49:54|11=496510517|21=1|55=AAPL|54=2|60=20260416-01:49:54|40=2|44=150.00|38=100|59=0|10=193|
< 8=FIX.4.2|9=135|35=D|49=MINIFIX|56=EXCHANGE|34=182|52=20260416-01:49:54|11=496510519|21=1|55=AAPL|54=1|60=20260416-01:49:54|40=2|44=150.00|38=100|59=0|10=195|
> 8=FIX.4.2|9=221|35=8|34=115|49=EXCHANGE|52=20260416-01:49:54.173|56=MINIFIX|6=0|11=496510273|14=0|17=EXEC-1776303563432|31=0|32=0|37=20260416-071954-612873|38=100|39=0|40=2|44=150|54=2|55=AAPL|59=0|60=20260416-07:19:54.173|150=0|151=100|10=232|
< 8=FIX.4.2|9=135|35=D|49=MINIFIX|56=EXCHANGE|34=183|52=20260416-01:49:54|11=496510521|21=1|55=AAPL|54=2|60=20260416-01:49:54|40=2|44=150.00|38=100|59=0|10=190|
> 8=FIX.4.2|9=259|35=8|34=116|49=EXCHANGE|52=20260416-01:49:54.173|56=MINIFIX|6=150|11=496510271|14=100|17=EXEC-1776304194173-990|31=150|32=100|37=20260416-071954-612872|38=100|39=2|40=2|44=150|54=1|55=AAPL|59=0|60=20260416-07:19:54.173|150=F|151=0|527=TRADE-1776304194173-990|10=244|
< 8=FIX.4.2|9=135|35=D|49=MINIFIX|56=EXCHANGE|34=184|52=20260416-01:49:54|11=496510523|21=1|55=AAPL|54=1|60=20260416-01:49:54|40=2|44=150.00|38=100|59=0|10=192|
> 8=FIX.4.2|9=259|35=8|34=117|49=EXCHANGE|52=20260416-01:49:54.175|56=MINIFIX|6=150|11=496510273|14=100|17=EXEC-1776304194173-990|31=150|32=100|37=20260416-071954-612873|38=100|39=2|40=2|44=150|54=2|55=AAPL|59=0|60=20260416-07:19:54.175|150=F|151=0|527=TRADE-1776304194173-990|10=253|
< 8=FIX.4.2|9=135|35=D|49=MINIFIX|56=EXCHANGE|34=185|52=20260416-01:49:54|11=496510525|21=1|55=AAPL|54=2|60=20260416-01:49:54|40=2|44=150.00|38=100|59=0|10=196|
> 8=FIX.4.2|9=221|35=8|34=118|49=EXCHANGE|52=20260416-01:49:54.175|56=MINIFIX|6=0|11=496510275|14=0|17=EXEC-1776303563435|31=0|32=0|37=20260416-071954-612874|38=100|39=0|40=2|44=150|54=1|55=AAPL|59=0|60=20260416-07:19:54.175|150=0|151=100|10=244|
< 8=FIX.4.2|9=135|35=D|49=MINIFIX|56=EXCHANGE|34=186|52=20260416-01:49:54|11=496510527|21=1|55=AAPL|54=1|60=20260416-01:49:54|40=2|44=150.00|38=100|59=0|10=198|
> 8=FIX.4.2|9=221|35=8|34=119|49=EXCHANGE|52=20260416-01:49:54.175|56=MINIFIX|6=0|11=496510277|14=0|17=EXEC-1776303563436|31=0|32=0|37=20260416-071954-612875|38=100|39=0|40=2|44=150|54=2|55=AAPL|59=0|60=20260416-07:19:54.175|150=0|151=100|10=250|
< 8=FIX.4.2|9=135|35=D|49=MINIFIX|56=EXCHANGE|34=187|52=20260416-01:49:54|11=496510529|21=1|55=AAPL|54=2|60=20260416-01:49:54|40=2|44=150.00|38=100|59=0|10=202|
< 8=FIX.4.2|9=135|35=D|49=MINIFIX|56=EXCHANGE|34=188|52=20260416-01:49:54|11=496510531|21=1|55=AAPL|54=1|60=20260416-01:49:54|40=2|44=150.00|38=100|59=0|10=195|
< 8=FIX.4.2|9=135|35=D|49=MINIFIX|56=EXCHANGE|34=189|52=20260416-01:49:54|11=496510533|21=1|55=AAPL|54=2|60=20260416-01:49:54|40=2|44=150.00|38=100|59=0|10=199|
> 8=FIX.4.2|9=259|35=8|34=120|49=EXCHANGE|52=20260416-01:49:54.175|56=MINIFIX|6=150|11=496510275|14=100|17=EXEC-1776304194175-991|31=150|32=100|37=20260416-071954-612874|38=100|39=2|40=2|44=150|54=1|55=AAPL|59=0|60=20260416-07:19:54.175|150=F|151=0|527=TRADE-1776304194175-991|10=255|
> 8=FIX.4.2|9=259|35=8|34=121|49=EXCHANGE|52=20260416-01:49:54.175|56=MINIFIX|6=150|11=496510277|14=100|17=EXEC-1776304194175-991|31=150|32=100|37=20260416-071954-612875|38=100|39=2|40=2|44=150|54=2|55=AAPL|59=0|60=20260416-07:19:54.175|150=F|151=0|527=TRADE-1776304194175-991|10=004|
< 8=FIX.4.2|9=135|35=D|49=MINIFIX|56=EXCHANGE|34=190|52=20260416-01:49:54|11=496510535|21=1|55=AAPL|54=1|60=20260416-01:49:54|40=2|44=150.00|38=100|59=0|10=192|
< 8=FIX.4.2|9=135|35=D|49=MINIFIX|56=EXCHANGE|34=191|52=20260416-01:49:54|11=496510537|21=1|55=AAPL|54=2|60=20260416-01:49:54|40=2|44=150.00|38=100|59=0|10=196|
> 8=FIX.4.2|9=221|35=8|34=122|49=EXCHANGE|52=20260416-01:49:54.181|56=MINIFIX|6=0|11=496510279|14=0|17=EXEC-1776303563439|31=0|32=0|37=20260416-071954-612876|38=100|39=0|40=2|44=150|54=1|55=AAPL|59=0|60=20260416-07:19:54.181|150=0|151=100|10=243|
< 8=FIX.4.2|9=135|35=D|49=MINIFIX|56=EXCHANGE|34=192|52=20260416-01:49:54|11=496510539|21=1|55=AAPL|54=1|60=20260416-01:49:54|40=2|44=150.00|38=100|59=0|10=198|
> 8=FIX.4.2|9=221|35=8|34=123|49=EXCHANGE|52=20260416-01:49:54.181|56=MINIFIX|6=0|11=496510281|14=0|17=EXEC-1776303563440|31=0|32=0|37=20260416-071954-612877|38=100|39=0|40=2|44=150|54=2|55=AAPL|59=0|60=20260416-07:19:54.181|150=0|151=100|10=231|
< 8=FIX.4.2|9=135|35=D|49=MINIFIX|56=EXCHANGE|34=193|52=20260416-01:49:54|11=496510541|21=1|55=AAPL|54=2|60=20260416-01:49:54|40=2|44=150.00|38=100|59=0|10=193|
< 8=FIX.4.2|9=135|35=D|49=MINIFIX|56=EXCHANGE|34=194|52=20260416-01:49:54|11=496510543|21=1|55=AAPL|54=1|60=20260416-01:49:54|40=2|44=150.00|38=100|59=0|10=195|
> 8=FIX.4.2|9=259|35=8|34=124|49=EXCHANGE|52=20260416-01:49:54.183|56=MINIFIX|6=150|11=496510279|14=100|17=EXEC-1776304194183-992|31=150|32=100|37=20260416-071954-612876|38=100|39=2|40=2|44=150|54=1|55=AAPL|59=0|60=20260416-07:19:54.183|150=F|151=0|527=TRADE-1776304194183-992|10=007|
> 8=FIX.4.2|9=259|35=8|34=125|49=EXCHANGE|52=20260416-01:49:54.183|56=MINIFIX|6=150|11=496510281|14=100|17=EXEC-1776304194183-992|31=150|32=100|37=20260416-071954-612877|38=100|39=2|40=2|44=150|54=2|55=AAPL|59=0|60=20260416-07:19:54.183|150=F|151=0|527=TRADE-1776304194183-992|10=003|
< 8=FIX.4.2|9=135|35=D|49=MINIFIX|56=EXCHANGE|34=195|52=20260416-01:49:54|11=496510545|21=1|55=AAPL|54=2|60=20260416-01:49:54|40=2|44=150.00|38=100|59=0|10=199|
< 8=FIX.4.2|9=135|35=D|49=MINIFIX|56=EXCHANGE|34=196|52=20260416-01:49:54|11=496510547|21=1|55=AAPL|54=1|60=20260416-01:49:54|40=2|44=150.00|38=100|59=0|10=201|
> 8=FIX.4.2|9=221|35=8|34=126|49=EXCHANGE|52=20260416-01:49:54.185|56=MINIFIX|6=0|11=496510283|14=0|17=EXEC-1776303563443|31=0|32=0|37=20260416-071954-612878|38=100|39=0|40=2|44=150|54=1|55=AAPL|59=0|60=20260416-07:19:54.185|150=0|151=100|10=247|
< 8=FIX.4.2|9=135|35=D|49=MINIFIX|56=EXCHANGE|34=197|52=20260416-01:49:54|11=496510549|21=1|55=AAPL|54=2|60=20260416-01:49:54|40=2|44=150.00|38=100|59=0|10=205|
> 8=FIX.4.2|9=221|35=8|34=127|49=EXCHANGE|52=20260416-01:49:54.187|56=MINIFIX|6=0|11=496510285|14=0|17=EXEC-1776303563444|31=0|32=0|37=20260416-071954-612879|38=100|39=0|40=2|44=150|54=2|55=AAPL|59=0|60=20260416-07:19:54.187|150=0|151=100|10=001|
< 8=FIX.4.2|9=135|35=D|49=MINIFIX|56=EXCHANGE|34=198|52=20260416-01:49:54|11=496510551|21=1|55=AAPL|54=1|60=20260416-01:49:54|40=2|44=150.00|38=100|59=0|10=198|
< 8=FIX.4.2|9=135|35=D|49=MINIFIX|56=EXCHANGE|34=199|52=20260416-01:49:54|11=496510553|21=1|55=AAPL|54=2|60=20260416-01:49:54|40=2|44=150.00|38=100|59=0|10=202|
> 8=FIX.4.2|9=259|35=8|34=128|49=EXCHANGE|52=20260416-01:49:54.189|56=MINIFIX|6=150|11=496510283|14=100|17=EXEC-1776304194187-993|31=150|32=100|37=20260416-071954-612878|38=100|39=2|40=2|44=150|54=1|55=AAPL|59=0|60=20260416-07:19:54.189|150=F|151=0|527=TRADE-1776304194187-993|10=030|
< 8=FIX.4.2|9=135|35=D|49=MINIFIX|56=EXCHANGE|34=200|52=20260416-01:49:54|11=496510555|21=1|55=AAPL|54=1|60=20260416-01:49:54|40=2|44=150.00|38=100|59=0|10=186|
> 8=FIX.4.2|9=259|35=8|34=129|49=EXCHANGE|52=20260416-01:49:54.189|56=MINIFIX|6=150|11=496510285|14=100|17=EXEC-1776304194187-993|31=150|32=100|37=20260416-071954-612879|38=100|39=2|40=2|44=150|54=2|55=AAPL|59=0|60=20260416-07:19:54.189|150=F|151=0|527=TRADE-1776304194187-993|10=035|
< 8=FIX.4.2|9=135|35=D|49=MINIFIX|56=EXCHANGE|34=201|52=20260416-01:49:54|11=496510557|21=1|55=AAPL|54=2|60=20260416-01:49:54|40=2|44=150.00|38=100|59=0|10=190|
> 8=FIX.4.2|9=221|35=8|34=130|49=EXCHANGE|52=20260416-01:49:54.189|56=MINIFIX|6=0|11=496510287|14=0|17=EXEC-1776303563447|31=0|32=0|37=20260416-071954-612880|38=100|39=0|40=2|44=150|54=1|55=AAPL|59=0|60=20260416-07:19:54.189|150=0|151=100|10=251|
> 8=FIX.4.2|9=221|35=8|34=131|49=EXCHANGE|52=20260416-01:49:54.192|56=MINIFIX|6=0|11=496510289|14=0|17=EXEC-1776303563448|31=0|32=0|37=20260416-071954-612881|38=100|39=0|40=2|44=150|54=2|55=AAPL|59=0|60=20260416-07:19:54.192|150=0|151=100|10=245|
> 8=FIX.4.2|9=259|35=8|34=132|49=EXCHANGE|52=20260416-01:49:54.193|56=MINIFIX|6=150|11=496510287|14=100|17=EXEC-1776304194192-994|31=150|32=100|37=20260416-071954-612880|38=100|39=2|40=2|44=150|54=1|55=AAPL|59=0|60=20260416-07:19:54.193|150=F|151=0|527=TRADE-1776304194192-994|10=006|
> 8=FIX.4.2|9=259|35=8|34=133|49=EXCHANGE|52=20260416-01:49:54.194|56=MINIFIX|6=150|11=496510289|14=100|17=EXEC-1776304194192-994|31=150|32=100|37=20260416-071954-612881|38=100|39=2|40=2|44=150|54=2|55=AAPL|59=0|60=20260416-07:19:54.194|150=F|151=0|527=TRADE-1776304194192-994|10=013|
> 8=FIX.4.2|9=221|35=8|34=134|49=EXCHANGE|52=20260416-01:49:54.195|56=MINIFIX|6=0|11=496510291|14=0|17=EXEC-1776303563451|31=0|32=0|37=20260416-071954-612882|38=100|39=0|40=2|44=150|54=1|55=AAPL|59=0|60=20260416-07:19:54.195|150=0|151=100|10=241|
> 8=FIX.4.2|9=221|35=8|34=135|49=EXCHANGE|52=20260416-01:49:54.195|56=MINIFIX|6=0|11=496510293|14=0|17=EXEC-1776303563452|31=0|32=0|37=20260416-071954-612883|38=100|39=0|40=2|44=150|54=2|55=AAPL|59=0|60=20260416-07:19:54.195|150=0|151=100|10=247|
> 8=FIX.4.2|9=259|35=8|34=136|49=EXCHANGE|52=20260416-01:49:54.195|56=MINIFIX|6=150|11=496510291|14=100|17=EXEC-1776304194195-995|31=150|32=100|37=20260416-071954-612882|38=100|39=2|40=2|44=150|54=1|55=AAPL|59=0|60=20260416-07:19:54.195|150=F|151=0|527=TRADE-1776304194195-995|10=019|
> 8=FIX.4.2|9=259|35=8|34=137|49=EXCHANGE|52=20260416-01:49:54.195|56=MINIFIX|6=150|11=496510293|14=100|17=EXEC-1776304194195-995|31=150|32=100|37=20260416-071954-612883|38=100|39=2|40=2|44=150|54=2|55=AAPL|59=0|60=20260416-07:19:54.195|150=F|151=0|527=TRADE-1776304194195-995|10=024|
> 8=FIX.4.2|9=221|35=8|34=138|49=EXCHANGE|52=20260416-01:49:54.200|56=MINIFIX|6=0|11=496510295|14=0|17=EXEC-1776303563455|31=0|32=0|37=20260416-071954-612884|38=100|39=0|40=2|44=150|54=1|55=AAPL|59=0|60=20260416-07:19:54.200|150=0|151=100|10=229|
> 8=FIX.4.2|9=221|35=8|34=139|49=EXCHANGE|52=20260416-01:49:54.200|56=MINIFIX|6=0|11=496510297|14=0|17=EXEC-1776303563456|31=0|32=0|37=20260416-071954-612885|38=100|39=0|40=2|44=150|54=2|55=AAPL|59=0|60=20260416-07:19:54.200|150=0|151=100|10=235|
> 8=FIX.4.2|9=259|35=8|34=140|49=EXCHANGE|52=20260416-01:49:54.203|56=MINIFIX|6=150|11=496510295|14=100|17=EXEC-1776304194200-996|31=150|32=100|37=20260416-071954-612884|38=100|39=2|40=2|44=150|54=1|55=AAPL|59=0|60=20260416-07:19:54.203|150=F|151=0|527=TRADE-1776304194200-996|10=232|
> 8=FIX.4.2|9=259|35=8|34=141|49=EXCHANGE|52=20260416-01:49:54.204|56=MINIFIX|6=150|11=496510297|14=100|17=EXEC-1776304194200-996|31=150|32=100|37=20260416-071954-612885|38=100|39=2|40=2|44=150|54=2|55=AAPL|59=0|60=20260416-07:19:54.204|150=F|151=0|527=TRADE-1776304194200-996|10=239|
> 8=FIX.4.2|9=221|35=8|34=142|49=EXCHANGE|52=20260416-01:49:54.205|56=MINIFIX|6=0|11=496510299|14=0|17=EXEC-1776303563459|31=0|32=0|37=20260416-071954-612886|38=100|39=0|40=2|44=150|54=1|55=AAPL|59=0|60=20260416-07:19:54.205|150=0|151=100|10=244|
> 8=FIX.4.2|9=221|35=8|34=143|49=EXCHANGE|52=20260416-01:49:54.206|56=MINIFIX|6=0|11=496510301|14=0|17=EXEC-1776303563460|31=0|32=0|37=20260416-071954-612887|38=100|39=0|40=2|44=150|54=2|55=AAPL|59=0|60=20260416-07:19:54.206|150=0|151=100|10=225|
> 8=FIX.4.2|9=259|35=8|34=144|49=EXCHANGE|52=20260416-01:49:54.208|56=MINIFIX|6=150|11=496510299|14=100|17=EXEC-1776304194206-997|31=150|32=100|37=20260416-071954-612886|38=100|39=2|40=2|44=150|54=1|55=AAPL|59=0|60=20260416-07:19:54.208|150=F|151=0|527=TRADE-1776304194206-997|10=010|
> 8=FIX.4.2|9=259|35=8|34=145|49=EXCHANGE|52=20260416-01:49:54.209|56=MINIFIX|6=150|11=496510301|14=100|17=EXEC-1776304194206-997|31=150|32=100|37=20260416-071954-612887|38=100|39=2|40=2|44=150|54=2|55=AAPL|59=0|60=20260416-07:19:54.209|150=F|151=0|527=TRADE-1776304194206-997|10=255|
> 8=FIX.4.2|9=221|35=8|34=146|49=EXCHANGE|52=20260416-01:49:54.210|56=MINIFIX|6=0|11=496510303|14=0|17=EXEC-1776303563463|31=0|32=0|37=20260416-071954-612888|38=100|39=0|40=2|44=150|54=1|55=AAPL|59=0|60=20260416-07:19:54.210|150=0|151=100|10=223|
> 8=FIX.4.2|9=221|35=8|34=147|49=EXCHANGE|52=20260416-01:49:54.211|56=MINIFIX|6=0|11=496510305|14=0|17=EXEC-1776303563464|31=0|32=0|37=20260416-071954-612889|38=100|39=0|40=2|44=150|54=2|55=AAPL|59=0|60=20260416-07:19:54.211|150=0|151=100|10=231|
> 8=FIX.4.2|9=259|35=8|34=148|49=EXCHANGE|52=20260416-01:49:54.213|56=MINIFIX|6=150|11=496510303|14=100|17=EXEC-1776304194212-998|31=150|32=100|37=20260416-071954-612888|38=100|39=2|40=2|44=150|54=1|55=AAPL|59=0|60=20260416-07:19:54.213|150=F|151=0|527=TRADE-1776304194212-998|10=246|
> 8=FIX.4.2|9=259|35=8|34=149|49=EXCHANGE|52=20260416-01:49:54.214|56=MINIFIX|6=150|11=496510305|14=100|17=EXEC-1776304194212-998|31=150|32=100|37=20260416-071954-612889|38=100|39=2|40=2|44=150|54=2|55=AAPL|59=0|60=20260416-07:19:54.214|150=F|151=0|527=TRADE-1776304194212-998|10=253|
> 8=FIX.4.2|9=221|35=8|34=150|49=EXCHANGE|52=20260416-01:49:54.215|56=MINIFIX|6=0|11=496510307|14=0|17=EXEC-1776303563467|31=0|32=0|37=20260416-071954-612890|38=100|39=0|40=2|44=150|54=1|55=AAPL|59=0|60=20260416-07:19:54.215|150=0|151=100|10=229|
> 8=FIX.4.2|9=221|35=8|34=151|49=EXCHANGE|52=20260416-01:49:54.216|56=MINIFIX|6=0|11=496510309|14=0|17=EXEC-1776303563468|31=0|32=0|37=20260416-071954-612891|38=100|39=0|40=2|44=150|54=2|55=AAPL|59=0|60=20260416-07:19:54.216|150=0|151=100|10=237|
> 8=FIX.4.2|9=259|35=8|34=152|49=EXCHANGE|52=20260416-01:49:54.218|56=MINIFIX|6=150|11=496510307|14=100|17=EXEC-1776304194216-999|31=150|32=100|37=20260416-071954-612890|38=100|39=2|40=2|44=150|54=1|55=AAPL|59=0|60=20260416-07:19:54.218|150=F|151=0|527=TRADE-1776304194216-999|10=002|
> 8=FIX.4.2|9=259|35=8|34=153|49=EXCHANGE|52=20260416-01:49:54.219|56=MINIFIX|6=150|11=496510309|14=100|17=EXEC-1776304194216-999|31=150|32=100|37=20260416-071954-612891|38=100|39=2|40=2|44=150|54=2|55=AAPL|59=0|60=20260416-07:19:54.219|150=F|151=0|527=TRADE-1776304194216-999|10=009|
> 8=FIX.4.2|9=221|35=8|34=154|49=EXCHANGE|52=20260416-01:49:54.221|56=MINIFIX|6=0|11=496510311|14=0|17=EXEC-1776303563471|31=0|32=0|37=20260416-071954-612892|38=100|39=0|40=2|44=150|54=1|55=AAPL|59=0|60=20260416-07:19:54.221|150=0|151=100|10=219|
> 8=FIX.4.2|9=221|35=8|34=155|49=EXCHANGE|52=20260416-01:49:54.222|56=MINIFIX|6=0|11=496510313|14=0|17=EXEC-1776303563472|31=0|32=0|37=20260416-071954-612893|38=100|39=0|40=2|44=150|54=2|55=AAPL|59=0|60=20260416-07:19:54.222|150=0|151=100|10=227|
> 8=FIX.4.2|9=261|35=8|34=156|49=EXCHANGE|52=20260416-01:49:54.223|56=MINIFIX|6=150|11=496510311|14=100|17=EXEC-1776304194222-1000|31=150|32=100|37=20260416-071954-612892|38=100|39=2|40=2|44=150|54=1|55=AAPL|59=0|60=20260416-07:19:54.223|150=F|151=0|527=TRADE-1776304194222-1000|10=026|
> 8=FIX.4.2|9=261|35=8|34=157|49=EXCHANGE|52=20260416-01:49:54.224|56=MINIFIX|6=150|11=496510313|14=100|17=EXEC-1776304194222-1000|31=150|32=100|37=20260416-071954-612893|38=100|39=2|40=2|44=150|54=2|55=AAPL|59=0|60=20260416-07:19:54.224|150=F|151=0|527=TRADE-1776304194222-1000|10=033|
> 8=FIX.4.2|9=221|35=8|34=158|49=EXCHANGE|52=20260416-01:49:54.226|56=MINIFIX|6=0|11=496510315|14=0|17=EXEC-1776303563475|31=0|32=0|37=20260416-071954-612894|38=100|39=0|40=2|44=150|54=1|55=AAPL|59=0|60=20260416-07:19:54.226|150=0|151=100|10=243|
> 8=FIX.4.2|9=221|35=8|34=159|49=EXCHANGE|52=20260416-01:49:54.227|56=MINIFIX|6=0|11=496510317|14=0|17=EXEC-1776303563476|31=0|32=0|37=20260416-071954-612895|38=100|39=0|40=2|44=150|54=2|55=AAPL|59=0|60=20260416-07:19:54.227|150=0|151=100|10=251|
> 8=FIX.4.2|9=261|35=8|34=160|49=EXCHANGE|52=20260416-01:49:54.228|56=MINIFIX|6=150|11=496510315|14=100|17=EXEC-1776304194227-1001|31=150|32=100|37=20260416-071954-612894|38=100|39=2|40=2|44=150|54=1|55=AAPL|59=0|60=20260416-07:19:54.228|150=F|151=0|527=TRADE-1776304194227-1001|10=049|
> 8=FIX.4.2|9=261|35=8|34=161|49=EXCHANGE|52=20260416-01:49:54.229|56=MINIFIX|6=150|11=496510317|14=100|17=EXEC-1776304194227-1001|31=150|32=100|37=20260416-071954-612895|38=100|39=2|40=2|44=150|54=2|55=AAPL|59=0|60=20260416-07:19:54.229|150=F|151=0|527=TRADE-1776304194227-1001|10=056|
> 8=FIX.4.2|9=221|35=8|34=162|49=EXCHANGE|52=20260416-01:49:54.231|56=MINIFIX|6=0|11=496510319|14=0|17=EXEC-1776303563479|31=0|32=0|37=20260416-071954-612896|38=100|39=0|40=2|44=150|54=1|55=AAPL|59=0|60=20260416-07:19:54.231|150=0|151=100|10=240|
> 8=FIX.4.2|9=221|35=8|34=163|49=EXCHANGE|52=20260416-01:49:54.233|56=MINIFIX|6=0|11=496510321|14=0|17=EXEC-1776303563480|31=0|32=0|37=20260416-071954-612897|38=100|39=0|40=2|44=150|54=2|55=AAPL|59=0|60=20260416-07:19:54.233|150=0|151=100|10=232|
> 8=FIX.4.2|9=261|35=8|34=164|49=EXCHANGE|52=20260416-01:49:54.234|56=MINIFIX|6=150|11=496510319|14=100|17=EXEC-1776304194233-1002|31=150|32=100|37=20260416-071954-612896|38=100|39=2|40=2|44=150|54=1|55=AAPL|59=0|60=20260416-07:19:54.234|150=F|151=0|527=TRADE-1776304194233-1002|10=049|
> 8=FIX.4.2|9=261|35=8|34=165|49=EXCHANGE|52=20260416-01:49:54.235|56=MINIFIX|6=150|11=496510321|14=100|17=EXEC-1776304194233-1002|31=150|32=100|37=20260416-071954-612897|38=100|39=2|40=2|44=150|54=2|55=AAPL|59=0|60=20260416-07:19:54.235|150=F|151=0|527=TRADE-1776304194233-1002|10=047|
> 8=FIX.4.2|9=221|35=8|34=166|49=EXCHANGE|52=20260416-01:49:54.236|56=MINIFIX|6=0|11=496510323|14=0|17=EXEC-1776303563483|31=0|32=0|37=20260416-071954-612898|38=100|39=0|40=2|44=150|54=1|55=AAPL|59=0|60=20260416-07:19:54.236|150=0|151=100|10=246|
> 8=FIX.4.2|9=221|35=8|34=167|49=EXCHANGE|52=20260416-01:49:54.237|56=MINIFIX|6=0|11=496510325|14=0|17=EXEC-1776303563484|31=0|32=0|37=20260416-071954-612899|38=100|39=0|40=2|44=150|54=2|55=AAPL|59=0|60=20260416-07:19:54.237|150=0|151=100|10=254|
> 8=FIX.4.2|9=261|35=8|34=168|49=EXCHANGE|52=20260416-01:49:54.237|56=MINIFIX|6=150|11=496510323|14=100|17=EXEC-1776304194237-1003|31=150|32=100|37=20260416-071954-612898|38=100|39=2|40=2|44=150|54=1|55=AAPL|59=0|60=20260416-07:19:54.237|150=F|151=0|527=TRADE-1776304194237-1003|10=066|
> 8=FIX.4.2|9=261|35=8|34=169|49=EXCHANGE|52=20260416-01:49:54.237|56=MINIFIX|6=150|11=496510325|14=100|17=EXEC-1776304194237-1003|31=150|32=100|37=20260416-071954-612899|38=100|39=2|40=2|44=150|54=2|55=AAPL|59=0|60=20260416-07:19:54.237|150=F|151=0|527=TRADE-1776304194237-1003|10=071|
> 8=FIX.4.2|9=221|35=8|34=170|49=EXCHANGE|52=20260416-01:49:54.237|56=MINIFIX|6=0|11=496510327|14=0|17=EXEC-1776303563487|31=0|32=0|37=20260416-071954-612900|38=100|39=0|40=2|44=150|54=1|55=AAPL|59=0|60=20260416-07:19:54.237|150=0|151=100|10=235|
> 8=FIX.4.2|9=221|35=8|34=171|49=EXCHANGE|52=20260416-01:49:54.242|56=MINIFIX|6=0|11=496510329|14=0|17=EXEC-1776303563488|31=0|32=0|37=20260416-071954-612901|38=100|39=0|40=2|44=150|54=2|55=AAPL|59=0|60=20260416-07:19:54.242|150=0|151=100|10=233|
> 8=FIX.4.2|9=261|35=8|34=172|49=EXCHANGE|52=20260416-01:49:54.242|56=MINIFIX|6=150|11=496510327|14=100|17=EXEC-1776304194242-1004|31=150|32=100|37=20260416-071954-612900|38=100|39=2|40=2|44=150|54=1|55=AAPL|59=0|60=20260416-07:19:54.242|150=F|151=0|527=TRADE-1776304194242-1004|10=035|
> 8=FIX.4.2|9=261|35=8|34=173|49=EXCHANGE|52=20260416-01:49:54.242|56=MINIFIX|6=150|11=496510329|14=100|17=EXEC-1776304194242-1004|31=150|32=100|37=20260416-071954-612901|38=100|39=2|40=2|44=150|54=2|55=AAPL|59=0|60=20260416-07:19:54.242|150=F|151=0|527=TRADE-1776304194242-1004|10=040|
> 8=FIX.4.2|9=221|35=8|34=174|49=EXCHANGE|52=20260416-01:49:54.242|56=MINIFIX|6=0|11=496510331|14=0|17=EXEC-1776303563491|31=0|32=0|37=20260416-071954-612902|38=100|39=0|40=2|44=150|54=1|55=AAPL|59=0|60=20260416-07:19:54.242|150=0|151=100|10=223|
> 8=FIX.4.2|9=221|35=8|34=175|49=EXCHANGE|52=20260416-01:49:54.248|56=MINIFIX|6=0|11=496510333|14=0|17=EXEC-1776303563492|31=0|32=0|37=20260416-071954-612903|38=100|39=0|40=2|44=150|54=2|55=AAPL|59=0|60=20260416-07:19:54.248|150=0|151=100|10=241|
> 8=FIX.4.2|9=261|35=8|34=176|49=EXCHANGE|52=20260416-01:49:54.249|56=MINIFIX|6=150|11=496510331|14=100|17=EXEC-1776304194248-1005|31=150|32=100|37=20260416-071954-612902|38=100|39=2|40=2|44=150|54=1|55=AAPL|59=0|60=20260416-07:19:54.249|150=F|151=0|527=TRADE-1776304194248-1005|10=064|
> 8=FIX.4.2|9=261|35=8|34=177|49=EXCHANGE|52=20260416-01:49:54.249|56=MINIFIX|6=150|11=496510333|14=100|17=EXEC-1776304194248-1005|31=150|32=100|37=20260416-071954-612903|38=100|39=2|40=2|44=150|54=2|55=AAPL|59=0|60=20260416-07:19:54.249|150=F|151=0|527=TRADE-1776304194248-1005|10=069|
> 8=FIX.4.2|9=221|35=8|34=178|49=EXCHANGE|52=20260416-01:49:54.249|56=MINIFIX|6=0|11=496510335|14=0|17=EXEC-1776303563495|31=0|32=0|37=20260416-071954-612904|38=100|39=0|40=2|44=150|54=1|55=AAPL|59=0|60=20260416-07:19:54.249|150=0|151=100|10=251|
> 8=FIX.4.2|9=221|35=8|34=179|49=EXCHANGE|52=20260416-01:49:54.249|56=MINIFIX|6=0|11=496510337|14=0|17=EXEC-1776303563496|31=0|32=0|37=20260416-071954-612905|38=100|39=0|40=2|44=150|54=2|55=AAPL|59=0|60=20260416-07:19:54.249|150=0|151=100|10=001|
> 8=FIX.4.2|9=261|35=8|34=180|49=EXCHANGE|52=20260416-01:49:54.254|56=MINIFIX|6=150|11=496510335|14=100|17=EXEC-1776304194249-1006|31=150|32=100|37=20260416-071954-612904|38=100|39=2|40=2|44=150|54=1|55=AAPL|59=0|60=20260416-07:19:54.254|150=F|151=0|527=TRADE-1776304194249-1006|10=061|
> 8=FIX.4.2|9=261|35=8|34=181|49=EXCHANGE|52=20260416-01:49:54.254|56=MINIFIX|6=150|11=496510337|14=100|17=EXEC-1776304194249-1006|31=150|32=100|37=20260416-071954-612905|38=100|39=2|40=2|44=150|54=2|55=AAPL|59=0|60=20260416-07:19:54.254|150=F|151=0|527=TRADE-1776304194249-1006|10=066|
> 8=FIX.4.2|9=221|35=8|34=182|49=EXCHANGE|52=20260416-01:49:54.256|56=MINIFIX|6=0|11=496510339|14=0|17=EXEC-1776303563499|31=0|32=0|37=20260416-071954-612906|38=100|39=0|40=2|44=150|54=1|55=AAPL|59=0|60=20260416-07:19:54.256|150=0|151=100|10=252|
> 8=FIX.4.2|9=221|35=8|34=183|49=EXCHANGE|52=20260416-01:49:54.256|56=MINIFIX|6=0|11=496510341|14=0|17=EXEC-1776303563500|31=0|32=0|37=20260416-071954-612907|38=100|39=0|40=2|44=150|54=2|55=AAPL|59=0|60=20260416-07:19:54.256|150=0|151=100|10=231|
> 8=FIX.4.2|9=261|35=8|34=184|49=EXCHANGE|52=20260416-01:49:54.256|56=MINIFIX|6=150|11=496510339|14=100|17=EXEC-1776304194256-1007|31=150|32=100|37=20260416-071954-612906|38=100|39=2|40=2|44=150|54=1|55=AAPL|59=0|60=20260416-07:19:54.256|150=F|151=0|527=TRADE-1776304194256-1007|10=073|
> 8=FIX.4.2|9=261|35=8|34=185|49=EXCHANGE|52=20260416-01:49:54.256|56=MINIFIX|6=150|11=496510341|14=100|17=EXEC-1776304194256-1007|31=150|32=100|37=20260416-071954-612907|38=100|39=2|40=2|44=150|54=2|55=AAPL|59=0|60=20260416-07:19:54.256|150=F|151=0|527=TRADE-1776304194256-1007|10=069|
> 8=FIX.4.2|9=221|35=8|34=186|49=EXCHANGE|52=20260416-01:49:54.260|56=MINIFIX|6=0|11=496510343|14=0|17=EXEC-1776303563503|31=0|32=0|37=20260416-071954-612908|38=100|39=0|40=2|44=150|54=1|55=AAPL|59=0|60=20260416-07:19:54.260|150=0|151=100|10=229|
> 8=FIX.4.2|9=221|35=8|34=187|49=EXCHANGE|52=20260416-01:49:54.262|56=MINIFIX|6=0|11=496510345|14=0|17=EXEC-1776303563504|31=0|32=0|37=20260416-071954-612909|38=100|39=0|40=2|44=150|54=2|55=AAPL|59=0|60=20260416-07:19:54.262|150=0|151=100|10=239|
> 8=FIX.4.2|9=261|35=8|34=188|49=EXCHANGE|52=20260416-01:49:54.262|56=MINIFIX|6=150|11=496510343|14=100|17=EXEC-1776304194262-1008|31=150|32=100|37=20260416-071954-612908|38=100|39=2|40=2|44=150|54=1|55=AAPL|59=0|60=20260416-07:19:54.262|150=F|151=0|527=TRADE-1776304194262-1008|10=064|
> 8=FIX.4.2|9=261|35=8|34=189|49=EXCHANGE|52=20260416-01:49:54.262|56=MINIFIX|6=150|11=496510345|14=100|17=EXEC-1776304194262-1008|31=150|32=100|37=20260416-071954-612909|38=100|39=2|40=2|44=150|54=2|55=AAPL|59=0|60=20260416-07:19:54.262|150=F|151=0|527=TRADE-1776304194262-1008|10=069|
> 8=FIX.4.2|9=221|35=8|34=190|49=EXCHANGE|52=20260416-01:49:54.262|56=MINIFIX|6=0|11=496510347|14=0|17=EXEC-1776303563507|31=0|32=0|37=20260416-071954-612910|38=100|39=0|40=2|44=150|54=1|55=AAPL|59=0|60=20260416-07:19:54.262|150=0|151=100|10=229|
> 8=FIX.4.2|9=221|35=8|34=191|49=EXCHANGE|52=20260416-01:49:54.266|56=MINIFIX|6=0|11=496510349|14=0|17=EXEC-1776303563508|31=0|32=0|37=20260416-071954-612911|38=100|39=0|40=2|44=150|54=2|55=AAPL|59=0|60=20260416-07:19:54.266|150=0|151=100|10=243|
> 8=FIX.4.2|9=261|35=8|34=192|49=EXCHANGE|52=20260416-01:49:54.268|56=MINIFIX|6=150|11=496510347|14=100|17=EXEC-1776304194266-1009|31=150|32=100|37=20260416-071954-612910|38=100|39=2|40=2|44=150|54=1|55=AAPL|59=0|60=20260416-07:19:54.268|150=F|151=0|527=TRADE-1776304194266-1009|10=078|
> 8=FIX.4.2|9=261|35=8|34=193|49=EXCHANGE|52=20260416-01:49:54.268|56=MINIFIX|6=150|11=496510349|14=100|17=EXEC-1776304194266-1009|31=150|32=100|37=20260416-071954-612911|38=100|39=2|40=2|44=150|54=2|55=AAPL|59=0|60=20260416-07:19:54.268|150=F|151=0|527=TRADE-1776304194266-1009|10=083|
> 8=FIX.4.2|9=221|35=8|34=194|49=EXCHANGE|52=20260416-01:49:54.268|56=MINIFIX|6=0|11=496510351|14=0|17=EXEC-1776303563511|31=0|32=0|37=20260416-071954-612912|38=100|39=0|40=2|44=150|54=1|55=AAPL|59=0|60=20260416-07:19:54.268|150=0|151=100|10=237|
> 8=FIX.4.2|9=221|35=8|34=195|49=EXCHANGE|52=20260416-01:49:54.268|56=MINIFIX|6=0|11=496510353|14=0|17=EXEC-1776303563512|31=0|32=0|37=20260416-071954-612913|38=100|39=0|40=2|44=150|54=2|55=AAPL|59=0|60=20260416-07:19:54.268|150=0|151=100|10=243|
> 8=FIX.4.2|9=261|35=8|34=196|49=EXCHANGE|52=20260416-01:49:54.272|56=MINIFIX|6=150|11=496510351|14=100|17=EXEC-1776304194268-1010|31=150|32=100|37=20260416-071954-612912|38=100|39=2|40=2|44=150|54=1|55=AAPL|59=0|60=20260416-07:19:54.272|150=F|151=0|527=TRADE-1776304194268-1010|10=057|
> 8=FIX.4.2|9=261|35=8|34=197|49=EXCHANGE|52=20260416-01:49:54.272|56=MINIFIX|6=150|11=496510353|14=100|17=EXEC-1776304194268-1010|31=150|32=100|37=20260416-071954-612913|38=100|39=2|40=2|44=150|54=2|55=AAPL|59=0|60=20260416-07:19:54.272|150=F|151=0|527=TRADE-1776304194268-1010|10=062|
> 8=FIX.4.2|9=221|35=8|34=198|49=EXCHANGE|52=20260416-01:49:54.274|56=MINIFIX|6=0|11=496510355|14=0|17=EXEC-1776303563515|31=0|32=0|37=20260416-071954-612914|38=100|39=0|40=2|44=150|54=1|55=AAPL|59=0|60=20260416-07:19:54.274|150=0|151=100|10=245|
> 8=FIX.4.2|9=221|35=8|34=199|49=EXCHANGE|52=20260416-01:49:54.274|56=MINIFIX|6=0|11=496510357|14=0|17=EXEC-1776303563516|31=0|32=0|37=20260416-071954-612915|38=100|39=0|40=2|44=150|54=2|55=AAPL|59=0|60=20260416-07:19:54.274|150=0|151=100|10=251|
> 8=FIX.4.2|9=261|35=8|34=200|49=EXCHANGE|52=20260416-01:49:54.276|56=MINIFIX|6=150|11=496510355|14=100|17=EXEC-1776304194274-1011|31=150|32=100|37=20260416-071954-612914|38=100|39=2|40=2|44=150|54=1|55=AAPL|59=0|60=20260416-07:19:54.276|150=F|151=0|527=TRADE-1776304194274-1011|10=053|
> 8=FIX.4.2|9=261|35=8|34=201|49=EXCHANGE|52=20260416-01:49:54.276|56=MINIFIX|6=150|11=496510357|14=100|17=EXEC-1776304194274-1011|31=150|32=100|37=20260416-071954-612915|38=100|39=2|40=2|44=150|54=2|55=AAPL|59=0|60=20260416-07:19:54.276|150=F|151=0|527=TRADE-1776304194274-1011|10=058|
> 8=FIX.4.2|9=221|35=8|34=202|49=EXCHANGE|52=20260416-01:49:54.278|56=MINIFIX|6=0|11=496510359|14=0|17=EXEC-1776303563519|31=0|32=0|37=20260416-071954-612916|38=100|39=0|40=2|44=150|54=1|55=AAPL|59=0|60=20260416-07:19:54.278|150=0|151=100|10=249|
> 8=FIX.4.2|9=221|35=8|34=203|49=EXCHANGE|52=20260416-01:49:54.278|56=MINIFIX|6=0|11=496510361|14=0|17=EXEC-1776303563520|31=0|32=0|37=20260416-071954-612917|38=100|39=0|40=2|44=150|54=2|55=AAPL|59=0|60=20260416-07:19:54.278|150=0|151=100|10=237|
> 8=FIX.4.2|9=261|35=8|34=204|49=EXCHANGE|52=20260416-01:49:54.280|56=MINIFIX|6=150|11=496510359|14=100|17=EXEC-1776304194280-1012|31=150|32=100|37=20260416-071954-612916|38=100|39=2|40=2|44=150|54=1|55=AAPL|59=0|60=20260416-07:19:54.280|150=F|151=0|527=TRADE-1776304194280-1012|10=049|
> 8=FIX.4.2|9=261|35=8|34=205|49=EXCHANGE|52=20260416-01:49:54.280|56=MINIFIX|6=150|11=496510361|14=100|17=EXEC-1776304194280-1012|31=150|32=100|37=20260416-071954-612917|38=100|39=2|40=2|44=150|54=2|55=AAPL|59=0|60=20260416-07:19:54.280|150=F|151=0|527=TRADE-1776304194280-1012|10=045|
> 8=FIX.4.2|9=221|35=8|34=206|49=EXCHANGE|52=20260416-01:49:54.280|56=MINIFIX|6=0|11=496510363|14=0|17=EXEC-1776303563523|31=0|32=0|37=20260416-071954-612918|38=100|39=0|40=2|44=150|54=1|55=AAPL|59=0|60=20260416-07:19:54.280|150=0|151=100|10=231|
> 8=FIX.4.2|9=221|35=8|34=207|49=EXCHANGE|52=20260416-01:49:54.285|56=MINIFIX|6=0|11=496510365|14=0|17=EXEC-1776303563524|31=0|32=0|37=20260416-071954-612919|38=100|39=0|40=2|44=150|54=2|55=AAPL|59=0|60=20260416-07:19:54.285|150=0|151=100|10=247|
> 8=FIX.4.2|9=261|35=8|34=208|49=EXCHANGE|52=20260416-01:49:54.286|56=MINIFIX|6=150|11=496510363|14=100|17=EXEC-1776304194285-1013|31=150|32=100|37=20260416-071954-612918|38=100|39=2|40=2|44=150|54=1|55=AAPL|59=0|60=20260416-07:19:54.286|150=F|151=0|527=TRADE-1776304194285-1013|10=074|
> 8=FIX.4.2|9=261|35=8|34=209|49=EXCHANGE|52=20260416-01:49:54.286|56=MINIFIX|6=150|11=496510365|14=100|17=EXEC-1776304194285-1013|31=150|32=100|37=20260416-071954-612919|38=100|39=2|40=2|44=150|54=2|55=AAPL|59=0|60=20260416-07:19:54.286|150=F|151=0|527=TRADE-1776304194285-1013|10=079|
> 8=FIX.4.2|9=221|35=8|34=210|49=EXCHANGE|52=20260416-01:49:54.286|56=MINIFIX|6=0|11=496510367|14=0|17=EXEC-1776303563527|31=0|32=0|37=20260416-071954-612920|38=100|39=0|40=2|44=150|54=1|55=AAPL|59=0|60=20260416-07:19:54.286|150=0|151=100|10=239|
> 8=FIX.4.2|9=221|35=8|34=211|49=EXCHANGE|52=20260416-01:49:54.289|56=MINIFIX|6=0|11=496510369|14=0|17=EXEC-1776303563528|31=0|32=0|37=20260416-071954-612921|38=100|39=0|40=2|44=150|54=2|55=AAPL|59=0|60=20260416-07:19:54.289|150=0|151=100|10=251|
> 8=FIX.4.2|9=261|35=8|34=212|49=EXCHANGE|52=20260416-01:49:54.291|56=MINIFIX|6=150|11=496510367|14=100|17=EXEC-1776304194289-1014|31=150|32=100|37=20260416-071954-612920|38=100|39=2|40=2|44=150|54=1|55=AAPL|59=0|60=20260416-07:19:54.291|150=F|151=0|527=TRADE-1776304194289-1014|10=068|
> 8=FIX.4.2|9=261|35=8|34=213|49=EXCHANGE|52=20260416-01:49:54.291|56=MINIFIX|6=150|11=496510369|14=100|17=EXEC-1776304194289-1014|31=150|32=100|37=20260416-071954-612921|38=100|39=2|40=2|44=150|54=2|55=AAPL|59=0|60=20260416-07:19:54.291|150=F|151=0|527=TRADE-1776304194289-1014|10=073|
> 8=FIX.4.2|9=221|35=8|34=214|49=EXCHANGE|52=20260416-01:49:54.291|56=MINIFIX|6=0|11=496510371|14=0|17=EXEC-1776303563531|31=0|32=0|37=20260416-071954-612922|38=100|39=0|40=2|44=150|54=1|55=AAPL|59=0|60=20260416-07:19:54.291|150=0|151=100|10=227|
> 8=FIX.4.2|9=221|35=8|34=215|49=EXCHANGE|52=20260416-01:49:54.291|56=MINIFIX|6=0|11=496510373|14=0|17=EXEC-1776303563532|31=0|32=0|37=20260416-071954-612923|38=100|39=0|40=2|44=150|54=2|55=AAPL|59=0|60=20260416-07:19:54.291|150=0|151=100|10=233|
> 8=FIX.4.2|9=261|35=8|34=216|49=EXCHANGE|52=20260416-01:49:54.295|56=MINIFIX|6=150|11=496510371|14=100|17=EXEC-1776304194291-1015|31=150|32=100|37=20260416-071954-612922|38=100|39=2|40=2|44=150|54=1|55=AAPL|59=0|60=20260416-07:19:54.295|150=F|151=0|527=TRADE-1776304194291-1015|10=065|
> 8=FIX.4.2|9=261|35=8|34=217|49=EXCHANGE|52=20260416-01:49:54.295|56=MINIFIX|6=150|11=496510373|14=100|17=EXEC-1776304194291-1015|31=150|32=100|37=20260416-071954-612923|38=100|39=2|40=2|44=150|54=2|55=AAPL|59=0|60=20260416-07:19:54.295|150=F|151=0|527=TRADE-1776304194291-1015|10=070|
> 8=FIX.4.2|9=221|35=8|34=218|49=EXCHANGE|52=20260416-01:49:54.297|56=MINIFIX|6=0|11=496510375|14=0|17=EXEC-1776303563535|31=0|32=0|37=20260416-071954-612924|38=100|39=0|40=2|44=150|54=1|55=AAPL|59=0|60=20260416-07:19:54.297|150=0|151=100|10=253|
> 8=FIX.4.2|9=221|35=8|34=219|49=EXCHANGE|52=20260416-01:49:54.298|56=MINIFIX|6=0|11=496510377|14=0|17=EXEC-1776303563536|31=0|32=0|37=20260416-071954-612925|38=100|39=0|40=2|44=150|54=2|55=AAPL|59=0|60=20260416-07:19:54.298|150=0|151=100|10=005|
> 8=FIX.4.2|9=261|35=8|34=220|49=EXCHANGE|52=20260416-01:49:54.300|56=MINIFIX|6=150|11=496510375|14=100|17=EXEC-1776304194298-1016|31=150|32=100|37=20260416-071954-612924|38=100|39=2|40=2|44=150|54=1|55=AAPL|59=0|60=20260416-07:19:54.300|150=F|151=0|527=TRADE-1776304194298-1016|10=056|
> 8=FIX.4.2|9=261|35=8|34=221|49=EXCHANGE|52=20260416-01:49:54.300|56=MINIFIX|6=150|11=496510377|14=100|17=EXEC-1776304194298-1016|31=150|32=100|37=20260416-071954-612925|38=100|39=2|40=2|44=150|54=2|55=AAPL|59=0|60=20260416-07:19:54.300|150=F|151=0|527=TRADE-1776304194298-1016|10=061|
> 8=FIX.4.2|9=221|35=8|34=222|49=EXCHANGE|52=20260416-01:49:54.302|56=MINIFIX|6=0|11=496510379|14=0|17=EXEC-1776303563539|31=0|32=0|37=20260416-071954-612926|38=100|39=0|40=2|44=150|54=1|55=AAPL|59=0|60=20260416-07:19:54.302|150=0|151=100|10=232|
> 8=FIX.4.2|9=221|35=8|34=223|49=EXCHANGE|52=20260416-01:49:54.303|56=MINIFIX|6=0|11=496510381|14=0|17=EXEC-1776303563540|31=0|32=0|37=20260416-071954-612927|38=100|39=0|40=2|44=150|54=2|55=AAPL|59=0|60=20260416-07:19:54.303|150=0|151=100|10=222|
> 8=FIX.4.2|9=261|35=8|34=224|49=EXCHANGE|52=20260416-01:49:54.303|56=MINIFIX|6=150|11=496510379|14=100|17=EXEC-1776304194303-1017|31=150|32=100|37=20260416-071954-612926|38=100|39=2|40=2|44=150|54=1|55=AAPL|59=0|60=20260416-07:19:54.303|150=F|151=0|527=TRADE-1776304194303-1017|10=048|
> 8=FIX.4.2|9=261|35=8|34=225|49=EXCHANGE|52=20260416-01:49:54.303|56=MINIFIX|6=150|11=496510381|14=100|17=EXEC-1776304194303-1017|31=150|32=100|37=20260416-071954-612927|38=100|39=2|40=2|44=150|54=2|55=AAPL|59=0|60=20260416-07:19:54.303|150=F|151=0|527=TRADE-1776304194303-1017|10=044|
> 8=FIX.4.2|9=221|35=8|34=226|49=EXCHANGE|52=20260416-01:49:54.303|56=MINIFIX|6=0|11=496510383|14=0|17=EXEC-1776303563543|31=0|32=0|37=20260416-071954-612928|38=100|39=0|40=2|44=150|54=1|55=AAPL|59=0|60=20260416-07:19:54.303|150=0|151=100|10=230|
> 8=FIX.4.2|9=221|35=8|34=227|49=EXCHANGE|52=20260416-01:49:54.303|56=MINIFIX|6=0|11=496510385|14=0|17=EXEC-1776303563544|31=0|32=0|37=20260416-071954-612929|38=100|39=0|40=2|44=150|54=2|55=AAPL|59=0|60=20260416-07:19:54.303|150=0|151=100|10=236|
> 8=FIX.4.2|9=261|35=8|34=228|49=EXCHANGE|52=20260416-01:49:54.309|56=MINIFIX|6=150|11=496510383|14=100|17=EXEC-1776304194303-1018|31=150|32=100|37=20260416-071954-612928|38=100|39=2|40=2|44=150|54=1|55=AAPL|59=0|60=20260416-07:19:54.309|150=F|151=0|527=TRADE-1776304194303-1018|10=063|
> 8=FIX.4.2|9=261|35=8|34=229|49=EXCHANGE|52=20260416-01:49:54.309|56=MINIFIX|6=150|11=496510385|14=100|17=EXEC-1776304194303-1018|31=150|32=100|37=20260416-071954-612929|38=100|39=2|40=2|44=150|54=2|55=AAPL|59=0|60=20260416-07:19:54.309|150=F|151=0|527=TRADE-1776304194303-1018|10=068|
> 8=FIX.4.2|9=221|35=8|34=230|49=EXCHANGE|52=20260416-01:49:54.311|56=MINIFIX|6=0|11=496510387|14=0|17=EXEC-1776303563547|31=0|32=0|37=20260416-071954-612930|38=100|39=0|40=2|44=150|54=1|55=AAPL|59=0|60=20260416-07:19:54.311|150=0|151=100|10=224|
> 8=FIX.4.2|9=221|35=8|34=231|49=EXCHANGE|52=20260416-01:49:54.311|56=MINIFIX|6=0|11=496510389|14=0|17=EXEC-1776303563548|31=0|32=0|37=20260416-071954-612931|38=100|39=0|40=2|44=150|54=2|55=AAPL|59=0|60=20260416-07:19:54.311|150=0|151=100|10=230|
> 8=FIX.4.2|9=261|35=8|34=232|49=EXCHANGE|52=20260416-01:49:54.311|56=MINIFIX|6=150|11=496510387|14=100|17=EXEC-1776304194311-1019|31=150|32=100|37=20260416-071954-612930|38=100|39=2|40=2|44=150|54=1|55=AAPL|59=0|60=20260416-07:19:54.311|150=F|151=0|527=TRADE-1776304194311-1019|10=041|
> 8=FIX.4.2|9=261|35=8|34=233|49=EXCHANGE|52=20260416-01:49:54.314|56=MINIFIX|6=150|11=496510389|14=100|17=EXEC-1776304194311-1019|31=150|32=100|37=20260416-071954-612931|38=100|39=2|40=2|44=150|54=2|55=AAPL|59=0|60=20260416-07:19:54.314|150=F|151=0|527=TRADE-1776304194311-1019|10=052|
> 8=FIX.4.2|9=221|35=8|34=234|49=EXCHANGE|52=20260416-01:49:54.315|56=MINIFIX|6=0|11=496510391|14=0|17=EXEC-1776303563551|31=0|32=0|37=20260416-071954-612932|38=100|39=0|40=2|44=150|54=1|55=AAPL|59=0|60=20260416-07:19:54.315|150=0|151=100|10=228|
> 8=FIX.4.2|9=221|35=8|34=235|49=EXCHANGE|52=20260416-01:49:54.318|56=MINIFIX|6=0|11=496510393|14=0|17=EXEC-1776303563552|31=0|32=0|37=20260416-071954-612933|38=100|39=0|40=2|44=150|54=2|55=AAPL|59=0|60=20260416-07:19:54.318|150=0|151=100|10=240|
> 8=FIX.4.2|9=261|35=8|34=236|49=EXCHANGE|52=20260416-01:49:54.318|56=MINIFIX|6=150|11=496510391|14=100|17=EXEC-1776304194318-1020|31=150|32=100|37=20260416-071954-612932|38=100|39=2|40=2|44=150|54=1|55=AAPL|59=0|60=20260416-07:19:54.318|150=F|151=0|527=TRADE-1776304194318-1020|10=054|
> 8=FIX.4.2|9=261|35=8|34=237|49=EXCHANGE|52=20260416-01:49:54.318|56=MINIFIX|6=150|11=496510393|14=100|17=EXEC-1776304194318-1020|31=150|32=100|37=20260416-071954-612933|38=100|39=2|40=2|44=150|54=2|55=AAPL|59=0|60=20260416-07:19:54.318|150=F|151=0|527=TRADE-1776304194318-1020|10=059|
> 8=FIX.4.2|9=221|35=8|34=238|49=EXCHANGE|52=20260416-01:49:54.320|56=MINIFIX|6=0|11=496510395|14=0|17=EXEC-1776303563555|31=0|32=0|37=20260416-071954-612934|38=100|39=0|40=2|44=150|54=1|55=AAPL|59=0|60=20260416-07:19:54.320|150=0|151=100|10=234|
> 8=FIX.4.2|9=221|35=8|34=239|49=EXCHANGE|52=20260416-01:49:54.321|56=MINIFIX|6=0|11=496510397|14=0|17=EXEC-1776303563556|31=0|32=0|37=20260416-071954-612935|38=100|39=0|40=2|44=150|54=2|55=AAPL|59=0|60=20260416-07:19:54.321|150=0|151=100|10=242|
> 8=FIX.4.2|9=261|35=8|34=240|49=EXCHANGE|52=20260416-01:49:54.321|56=MINIFIX|6=150|11=496510395|14=100|17=EXEC-1776304194321-1021|31=150|32=100|37=20260416-071954-612934|38=100|39=2|40=2|44=150|54=1|55=AAPL|59=0|60=20260416-07:19:54.321|150=F|151=0|527=TRADE-1776304194321-1021|10=033|
> 8=FIX.4.2|9=261|35=8|34=241|49=EXCHANGE|52=20260416-01:49:54.321|56=MINIFIX|6=150|11=496510397|14=100|17=EXEC-1776304194321-1021|31=150|32=100|37=20260416-071954-612935|38=100|39=2|40=2|44=150|54=2|55=AAPL|59=0|60=20260416-07:19:54.321|150=F|151=0|527=TRADE-1776304194321-1021|10=038|
> 8=FIX.4.2|9=221|35=8|34=242|49=EXCHANGE|52=20260416-01:49:54.321|56=MINIFIX|6=0|11=496510399|14=0|17=EXEC-1776303563559|31=0|32=0|37=20260416-071954-612936|38=100|39=0|40=2|44=150|54=1|55=AAPL|59=0|60=20260416-07:19:54.321|150=0|151=100|10=241|
> 8=FIX.4.2|9=221|35=8|34=243|49=EXCHANGE|52=20260416-01:49:54.321|56=MINIFIX|6=0|11=496510401|14=0|17=EXEC-1776303563560|31=0|32=0|37=20260416-071954-612937|38=100|39=0|40=2|44=150|54=2|55=AAPL|59=0|60=20260416-07:19:54.321|150=0|151=100|10=220|
> 8=FIX.4.2|9=261|35=8|34=244|49=EXCHANGE|52=20260416-01:49:54.328|56=MINIFIX|6=150|11=496510399|14=100|17=EXEC-1776304194326-1022|31=150|32=100|37=20260416-071954-612936|38=100|39=2|40=2|44=150|54=1|55=AAPL|59=0|60=20260416-07:19:54.328|150=F|151=0|527=TRADE-1776304194326-1022|10=069|
> 8=FIX.4.2|9=261|35=8|34=245|49=EXCHANGE|52=20260416-01:49:54.329|56=MINIFIX|6=150|11=496510401|14=100|17=EXEC-1776304194326-1022|31=150|32=100|37=20260416-071954-612937|38=100|39=2|40=2|44=150|54=2|55=AAPL|59=0|60=20260416-07:19:54.329|150=F|151=0|527=TRADE-1776304194326-1022|10=058|
> 8=FIX.4.2|9=221|35=8|34=246|49=EXCHANGE|52=20260416-01:49:54.329|56=MINIFIX|6=0|11=496510403|14=0|17=EXEC-1776303563563|31=0|32=0|37=20260416-071954-612938|38=100|39=0|40=2|44=150|54=1|55=AAPL|59=0|60=20260416-07:19:54.329|150=0|151=100|10=244|
> 8=FIX.4.2|9=221|35=8|34=247|49=EXCHANGE|52=20260416-01:49:54.331|56=MINIFIX|6=0|11=496510405|14=0|17=EXEC-1776303563564|31=0|32=0|37=20260416-071954-612939|38=100|39=0|40=2|44=150|54=2|55=AAPL|59=0|60=20260416-07:19:54.331|150=0|151=100|10=236|
> 8=FIX.4.2|9=261|35=8|34=248|49=EXCHANGE|52=20260416-01:49:54.332|56=MINIFIX|6=150|11=496510403|14=100|17=EXEC-1776304194331-1023|31=150|32=100|37=20260416-071954-612938|38=100|39=2|40=2|44=150|54=1|55=AAPL|59=0|60=20260416-07:19:54.332|150=F|151=0|527=TRADE-1776304194331-1023|10=045|
> 8=FIX.4.2|9=261|35=8|34=249|49=EXCHANGE|52=20260416-01:49:54.333|56=MINIFIX|6=150|11=496510405|14=100|17=EXEC-1776304194331-1023|31=150|32=100|37=20260416-071954-612939|38=100|39=2|40=2|44=150|54=2|55=AAPL|59=0|60=20260416-07:19:54.333|150=F|151=0|527=TRADE-1776304194331-1023|10=052|
