: Adding FIX 4.0 protocol
: Adding FIX 4.1 protocol
: Adding FIX 4.2 protocol
: Adding FIX 4.3 protocol
: Adding FIX 4.4 protocol
: Bulding FIX 4.4 help
: Pipe (batch/log) interface active at \\.\pipe\minifix
: (C)2009-2013 Björn Ahlqvist, available free of charge from http://elato.se/minifix/
: Welcome to Mini-FIX 1.5.25!
: Pipe interface connected
: Pipe interface disconnected (code 109)
: Pipe interface connected
: Batch Session sequence numbers reset
: SenderCompId set to MINIFIX
: TargetCompId set to EXCHANGE
: Batch Connect 127.0.0.1:9876
: Pipe interface disconnected (code 109)
: Connect to 127.0.0.1, resolving..
: IP address 127.0.0.1 port 9876, connecting..
: Connected to 127.0.0.1:9876 at 20260416-01:49:59 UTC
< 8=FIX.4.2|9=66|35=A|49=MINIFIX|56=EXCHANGE|34=1|52=20260416-01:49:59|98=0|108=30|10=154|
> 8=FIX.4.2|9=70|35=A|34=1|49=EXCHANGE|52=20260416-01:49:59.523|56=MINIFIX|98=0|108=30|10=093|
: <done waiting, message matches>
: T31 START 20260416-01:49:59
< 8=FIX.4.2|9=132|35=D|49=MINIFIX|56=EXCHANGE|34=1|52=20260416-01:49:59|11=1313231412|21=1|55=DIS|54=1|60=20260416-01:49:59|40=2|44=113.5|38=410|59=0|10=023|
< 8=FIX.4.2|9=133|35=D|49=MINIFIX|56=EXCHANGE|34=2|52=20260416-01:49:59|11=1313231414|21=1|55=AAPL|54=2|60=20260416-01:49:59|40=2|44=183.5|38=460|59=0|10=102|
< 8=FIX.4.2|9=129|35=D|49=MINIFIX|56=EXCHANGE|34=3|52=20260416-01:49:59|11=1313231416|21=1|55=BAC|54=1|60=20260416-01:49:59|40=2|44=197|38=70|59=0|10=132|
> 8=FIX.4.2|9=221|35=8|34=2|49=EXCHANGE|52=20260416-01:49:59.551|56=MINIFIX|6=0|11=1313231412|14=0|17=EXEC-1776303563721|31=0|32=0|37=20260416-071959-613017|38=410|39=0|40=2|44=113.5|54=1|55=DIS|59=0|60=20260416-07:19:59.551|150=0|151=410|10=213|
< 8=FIX.4.2|9=130|35=D|49=MINIFIX|56=EXCHANGE|34=4|52=20260416-01:49:59|11=1313231418|21=1|55=DIS|54=2|60=20260416-01:49:59|40=2|44=122|38=460|59=0|10=193|
> 8=FIX.4.2|9=222|35=8|34=3|49=EXCHANGE|52=20260416-01:49:59.553|56=MINIFIX|6=0|11=1313231414|14=0|17=EXEC-1776303563722|31=0|32=0|37=20260416-071959-613018|38=460|39=0|40=2|44=183.5|54=2|55=AAPL|59=0|60=20260416-07:19:59.553|150=0|151=460|10=047|
< 8=FIX.4.2|9=134|35=D|49=MINIFIX|56=EXCHANGE|34=5|52=20260416-01:49:59|11=1313231420|21=1|55=AAPL|54=1|60=20260416-01:49:59|40=2|44=130.75|38=320|59=0|10=144|
> 8=FIX.4.2|9=217|35=8|34=4|49=EXCHANGE|52=20260416-01:49:59.554|56=MINIFIX|6=0|11=1313231416|14=0|17=EXEC-1776303563723|31=0|32=0|37=20260416-071959-613019|38=70|39=0|40=2|44=197|54=1|55=BAC|59=0|60=20260416-07:19:59.554|150=0|151=70|10=029|
< 8=FIX.4.2|9=132|35=D|49=MINIFIX|56=EXCHANGE|34=6|52=20260416-01:49:59|11=1313231422|21=1|55=BAC|54=2|60=20260416-01:49:59|40=2|44=154.75|38=50|59=0|10=016|
< 8=FIX.4.2|9=133|35=D|49=MINIFIX|56=EXCHANGE|34=7|52=20260416-01:49:59|11=1313231424|21=1|55=BAC|54=1|60=20260416-01:49:59|40=2|44=118.75|38=140|59=0|10=067|
> 8=FIX.4.2|9=219|35=8|34=5|49=EXCHANGE|52=20260416-01:49:59.555|56=MINIFIX|6=0|11=1313231418|14=0|17=EXEC-1776303563724|31=0|32=0|37=20260416-071959-613020|38=460|39=0|40=2|44=122|54=2|55=DIS|59=0|60=20260416-07:19:59.555|150=0|151=460|10=146|
< 8=FIX.4.2|9=133|35=D|49=MINIFIX|56=EXCHANGE|34=8|52=20260416-01:49:59|11=1313231426|21=1|55=MSFT|54=2|60=20260416-01:49:59|40=2|44=199.5|38=280|59=0|10=146|
> 8=FIX.4.2|9=223|35=8|34=6|49=EXCHANGE|52=20260416-01:49:59.558|56=MINIFIX|6=0|11=1313231420|14=0|17=EXEC-1776303563725|31=0|32=0|37=20260416-071959-613021|38=320|39=0|40=2|44=130.75|54=1|55=AAPL|59=0|60=20260416-07:19:59.558|150=0|151=320|10=091|
< 8=FIX.4.2|9=132|35=D|49=MINIFIX|56=EXCHANGE|34=9|52=20260416-01:49:59|11=1313231428|21=1|55=MA|54=1|60=20260416-01:49:59|40=2|44=199.75|38=480|59=0|10=032|
> 8=FIX.4.2|9=220|35=8|34=7|49=EXCHANGE|52=20260416-01:49:59.559|56=MINIFIX|6=0|11=1313231422|14=0|17=EXEC-1776303563726|31=0|32=0|37=20260416-071959-613022|38=50|39=0|40=2|44=154.75|54=2|55=BAC|59=0|60=20260416-07:19:59.559|150=0|151=50|10=174|
< 8=FIX.4.2|9=132|35=D|49=MINIFIX|56=EXCHANGE|34=10|52=20260416-01:49:59|11=1313231430|21=1|55=AMZN|54=2|60=20260416-01:49:59|40=2|44=197|38=490|59=0|10=079|
< 8=FIX.4.2|9=134|35=D|49=MINIFIX|56=EXCHANGE|34=11|52=20260416-01:49:59|11=1313231432|21=1|55=AAPL|54=1|60=20260416-01:49:59|40=2|44=172.75|38=80|59=0|10=153|
> 8=FIX.4.2|9=257|35=8|34=8|49=EXCHANGE|52=20260416-01:49:59.560|56=MINIFIX|6=197|11=1313231416|14=50|17=EXEC-1776304199559-1062|31=197|32=50|37=20260416-071959-613019|38=70|39=1|40=2|44=197|54=1|55=BAC|59=0|60=20260416-07:19:59.560|150=F|151=20|527=TRADE-1776304199559-1062|10=161|
> 8=FIX.4.2|9=259|35=8|34=9|49=EXCHANGE|52=20260416-01:49:59.561|56=MINIFIX|6=197|11=1313231422|14=50|17=EXEC-1776304199559-1062|31=197|32=50|37=20260416-071959-613022|38=50|39=2|40=2|44=154.75|54=2|55=BAC|59=0|60=20260416-07:19:59.561|150=F|151=0|527=TRADE-1776304199559-1062|10=254|
< 8=FIX.4.2|9=135|35=D|49=MINIFIX|56=EXCHANGE|34=12|52=20260416-01:49:59|11=1313231434|21=1|55=META|54=2|60=20260416-01:49:59|40=2|44=198.25|38=490|59=0|10=223|
> 8=FIX.4.2|9=223|35=8|34=10|49=EXCHANGE|52=20260416-01:49:59.562|56=MINIFIX|6=0|11=1313231424|14=0|17=EXEC-1776303563729|31=0|32=0|37=20260416-071959-613023|38=140|39=0|40=2|44=118.75|54=1|55=BAC|59=0|60=20260416-07:19:59.562|150=0|151=140|10=052|
< 8=FIX.4.2|9=132|35=D|49=MINIFIX|56=EXCHANGE|34=13|52=20260416-01:49:59|11=1313231436|21=1|55=MSFT|54=1|60=20260416-01:49:59|40=2|44=111|38=480|59=0|10=076|
< 8=FIX.4.2|9=132|35=D|49=MINIFIX|56=EXCHANGE|34=14|52=20260416-01:49:59|11=1313231438|21=1|55=MSFT|54=2|60=20260416-01:49:59|40=2|44=180|38=250|59=0|10=081|
> 8=FIX.4.2|9=223|35=8|34=11|49=EXCHANGE|52=20260416-01:49:59.563|56=MINIFIX|6=0|11=1313231426|14=0|17=EXEC-1776303563730|31=0|32=0|37=20260416-071959-613024|38=280|39=0|40=2|44=199.5|54=2|55=MSFT|59=0|60=20260416-07:19:59.563|150=0|151=280|10=131|
< 8=FIX.4.2|9=135|35=D|49=MINIFIX|56=EXCHANGE|34=15|52=20260416-01:49:59|11=1313231440|21=1|55=META|54=1|60=20260416-01:49:59|40=2|44=129.75|38=410|59=0|10=213|
> 8=FIX.4.2|9=222|35=8|34=12|49=EXCHANGE|52=20260416-01:49:59.565|56=MINIFIX|6=0|11=1313231428|14=0|17=EXEC-1776303563731|31=0|32=0|37=20260416-071959-613025|38=480|39=0|40=2|44=199.75|54=1|55=MA|59=0|60=20260416-07:19:59.565|150=0|151=480|10=025|
< 8=FIX.4.2|9=133|35=D|49=MINIFIX|56=EXCHANGE|34=16|52=20260416-01:49:59|11=1313231442|21=1|55=BAC|54=2|60=20260416-01:49:59|40=2|44=100.25|38=80|59=0|10=057|
< 8=FIX.4.2|9=134|35=D|49=MINIFIX|56=EXCHANGE|34=17|52=20260416-01:49:59|11=1313231444|21=1|55=BAC|54=1|60=20260416-01:49:59|40=2|44=111.25|38=220|59=0|10=106|
> 8=FIX.4.2|9=221|35=8|34=13|49=EXCHANGE|52=20260416-01:49:59.566|56=MINIFIX|6=0|11=1313231430|14=0|17=EXEC-1776303563732|31=0|32=0|37=20260416-071959-613026|38=490|39=0|40=2|44=197|54=2|55=AMZN|59=0|60=20260416-07:19:59.566|150=0|151=490|10=037|
< 8=FIX.4.2|9=131|35=D|49=MINIFIX|56=EXCHANGE|34=18|52=20260416-01:49:59|11=1313231446|21=1|55=BAC|54=2|60=20260416-01:49:59|40=2|44=164|38=460|59=0|10=228|
> 8=FIX.4.2|9=222|35=8|34=14|49=EXCHANGE|52=20260416-01:49:59.567|56=MINIFIX|6=0|11=1313231432|14=0|17=EXEC-1776303563733|31=0|32=0|37=20260416-071959-613027|38=80|39=0|40=2|44=172.75|54=1|55=AAPL|59=0|60=20260416-07:19:59.567|150=0|151=80|10=061|
< 8=FIX.4.2|9=131|35=D|49=MINIFIX|56=EXCHANGE|34=19|52=20260416-01:49:59|11=1313231448|21=1|55=BAC|54=1|60=20260416-01:49:59|40=2|44=188|38=400|59=0|10=230|
> 8=FIX.4.2|9=224|35=8|34=15|49=EXCHANGE|52=20260416-01:49:59.567|56=MINIFIX|6=0|11=1313231434|14=0|17=EXEC-1776303563734|31=0|32=0|37=20260416-071959-613028|38=490|39=0|40=2|44=198.25|54=2|55=META|59=0|60=20260416-07:19:59.567|150=0|151=490|10=187|
< 8=FIX.4.2|9=134|35=D|49=MINIFIX|56=EXCHANGE|34=20|52=20260416-01:49:59|11=1313231450|21=1|55=BAC|54=2|60=20260416-01:49:59|40=2|44=150.25|38=480|59=0|10=109|
> 8=FIX.4.2|9=221|35=8|34=16|49=EXCHANGE|52=20260416-01:49:59.568|56=MINIFIX|6=0|11=1313231436|14=0|17=EXEC-1776303563735|31=0|32=0|37=20260416-071959-613029|38=480|39=0|40=2|44=111|54=1|55=MSFT|59=0|60=20260416-07:19:59.568|150=0|151=480|10=043|
< 8=FIX.4.2|9=135|35=D|49=MINIFIX|56=EXCHANGE|34=21|52=20260416-01:49:59|11=1313231452|21=1|55=MSFT|54=1|60=20260416-01:49:59|40=2|44=179.75|38=330|59=0|10=238|
> 8=FIX.4.2|9=221|35=8|34=17|49=EXCHANGE|52=20260416-01:49:59.571|56=MINIFIX|6=0|11=1313231438|14=0|17=EXEC-1776303563736|31=0|32=0|37=20260416-071959-613030|38=250|39=0|40=2|44=180|54=2|55=MSFT|59=0|60=20260416-07:19:59.571|150=0|151=250|10=024|
< 8=FIX.4.2|9=130|35=D|49=MINIFIX|56=EXCHANGE|34=22|52=20260416-01:49:59|11=1313231454|21=1|55=DIS|54=2|60=20260416-01:49:59|40=2|44=136|38=20|59=0|10=190|
< 8=FIX.4.2|9=131|35=D|49=MINIFIX|56=EXCHANGE|34=23|52=20260416-01:49:59|11=1313231456|21=1|55=BAC|54=1|60=20260416-01:49:59|40=2|44=121|38=430|59=0|10=214|
> 8=FIX.4.2|9=224|35=8|34=18|49=EXCHANGE|52=20260416-01:49:59.572|56=MINIFIX|6=0|11=1313231440|14=0|17=EXEC-1776303563737|31=0|32=0|37=20260416-071959-613031|38=410|39=0|40=2|44=129.75|54=1|55=META|59=0|60=20260416-07:19:59.572|150=0|151=410|10=158|
< 8=FIX.4.2|9=134|35=D|49=MINIFIX|56=EXCHANGE|34=24|52=20260416-01:49:59|11=1313231458|21=1|55=BAC|54=2|60=20260416-01:49:59|40=2|44=168.25|38=470|59=0|10=129|
> 8=FIX.4.2|9=221|35=8|34=19|49=EXCHANGE|52=20260416-01:49:59.573|56=MINIFIX|6=0|11=1313231442|14=0|17=EXEC-1776303563738|31=0|32=0|37=20260416-071959-613032|38=80|39=0|40=2|44=100.25|54=2|55=BAC|59=0|60=20260416-07:19:59.573|150=0|151=80|10=216|
< 8=FIX.4.2|9=134|35=D|49=MINIFIX|56=EXCHANGE|34=25|52=20260416-01:49:59|11=1313231460|21=1|55=BAC|54=1|60=20260416-01:49:59|40=2|44=139.75|38=340|59=0|10=121|
> 8=FIX.4.2|9=257|35=8|34=20|49=EXCHANGE|52=20260416-01:49:59.574|56=MINIFIX|6=197|11=1313231416|14=70|17=EXEC-1776304199573-1063|31=197|32=20|37=20260416-071959-613019|38=70|39=2|40=2|44=197|54=1|55=BAC|59=0|60=20260416-07:19:59.574|150=F|151=0|527=TRADE-1776304199573-1063|10=157|
< 8=FIX.4.2|9=132|35=D|49=MINIFIX|56=EXCHANGE|34=26|52=20260416-01:49:59|11=1313231462|21=1|55=AAPL|54=2|60=20260416-01:49:59|40=2|44=174|38=380|59=0|10=060|
< 8=FIX.4.2|9=134|35=D|49=MINIFIX|56=EXCHANGE|34=27|52=20260416-01:49:59|11=1313231464|21=1|55=META|54=1|60=20260416-01:49:59|40=2|44=147.5|38=380|59=0|10=172|
> 8=FIX.4.2|9=268|35=8|34=21|49=EXCHANGE|52=20260416-01:49:59.575|56=MINIFIX|6=118.75|11=1313231424|14=60|17=EXEC-1776304199573-1064|31=118.75|32=60|37=20260416-071959-613023|38=140|39=1|40=2|44=118.75|54=1|55=BAC|59=0|60=20260416-07:19:59.575|150=F|151=80|527=TRADE-1776304199573-1064|10=191|
> 8=FIX.4.2|9=266|35=8|34=22|49=EXCHANGE|52=20260416-01:49:59.577|56=MINIFIX|6=138.3125|11=1313231442|14=20|17=EXEC-1776304199573-1063|31=197|32=20|37=20260416-071959-613032|38=80|39=1|40=2|44=100.25|54=2|55=BAC|59=0|60=20260416-07:19:59.577|150=F|151=60|527=TRADE-1776304199573-1063|10=074|
> 8=FIX.4.2|9=268|35=8|34=23|49=EXCHANGE|52=20260416-01:49:59.577|56=MINIFIX|6=138.3125|11=1313231442|14=80|17=EXEC-1776304199573-1064|31=118.75|32=60|37=20260416-071959-613032|38=80|39=2|40=2|44=100.25|54=2|55=BAC|59=0|60=20260416-07:19:59.577|150=F|151=0|527=TRADE-1776304199573-1064|10=183|
< 8=FIX.4.2|9=134|35=D|49=MINIFIX|56=EXCHANGE|34=28|52=20260416-01:49:59|11=1313231466|21=1|55=DIS|54=2|60=20260416-01:49:59|40=2|44=142.25|38=200|59=0|10=141|
< 8=FIX.4.2|9=134|35=D|49=MINIFIX|56=EXCHANGE|34=29|52=20260416-01:49:59|11=1313231468|21=1|55=DIS|54=1|60=20260416-01:49:59|40=2|44=117.25|38=330|59=0|10=149|
> 8=FIX.4.2|9=223|35=8|34=24|49=EXCHANGE|52=20260416-01:49:59.578|56=MINIFIX|6=0|11=1313231444|14=0|17=EXEC-1776303563743|31=0|32=0|37=20260416-071959-613033|38=220|39=0|40=2|44=111.25|54=1|55=BAC|59=0|60=20260416-07:19:59.578|150=0|151=220|10=056|
> 8=FIX.4.2|9=220|35=8|34=25|49=EXCHANGE|52=20260416-01:49:59.579|56=MINIFIX|6=0|11=1313231446|14=0|17=EXEC-1776303563744|31=0|32=0|37=20260416-071959-613034|38=460|39=0|40=2|44=164|54=2|55=BAC|59=0|60=20260416-07:19:59.579|150=0|151=460|10=188|
< 8=FIX.4.2|9=134|35=D|49=MINIFIX|56=EXCHANGE|34=30|52=20260416-01:49:59|11=1313231470|21=1|55=AMZN|54=2|60=20260416-01:49:59|40=2|44=130.25|38=90|59=0|10=171|
< 8=FIX.4.2|9=135|35=D|49=MINIFIX|56=EXCHANGE|34=31|52=20260416-01:49:59|11=1313231472|21=1|55=AAPL|54=1|60=20260416-01:49:59|40=2|44=179.75|38=360|59=0|10=216|
> 8=FIX.4.2|9=220|35=8|34=26|49=EXCHANGE|52=20260416-01:49:59.581|56=MINIFIX|6=0|11=1313231448|14=0|17=EXEC-1776303563745|31=0|32=0|37=20260416-071959-613035|38=400|39=0|40=2|44=188|54=1|55=BAC|59=0|60=20260416-07:19:59.581|150=0|151=400|10=172|
< 8=FIX.4.2|9=133|35=D|49=MINIFIX|56=EXCHANGE|34=32|52=20260416-01:49:59|11=1313231474|21=1|55=AAPL|54=2|60=20260416-01:49:59|40=2|44=131.5|38=20|59=0|10=096|
< 8=FIX.4.2|9=135|35=D|49=MINIFIX|56=EXCHANGE|34=33|52=20260416-01:49:59|11=1313231476|21=1|55=AMZN|54=1|60=20260416-01:49:59|40=2|44=187.25|38=140|59=0|10=236|
> 8=FIX.4.2|9=261|35=8|34=27|49=EXCHANGE|52=20260416-01:49:59.583|56=MINIFIX|6=164|11=1313231446|14=400|17=EXEC-1776304199581-1065|31=164|32=400|37=20260416-071959-613034|38=460|39=1|40=2|44=164|54=2|55=BAC|59=0|60=20260416-07:19:59.583|150=F|151=60|527=TRADE-1776304199581-1065|10=087|
> 8=FIX.4.2|9=260|35=8|34=28|49=EXCHANGE|52=20260416-01:49:59.583|56=MINIFIX|6=164|11=1313231448|14=400|17=EXEC-1776304199581-1065|31=164|32=400|37=20260416-071959-613035|38=400|39=2|40=2|44=188|54=1|55=BAC|59=0|60=20260416-07:19:59.583|150=F|151=0|527=TRADE-1776304199581-1065|10=036|
< 8=FIX.4.2|9=134|35=D|49=MINIFIX|56=EXCHANGE|34=34|52=20260416-01:49:59|11=1313231478|21=1|55=AAPL|54=2|60=20260416-01:49:59|40=2|44=114.75|38=30|59=0|10=160|
> 8=FIX.4.2|9=223|35=8|34=29|49=EXCHANGE|52=20260416-01:49:59.584|56=MINIFIX|6=0|11=1313231450|14=0|17=EXEC-1776303563748|31=0|32=0|37=20260416-071959-613036|38=480|39=0|40=2|44=150.25|54=2|55=BAC|59=0|60=20260416-07:19:59.584|150=0|151=480|10=080|
< 8=FIX.4.2|9=132|35=D|49=MINIFIX|56=EXCHANGE|34=35|52=20260416-01:49:59|11=1313231480|21=1|55=BAC|54=1|60=20260416-01:49:59|40=2|44=199.5|38=50|59=0|10=023|
< 8=FIX.4.2|9=133|35=D|49=MINIFIX|56=EXCHANGE|34=36|52=20260416-01:49:59|11=1313231482|21=1|55=MA|54=2|60=20260416-01:49:59|40=2|44=182.25|38=420|59=0|10=063|
> 8=FIX.4.2|9=224|35=8|34=30|49=EXCHANGE|52=20260416-01:49:59.586|56=MINIFIX|6=0|11=1313231452|14=0|17=EXEC-1776303563749|31=0|32=0|37=20260416-071959-613037|38=330|39=0|40=2|44=179.75|54=1|55=MSFT|59=0|60=20260416-07:19:59.586|150=0|151=330|10=200|
< 8=FIX.4.2|9=133|35=D|49=MINIFIX|56=EXCHANGE|34=37|52=20260416-01:49:59|11=1313231484|21=1|55=DIS|54=1|60=20260416-01:49:59|40=2|44=112.5|38=350|59=0|10=092|
> 8=FIX.4.2|9=218|35=8|34=31|49=EXCHANGE|52=20260416-01:49:59.587|56=MINIFIX|6=0|11=1313231454|14=0|17=EXEC-1776303563750|31=0|32=0|37=20260416-071959-613038|38=20|39=0|40=2|44=136|54=2|55=DIS|59=0|60=20260416-07:19:59.587|150=0|151=20|10=103|
< 8=FIX.4.2|9=133|35=D|49=MINIFIX|56=EXCHANGE|34=38|52=20260416-01:49:59|11=1313231486|21=1|55=BAC|54=2|60=20260416-01:49:59|40=2|44=176.5|38=160|59=0|10=079|
> 8=FIX.4.2|9=220|35=8|34=32|49=EXCHANGE|52=20260416-01:49:59.589|56=MINIFIX|6=0|11=1313231456|14=0|17=EXEC-1776303563751|31=0|32=0|37=20260416-071959-613039|38=430|39=0|40=2|44=121|54=1|55=BAC|59=0|60=20260416-07:19:59.589|150=0|151=430|10=178|
< 8=FIX.4.2|9=131|35=D|49=MINIFIX|56=EXCHANGE|34=39|52=20260416-01:49:59|11=1313231488|21=1|55=BAC|54=1|60=20260416-01:49:59|40=2|44=149|38=480|59=0|10=241|
> 8=FIX.4.2|9=223|35=8|34=33|49=EXCHANGE|52=20260416-01:49:59.590|56=MINIFIX|6=0|11=1313231458|14=0|17=EXEC-1776303563752|31=0|32=0|37=20260416-071959-613040|38=470|39=0|40=2|44=168.25|54=2|55=BAC|59=0|60=20260416-07:19:59.590|150=0|151=470|10=074|
< 8=FIX.4.2|9=133|35=D|49=MINIFIX|56=EXCHANGE|34=40|52=20260416-01:49:59|11=1313231490|21=1|55=META|54=2|60=20260416-01:49:59|40=2|44=166.5|38=20|59=0|10=110|
< 8=FIX.4.2|9=132|35=D|49=MINIFIX|56=EXCHANGE|34=41|52=20260416-01:49:59|11=1313231492|21=1|55=MA|54=1|60=20260416-01:49:59|40=2|44=112.5|38=220|59=0|10=255|
> 8=FIX.4.2|9=223|35=8|34=34|49=EXCHANGE|52=20260416-01:49:59.591|56=MINIFIX|6=0|11=1313231460|14=0|17=EXEC-1776303563753|31=0|32=0|37=20260416-071959-613041|38=340|39=0|40=2|44=139.75|54=1|55=BAC|59=0|60=20260416-07:19:59.591|150=0|151=340|10=066|
< 8=FIX.4.2|9=131|35=D|49=MINIFIX|56=EXCHANGE|34=42|52=20260416-01:49:59|11=1313231494|21=1|55=DIS|54=2|60=20260416-01:49:59|40=2|44=121|38=200|59=0|10=239|
< 8=FIX.4.2|9=132|35=D|49=MINIFIX|56=EXCHANGE|34=43|52=20260416-01:49:59|11=1313231496|21=1|55=AAPL|54=1|60=20260416-01:49:59|40=2|44=105|38=390|59=0|10=060|
> 8=FIX.4.2|9=221|35=8|34=35|49=EXCHANGE|52=20260416-01:49:59.594|56=MINIFIX|6=0|11=1313231462|14=0|17=EXEC-1776303563754|31=0|32=0|37=20260416-071959-613042|38=380|39=0|40=2|44=174|54=2|55=AAPL|59=0|60=20260416-07:19:59.594|150=0|151=380|10=017|
< 8=FIX.4.2|9=134|35=D|49=MINIFIX|56=EXCHANGE|34=44|52=20260416-01:49:59|11=1313231498|21=1|55=AMZN|54=2|60=20260416-01:49:59|40=2|44=103.5|38=400|59=0|10=179|
< 8=FIX.4.2|9=134|35=D|49=MINIFIX|56=EXCHANGE|34=45|52=20260416-01:49:59|11=1313231500|21=1|55=DIS|54=1|60=20260416-01:49:59|40=2|44=140.75|38=100|59=0|10=130|
> 8=FIX.4.2|9=223|35=8|34=36|49=EXCHANGE|52=20260416-01:49:59.595|56=MINIFIX|6=0|11=1313231464|14=0|17=EXEC-1776303563755|31=0|32=0|37=20260416-071959-613043|38=380|39=0|40=2|44=147.5|54=1|55=META|59=0|60=20260416-07:19:59.595|150=0|151=380|10=133|
< 8=FIX.4.2|9=135|35=D|49=MINIFIX|56=EXCHANGE|34=46|52=20260416-01:49:59|11=1313231502|21=1|55=MSFT|54=2|60=20260416-01:49:59|40=2|44=145.75|38=250|59=0|10=236|
> 8=FIX.4.2|9=223|35=8|34=37|49=EXCHANGE|52=20260416-01:49:59.597|56=MINIFIX|6=0|11=1313231466|14=0|17=EXEC-1776303563756|31=0|32=0|37=20260416-071959-613044|38=200|39=0|40=2|44=142.25|54=2|55=DIS|59=0|60=20260416-07:19:59.597|150=0|151=200|10=099|
< 8=FIX.4.2|9=134|35=D|49=MINIFIX|56=EXCHANGE|34=47|52=20260416-01:49:59|11=1313231504|21=1|55=BAC|54=1|60=20260416-01:49:59|40=2|44=148.75|38=230|59=0|10=122|
> 8=FIX.4.2|9=223|35=8|34=38|49=EXCHANGE|52=20260416-01:49:59.598|56=MINIFIX|6=0|11=1313231468|14=0|17=EXEC-1776303563757|31=0|32=0|37=20260416-071959-613045|38=330|39=0|40=2|44=117.25|54=1|55=DIS|59=0|60=20260416-07:19:59.598|150=0|151=330|10=115|
< 8=FIX.4.2|9=132|35=D|49=MINIFIX|56=EXCHANGE|34=48|52=20260416-01:49:59|11=1313231506|21=1|55=MA|54=2|60=20260416-01:49:59|40=2|44=179.5|38=330|59=0|10=018|
> 8=FIX.4.2|9=222|35=8|34=39|49=EXCHANGE|52=20260416-01:49:59.600|56=MINIFIX|6=0|11=1313231470|14=0|17=EXEC-1776303563758|31=0|32=0|37=20260416-071959-613046|38=90|39=0|40=2|44=130.25|54=2|55=AMZN|59=0|60=20260416-07:19:59.600|150=0|151=90|10=070|
< 8=FIX.4.2|9=133|35=D|49=MINIFIX|56=EXCHANGE|34=49|52=20260416-01:49:59|11=1313231508|21=1|55=MA|54=1|60=20260416-01:49:59|40=2|44=192.25|38=360|59=0|10=069|
< 8=FIX.4.2|9=135|35=D|49=MINIFIX|56=EXCHANGE|34=50|52=20260416-01:49:59|11=1313231510|21=1|55=AMZN|54=2|60=20260416-01:49:59|40=2|44=180.75|38=380|59=0|10=229|
> 8=FIX.4.2|9=224|35=8|34=40|49=EXCHANGE|52=20260416-01:49:59.601|56=MINIFIX|6=0|11=1313231472|14=0|17=EXEC-1776303563759|31=0|32=0|37=20260416-071959-613047|38=360|39=0|40=2|44=179.75|54=1|55=AAPL|59=0|60=20260416-07:19:59.601|150=0|151=360|10=159|
< 8=FIX.4.2|9=134|35=D|49=MINIFIX|56=EXCHANGE|34=51|52=20260416-01:49:59|11=1313231512|21=1|55=DIS|54=1|60=20260416-01:49:59|40=2|44=170.75|38=140|59=0|10=137|
> 8=FIX.4.2|9=262|35=8|34=41|49=EXCHANGE|52=20260416-01:49:59.602|56=MINIFIX|6=174|11=1313231462|14=360|17=EXEC-1776304199601-1066|31=174|32=360|37=20260416-071959-613042|38=380|39=1|40=2|44=174|54=2|55=AAPL|59=0|60=20260416-07:19:59.602|150=F|151=20|527=TRADE-1776304199601-1066|10=151|
> 8=FIX.4.2|9=264|35=8|34=42|49=EXCHANGE|52=20260416-01:49:59.603|56=MINIFIX|6=174|11=1313231472|14=360|17=EXEC-1776304199601-1066|31=174|32=360|37=20260416-071959-613047|38=360|39=2|40=2|44=179.75|54=1|55=AAPL|59=0|60=20260416-07:19:59.603|150=F|151=0|527=TRADE-1776304199601-1066|10=013|
< 8=FIX.4.2|9=134|35=D|49=MINIFIX|56=EXCHANGE|34=52|52=20260416-01:49:59|11=1313231514|21=1|55=DIS|54=2|60=20260416-01:49:59|40=2|44=100.25|38=340|59=0|10=131|
< 8=FIX.4.2|9=131|35=D|49=MINIFIX|56=EXCHANGE|34=53|52=20260416-01:49:59|11=1313231516|21=1|55=DIS|54=1|60=20260416-01:49:59|40=2|44=171|38=330|59=0|10=244|
> 8=FIX.4.2|9=221|35=8|34=43|49=EXCHANGE|52=20260416-01:49:59.604|56=MINIFIX|6=0|11=1313231474|14=0|17=EXEC-1776303563762|31=0|32=0|37=20260416-071959-613048|38=20|39=0|40=2|44=131.5|54=2|55=AAPL|59=0|60=20260416-07:19:59.604|150=0|151=20|10=242|
< 8=FIX.4.2|9=133|35=D|49=MINIFIX|56=EXCHANGE|34=54|52=20260416-01:49:59|11=1313231518|21=1|55=META|54=2|60=20260416-01:49:59|40=2|44=164.5|38=90|59=0|10=121|
> 8=FIX.4.2|9=268|35=8|34=44|49=EXCHANGE|52=20260416-01:49:59.606|56=MINIFIX|6=172.75|11=1313231432|14=20|17=EXEC-1776304199604-1067|31=172.75|32=20|37=20260416-071959-613027|38=80|39=1|40=2|44=172.75|54=1|55=AAPL|59=0|60=20260416-07:19:59.606|150=F|151=60|527=TRADE-1776304199604-1067|10=218|
< 8=FIX.4.2|9=133|35=D|49=MINIFIX|56=EXCHANGE|34=55|52=20260416-01:49:59|11=1313231520|21=1|55=AMZN|54=1|60=20260416-01:49:59|40=2|44=145.5|38=60|59=0|10=125|
> 8=FIX.4.2|9=266|35=8|34=45|49=EXCHANGE|52=20260416-01:49:59.606|56=MINIFIX|6=172.75|11=1313231474|14=20|17=EXEC-1776304199604-1067|31=172.75|32=20|37=20260416-071959-613048|38=20|39=2|40=2|44=131.5|54=2|55=AAPL|59=0|60=20260416-07:19:59.606|150=F|151=0|527=TRADE-1776304199604-1067|10=108|
< 8=FIX.4.2|9=134|35=D|49=MINIFIX|56=EXCHANGE|34=56|52=20260416-01:49:59|11=1313231522|21=1|55=AMZN|54=2|60=20260416-01:49:59|40=2|44=177.5|38=250|59=0|10=184|
> 8=FIX.4.2|9=224|35=8|34=46|49=EXCHANGE|52=20260416-01:49:59.608|56=MINIFIX|6=0|11=1313231476|14=0|17=EXEC-1776303563765|31=0|32=0|37=20260416-071959-613049|38=140|39=0|40=2|44=187.25|54=1|55=AMZN|59=0|60=20260416-07:19:59.608|150=0|151=140|10=192|
< 8=FIX.4.2|9=132|35=D|49=MINIFIX|56=EXCHANGE|34=57|52=20260416-01:49:59|11=1313231524|21=1|55=MA|54=1|60=20260416-01:49:59|40=2|44=157.5|38=480|59=0|10=019|
> 8=FIX.4.2|9=267|35=8|34=47|49=EXCHANGE|52=20260416-01:49:59.609|56=MINIFIX|6=130.25|11=1313231470|14=90|17=EXEC-1776304199608-1068|31=130.25|32=90|37=20260416-071959-613046|38=90|39=2|40=2|44=130.25|54=2|55=AMZN|59=0|60=20260416-07:19:59.609|150=F|151=0|527=TRADE-1776304199608-1068|10=193|
< 8=FIX.4.2|9=135|35=D|49=MINIFIX|56=EXCHANGE|34=58|52=20260416-01:49:59|11=1313231526|21=1|55=MSFT|54=2|60=20260416-01:49:59|40=2|44=187.75|38=180|59=0|10=253|
> 8=FIX.4.2|9=269|35=8|34=48|49=EXCHANGE|52=20260416-01:49:59.609|56=MINIFIX|6=130.25|11=1313231476|14=90|17=EXEC-1776304199608-1068|31=130.25|32=90|37=20260416-071959-613049|38=140|39=1|40=2|44=187.25|54=1|55=AMZN|59=0|60=20260416-07:19:59.609|150=F|151=50|527=TRADE-1776304199608-1068|10=056|
< 8=FIX.4.2|9=132|35=D|49=MINIFIX|56=EXCHANGE|34=59|52=20260416-01:49:59|11=1313231528|21=1|55=MSFT|54=1|60=20260416-01:49:59|40=2|44=181|38=300|59=0|10=086|
> 8=FIX.4.2|9=222|35=8|34=49|49=EXCHANGE|52=20260416-01:49:59.610|56=MINIFIX|6=0|11=1313231478|14=0|17=EXEC-1776303563768|31=0|32=0|37=20260416-071959-613050|38=30|39=0|40=2|44=114.75|54=2|55=AAPL|59=0|60=20260416-07:19:59.610|150=0|151=30|10=048|
< 8=FIX.4.2|9=135|35=D|49=MINIFIX|56=EXCHANGE|34=60|52=20260416-01:49:59|11=1313231530|21=1|55=AMZN|54=2|60=20260416-01:49:59|40=2|44=101.75|38=120|59=0|10=217|
< 8=FIX.4.2|9=133|35=D|49=MINIFIX|56=EXCHANGE|34=61|52=20260416-01:49:59|11=1313231532|21=1|55=MA|54=1|60=20260416-01:49:59|40=2|44=182.25|38=380|59=0|10=061|
> 8=FIX.4.2|9=268|35=8|34=50|49=EXCHANGE|52=20260416-01:49:59.612|56=MINIFIX|6=172.75|11=1313231432|14=50|17=EXEC-1776304199610-1069|31=172.75|32=30|37=20260416-071959-613027|38=80|39=1|40=2|44=172.75|54=1|55=AAPL|59=0|60=20260416-07:19:59.612|150=F|151=30|527=TRADE-1776304199610-1069|10=208|
> 8=FIX.4.2|9=267|35=8|34=51|49=EXCHANGE|52=20260416-01:49:59.613|56=MINIFIX|6=172.75|11=1313231478|14=30|17=EXEC-1776304199610-1069|31=172.75|32=30|37=20260416-071959-613050|38=30|39=2|40=2|44=114.75|54=2|55=AAPL|59=0|60=20260416-07:19:59.613|150=F|151=0|527=TRADE-1776304199610-1069|10=156|
< 8=FIX.4.2|9=134|35=D|49=MINIFIX|56=EXCHANGE|34=62|52=20260416-01:49:59|11=1313231534|21=1|55=DIS|54=2|60=20260416-01:49:59|40=2|44=182.25|38=130|59=0|10=141|
> 8=FIX.4.2|9=220|35=8|34=52|49=EXCHANGE|52=20260416-01:49:59.614|56=MINIFIX|6=0|11=1313231480|14=0|17=EXEC-1776303563771|31=0|32=0|37=20260416-071959-613051|38=50|39=0|40=2|44=199.5|54=1|55=BAC|59=0|60=20260416-07:19:59.614|150=0|151=50|10=165|
< 8=FIX.4.2|9=132|35=D|49=MINIFIX|56=EXCHANGE|34=63|52=20260416-01:49:59|11=1313231536|21=1|55=AAPL|54=1|60=20260416-01:49:59|40=2|44=194|38=260|59=0|10=061|
< 8=FIX.4.2|9=135|35=D|49=MINIFIX|56=EXCHANGE|34=64|52=20260416-01:49:59|11=1313231538|21=1|55=AMZN|54=2|60=20260416-01:49:59|40=2|44=141.25|38=350|59=0|10=233|
> 8=FIX.4.2|9=269|35=8|34=53|49=EXCHANGE|52=20260416-01:49:59.615|56=MINIFIX|6=150.25|11=1313231450|14=50|17=EXEC-1776304199614-1070|31=150.25|32=50|37=20260416-071959-613036|38=480|39=1|40=2|44=150.25|54=2|55=BAC|59=0|60=20260416-07:19:59.615|150=F|151=430|527=TRADE-1776304199614-1070|10=202|
> 8=FIX.4.2|9=265|35=8|34=54|49=EXCHANGE|52=20260416-01:49:59.615|56=MINIFIX|6=150.25|11=1313231480|14=50|17=EXEC-1776304199614-1070|31=150.25|32=50|37=20260416-071959-613051|38=50|39=2|40=2|44=199.5|54=1|55=BAC|59=0|60=20260416-07:19:59.615|150=F|151=0|527=TRADE-1776304199614-1070|10=004|
< 8=FIX.4.2|9=135|35=D|49=MINIFIX|56=EXCHANGE|34=65|52=20260416-01:49:59|11=1313231540|21=1|55=MSFT|54=1|60=20260416-01:49:59|40=2|44=142.25|38=450|59=0|10=232|
> 8=FIX.4.2|9=222|35=8|34=55|49=EXCHANGE|52=20260416-01:49:59.617|56=MINIFIX|6=0|11=1313231482|14=0|17=EXEC-1776303563774|31=0|32=0|37=20260416-071959-613052|38=420|39=0|40=2|44=182.25|54=2|55=MA|59=0|60=20260416-07:19:59.617|150=0|151=420|10=011|
< 8=FIX.4.2|9=131|35=D|49=MINIFIX|56=EXCHANGE|34=66|52=20260416-01:49:59|11=1313231542|21=1|55=BAC|54=2|60=20260416-01:49:59|40=2|44=158|38=480|59=0|10=233|
> 8=FIX.4.2|9=269|35=8|34=56|49=EXCHANGE|52=20260416-01:49:59.618|56=MINIFIX|6=199.75|11=1313231428|14=420|17=EXEC-1776304199617-1071|31=199.75|32=420|37=20260416-071959-613025|38=480|39=1|40=2|44=199.75|54=1|55=MA|59=0|60=20260416-07:19:59.618|150=F|151=60|527=TRADE-1776304199617-1071|10=012|
< 8=FIX.4.2|9=135|35=D|49=MINIFIX|56=EXCHANGE|34=67|52=20260416-01:49:59|11=1313231544|21=1|55=AAPL|54=1|60=20260416-01:49:59|40=2|44=115.75|38=280|59=0|10=216|
> 8=FIX.4.2|9=268|35=8|34=57|49=EXCHANGE|52=20260416-01:49:59.619|56=MINIFIX|6=199.75|11=1313231482|14=420|17=EXEC-1776304199617-1071|31=199.75|32=420|37=20260416-071959-613052|38=420|39=2|40=2|44=182.25|54=2|55=MA|59=0|60=20260416-07:19:59.619|150=F|151=0|527=TRADE-1776304199617-1071|10=199|
< 8=FIX.4.2|9=134|35=D|49=MINIFIX|56=EXCHANGE|34=68|52=20260416-01:49:59|11=1313231546|21=1|55=MSFT|54=2|60=20260416-01:49:59|40=2|44=176.25|38=70|59=0|10=198|
> 8=FIX.4.2|9=222|35=8|34=58|49=EXCHANGE|52=20260416-01:49:59.620|56=MINIFIX|6=0|11=1313231484|14=0|17=EXEC-1776303563777|31=0|32=0|37=20260416-071959-613053|38=350|39=0|40=2|44=112.5|54=1|55=DIS|59=0|60=20260416-07:19:59.620|150=0|151=350|10=036|
< 8=FIX.4.2|9=131|35=D|49=MINIFIX|56=EXCHANGE|34=69|52=20260416-01:49:59|11=1313231548|21=1|55=AAPL|54=1|60=20260416-01:49:59|40=2|44=123|38=80|59=0|10=013|
> 8=FIX.4.2|9=222|35=8|34=59|49=EXCHANGE|52=20260416-01:49:59.621|56=MINIFIX|6=0|11=1313231486|14=0|17=EXEC-1776303563778|31=0|32=0|37=20260416-071959-613054|38=160|39=0|40=2|44=176.5|54=2|55=BAC|59=0|60=20260416-07:19:59.621|150=0|151=160|10=026|
< 8=FIX.4.2|9=131|35=D|49=MINIFIX|56=EXCHANGE|34=70|52=20260416-01:49:59|11=1313231550|21=1|55=BAC|54=2|60=20260416-01:49:59|40=2|44=181|38=130|59=0|10=215|
> 8=FIX.4.2|9=220|35=8|34=60|49=EXCHANGE|52=20260416-01:49:59.622|56=MINIFIX|6=0|11=1313231488|14=0|17=EXEC-1776303563779|31=0|32=0|37=20260416-071959-613055|38=480|39=0|40=2|44=149|54=1|55=BAC|59=0|60=20260416-07:19:59.622|150=0|151=480|10=188|
< 8=FIX.4.2|9=131|35=D|49=MINIFIX|56=EXCHANGE|34=71|52=20260416-01:49:59|11=1313231552|21=1|55=DIS|54=1|60=20260416-01:49:59|40=2|44=199|38=430|59=0|10=255|
> 8=FIX.4.2|9=221|35=8|34=61|49=EXCHANGE|52=20260416-01:49:59.625|56=MINIFIX|6=0|11=1313231490|14=0|17=EXEC-1776303563780|31=0|32=0|37=20260416-071959-613056|38=20|39=0|40=2|44=166.5|54=2|55=META|59=0|60=20260416-07:19:59.625|150=0|151=20|10=006|
< 8=FIX.4.2|9=134|35=D|49=MINIFIX|56=EXCHANGE|34=72|52=20260416-01:49:59|11=1313231554|21=1|55=DIS|54=2|60=20260416-01:49:59|40=2|44=133.25|38=130|59=0|10=140|
< 8=FIX.4.2|9=130|35=D|49=MINIFIX|56=EXCHANGE|34=73|52=20260416-01:49:59|11=1313231556|21=1|55=MA|54=1|60=20260416-01:49:59|40=2|44=130|38=410|59=0|10=161|
> 8=FIX.4.2|9=221|35=8|34=62|49=EXCHANGE|52=20260416-01:49:59.626|56=MINIFIX|6=0|11=1313231492|14=0|17=EXEC-1776303563781|31=0|32=0|37=20260416-071959-613057|38=220|39=0|40=2|44=112.5|54=1|55=MA|59=0|60=20260416-07:19:59.626|150=0|151=220|10=206|
< 8=FIX.4.2|9=135|35=D|49=MINIFIX|56=EXCHANGE|34=74|52=20260416-01:49:59|11=1313231558|21=1|55=AAPL|54=2|60=20260416-01:49:59|40=2|44=101.25|38=130|59=0|10=204|
> 8=FIX.4.2|9=220|35=8|34=63|49=EXCHANGE|52=20260416-01:49:59.627|56=MINIFIX|6=0|11=1313231494|14=0|17=EXEC-1776303563782|31=0|32=0|37=20260416-071959-613058|38=200|39=0|40=2|44=121|54=2|55=DIS|59=0|60=20260416-07:19:59.627|150=0|151=200|10=192|
< 8=FIX.4.2|9=135|35=D|49=MINIFIX|56=EXCHANGE|34=75|52=20260416-01:49:59|11=1313231560|21=1|55=AMZN|54=1|60=20260416-01:49:59|40=2|44=121.75|38=470|59=0|10=235|
> 8=FIX.4.2|9=221|35=8|34=64|49=EXCHANGE|52=20260416-01:49:59.628|56=MINIFIX|6=0|11=1313231496|14=0|17=EXEC-1776303563783|31=0|32=0|37=20260416-071959-613059|38=390|39=0|40=2|44=105|54=1|55=AAPL|59=0|60=20260416-07:19:59.628|150=0|151=390|10=027|
< 8=FIX.4.2|9=134|35=D|49=MINIFIX|56=EXCHANGE|34=76|52=20260416-01:49:59|11=1313231562|21=1|55=DIS|54=2|60=20260416-01:49:59|40=2|44=190.75|38=180|59=0|10=156|
> 8=FIX.4.2|9=223|35=8|34=65|49=EXCHANGE|52=20260416-01:49:59.630|56=MINIFIX|6=0|11=1313231498|14=0|17=EXEC-1776303563784|31=0|32=0|37=20260416-071959-613060|38=400|39=0|40=2|44=103.5|54=2|55=AMZN|59=0|60=20260416-07:19:59.630|150=0|151=400|10=117|
< 8=FIX.4.2|9=131|35=D|49=MINIFIX|56=EXCHANGE|34=77|52=20260416-01:49:59|11=1313231564|21=1|55=BAC|54=1|60=20260416-01:49:59|40=2|44=185|38=100|59=0|10=227|
< 8=FIX.4.2|9=134|35=D|49=MINIFIX|56=EXCHANGE|34=78|52=20260416-01:49:59|11=1313231566|21=1|55=META|54=2|60=20260416-01:49:59|40=2|44=195.5|38=130|59=0|10=178|
> 8=FIX.4.2|9=281|35=8|34=66|49=EXCHANGE|52=20260416-01:49:59.631|56=MINIFIX|6=150.60714285714286|11=1313231476|14=140|17=EXEC-1776304199630-1072|31=187.25|32=50|37=20260416-071959-613049|38=140|39=2|40=2|44=187.25|54=1|55=AMZN|59=0|60=20260416-07:19:59.631|150=F|151=0|527=TRADE-1776304199630-1072|10=140|
> 8=FIX.4.2|9=269|35=8|34=67|49=EXCHANGE|52=20260416-01:49:59.632|56=MINIFIX|6=187.25|11=1313231498|14=50|17=EXEC-1776304199630-1072|31=187.25|32=50|37=20260416-071959-613060|38=400|39=1|40=2|44=103.5|54=2|55=AMZN|59=0|60=20260416-07:19:59.632|150=F|151=350|527=TRADE-1776304199630-1072|10=031|
< 8=FIX.4.2|9=132|35=D|49=MINIFIX|56=EXCHANGE|34=79|52=20260416-01:49:59|11=1313231568|21=1|55=AAPL|54=1|60=20260416-01:49:59|40=2|44=178|38=310|59=0|10=071|
> 8=FIX.4.2|9=223|35=8|34=68|49=EXCHANGE|52=20260416-01:49:59.633|56=MINIFIX|6=0|11=1313231500|14=0|17=EXEC-1776303563787|31=0|32=0|37=20260416-071959-613061|38=100|39=0|40=2|44=140.75|54=1|55=DIS|59=0|60=20260416-07:19:59.633|150=0|151=100|10=077|
< 8=FIX.4.2|9=133|35=D|49=MINIFIX|56=EXCHANGE|34=80|52=20260416-01:49:59|11=1313231570|21=1|55=MA|54=2|60=20260416-01:49:59|40=2|44=198.75|38=240|59=0|10=072|
< 8=FIX.4.2|9=135|35=D|49=MINIFIX|56=EXCHANGE|34=81|52=20260416-01:49:59|11=1313231572|21=1|55=META|54=1|60=20260416-01:49:59|40=2|44=106.75|38=180|59=0|10=221|
> 8=FIX.4.2|9=262|35=8|34=69|49=EXCHANGE|52=20260416-01:49:59.634|56=MINIFIX|6=121|11=1313231494|14=100|17=EXEC-1776304199633-1073|31=121|32=100|37=20260416-071959-613058|38=200|39=1|40=2|44=121|54=2|55=DIS|59=0|60=20260416-07:19:59.634|150=F|151=100|527=TRADE-1776304199633-1073|10=125|
< 8=FIX.4.2|9=134|35=D|49=MINIFIX|56=EXCHANGE|34=82|52=20260416-01:49:59|11=1313231574|21=1|55=AAPL|54=2|60=20260416-01:49:59|40=2|44=179.5|38=420|59=0|10=167|
> 8=FIX.4.2|9=263|35=8|34=70|49=EXCHANGE|52=20260416-01:49:59.634|56=MINIFIX|6=121|11=1313231500|14=100|17=EXEC-1776304199633-1073|31=121|32=100|37=20260416-071959-613061|38=100|39=2|40=2|44=140.75|54=1|55=DIS|59=0|60=20260416-07:19:59.634|150=F|151=0|527=TRADE-1776304199633-1073|10=157|
< 8=FIX.4.2|9=134|35=D|49=MINIFIX|56=EXCHANGE|34=83|52=20260416-01:49:59|11=1313231576|21=1|55=AMZN|54=1|60=20260416-01:49:59|40=2|44=159.5|38=300|59=0|10=188|
> 8=FIX.4.2|9=224|35=8|34=71|49=EXCHANGE|52=20260416-01:49:59.637|56=MINIFIX|6=0|11=1313231502|14=0|17=EXEC-1776303563790|31=0|32=0|37=20260416-071959-613062|38=250|39=0|40=2|44=145.75|54=2|55=MSFT|59=0|60=20260416-07:19:59.637|150=0|151=250|10=185|
< 8=FIX.4.2|9=135|35=D|49=MINIFIX|56=EXCHANGE|34=84|52=20260416-01:49:59|11=1313231578|21=1|55=MSFT|54=2|60=20260416-01:49:59|40=2|44=173.25|38=280|59=0|10=250|
> 8=FIX.4.2|9=271|35=8|34=72|49=EXCHANGE|52=20260416-01:49:59.638|56=MINIFIX|6=179.75|11=1313231452|14=250|17=EXEC-1776304199637-1074|31=179.75|32=250|37=20260416-071959-613037|38=330|39=1|40=2|44=179.75|54=1|55=MSFT|59=0|60=20260416-07:19:59.638|150=F|151=80|527=TRADE-1776304199637-1074|10=181|
> 8=FIX.4.2|9=270|35=8|34=73|49=EXCHANGE|52=20260416-01:49:59.639|56=MINIFIX|6=179.75|11=1313231502|14=250|17=EXEC-1776304199637-1074|31=179.75|32=250|37=20260416-071959-613062|38=250|39=2|40=2|44=145.75|54=2|55=MSFT|59=0|60=20260416-07:19:59.639|150=F|151=0|527=TRADE-1776304199637-1074|10=117|
< 8=FIX.4.2|9=133|35=D|49=MINIFIX|56=EXCHANGE|34=85|52=20260416-01:49:59|11=1313231580|21=1|55=DIS|54=1|60=20260416-01:49:59|40=2|44=169.5|38=460|59=0|10=106|
< 8=FIX.4.2|9=132|35=D|49=MINIFIX|56=EXCHANGE|34=86|52=20260416-01:49:59|11=1313231582|21=1|55=AAPL|54=2|60=20260416-01:49:59|40=2|44=168|38=150|59=0|10=067|
> 8=FIX.4.2|9=223|35=8|34=74|49=EXCHANGE|52=20260416-01:49:59.639|56=MINIFIX|6=0|11=1313231504|14=0|17=EXEC-1776303563793|31=0|32=0|37=20260416-071959-613063|38=230|39=0|40=2|44=148.75|54=1|55=BAC|59=0|60=20260416-07:19:59.639|150=0|151=230|10=079|
< 8=FIX.4.2|9=134|35=D|49=MINIFIX|56=EXCHANGE|34=87|52=20260416-01:49:59|11=1313231584|21=1|55=DIS|54=1|60=20260416-01:49:59|40=2|44=139.25|38=380|59=0|10=161|
> 8=FIX.4.2|9=221|35=8|34=75|49=EXCHANGE|52=20260416-01:49:59.641|56=MINIFIX|6=0|11=1313231506|14=0|17=EXEC-1776303563794|31=0|32=0|37=20260416-071959-613064|38=330|39=0|40=2|44=179.5|54=2|55=MA|59=0|60=20260416-07:19:59.641|150=0|151=330|10=220|
< 8=FIX.4.2|9=135|35=D|49=MINIFIX|56=EXCHANGE|34=88|52=20260416-01:49:59|11=1313231586|21=1|55=AAPL|54=2|60=20260416-01:49:59|40=2|44=156.25|38=380|59=0|10=227|
< 8=FIX.4.2|9=135|35=D|49=MINIFIX|56=EXCHANGE|34=89|52=20260416-01:49:59|11=1313231588|21=1|55=MSFT|54=1|60=20260416-01:49:59|40=2|44=120.75|38=200|59=0|10=244|
> 8=FIX.4.2|9=267|35=8|34=76|49=EXCHANGE|52=20260416-01:49:59.642|56=MINIFIX|6=199.75|11=1313231428|14=480|17=EXEC-1776304199641-1075|31=199.75|32=60|37=20260416-071959-613025|38=480|39=2|40=2|44=199.75|54=1|55=MA|59=0|60=20260416-07:19:59.642|150=F|151=0|527=TRADE-1776304199641-1075|10=169|
> 8=FIX.4.2|9=267|35=8|34=77|49=EXCHANGE|52=20260416-01:49:59.643|56=MINIFIX|6=199.75|11=1313231506|14=60|17=EXEC-1776304199641-1075|31=199.75|32=60|37=20260416-071959-613064|38=330|39=1|40=2|44=179.5|54=2|55=MA|59=0|60=20260416-07:19:59.643|150=F|151=270|527=TRADE-1776304199641-1075|10=160|
< 8=FIX.4.2|9=135|35=D|49=MINIFIX|56=EXCHANGE|34=90|52=20260416-01:49:59|11=1313231590|21=1|55=AMZN|54=2|60=20260416-01:49:59|40=2|44=152.75|38=290|59=0|10=240|
> 8=FIX.4.2|9=222|35=8|34=78|49=EXCHANGE|52=20260416-01:49:59.644|56=MINIFIX|6=0|11=1313231508|14=0|17=EXEC-1776303563797|31=0|32=0|37=20260416-071959-613065|38=360|39=0|40=2|44=192.25|54=1|55=MA|59=0|60=20260416-07:19:59.644|150=0|151=360|10=030|
< 8=FIX.4.2|9=133|35=D|49=MINIFIX|56=EXCHANGE|34=91|52=20260416-01:49:59|11=1313231592|21=1|55=META|54=1|60=20260416-01:49:59|40=2|44=140.5|38=40|59=0|10=112|
< 8=FIX.4.2|9=134|35=D|49=MINIFIX|56=EXCHANGE|34=92|52=20260416-01:49:59|11=1313231594|21=1|55=META|54=2|60=20260416-01:49:59|40=2|44=135.25|38=30|59=0|10=170|
> 8=FIX.4.2|9=277|35=8|34=79|49=EXCHANGE|52=20260416-01:49:59.646|56=MINIFIX|6=183.1818181818182|11=1313231506|14=330|17=EXEC-1776304199644-1076|31=179.5|32=270|37=20260416-071959-613064|38=330|39=2|40=2|44=179.5|54=2|55=MA|59=0|60=20260416-07:19:59.646|150=F|151=0|527=TRADE-1776304199644-1076|10=168|
> 8=FIX.4.2|9=267|35=8|34=80|49=EXCHANGE|52=20260416-01:49:59.646|56=MINIFIX|6=179.5|11=1313231508|14=270|17=EXEC-1776304199644-1076|31=179.5|32=270|37=20260416-071959-613065|38=360|39=1|40=2|44=192.25|54=1|55=MA|59=0|60=20260416-07:19:59.646|150=F|151=90|527=TRADE-1776304199644-1076|10=158|
< 8=FIX.4.2|9=135|35=D|49=MINIFIX|56=EXCHANGE|34=93|52=20260416-01:49:59|11=1313231596|21=1|55=META|54=1|60=20260416-01:49:59|40=2|44=159.25|38=270|59=0|10=233|
< 8=FIX.4.2|9=134|35=D|49=MINIFIX|56=EXCHANGE|34=94|52=20260416-01:49:59|11=1313231598|21=1|55=META|54=2|60=20260416-01:49:59|40=2|44=135.5|38=390|59=0|10=183|
> 8=FIX.4.2|9=224|35=8|34=81|49=EXCHANGE|52=20260416-01:49:59.647|56=MINIFIX|6=0|11=1313231510|14=0|17=EXEC-1776303563800|31=0|32=0|37=20260416-071959-613066|38=380|39=0|40=2|44=180.75|54=2|55=AMZN|59=0|60=20260416-07:19:59.647|150=0|151=380|10=186|
< 8=FIX.4.2|9=132|35=D|49=MINIFIX|56=EXCHANGE|34=95|52=20260416-01:49:59|11=1313231600|21=1|55=MA|54=1|60=20260416-01:49:59|40=2|44=196.5|38=470|59=0|10=018|
> 8=FIX.4.2|9=223|35=8|34=82|49=EXCHANGE|52=20260416-01:49:59.649|56=MINIFIX|6=0|11=1313231512|14=0|17=EXEC-1776303563801|31=0|32=0|37=20260416-071959-613067|38=140|39=0|40=2|44=170.75|54=1|55=DIS|59=0|60=20260416-07:19:59.649|150=0|151=140|10=094|
< 8=FIX.4.2|9=133|35=D|49=MINIFIX|56=EXCHANGE|34=96|52=20260416-01:49:59|11=1313231602|21=1|55=DIS|54=2|60=20260416-01:49:59|40=2|44=115.25|38=70|59=0|10=094|
> 8=FIX.4.2|9=260|35=8|34=83|49=EXCHANGE|52=20260416-01:49:59.650|56=MINIFIX|6=121|11=1313231494|14=200|17=EXEC-1776304199649-1077|31=121|32=100|37=20260416-071959-613058|38=200|39=2|40=2|44=121|54=2|55=DIS|59=0|60=20260416-07:19:59.650|150=F|151=0|527=TRADE-1776304199649-1077|10=042|
< 8=FIX.4.2|9=132|35=D|49=MINIFIX|56=EXCHANGE|34=97|52=20260416-01:49:59|11=1313231604|21=1|55=MA|54=1|60=20260416-01:49:59|40=2|44=139.5|38=290|59=0|10=021|
< 8=FIX.4.2|9=134|35=D|49=MINIFIX|56=EXCHANGE|34=98|52=20260416-01:49:59|11=1313231606|21=1|55=BAC|54=2|60=20260416-01:49:59|40=2|44=138.75|38=240|59=0|10=132|
> 8=FIX.4.2|9=260|35=8|34=84|49=EXCHANGE|52=20260416-01:49:59.651|56=MINIFIX|6=122|11=1313231418|14=40|17=EXEC-1776304199649-1078|31=122|32=40|37=20260416-071959-613020|38=460|39=1|40=2|44=122|54=2|55=DIS|59=0|60=20260416-07:19:59.651|150=F|151=420|527=TRADE-1776304199649-1078|10=053|
> 8=FIX.4.2|9=279|35=8|34=85|49=EXCHANGE|52=20260416-01:49:59.651|56=MINIFIX|6=121.28571428571429|11=1313231512|14=100|17=EXEC-1776304199649-1077|31=121|32=100|37=20260416-071959-613067|38=140|39=1|40=2|44=170.75|54=1|55=DIS|59=0|60=20260416-07:19:59.651|150=F|151=40|527=TRADE-1776304199649-1077|10=016|
> 8=FIX.4.2|9=277|35=8|34=86|49=EXCHANGE|52=20260416-01:49:59.651|56=MINIFIX|6=121.28571428571429|11=1313231512|14=140|17=EXEC-1776304199649-1078|31=122|32=40|37=20260416-071959-613067|38=140|39=2|40=2|44=170.75|54=1|55=DIS|59=0|60=20260416-07:19:59.651|150=F|151=0|527=TRADE-1776304199649-1078|10=182|
< 8=FIX.4.2|9=133|35=D|49=MINIFIX|56=EXCHANGE|34=99|52=20260416-01:49:59|11=1313231608|21=1|55=DIS|54=1|60=20260416-01:49:59|40=2|44=172.75|38=10|59=0|10=104|
> 8=FIX.4.2|9=223|35=8|34=87|49=EXCHANGE|52=20260416-01:49:59.652|56=MINIFIX|6=0|11=1313231514|14=0|17=EXEC-1776303563806|31=0|32=0|37=20260416-071959-613068|38=340|39=0|40=2|44=100.25|54=2|55=DIS|59=0|60=20260416-07:19:59.652|150=0|151=340|10=088|
< 8=FIX.4.2|9=135|35=D|49=MINIFIX|56=EXCHANGE|34=100|52=20260416-01:49:59|11=1313231610|21=1|55=DIS|54=2|60=20260416-01:49:59|40=2|44=138.75|38=170|59=0|10=188|
< 8=FIX.4.2|9=135|35=D|49=MINIFIX|56=EXCHANGE|34=101|52=20260416-01:49:59|11=1313231612|21=1|55=MSFT|54=1|60=20260416-01:49:59|40=2|44=192.75|38=90|59=0|10=233|
> 8=FIX.4.2|9=269|35=8|34=88|49=EXCHANGE|52=20260416-01:49:59.655|56=MINIFIX|6=117.25|11=1313231468|14=330|17=EXEC-1776304199652-1079|31=117.25|32=330|37=20260416-071959-613045|38=330|39=2|40=2|44=117.25|54=1|55=DIS|59=0|60=20260416-07:19:59.655|150=F|151=0|527=TRADE-1776304199652-1079|10=017|
< 8=FIX.4.2|9=133|35=D|49=MINIFIX|56=EXCHANGE|34=102|52=20260416-01:49:59|11=1313231614|21=1|55=MA|54=2|60=20260416-01:49:59|40=2|44=143.5|38=400|59=0|10=047|
> 8=FIX.4.2|9=266|35=8|34=89|49=EXCHANGE|52=20260416-01:49:59.656|56=MINIFIX|6=113.5|11=1313231412|14=10|17=EXEC-1776304199652-1080|31=113.5|32=10|37=20260416-071959-613017|38=410|39=1|40=2|44=113.5|54=1|55=DIS|59=0|60=20260416-07:19:59.656|150=F|151=400|527=TRADE-1776304199652-1080|10=075|
> 8=FIX.4.2|9=282|35=8|34=90|49=EXCHANGE|52=20260416-01:49:59.657|56=MINIFIX|6=117.13970588235294|11=1313231514|14=330|17=EXEC-1776304199652-1079|31=117.25|32=330|37=20260416-071959-613068|38=340|39=1|40=2|44=100.25|54=2|55=DIS|59=0|60=20260416-07:19:59.657|150=F|151=10|527=TRADE-1776304199652-1079|10=171|
< 8=FIX.4.2|9=134|35=D|49=MINIFIX|56=EXCHANGE|34=103|52=20260416-01:49:59|11=1313231616|21=1|55=MA|54=1|60=20260416-01:49:59|40=2|44=186.25|38=160|59=0|10=110|
> 8=FIX.4.2|9=279|35=8|34=91|49=EXCHANGE|52=20260416-01:49:59.657|56=MINIFIX|6=117.13970588235294|11=1313231514|14=340|17=EXEC-1776304199652-1080|31=113.5|32=10|37=20260416-071959-613068|38=340|39=2|40=2|44=100.25|54=2|55=DIS|59=0|60=20260416-07:19:59.657|150=F|151=0|527=TRADE-1776304199652-1080|10=008|
< 8=FIX.4.2|9=133|35=D|49=MINIFIX|56=EXCHANGE|34=104|52=20260416-01:49:59|11=1313231618|21=1|55=AAPL|54=2|60=20260416-01:49:59|40=2|44=162|38=270|59=0|10=104|
> 8=FIX.4.2|9=220|35=8|34=92|49=EXCHANGE|52=20260416-01:49:59.658|56=MINIFIX|6=0|11=1313231516|14=0|17=EXEC-1776303563811|31=0|32=0|37=20260416-071959-613069|38=330|39=0|40=2|44=171|54=1|55=DIS|59=0|60=20260416-07:19:59.658|150=0|151=330|10=204|
< 8=FIX.4.2|9=133|35=D|49=MINIFIX|56=EXCHANGE|34=105|52=20260416-01:49:59|11=1313231620|21=1|55=MA|54=1|60=20260416-01:49:59|40=2|44=111.75|38=90|59=0|10=053|
> 8=FIX.4.2|9=261|35=8|34=93|49=EXCHANGE|52=20260416-01:49:59.659|56=MINIFIX|6=122|11=1313231418|14=370|17=EXEC-1776304199658-1081|31=122|32=330|37=20260416-071959-613020|38=460|39=1|40=2|44=122|54=2|55=DIS|59=0|60=20260416-07:19:59.659|150=F|151=90|527=TRADE-1776304199658-1081|10=117|
< 8=FIX.4.2|9=134|35=D|49=MINIFIX|56=EXCHANGE|34=106|52=20260416-01:49:59|11=1313231622|21=1|55=MA|54=2|60=20260416-01:49:59|40=2|44=147.25|38=310|59=0|10=105|
> 8=FIX.4.2|9=260|35=8|34=94|49=EXCHANGE|52=20260416-01:49:59.659|56=MINIFIX|6=122|11=1313231516|14=330|17=EXEC-1776304199658-1081|31=122|32=330|37=20260416-071959-613069|38=330|39=2|40=2|44=171|54=1|55=DIS|59=0|60=20260416-07:19:59.659|150=F|151=0|527=TRADE-1776304199658-1081|10=068|
< 8=FIX.4.2|9=133|35=D|49=MINIFIX|56=EXCHANGE|34=107|52=20260416-01:49:59|11=1313231624|21=1|55=MSFT|54=1|60=20260416-01:49:59|40=2|44=134|38=140|59=0|10=126|
> 8=FIX.4.2|9=221|35=8|34=95|49=EXCHANGE|52=20260416-01:49:59.660|56=MINIFIX|6=0|11=1313231518|14=0|17=EXEC-1776303563814|31=0|32=0|37=20260416-071959-613070|38=90|39=0|40=2|44=164.5|54=2|55=META|59=0|60=20260416-07:19:59.660|150=0|151=90|10=018|
< 8=FIX.4.2|9=131|35=D|49=MINIFIX|56=EXCHANGE|34=108|52=20260416-01:49:59|11=1313231626|21=1|55=MA|54=2|60=20260416-01:49:59|40=2|44=153|38=330|59=0|10=214|
> 8=FIX.4.2|9=221|35=8|34=96|49=EXCHANGE|52=20260416-01:49:59.661|56=MINIFIX|6=0|11=1313231520|14=0|17=EXEC-1776303563815|31=0|32=0|37=20260416-071959-613071|38=60|39=0|40=2|44=145.5|54=1|55=AMZN|59=0|60=20260416-07:19:59.661|150=0|151=60|10=023|
< 8=FIX.4.2|9=136|35=D|49=MINIFIX|56=EXCHANGE|34=109|52=20260416-01:49:59|11=1313231628|21=1|55=AAPL|54=1|60=20260416-01:49:59|40=2|44=171.75|38=350|59=0|10=009|
< 8=FIX.4.2|9=133|35=D|49=MINIFIX|56=EXCHANGE|34=110|52=20260416-01:49:59|11=1313231630|21=1|55=META|54=2|60=20260416-01:49:59|40=2|44=199|38=380|59=0|10=116|
> 8=FIX.4.2|9=280|35=8|34=97|49=EXCHANGE|52=20260416-01:49:59.662|56=MINIFIX|6=141.5681818181818|11=1313231498|14=110|17=EXEC-1776304199661-1082|31=103.5|32=60|37=20260416-071959-613060|38=400|39=1|40=2|44=103.5|54=2|55=AMZN|59=0|60=20260416-07:19:59.662|150=F|151=290|527=TRADE-1776304199661-1082|10=093|
> 8=FIX.4.2|9=264|35=8|34=98|49=EXCHANGE|52=20260416-01:49:59.663|56=MINIFIX|6=103.5|11=1313231520|14=60|17=EXEC-1776304199661-1082|31=103.5|32=60|37=20260416-071959-613071|38=60|39=2|40=2|44=145.5|54=1|55=AMZN|59=0|60=20260416-07:19:59.663|150=F|151=0|527=TRADE-1776304199661-1082|10=026|
< 8=FIX.4.2|9=133|35=D|49=MINIFIX|56=EXCHANGE|34=111|52=20260416-01:49:59|11=1313231632|21=1|55=META|54=1|60=20260416-01:49:59|40=2|44=172|38=230|59=0|10=103|
< 8=FIX.4.2|9=134|35=D|49=MINIFIX|56=EXCHANGE|34=112|52=20260416-01:49:59|11=1313231634|21=1|55=DIS|54=2|60=20260416-01:49:59|40=2|44=191.25|38=50|59=0|10=139|
> 8=FIX.4.2|9=223|35=8|34=99|49=EXCHANGE|52=20260416-01:49:59.664|56=MINIFIX|6=0|11=1313231522|14=0|17=EXEC-1776303563818|31=0|32=0|37=20260416-071959-613072|38=250|39=0|40=2|44=177.5|54=2|55=AMZN|59=0|60=20260416-07:19:59.664|150=0|151=250|10=144|
< 8=FIX.4.2|9=134|35=D|49=MINIFIX|56=EXCHANGE|34=113|52=20260416-01:49:59|11=1313231636|21=1|55=BAC|54=1|60=20260416-01:49:59|40=2|44=150.5|38=120|59=0|10=106|
> 8=FIX.4.2|9=222|35=8|34=100|49=EXCHANGE|52=20260416-01:49:59.665|56=MINIFIX|6=0|11=1313231524|14=0|17=EXEC-1776303563819|31=0|32=0|37=20260416-071959-613073|38=480|39=0|40=2|44=157.5|54=1|55=MA|59=0|60=20260416-07:19:59.665|150=0|151=480|10=019|
< 8=FIX.4.2|9=134|35=D|49=MINIFIX|56=EXCHANGE|34=114|52=20260416-01:49:59|11=1313231638|21=1|55=MA|54=2|60=20260416-01:49:59|40=2|44=155.75|38=460|59=0|10=121|
> 8=FIX.4.2|9=225|35=8|34=101|49=EXCHANGE|52=20260416-01:49:59.666|56=MINIFIX|6=0|11=1313231526|14=0|17=EXEC-1776303563820|31=0|32=0|37=20260416-071959-613074|38=180|39=0|40=2|44=187.75|54=2|55=MSFT|59=0|60=20260416-07:19:59.666|150=0|151=180|10=245|
< 8=FIX.4.2|9=135|35=D|49=MINIFIX|56=EXCHANGE|34=115|52=20260416-01:49:59|11=1313231640|21=1|55=AMZN|54=1|60=20260416-01:49:59|40=2|44=150.25|38=80|59=0|10=223|
< 8=FIX.4.2|9=135|35=D|49=MINIFIX|56=EXCHANGE|34=116|52=20260416-01:49:59|11=1313231642|21=1|55=BAC|54=2|60=20260416-01:49:59|40=2|44=146.25|38=420|59=0|10=166|
> 8=FIX.4.2|9=222|35=8|34=102|49=EXCHANGE|52=20260416-01:49:59.668|56=MINIFIX|6=0|11=1313231528|14=0|17=EXEC-1776303563821|31=0|32=0|37=20260416-071959-613075|38=300|39=0|40=2|44=181|54=1|55=MSFT|59=0|60=20260416-07:19:59.667|150=0|151=300|10=077|
< 8=FIX.4.2|9=134|35=D|49=MINIFIX|56=EXCHANGE|34=117|52=20260416-01:49:59|11=1313231644|21=1|55=MA|54=1|60=20260416-01:49:59|40=2|44=154.75|38=270|59=0|10=118|
> 8=FIX.4.2|9=262|35=8|34=103|49=EXCHANGE|52=20260416-01:49:59.669|56=MINIFIX|6=180|11=1313231438|14=250|17=EXEC-1776304199668-1083|31=180|32=250|37=20260416-071959-613030|38=250|39=2|40=2|44=180|54=2|55=MSFT|59=0|60=20260416-07:19:59.669|150=F|151=0|527=TRADE-1776304199668-1083|10=210|
< 8=FIX.4.2|9=135|35=D|49=MINIFIX|56=EXCHANGE|34=118|52=20260416-01:49:59|11=1313231646|21=1|55=DIS|54=2|60=20260416-01:49:59|40=2|44=144.75|38=500|59=0|10=200|
> 8=FIX.4.2|9=263|35=8|34=104|49=EXCHANGE|52=20260416-01:49:59.669|56=MINIFIX|6=180|11=1313231528|14=250|17=EXEC-1776304199668-1083|31=180|32=250|37=20260416-071959-613075|38=300|39=1|40=2|44=181|54=1|55=MSFT|59=0|60=20260416-07:19:59.669|150=F|151=50|527=TRADE-1776304199668-1083|10=013|
< 8=FIX.4.2|9=134|35=D|49=MINIFIX|56=EXCHANGE|34=119|52=20260416-01:49:59|11=1313231648|21=1|55=MSFT|54=1|60=20260416-01:49:59|40=2|44=185.5|38=40|59=0|10=192|
> 8=FIX.4.2|9=225|35=8|34=105|49=EXCHANGE|52=20260416-01:49:59.671|56=MINIFIX|6=0|11=1313231530|14=0|17=EXEC-1776303563824|31=0|32=0|37=20260416-071959-613076|38=120|39=0|40=2|44=101.75|54=2|55=AMZN|59=0|60=20260416-07:19:59.671|150=0|151=120|10=212|
< 8=FIX.4.2|9=135|35=D|49=MINIFIX|56=EXCHANGE|34=120|52=20260416-01:49:59|11=1313231650|21=1|55=AAPL|54=2|60=20260416-01:49:59|40=2|44=160.5|38=230|59=0|10=193|
< 8=FIX.4.2|9=134|35=D|49=MINIFIX|56=EXCHANGE|34=121|52=20260416-01:49:59|11=1313231652|21=1|55=DIS|54=1|60=20260416-01:49:59|40=2|44=149.75|38=60|59=0|10=147|
> 8=FIX.4.2|9=223|35=8|34=106|49=EXCHANGE|52=20260416-01:49:59.673|56=MINIFIX|6=0|11=1313231532|14=0|17=EXEC-1776303563825|31=0|32=0|37=20260416-071959-613077|38=380|39=0|40=2|44=182.25|54=1|55=MA|59=0|60=20260416-07:19:59.673|150=0|151=380|10=070|
< 8=FIX.4.2|9=132|35=D|49=MINIFIX|56=EXCHANGE|34=122|52=20260416-01:49:59|11=1313231654|21=1|55=DIS|54=2|60=20260416-01:49:59|40=2|44=198|38=490|59=0|10=054|
> 8=FIX.4.2|9=224|35=8|34=107|49=EXCHANGE|52=20260416-01:49:59.675|56=MINIFIX|6=0|11=1313231534|14=0|17=EXEC-1776303563826|31=0|32=0|37=20260416-071959-613078|38=130|39=0|40=2|44=182.25|54=2|55=DIS|59=0|60=20260416-07:19:59.675|150=0|151=130|10=149|
< 8=FIX.4.2|9=135|35=D|49=MINIFIX|56=EXCHANGE|34=123|52=20260416-01:49:59|11=1313231656|21=1|55=MSFT|54=1|60=20260416-01:49:59|40=2|44=103.25|38=10|59=0|10=224|
> 8=FIX.4.2|9=222|35=8|34=108|49=EXCHANGE|52=20260416-01:49:59.676|56=MINIFIX|6=0|11=1313231536|14=0|17=EXEC-1776303563827|31=0|32=0|37=20260416-071959-613079|38=260|39=0|40=2|44=194|54=1|55=AAPL|59=0|60=20260416-07:19:59.676|150=0|151=260|10=077|
< 8=FIX.4.2|9=135|35=D|49=MINIFIX|56=EXCHANGE|34=124|52=20260416-01:49:59|11=1313231658|21=1|55=DIS|54=2|60=20260416-01:49:59|40=2|44=197.75|38=390|59=0|10=215|
< 8=FIX.4.2|9=136|35=D|49=MINIFIX|56=EXCHANGE|34=125|52=20260416-01:49:59|11=1313231660|21=1|55=META|54=1|60=20260416-01:49:59|40=2|44=136.25|38=410|59=0|10=005|
> 8=FIX.4.2|9=261|35=8|34=109|49=EXCHANGE|52=20260416-01:49:59.677|56=MINIFIX|6=174|11=1313231462|14=380|17=EXEC-1776304199676-1084|31=174|32=20|37=20260416-071959-613042|38=380|39=2|40=2|44=174|54=2|55=AAPL|59=0|60=20260416-07:19:59.677|150=F|151=0|527=TRADE-1776304199676-1084|10=149|
< 8=FIX.4.2|9=132|35=D|49=MINIFIX|56=EXCHANGE|34=126|52=20260416-01:49:59|11=1313231662|21=1|55=BAC|54=2|60=20260416-01:49:59|40=2|44=168|38=440|59=0|10=023|
> 8=FIX.4.2|9=270|35=8|34=110|49=EXCHANGE|52=20260416-01:49:59.679|56=MINIFIX|6=183.5|11=1313231414|14=240|17=EXEC-1776304199676-1085|31=183.5|32=240|37=20260416-071959-613018|38=460|39=1|40=2|44=183.5|54=2|55=AAPL|59=0|60=20260416-07:19:59.679|150=F|151=220|527=TRADE-1776304199676-1085|10=077|
< 8=FIX.4.2|9=132|35=D|49=MINIFIX|56=EXCHANGE|34=127|52=20260416-01:49:59|11=1313231664|21=1|55=MA|54=1|60=20260416-01:49:59|40=2|44=134.5|38=50|59=0|10=010|
> 8=FIX.4.2|9=277|35=8|34=111|49=EXCHANGE|52=20260416-01:49:59.680|56=MINIFIX|6=182.76923076923077|11=1313231536|14=20|17=EXEC-1776304199676-1084|31=174|32=20|37=20260416-071959-613079|38=260|39=1|40=2|44=194|54=1|55=AAPL|59=0|60=20260416-07:19:59.680|150=F|151=240|527=TRADE-1776304199676-1084|10=208|
> 8=FIX.4.2|9=279|35=8|34=112|49=EXCHANGE|52=20260416-01:49:59.680|56=MINIFIX|6=182.76923076923077|11=1313231536|14=260|17=EXEC-1776304199676-1085|31=183.5|32=240|37=20260416-071959-613079|38=260|39=2|40=2|44=194|54=1|55=AAPL|59=0|60=20260416-07:19:59.680|150=F|151=0|527=TRADE-1776304199676-1085|10=061|
< 8=FIX.4.2|9=136|35=D|49=MINIFIX|56=EXCHANGE|34=128|52=20260416-01:49:59|11=1313231666|21=1|55=AMZN|54=2|60=20260416-01:49:59|40=2|44=185.75|38=200|59=0|10=036|
> 8=FIX.4.2|9=225|35=8|34=113|49=EXCHANGE|52=20260416-01:49:59.681|56=MINIFIX|6=0|11=1313231538|14=0|17=EXEC-1776303563832|31=0|32=0|37=20260416-071959-613080|38=350|39=0|40=2|44=141.25|54=2|55=AMZN|59=0|60=20260416-07:19:59.681|150=0|151=350|10=224|
< 8=FIX.4.2|9=134|35=D|49=MINIFIX|56=EXCHANGE|34=129|52=20260416-01:49:59|11=1313231668|21=1|55=BAC|54=1|60=20260416-01:49:59|40=2|44=104.5|38=130|59=0|10=118|
< 8=FIX.4.2|9=133|35=D|49=MINIFIX|56=EXCHANGE|34=130|52=20260416-01:49:59|11=1313231670|21=1|55=AMZN|54=2|60=20260416-01:49:59|40=2|44=166|38=410|59=0|10=125|
> 8=FIX.4.2|9=225|35=8|34=114|49=EXCHANGE|52=20260416-01:49:59.683|56=MINIFIX|6=0|11=1313231540|14=0|17=EXEC-1776303563833|31=0|32=0|37=20260416-071959-613081|38=450|39=0|40=2|44=142.25|54=1|55=MSFT|59=0|60=20260416-07:19:59.683|150=0|151=450|10=230|
< 8=FIX.4.2|9=132|35=D|49=MINIFIX|56=EXCHANGE|34=131|52=20260416-01:49:59|11=1313231672|21=1|55=BAC|54=1|60=20260416-01:49:59|40=2|44=175|38=220|59=0|10=013|
< 8=FIX.4.2|9=134|35=D|49=MINIFIX|56=EXCHANGE|34=132|52=20260416-01:49:59|11=1313231674|21=1|55=MA|54=2|60=20260416-01:49:59|40=2|44=113.25|38=460|59=0|10=110|
> 8=FIX.4.2|9=221|35=8|34=115|49=EXCHANGE|52=20260416-01:49:59.684|56=MINIFIX|6=0|11=1313231542|14=0|17=EXEC-1776303563834|31=0|32=0|37=20260416-071959-613082|38=480|39=0|40=2|44=158|54=2|55=BAC|59=0|60=20260416-07:19:59.684|150=0|151=480|10=238|
< 8=FIX.4.2|9=136|35=D|49=MINIFIX|56=EXCHANGE|34=133|52=20260416-01:49:59|11=1313231676|21=1|55=META|54=1|60=20260416-01:49:59|40=2|44=198.25|38=100|59=0|10=015|
> 8=FIX.4.2|9=225|35=8|34=116|49=EXCHANGE|52=20260416-01:49:59.685|56=MINIFIX|6=0|11=1313231544|14=0|17=EXEC-1776303563835|31=0|32=0|37=20260416-071959-613083|38=280|39=0|40=2|44=115.75|54=1|55=AAPL|59=0|60=20260416-07:19:59.685|150=0|151=280|10=223|
< 8=FIX.4.2|9=135|35=D|49=MINIFIX|56=EXCHANGE|34=134|52=20260416-01:49:59|11=1313231678|21=1|55=MSFT|54=2|60=20260416-01:49:59|40=2|44=109.5|38=140|59=0|10=239|
> 8=FIX.4.2|9=223|35=8|34=117|49=EXCHANGE|52=20260416-01:49:59.686|56=MINIFIX|6=0|11=1313231546|14=0|17=EXEC-1776303563836|31=0|32=0|37=20260416-071959-613084|38=70|39=0|40=2|44=176.25|54=2|55=MSFT|59=0|60=20260416-07:19:59.686|150=0|151=70|10=157|
< 8=FIX.4.2|9=135|35=D|49=MINIFIX|56=EXCHANGE|34=135|52=20260416-01:49:59|11=1313231680|21=1|55=AAPL|54=1|60=20260416-01:49:59|40=2|44=128.25|38=80|59=0|10=210|
> 8=FIX.4.2|9=276|35=8|34=118|49=EXCHANGE|52=20260416-01:49:59.688|56=MINIFIX|6=180.16666666666666|11=1313231528|14=300|17=EXEC-1776304199687-1086|31=181|32=50|37=20260416-071959-613075|38=300|39=2|40=2|44=181|54=1|55=MSFT|59=0|60=20260416-07:19:59.688|150=F|151=0|527=TRADE-1776304199687-1086|10=212|
< 8=FIX.4.2|9=134|35=D|49=MINIFIX|56=EXCHANGE|34=136|52=20260416-01:49:59|11=1313231682|21=1|55=DIS|54=2|60=20260416-01:49:59|40=2|44=180.25|38=70|59=0|10=148|
< 8=FIX.4.2|9=136|35=D|49=MINIFIX|56=EXCHANGE|34=137|52=20260416-01:49:59|11=1313231684|21=1|55=MSFT|54=1|60=20260416-01:49:59|40=2|44=107.75|38=440|59=0|10=039|
> 8=FIX.4.2|9=271|35=8|34=119|49=EXCHANGE|52=20260416-01:49:59.689|56=MINIFIX|6=179.75|11=1313231452|14=270|17=EXEC-1776304199687-1087|31=179.75|32=20|37=20260416-071959-613037|38=330|39=1|40=2|44=179.75|54=1|55=MSFT|59=0|60=20260416-07:19:59.689|150=F|151=60|527=TRADE-1776304199687-1087|10=208|
> 8=FIX.4.2|9=278|35=8|34=120|49=EXCHANGE|52=20260416-01:49:59.690|56=MINIFIX|6=180.64285714285714|11=1313231546|14=50|17=EXEC-1776304199687-1086|31=181|32=50|37=20260416-071959-613084|38=70|39=1|40=2|44=176.25|54=2|55=MSFT|59=0|60=20260416-07:19:59.690|150=F|151=20|527=TRADE-1776304199687-1086|10=035|
> 8=FIX.4.2|9=280|35=8|34=121|49=EXCHANGE|52=20260416-01:49:59.690|56=MINIFIX|6=180.64285714285714|11=1313231546|14=70|17=EXEC-1776304199687-1087|31=179.75|32=20|37=20260416-071959-613084|38=70|39=2|40=2|44=176.25|54=2|55=MSFT|59=0|60=20260416-07:19:59.690|150=F|151=0|527=TRADE-1776304199687-1087|10=142|
< 8=FIX.4.2|9=136|35=D|49=MINIFIX|56=EXCHANGE|34=138|52=20260416-01:49:59|11=1313231686|21=1|55=MSFT|54=2|60=20260416-01:49:59|40=2|44=162.75|38=290|59=0|10=047|
< 8=FIX.4.2|9=136|35=D|49=MINIFIX|56=EXCHANGE|34=139|52=20260416-01:49:59|11=1313231688|21=1|55=MSFT|54=1|60=20260416-01:49:59|40=2|44=100.75|38=280|59=0|10=040|
> 8=FIX.4.2|9=220|35=8|34=122|49=EXCHANGE|52=20260416-01:49:59.691|56=MINIFIX|6=0|11=1313231548|14=0|17=EXEC-1776303563841|31=0|32=0|37=20260416-071959-613085|38=80|39=0|40=2|44=123|54=1|55=AAPL|59=0|60=20260416-07:19:59.691|150=0|151=80|10=213|
< 8=FIX.4.2|9=131|35=D|49=MINIFIX|56=EXCHANGE|34=140|52=20260416-01:49:59|11=1313231690|21=1|55=DIS|54=2|60=20260416-01:49:59|40=2|44=168|38=80|59=0|10=253|
> 8=FIX.4.2|9=221|35=8|34=123|49=EXCHANGE|52=20260416-01:49:59.692|56=MINIFIX|6=0|11=1313231550|14=0|17=EXEC-1776303563842|31=0|32=0|37=20260416-071959-613086|38=130|39=0|40=2|44=181|54=2|55=BAC|59=0|60=20260416-07:19:59.692|150=0|151=130|10=217|
< 8=FIX.4.2|9=134|35=D|49=MINIFIX|56=EXCHANGE|34=141|52=20260416-01:49:59|11=1313231692|21=1|55=DIS|54=1|60=20260416-01:49:59|40=2|44=153.5|38=430|59=0|10=142|
< 8=FIX.4.2|9=135|35=D|49=MINIFIX|56=EXCHANGE|34=142|52=20260416-01:49:59|11=1313231694|21=1|55=BAC|54=2|60=20260416-01:49:59|40=2|44=143.75|38=320|59=0|10=173|
> 8=FIX.4.2|9=221|35=8|34=124|49=EXCHANGE|52=20260416-01:49:59.694|56=MINIFIX|6=0|11=1313231552|14=0|17=EXEC-1776303563843|31=0|32=0|37=20260416-071959-613087|38=430|39=0|40=2|44=199|54=1|55=DIS|59=0|60=20260416-07:19:59.694|150=0|151=430|10=010|
< 8=FIX.4.2|9=133|35=D|49=MINIFIX|56=EXCHANGE|34=143|52=20260416-01:49:59|11=1313231696|21=1|55=MSFT|54=1|60=20260416-01:49:59|40=2|44=120|38=180|59=0|10=134|
> 8=FIX.4.2|9=260|35=8|34=125|49=EXCHANGE|52=20260416-01:49:59.695|56=MINIFIX|6=122|11=1313231418|14=460|17=EXEC-1776304199694-1088|31=122|32=90|37=20260416-071959-613020|38=460|39=2|40=2|44=122|54=2|55=DIS|59=0|60=20260416-07:19:59.695|150=F|151=0|527=TRADE-1776304199694-1088|10=073|
< 8=FIX.4.2|9=136|35=D|49=MINIFIX|56=EXCHANGE|34=144|52=20260416-01:49:59|11=1313231698|21=1|55=AMZN|54=2|60=20260416-01:49:59|40=2|44=113.75|38=260|59=0|10=036|
> 8=FIX.4.2|9=258|35=8|34=126|49=EXCHANGE|52=20260416-01:49:59.696|56=MINIFIX|6=136|11=1313231454|14=20|17=EXEC-1776304199694-1089|31=136|32=20|37=20260416-071959-613038|38=20|39=2|40=2|44=136|54=2|55=DIS|59=0|60=20260416-07:19:59.696|150=F|151=0|527=TRADE-1776304199694-1089|10=246|
< 8=FIX.4.2|9=135|35=D|49=MINIFIX|56=EXCHANGE|34=145|52=20260416-01:49:59|11=1313231700|21=1|55=DIS|54=1|60=20260416-01:49:59|40=2|44=138.25|38=210|59=0|10=186|
< 8=FIX.4.2|9=135|35=D|49=MINIFIX|56=EXCHANGE|34=146|52=20260416-01:49:59|11=1313231702|21=1|55=AMZN|54=2|60=20260416-01:49:59|40=2|44=176.25|38=40|59=0|10=231|
> 8=FIX.4.2|9=270|35=8|34=127|49=EXCHANGE|52=20260416-01:49:59.698|56=MINIFIX|6=142.25|11=1313231466|14=200|17=EXEC-1776304199694-1090|31=142.25|32=200|37=20260416-071959-613044|38=200|39=2|40=2|44=142.25|54=2|55=DIS|59=0|60=20260416-07:19:59.698|150=F|151=0|527=TRADE-1776304199694-1090|10=043|
< 8=FIX.4.2|9=133|35=D|49=MINIFIX|56=EXCHANGE|34=147|52=20260416-01:49:59|11=1313231704|21=1|55=MSFT|54=1|60=20260416-01:49:59|40=2|44=104|38=120|59=0|10=124|
< 8=FIX.4.2|9=135|35=D|49=MINIFIX|56=EXCHANGE|34=148|52=20260416-01:49:59|11=1313231706|21=1|55=AAPL|54=2|60=20260416-01:49:59|40=2|44=125.25|38=70|59=0|10=210|
> 8=FIX.4.2|9=271|35=8|34=128|49=EXCHANGE|52=20260416-01:49:59.699|56=MINIFIX|6=182.25|11=1313231534|14=120|17=EXEC-1776304199694-1091|31=182.25|32=120|37=20260416-071959-613078|38=130|39=1|40=2|44=182.25|54=2|55=DIS|59=0|60=20260416-07:19:59.699|150=F|151=10|527=TRADE-1776304199694-1091|10=116|
< 8=FIX.4.2|9=134|35=D|49=MINIFIX|56=EXCHANGE|34=149|52=20260416-01:49:59|11=1313231708|21=1|55=BAC|54=1|60=20260416-01:49:59|40=2|44=150.5|38=100|59=0|10=113|
> 8=FIX.4.2|9=276|35=8|34=129|49=EXCHANGE|52=20260416-01:49:59.700|56=MINIFIX|6=148.88372093023256|11=1313231552|14=90|17=EXEC-1776304199694-1088|31=122|32=90|37=20260416-071959-613087|38=430|39=1|40=2|44=199|54=1|55=DIS|59=0|60=20260416-07:19:59.700|150=F|151=340|527=TRADE-1776304199694-1088|10=149|
> 8=FIX.4.2|9=277|35=8|34=130|49=EXCHANGE|52=20260416-01:49:59.700|56=MINIFIX|6=148.88372093023256|11=1313231552|14=110|17=EXEC-1776304199694-1089|31=136|32=20|37=20260416-071959-613087|38=430|39=1|40=2|44=199|54=1|55=DIS|59=0|60=20260416-07:19:59.700|150=F|151=320|527=TRADE-1776304199694-1089|10=181|
> 8=FIX.4.2|9=281|35=8|34=131|49=EXCHANGE|52=20260416-01:49:59.700|56=MINIFIX|6=148.88372093023256|11=1313231552|14=310|17=EXEC-1776304199694-1090|31=142.25|32=200|37=20260416-071959-613087|38=430|39=1|40=2|44=199|54=1|55=DIS|59=0|60=20260416-07:19:59.700|150=F|151=120|527=TRADE-1776304199694-1090|10=099|
> 8=FIX.4.2|9=279|35=8|34=132|49=EXCHANGE|52=20260416-01:49:59.700|56=MINIFIX|6=148.88372093023256|11=1313231552|14=430|17=EXEC-1776304199694-1091|31=182.25|32=120|37=20260416-071959-613087|38=430|39=2|40=2|44=199|54=1|55=DIS|59=0|60=20260416-07:19:59.700|150=F|151=0|527=TRADE-1776304199694-1091|10=019|
< 8=FIX.4.2|9=136|35=D|49=MINIFIX|56=EXCHANGE|34=150|52=20260416-01:49:59|11=1313231710|21=1|55=MSFT|54=2|60=20260416-01:49:59|40=2|44=182.25|38=120|59=0|10=018|
> 8=FIX.4.2|9=224|35=8|34=133|49=EXCHANGE|52=20260416-01:49:59.701|56=MINIFIX|6=0|11=1313231554|14=0|17=EXEC-1776303563852|31=0|32=0|37=20260416-071959-613088|38=130|39=0|40=2|44=133.25|54=2|55=DIS|59=0|60=20260416-07:19:59.701|150=0|151=130|10=126|
< 8=FIX.4.2|9=136|35=D|49=MINIFIX|56=EXCHANGE|34=151|52=20260416-01:49:59|11=1313231712|21=1|55=AMZN|54=1|60=20260416-01:49:59|40=2|44=198.25|38=210|59=0|10=023|
< 8=FIX.4.2|9=133|35=D|49=MINIFIX|56=EXCHANGE|34=152|52=20260416-01:49:59|11=1313231714|21=1|55=BAC|54=2|60=20260416-01:49:59|40=2|44=182.5|38=30|59=0|10=063|
> 8=FIX.4.2|9=220|35=8|34=134|49=EXCHANGE|52=20260416-01:49:59.703|56=MINIFIX|6=0|11=1313231556|14=0|17=EXEC-1776303563853|31=0|32=0|37=20260416-071959-613089|38=410|39=0|40=2|44=130|54=1|55=MA|59=0|60=20260416-07:19:59.703|150=0|151=410|10=154|
< 8=FIX.4.2|9=136|35=D|49=MINIFIX|56=EXCHANGE|34=153|52=20260416-01:49:59|11=1313231716|21=1|55=MSFT|54=1|60=20260416-01:49:59|40=2|44=130.25|38=460|59=0|10=026|
> 8=FIX.4.2|9=225|35=8|34=135|49=EXCHANGE|52=20260416-01:49:59.704|56=MINIFIX|6=0|11=1313231558|14=0|17=EXEC-1776303563854|31=0|32=0|37=20260416-071959-613090|38=130|39=0|40=2|44=101.25|54=2|55=AAPL|59=0|60=20260416-07:19:59.704|150=0|151=130|10=191|
< 8=FIX.4.2|9=135|35=D|49=MINIFIX|56=EXCHANGE|34=154|52=20260416-01:49:59|11=1313231718|21=1|55=DIS|54=2|60=20260416-01:49:59|40=2|44=104.75|38=480|59=0|10=203|
< 8=FIX.4.2|9=136|35=D|49=MINIFIX|56=EXCHANGE|34=155|52=20260416-01:49:59|11=1313231720|21=1|55=MSFT|54=1|60=20260416-01:49:59|40=2|44=124.75|38=250|59=0|10=028|
> 8=FIX.4.2|9=268|35=8|34=136|49=EXCHANGE|52=20260416-01:49:59.705|56=MINIFIX|6=172.75|11=1313231432|14=80|17=EXEC-1776304199704-1092|31=172.75|32=30|37=20260416-071959-613027|38=80|39=2|40=2|44=172.75|54=1|55=AAPL|59=0|60=20260416-07:19:59.705|150=F|151=0|527=TRADE-1776304199704-1092|10=220|
< 8=FIX.4.2|9=134|35=D|49=MINIFIX|56=EXCHANGE|34=156|52=20260416-01:49:59|11=1313231722|21=1|55=BAC|54=2|60=20260416-01:49:59|40=2|44=154.5|38=250|59=0|10=118|
< 8=FIX.4.2|9=134|35=D|49=MINIFIX|56=EXCHANGE|34=157|52=20260416-01:49:59|11=1313231724|21=1|55=MA|54=1|60=20260416-01:49:59|40=2|44=188.75|38=170|59=0|10=127|
> 8=FIX.4.2|9=273|35=8|34=137|49=EXCHANGE|52=20260416-01:49:59.707|56=MINIFIX|6=130.75|11=1313231420|14=100|17=EXEC-1776304199704-1093|31=130.75|32=100|37=20260416-071959-613021|38=320|39=1|40=2|44=130.75|54=1|55=AAPL|59=0|60=20260416-07:19:59.707|150=F|151=220|527=TRADE-1776304199704-1093|10=171|
> 8=FIX.4.2|9=283|35=8|34=138|49=EXCHANGE|52=20260416-01:49:59.707|56=MINIFIX|6=140.44230769230768|11=1313231558|14=30|17=EXEC-1776304199704-1092|31=172.75|32=30|37=20260416-071959-613090|38=130|39=1|40=2|44=101.25|54=2|55=AAPL|59=0|60=20260416-07:19:59.707|150=F|151=100|527=TRADE-1776304199704-1092|10=207|
> 8=FIX.4.2|9=283|35=8|34=139|49=EXCHANGE|52=20260416-01:49:59.707|56=MINIFIX|6=140.44230769230768|11=1313231558|14=130|17=EXEC-1776304199704-1093|31=130.75|32=100|37=20260416-071959-613090|38=130|39=2|40=2|44=101.25|54=2|55=AAPL|59=0|60=20260416-07:19:59.707|150=F|151=0|527=TRADE-1776304199704-1093|10=203|
< 8=FIX.4.2|9=135|35=D|49=MINIFIX|56=EXCHANGE|34=158|52=20260416-01:49:59|11=1313231726|21=1|55=DIS|54=2|60=20260416-01:49:59|40=2|44=134.25|38=460|59=0|10=202|
< 8=FIX.4.2|9=136|35=D|49=MINIFIX|56=EXCHANGE|34=159|52=20260416-01:49:59|11=1313231728|21=1|55=META|54=1|60=20260416-01:49:59|40=2|44=103.25|38=190|59=0|10=016|
> 8=FIX.4.2|9=225|35=8|34=140|49=EXCHANGE|52=20260416-01:49:59.708|56=MINIFIX|6=0|11=1313231560|14=0|17=EXEC-1776303563859|31=0|32=0|37=20260416-071959-613091|38=470|39=0|40=2|44=121.75|54=1|55=AMZN|59=0|60=20260416-07:19:59.708|150=0|151=470|10=238|
< 8=FIX.4.2|9=134|35=D|49=MINIFIX|56=EXCHANGE|34=160|52=20260416-01:49:59|11=1313231730|21=1|55=BAC|54=2|60=20260416-01:49:59|40=2|44=116.25|38=60|59=0|10=111|
> 8=FIX.4.2|9=271|35=8|34=141|49=EXCHANGE|52=20260416-01:49:59.710|56=MINIFIX|6=101.75|11=1313231530|14=120|17=EXEC-1776304199709-1094|31=101.75|32=120|37=20260416-071959-613076|38=120|39=2|40=2|44=101.75|54=2|55=AMZN|59=0|60=20260416-07:19:59.710|150=F|151=0|527=TRADE-1776304199709-1094|10=098|
< 8=FIX.4.2|9=136|35=D|49=MINIFIX|56=EXCHANGE|34=161|52=20260416-01:49:59|11=1313231732|21=1|55=AMZN|54=1|60=20260416-01:49:59|40=2|44=187.75|38=400|59=0|10=030|
> 8=FIX.4.2|9=272|35=8|34=142|49=EXCHANGE|52=20260416-01:49:59.711|56=MINIFIX|6=113.96875|11=1313231498|14=400|17=EXEC-1776304199709-1095|31=103.5|32=290|37=20260416-071959-613060|38=400|39=2|40=2|44=103.5|54=2|55=AMZN|59=0|60=20260416-07:19:59.711|150=F|151=0|527=TRADE-1776304199709-1095|10=184|
< 8=FIX.4.2|9=133|35=D|49=MINIFIX|56=EXCHANGE|34=162|52=20260416-01:49:59|11=1313231734|21=1|55=AAPL|54=2|60=20260416-01:49:59|40=2|44=121|38=200|59=0|10=095|
> 8=FIX.4.2|9=285|35=8|34=143|49=EXCHANGE|52=20260416-01:49:59.711|56=MINIFIX|6=102.98780487804878|11=1313231560|14=120|17=EXEC-1776304199709-1094|31=101.75|32=120|37=20260416-071959-613091|38=470|39=1|40=2|44=121.75|54=1|55=AMZN|59=0|60=20260416-07:19:59.711|150=F|151=350|527=TRADE-1776304199709-1094|10=102|
> 8=FIX.4.2|9=283|35=8|34=144|49=EXCHANGE|52=20260416-01:49:59.711|56=MINIFIX|6=102.98780487804878|11=1313231560|14=410|17=EXEC-1776304199709-1095|31=103.5|32=290|37=20260416-071959-613091|38=470|39=1|40=2|44=121.75|54=1|55=AMZN|59=0|60=20260416-07:19:59.711|150=F|151=60|527=TRADE-1776304199709-1095|10=010|
< 8=FIX.4.2|9=135|35=D|49=MINIFIX|56=EXCHANGE|34=163|52=20260416-01:49:59|11=1313231736|21=1|55=DIS|54=1|60=20260416-01:49:59|40=2|44=127.25|38=130|59=0|10=194|
> 8=FIX.4.2|9=224|35=8|34=145|49=EXCHANGE|52=20260416-01:49:59.712|56=MINIFIX|6=0|11=1313231562|14=0|17=EXEC-1776303563864|31=0|32=0|37=20260416-071959-613092|38=180|39=0|40=2|44=190.75|54=2|55=DIS|59=0|60=20260416-07:19:59.712|150=0|151=180|10=148|
< 8=FIX.4.2|9=135|35=D|49=MINIFIX|56=EXCHANGE|34=164|52=20260416-01:49:59|11=1313231738|21=1|55=DIS|54=2|60=20260416-01:49:59|40=2|44=149.25|38=210|59=0|10=201|
> 8=FIX.4.2|9=221|35=8|34=146|49=EXCHANGE|52=20260416-01:49:59.714|56=MINIFIX|6=0|11=1313231564|14=0|17=EXEC-1776303563865|31=0|32=0|37=20260416-071959-613093|38=100|39=0|40=2|44=185|54=1|55=BAC|59=0|60=20260416-07:19:59.714|150=0|151=100|10=217|
< 8=FIX.4.2|9=133|35=D|49=MINIFIX|56=EXCHANGE|34=165|52=20260416-01:49:59|11=1313231740|21=1|55=MA|54=1|60=20260416-01:49:59|40=2|44=122.25|38=50|59=0|10=055|
< 8=FIX.4.2|9=130|35=D|49=MINIFIX|56=EXCHANGE|34=166|52=20260416-01:49:59|11=1313231742|21=1|55=MA|54=2|60=20260416-01:49:59|40=2|44=149|38=70|59=0|10=174|
> 8=FIX.4.2|9=272|35=8|34=147|49=EXCHANGE|52=20260416-01:49:59.716|56=MINIFIX|6=150.25|11=1313231450|14=150|17=EXEC-1776304199714-1096|31=150.25|32=100|37=20260416-071959-613036|38=480|39=1|40=2|44=150.25|54=2|55=BAC|59=0|60=20260416-07:19:59.716|150=F|151=330|527=TRADE-1776304199714-1096|10=106|
< 8=FIX.4.2|9=135|35=D|49=MINIFIX|56=EXCHANGE|34=167|52=20260416-01:49:59|11=1313231744|21=1|55=META|54=1|60=20260416-01:49:59|40=2|44=195.5|38=480|59=0|10=231|
> 8=FIX.4.2|9=267|35=8|34=148|49=EXCHANGE|52=20260416-01:49:59.716|56=MINIFIX|6=150.25|11=1313231564|14=100|17=EXEC-1776304199714-1096|31=150.25|32=100|37=20260416-071959-613093|38=100|39=2|40=2|44=185|54=1|55=BAC|59=0|60=20260416-07:19:59.716|150=F|151=0|527=TRADE-1776304199714-1096|10=117|
< 8=FIX.4.2|9=135|35=D|49=MINIFIX|56=EXCHANGE|34=168|52=20260416-01:49:59|11=1313231746|21=1|55=DIS|54=2|60=20260416-01:49:59|40=2|44=165.25|38=480|59=0|10=211|
> 8=FIX.4.2|9=224|35=8|34=149|49=EXCHANGE|52=20260416-01:49:59.717|56=MINIFIX|6=0|11=1313231566|14=0|17=EXEC-1776303563868|31=0|32=0|37=20260416-071959-613094|38=130|39=0|40=2|44=195.5|54=2|55=META|59=0|60=20260416-07:19:59.717|150=0|151=130|10=183|
< 8=FIX.4.2|9=135|35=D|49=MINIFIX|56=EXCHANGE|34=169|52=20260416-01:49:59|11=1313231748|21=1|55=BAC|54=1|60=20260416-01:49:59|40=2|44=175.75|38=290|59=0|10=192|
> 8=FIX.4.2|9=222|35=8|34=150|49=EXCHANGE|52=20260416-01:49:59.719|56=MINIFIX|6=0|11=1313231568|14=0|17=EXEC-1776303563869|31=0|32=0|37=20260416-071959-613095|38=310|39=0|40=2|44=178|54=1|55=AAPL|59=0|60=20260416-07:19:59.719|150=0|151=310|10=073|
< 8=FIX.4.2|9=132|35=D|49=MINIFIX|56=EXCHANGE|34=170|52=20260416-01:49:59|11=1313231750|21=1|55=MA|54=2|60=20260416-01:49:59|40=2|44=143.5|38=30|59=0|10=003|
> 8=FIX.4.2|9=223|35=8|34=151|49=EXCHANGE|52=20260416-01:49:59.719|56=MINIFIX|6=0|11=1313231570|14=0|17=EXEC-1776303563870|31=0|32=0|37=20260416-071959-613096|38=240|39=0|40=2|44=198.75|54=2|55=MA|59=0|60=20260416-07:19:59.719|150=0|151=240|10=078|
< 8=FIX.4.2|9=136|35=D|49=MINIFIX|56=EXCHANGE|34=171|52=20260416-01:49:59|11=1313231752|21=1|55=AMZN|54=1|60=20260416-01:49:59|40=2|44=155.25|38=120|59=0|10=022|
> 8=FIX.4.2|9=225|35=8|34=152|49=EXCHANGE|52=20260416-01:49:59.721|56=MINIFIX|6=0|11=1313231572|14=0|17=EXEC-1776303563871|31=0|32=0|37=20260416-071959-613097|38=180|39=0|40=2|44=106.75|54=1|55=META|59=0|60=20260416-07:19:59.721|150=0|151=180|10=218|
< 8=FIX.4.2|9=134|35=D|49=MINIFIX|56=EXCHANGE|34=172|52=20260416-01:49:59|11=1313231754|21=1|55=MA|54=2|60=20260416-01:49:59|40=2|44=105.25|38=180|59=0|10=113|
< 8=FIX.4.2|9=135|35=D|49=MINIFIX|56=EXCHANGE|34=173|52=20260416-01:49:59|11=1313231756|21=1|55=DIS|54=1|60=20260416-01:49:59|40=2|44=132.25|38=420|59=0|10=195|
> 8=FIX.4.2|9=224|35=8|34=153|49=EXCHANGE|52=20260416-01:49:59.722|56=MINIFIX|6=0|11=1313231574|14=0|17=EXEC-1776303563872|31=0|32=0|37=20260416-071959-613098|38=420|39=0|40=2|44=179.5|54=2|55=AAPL|59=0|60=20260416-07:19:59.722|150=0|151=420|10=165|
< 8=FIX.4.2|9=134|35=D|49=MINIFIX|56=EXCHANGE|34=174|52=20260416-01:49:59|11=1313231758|21=1|55=AMZN|54=2|60=20260416-01:49:59|40=2|44=140.5|38=10|59=0|10=180|
> 8=FIX.4.2|9=224|35=8|34=154|49=EXCHANGE|52=20260416-01:49:59.723|56=MINIFIX|6=0|11=1313231576|14=0|17=EXEC-1776303563873|31=0|32=0|37=20260416-071959-613099|38=300|39=0|40=2|44=159.5|54=1|55=AMZN|59=0|60=20260416-07:19:59.723|150=0|151=300|10=187|
< 8=FIX.4.2|9=131|35=D|49=MINIFIX|56=EXCHANGE|34=175|52=20260416-01:49:59|11=1313231760|21=1|55=DIS|54=1|60=20260416-01:49:59|40=2|44=191|38=30|59=0|10=249|
< 8=FIX.4.2|9=132|35=D|49=MINIFIX|56=EXCHANGE|34=176|52=20260416-01:49:59|11=1313231762|21=1|55=META|54=2|60=20260416-01:49:59|40=2|44=181|38=90|59=0|10=074|
> 8=FIX.4.2|9=272|35=8|34=155|49=EXCHANGE|52=20260416-01:49:59.725|56=MINIFIX|6=141.25|11=1313231538|14=300|17=EXEC-1776304199723-1097|31=141.25|32=300|37=20260416-071959-613080|38=350|39=1|40=2|44=141.25|54=2|55=AMZN|59=0|60=20260416-07:19:59.725|150=F|151=50|527=TRADE-1776304199723-1097|10=171|
> 8=FIX.4.2|9=270|35=8|34=156|49=EXCHANGE|52=20260416-01:49:59.725|56=MINIFIX|6=141.25|11=1313231576|14=300|17=EXEC-1776304199723-1097|31=141.25|32=300|37=20260416-071959-613099|38=300|39=2|40=2|44=159.5|54=1|55=AMZN|59=0|60=20260416-07:19:59.725|150=F|151=0|527=TRADE-1776304199723-1097|10=083|
< 8=FIX.4.2|9=136|35=D|49=MINIFIX|56=EXCHANGE|34=177|52=20260416-01:49:59|11=1313231764|21=1|55=AMZN|54=1|60=20260416-01:49:59|40=2|44=125.75|38=330|59=0|10=036|
< 8=FIX.4.2|9=133|35=D|49=MINIFIX|56=EXCHANGE|34=178|52=20260416-01:49:59|11=1313231766|21=1|55=MSFT|54=2|60=20260416-01:49:59|40=2|44=113|38=370|59=0|10=144|
> 8=FIX.4.2|9=225|35=8|34=157|49=EXCHANGE|52=20260416-01:49:59.726|56=MINIFIX|6=0|11=1313231578|14=0|17=EXEC-1776303563876|31=0|32=0|37=20260416-071959-613100|38=280|39=0|40=2|44=173.25|54=2|55=MSFT|59=0|60=20260416-07:19:59.726|150=0|151=280|10=250|
< 8=FIX.4.2|9=136|35=D|49=MINIFIX|56=EXCHANGE|34=179|52=20260416-01:49:59|11=1313231768|21=1|55=META|54=1|60=20260416-01:49:59|40=2|44=149.25|38=330|59=0|10=028|
> 8=FIX.4.2|9=270|35=8|34=158|49=EXCHANGE|52=20260416-01:49:59.727|56=MINIFIX|6=179.75|11=1313231452|14=330|17=EXEC-1776304199726-1098|31=179.75|32=60|37=20260416-071959-613037|38=330|39=2|40=2|44=179.75|54=1|55=MSFT|59=0|60=20260416-07:19:59.727|150=F|151=0|527=TRADE-1776304199726-1098|10=136|
< 8=FIX.4.2|9=136|35=D|49=MINIFIX|56=EXCHANGE|34=180|52=20260416-01:49:59|11=1313231770|21=1|55=META|54=2|60=20260416-01:49:59|40=2|44=137.75|38=230|59=0|10=015|
> 8=FIX.4.2|9=271|35=8|34=159|49=EXCHANGE|52=20260416-01:49:59.728|56=MINIFIX|6=179.75|11=1313231578|14=60|17=EXEC-1776304199726-1098|31=179.75|32=60|37=20260416-071959-613100|38=280|39=1|40=2|44=173.25|54=2|55=MSFT|59=0|60=20260416-07:19:59.728|150=F|151=220|527=TRADE-1776304199726-1098|10=185|
< 8=FIX.4.2|9=133|35=D|49=MINIFIX|56=EXCHANGE|34=181|52=20260416-01:49:59|11=1313231772|21=1|55=AAPL|54=1|60=20260416-01:49:59|40=2|44=172|38=280|59=0|10=111|
> 8=FIX.4.2|9=223|35=8|34=160|49=EXCHANGE|52=20260416-01:49:59.730|56=MINIFIX|6=0|11=1313231580|14=0|17=EXEC-1776303563879|31=0|32=0|37=20260416-071959-613101|38=460|39=0|40=2|44=169.5|54=1|55=DIS|59=0|60=20260416-07:19:59.730|150=0|151=460|10=093|
< 8=FIX.4.2|9=136|35=D|49=MINIFIX|56=EXCHANGE|34=182|52=20260416-01:49:59|11=1313231774|21=1|55=AMZN|54=2|60=20260416-01:49:59|40=2|44=128.75|38=150|59=0|10=037|
< 8=FIX.4.2|9=136|35=D|49=MINIFIX|56=EXCHANGE|34=183|52=20260416-01:49:59|11=1313231776|21=1|55=AAPL|54=1|60=20260416-01:49:59|40=2|44=162.25|38=380|59=0|10=013|
> 8=FIX.4.2|9=270|35=8|34=161|49=EXCHANGE|52=20260416-01:49:59.731|56=MINIFIX|6=133.25|11=1313231554|14=130|17=EXEC-1776304199730-1099|31=133.25|32=130|37=20260416-071959-613088|38=130|39=2|40=2|44=133.25|54=2|55=DIS|59=0|60=20260416-07:19:59.731|150=F|151=0|527=TRADE-1776304199730-1099|10=029|
< 8=FIX.4.2|9=136|35=D|49=MINIFIX|56=EXCHANGE|34=184|52=20260416-01:49:59|11=1313231778|21=1|55=AMZN|54=2|60=20260416-01:49:59|40=2|44=181.25|38=100|59=0|10=032|
> 8=FIX.4.2|9=271|35=8|34=162|49=EXCHANGE|52=20260416-01:49:59.732|56=MINIFIX|6=133.25|11=1313231580|14=130|17=EXEC-1776304199730-1099|31=133.25|32=130|37=20260416-071959-613101|38=460|39=1|40=2|44=169.5|54=1|55=DIS|59=0|60=20260416-07:19:59.732|150=F|151=330|527=TRADE-1776304199730-1099|10=083|
< 8=FIX.4.2|9=136|35=D|49=MINIFIX|56=EXCHANGE|34=185|52=20260416-01:49:59|11=1313231780|21=1|55=META|54=1|60=20260416-01:49:59|40=2|44=131.25|38=350|59=0|10=012|
> 8=FIX.4.2|9=222|35=8|34=163|49=EXCHANGE|52=20260416-01:49:59.733|56=MINIFIX|6=0|11=1313231582|14=0|17=EXEC-1776303563882|31=0|32=0|37=20260416-071959-613102|38=150|39=0|40=2|44=168|54=2|55=AAPL|59=0|60=20260416-07:19:59.733|150=0|151=150|10=053|
< 8=FIX.4.2|9=133|35=D|49=MINIFIX|56=EXCHANGE|34=186|52=20260416-01:49:59|11=1313231782|21=1|55=MA|54=2|60=20260416-01:49:59|40=2|44=138.5|38=100|59=0|10=066|
> 8=FIX.4.2|9=264|35=8|34=164|49=EXCHANGE|52=20260416-01:49:59.735|56=MINIFIX|6=178|11=1313231568|14=150|17=EXEC-1776304199734-1100|31=178|32=150|37=20260416-071959-613095|38=310|39=1|40=2|44=178|54=1|55=AAPL|59=0|60=20260416-07:19:59.735|150=F|151=160|527=TRADE-1776304199734-1100|10=023|
< 8=FIX.4.2|9=135|35=D|49=MINIFIX|56=EXCHANGE|34=187|52=20260416-01:49:59|11=1313231784|21=1|55=DIS|54=1|60=20260416-01:49:59|40=2|44=134.25|38=190|59=0|10=207|
> 8=FIX.4.2|9=262|35=8|34=165|49=EXCHANGE|52=20260416-01:49:59.735|56=MINIFIX|6=178|11=1313231582|14=150|17=EXEC-1776304199734-1100|31=178|32=150|37=20260416-071959-613102|38=150|39=2|40=2|44=168|54=2|55=AAPL|59=0|60=20260416-07:19:59.735|150=F|151=0|527=TRADE-1776304199734-1100|10=163|
< 8=FIX.4.2|9=136|35=D|49=MINIFIX|56=EXCHANGE|34=188|52=20260416-01:49:59|11=1313231786|21=1|55=AMZN|54=2|60=20260416-01:49:59|40=2|44=181.75|38=320|59=0|10=044|
> 8=FIX.4.2|9=224|35=8|34=166|49=EXCHANGE|52=20260416-01:49:59.736|56=MINIFIX|6=0|11=1313231584|14=0|17=EXEC-1776303563885|31=0|32=0|37=20260416-071959-613103|38=380|39=0|40=2|44=139.25|54=1|55=DIS|59=0|60=20260416-07:19:59.736|150=0|151=380|10=164|
< 8=FIX.4.2|9=132|35=D|49=MINIFIX|56=EXCHANGE|34=189|52=20260416-01:49:59|11=1313231788|21=1|55=BAC|54=1|60=20260416-01:49:59|40=2|44=167|38=400|59=0|10=035|
> 8=FIX.4.2|9=225|35=8|34=167|49=EXCHANGE|52=20260416-01:49:59.737|56=MINIFIX|6=0|11=1313231586|14=0|17=EXEC-1776303563886|31=0|32=0|37=20260416-071959-613104|38=380|39=0|40=2|44=156.25|54=2|55=AAPL|59=0|60=20260416-07:19:59.737|150=0|151=380|10=234|
< 8=FIX.4.2|9=131|35=D|49=MINIFIX|56=EXCHANGE|34=190|52=20260416-01:49:59|11=1313231790|21=1|55=BAC|54=2|60=20260416-01:49:59|40=2|44=138|38=50|59=0|10=227|
< 8=FIX.4.2|9=136|35=D|49=MINIFIX|56=EXCHANGE|34=191|52=20260416-01:49:59|11=1313231792|21=1|55=AAPL|54=1|60=20260416-01:49:59|40=2|44=145.75|38=470|59=0|10=016|
> 8=FIX.4.2|9=262|35=8|34=168|49=EXCHANGE|52=20260416-01:49:59.738|56=MINIFIX|6=178|11=1313231568|14=310|17=EXEC-1776304199737-1101|31=178|32=160|37=20260416-071959-613095|38=310|39=2|40=2|44=178|54=1|55=AAPL|59=0|60=20260416-07:19:59.738|150=F|151=0|527=TRADE-1776304199737-1101|10=192|
< 8=FIX.4.2|9=136|35=D|49=MINIFIX|56=EXCHANGE|34=192|52=20260416-01:49:59|11=1313231794|21=1|55=MSFT|54=2|60=20260416-01:49:59|40=2|44=130.25|38=390|59=0|10=038|
> 8=FIX.4.2|9=267|35=8|34=169|49=EXCHANGE|52=20260416-01:49:59.739|56=MINIFIX|6=178|11=1313231586|14=160|17=EXEC-1776304199737-1101|31=178|32=160|37=20260416-071959-613104|38=380|39=1|40=2|44=156.25|54=2|55=AAPL|59=0|60=20260416-07:19:59.739|150=F|151=220|527=TRADE-1776304199737-1101|10=190|
< 8=FIX.4.2|9=136|35=D|49=MINIFIX|56=EXCHANGE|34=193|52=20260416-01:49:59|11=1313231796|21=1|55=META|54=1|60=20260416-01:49:59|40=2|44=191.25|38=250|59=0|10=023|
> 8=FIX.4.2|9=225|35=8|34=170|49=EXCHANGE|52=20260416-01:49:59.740|56=MINIFIX|6=0|11=1313231588|14=0|17=EXEC-1776303563889|31=0|32=0|37=20260416-071959-613105|38=200|39=0|40=2|44=120.75|54=1|55=MSFT|59=0|60=20260416-07:19:59.740|150=0|151=200|10=227|
< 8=FIX.4.2|9=136|35=D|49=MINIFIX|56=EXCHANGE|34=194|52=20260416-01:49:59|11=1313231798|21=1|55=AMZN|54=2|60=20260416-01:49:59|40=2|44=148.75|38=220|59=0|10=046|
> 8=FIX.4.2|9=225|35=8|34=171|49=EXCHANGE|52=20260416-01:49:59.742|56=MINIFIX|6=0|11=1313231590|14=0|17=EXEC-1776303563890|31=0|32=0|37=20260416-071959-613106|38=290|39=0|40=2|44=152.75|54=2|55=AMZN|59=0|60=20260416-07:19:59.742|150=0|151=290|10=238|
< 8=FIX.4.2|9=136|35=D|49=MINIFIX|56=EXCHANGE|34=195|52=20260416-01:49:59|11=1313231800|21=1|55=META|54=1|60=20260416-01:49:59|40=2|44=175.75|38=230|59=0|10=016|
< 8=FIX.4.2|9=136|35=D|49=MINIFIX|56=EXCHANGE|34=196|52=20260416-01:49:59|11=1313231802|21=1|55=AMZN|54=2|60=20260416-01:49:59|40=2|44=110.75|38=160|59=0|10=026|
> 8=FIX.4.2|9=222|35=8|34=172|49=EXCHANGE|52=20260416-01:49:59.743|56=MINIFIX|6=0|11=1313231592|14=0|17=EXEC-1776303563891|31=0|32=0|37=20260416-071959-613107|38=40|39=0|40=2|44=140.5|54=1|55=META|59=0|60=20260416-07:19:59.743|150=0|151=40|10=058|
< 8=FIX.4.2|9=136|35=D|49=MINIFIX|56=EXCHANGE|34=197|52=20260416-01:49:59|11=1313231804|21=1|55=AAPL|54=1|60=20260416-01:49:59|40=2|44=139.25|38=260|59=0|10=011|
> 8=FIX.4.2|9=223|35=8|34=173|49=EXCHANGE|52=20260416-01:49:59.744|56=MINIFIX|6=0|11=1313231594|14=0|17=EXEC-1776303563892|31=0|32=0|37=20260416-071959-613108|38=30|39=0|40=2|44=135.25|54=2|55=META|59=0|60=20260416-07:19:59.744|150=0|151=30|10=119|
< 8=FIX.4.2|9=132|35=D|49=MINIFIX|56=EXCHANGE|34=198|52=20260416-01:49:59|11=1313231806|21=1|55=DIS|54=2|60=20260416-01:49:59|40=2|44=187|38=260|59=0|10=059|
< 8=FIX.4.2|9=133|35=D|49=MINIFIX|56=EXCHANGE|34=199|52=20260416-01:49:59|11=1313231808|21=1|55=AMZN|54=1|60=20260416-01:49:59|40=2|44=136|38=410|59=0|10=139|
> 8=FIX.4.2|9=268|35=8|34=174|49=EXCHANGE|52=20260416-01:49:59.745|56=MINIFIX|6=147.5|11=1313231464|14=30|17=EXEC-1776304199744-1102|31=147.5|32=30|37=20260416-071959-613043|38=380|39=1|40=2|44=147.5|54=1|55=META|59=0|60=20260416-07:19:59.745|150=F|151=350|527=TRADE-1776304199744-1102|10=224|
> 8=FIX.4.2|9=266|35=8|34=175|49=EXCHANGE|52=20260416-01:49:59.745|56=MINIFIX|6=147.5|11=1313231594|14=30|17=EXEC-1776304199744-1102|31=147.5|32=30|37=20260416-071959-613108|38=30|39=2|40=2|44=135.25|54=2|55=META|59=0|60=20260416-07:19:59.745|150=F|151=0|527=TRADE-1776304199744-1102|10=118|
< 8=FIX.4.2|9=136|35=D|49=MINIFIX|56=EXCHANGE|34=200|52=20260416-01:49:59|11=1313231810|21=1|55=AMZN|54=2|60=20260416-01:49:59|40=2|44=191.75|38=400|59=0|10=017|
> 8=FIX.4.2|9=225|35=8|34=176|49=EXCHANGE|52=20260416-01:49:59.747|56=MINIFIX|6=0|11=1313231596|14=0|17=EXEC-1776303563895|31=0|32=0|37=20260416-071959-613109|38=270|39=0|40=2|44=159.25|54=1|55=META|59=0|60=20260416-07:19:59.747|150=0|151=270|10=249|
> 8=FIX.4.2|9=224|35=8|34=177|49=EXCHANGE|52=20260416-01:49:59.747|56=MINIFIX|6=0|11=1313231598|14=0|17=EXEC-1776303563896|31=0|32=0|37=20260416-071959-613110|38=390|39=0|40=2|44=135.5|54=2|55=META|59=0|60=20260416-07:19:59.747|150=0|151=390|10=195|
> 8=FIX.4.2|9=271|35=8|34=178|49=EXCHANGE|52=20260416-01:49:59.750|56=MINIFIX|6=159.25|11=1313231596|14=270|17=EXEC-1776304199749-1103|31=159.25|32=270|37=20260416-071959-613109|38=270|39=2|40=2|44=159.25|54=1|55=META|59=0|60=20260416-07:19:59.750|150=F|151=0|527=TRADE-1776304199749-1103|10=141|
> 8=FIX.4.2|9=270|35=8|34=179|49=EXCHANGE|52=20260416-01:49:59.751|56=MINIFIX|6=147.5|11=1313231464|14=150|17=EXEC-1776304199749-1104|31=147.5|32=120|37=20260416-071959-613043|38=380|39=1|40=2|44=147.5|54=1|55=META|59=0|60=20260416-07:19:59.751|150=F|151=230|527=TRADE-1776304199749-1104|10=070|
> 8=FIX.4.2|9=283|35=8|34=180|49=EXCHANGE|52=20260416-01:49:59.751|56=MINIFIX|6=155.6346153846154|11=1313231598|14=270|17=EXEC-1776304199749-1103|31=159.25|32=270|37=20260416-071959-613110|38=390|39=1|40=2|44=135.5|54=2|55=META|59=0|60=20260416-07:19:59.751|150=F|151=120|527=TRADE-1776304199749-1103|10=240|
> 8=FIX.4.2|9=280|35=8|34=181|49=EXCHANGE|52=20260416-01:49:59.752|56=MINIFIX|6=155.6346153846154|11=1313231598|14=390|17=EXEC-1776304199749-1104|31=147.5|32=120|37=20260416-071959-613110|38=390|39=2|40=2|44=135.5|54=2|55=META|59=0|60=20260416-07:19:59.752|150=F|151=0|527=TRADE-1776304199749-1104|10=088|
> 8=FIX.4.2|9=222|35=8|34=182|49=EXCHANGE|52=20260416-01:49:59.752|56=MINIFIX|6=0|11=1313231600|14=0|17=EXEC-1776303563901|31=0|32=0|37=20260416-071959-613111|38=470|39=0|40=2|44=196.5|54=1|55=MA|59=0|60=20260416-07:19:59.752|150=0|151=470|10=004|
> 8=FIX.4.2|9=222|35=8|34=183|49=EXCHANGE|52=20260416-01:49:59.754|56=MINIFIX|6=0|11=1313231602|14=0|17=EXEC-1776303563902|31=0|32=0|37=20260416-071959-613112|38=70|39=0|40=2|44=115.25|54=2|55=DIS|59=0|60=20260416-07:19:59.754|150=0|151=70|10=033|
> 8=FIX.4.2|9=271|35=8|34=184|49=EXCHANGE|52=20260416-01:49:59.755|56=MINIFIX|6=145.9375|11=1313231580|14=200|17=EXEC-1776304199754-1105|31=169.5|32=70|37=20260416-071959-613101|38=460|39=1|40=2|44=169.5|54=1|55=DIS|59=0|60=20260416-07:19:59.755|150=F|151=260|527=TRADE-1776304199754-1105|10=115|
> 8=FIX.4.2|9=265|35=8|34=185|49=EXCHANGE|52=20260416-01:49:59.756|56=MINIFIX|6=169.5|11=1313231602|14=70|17=EXEC-1776304199754-1105|31=169.5|32=70|37=20260416-071959-613112|38=70|39=2|40=2|44=115.25|54=2|55=DIS|59=0|60=20260416-07:19:59.756|150=F|151=0|527=TRADE-1776304199754-1105|10=062|
> 8=FIX.4.2|9=222|35=8|34=186|49=EXCHANGE|52=20260416-01:49:59.757|56=MINIFIX|6=0|11=1313231604|14=0|17=EXEC-1776303563905|31=0|32=0|37=20260416-071959-613113|38=290|39=0|40=2|44=139.5|54=1|55=MA|59=0|60=20260416-07:19:59.757|150=0|151=290|10=025|
> 8=FIX.4.2|9=224|35=8|34=187|49=EXCHANGE|52=20260416-01:49:59.759|56=MINIFIX|6=0|11=1313231606|14=0|17=EXEC-1776303563906|31=0|32=0|37=20260416-071959-613114|38=240|39=0|40=2|44=138.75|54=2|55=BAC|59=0|60=20260416-07:19:59.759|150=0|151=240|10=137|
> 8=FIX.4.2|9=263|35=8|34=188|49=EXCHANGE|52=20260416-01:49:59.760|56=MINIFIX|6=149|11=1313231488|14=240|17=EXEC-1776304199759-1106|31=149|32=240|37=20260416-071959-613055|38=480|39=1|40=2|44=149|54=1|55=BAC|59=0|60=20260416-07:19:59.760|150=F|151=240|527=TRADE-1776304199759-1106|10=216|
> 8=FIX.4.2|9=264|35=8|34=189|49=EXCHANGE|52=20260416-01:49:59.760|56=MINIFIX|6=149|11=1313231606|14=240|17=EXEC-1776304199759-1106|31=149|32=240|37=20260416-071959-613114|38=240|39=2|40=2|44=138.75|54=2|55=BAC|59=0|60=20260416-07:19:59.760|150=F|151=0|527=TRADE-1776304199759-1106|10=252|
> 8=FIX.4.2|9=222|35=8|34=190|49=EXCHANGE|52=20260416-01:49:59.761|56=MINIFIX|6=0|11=1313231608|14=0|17=EXEC-1776303563909|31=0|32=0|37=20260416-071959-613115|38=10|39=0|40=2|44=172.75|54=1|55=DIS|59=0|60=20260416-07:19:59.761|150=0|151=10|10=038|
> 8=FIX.4.2|9=224|35=8|34=191|49=EXCHANGE|52=20260416-01:49:59.764|56=MINIFIX|6=0|11=1313231610|14=0|17=EXEC-1776303563910|31=0|32=0|37=20260416-071959-613116|38=170|39=0|40=2|44=138.75|54=2|55=DIS|59=0|60=20260416-07:19:59.763|150=0|151=170|10=145|
> 8=FIX.4.2|9=267|35=8|34=192|49=EXCHANGE|52=20260416-01:49:59.765|56=MINIFIX|6=172.75|11=1313231608|14=10|17=EXEC-1776304199764-1107|31=172.75|32=10|37=20260416-071959-613115|38=10|39=2|40=2|44=172.75|54=1|55=DIS|59=0|60=20260416-07:19:59.765|150=F|151=0|527=TRADE-1776304199764-1107|10=164|
> 8=FIX.4.2|9=282|35=8|34=193|49=EXCHANGE|52=20260416-01:49:59.766|56=MINIFIX|6=156.40972222222223|11=1313231580|14=360|17=EXEC-1776304199764-1108|31=169.5|32=160|37=20260416-071959-613101|38=460|39=1|40=2|44=169.5|54=1|55=DIS|59=0|60=20260416-07:19:59.766|150=F|151=100|527=TRADE-1776304199764-1108|10=164|
> 8=FIX.4.2|9=282|35=8|34=194|49=EXCHANGE|52=20260416-01:49:59.766|56=MINIFIX|6=169.69117647058823|11=1313231610|14=10|17=EXEC-1776304199764-1107|31=172.75|32=10|37=20260416-071959-613116|38=170|39=1|40=2|44=138.75|54=2|55=DIS|59=0|60=20260416-07:19:59.766|150=F|151=160|527=TRADE-1776304199764-1107|10=188|
> 8=FIX.4.2|9=281|35=8|34=195|49=EXCHANGE|52=20260416-01:49:59.766|56=MINIFIX|6=169.69117647058823|11=1313231610|14=170|17=EXEC-1776304199764-1108|31=169.5|32=160|37=20260416-071959-613116|38=170|39=2|40=2|44=138.75|54=2|55=DIS|59=0|60=20260416-07:19:59.766|150=F|151=0|527=TRADE-1776304199764-1108|10=148|
> 8=FIX.4.2|9=223|35=8|34=196|49=EXCHANGE|52=20260416-01:49:59.769|56=MINIFIX|6=0|11=1313231612|14=0|17=EXEC-1776303563915|31=0|32=0|37=20260416-071959-613117|38=90|39=0|40=2|44=192.75|54=1|55=MSFT|59=0|60=20260416-07:19:59.769|150=0|151=90|10=163|
> 8=FIX.4.2|9=272|35=8|34=197|49=EXCHANGE|52=20260416-01:49:59.770|56=MINIFIX|6=175.85|11=1313231578|14=150|17=EXEC-1776304199769-1109|31=173.25|32=90|37=20260416-071959-613100|38=280|39=1|40=2|44=173.25|54=2|55=MSFT|59=0|60=20260416-07:19:59.770|150=F|151=130|527=TRADE-1776304199769-1109|10=219|
> 8=FIX.4.2|9=268|35=8|34=198|49=EXCHANGE|52=20260416-01:49:59.771|56=MINIFIX|6=173.25|11=1313231612|14=90|17=EXEC-1776304199769-1109|31=173.25|32=90|37=20260416-071959-613117|38=90|39=2|40=2|44=192.75|54=1|55=MSFT|59=0|60=20260416-07:19:59.771|150=F|151=0|527=TRADE-1776304199769-1109|10=028|
> 8=FIX.4.2|9=222|35=8|34=199|49=EXCHANGE|52=20260416-01:49:59.772|56=MINIFIX|6=0|11=1313231614|14=0|17=EXEC-1776303563918|31=0|32=0|37=20260416-071959-613118|38=400|39=0|40=2|44=143.5|54=2|55=MA|59=0|60=20260416-07:19:59.772|150=0|151=400|10=015|
> 8=FIX.4.2|9=267|35=8|34=200|49=EXCHANGE|52=20260416-01:49:59.773|56=MINIFIX|6=196.5|11=1313231600|14=400|17=EXEC-1776304199772-1110|31=196.5|32=400|37=20260416-071959-613111|38=470|39=1|40=2|44=196.5|54=1|55=MA|59=0|60=20260416-07:19:59.773|150=F|151=70|527=TRADE-1776304199772-1110|10=111|
> 8=FIX.4.2|9=266|35=8|34=201|49=EXCHANGE|52=20260416-01:49:59.775|56=MINIFIX|6=196.5|11=1313231614|14=400|17=EXEC-1776304199772-1110|31=196.5|32=400|37=20260416-071959-613118|38=400|39=2|40=2|44=143.5|54=2|55=MA|59=0|60=20260416-07:19:59.775|150=F|151=0|527=TRADE-1776304199772-1110|10=059|
> 8=FIX.4.2|9=223|35=8|34=202|49=EXCHANGE|52=20260416-01:49:59.776|56=MINIFIX|6=0|11=1313231616|14=0|17=EXEC-1776303563921|31=0|32=0|37=20260416-071959-613119|38=160|39=0|40=2|44=186.25|54=1|55=MA|59=0|60=20260416-07:19:59.776|150=0|151=160|10=068|
> 8=FIX.4.2|9=222|35=8|34=203|49=EXCHANGE|52=20260416-01:49:59.777|56=MINIFIX|6=0|11=1313231618|14=0|17=EXEC-1776303563922|31=0|32=0|37=20260416-071959-613120|38=270|39=0|40=2|44=162|54=2|55=AAPL|59=0|60=20260416-07:19:59.777|150=0|151=270|10=059|
> 8=FIX.4.2|9=221|35=8|34=204|49=EXCHANGE|52=20260416-01:49:59.778|56=MINIFIX|6=0|11=1313231620|14=0|17=EXEC-1776303563923|31=0|32=0|37=20260416-071959-613121|38=90|39=0|40=2|44=111.75|54=1|55=MA|59=0|60=20260416-07:19:59.778|150=0|151=90|10=219|
> 8=FIX.4.2|9=223|35=8|34=205|49=EXCHANGE|52=20260416-01:49:59.778|56=MINIFIX|6=0|11=1313231622|14=0|17=EXEC-1776303563924|31=0|32=0|37=20260416-071959-613122|38=310|39=0|40=2|44=147.25|54=2|55=MA|59=0|60=20260416-07:19:59.778|150=0|151=310|10=061|
> 8=FIX.4.2|9=265|35=8|34=206|49=EXCHANGE|52=20260416-01:49:59.780|56=MINIFIX|6=196.5|11=1313231600|14=470|17=EXEC-1776304199780-1111|31=196.5|32=70|37=20260416-071959-613111|38=470|39=2|40=2|44=196.5|54=1|55=MA|59=0|60=20260416-07:19:59.780|150=F|151=0|527=TRADE-1776304199780-1111|10=019|
> 8=FIX.4.2|9=270|35=8|34=207|49=EXCHANGE|52=20260416-01:49:59.782|56=MINIFIX|6=182.6875|11=1313231508|14=360|17=EXEC-1776304199780-1112|31=192.25|32=90|37=20260416-071959-613065|38=360|39=2|40=2|44=192.25|54=1|55=MA|59=0|60=20260416-07:19:59.782|150=F|151=0|527=TRADE-1776304199780-1112|10=031|
> 8=FIX.4.2|9=270|35=8|34=208|49=EXCHANGE|52=20260416-01:49:59.783|56=MINIFIX|6=186.25|11=1313231616|14=150|17=EXEC-1776304199780-1113|31=186.25|32=150|37=20260416-071959-613119|38=160|39=1|40=2|44=186.25|54=1|55=MA|59=0|60=20260416-07:19:59.783|150=F|151=10|527=TRADE-1776304199780-1113|10=019|
> 8=FIX.4.2|9=280|35=8|34=209|49=EXCHANGE|52=20260416-01:49:59.784|56=MINIFIX|6=190.30645161290323|11=1313231622|14=70|17=EXEC-1776304199780-1111|31=196.5|32=70|37=20260416-071959-613122|38=310|39=1|40=2|44=147.25|54=2|55=MA|59=0|60=20260416-07:19:59.784|150=F|151=240|527=TRADE-1776304199780-1111|10=012|
> 8=FIX.4.2|9=282|35=8|34=210|49=EXCHANGE|52=20260416-01:49:59.784|56=MINIFIX|6=190.30645161290323|11=1313231622|14=160|17=EXEC-1776304199780-1112|31=192.25|32=90|37=20260416-071959-613122|38=310|39=1|40=2|44=147.25|54=2|55=MA|59=0|60=20260416-07:19:59.784|150=F|151=150|527=TRADE-1776304199780-1112|10=104|
> 8=FIX.4.2|9=281|35=8|34=211|49=EXCHANGE|52=20260416-01:49:59.784|56=MINIFIX|6=190.30645161290323|11=1313231622|14=310|17=EXEC-1776304199780-1113|31=186.25|32=150|37=20260416-071959-613122|38=310|39=2|40=2|44=147.25|54=2|55=MA|59=0|60=20260416-07:19:59.784|150=F|151=0|527=TRADE-1776304199780-1113|10=050|
> 8=FIX.4.2|9=222|35=8|34=212|49=EXCHANGE|52=20260416-01:49:59.786|56=MINIFIX|6=0|11=1313231624|14=0|17=EXEC-1776303563931|31=0|32=0|37=20260416-071959-613123|38=140|39=0|40=2|44=134|54=1|55=MSFT|59=0|60=20260416-07:19:59.786|150=0|151=140|10=077|
> 8=FIX.4.2|9=220|35=8|34=213|49=EXCHANGE|52=20260416-01:49:59.787|56=MINIFIX|6=0|11=1313231626|14=0|17=EXEC-1776303563932|31=0|32=0|37=20260416-071959-613124|38=330|39=0|40=2|44=153|54=2|55=MA|59=0|60=20260416-07:19:59.787|150=0|151=330|10=170|
> 8=FIX.4.2|9=268|35=8|34=214|49=EXCHANGE|52=20260416-01:49:59.788|56=MINIFIX|6=186.25|11=1313231616|14=160|17=EXEC-1776304199787-1114|31=186.25|32=10|37=20260416-071959-613119|38=160|39=2|40=2|44=186.25|54=1|55=MA|59=0|60=20260416-07:19:59.788|150=F|151=0|527=TRADE-1776304199787-1114|10=205|
> 8=FIX.4.2|9=270|35=8|34=215|49=EXCHANGE|52=20260416-01:49:59.789|56=MINIFIX|6=182.25|11=1313231532|14=320|17=EXEC-1776304199787-1115|31=182.25|32=320|37=20260416-071959-613077|38=380|39=1|40=2|44=182.25|54=1|55=MA|59=0|60=20260416-07:19:59.789|150=F|151=60|527=TRADE-1776304199787-1115|10=042|
> 8=FIX.4.2|9=278|35=8|34=216|49=EXCHANGE|52=20260416-01:49:59.790|56=MINIFIX|6=182.37121212121212|11=1313231626|14=10|17=EXEC-1776304199787-1114|31=186.25|32=10|37=20260416-071959-613124|38=330|39=1|40=2|44=153|54=2|55=MA|59=0|60=20260416-07:19:59.790|150=F|151=320|527=TRADE-1776304199787-1114|10=163|
> 8=FIX.4.2|9=278|35=8|34=217|49=EXCHANGE|52=20260416-01:49:59.790|56=MINIFIX|6=182.37121212121212|11=1313231626|14=330|17=EXEC-1776304199787-1115|31=182.25|32=320|37=20260416-071959-613124|38=330|39=2|40=2|44=153|54=2|55=MA|59=0|60=20260416-07:19:59.790|150=F|151=0|527=TRADE-1776304199787-1115|10=167|
> 8=FIX.4.2|9=225|35=8|34=218|49=EXCHANGE|52=20260416-01:49:59.791|56=MINIFIX|6=0|11=1313231628|14=0|17=EXEC-1776303563937|31=0|32=0|37=20260416-071959-613125|38=350|39=0|40=2|44=171.75|54=1|55=AAPL|59=0|60=20260416-07:19:59.791|150=0|151=350|10=223|
> 8=FIX.4.2|9=282|35=8|34=219|49=EXCHANGE|52=20260416-01:49:59.792|56=MINIFIX|6=165.4078947368421|11=1313231586|14=380|17=EXEC-1776304199791-1116|31=156.25|32=220|37=20260416-071959-613104|38=380|39=2|40=2|44=156.25|54=2|55=AAPL|59=0|60=20260416-07:19:59.792|150=F|151=0|527=TRADE-1776304199791-1116|10=201|
> 8=FIX.4.2|9=264|35=8|34=220|49=EXCHANGE|52=20260416-01:49:59.794|56=MINIFIX|6=162|11=1313231618|14=130|17=EXEC-1776304199791-1117|31=162|32=130|37=20260416-071959-613120|38=270|39=1|40=2|44=162|54=2|55=AAPL|59=0|60=20260416-07:19:59.794|150=F|151=140|527=TRADE-1776304199791-1117|10=012|
> 8=FIX.4.2|9=285|35=8|34=221|49=EXCHANGE|52=20260416-01:49:59.795|56=MINIFIX|6=158.38571428571427|11=1313231628|14=220|17=EXEC-1776304199791-1116|31=156.25|32=220|37=20260416-071959-613125|38=350|39=1|40=2|44=171.75|54=1|55=AAPL|59=0|60=20260416-07:19:59.795|150=F|151=130|527=TRADE-1776304199791-1116|10=088|
> 8=FIX.4.2|9=280|35=8|34=222|49=EXCHANGE|52=20260416-01:49:59.795|56=MINIFIX|6=158.38571428571427|11=1313231628|14=350|17=EXEC-1776304199791-1117|31=162|32=130|37=20260416-071959-613125|38=350|39=2|40=2|44=171.75|54=1|55=AAPL|59=0|60=20260416-07:19:59.795|150=F|151=0|527=TRADE-1776304199791-1117|10=095|
> 8=FIX.4.2|9=222|35=8|34=223|49=EXCHANGE|52=20260416-01:49:59.796|56=MINIFIX|6=0|11=1313231630|14=0|17=EXEC-1776303563942|31=0|32=0|37=20260416-071959-613126|38=380|39=0|40=2|44=199|54=2|55=META|59=0|60=20260416-07:19:59.796|150=0|151=380|10=088|
> 8=FIX.4.2|9=222|35=8|34=224|49=EXCHANGE|52=20260416-01:49:59.797|56=MINIFIX|6=0|11=1313231632|14=0|17=EXEC-1776303563943|31=0|32=0|37=20260416-071959-613127|38=230|39=0|40=2|44=172|54=1|55=META|59=0|60=20260416-07:19:59.797|150=0|151=230|10=073|
> 8=FIX.4.2|9=265|35=8|34=225|49=EXCHANGE|52=20260416-01:49:59.798|56=MINIFIX|6=164.5|11=1313231518|14=90|17=EXEC-1776304199797-1118|31=164.5|32=90|37=20260416-071959-613070|38=90|39=2|40=2|44=164.5|54=2|55=META|59=0|60=20260416-07:19:59.798|150=F|151=0|527=TRADE-1776304199797-1118|10=121|
> 8=FIX.4.2|9=265|35=8|34=226|49=EXCHANGE|52=20260416-01:49:59.800|56=MINIFIX|6=166.5|11=1313231490|14=20|17=EXEC-1776304199797-1119|31=166.5|32=20|37=20260416-071959-613056|38=20|39=2|40=2|44=166.5|54=2|55=META|59=0|60=20260416-07:19:59.800|150=F|151=0|527=TRADE-1776304199797-1119|10=080|
> 8=FIX.4.2|9=279|35=8|34=227|49=EXCHANGE|52=20260416-01:49:59.801|56=MINIFIX|6=164.86363636363637|11=1313231632|14=90|17=EXEC-1776304199797-1118|31=164.5|32=90|37=20260416-071959-613127|38=230|39=1|40=2|44=172|54=1|55=META|59=0|60=20260416-07:19:59.801|150=F|151=140|527=TRADE-1776304199797-1118|10=061|
> 8=FIX.4.2|9=280|35=8|34=228|49=EXCHANGE|52=20260416-01:49:59.801|56=MINIFIX|6=164.86363636363637|11=1313231632|14=110|17=EXEC-1776304199797-1119|31=166.5|32=20|37=20260416-071959-613127|38=230|39=1|40=2|44=172|54=1|55=META|59=0|60=20260416-07:19:59.801|150=F|151=120|527=TRADE-1776304199797-1119|10=090|
> 8=FIX.4.2|9=222|35=8|34=229|49=EXCHANGE|52=20260416-01:49:59.802|56=MINIFIX|6=0|11=1313231634|14=0|17=EXEC-1776303563948|31=0|32=0|37=20260416-071959-613128|38=50|39=0|40=2|44=191.25|54=2|55=DIS|59=0|60=20260416-07:19:59.802|150=0|151=50|10=044|
> 8=FIX.4.2|9=223|35=8|34=230|49=EXCHANGE|52=20260416-01:49:59.804|56=MINIFIX|6=0|11=1313231636|14=0|17=EXEC-1776303563949|31=0|32=0|37=20260416-071959-613129|38=120|39=0|40=2|44=150.5|54=1|55=BAC|59=0|60=20260416-07:19:59.804|150=0|151=120|10=055|
> 8=FIX.4.2|9=272|35=8|34=231|49=EXCHANGE|52=20260416-01:49:59.805|56=MINIFIX|6=150.25|11=1313231450|14=270|17=EXEC-1776304199804-1120|31=150.25|32=120|37=20260416-071959-613036|38=480|39=1|40=2|44=150.25|54=2|55=BAC|59=0|60=20260416-07:19:59.805|150=F|151=210|527=TRADE-1776304199804-1120|10=076|
> 8=FIX.4.2|9=269|35=8|34=232|49=EXCHANGE|52=20260416-01:49:59.806|56=MINIFIX|6=150.25|11=1313231636|14=120|17=EXEC-1776304199804-1120|31=150.25|32=120|37=20260416-071959-613129|38=120|39=2|40=2|44=150.5|54=1|55=BAC|59=0|60=20260416-07:19:59.806|150=F|151=0|527=TRADE-1776304199804-1120|10=186|
> 8=FIX.4.2|9=223|35=8|34=233|49=EXCHANGE|52=20260416-01:49:59.807|56=MINIFIX|6=0|11=1313231638|14=0|17=EXEC-1776303563952|31=0|32=0|37=20260416-071959-613130|38=460|39=0|40=2|44=155.75|54=2|55=MA|59=0|60=20260416-07:19:59.807|150=0|151=460|10=071|
> 8=FIX.4.2|9=268|35=8|34=234|49=EXCHANGE|52=20260416-01:49:59.809|56=MINIFIX|6=182.25|11=1313231532|14=380|17=EXEC-1776304199807-1121|31=182.25|32=60|37=20260416-071959-613077|38=380|39=2|40=2|44=182.25|54=1|55=MA|59=0|60=20260416-07:19:59.809|150=F|151=0|527=TRADE-1776304199807-1121|10=178|
> 8=FIX.4.2|9=267|35=8|34=235|49=EXCHANGE|52=20260416-01:49:59.810|56=MINIFIX|6=157.5|11=1313231524|14=400|17=EXEC-1776304199807-1122|31=157.5|32=400|37=20260416-071959-613073|38=480|39=1|40=2|44=157.5|54=1|55=MA|59=0|60=20260416-07:19:59.810|150=F|151=80|527=TRADE-1776304199807-1122|10=112|
> 8=FIX.4.2|9=281|35=8|34=236|49=EXCHANGE|52=20260416-01:49:59.811|56=MINIFIX|6=160.72826086956522|11=1313231638|14=60|17=EXEC-1776304199807-1121|31=182.25|32=60|37=20260416-071959-613130|38=460|39=1|40=2|44=155.75|54=2|55=MA|59=0|60=20260416-07:19:59.811|150=F|151=400|527=TRADE-1776304199807-1121|10=074|
> 8=FIX.4.2|9=280|35=8|34=237|49=EXCHANGE|52=20260416-01:49:59.812|56=MINIFIX|6=160.72826086956522|11=1313231638|14=460|17=EXEC-1776304199807-1122|31=157.5|32=400|37=20260416-071959-613130|38=460|39=2|40=2|44=155.75|54=2|55=MA|59=0|60=20260416-07:19:59.812|150=F|151=0|527=TRADE-1776304199807-1122|10=029|
> 8=FIX.4.2|9=223|35=8|34=238|49=EXCHANGE|52=20260416-01:49:59.814|56=MINIFIX|6=0|11=1313231640|14=0|17=EXEC-1776303563957|31=0|32=0|37=20260416-071959-613131|38=80|39=0|40=2|44=150.25|54=1|55=AMZN|59=0|60=20260416-07:19:59.814|150=0|151=80|10=128|
> 8=FIX.4.2|9=270|35=8|34=239|49=EXCHANGE|52=20260416-01:49:59.815|56=MINIFIX|6=141.25|11=1313231538|14=350|17=EXEC-1776304199814-1123|31=141.25|32=50|37=20260416-071959-613080|38=350|39=2|40=2|44=141.25|54=2|55=AMZN|59=0|60=20260416-07:19:59.815|150=F|151=0|527=TRADE-1776304199814-1123|10=061|
> 8=FIX.4.2|9=269|35=8|34=240|49=EXCHANGE|52=20260416-01:49:59.815|56=MINIFIX|6=141.25|11=1313231640|14=50|17=EXEC-1776304199814-1123|31=141.25|32=50|37=20260416-071959-613131|38=80|39=1|40=2|44=150.25|54=1|55=AMZN|59=0|60=20260416-07:19:59.815|150=F|151=30|527=TRADE-1776304199814-1123|10=002|
> 8=FIX.4.2|9=224|35=8|34=241|49=EXCHANGE|52=20260416-01:49:59.818|56=MINIFIX|6=0|11=1313231642|14=0|17=EXEC-1776303563960|31=0|32=0|37=20260416-071959-613132|38=420|39=0|40=2|44=146.25|54=2|55=BAC|59=0|60=20260416-07:19:59.818|150=0|151=420|10=114|
> 8=FIX.4.2|9=261|35=8|34=242|49=EXCHANGE|52=20260416-01:49:59.819|56=MINIFIX|6=149|11=1313231488|14=480|17=EXEC-1776304199818-1124|31=149|32=240|37=20260416-071959-613055|38=480|39=2|40=2|44=149|54=1|55=BAC|59=0|60=20260416-07:19:59.819|150=F|151=0|527=TRADE-1776304199818-1124|10=112|
