: Adding FIX 4.0 protocol
: Adding FIX 4.1 protocol
: Adding FIX 4.2 protocol
: Adding FIX 4.3 protocol
: Adding FIX 4.4 protocol
: Bulding FIX 4.4 help
: Pipe (batch/log) interface active at \\.\pipe\minifix
: (C)2009-2013 Björn Ahlqvist, available free of charge from http://elato.se/minifix/
: Welcome to Mini-FIX 1.5.25!
: Pipe interface connected
: Pipe interface disconnected (code 109)
: Pipe interface connected
: Batch Session sequence numbers reset
: SenderCompId set to MINIFIX
: TargetCompId set to EXCHANGE
: Batch Connect 127.0.0.1:9876
: Pipe interface disconnected (code 109)
: Connect to 127.0.0.1, resolving..
: IP address 127.0.0.1 port 9876, connecting..
: Connected to 127.0.0.1:9876 at 20260416-01:50:05 UTC
< 8=FIX.4.2|9=66|35=A|49=MINIFIX|56=EXCHANGE|34=1|52=20260416-01:50:05|98=0|108=30|10=137|
> 8=FIX.4.2|9=70|35=A|34=1|49=EXCHANGE|52=20260416-01:50:05.312|56=MINIFIX|98=0|108=30|10=072|
: <done waiting, message matches>
: T32 PHASE1_BUILD_BOOK_START 20260416-01:50:05
< 8=FIX.4.2|9=134|35=D|49=MINIFIX|56=EXCHANGE|34=1|52=20260416-01:50:05|11=1299709552|21=1|55=CSCO|54=1|60=20260416-01:50:05|40=2|44=108.13|38=100|59=0|10=138|
< 8=FIX.4.2|9=134|35=D|49=MINIFIX|56=EXCHANGE|34=2|52=20260416-01:50:05|11=1299709554|21=1|55=CSCO|54=1|60=20260416-01:50:05|40=2|44=101.35|38=100|59=0|10=138|
< 8=FIX.4.2|9=134|35=D|49=MINIFIX|56=EXCHANGE|34=3|52=20260416-01:50:05|11=1299709556|21=1|55=CSCO|54=1|60=20260416-01:50:05|40=2|44=109.04|38=100|59=0|10=145|
> 8=FIX.4.2|9=223|35=8|34=2|49=EXCHANGE|52=20260416-01:50:05.337|56=MINIFIX|6=0|11=1299709552|14=0|17=EXEC-1776303564155|31=0|32=0|37=20260416-072005-613217|38=100|39=0|40=2|44=108.13|54=1|55=CSCO|59=0|60=20260416-07:20:05.337|150=0|151=100|10=059|
< 8=FIX.4.2|9=134|35=D|49=MINIFIX|56=EXCHANGE|34=4|52=20260416-01:50:05|11=1299709558|21=1|55=CSCO|54=1|60=20260416-01:50:05|40=2|44=108.34|38=100|59=0|10=150|
> 8=FIX.4.2|9=235|35=8|34=3|49=EXCHANGE|52=20260416-01:50:05.337|56=MINIFIX|6=0|11=1299709554|14=0|17=EXEC-1776303564156|31=0|32=0|37=20260416-072005-613218|38=100|39=0|40=2|44=101.35000000000001|54=1|55=CSCO|59=0|60=20260416-07:20:05.337|150=0|151=100|10=129|
< 8=FIX.4.2|9=134|35=D|49=MINIFIX|56=EXCHANGE|34=5|52=20260416-01:50:05|11=1299709560|21=1|55=CSCO|54=1|60=20260416-01:50:05|40=2|44=101.26|38=100|59=0|10=138|
< 8=FIX.4.2|9=134|35=D|49=MINIFIX|56=EXCHANGE|34=6|52=20260416-01:50:05|11=1299709562|21=1|55=CSCO|54=1|60=20260416-01:50:05|40=2|44=109.67|38=100|59=0|10=154|
< 8=FIX.4.2|9=134|35=D|49=MINIFIX|56=EXCHANGE|34=7|52=20260416-01:50:05|11=1299709564|21=1|55=CSCO|54=1|60=20260416-01:50:05|40=2|44=109.12|38=100|59=0|10=147|
> 8=FIX.4.2|9=223|35=8|34=4|49=EXCHANGE|52=20260416-01:50:05.339|56=MINIFIX|6=0|11=1299709556|14=0|17=EXEC-1776303564157|31=0|32=0|37=20260416-072005-613219|38=100|39=0|40=2|44=109.04|54=1|55=CSCO|59=0|60=20260416-07:20:05.339|150=0|151=100|10=074|
< 8=FIX.4.2|9=133|35=D|49=MINIFIX|56=EXCHANGE|34=8|52=20260416-01:50:05|11=1299709566|21=1|55=CSCO|54=1|60=20260416-01:50:05|40=2|44=102.2|38=100|59=0|10=093|
> 8=FIX.4.2|9=223|35=8|34=5|49=EXCHANGE|52=20260416-01:50:05.341|56=MINIFIX|6=0|11=1299709558|14=0|17=EXEC-1776303564158|31=0|32=0|37=20260416-072005-613220|38=100|39=0|40=2|44=108.34|54=1|55=CSCO|59=0|60=20260416-07:20:05.341|150=0|151=100|10=058|
< 8=FIX.4.2|9=134|35=D|49=MINIFIX|56=EXCHANGE|34=9|52=20260416-01:50:05|11=1299709568|21=1|55=CSCO|54=1|60=20260416-01:50:05|40=2|44=106.31|38=100|59=0|10=151|
< 8=FIX.4.2|9=135|35=D|49=MINIFIX|56=EXCHANGE|34=10|52=20260416-01:50:05|11=1299709570|21=1|55=CSCO|54=1|60=20260416-01:50:05|40=2|44=103.07|38=100|59=0|10=185|
> 8=FIX.4.2|9=223|35=8|34=6|49=EXCHANGE|52=20260416-01:50:05.342|56=MINIFIX|6=0|11=1299709560|14=0|17=EXEC-1776303564159|31=0|32=0|37=20260416-072005-613221|38=100|39=0|40=2|44=101.26|54=1|55=CSCO|59=0|60=20260416-07:20:05.342|150=0|151=100|10=050|
< 8=FIX.4.2|9=135|35=D|49=MINIFIX|56=EXCHANGE|34=11|52=20260416-01:50:05|11=1299709572|21=1|55=CSCO|54=1|60=20260416-01:50:05|40=2|44=100.97|38=100|59=0|10=194|
> 8=FIX.4.2|9=223|35=8|34=7|49=EXCHANGE|52=20260416-01:50:05.343|56=MINIFIX|6=0|11=1299709562|14=0|17=EXEC-1776303564160|31=0|32=0|37=20260416-072005-613222|38=100|39=0|40=2|44=109.67|54=1|55=CSCO|59=0|60=20260416-07:20:05.343|150=0|151=100|10=061|
< 8=FIX.4.2|9=135|35=D|49=MINIFIX|56=EXCHANGE|34=12|52=20260416-01:50:05|11=1299709574|21=1|55=CSCO|54=1|60=20260416-01:50:05|40=2|44=105.46|38=100|59=0|10=196|
< 8=FIX.4.2|9=135|35=D|49=MINIFIX|56=EXCHANGE|34=13|52=20260416-01:50:05|11=1299709576|21=1|55=CSCO|54=1|60=20260416-01:50:05|40=2|44=102.78|38=100|59=0|10=201|
> 8=FIX.4.2|9=223|35=8|34=8|49=EXCHANGE|52=20260416-01:50:05.344|56=MINIFIX|6=0|11=1299709564|14=0|17=EXEC-1776303564161|31=0|32=0|37=20260416-072005-613223|38=100|39=0|40=2|44=109.12|54=1|55=CSCO|59=0|60=20260416-07:20:05.344|150=0|151=100|10=058|
< 8=FIX.4.2|9=135|35=D|49=MINIFIX|56=EXCHANGE|34=14|52=20260416-01:50:05|11=1299709578|21=1|55=CSCO|54=1|60=20260416-01:50:05|40=2|44=101.88|38=100|59=0|10=204|
> 8=FIX.4.2|9=222|35=8|34=9|49=EXCHANGE|52=20260416-01:50:05.345|56=MINIFIX|6=0|11=1299709566|14=0|17=EXEC-1776303564162|31=0|32=0|37=20260416-072005-613224|38=100|39=0|40=2|44=102.2|54=1|55=CSCO|59=0|60=20260416-07:20:05.345|150=0|151=100|10=008|
< 8=FIX.4.2|9=135|35=D|49=MINIFIX|56=EXCHANGE|34=15|52=20260416-01:50:05|11=1299709580|21=1|55=CSCO|54=1|60=20260416-01:50:05|40=2|44=105.46|38=100|59=0|10=196|
< 8=FIX.4.2|9=135|35=D|49=MINIFIX|56=EXCHANGE|34=16|52=20260416-01:50:05|11=1299709582|21=1|55=CSCO|54=1|60=20260416-01:50:05|40=2|44=109.91|38=100|59=0|10=203|
> 8=FIX.4.2|9=224|35=8|34=10|49=EXCHANGE|52=20260416-01:50:05.346|56=MINIFIX|6=0|11=1299709568|14=0|17=EXEC-1776303564163|31=0|32=0|37=20260416-072005-613225|38=100|39=0|40=2|44=106.31|54=1|55=CSCO|59=0|60=20260416-07:20:05.346|150=0|151=100|10=110|
< 8=FIX.4.2|9=135|35=D|49=MINIFIX|56=EXCHANGE|34=17|52=20260416-01:50:05|11=1299709584|21=1|55=CSCO|54=1|60=20260416-01:50:05|40=2|44=109.56|38=100|59=0|10=207|
> 8=FIX.4.2|9=236|35=8|34=11|49=EXCHANGE|52=20260416-01:50:05.348|56=MINIFIX|6=0|11=1299709570|14=0|17=EXEC-1776303564164|31=0|32=0|37=20260416-072005-613226|38=100|39=0|40=2|44=103.07000000000001|54=1|55=CSCO|59=0|60=20260416-07:20:05.348|150=0|151=100|10=178|
< 8=FIX.4.2|9=135|35=D|49=MINIFIX|56=EXCHANGE|34=18|52=20260416-01:50:05|11=1299709586|21=1|55=CSCO|54=1|60=20260416-01:50:05|40=2|44=109.95|38=100|59=0|10=213|
> 8=FIX.4.2|9=224|35=8|34=12|49=EXCHANGE|52=20260416-01:50:05.349|56=MINIFIX|6=0|11=1299709572|14=0|17=EXEC-1776303564165|31=0|32=0|37=20260416-072005-613227|38=100|39=0|40=2|44=100.97|54=1|55=CSCO|59=0|60=20260416-07:20:05.349|150=0|151=100|10=123|
< 8=FIX.4.2|9=135|35=D|49=MINIFIX|56=EXCHANGE|34=19|52=20260416-01:50:05|11=1299709588|21=1|55=CSCO|54=1|60=20260416-01:50:05|40=2|44=109.63|38=100|59=0|10=211|
> 8=FIX.4.2|9=236|35=8|34=13|49=EXCHANGE|52=20260416-01:50:05.349|56=MINIFIX|6=0|11=1299709574|14=0|17=EXEC-1776303564166|31=0|32=0|37=20260416-072005-613228|38=100|39=0|40=2|44=105.46000000000001|54=1|55=CSCO|59=0|60=20260416-07:20:05.349|150=0|151=100|10=195|
< 8=FIX.4.2|9=135|35=D|49=MINIFIX|56=EXCHANGE|34=20|52=20260416-01:50:05|11=1299709590|21=1|55=CSCO|54=1|60=20260416-01:50:05|40=2|44=109.66|38=100|59=0|10=199|
> 8=FIX.4.2|9=224|35=8|34=14|49=EXCHANGE|52=20260416-01:50:05.351|56=MINIFIX|6=0|11=1299709576|14=0|17=EXEC-1776303564167|31=0|32=0|37=20260416-072005-613229|38=100|39=0|40=2|44=102.78|54=1|55=CSCO|59=0|60=20260416-07:20:05.351|150=0|151=100|10=120|
< 8=FIX.4.2|9=135|35=D|49=MINIFIX|56=EXCHANGE|34=21|52=20260416-01:50:05|11=1299709592|21=1|55=CSCO|54=1|60=20260416-01:50:05|40=2|44=101.57|38=100|59=0|10=194|
< 8=FIX.4.2|9=135|35=D|49=MINIFIX|56=EXCHANGE|34=22|52=20260416-01:50:05|11=1299709594|21=1|55=CSCO|54=1|60=20260416-01:50:05|40=2|44=107.25|38=100|59=0|10=198|
> 8=FIX.4.2|9=224|35=8|34=15|49=EXCHANGE|52=20260416-01:50:05.351|56=MINIFIX|6=0|11=1299709578|14=0|17=EXEC-1776303564168|31=0|32=0|37=20260416-072005-613230|38=100|39=0|40=2|44=101.88|54=1|55=CSCO|59=0|60=20260416-07:20:05.351|150=0|151=100|10=116|
< 8=FIX.4.2|9=135|35=D|49=MINIFIX|56=EXCHANGE|34=23|52=20260416-01:50:05|11=1299709596|21=1|55=CSCO|54=1|60=20260416-01:50:05|40=2|44=109.69|38=100|59=0|10=211|
> 8=FIX.4.2|9=236|35=8|34=16|49=EXCHANGE|52=20260416-01:50:05.353|56=MINIFIX|6=0|11=1299709580|14=0|17=EXEC-1776303564169|31=0|32=0|37=20260416-072005-613231|38=100|39=0|40=2|44=105.46000000000001|54=1|55=CSCO|59=0|60=20260416-07:20:05.353|150=0|151=100|10=182|
< 8=FIX.4.2|9=134|35=D|49=MINIFIX|56=EXCHANGE|34=24|52=20260416-01:50:05|11=1299709598|21=1|55=CSCO|54=1|60=20260416-01:50:05|40=2|44=109.8|38=100|59=0|10=158|
> 8=FIX.4.2|9=224|35=8|34=17|49=EXCHANGE|52=20260416-01:50:05.353|56=MINIFIX|6=0|11=1299709582|14=0|17=EXEC-1776303564170|31=0|32=0|37=20260416-072005-613232|38=100|39=0|40=2|44=109.91|54=1|55=CSCO|59=0|60=20260416-07:20:05.353|150=0|151=100|10=114|
< 8=FIX.4.2|9=135|35=D|49=MINIFIX|56=EXCHANGE|34=25|52=20260416-01:50:05|11=1299709600|21=1|55=CSCO|54=1|60=20260416-01:50:05|40=2|44=109.56|38=100|59=0|10=195|
< 8=FIX.4.2|9=135|35=D|49=MINIFIX|56=EXCHANGE|34=26|52=20260416-01:50:05|11=1299709602|21=1|55=CSCO|54=1|60=20260416-01:50:05|40=2|44=101.09|38=100|59=0|10=188|
> 8=FIX.4.2|9=224|35=8|34=18|49=EXCHANGE|52=20260416-01:50:05.355|56=MINIFIX|6=0|11=1299709584|14=0|17=EXEC-1776303564171|31=0|32=0|37=20260416-072005-613233|38=100|39=0|40=2|44=109.56|54=1|55=CSCO|59=0|60=20260416-07:20:05.355|150=0|151=100|10=124|
< 8=FIX.4.2|9=135|35=D|49=MINIFIX|56=EXCHANGE|34=27|52=20260416-01:50:05|11=1299709604|21=1|55=CSCO|54=1|60=20260416-01:50:05|40=2|44=104.84|38=100|59=0|10=197|
> 8=FIX.4.2|9=224|35=8|34=19|49=EXCHANGE|52=20260416-01:50:05.356|56=MINIFIX|6=0|11=1299709586|14=0|17=EXEC-1776303564172|31=0|32=0|37=20260416-072005-613234|38=100|39=0|40=2|44=109.95|54=1|55=CSCO|59=0|60=20260416-07:20:05.356|150=0|151=100|10=134|
< 8=FIX.4.2|9=135|35=D|49=MINIFIX|56=EXCHANGE|34=28|52=20260416-01:50:05|11=1299709606|21=1|55=CSCO|54=1|60=20260416-01:50:05|40=2|44=107.97|38=100|59=0|10=207|
< 8=FIX.4.2|9=135|35=D|49=MINIFIX|56=EXCHANGE|34=29|52=20260416-01:50:05|11=1299709608|21=1|55=CSCO|54=1|60=20260416-01:50:05|40=2|44=107.99|38=100|59=0|10=212|
> 8=FIX.4.2|9=224|35=8|34=20|49=EXCHANGE|52=20260416-01:50:05.358|56=MINIFIX|6=0|11=1299709588|14=0|17=EXEC-1776303564173|31=0|32=0|37=20260416-072005-613235|38=100|39=0|40=2|44=109.63|54=1|55=CSCO|59=0|60=20260416-07:20:05.358|150=0|151=100|10=129|
< 8=FIX.4.2|9=135|35=D|49=MINIFIX|56=EXCHANGE|34=30|52=20260416-01:50:05|11=1299709610|21=1|55=CSCO|54=1|60=20260416-01:50:05|40=2|44=102.96|38=100|59=0|10=189|
> 8=FIX.4.2|9=224|35=8|34=21|49=EXCHANGE|52=20260416-01:50:05.360|56=MINIFIX|6=0|11=1299709590|14=0|17=EXEC-1776303564174|31=0|32=0|37=20260416-072005-613236|38=100|39=0|40=2|44=109.66|54=1|55=CSCO|59=0|60=20260416-07:20:05.359|150=0|151=100|10=122|
< 8=FIX.4.2|9=135|35=D|49=MINIFIX|56=EXCHANGE|34=31|52=20260416-01:50:05|11=1299709612|21=1|55=CSCO|54=1|60=20260416-01:50:05|40=2|44=101.41|38=100|59=0|10=181|
< 8=FIX.4.2|9=135|35=D|49=MINIFIX|56=EXCHANGE|34=32|52=20260416-01:50:05|11=1299709614|21=1|55=CSCO|54=1|60=20260416-01:50:05|40=2|44=100.04|38=100|59=0|10=182|
> 8=FIX.4.2|9=236|35=8|34=22|49=EXCHANGE|52=20260416-01:50:05.360|56=MINIFIX|6=0|11=1299709592|14=0|17=EXEC-1776303564175|31=0|32=0|37=20260416-072005-613237|38=100|39=0|40=2|44=101.57000000000001|54=1|55=CSCO|59=0|60=20260416-07:20:05.360|150=0|151=100|10=179|
< 8=FIX.4.2|9=135|35=D|49=MINIFIX|56=EXCHANGE|34=33|52=20260416-01:50:05|11=1299709616|21=1|55=CSCO|54=1|60=20260416-01:50:05|40=2|44=104.21|38=100|59=0|10=188|
> 8=FIX.4.2|9=224|35=8|34=23|49=EXCHANGE|52=20260416-01:50:05.361|56=MINIFIX|6=0|11=1299709594|14=0|17=EXEC-1776303564176|31=0|32=0|37=20260416-072005-613238|38=100|39=0|40=2|44=107.25|54=1|55=CSCO|59=0|60=20260416-07:20:05.361|150=0|151=100|10=119|
< 8=FIX.4.2|9=135|35=D|49=MINIFIX|56=EXCHANGE|34=34|52=20260416-01:50:05|11=1299709618|21=1|55=CSCO|54=1|60=20260416-01:50:05|40=2|44=101.12|38=100|59=0|10=188|
> 8=FIX.4.2|9=224|35=8|34=24|49=EXCHANGE|52=20260416-01:50:05.362|56=MINIFIX|6=0|11=1299709596|14=0|17=EXEC-1776303564177|31=0|32=0|37=20260416-072005-613239|38=100|39=0|40=2|44=109.69|54=1|55=CSCO|59=0|60=20260416-07:20:05.362|150=0|151=100|10=136|
< 8=FIX.4.2|9=135|35=D|49=MINIFIX|56=EXCHANGE|34=35|52=20260416-01:50:05|11=1299709620|21=1|55=CSCO|54=1|60=20260416-01:50:05|40=2|44=109.14|38=100|59=0|10=192|
< 8=FIX.4.2|9=135|35=D|49=MINIFIX|56=EXCHANGE|34=36|52=20260416-01:50:05|11=1299709622|21=1|55=CSCO|54=1|60=20260416-01:50:05|40=2|44=106.39|38=100|59=0|10=199|
> 8=FIX.4.2|9=223|35=8|34=25|49=EXCHANGE|52=20260416-01:50:05.364|56=MINIFIX|6=0|11=1299709598|14=0|17=EXEC-1776303564178|31=0|32=0|37=20260416-072005-613240|38=100|39=0|40=2|44=109.8|54=1|55=CSCO|59=0|60=20260416-07:20:05.364|150=0|151=100|10=080|
< 8=FIX.4.2|9=135|35=D|49=MINIFIX|56=EXCHANGE|34=37|52=20260416-01:50:05|11=1299709624|21=1|55=CSCO|54=1|60=20260416-01:50:05|40=2|44=107.91|38=100|59=0|10=201|
> 8=FIX.4.2|9=224|35=8|34=26|49=EXCHANGE|52=20260416-01:50:05.365|56=MINIFIX|6=0|11=1299709600|14=0|17=EXEC-1776303564179|31=0|32=0|37=20260416-072005-613241|38=100|39=0|40=2|44=109.56|54=1|55=CSCO|59=0|60=20260416-07:20:05.365|150=0|151=100|10=121|
< 8=FIX.4.2|9=135|35=D|49=MINIFIX|56=EXCHANGE|34=38|52=20260416-01:50:05|11=1299709626|21=1|55=CSCO|54=1|60=20260416-01:50:05|40=2|44=108.77|38=100|59=0|10=209|
< 8=FIX.4.2|9=135|35=D|49=MINIFIX|56=EXCHANGE|34=39|52=20260416-01:50:05|11=1299709628|21=1|55=CSCO|54=1|60=20260416-01:50:05|40=2|44=109.58|38=100|59=0|10=212|
> 8=FIX.4.2|9=224|35=8|34=27|49=EXCHANGE|52=20260416-01:50:05.367|56=MINIFIX|6=0|11=1299709602|14=0|17=EXEC-1776303564180|31=0|32=0|37=20260416-072005-613242|38=100|39=0|40=2|44=101.09|54=1|55=CSCO|59=0|60=20260416-07:20:05.367|150=0|151=100|10=111|
< 8=FIX.4.2|9=135|35=D|49=MINIFIX|56=EXCHANGE|34=40|52=20260416-01:50:05|11=1299709630|21=1|55=CSCO|54=1|60=20260416-01:50:05|40=2|44=105.03|38=100|59=0|10=183|
> 8=FIX.4.2|9=224|35=8|34=28|49=EXCHANGE|52=20260416-01:50:05.368|56=MINIFIX|6=0|11=1299709604|14=0|17=EXEC-1776303564181|31=0|32=0|37=20260416-072005-613243|38=100|39=0|40=2|44=104.84|54=1|55=CSCO|59=0|60=20260416-07:20:05.368|150=0|151=100|10=124|
< 8=FIX.4.2|9=135|35=D|49=MINIFIX|56=EXCHANGE|34=41|52=20260416-01:50:05|11=1299709632|21=1|55=CSCO|54=1|60=20260416-01:50:05|40=2|44=106.55|38=100|59=0|10=194|
< 8=FIX.4.2|9=135|35=D|49=MINIFIX|56=EXCHANGE|34=42|52=20260416-01:50:05|11=1299709634|21=1|55=CSCO|54=1|60=20260416-01:50:05|40=2|44=107.97|38=100|59=0|10=204|
> 8=FIX.4.2|9=224|35=8|34=29|49=EXCHANGE|52=20260416-01:50:05.369|56=MINIFIX|6=0|11=1299709606|14=0|17=EXEC-1776303564182|31=0|32=0|37=20260416-072005-613244|38=100|39=0|40=2|44=107.97|54=1|55=CSCO|59=0|60=20260416-07:20:05.369|150=0|151=100|10=138|
< 8=FIX.4.2|9=135|35=D|49=MINIFIX|56=EXCHANGE|34=43|52=20260416-01:50:05|11=1299709636|21=1|55=CSCO|54=1|60=20260416-01:50:05|40=2|44=100.35|38=100|59=0|10=192|
< 8=FIX.4.2|9=134|35=D|49=MINIFIX|56=EXCHANGE|34=44|52=20260416-01:50:05|11=1299709638|21=1|55=CSCO|54=1|60=20260416-01:50:05|40=2|44=103.6|38=100|59=0|10=147|
> 8=FIX.4.2|9=236|35=8|34=30|49=EXCHANGE|52=20260416-01:50:05.370|56=MINIFIX|6=0|11=1299709608|14=0|17=EXEC-1776303564183|31=0|32=0|37=20260416-072005-613245|38=100|39=0|40=2|44=107.99000000000001|54=1|55=CSCO|59=0|60=20260416-07:20:05.370|150=0|151=100|10=188|
< 8=FIX.4.2|9=135|35=D|49=MINIFIX|56=EXCHANGE|34=45|52=20260416-01:50:05|11=1299709640|21=1|55=CSCO|54=1|60=20260416-01:50:05|40=2|44=108.48|38=100|59=0|10=201|
> 8=FIX.4.2|9=236|35=8|34=31|49=EXCHANGE|52=20260416-01:50:05.372|56=MINIFIX|6=0|11=1299709610|14=0|17=EXEC-1776303564184|31=0|32=0|37=20260416-072005-613246|38=100|39=0|40=2|44=102.96000000000001|54=1|55=CSCO|59=0|60=20260416-07:20:05.372|150=0|151=100|10=180|
< 8=FIX.4.2|9=135|35=D|49=MINIFIX|56=EXCHANGE|34=46|52=20260416-01:50:05|11=1299709642|21=1|55=CSCO|54=1|60=20260416-01:50:05|40=2|44=102.11|38=100|59=0|10=188|
< 8=FIX.4.2|9=135|35=D|49=MINIFIX|56=EXCHANGE|34=47|52=20260416-01:50:05|11=1299709644|21=1|55=CSCO|54=1|60=20260416-01:50:05|40=2|44=109.33|38=100|59=0|10=202|
> 8=FIX.4.2|9=224|35=8|34=32|49=EXCHANGE|52=20260416-01:50:05.373|56=MINIFIX|6=0|11=1299709612|14=0|17=EXEC-1776303564185|31=0|32=0|37=20260416-072005-613247|38=100|39=0|40=2|44=101.41|54=1|55=CSCO|59=0|60=20260416-07:20:05.373|150=0|151=100|10=108|
< 8=FIX.4.2|9=134|35=D|49=MINIFIX|56=EXCHANGE|34=48|52=20260416-01:50:05|11=1299709646|21=1|55=CSCO|54=1|60=20260416-01:50:05|40=2|44=106.8|38=100|59=0|10=155|
< 8=FIX.4.2|9=135|35=D|49=MINIFIX|56=EXCHANGE|34=49|52=20260416-01:50:05|11=1299709648|21=1|55=CSCO|54=1|60=20260416-01:50:05|40=2|44=106.78|38=100|59=0|10=214|
< 8=FIX.4.2|9=135|35=D|49=MINIFIX|56=EXCHANGE|34=50|52=20260416-01:50:05|11=1299709650|21=1|55=CSCO|54=1|60=20260416-01:50:05|40=2|44=103.98|38=100|59=0|10=198|
> 8=FIX.4.2|9=224|35=8|34=33|49=EXCHANGE|52=20260416-01:50:05.374|56=MINIFIX|6=0|11=1299709614|14=0|17=EXEC-1776303564186|31=0|32=0|37=20260416-072005-613248|38=100|39=0|40=2|44=100.04|54=1|55=CSCO|59=0|60=20260416-07:20:05.374|150=0|151=100|10=113|
< 8=FIX.4.2|9=135|35=D|49=MINIFIX|56=EXCHANGE|34=51|52=20260416-01:50:05|11=1299709652|21=1|55=CSCO|54=1|60=20260416-01:50:05|40=2|44=107.56|38=100|59=0|10=199|
> 8=FIX.4.2|9=236|35=8|34=34|49=EXCHANGE|52=20260416-01:50:05.375|56=MINIFIX|6=0|11=1299709616|14=0|17=EXEC-1776303564187|31=0|32=0|37=20260416-072005-613249|38=100|39=0|40=2|44=104.21000000000001|54=1|55=CSCO|59=0|60=20260416-07:20:05.375|150=0|151=100|10=191|
< 8=FIX.4.2|9=135|35=D|49=MINIFIX|56=EXCHANGE|34=52|52=20260416-01:50:05|11=1299709654|21=1|55=CSCO|54=1|60=20260416-01:50:05|40=2|44=107.39|38=100|59=0|10=203|
< 8=FIX.4.2|9=135|35=D|49=MINIFIX|56=EXCHANGE|34=53|52=20260416-01:50:05|11=1299709656|21=1|55=CSCO|54=1|60=20260416-01:50:05|40=2|44=107.42|38=100|59=0|10=200|
> 8=FIX.4.2|9=224|35=8|34=35|49=EXCHANGE|52=20260416-01:50:05.377|56=MINIFIX|6=0|11=1299709618|14=0|17=EXEC-1776303564188|31=0|32=0|37=20260416-072005-613250|38=100|39=0|40=2|44=101.12|54=1|55=CSCO|59=0|60=20260416-07:20:05.377|150=0|151=100|10=120|
< 8=FIX.4.2|9=135|35=D|49=MINIFIX|56=EXCHANGE|34=54|52=20260416-01:50:05|11=1299709658|21=1|55=CSCO|54=1|60=20260416-01:50:05|40=2|44=104.74|38=100|59=0|10=205|
> 8=FIX.4.2|9=224|35=8|34=36|49=EXCHANGE|52=20260416-01:50:05.378|56=MINIFIX|6=0|11=1299709620|14=0|17=EXEC-1776303564189|31=0|32=0|37=20260416-072005-613251|38=100|39=0|40=2|44=109.14|54=1|55=CSCO|59=0|60=20260416-07:20:05.378|150=0|151=100|10=128|
< 8=FIX.4.2|9=135|35=D|49=MINIFIX|56=EXCHANGE|34=55|52=20260416-01:50:05|11=1299709660|21=1|55=CSCO|54=1|60=20260416-01:50:05|40=2|44=103.91|38=100|59=0|10=197|
< 8=FIX.4.2|9=135|35=D|49=MINIFIX|56=EXCHANGE|34=56|52=20260416-01:50:05|11=1299709662|21=1|55=CSCO|54=1|60=20260416-01:50:05|40=2|44=104.21|38=100|59=0|10=194|
> 8=FIX.4.2|9=224|35=8|34=37|49=EXCHANGE|52=20260416-01:50:05.379|56=MINIFIX|6=0|11=1299709622|14=0|17=EXEC-1776303564190|31=0|32=0|37=20260416-072005-613252|38=100|39=0|40=2|44=106.39|54=1|55=CSCO|59=0|60=20260416-07:20:05.379|150=0|151=100|10=130|
< 8=FIX.4.2|9=135|35=D|49=MINIFIX|56=EXCHANGE|34=57|52=20260416-01:50:05|11=1299709664|21=1|55=CSCO|54=1|60=20260416-01:50:05|40=2|44=106.54|38=100|59=0|10=205|
> 8=FIX.4.2|9=224|35=8|34=38|49=EXCHANGE|52=20260416-01:50:05.381|56=MINIFIX|6=0|11=1299709624|14=0|17=EXEC-1776303564191|31=0|32=0|37=20260416-072005-613253|38=100|39=0|40=2|44=107.91|54=1|55=CSCO|59=0|60=20260416-07:20:05.381|150=0|151=100|10=120|
< 8=FIX.4.2|9=135|35=D|49=MINIFIX|56=EXCHANGE|34=58|52=20260416-01:50:05|11=1299709666|21=1|55=CSCO|54=1|60=20260416-01:50:05|40=2|44=101.73|38=100|59=0|10=204|
< 8=FIX.4.2|9=135|35=D|49=MINIFIX|56=EXCHANGE|34=59|52=20260416-01:50:05|11=1299709668|21=1|55=CSCO|54=1|60=20260416-01:50:05|40=2|44=101.71|38=100|59=0|10=205|
> 8=FIX.4.2|9=224|35=8|34=39|49=EXCHANGE|52=20260416-01:50:05.382|56=MINIFIX|6=0|11=1299709626|14=0|17=EXEC-1776303564192|31=0|32=0|37=20260416-072005-613254|38=100|39=0|40=2|44=108.77|54=1|55=CSCO|59=0|60=20260416-07:20:05.382|150=0|151=100|10=132|
< 8=FIX.4.2|9=135|35=D|49=MINIFIX|56=EXCHANGE|34=60|52=20260416-01:50:05|11=1299709670|21=1|55=CSCO|54=1|60=20260416-01:50:05|40=2|44=103.01|38=100|59=0|10=185|
> 8=FIX.4.2|9=224|35=8|34=40|49=EXCHANGE|52=20260416-01:50:05.383|56=MINIFIX|6=0|11=1299709628|14=0|17=EXEC-1776303564193|31=0|32=0|37=20260416-072005-613255|38=100|39=0|40=2|44=109.58|54=1|55=CSCO|59=0|60=20260416-07:20:05.383|150=0|151=100|10=130|
< 8=FIX.4.2|9=135|35=D|49=MINIFIX|56=EXCHANGE|34=61|52=20260416-01:50:05|11=1299709672|21=1|55=CSCO|54=1|60=20260416-01:50:05|40=2|44=107.05|38=100|59=0|10=196|
< 8=FIX.4.2|9=135|35=D|49=MINIFIX|56=EXCHANGE|34=62|52=20260416-01:50:05|11=1299709674|21=1|55=CSCO|54=1|60=20260416-01:50:05|40=2|44=107.96|38=100|59=0|10=209|
> 8=FIX.4.2|9=224|35=8|34=41|49=EXCHANGE|52=20260416-01:50:05.384|56=MINIFIX|6=0|11=1299709630|14=0|17=EXEC-1776303564194|31=0|32=0|37=20260416-072005-613256|38=100|39=0|40=2|44=105.03|54=1|55=CSCO|59=0|60=20260416-07:20:05.384|150=0|151=100|10=114|
< 8=FIX.4.2|9=135|35=D|49=MINIFIX|56=EXCHANGE|34=63|52=20260416-01:50:05|11=1299709676|21=1|55=CSCO|54=1|60=20260416-01:50:05|40=2|44=100.31|38=100|59=0|10=194|
< 8=FIX.4.2|9=135|35=D|49=MINIFIX|56=EXCHANGE|34=64|52=20260416-01:50:05|11=1299709678|21=1|55=CSCO|54=1|60=20260416-01:50:05|40=2|44=103.16|38=100|59=0|10=203|
> 8=FIX.4.2|9=224|35=8|34=42|49=EXCHANGE|52=20260416-01:50:05.385|56=MINIFIX|6=0|11=1299709632|14=0|17=EXEC-1776303564195|31=0|32=0|37=20260416-072005-613257|38=100|39=0|40=2|44=106.55|54=1|55=CSCO|59=0|60=20260416-07:20:05.385|150=0|151=100|10=129|
< 8=FIX.4.2|9=135|35=D|49=MINIFIX|56=EXCHANGE|34=65|52=20260416-01:50:05|11=1299709680|21=1|55=CSCO|54=1|60=20260416-01:50:05|40=2|44=102.76|38=100|59=0|10=202|
> 8=FIX.4.2|9=224|35=8|34=43|49=EXCHANGE|52=20260416-01:50:05.386|56=MINIFIX|6=0|11=1299709634|14=0|17=EXEC-1776303564196|31=0|32=0|37=20260416-072005-613258|38=100|39=0|40=2|44=107.97|54=1|55=CSCO|59=0|60=20260416-07:20:05.386|150=0|151=100|10=143|
< 8=FIX.4.2|9=135|35=D|49=MINIFIX|56=EXCHANGE|34=66|52=20260416-01:50:05|11=1299709682|21=1|55=CSCO|54=1|60=20260416-01:50:05|40=2|44=108.71|38=100|59=0|10=206|
< 8=FIX.4.2|9=135|35=D|49=MINIFIX|56=EXCHANGE|34=67|52=20260416-01:50:05|11=1299709684|21=1|55=CSCO|54=1|60=20260416-01:50:05|40=2|44=100.46|38=100|59=0|10=203|
> 8=FIX.4.2|9=236|35=8|34=44|49=EXCHANGE|52=20260416-01:50:05.387|56=MINIFIX|6=0|11=1299709636|14=0|17=EXEC-1776303564197|31=0|32=0|37=20260416-072005-613259|38=100|39=0|40=2|44=100.35000000000001|54=1|55=CSCO|59=0|60=20260416-07:20:05.387|150=0|151=100|10=203|
< 8=FIX.4.2|9=135|35=D|49=MINIFIX|56=EXCHANGE|34=68|52=20260416-01:50:05|11=1299709686|21=1|55=CSCO|54=1|60=20260416-01:50:05|40=2|44=101.48|38=100|59=0|10=209|
< 8=FIX.4.2|9=135|35=D|49=MINIFIX|56=EXCHANGE|34=69|52=20260416-01:50:05|11=1299709688|21=1|55=CSCO|54=1|60=20260416-01:50:05|40=2|44=100.97|38=100|59=0|10=215|
> 8=FIX.4.2|9=236|35=8|34=45|49=EXCHANGE|52=20260416-01:50:05.390|56=MINIFIX|6=0|11=1299709638|14=0|17=EXEC-1776303564198|31=0|32=0|37=20260416-072005-613260|38=100|39=0|40=2|44=103.60000000000001|54=1|55=CSCO|59=0|60=20260416-07:20:05.390|150=0|151=100|10=188|
< 8=FIX.4.2|9=135|35=D|49=MINIFIX|56=EXCHANGE|34=70|52=20260416-01:50:05|11=1299709690|21=1|55=CSCO|54=1|60=20260416-01:50:05|40=2|44=109.93|38=100|59=0|10=205|
> 8=FIX.4.2|9=224|35=8|34=46|49=EXCHANGE|52=20260416-01:50:05.391|56=MINIFIX|6=0|11=1299709640|14=0|17=EXEC-1776303564199|31=0|32=0|37=20260416-072005-613261|38=100|39=0|40=2|44=108.48|54=1|55=CSCO|59=0|60=20260416-07:20:05.391|150=0|151=100|10=129|
< 8=FIX.4.2|9=135|35=D|49=MINIFIX|56=EXCHANGE|34=71|52=20260416-01:50:05|11=1299709692|21=1|55=CSCO|54=1|60=20260416-01:50:05|40=2|44=108.22|38=100|59=0|10=199|
< 8=FIX.4.2|9=135|35=D|49=MINIFIX|56=EXCHANGE|34=72|52=20260416-01:50:05|11=1299709694|21=1|55=CSCO|54=1|60=20260416-01:50:05|40=2|44=108.21|38=100|59=0|10=201|
> 8=FIX.4.2|9=224|35=8|34=47|49=EXCHANGE|52=20260416-01:50:05.392|56=MINIFIX|6=0|11=1299709642|14=0|17=EXEC-1776303564200|31=0|32=0|37=20260416-072005-613262|38=100|39=0|40=2|44=102.11|54=1|55=CSCO|59=0|60=20260416-07:20:05.392|150=0|151=100|10=102|
< 8=FIX.4.2|9=135|35=D|49=MINIFIX|56=EXCHANGE|34=73|52=20260416-01:50:05|11=1299709696|21=1|55=CSCO|54=1|60=20260416-01:50:05|40=2|44=106.94|38=100|59=0|10=212|
< 8=FIX.4.2|9=135|35=D|49=MINIFIX|56=EXCHANGE|34=74|52=20260416-01:50:05|11=1299709698|21=1|55=CSCO|54=1|60=20260416-01:50:05|40=2|44=101.25|38=100|59=0|10=204|
> 8=FIX.4.2|9=224|35=8|34=48|49=EXCHANGE|52=20260416-01:50:05.393|56=MINIFIX|6=0|11=1299709644|14=0|17=EXEC-1776303564201|31=0|32=0|37=20260416-072005-613263|38=100|39=0|40=2|44=109.33|54=1|55=CSCO|59=0|60=20260416-07:20:05.393|150=0|151=100|10=120|
< 8=FIX.4.2|9=135|35=D|49=MINIFIX|56=EXCHANGE|34=75|52=20260416-01:50:05|11=1299709700|21=1|55=CSCO|54=1|60=20260416-01:50:05|40=2|44=103.16|38=100|59=0|10=191|
> 8=FIX.4.2|9=223|35=8|34=49|49=EXCHANGE|52=20260416-01:50:05.394|56=MINIFIX|6=0|11=1299709646|14=0|17=EXEC-1776303564202|31=0|32=0|37=20260416-072005-613264|38=100|39=0|40=2|44=106.8|54=1|55=CSCO|59=0|60=20260416-07:20:05.394|150=0|151=100|10=077|
< 8=FIX.4.2|9=135|35=D|49=MINIFIX|56=EXCHANGE|34=76|52=20260416-01:50:05|11=1299709702|21=1|55=CSCO|54=1|60=20260416-01:50:05|40=2|44=107.62|38=100|59=0|10=199|
> 8=FIX.4.2|9=224|35=8|34=50|49=EXCHANGE|52=20260416-01:50:05.396|56=MINIFIX|6=0|11=1299709648|14=0|17=EXEC-1776303564203|31=0|32=0|37=20260416-072005-613265|38=100|39=0|40=2|44=106.78|54=1|55=CSCO|59=0|60=20260416-07:20:05.396|150=0|151=100|10=133|
< 8=FIX.4.2|9=135|35=D|49=MINIFIX|56=EXCHANGE|34=77|52=20260416-01:50:05|11=1299709704|21=1|55=CSCO|54=1|60=20260416-01:50:05|40=2|44=109.49|38=100|59=0|10=209|
< 8=FIX.4.2|9=134|35=D|49=MINIFIX|56=EXCHANGE|34=78|52=20260416-01:50:05|11=1299709706|21=1|55=CSCO|54=1|60=20260416-01:50:05|40=2|44=104.9|38=100|59=0|10=154|
> 8=FIX.4.2|9=224|35=8|34=51|49=EXCHANGE|52=20260416-01:50:05.397|56=MINIFIX|6=0|11=1299709650|14=0|17=EXEC-1776303564204|31=0|32=0|37=20260416-072005-613266|38=100|39=0|40=2|44=103.98|54=1|55=CSCO|59=0|60=20260416-07:20:05.397|150=0|151=100|10=130|
< 8=FIX.4.2|9=135|35=D|49=MINIFIX|56=EXCHANGE|34=79|52=20260416-01:50:05|11=1299709708|21=1|55=CSCO|54=1|60=20260416-01:50:05|40=2|44=100.34|38=100|59=0|10=200|
< 8=FIX.4.2|9=135|35=D|49=MINIFIX|56=EXCHANGE|34=80|52=20260416-01:50:05|11=1299709710|21=1|55=CSCO|54=1|60=20260416-01:50:05|40=2|44=106.62|38=100|59=0|10=192|
> 8=FIX.4.2|9=224|35=8|34=52|49=EXCHANGE|52=20260416-01:50:05.400|56=MINIFIX|6=0|11=1299709652|14=0|17=EXEC-1776303564205|31=0|32=0|37=20260416-072005-613267|38=100|39=0|40=2|44=107.56|54=1|55=CSCO|59=0|60=20260416-07:20:05.400|150=0|151=100|10=103|
< 8=FIX.4.2|9=135|35=D|49=MINIFIX|56=EXCHANGE|34=81|52=20260416-01:50:05|11=1299709712|21=1|55=CSCO|54=1|60=20260416-01:50:05|40=2|44=104.38|38=100|59=0|10=196|
> 8=FIX.4.2|9=224|35=8|34=53|49=EXCHANGE|52=20260416-01:50:05.401|56=MINIFIX|6=0|11=1299709654|14=0|17=EXEC-1776303564206|31=0|32=0|37=20260416-072005-613268|38=100|39=0|40=2|44=107.39|54=1|55=CSCO|59=0|60=20260416-07:20:05.401|150=0|151=100|10=111|
< 8=FIX.4.2|9=135|35=D|49=MINIFIX|56=EXCHANGE|34=82|52=20260416-01:50:05|11=1299709714|21=1|55=CSCO|54=1|60=20260416-01:50:05|40=2|44=101.25|38=100|59=0|10=192|
< 8=FIX.4.2|9=135|35=D|49=MINIFIX|56=EXCHANGE|34=83|52=20260416-01:50:05|11=1299709716|21=1|55=CSCO|54=1|60=20260416-01:50:05|40=2|44=103.81|38=100|59=0|10=199|
> 8=FIX.4.2|9=224|35=8|34=54|49=EXCHANGE|52=20260416-01:50:05.402|56=MINIFIX|6=0|11=1299709656|14=0|17=EXEC-1776303564207|31=0|32=0|37=20260416-072005-613269|38=100|39=0|40=2|44=107.42|54=1|55=CSCO|59=0|60=20260416-07:20:05.402|150=0|151=100|10=112|
< 8=FIX.4.2|9=135|35=D|49=MINIFIX|56=EXCHANGE|34=84|52=20260416-01:50:05|11=1299709718|21=1|55=CSCO|54=1|60=20260416-01:50:05|40=2|44=102.09|38=100|59=0|10=201|
> 8=FIX.4.2|9=236|35=8|34=55|49=EXCHANGE|52=20260416-01:50:05.403|56=MINIFIX|6=0|11=1299709658|14=0|17=EXEC-1776303564208|31=0|32=0|37=20260416-072005-613270|38=100|39=0|40=2|44=104.74000000000001|54=1|55=CSCO|59=0|60=20260416-07:20:05.403|150=0|151=100|10=180|
< 8=FIX.4.2|9=135|35=D|49=MINIFIX|56=EXCHANGE|34=85|52=20260416-01:50:05|11=1299709720|21=1|55=CSCO|54=1|60=20260416-01:50:05|40=2|44=107.64|38=100|59=0|10=201|
< 8=FIX.4.2|9=135|35=D|49=MINIFIX|56=EXCHANGE|34=86|52=20260416-01:50:05|11=1299709722|21=1|55=CSCO|54=1|60=20260416-01:50:05|40=2|44=100.51|38=100|59=0|10=193|
> 8=FIX.4.2|9=224|35=8|34=56|49=EXCHANGE|52=20260416-01:50:05.404|56=MINIFIX|6=0|11=1299709660|14=0|17=EXEC-1776303564209|31=0|32=0|37=20260416-072005-613271|38=100|39=0|40=2|44=103.91|54=1|55=CSCO|59=0|60=20260416-07:20:05.404|150=0|151=100|10=108|
< 8=FIX.4.2|9=135|35=D|49=MINIFIX|56=EXCHANGE|34=87|52=20260416-01:50:05|11=1299709724|21=1|55=CSCO|54=1|60=20260416-01:50:05|40=2|44=107.94|38=100|59=0|10=210|
> 8=FIX.4.2|9=236|35=8|34=57|49=EXCHANGE|52=20260416-01:50:05.406|56=MINIFIX|6=0|11=1299709662|14=0|17=EXEC-1776303564210|31=0|32=0|37=20260416-072005-613272|38=100|39=0|40=2|44=104.21000000000001|54=1|55=CSCO|59=0|60=20260416-07:20:05.406|150=0|151=100|10=170|
< 8=FIX.4.2|9=135|35=D|49=MINIFIX|56=EXCHANGE|34=88|52=20260416-01:50:05|11=1299709726|21=1|55=CSCO|54=1|60=20260416-01:50:05|40=2|44=100.36|38=100|59=0|10=202|
< 8=FIX.4.2|9=135|35=D|49=MINIFIX|56=EXCHANGE|34=89|52=20260416-01:50:05|11=1299709728|21=1|55=CSCO|54=1|60=20260416-01:50:05|40=2|44=101.86|38=100|59=0|10=211|
> 8=FIX.4.2|9=224|35=8|34=58|49=EXCHANGE|52=20260416-01:50:05.407|56=MINIFIX|6=0|11=1299709664|14=0|17=EXEC-1776303564211|31=0|32=0|37=20260416-072005-613273|38=100|39=0|40=2|44=106.54|54=1|55=CSCO|59=0|60=20260416-07:20:05.407|150=0|151=100|10=117|
< 8=FIX.4.2|9=135|35=D|49=MINIFIX|56=EXCHANGE|34=90|52=20260416-01:50:05|11=1299709730|21=1|55=CSCO|54=1|60=20260416-01:50:05|40=2|44=104.08|38=100|59=0|10=193|
> 8=FIX.4.2|9=224|35=8|34=59|49=EXCHANGE|52=20260416-01:50:05.408|56=MINIFIX|6=0|11=1299709666|14=0|17=EXEC-1776303564212|31=0|32=0|37=20260416-072005-613274|38=100|39=0|40=2|44=101.73|54=1|55=CSCO|59=0|60=20260416-07:20:05.408|150=0|151=100|10=120|
< 8=FIX.4.2|9=135|35=D|49=MINIFIX|56=EXCHANGE|34=91|52=20260416-01:50:05|11=1299709732|21=1|55=CSCO|54=1|60=20260416-01:50:05|40=2|44=104.89|38=100|59=0|10=205|
< 8=FIX.4.2|9=135|35=D|49=MINIFIX|56=EXCHANGE|34=92|52=20260416-01:50:05|11=1299709734|21=1|55=CSCO|54=1|60=20260416-01:50:05|40=2|44=104.57|38=100|59=0|10=203|
> 8=FIX.4.2|9=236|35=8|34=60|49=EXCHANGE|52=20260416-01:50:05.410|56=MINIFIX|6=0|11=1299709668|14=0|17=EXEC-1776303564213|31=0|32=0|37=20260416-072005-613275|38=100|39=0|40=2|44=101.71000000000001|54=1|55=CSCO|59=0|60=20260416-07:20:05.410|150=0|151=100|10=168|
< 8=FIX.4.2|9=135|35=D|49=MINIFIX|56=EXCHANGE|34=93|52=20260416-01:50:05|11=1299709736|21=1|55=CSCO|54=1|60=20260416-01:50:05|40=2|44=104.45|38=100|59=0|10=203|
< 8=FIX.4.2|9=135|35=D|49=MINIFIX|56=EXCHANGE|34=94|52=20260416-01:50:05|11=1299709738|21=1|55=CSCO|54=1|60=20260416-01:50:05|40=2|44=104.87|38=100|59=0|10=212|
> 8=FIX.4.2|9=224|35=8|34=61|49=EXCHANGE|52=20260416-01:50:05.411|56=MINIFIX|6=0|11=1299709670|14=0|17=EXEC-1776303564214|31=0|32=0|37=20260416-072005-613276|38=100|39=0|40=2|44=103.01|54=1|55=CSCO|59=0|60=20260416-07:20:05.411|150=0|151=100|10=093|
< 8=FIX.4.2|9=135|35=D|49=MINIFIX|56=EXCHANGE|34=95|52=20260416-01:50:05|11=1299709740|21=1|55=CSCO|54=1|60=20260416-01:50:05|40=2|44=106.45|38=100|59=0|10=202|
< 8=FIX.4.2|9=135|35=D|49=MINIFIX|56=EXCHANGE|34=96|52=20260416-01:50:05|11=1299709742|21=1|55=CSCO|54=1|60=20260416-01:50:05|40=2|44=107.93|38=100|59=0|10=209|
> 8=FIX.4.2|9=224|35=8|34=62|49=EXCHANGE|52=20260416-01:50:05.413|56=MINIFIX|6=0|11=1299709672|14=0|17=EXEC-1776303564215|31=0|32=0|37=20260416-072005-613277|38=100|39=0|40=2|44=107.05|54=1|55=CSCO|59=0|60=20260416-07:20:05.413|150=0|151=100|10=110|
< 8=FIX.4.2|9=135|35=D|49=MINIFIX|56=EXCHANGE|34=97|52=20260416-01:50:05|11=1299709744|21=1|55=CSCO|54=1|60=20260416-01:50:05|40=2|44=107.08|38=100|59=0|10=208|
< 8=FIX.4.2|9=135|35=D|49=MINIFIX|56=EXCHANGE|34=98|52=20260416-01:50:05|11=1299709746|21=1|55=CSCO|54=1|60=20260416-01:50:05|40=2|44=109.19|38=100|59=0|10=215|
> 8=FIX.4.2|9=236|35=8|34=63|49=EXCHANGE|52=20260416-01:50:05.414|56=MINIFIX|6=0|11=1299709674|14=0|17=EXEC-1776303564216|31=0|32=0|37=20260416-072005-613278|38=100|39=0|40=2|44=107.96000000000001|54=1|55=CSCO|59=0|60=20260416-07:20:05.414|150=0|151=100|10=195|
< 8=FIX.4.2|9=135|35=D|49=MINIFIX|56=EXCHANGE|34=99|52=20260416-01:50:05|11=1299709748|21=1|55=CSCO|54=1|60=20260416-01:50:05|40=2|44=107.53|38=100|59=0|10=214|
> 8=FIX.4.2|9=224|35=8|34=64|49=EXCHANGE|52=20260416-01:50:05.416|56=MINIFIX|6=0|11=1299709676|14=0|17=EXEC-1776303564217|31=0|32=0|37=20260416-072005-613279|38=100|39=0|40=2|44=100.31|54=1|55=CSCO|59=0|60=20260416-07:20:05.416|150=0|151=100|10=118|
< 8=FIX.4.2|9=136|35=D|49=MINIFIX|56=EXCHANGE|34=100|52=20260416-01:50:05|11=1299709750|21=1|55=CSCO|54=1|60=20260416-01:50:05|40=2|44=108.06|38=100|59=0|10=238|
> 8=FIX.4.2|9=224|35=8|34=65|49=EXCHANGE|52=20260416-01:50:05.417|56=MINIFIX|6=0|11=1299709678|14=0|17=EXEC-1776303564218|31=0|32=0|37=20260416-072005-613280|38=100|39=0|40=2|44=103.16|54=1|55=CSCO|59=0|60=20260416-07:20:05.417|150=0|151=100|10=122|
> 8=FIX.4.2|9=224|35=8|34=66|49=EXCHANGE|52=20260416-01:50:05.418|56=MINIFIX|6=0|11=1299709680|14=0|17=EXEC-1776303564219|31=0|32=0|37=20260416-072005-613281|38=100|39=0|40=2|44=102.76|54=1|55=CSCO|59=0|60=20260416-07:20:05.418|150=0|151=100|10=125|
> 8=FIX.4.2|9=236|35=8|34=67|49=EXCHANGE|52=20260416-01:50:05.419|56=MINIFIX|6=0|11=1299709682|14=0|17=EXEC-1776303564220|31=0|32=0|37=20260416-072005-613282|38=100|39=0|40=2|44=108.71000000000001|54=1|55=CSCO|59=0|60=20260416-07:20:05.419|150=0|151=100|10=192|
> 8=FIX.4.2|9=236|35=8|34=68|49=EXCHANGE|52=20260416-01:50:05.420|56=MINIFIX|6=0|11=1299709684|14=0|17=EXEC-1776303564221|31=0|32=0|37=20260416-072005-613283|38=100|39=0|40=2|44=100.46000000000001|54=1|55=CSCO|59=0|60=20260416-07:20:05.420|150=0|151=100|10=175|
> 8=FIX.4.2|9=224|35=8|34=69|49=EXCHANGE|52=20260416-01:50:05.422|56=MINIFIX|6=0|11=1299709686|14=0|17=EXEC-1776303564222|31=0|32=0|37=20260416-072005-613284|38=100|39=0|40=2|44=101.48|54=1|55=CSCO|59=0|60=20260416-07:20:05.422|150=0|151=100|10=119|
> 8=FIX.4.2|9=224|35=8|34=70|49=EXCHANGE|52=20260416-01:50:05.423|56=MINIFIX|6=0|11=1299709688|14=0|17=EXEC-1776303564223|31=0|32=0|37=20260416-072005-613285|38=100|39=0|40=2|44=100.97|54=1|55=CSCO|59=0|60=20260416-07:20:05.423|150=0|151=100|10=120|
> 8=FIX.4.2|9=224|35=8|34=71|49=EXCHANGE|52=20260416-01:50:05.425|56=MINIFIX|6=0|11=1299709690|14=0|17=EXEC-1776303564224|31=0|32=0|37=20260416-072005-613286|38=100|39=0|40=2|44=109.93|54=1|55=CSCO|59=0|60=20260416-07:20:05.425|150=0|151=100|10=125|
> 8=FIX.4.2|9=224|35=8|34=72|49=EXCHANGE|52=20260416-01:50:05.426|56=MINIFIX|6=0|11=1299709692|14=0|17=EXEC-1776303564225|31=0|32=0|37=20260416-072005-613287|38=100|39=0|40=2|44=108.22|54=1|55=CSCO|59=0|60=20260416-07:20:05.426|150=0|151=100|10=123|
> 8=FIX.4.2|9=236|35=8|34=73|49=EXCHANGE|52=20260416-01:50:05.427|56=MINIFIX|6=0|11=1299709694|14=0|17=EXEC-1776303564226|31=0|32=0|37=20260416-072005-613288|38=100|39=0|40=2|44=108.21000000000001|54=1|55=CSCO|59=0|60=20260416-07:20:05.427|150=0|151=100|10=197|
> 8=FIX.4.2|9=224|35=8|34=74|49=EXCHANGE|52=20260416-01:50:05.428|56=MINIFIX|6=0|11=1299709696|14=0|17=EXEC-1776303564227|31=0|32=0|37=20260416-072005-613289|38=100|39=0|40=2|44=106.94|54=1|55=CSCO|59=0|60=20260416-07:20:05.428|150=0|151=100|10=144|
> 8=FIX.4.2|9=224|35=8|34=75|49=EXCHANGE|52=20260416-01:50:05.430|56=MINIFIX|6=0|11=1299709698|14=0|17=EXEC-1776303564228|31=0|32=0|37=20260416-072005-613290|38=100|39=0|40=2|44=101.25|54=1|55=CSCO|59=0|60=20260416-07:20:05.430|150=0|151=100|10=115|
> 8=FIX.4.2|9=224|35=8|34=76|49=EXCHANGE|52=20260416-01:50:05.432|56=MINIFIX|6=0|11=1299709700|14=0|17=EXEC-1776303564229|31=0|32=0|37=20260416-072005-613291|38=100|39=0|40=2|44=103.16|54=1|55=CSCO|59=0|60=20260416-07:20:05.432|150=0|151=100|10=108|
> 8=FIX.4.2|9=224|35=8|34=77|49=EXCHANGE|52=20260416-01:50:05.433|56=MINIFIX|6=0|11=1299709702|14=0|17=EXEC-1776303564230|31=0|32=0|37=20260416-072005-613292|38=100|39=0|40=2|44=107.62|54=1|55=CSCO|59=0|60=20260416-07:20:05.433|150=0|151=100|10=111|
> 8=FIX.4.2|9=236|35=8|34=78|49=EXCHANGE|52=20260416-01:50:05.434|56=MINIFIX|6=0|11=1299709704|14=0|17=EXEC-1776303564231|31=0|32=0|37=20260416-072005-613293|38=100|39=0|40=2|44=109.49000000000001|54=1|55=CSCO|59=0|60=20260416-07:20:05.434|150=0|151=100|10=193|
> 8=FIX.4.2|9=223|35=8|34=79|49=EXCHANGE|52=20260416-01:50:05.436|56=MINIFIX|6=0|11=1299709706|14=0|17=EXEC-1776303564232|31=0|32=0|37=20260416-072005-613294|38=100|39=0|40=2|44=104.9|54=1|55=CSCO|59=0|60=20260416-07:20:05.436|150=0|151=100|10=076|
> 8=FIX.4.2|9=224|35=8|34=80|49=EXCHANGE|52=20260416-01:50:05.437|56=MINIFIX|6=0|11=1299709708|14=0|17=EXEC-1776303564233|31=0|32=0|37=20260416-072005-613295|38=100|39=0|40=2|44=100.34|54=1|55=CSCO|59=0|60=20260416-07:20:05.437|150=0|151=100|10=117|
> 8=FIX.4.2|9=224|35=8|34=81|49=EXCHANGE|52=20260416-01:50:05.438|56=MINIFIX|6=0|11=1299709710|14=0|17=EXEC-1776303564234|31=0|32=0|37=20260416-072005-613296|38=100|39=0|40=2|44=106.62|54=1|55=CSCO|59=0|60=20260416-07:20:05.438|150=0|151=100|10=122|
> 8=FIX.4.2|9=224|35=8|34=82|49=EXCHANGE|52=20260416-01:50:05.439|56=MINIFIX|6=0|11=1299709712|14=0|17=EXEC-1776303564235|31=0|32=0|37=20260416-072005-613297|38=100|39=0|40=2|44=104.38|54=1|55=CSCO|59=0|60=20260416-07:20:05.439|150=0|151=100|10=130|
> 8=FIX.4.2|9=224|35=8|34=83|49=EXCHANGE|52=20260416-01:50:05.441|56=MINIFIX|6=0|11=1299709714|14=0|17=EXEC-1776303564236|31=0|32=0|37=20260416-072005-613298|38=100|39=0|40=2|44=101.25|54=1|55=CSCO|59=0|60=20260416-07:20:05.441|150=0|151=100|10=114|
> 8=FIX.4.2|9=224|35=8|34=84|49=EXCHANGE|52=20260416-01:50:05.443|56=MINIFIX|6=0|11=1299709716|14=0|17=EXEC-1776303564237|31=0|32=0|37=20260416-072005-613299|38=100|39=0|40=2|44=103.81|54=1|55=CSCO|59=0|60=20260416-07:20:05.443|150=0|151=100|10=127|
> 8=FIX.4.2|9=224|35=8|34=85|49=EXCHANGE|52=20260416-01:50:05.445|56=MINIFIX|6=0|11=1299709718|14=0|17=EXEC-1776303564238|31=0|32=0|37=20260416-072005-613300|38=100|39=0|40=2|44=102.09|54=1|55=CSCO|59=0|60=20260416-07:20:05.445|150=0|151=100|10=117|
> 8=FIX.4.2|9=224|35=8|34=86|49=EXCHANGE|52=20260416-01:50:05.446|56=MINIFIX|6=0|11=1299709720|14=0|17=EXEC-1776303564239|31=0|32=0|37=20260416-072005-613301|38=100|39=0|40=2|44=107.64|54=1|55=CSCO|59=0|60=20260416-07:20:05.446|150=0|151=100|10=121|
> 8=FIX.4.2|9=224|35=8|34=87|49=EXCHANGE|52=20260416-01:50:05.447|56=MINIFIX|6=0|11=1299709722|14=0|17=EXEC-1776303564240|31=0|32=0|37=20260416-072005-613302|38=100|39=0|40=2|44=100.51|54=1|55=CSCO|59=0|60=20260416-07:20:05.447|150=0|151=100|10=108|
> 8=FIX.4.2|9=224|35=8|34=88|49=EXCHANGE|52=20260416-01:50:05.449|56=MINIFIX|6=0|11=1299709724|14=0|17=EXEC-1776303564241|31=0|32=0|37=20260416-072005-613303|38=100|39=0|40=2|44=107.94|54=1|55=CSCO|59=0|60=20260416-07:20:05.449|150=0|151=100|10=131|
> 8=FIX.4.2|9=224|35=8|34=89|49=EXCHANGE|52=20260416-01:50:05.450|56=MINIFIX|6=0|11=1299709726|14=0|17=EXEC-1776303564242|31=0|32=0|37=20260416-072005-613304|38=100|39=0|40=2|44=100.36|54=1|55=CSCO|59=0|60=20260416-07:20:05.450|150=0|151=100|10=109|
> 8=FIX.4.2|9=224|35=8|34=90|49=EXCHANGE|52=20260416-01:50:05.452|56=MINIFIX|6=0|11=1299709728|14=0|17=EXEC-1776303564243|31=0|32=0|37=20260416-072005-613305|38=100|39=0|40=2|44=101.86|54=1|55=CSCO|59=0|60=20260416-07:20:05.452|150=0|151=100|10=115|
> 8=FIX.4.2|9=224|35=8|34=91|49=EXCHANGE|52=20260416-01:50:05.453|56=MINIFIX|6=0|11=1299709730|14=0|17=EXEC-1776303564244|31=0|32=0|37=20260416-072005-613306|38=100|39=0|40=2|44=104.08|54=1|55=CSCO|59=0|60=20260416-07:20:05.453|150=0|151=100|10=110|
> 8=FIX.4.2|9=224|35=8|34=92|49=EXCHANGE|52=20260416-01:50:05.454|56=MINIFIX|6=0|11=1299709732|14=0|17=EXEC-1776303564245|31=0|32=0|37=20260416-072005-613307|38=100|39=0|40=2|44=104.89|54=1|55=CSCO|59=0|60=20260416-07:20:05.454|150=0|151=100|10=126|
> 8=FIX.4.2|9=236|35=8|34=93|49=EXCHANGE|52=20260416-01:50:05.455|56=MINIFIX|6=0|11=1299709734|14=0|17=EXEC-1776303564246|31=0|32=0|37=20260416-072005-613308|38=100|39=0|40=2|44=104.57000000000001|54=1|55=CSCO|59=0|60=20260416-07:20:05.455|150=0|151=100|10=196|
> 8=FIX.4.2|9=224|35=8|34=94|49=EXCHANGE|52=20260416-01:50:05.456|56=MINIFIX|6=0|11=1299709736|14=0|17=EXEC-1776303564247|31=0|32=0|37=20260416-072005-613309|38=100|39=0|40=2|44=104.45|54=1|55=CSCO|59=0|60=20260416-07:20:05.456|150=0|151=100|10=132|
> 8=FIX.4.2|9=224|35=8|34=95|49=EXCHANGE|52=20260416-01:50:05.458|56=MINIFIX|6=0|11=1299709738|14=0|17=EXEC-1776303564248|31=0|32=0|37=20260416-072005-613310|38=100|39=0|40=2|44=104.87|54=1|55=CSCO|59=0|60=20260416-07:20:05.458|150=0|151=100|10=138|
> 8=FIX.4.2|9=224|35=8|34=96|49=EXCHANGE|52=20260416-01:50:05.459|56=MINIFIX|6=0|11=1299709740|14=0|17=EXEC-1776303564249|31=0|32=0|37=20260416-072005-613311|38=100|39=0|40=2|44=106.45|54=1|55=CSCO|59=0|60=20260416-07:20:05.459|150=0|151=100|10=132|
> 8=FIX.4.2|9=224|35=8|34=97|49=EXCHANGE|52=20260416-01:50:05.460|56=MINIFIX|6=0|11=1299709742|14=0|17=EXEC-1776303564250|31=0|32=0|37=20260416-072005-613312|38=100|39=0|40=2|44=107.93|54=1|55=CSCO|59=0|60=20260416-07:20:05.460|150=0|151=100|10=116|
> 8=FIX.4.2|9=224|35=8|34=98|49=EXCHANGE|52=20260416-01:50:05.462|56=MINIFIX|6=0|11=1299709744|14=0|17=EXEC-1776303564251|31=0|32=0|37=20260416-072005-613313|38=100|39=0|40=2|44=107.08|54=1|55=CSCO|59=0|60=20260416-07:20:05.462|150=0|151=100|10=121|
> 8=FIX.4.2|9=224|35=8|34=99|49=EXCHANGE|52=20260416-01:50:05.462|56=MINIFIX|6=0|11=1299709746|14=0|17=EXEC-1776303564252|31=0|32=0|37=20260416-072005-613314|38=100|39=0|40=2|44=109.19|54=1|55=CSCO|59=0|60=20260416-07:20:05.462|150=0|151=100|10=130|
> 8=FIX.4.2|9=225|35=8|34=100|49=EXCHANGE|52=20260416-01:50:05.463|56=MINIFIX|6=0|11=1299709748|14=0|17=EXEC-1776303564253|31=0|32=0|37=20260416-072005-613315|38=100|39=0|40=2|44=107.53|54=1|55=CSCO|59=0|60=20260416-07:20:05.463|150=0|151=100|10=164|
> 8=FIX.4.2|9=225|35=8|34=101|49=EXCHANGE|52=20260416-01:50:05.465|56=MINIFIX|6=0|11=1299709750|14=0|17=EXEC-1776303564254|31=0|32=0|37=20260416-072005-613316|38=100|39=0|40=2|44=108.06|54=1|55=CSCO|59=0|60=20260416-07:20:05.465|150=0|151=100|10=163|
: T32 PHASE1_BUILD_BOOK_END 20260416-01:50:05
: T32 PHASE2_SWEEP_START 20260416-01:50:07
< 8=FIX.4.2|9=138|35=D|49=MINIFIX|56=EXCHANGE|34=101|52=20260416-01:50:07|11=1299709752|21=1|55=CSCO|54=2|60=20260416-01:50:07|40=2|44=100.00|38=10000|59=0|10=074|
> 8=FIX.4.2|9=226|35=8|34=102|49=EXCHANGE|52=20260416-01:50:07.693|56=MINIFIX|6=0|11=1299709752|14=0|17=EXEC-1776303564255|31=0|32=0|37=20260416-072007-613317|38=10000|39=0|40=2|44=100|54=2|55=CSCO|59=0|60=20260416-07:20:07.693|150=0|151=10000|10=218|
> 8=FIX.4.2|9=271|35=8|34=103|49=EXCHANGE|52=20260416-01:50:07.694|56=MINIFIX|6=109.95|11=1299709586|14=100|17=EXEC-1776304207693-1179|31=109.95|32=100|37=20260416-072005-613234|38=100|39=2|40=2|44=109.95|54=1|55=CSCO|59=0|60=20260416-07:20:07.694|150=F|151=0|527=TRADE-1776304207693-1179|10=102|
> 8=FIX.4.2|9=271|35=8|34=104|49=EXCHANGE|52=20260416-01:50:07.694|56=MINIFIX|6=109.93|11=1299709690|14=100|17=EXEC-1776304207693-1180|31=109.93|32=100|37=20260416-072005-613286|38=100|39=2|40=2|44=109.93|54=1|55=CSCO|59=0|60=20260416-07:20:07.694|150=F|151=0|527=TRADE-1776304207693-1180|10=084|
> 8=FIX.4.2|9=271|35=8|34=105|49=EXCHANGE|52=20260416-01:50:07.697|56=MINIFIX|6=109.91|11=1299709582|14=100|17=EXEC-1776304207693-1181|31=109.91|32=100|37=20260416-072005-613232|38=100|39=2|40=2|44=109.91|54=1|55=CSCO|59=0|60=20260416-07:20:07.697|150=F|151=0|527=TRADE-1776304207693-1181|10=078|
> 8=FIX.4.2|9=268|35=8|34=106|49=EXCHANGE|52=20260416-01:50:07.698|56=MINIFIX|6=109.8|11=1299709598|14=100|17=EXEC-1776304207693-1182|31=109.8|32=100|37=20260416-072005-613240|38=100|39=2|40=2|44=109.8|54=1|55=CSCO|59=0|60=20260416-07:20:07.698|150=F|151=0|527=TRADE-1776304207693-1182|10=201|
> 8=FIX.4.2|9=271|35=8|34=107|49=EXCHANGE|52=20260416-01:50:07.699|56=MINIFIX|6=109.69|11=1299709596|14=100|17=EXEC-1776304207693-1183|31=109.69|32=100|37=20260416-072005-613239|38=100|39=2|40=2|44=109.69|54=1|55=CSCO|59=0|60=20260416-07:20:07.699|150=F|151=0|527=TRADE-1776304207693-1183|10=115|
> 8=FIX.4.2|9=271|35=8|34=108|49=EXCHANGE|52=20260416-01:50:07.699|56=MINIFIX|6=109.67|11=1299709562|14=100|17=EXEC-1776304207693-1184|31=109.67|32=100|37=20260416-072005-613222|38=100|39=2|40=2|44=109.67|54=1|55=CSCO|59=0|60=20260416-07:20:07.699|150=F|151=0|527=TRADE-1776304207693-1184|10=097|
> 8=FIX.4.2|9=271|35=8|34=109|49=EXCHANGE|52=20260416-01:50:07.700|56=MINIFIX|6=109.66|11=1299709590|14=100|17=EXEC-1776304207693-1185|31=109.66|32=100|37=20260416-072005-613236|38=100|39=2|40=2|44=109.66|54=1|55=CSCO|59=0|60=20260416-07:20:07.700|150=F|151=0|527=TRADE-1776304207693-1185|10=069|
> 8=FIX.4.2|9=271|35=8|34=110|49=EXCHANGE|52=20260416-01:50:07.702|56=MINIFIX|6=109.63|11=1299709588|14=100|17=EXEC-1776304207693-1186|31=109.63|32=100|37=20260416-072005-613235|38=100|39=2|40=2|44=109.63|54=1|55=CSCO|59=0|60=20260416-07:20:07.702|150=F|151=0|527=TRADE-1776304207693-1186|10=064|
> 8=FIX.4.2|9=271|35=8|34=111|49=EXCHANGE|52=20260416-01:50:07.702|56=MINIFIX|6=109.58|11=1299709628|14=100|17=EXEC-1776304207693-1187|31=109.58|32=100|37=20260416-072005-613255|38=100|39=2|40=2|44=109.58|54=1|55=CSCO|59=0|60=20260416-07:20:07.702|150=F|151=0|527=TRADE-1776304207693-1187|10=076|
> 8=FIX.4.2|9=271|35=8|34=112|49=EXCHANGE|52=20260416-01:50:07.704|56=MINIFIX|6=109.56|11=1299709584|14=100|17=EXEC-1776304207693-1188|31=109.56|32=100|37=20260416-072005-613233|38=100|39=2|40=2|44=109.56|54=1|55=CSCO|59=0|60=20260416-07:20:07.704|150=F|151=0|527=TRADE-1776304207693-1188|10=074|
> 8=FIX.4.2|9=271|35=8|34=113|49=EXCHANGE|52=20260416-01:50:07.705|56=MINIFIX|6=109.56|11=1299709600|14=100|17=EXEC-1776304207693-1189|31=109.56|32=100|37=20260416-072005-613241|38=100|39=2|40=2|44=109.56|54=1|55=CSCO|59=0|60=20260416-07:20:07.705|150=F|151=0|527=TRADE-1776304207693-1189|10=067|
> 8=FIX.4.2|9=295|35=8|34=114|49=EXCHANGE|52=20260416-01:50:07.706|56=MINIFIX|6=109.49|11=1299709704|14=100|17=EXEC-1776304207693-1190|31=109.49000000000001|32=100|37=20260416-072005-613293|38=100|39=2|40=2|44=109.49000000000001|54=1|55=CSCO|59=0|60=20260416-07:20:07.706|150=F|151=0|527=TRADE-1776304207693-1190|10=208|
> 8=FIX.4.2|9=271|35=8|34=115|49=EXCHANGE|52=20260416-01:50:07.706|56=MINIFIX|6=109.33|11=1299709644|14=100|17=EXEC-1776304207693-1191|31=109.33|32=100|37=20260416-072005-613263|38=100|39=2|40=2|44=109.33|54=1|55=CSCO|59=0|60=20260416-07:20:07.706|150=F|151=0|527=TRADE-1776304207693-1191|10=054|
> 8=FIX.4.2|9=271|35=8|34=116|49=EXCHANGE|52=20260416-01:50:07.707|56=MINIFIX|6=109.19|11=1299709746|14=100|17=EXEC-1776304207693-1192|31=109.19|32=100|37=20260416-072005-613314|38=100|39=2|40=2|44=109.19|54=1|55=CSCO|59=0|60=20260416-07:20:07.707|150=F|151=0|527=TRADE-1776304207693-1192|10=071|
> 8=FIX.4.2|9=271|35=8|34=117|49=EXCHANGE|52=20260416-01:50:07.708|56=MINIFIX|6=109.14|11=1299709620|14=100|17=EXEC-1776304207693-1193|31=109.14|32=100|37=20260416-072005-613251|38=100|39=2|40=2|44=109.14|54=1|55=CSCO|59=0|60=20260416-07:20:07.708|150=F|151=0|527=TRADE-1776304207693-1193|10=052|
> 8=FIX.4.2|9=271|35=8|34=118|49=EXCHANGE|52=20260416-01:50:07.709|56=MINIFIX|6=109.12|11=1299709564|14=100|17=EXEC-1776304207693-1194|31=109.12|32=100|37=20260416-072005-613223|38=100|39=2|40=2|44=109.12|54=1|55=CSCO|59=0|60=20260416-07:20:07.709|150=F|151=0|527=TRADE-1776304207693-1194|10=057|
> 8=FIX.4.2|9=271|35=8|34=119|49=EXCHANGE|52=20260416-01:50:07.710|56=MINIFIX|6=109.04|11=1299709556|14=100|17=EXEC-1776304207693-1195|31=109.04|32=100|37=20260416-072005-613219|38=100|39=2|40=2|44=109.04|54=1|55=CSCO|59=0|60=20260416-07:20:07.710|150=F|151=0|527=TRADE-1776304207693-1195|10=053|
> 8=FIX.4.2|9=271|35=8|34=120|49=EXCHANGE|52=20260416-01:50:07.712|56=MINIFIX|6=108.77|11=1299709626|14=100|17=EXEC-1776304207693-1196|31=108.77|32=100|37=20260416-072005-613254|38=100|39=2|40=2|44=108.77|54=1|55=CSCO|59=0|60=20260416-07:20:07.712|150=F|151=0|527=TRADE-1776304207693-1196|10=075|
> 8=FIX.4.2|9=295|35=8|34=121|49=EXCHANGE|52=20260416-01:50:07.713|56=MINIFIX|6=108.71|11=1299709682|14=100|17=EXEC-1776304207693-1197|31=108.71000000000001|32=100|37=20260416-072005-613282|38=100|39=2|40=2|44=108.71000000000001|54=1|55=CSCO|59=0|60=20260416-07:20:07.713|150=F|151=0|527=TRADE-1776304207693-1197|10=201|
> 8=FIX.4.2|9=271|35=8|34=122|49=EXCHANGE|52=20260416-01:50:07.714|56=MINIFIX|6=108.48|11=1299709640|14=100|17=EXEC-1776304207693-1198|31=108.48|32=100|37=20260416-072005-613261|38=100|39=2|40=2|44=108.48|54=1|55=CSCO|59=0|60=20260416-07:20:07.714|150=F|151=0|527=TRADE-1776304207693-1198|10=073|
> 8=FIX.4.2|9=271|35=8|34=123|49=EXCHANGE|52=20260416-01:50:07.715|56=MINIFIX|6=108.34|11=1299709558|14=100|17=EXEC-1776304207693-1199|31=108.34|32=100|37=20260416-072005-613220|38=100|39=2|40=2|44=108.34|54=1|55=CSCO|59=0|60=20260416-07:20:07.715|150=F|151=0|527=TRADE-1776304207693-1199|10=066|
> 8=FIX.4.2|9=271|35=8|34=124|49=EXCHANGE|52=20260416-01:50:07.716|56=MINIFIX|6=108.22|11=1299709692|14=100|17=EXEC-1776304207693-1200|31=108.22|32=100|37=20260416-072005-613287|38=100|39=2|40=2|44=108.22|54=1|55=CSCO|59=0|60=20260416-07:20:07.716|150=F|151=0|527=TRADE-1776304207693-1200|10=038|
> 8=FIX.4.2|9=295|35=8|34=125|49=EXCHANGE|52=20260416-01:50:07.719|56=MINIFIX|6=108.21|11=1299709694|14=100|17=EXEC-1776304207693-1201|31=108.21000000000001|32=100|37=20260416-072005-613288|38=100|39=2|40=2|44=108.21000000000001|54=1|55=CSCO|59=0|60=20260416-07:20:07.719|150=F|151=0|527=TRADE-1776304207693-1201|10=183|
> 8=FIX.4.2|9=271|35=8|34=126|49=EXCHANGE|52=20260416-01:50:07.720|56=MINIFIX|6=108.13|11=1299709552|14=100|17=EXEC-1776304207693-1202|31=108.13|32=100|37=20260416-072005-613217|38=100|39=2|40=2|44=108.13|54=1|55=CSCO|59=0|60=20260416-07:20:07.720|150=F|151=0|527=TRADE-1776304207693-1202|10=022|
> 8=FIX.4.2|9=271|35=8|34=127|49=EXCHANGE|52=20260416-01:50:07.721|56=MINIFIX|6=108.06|11=1299709750|14=100|17=EXEC-1776304207693-1203|31=108.06|32=100|37=20260416-072005-613316|38=100|39=2|40=2|44=108.06|54=1|55=CSCO|59=0|60=20260416-07:20:07.721|150=F|151=0|527=TRADE-1776304207693-1203|10=033|
> 8=FIX.4.2|9=295|35=8|34=128|49=EXCHANGE|52=20260416-01:50:07.722|56=MINIFIX|6=107.99|11=1299709608|14=100|17=EXEC-1776304207693-1204|31=107.99000000000001|32=100|37=20260416-072005-613245|38=100|39=2|40=2|44=107.99000000000001|54=1|55=CSCO|59=0|60=20260416-07:20:07.722|150=F|151=0|527=TRADE-1776304207693-1204|10=210|
> 8=FIX.4.2|9=271|35=8|34=129|49=EXCHANGE|52=20260416-01:50:07.724|56=MINIFIX|6=107.97|11=1299709606|14=100|17=EXEC-1776304207693-1205|31=107.97|32=100|37=20260416-072005-613244|38=100|39=2|40=2|44=107.97|54=1|55=CSCO|59=0|60=20260416-07:20:07.724|150=F|151=0|527=TRADE-1776304207693-1205|10=072|
> 8=FIX.4.2|9=271|35=8|34=130|49=EXCHANGE|52=20260416-01:50:07.724|56=MINIFIX|6=107.97|11=1299709634|14=100|17=EXEC-1776304207693-1206|31=107.97|32=100|37=20260416-072005-613258|38=100|39=2|40=2|44=107.97|54=1|55=CSCO|59=0|60=20260416-07:20:07.724|150=F|151=0|527=TRADE-1776304207693-1206|10=072|
> 8=FIX.4.2|9=295|35=8|34=131|49=EXCHANGE|52=20260416-01:50:07.725|56=MINIFIX|6=107.96|11=1299709674|14=100|17=EXEC-1776304207693-1207|31=107.96000000000001|32=100|37=20260416-072005-613278|38=100|39=2|40=2|44=107.96000000000001|54=1|55=CSCO|59=0|60=20260416-07:20:07.725|150=F|151=0|527=TRADE-1776304207693-1207|10=216|
> 8=FIX.4.2|9=271|35=8|34=132|49=EXCHANGE|52=20260416-01:50:07.726|56=MINIFIX|6=107.94|11=1299709724|14=100|17=EXEC-1776304207693-1208|31=107.94|32=100|37=20260416-072005-613303|38=100|39=2|40=2|44=107.94|54=1|55=CSCO|59=0|60=20260416-07:20:07.726|150=F|151=0|527=TRADE-1776304207693-1208|10=064|
> 8=FIX.4.2|9=271|35=8|34=133|49=EXCHANGE|52=20260416-01:50:07.727|56=MINIFIX|6=107.93|11=1299709742|14=100|17=EXEC-1776304207693-1209|31=107.93|32=100|37=20260416-072005-613312|38=100|39=2|40=2|44=107.93|54=1|55=CSCO|59=0|60=20260416-07:20:07.727|150=F|151=0|527=TRADE-1776304207693-1209|10=066|
> 8=FIX.4.2|9=271|35=8|34=134|49=EXCHANGE|52=20260416-01:50:07.728|56=MINIFIX|6=107.91|11=1299709624|14=100|17=EXEC-1776304207693-1210|31=107.91|32=100|37=20260416-072005-613253|38=100|39=2|40=2|44=107.91|54=1|55=CSCO|59=0|60=20260416-07:20:07.728|150=F|151=0|527=TRADE-1776304207693-1210|10=050|
> 8=FIX.4.2|9=271|35=8|34=135|49=EXCHANGE|52=20260416-01:50:07.729|56=MINIFIX|6=107.64|11=1299709720|14=100|17=EXEC-1776304207693-1211|31=107.64|32=100|37=20260416-072005-613301|38=100|39=2|40=2|44=107.64|54=1|55=CSCO|59=0|60=20260416-07:20:07.729|150=F|151=0|527=TRADE-1776304207693-1211|10=046|
> 8=FIX.4.2|9=271|35=8|34=136|49=EXCHANGE|52=20260416-01:50:07.731|56=MINIFIX|6=107.62|11=1299709702|14=100|17=EXEC-1776304207693-1212|31=107.62|32=100|37=20260416-072005-613292|38=100|39=2|40=2|44=107.62|54=1|55=CSCO|59=0|60=20260416-07:20:07.731|150=F|151=0|527=TRADE-1776304207693-1212|10=038|
> 8=FIX.4.2|9=271|35=8|34=137|49=EXCHANGE|52=20260416-01:50:07.732|56=MINIFIX|6=107.56|11=1299709652|14=100|17=EXEC-1776304207693-1213|31=107.56|32=100|37=20260416-072005-613267|38=100|39=2|40=2|44=107.56|54=1|55=CSCO|59=0|60=20260416-07:20:07.732|150=F|151=0|527=TRADE-1776304207693-1213|10=058|
> 8=FIX.4.2|9=271|35=8|34=138|49=EXCHANGE|52=20260416-01:50:07.734|56=MINIFIX|6=107.53|11=1299709748|14=100|17=EXEC-1776304207693-1214|31=107.53|32=100|37=20260416-072005-613315|38=100|39=2|40=2|44=107.53|54=1|55=CSCO|59=0|60=20260416-07:20:07.734|150=F|151=0|527=TRADE-1776304207693-1214|10=056|
> 8=FIX.4.2|9=271|35=8|34=139|49=EXCHANGE|52=20260416-01:50:07.735|56=MINIFIX|6=107.42|11=1299709656|14=100|17=EXEC-1776304207693-1215|31=107.42|32=100|37=20260416-072005-613269|38=100|39=2|40=2|44=107.42|54=1|55=CSCO|59=0|60=20260416-07:20:07.735|150=F|151=0|527=TRADE-1776304207693-1215|10=061|
> 8=FIX.4.2|9=271|35=8|34=140|49=EXCHANGE|52=20260416-01:50:07.736|56=MINIFIX|6=107.39|11=1299709654|14=100|17=EXEC-1776304207693-1216|31=107.39|32=100|37=20260416-072005-613268|38=100|39=2|40=2|44=107.39|54=1|55=CSCO|59=0|60=20260416-07:20:07.736|150=F|151=0|527=TRADE-1776304207693-1216|10=072|
> 8=FIX.4.2|9=271|35=8|34=141|49=EXCHANGE|52=20260416-01:50:07.737|56=MINIFIX|6=107.25|11=1299709594|14=100|17=EXEC-1776304207693-1217|31=107.25|32=100|37=20260416-072005-613238|38=100|39=2|40=2|44=107.25|54=1|55=CSCO|59=0|60=20260416-07:20:07.737|150=F|151=0|527=TRADE-1776304207693-1217|10=062|
> 8=FIX.4.2|9=271|35=8|34=142|49=EXCHANGE|52=20260416-01:50:07.738|56=MINIFIX|6=107.08|11=1299709744|14=100|17=EXEC-1776304207693-1218|31=107.08|32=100|37=20260416-072005-613313|38=100|39=2|40=2|44=107.08|54=1|55=CSCO|59=0|60=20260416-07:20:07.738|150=F|151=0|527=TRADE-1776304207693-1218|10=061|
> 8=FIX.4.2|9=271|35=8|34=143|49=EXCHANGE|52=20260416-01:50:07.739|56=MINIFIX|6=107.05|11=1299709672|14=100|17=EXEC-1776304207693-1219|31=107.05|32=100|37=20260416-072005-613277|38=100|39=2|40=2|44=107.05|54=1|55=CSCO|59=0|60=20260416-07:20:07.739|150=F|151=0|527=TRADE-1776304207693-1219|10=066|
> 8=FIX.4.2|9=271|35=8|34=144|49=EXCHANGE|52=20260416-01:50:07.741|56=MINIFIX|6=106.94|11=1299709696|14=100|17=EXEC-1776304207693-1220|31=106.94|32=100|37=20260416-072005-613289|38=100|39=2|40=2|44=106.94|54=1|55=CSCO|59=0|60=20260416-07:20:07.741|150=F|151=0|527=TRADE-1776304207693-1220|10=067|
> 8=FIX.4.2|9=268|35=8|34=145|49=EXCHANGE|52=20260416-01:50:07.742|56=MINIFIX|6=106.8|11=1299709646|14=100|17=EXEC-1776304207693-1221|31=106.8|32=100|37=20260416-072005-613264|38=100|39=2|40=2|44=106.8|54=1|55=CSCO|59=0|60=20260416-07:20:07.742|150=F|151=0|527=TRADE-1776304207693-1221|10=163|
> 8=FIX.4.2|9=271|35=8|34=146|49=EXCHANGE|52=20260416-01:50:07.743|56=MINIFIX|6=106.78|11=1299709648|14=100|17=EXEC-1776304207693-1222|31=106.78|32=100|37=20260416-072005-613265|38=100|39=2|40=2|44=106.78|54=1|55=CSCO|59=0|60=20260416-07:20:07.743|150=F|151=0|527=TRADE-1776304207693-1222|10=074|
> 8=FIX.4.2|9=271|35=8|34=147|49=EXCHANGE|52=20260416-01:50:07.745|56=MINIFIX|6=106.62|11=1299709710|14=100|17=EXEC-1776304207693-1223|31=106.62|32=100|37=20260416-072005-613296|38=100|39=2|40=2|44=106.62|54=1|55=CSCO|59=0|60=20260416-07:20:07.745|150=F|151=0|527=TRADE-1776304207693-1223|10=054|
> 8=FIX.4.2|9=271|35=8|34=148|49=EXCHANGE|52=20260416-01:50:07.747|56=MINIFIX|6=106.55|11=1299709632|14=100|17=EXEC-1776304207693-1224|31=106.55|32=100|37=20260416-072005-613257|38=100|39=2|40=2|44=106.55|54=1|55=CSCO|59=0|60=20260416-07:20:07.747|150=F|151=0|527=TRADE-1776304207693-1224|10=067|
> 8=FIX.4.2|9=271|35=8|34=149|49=EXCHANGE|52=20260416-01:50:07.748|56=MINIFIX|6=106.54|11=1299709664|14=100|17=EXEC-1776304207693-1225|31=106.54|32=100|37=20260416-072005-613273|38=100|39=2|40=2|44=106.54|54=1|55=CSCO|59=0|60=20260416-07:20:07.748|150=F|151=0|527=TRADE-1776304207693-1225|10=072|
> 8=FIX.4.2|9=271|35=8|34=150|49=EXCHANGE|52=20260416-01:50:07.748|56=MINIFIX|6=106.45|11=1299709740|14=100|17=EXEC-1776304207693-1226|31=106.45|32=100|37=20260416-072005-613311|38=100|39=2|40=2|44=106.45|54=1|55=CSCO|59=0|60=20260416-07:20:07.748|150=F|151=0|527=TRADE-1776304207693-1226|10=054|
> 8=FIX.4.2|9=271|35=8|34=151|49=EXCHANGE|52=20260416-01:50:07.749|56=MINIFIX|6=106.39|11=1299709622|14=100|17=EXEC-1776304207693-1227|31=106.39|32=100|37=20260416-072005-613252|38=100|39=2|40=2|44=106.39|54=1|55=CSCO|59=0|60=20260416-07:20:07.749|150=F|151=0|527=TRADE-1776304207693-1227|10=071|
> 8=FIX.4.2|9=271|35=8|34=152|49=EXCHANGE|52=20260416-01:50:07.750|56=MINIFIX|6=106.31|11=1299709568|14=100|17=EXEC-1776304207693-1228|31=106.31|32=100|37=20260416-072005-613225|38=100|39=2|40=2|44=106.31|54=1|55=CSCO|59=0|60=20260416-07:20:07.750|150=F|151=0|527=TRADE-1776304207693-1228|10=043|
> 8=FIX.4.2|9=295|35=8|34=153|49=EXCHANGE|52=20260416-01:50:07.752|56=MINIFIX|6=105.46|11=1299709574|14=100|17=EXEC-1776304207693-1229|31=105.46000000000001|32=100|37=20260416-072005-613228|38=100|39=2|40=2|44=105.46000000000001|54=1|55=CSCO|59=0|60=20260416-07:20:07.752|150=F|151=0|527=TRADE-1776304207693-1229|10=201|
> 8=FIX.4.2|9=295|35=8|34=154|49=EXCHANGE|52=20260416-01:50:07.754|56=MINIFIX|6=105.46|11=1299709580|14=100|17=EXEC-1776304207693-1230|31=105.46000000000001|32=100|37=20260416-072005-613231|38=100|39=2|40=2|44=105.46000000000001|54=1|55=CSCO|59=0|60=20260416-07:20:07.754|150=F|151=0|527=TRADE-1776304207693-1230|10=181|
> 8=FIX.4.2|9=271|35=8|34=155|49=EXCHANGE|52=20260416-01:50:07.754|56=MINIFIX|6=105.03|11=1299709630|14=100|17=EXEC-1776304207693-1231|31=105.03|32=100|37=20260416-072005-613256|38=100|39=2|40=2|44=105.03|54=1|55=CSCO|59=0|60=20260416-07:20:07.754|150=F|151=0|527=TRADE-1776304207693-1231|10=030|
> 8=FIX.4.2|9=268|35=8|34=156|49=EXCHANGE|52=20260416-01:50:07.755|56=MINIFIX|6=104.9|11=1299709706|14=100|17=EXEC-1776304207693-1232|31=104.9|32=100|37=20260416-072005-613294|38=100|39=2|40=2|44=104.9|54=1|55=CSCO|59=0|60=20260416-07:20:07.755|150=F|151=0|527=TRADE-1776304207693-1232|10=174|
> 8=FIX.4.2|9=271|35=8|34=157|49=EXCHANGE|52=20260416-01:50:07.756|56=MINIFIX|6=104.89|11=1299709732|14=100|17=EXEC-1776304207693-1233|31=104.89|32=100|37=20260416-072005-613307|38=100|39=2|40=2|44=104.89|54=1|55=CSCO|59=0|60=20260416-07:20:07.756|150=F|151=0|527=TRADE-1776304207693-1233|10=079|
> 8=FIX.4.2|9=271|35=8|34=158|49=EXCHANGE|52=20260416-01:50:07.756|56=MINIFIX|6=104.87|11=1299709738|14=100|17=EXEC-1776304207693-1234|31=104.87|32=100|37=20260416-072005-613310|38=100|39=2|40=2|44=104.87|54=1|55=CSCO|59=0|60=20260416-07:20:07.756|150=F|151=0|527=TRADE-1776304207693-1234|10=076|
> 8=FIX.4.2|9=271|35=8|34=159|49=EXCHANGE|52=20260416-01:50:07.758|56=MINIFIX|6=104.84|11=1299709604|14=100|17=EXEC-1776304207693-1235|31=104.84|32=100|37=20260416-072005-613243|38=100|39=2|40=2|44=104.84|54=1|55=CSCO|59=0|60=20260416-07:20:07.758|150=F|151=0|527=TRADE-1776304207693-1235|10=071|
> 8=FIX.4.2|9=295|35=8|34=160|49=EXCHANGE|52=20260416-01:50:07.759|56=MINIFIX|6=104.74|11=1299709658|14=100|17=EXEC-1776304207693-1236|31=104.74000000000001|32=100|37=20260416-072005-613270|38=100|39=2|40=2|44=104.74000000000001|54=1|55=CSCO|59=0|60=20260416-07:20:07.759|150=F|151=0|527=TRADE-1776304207693-1236|10=209|
> 8=FIX.4.2|9=295|35=8|34=161|49=EXCHANGE|52=20260416-01:50:07.760|56=MINIFIX|6=104.57|11=1299709734|14=100|17=EXEC-1776304207693-1237|31=104.57000000000001|32=100|37=20260416-072005-613308|38=100|39=2|40=2|44=104.57000000000001|54=1|55=CSCO|59=0|60=20260416-07:20:07.760|150=F|151=0|527=TRADE-1776304207693-1237|10=196|
> 8=FIX.4.2|9=271|35=8|34=162|49=EXCHANGE|52=20260416-01:50:07.761|56=MINIFIX|6=104.45|11=1299709736|14=100|17=EXEC-1776304207693-1238|31=104.45|32=100|37=20260416-072005-613309|38=100|39=2|40=2|44=104.45|54=1|55=CSCO|59=0|60=20260416-07:20:07.761|150=F|151=0|527=TRADE-1776304207693-1238|10=059|
> 8=FIX.4.2|9=271|35=8|34=163|49=EXCHANGE|52=20260416-01:50:07.762|56=MINIFIX|6=104.38|11=1299709712|14=100|17=EXEC-1776304207693-1239|31=104.38|32=100|37=20260416-072005-613297|38=100|39=2|40=2|44=104.38|54=1|55=CSCO|59=0|60=20260416-07:20:07.762|150=F|151=0|527=TRADE-1776304207693-1239|10=070|
> 8=FIX.4.2|9=295|35=8|34=164|49=EXCHANGE|52=20260416-01:50:07.763|56=MINIFIX|6=104.21|11=1299709616|14=100|17=EXEC-1776304207693-1240|31=104.21000000000001|32=100|37=20260416-072005-613249|38=100|39=2|40=2|44=104.21000000000001|54=1|55=CSCO|59=0|60=20260416-07:20:07.763|150=F|151=0|527=TRADE-1776304207693-1240|10=169|
> 8=FIX.4.2|9=295|35=8|34=165|49=EXCHANGE|52=20260416-01:50:07.764|56=MINIFIX|6=104.21|11=1299709662|14=100|17=EXEC-1776304207693-1241|31=104.21000000000001|32=100|37=20260416-072005-613272|38=100|39=2|40=2|44=104.21000000000001|54=1|55=CSCO|59=0|60=20260416-07:20:07.764|150=F|151=0|527=TRADE-1776304207693-1241|10=171|
> 8=FIX.4.2|9=271|35=8|34=166|49=EXCHANGE|52=20260416-01:50:07.767|56=MINIFIX|6=104.08|11=1299709730|14=100|17=EXEC-1776304207693-1242|31=104.08|32=100|37=20260416-072005-613306|38=100|39=2|40=2|44=104.08|54=1|55=CSCO|59=0|60=20260416-07:20:07.767|150=F|151=0|527=TRADE-1776304207693-1242|10=053|
> 8=FIX.4.2|9=271|35=8|34=167|49=EXCHANGE|52=20260416-01:50:07.767|56=MINIFIX|6=103.98|11=1299709650|14=100|17=EXEC-1776304207693-1243|31=103.98|32=100|37=20260416-072005-613266|38=100|39=2|40=2|44=103.98|54=1|55=CSCO|59=0|60=20260416-07:20:07.767|150=F|151=0|527=TRADE-1776304207693-1243|10=086|
> 8=FIX.4.2|9=271|35=8|34=168|49=EXCHANGE|52=20260416-01:50:07.768|56=MINIFIX|6=103.91|11=1299709660|14=100|17=EXEC-1776304207693-1244|31=103.91|32=100|37=20260416-072005-613271|38=100|39=2|40=2|44=103.91|54=1|55=CSCO|59=0|60=20260416-07:20:07.768|150=F|151=0|527=TRADE-1776304207693-1244|10=067|
> 8=FIX.4.2|9=271|35=8|34=169|49=EXCHANGE|52=20260416-01:50:07.770|56=MINIFIX|6=103.81|11=1299709716|14=100|17=EXEC-1776304207693-1245|31=103.81|32=100|37=20260416-072005-613299|38=100|39=2|40=2|44=103.81|54=1|55=CSCO|59=0|60=20260416-07:20:07.770|150=F|151=0|527=TRADE-1776304207693-1245|10=065|
> 8=FIX.4.2|9=294|35=8|34=170|49=EXCHANGE|52=20260416-01:50:07.770|56=MINIFIX|6=103.6|11=1299709638|14=100|17=EXEC-1776304207693-1246|31=103.60000000000001|32=100|37=20260416-072005-613260|38=100|39=2|40=2|44=103.60000000000001|54=1|55=CSCO|59=0|60=20260416-07:20:07.770|150=F|151=0|527=TRADE-1776304207693-1246|10=128|
> 8=FIX.4.2|9=271|35=8|34=171|49=EXCHANGE|52=20260416-01:50:07.771|56=MINIFIX|6=103.16|11=1299709678|14=100|17=EXEC-1776304207693-1247|31=103.16|32=100|37=20260416-072005-613280|38=100|39=2|40=2|44=103.16|54=1|55=CSCO|59=0|60=20260416-07:20:07.771|150=F|151=0|527=TRADE-1776304207693-1247|10=055|
> 8=FIX.4.2|9=271|35=8|34=172|49=EXCHANGE|52=20260416-01:50:07.772|56=MINIFIX|6=103.16|11=1299709700|14=100|17=EXEC-1776304207693-1248|31=103.16|32=100|37=20260416-072005-613291|38=100|39=2|40=2|44=103.16|54=1|55=CSCO|59=0|60=20260416-07:20:07.772|150=F|151=0|527=TRADE-1776304207693-1248|10=048|
> 8=FIX.4.2|9=295|35=8|34=173|49=EXCHANGE|52=20260416-01:50:07.773|56=MINIFIX|6=103.07|11=1299709570|14=100|17=EXEC-1776304207693-1249|31=103.07000000000001|32=100|37=20260416-072005-613226|38=100|39=2|40=2|44=103.07000000000001|54=1|55=CSCO|59=0|60=20260416-07:20:07.773|150=F|151=0|527=TRADE-1776304207693-1249|10=192|
> 8=FIX.4.2|9=271|35=8|34=174|49=EXCHANGE|52=20260416-01:50:07.775|56=MINIFIX|6=103.01|11=1299709670|14=100|17=EXEC-1776304207693-1250|31=103.01|32=100|37=20260416-072005-613276|38=100|39=2|40=2|44=103.01|54=1|55=CSCO|59=0|60=20260416-07:20:07.775|150=F|151=0|527=TRADE-1776304207693-1250|10=033|
> 8=FIX.4.2|9=295|35=8|34=175|49=EXCHANGE|52=20260416-01:50:07.777|56=MINIFIX|6=102.96|11=1299709610|14=100|17=EXEC-1776304207693-1251|31=102.96000000000001|32=100|37=20260416-072005-613246|38=100|39=2|40=2|44=102.96000000000001|54=1|55=CSCO|59=0|60=20260416-07:20:07.777|150=F|151=0|527=TRADE-1776304207693-1251|10=206|
> 8=FIX.4.2|9=271|35=8|34=176|49=EXCHANGE|52=20260416-01:50:07.778|56=MINIFIX|6=102.78|11=1299709576|14=100|17=EXEC-1776304207693-1252|31=102.78|32=100|37=20260416-072005-613229|38=100|39=2|40=2|44=102.78|54=1|55=CSCO|59=0|60=20260416-07:20:07.778|150=F|151=0|527=TRADE-1776304207693-1252|10=087|
> 8=FIX.4.2|9=271|35=8|34=177|49=EXCHANGE|52=20260416-01:50:07.779|56=MINIFIX|6=102.76|11=1299709680|14=100|17=EXEC-1776304207693-1253|31=102.76|32=100|37=20260416-072005-613281|38=100|39=2|40=2|44=102.76|54=1|55=CSCO|59=0|60=20260416-07:20:07.779|150=F|151=0|527=TRADE-1776304207693-1253|10=080|
> 8=FIX.4.2|9=268|35=8|34=178|49=EXCHANGE|52=20260416-01:50:07.780|56=MINIFIX|6=102.2|11=1299709566|14=100|17=EXEC-1776304207693-1254|31=102.2|32=100|37=20260416-072005-613224|38=100|39=2|40=2|44=102.2|54=1|55=CSCO|59=0|60=20260416-07:20:07.780|150=F|151=0|527=TRADE-1776304207693-1254|10=152|
> 8=FIX.4.2|9=271|35=8|34=179|49=EXCHANGE|52=20260416-01:50:07.781|56=MINIFIX|6=102.11|11=1299709642|14=100|17=EXEC-1776304207693-1255|31=102.11|32=100|37=20260416-072005-613262|38=100|39=2|40=2|44=102.11|54=1|55=CSCO|59=0|60=20260416-07:20:07.781|150=F|151=0|527=TRADE-1776304207693-1255|10=036|
> 8=FIX.4.2|9=271|35=8|34=180|49=EXCHANGE|52=20260416-01:50:07.782|56=MINIFIX|6=102.09|11=1299709718|14=100|17=EXEC-1776304207693-1256|31=102.09|32=100|37=20260416-072005-613300|38=100|39=2|40=2|44=102.09|54=1|55=CSCO|59=0|60=20260416-07:20:07.782|150=F|151=0|527=TRADE-1776304207693-1256|10=050|
> 8=FIX.4.2|9=271|35=8|34=181|49=EXCHANGE|52=20260416-01:50:07.783|56=MINIFIX|6=101.88|11=1299709578|14=100|17=EXEC-1776304207693-1257|31=101.88|32=100|37=20260416-072005-613230|38=100|39=2|40=2|44=101.88|54=1|55=CSCO|59=0|60=20260416-07:20:07.783|150=F|151=0|527=TRADE-1776304207693-1257|10=079|
> 8=FIX.4.2|9=271|35=8|34=182|49=EXCHANGE|52=20260416-01:50:07.784|56=MINIFIX|6=101.86|11=1299709728|14=100|17=EXEC-1776304207693-1258|31=101.86|32=100|37=20260416-072005-613305|38=100|39=2|40=2|44=101.86|54=1|55=CSCO|59=0|60=20260416-07:20:07.784|150=F|151=0|527=TRADE-1776304207693-1258|10=078|
> 8=FIX.4.2|9=271|35=8|34=183|49=EXCHANGE|52=20260416-01:50:07.784|56=MINIFIX|6=101.73|11=1299709666|14=100|17=EXEC-1776304207693-1259|31=101.73|32=100|37=20260416-072005-613274|38=100|39=2|40=2|44=101.73|54=1|55=CSCO|59=0|60=20260416-07:20:07.784|150=F|151=0|527=TRADE-1776304207693-1259|10=075|
> 8=FIX.4.2|9=295|35=8|34=184|49=EXCHANGE|52=20260416-01:50:07.786|56=MINIFIX|6=101.71|11=1299709668|14=100|17=EXEC-1776304207693-1260|31=101.71000000000001|32=100|37=20260416-072005-613275|38=100|39=2|40=2|44=101.71000000000001|54=1|55=CSCO|59=0|60=20260416-07:20:07.786|150=F|151=0|527=TRADE-1776304207693-1260|10=197|
> 8=FIX.4.2|9=295|35=8|34=185|49=EXCHANGE|52=20260416-01:50:07.787|56=MINIFIX|6=101.57|11=1299709592|14=100|17=EXEC-1776304207693-1261|31=101.57000000000001|32=100|37=20260416-072005-613237|38=100|39=2|40=2|44=101.57000000000001|54=1|55=CSCO|59=0|60=20260416-07:20:07.787|150=F|151=0|527=TRADE-1776304207693-1261|10=208|
> 8=FIX.4.2|9=271|35=8|34=186|49=EXCHANGE|52=20260416-01:50:07.788|56=MINIFIX|6=101.48|11=1299709686|14=100|17=EXEC-1776304207693-1262|31=101.48|32=100|37=20260416-072005-613284|38=100|39=2|40=2|44=101.48|54=1|55=CSCO|59=0|60=20260416-07:20:07.788|150=F|151=0|527=TRADE-1776304207693-1262|10=083|
> 8=FIX.4.2|9=271|35=8|34=187|49=EXCHANGE|52=20260416-01:50:07.789|56=MINIFIX|6=101.41|11=1299709612|14=100|17=EXEC-1776304207693-1263|31=101.41|32=100|37=20260416-072005-613247|38=100|39=2|40=2|44=101.41|54=1|55=CSCO|59=0|60=20260416-07:20:07.789|150=F|151=0|527=TRADE-1776304207693-1263|10=055|
> 8=FIX.4.2|9=295|35=8|34=188|49=EXCHANGE|52=20260416-01:50:07.791|56=MINIFIX|6=101.35|11=1299709554|14=100|17=EXEC-1776304207693-1264|31=101.35000000000001|32=100|37=20260416-072005-613218|38=100|39=2|40=2|44=101.35000000000001|54=1|55=CSCO|59=0|60=20260416-07:20:07.791|150=F|151=0|527=TRADE-1776304207693-1264|10=192|
> 8=FIX.4.2|9=271|35=8|34=189|49=EXCHANGE|52=20260416-01:50:07.791|56=MINIFIX|6=101.26|11=1299709560|14=100|17=EXEC-1776304207693-1265|31=101.26|32=100|37=20260416-072005-613221|38=100|39=2|40=2|44=101.26|54=1|55=CSCO|59=0|60=20260416-07:20:07.791|150=F|151=0|527=TRADE-1776304207693-1265|10=050|
> 8=FIX.4.2|9=271|35=8|34=190|49=EXCHANGE|52=20260416-01:50:07.792|56=MINIFIX|6=101.25|11=1299709698|14=100|17=EXEC-1776304207693-1266|31=101.25|32=100|37=20260416-072005-613290|38=100|39=2|40=2|44=101.25|54=1|55=CSCO|59=0|60=20260416-07:20:07.792|150=F|151=0|527=TRADE-1776304207693-1266|10=061|
> 8=FIX.4.2|9=271|35=8|34=191|49=EXCHANGE|52=20260416-01:50:07.792|56=MINIFIX|6=101.25|11=1299709714|14=100|17=EXEC-1776304207693-1267|31=101.25|32=100|37=20260416-072005-613298|38=100|39=2|40=2|44=101.25|54=1|55=CSCO|59=0|60=20260416-07:20:07.792|150=F|151=0|527=TRADE-1776304207693-1267|10=061|
> 8=FIX.4.2|9=271|35=8|34=192|49=EXCHANGE|52=20260416-01:50:07.794|56=MINIFIX|6=101.12|11=1299709618|14=100|17=EXEC-1776304207693-1268|31=101.12|32=100|37=20260416-072005-613250|38=100|39=2|40=2|44=101.12|54=1|55=CSCO|59=0|60=20260416-07:20:07.794|150=F|151=0|527=TRADE-1776304207693-1268|10=047|
> 8=FIX.4.2|9=271|35=8|34=193|49=EXCHANGE|52=20260416-01:50:07.794|56=MINIFIX|6=101.09|11=1299709602|14=100|17=EXEC-1776304207693-1269|31=101.09|32=100|37=20260416-072005-613242|38=100|39=2|40=2|44=101.09|54=1|55=CSCO|59=0|60=20260416-07:20:07.794|150=F|151=0|527=TRADE-1776304207693-1269|10=062|
> 8=FIX.4.2|9=271|35=8|34=194|49=EXCHANGE|52=20260416-01:50:07.795|56=MINIFIX|6=100.97|11=1299709572|14=100|17=EXEC-1776304207693-1270|31=100.97|32=100|37=20260416-072005-613227|38=100|39=2|40=2|44=100.97|54=1|55=CSCO|59=0|60=20260416-07:20:07.795|150=F|151=0|527=TRADE-1776304207693-1270|10=076|
> 8=FIX.4.2|9=271|35=8|34=195|49=EXCHANGE|52=20260416-01:50:07.797|56=MINIFIX|6=100.97|11=1299709688|14=100|17=EXEC-1776304207693-1271|31=100.97|32=100|37=20260416-072005-613285|38=100|39=2|40=2|44=100.97|54=1|55=CSCO|59=0|60=20260416-07:20:07.797|150=F|151=0|527=TRADE-1776304207693-1271|10=095|
> 8=FIX.4.2|9=271|35=8|34=196|49=EXCHANGE|52=20260416-01:50:07.798|56=MINIFIX|6=100.51|11=1299709722|14=100|17=EXEC-1776304207693-1272|31=100.51|32=100|37=20260416-072005-613302|38=100|39=2|40=2|44=100.51|54=1|55=CSCO|59=0|60=20260416-07:20:07.798|150=F|151=0|527=TRADE-1776304207693-1272|10=049|
> 8=FIX.4.2|9=295|35=8|34=197|49=EXCHANGE|52=20260416-01:50:07.799|56=MINIFIX|6=100.46|11=1299709684|14=100|17=EXEC-1776304207693-1273|31=100.46000000000001|32=100|37=20260416-072005-613283|38=100|39=2|40=2|44=100.46000000000001|54=1|55=CSCO|59=0|60=20260416-07:20:07.799|150=F|151=0|527=TRADE-1776304207693-1273|10=217|
> 8=FIX.4.2|9=271|35=8|34=198|49=EXCHANGE|52=20260416-01:50:07.800|56=MINIFIX|6=100.36|11=1299709726|14=100|17=EXEC-1776304207693-1274|31=100.36|32=100|37=20260416-072005-613304|38=100|39=2|40=2|44=100.36|54=1|55=CSCO|59=0|60=20260416-07:20:07.800|150=F|151=0|527=TRADE-1776304207693-1274|10=038|
> 8=FIX.4.2|9=295|35=8|34=199|49=EXCHANGE|52=20260416-01:50:07.801|56=MINIFIX|6=100.35|11=1299709636|14=100|17=EXEC-1776304207693-1275|31=100.35000000000001|32=100|37=20260416-072005-613259|38=100|39=2|40=2|44=100.35000000000001|54=1|55=CSCO|59=0|60=20260416-07:20:07.801|150=F|151=0|527=TRADE-1776304207693-1275|10=185|
> 8=FIX.4.2|9=271|35=8|34=200|49=EXCHANGE|52=20260416-01:50:07.802|56=MINIFIX|6=100.34|11=1299709708|14=100|17=EXEC-1776304207693-1276|31=100.34|32=100|37=20260416-072005-613295|38=100|39=2|40=2|44=100.34|54=1|55=CSCO|59=0|60=20260416-07:20:07.802|150=F|151=0|527=TRADE-1776304207693-1276|10=033|
> 8=FIX.4.2|9=271|35=8|34=201|49=EXCHANGE|52=20260416-01:50:07.803|56=MINIFIX|6=100.31|11=1299709676|14=100|17=EXEC-1776304207693-1277|31=100.31|32=100|37=20260416-072005-613279|38=100|39=2|40=2|44=100.31|54=1|55=CSCO|59=0|60=20260416-07:20:07.803|150=F|151=0|527=TRADE-1776304207693-1277|10=035|
> 8=FIX.4.2|9=271|35=8|34=202|49=EXCHANGE|52=20260416-01:50:07.804|56=MINIFIX|6=100.04|11=1299709614|14=100|17=EXEC-1776304207693-1278|31=100.04|32=100|37=20260416-072005-613248|38=100|39=2|40=2|44=100.04|54=1|55=CSCO|59=0|60=20260416-07:20:07.804|150=F|151=0|527=TRADE-1776304207693-1278|10=028|
> 8=FIX.4.2|9=275|35=8|34=203|49=EXCHANGE|52=20260416-01:50:07.805|56=MINIFIX|6=105.4272|11=1299709752|14=100|17=EXEC-1776304207693-1179|31=109.95|32=100|37=20260416-072007-613317|38=10000|39=1|40=2|44=100|54=2|55=CSCO|59=0|60=20260416-07:20:07.805|150=F|151=9900|527=TRADE-1776304207693-1179|10=024|
> 8=FIX.4.2|9=275|35=8|34=204|49=EXCHANGE|52=20260416-01:50:07.805|56=MINIFIX|6=105.4272|11=1299709752|14=200|17=EXEC-1776304207693-1180|31=109.93|32=100|37=20260416-072007-613317|38=10000|39=1|40=2|44=100|54=2|55=CSCO|59=0|60=20260416-07:20:07.805|150=F|151=9800|527=TRADE-1776304207693-1180|10=007|
> 8=FIX.4.2|9=275|35=8|34=205|49=EXCHANGE|52=20260416-01:50:07.805|56=MINIFIX|6=105.4272|11=1299709752|14=300|17=EXEC-1776304207693-1181|31=109.91|32=100|37=20260416-072007-613317|38=10000|39=1|40=2|44=100|54=2|55=CSCO|59=0|60=20260416-07:20:07.805|150=F|151=9700|527=TRADE-1776304207693-1181|10=008|
> 8=FIX.4.2|9=274|35=8|34=206|49=EXCHANGE|52=20260416-01:50:07.805|56=MINIFIX|6=105.4272|11=1299709752|14=400|17=EXEC-1776304207693-1182|31=109.8|32=100|37=20260416-072007-613317|38=10000|39=1|40=2|44=100|54=2|55=CSCO|59=0|60=20260416-07:20:07.805|150=F|151=9600|527=TRADE-1776304207693-1182|10=216|
> 8=FIX.4.2|9=275|35=8|34=207|49=EXCHANGE|52=20260416-01:50:07.805|56=MINIFIX|6=105.4272|11=1299709752|14=500|17=EXEC-1776304207693-1183|31=109.69|32=100|37=20260416-072007-613317|38=10000|39=1|40=2|44=100|54=2|55=CSCO|59=0|60=20260416-07:20:07.805|150=F|151=9500|527=TRADE-1776304207693-1183|10=019|
> 8=FIX.4.2|9=275|35=8|34=208|49=EXCHANGE|52=20260416-01:50:07.805|56=MINIFIX|6=105.4272|11=1299709752|14=600|17=EXEC-1776304207693-1184|31=109.67|32=100|37=20260416-072007-613317|38=10000|39=1|40=2|44=100|54=2|55=CSCO|59=0|60=20260416-07:20:07.805|150=F|151=9400|527=TRADE-1776304207693-1184|10=020|
> 8=FIX.4.2|9=275|35=8|34=209|49=EXCHANGE|52=20260416-01:50:07.805|56=MINIFIX|6=105.4272|11=1299709752|14=700|17=EXEC-1776304207693-1185|31=109.66|32=100|37=20260416-072007-613317|38=10000|39=1|40=2|44=100|54=2|55=CSCO|59=0|60=20260416-07:20:07.805|150=F|151=9300|527=TRADE-1776304207693-1185|10=022|
> 8=FIX.4.2|9=275|35=8|34=210|49=EXCHANGE|52=20260416-01:50:07.805|56=MINIFIX|6=105.4272|11=1299709752|14=800|17=EXEC-1776304207693-1186|31=109.63|32=100|37=20260416-072007-613317|38=10000|39=1|40=2|44=100|54=2|55=CSCO|59=0|60=20260416-07:20:07.805|150=F|151=9200|527=TRADE-1776304207693-1186|10=013|
> 8=FIX.4.2|9=275|35=8|34=211|49=EXCHANGE|52=20260416-01:50:07.807|56=MINIFIX|6=105.4272|11=1299709752|14=900|17=EXEC-1776304207693-1187|31=109.58|32=100|37=20260416-072007-613317|38=10000|39=1|40=2|44=100|54=2|55=CSCO|59=0|60=20260416-07:20:07.807|150=F|151=9100|527=TRADE-1776304207693-1187|10=024|
> 8=FIX.4.2|9=276|35=8|34=212|49=EXCHANGE|52=20260416-01:50:07.807|56=MINIFIX|6=105.4272|11=1299709752|14=1000|17=EXEC-1776304207693-1188|31=109.56|32=100|37=20260416-072007-613317|38=10000|39=1|40=2|44=100|54=2|55=CSCO|59=0|60=20260416-07:20:07.807|150=F|151=9000|527=TRADE-1776304207693-1188|10=065|
> 8=FIX.4.2|9=276|35=8|34=213|49=EXCHANGE|52=20260416-01:50:07.807|56=MINIFIX|6=105.4272|11=1299709752|14=1100|17=EXEC-1776304207693-1189|31=109.56|32=100|37=20260416-072007-613317|38=10000|39=1|40=2|44=100|54=2|55=CSCO|59=0|60=20260416-07:20:07.807|150=F|151=8900|527=TRADE-1776304207693-1189|10=077|
> 8=FIX.4.2|9=288|35=8|34=214|49=EXCHANGE|52=20260416-01:50:07.807|56=MINIFIX|6=105.4272|11=1299709752|14=1200|17=EXEC-1776304207693-1190|31=109.49000000000001|32=100|37=20260416-072007-613317|38=10000|39=1|40=2|44=100|54=2|55=CSCO|59=0|60=20260416-07:20:07.807|150=F|151=8800|527=TRADE-1776304207693-1190|10=132|
> 8=FIX.4.2|9=276|35=8|34=215|49=EXCHANGE|52=20260416-01:50:07.807|56=MINIFIX|6=105.4272|11=1299709752|14=1300|17=EXEC-1776304207693-1191|31=109.33|32=100|37=20260416-072007-613317|38=10000|39=1|40=2|44=100|54=2|55=CSCO|59=0|60=20260416-07:20:07.807|150=F|151=8700|527=TRADE-1776304207693-1191|10=060|
> 8=FIX.4.2|9=276|35=8|34=216|49=EXCHANGE|52=20260416-01:50:07.807|56=MINIFIX|6=105.4272|11=1299709752|14=1400|17=EXEC-1776304207693-1192|31=109.19|32=100|37=20260416-072007-613317|38=10000|39=1|40=2|44=100|54=2|55=CSCO|59=0|60=20260416-07:20:07.807|150=F|151=8600|527=TRADE-1776304207693-1192|10=067|
> 8=FIX.4.2|9=276|35=8|34=217|49=EXCHANGE|52=20260416-01:50:07.807|56=MINIFIX|6=105.4272|11=1299709752|14=1500|17=EXEC-1776304207693-1193|31=109.14|32=100|37=20260416-072007-613317|38=10000|39=1|40=2|44=100|54=2|55=CSCO|59=0|60=20260416-07:20:07.807|150=F|151=8500|527=TRADE-1776304207693-1193|10=065|
> 8=FIX.4.2|9=276|35=8|34=218|49=EXCHANGE|52=20260416-01:50:07.807|56=MINIFIX|6=105.4272|11=1299709752|14=1600|17=EXEC-1776304207693-1194|31=109.12|32=100|37=20260416-072007-613317|38=10000|39=1|40=2|44=100|54=2|55=CSCO|59=0|60=20260416-07:20:07.807|150=F|151=8400|527=TRADE-1776304207693-1194|10=066|
> 8=FIX.4.2|9=276|35=8|34=219|49=EXCHANGE|52=20260416-01:50:07.808|56=MINIFIX|6=105.4272|11=1299709752|14=1700|17=EXEC-1776304207693-1195|31=109.04|32=100|37=20260416-072007-613317|38=10000|39=1|40=2|44=100|54=2|55=CSCO|59=0|60=20260416-07:20:07.808|150=F|151=8300|527=TRADE-1776304207693-1195|10=072|
> 8=FIX.4.2|9=276|35=8|34=220|49=EXCHANGE|52=20260416-01:50:07.808|56=MINIFIX|6=105.4272|11=1299709752|14=1800|17=EXEC-1776304207693-1196|31=108.77|32=100|37=20260416-072007-613317|38=10000|39=1|40=2|44=100|54=2|55=CSCO|59=0|60=20260416-07:20:07.808|150=F|151=8200|527=TRADE-1776304207693-1196|10=075|
> 8=FIX.4.2|9=288|35=8|34=221|49=EXCHANGE|52=20260416-01:50:07.808|56=MINIFIX|6=105.4272|11=1299709752|14=1900|17=EXEC-1776304207693-1197|31=108.71000000000001|32=100|37=20260416-072007-613317|38=10000|39=1|40=2|44=100|54=2|55=CSCO|59=0|60=20260416-07:20:07.808|150=F|151=8100|527=TRADE-1776304207693-1197|10=140|
> 8=FIX.4.2|9=276|35=8|34=222|49=EXCHANGE|52=20260416-01:50:07.808|56=MINIFIX|6=105.4272|11=1299709752|14=2000|17=EXEC-1776304207693-1198|31=108.48|32=100|37=20260416-072007-613317|38=10000|39=1|40=2|44=100|54=2|55=CSCO|59=0|60=20260416-07:20:07.808|150=F|151=8000|527=TRADE-1776304207693-1198|10=070|
> 8=FIX.4.2|9=276|35=8|34=223|49=EXCHANGE|52=20260416-01:50:07.808|56=MINIFIX|6=105.4272|11=1299709752|14=2100|17=EXEC-1776304207693-1199|31=108.34|32=100|37=20260416-072007-613317|38=10000|39=1|40=2|44=100|54=2|55=CSCO|59=0|60=20260416-07:20:07.808|150=F|151=7900|527=TRADE-1776304207693-1199|10=077|
> 8=FIX.4.2|9=276|35=8|34=224|49=EXCHANGE|52=20260416-01:50:07.808|56=MINIFIX|6=105.4272|11=1299709752|14=2200|17=EXEC-1776304207693-1200|31=108.22|32=100|37=20260416-072007-613317|38=10000|39=1|40=2|44=100|54=2|55=CSCO|59=0|60=20260416-07:20:07.808|150=F|151=7800|527=TRADE-1776304207693-1200|10=041|
> 8=FIX.4.2|9=288|35=8|34=225|49=EXCHANGE|52=20260416-01:50:07.808|56=MINIFIX|6=105.4272|11=1299709752|14=2300|17=EXEC-1776304207693-1201|31=108.21000000000001|32=100|37=20260416-072007-613317|38=10000|39=1|40=2|44=100|54=2|55=CSCO|59=0|60=20260416-07:20:07.808|150=F|151=7700|527=TRADE-1776304207693-1201|10=111|
> 8=FIX.4.2|9=276|35=8|34=226|49=EXCHANGE|52=20260416-01:50:07.809|56=MINIFIX|6=105.4272|11=1299709752|14=2400|17=EXEC-1776304207693-1202|31=108.13|32=100|37=20260416-072007-613317|38=10000|39=1|40=2|44=100|54=2|55=CSCO|59=0|60=20260416-07:20:07.809|150=F|151=7600|527=TRADE-1776304207693-1202|10=049|
> 8=FIX.4.2|9=276|35=8|34=227|49=EXCHANGE|52=20260416-01:50:07.809|56=MINIFIX|6=105.4272|11=1299709752|14=2500|17=EXEC-1776304207693-1203|31=108.06|32=100|37=20260416-072007-613317|38=10000|39=1|40=2|44=100|54=2|55=CSCO|59=0|60=20260416-07:20:07.809|150=F|151=7500|527=TRADE-1776304207693-1203|10=054|
> 8=FIX.4.2|9=288|35=8|34=228|49=EXCHANGE|52=20260416-01:50:07.809|56=MINIFIX|6=105.4272|11=1299709752|14=2600|17=EXEC-1776304207693-1204|31=107.99000000000001|32=100|37=20260416-072007-613317|38=10000|39=1|40=2|44=100|54=2|55=CSCO|59=0|60=20260416-07:20:07.809|150=F|151=7400|527=TRADE-1776304207693-1204|10=136|
> 8=FIX.4.2|9=276|35=8|34=229|49=EXCHANGE|52=20260416-01:50:07.809|56=MINIFIX|6=105.4272|11=1299709752|14=2700|17=EXEC-1776304207693-1205|31=107.97|32=100|37=20260416-072007-613317|38=10000|39=1|40=2|44=100|54=2|55=CSCO|59=0|60=20260416-07:20:07.809|150=F|151=7300|527=TRADE-1776304207693-1205|10=069|
> 8=FIX.4.2|9=276|35=8|34=230|49=EXCHANGE|52=20260416-01:50:07.809|56=MINIFIX|6=105.4272|11=1299709752|14=2800|17=EXEC-1776304207693-1206|31=107.97|32=100|37=20260416-072007-613317|38=10000|39=1|40=2|44=100|54=2|55=CSCO|59=0|60=20260416-07:20:07.809|150=F|151=7200|527=TRADE-1776304207693-1206|10=063|
> 8=FIX.4.2|9=288|35=8|34=231|49=EXCHANGE|52=20260416-01:50:07.809|56=MINIFIX|6=105.4272|11=1299709752|14=2900|17=EXEC-1776304207693-1207|31=107.96000000000001|32=100|37=20260416-072007-613317|38=10000|39=1|40=2|44=100|54=2|55=CSCO|59=0|60=20260416-07:20:07.809|150=F|151=7100|527=TRADE-1776304207693-1207|10=133|
> 8=FIX.4.2|9=276|35=8|34=232|49=EXCHANGE|52=20260416-01:50:07.809|56=MINIFIX|6=105.4272|11=1299709752|14=3000|17=EXEC-1776304207693-1208|31=107.94|32=100|37=20260416-072007-613317|38=10000|39=1|40=2|44=100|54=2|55=CSCO|59=0|60=20260416-07:20:07.809|150=F|151=7000|527=TRADE-1776304207693-1208|10=057|
> 8=FIX.4.2|9=276|35=8|34=233|49=EXCHANGE|52=20260416-01:50:07.809|56=MINIFIX|6=105.4272|11=1299709752|14=3100|17=EXEC-1776304207693-1209|31=107.93|32=100|37=20260416-072007-613317|38=10000|39=1|40=2|44=100|54=2|55=CSCO|59=0|60=20260416-07:20:07.809|150=F|151=6900|527=TRADE-1776304207693-1209|10=068|
> 8=FIX.4.2|9=276|35=8|34=234|49=EXCHANGE|52=20260416-01:50:07.809|56=MINIFIX|6=105.4272|11=1299709752|14=3200|17=EXEC-1776304207693-1210|31=107.91|32=100|37=20260416-072007-613317|38=10000|39=1|40=2|44=100|54=2|55=CSCO|59=0|60=20260416-07:20:07.809|150=F|151=6800|527=TRADE-1776304207693-1210|10=051|
> 8=FIX.4.2|9=276|35=8|34=235|49=EXCHANGE|52=20260416-01:50:07.810|56=MINIFIX|6=105.4272|11=1299709752|14=3300|17=EXEC-1776304207693-1211|31=107.64|32=100|37=20260416-072007-613317|38=10000|39=1|40=2|44=100|54=2|55=CSCO|59=0|60=20260416-07:20:07.810|150=F|151=6700|527=TRADE-1776304207693-1211|10=038|
> 8=FIX.4.2|9=276|35=8|34=236|49=EXCHANGE|52=20260416-01:50:07.810|56=MINIFIX|6=105.4272|11=1299709752|14=3400|17=EXEC-1776304207693-1212|31=107.62|32=100|37=20260416-072007-613317|38=10000|39=1|40=2|44=100|54=2|55=CSCO|59=0|60=20260416-07:20:07.810|150=F|151=6600|527=TRADE-1776304207693-1212|10=039|
> 8=FIX.4.2|9=276|35=8|34=237|49=EXCHANGE|52=20260416-01:50:07.810|56=MINIFIX|6=105.4272|11=1299709752|14=3500|17=EXEC-1776304207693-1213|31=107.56|32=100|37=20260416-072007-613317|38=10000|39=1|40=2|44=100|54=2|55=CSCO|59=0|60=20260416-07:20:07.810|150=F|151=6500|527=TRADE-1776304207693-1213|10=045|
> 8=FIX.4.2|9=276|35=8|34=238|49=EXCHANGE|52=20260416-01:50:07.810|56=MINIFIX|6=105.4272|11=1299709752|14=3600|17=EXEC-1776304207693-1214|31=107.53|32=100|37=20260416-072007-613317|38=10000|39=1|40=2|44=100|54=2|55=CSCO|59=0|60=20260416-07:20:07.810|150=F|151=6400|527=TRADE-1776304207693-1214|10=045|
> 8=FIX.4.2|9=276|35=8|34=239|49=EXCHANGE|52=20260416-01:50:07.810|56=MINIFIX|6=105.4272|11=1299709752|14=3700|17=EXEC-1776304207693-1215|31=107.42|32=100|37=20260416-072007-613317|38=10000|39=1|40=2|44=100|54=2|55=CSCO|59=0|60=20260416-07:20:07.810|150=F|151=6300|527=TRADE-1776304207693-1215|10=046|
> 8=FIX.4.2|9=276|35=8|34=240|49=EXCHANGE|52=20260416-01:50:07.810|56=MINIFIX|6=105.4272|11=1299709752|14=3800|17=EXEC-1776304207693-1216|31=107.39|32=100|37=20260416-072007-613317|38=10000|39=1|40=2|44=100|54=2|55=CSCO|59=0|60=20260416-07:20:07.810|150=F|151=6200|527=TRADE-1776304207693-1216|10=046|
> 8=FIX.4.2|9=276|35=8|34=241|49=EXCHANGE|52=20260416-01:50:07.810|56=MINIFIX|6=105.4272|11=1299709752|14=3900|17=EXEC-1776304207693-1217|31=107.25|32=100|37=20260416-072007-613317|38=10000|39=1|40=2|44=100|54=2|55=CSCO|59=0|60=20260416-07:20:07.810|150=F|151=6100|527=TRADE-1776304207693-1217|10=044|
> 8=FIX.4.2|9=276|35=8|34=242|49=EXCHANGE|52=20260416-01:50:07.811|56=MINIFIX|6=105.4272|11=1299709752|14=4000|17=EXEC-1776304207693-1218|31=107.08|32=100|37=20260416-072007-613317|38=10000|39=1|40=2|44=100|54=2|55=CSCO|59=0|60=20260416-07:20:07.811|150=F|151=6000|527=TRADE-1776304207693-1218|10=041|
> 8=FIX.4.2|9=276|35=8|34=243|49=EXCHANGE|52=20260416-01:50:07.811|56=MINIFIX|6=105.4272|11=1299709752|14=4100|17=EXEC-1776304207693-1219|31=107.05|32=100|37=20260416-072007-613317|38=10000|39=1|40=2|44=100|54=2|55=CSCO|59=0|60=20260416-07:20:07.811|150=F|151=5900|527=TRADE-1776304207693-1219|10=050|
> 8=FIX.4.2|9=276|35=8|34=244|49=EXCHANGE|52=20260416-01:50:07.811|56=MINIFIX|6=105.4272|11=1299709752|14=4200|17=EXEC-1776304207693-1220|31=106.94|32=100|37=20260416-072007-613317|38=10000|39=1|40=2|44=100|54=2|55=CSCO|59=0|60=20260416-07:20:07.811|150=F|151=5800|527=TRADE-1776304207693-1220|10=042|
> 8=FIX.4.2|9=275|35=8|34=245|49=EXCHANGE|52=20260416-01:50:07.811|56=MINIFIX|6=105.4272|11=1299709752|14=4300|17=EXEC-1776304207693-1221|31=106.8|32=100|37=20260416-072007-613317|38=10000|39=1|40=2|44=100|54=2|55=CSCO|59=0|60=20260416-07:20:07.811|150=F|151=5700|527=TRADE-1776304207693-1221|10=247|
> 8=FIX.4.2|9=276|35=8|34=246|49=EXCHANGE|52=20260416-01:50:07.811|56=MINIFIX|6=105.4272|11=1299709752|14=4400|17=EXEC-1776304207693-1222|31=106.78|32=100|37=20260416-072007-613317|38=10000|39=1|40=2|44=100|54=2|55=CSCO|59=0|60=20260416-07:20:07.811|150=F|151=5600|527=TRADE-1776304207693-1222|10=050|
> 8=FIX.4.2|9=276|35=8|34=247|49=EXCHANGE|52=20260416-01:50:07.811|56=MINIFIX|6=105.4272|11=1299709752|14=4500|17=EXEC-1776304207693-1223|31=106.62|32=100|37=20260416-072007-613317|38=10000|39=1|40=2|44=100|54=2|55=CSCO|59=0|60=20260416-07:20:07.811|150=F|151=5500|527=TRADE-1776304207693-1223|10=046|
> 8=FIX.4.2|9=276|35=8|34=248|49=EXCHANGE|52=20260416-01:50:07.811|56=MINIFIX|6=105.4272|11=1299709752|14=4600|17=EXEC-1776304207693-1224|31=106.55|32=100|37=20260416-072007-613317|38=10000|39=1|40=2|44=100|54=2|55=CSCO|59=0|60=20260416-07:20:07.811|150=F|151=5400|527=TRADE-1776304207693-1224|10=051|
> 8=FIX.4.2|9=276|35=8|34=249|49=EXCHANGE|52=20260416-01:50:07.811|56=MINIFIX|6=105.4272|11=1299709752|14=4700|17=EXEC-1776304207693-1225|31=106.54|32=100|37=20260416-072007-613317|38=10000|39=1|40=2|44=100|54=2|55=CSCO|59=0|60=20260416-07:20:07.811|150=F|151=5300|527=TRADE-1776304207693-1225|10=053|
> 8=FIX.4.2|9=276|35=8|34=250|49=EXCHANGE|52=20260416-01:50:07.813|56=MINIFIX|6=105.4272|11=1299709752|14=4800|17=EXEC-1776304207693-1226|31=106.45|32=100|37=20260416-072007-613317|38=10000|39=1|40=2|44=100|54=2|55=CSCO|59=0|60=20260416-07:20:07.813|150=F|151=5200|527=TRADE-1776304207693-1226|10=051|
> 8=FIX.4.2|9=276|35=8|34=251|49=EXCHANGE|52=20260416-01:50:07.813|56=MINIFIX|6=105.4272|11=1299709752|14=4900|17=EXEC-1776304207693-1227|31=106.39|32=100|37=20260416-072007-613317|38=10000|39=1|40=2|44=100|54=2|55=CSCO|59=0|60=20260416-07:20:07.813|150=F|151=5100|527=TRADE-1776304207693-1227|10=057|
> 8=FIX.4.2|9=276|35=8|34=252|49=EXCHANGE|52=20260416-01:50:07.813|56=MINIFIX|6=105.4272|11=1299709752|14=5000|17=EXEC-1776304207693-1228|31=106.31|32=100|37=20260416-072007-613317|38=10000|39=1|40=2|44=100|54=2|55=CSCO|59=0|60=20260416-07:20:07.813|150=F|151=5000|527=TRADE-1776304207693-1228|10=043|
> 8=FIX.4.2|9=288|35=8|34=253|49=EXCHANGE|52=20260416-01:50:07.813|56=MINIFIX|6=105.4272|11=1299709752|14=5100|17=EXEC-1776304207693-1229|31=105.46000000000001|32=100|37=20260416-072007-613317|38=10000|39=1|40=2|44=100|54=2|55=CSCO|59=0|60=20260416-07:20:07.813|150=F|151=4900|527=TRADE-1776304207693-1229|10=128|
> 8=FIX.4.2|9=288|35=8|34=254|49=EXCHANGE|52=20260416-01:50:07.813|56=MINIFIX|6=105.4272|11=1299709752|14=5200|17=EXEC-1776304207693-1230|31=105.46000000000001|32=100|37=20260416-072007-613317|38=10000|39=1|40=2|44=100|54=2|55=CSCO|59=0|60=20260416-07:20:07.813|150=F|151=4800|527=TRADE-1776304207693-1230|10=113|
> 8=FIX.4.2|9=276|35=8|34=255|49=EXCHANGE|52=20260416-01:50:07.813|56=MINIFIX|6=105.4272|11=1299709752|14=5300|17=EXEC-1776304207693-1231|31=105.03|32=100|37=20260416-072007-613317|38=10000|39=1|40=2|44=100|54=2|55=CSCO|59=0|60=20260416-07:20:07.813|150=F|151=4700|527=TRADE-1776304207693-1231|10=041|
> 8=FIX.4.2|9=275|35=8|34=256|49=EXCHANGE|52=20260416-01:50:07.813|56=MINIFIX|6=105.4272|11=1299709752|14=5400|17=EXEC-1776304207693-1232|31=104.9|32=100|37=20260416-072007-613317|38=10000|39=1|40=2|44=100|54=2|55=CSCO|59=0|60=20260416-07:20:07.813|150=F|151=4600|527=TRADE-1776304207693-1232|10=000|
> 8=FIX.4.2|9=276|35=8|34=257|49=EXCHANGE|52=20260416-01:50:07.813|56=MINIFIX|6=105.4272|11=1299709752|14=5500|17=EXEC-1776304207693-1233|31=104.89|32=100|37=20260416-072007-613317|38=10000|39=1|40=2|44=100|54=2|55=CSCO|59=0|60=20260416-07:20:07.813|150=F|151=4500|527=TRADE-1776304207693-1233|10=060|
> 8=FIX.4.2|9=276|35=8|34=258|49=EXCHANGE|52=20260416-01:50:07.814|56=MINIFIX|6=105.4272|11=1299709752|14=5600|17=EXEC-1776304207693-1234|31=104.87|32=100|37=20260416-072007-613317|38=10000|39=1|40=2|44=100|54=2|55=CSCO|59=0|60=20260416-07:20:07.814|150=F|151=4400|527=TRADE-1776304207693-1234|10=063|
> 8=FIX.4.2|9=276|35=8|34=259|49=EXCHANGE|52=20260416-01:50:07.814|56=MINIFIX|6=105.4272|11=1299709752|14=5700|17=EXEC-1776304207693-1235|31=104.84|32=100|37=20260416-072007-613317|38=10000|39=1|40=2|44=100|54=2|55=CSCO|59=0|60=20260416-07:20:07.814|150=F|151=4300|527=TRADE-1776304207693-1235|10=063|
> 8=FIX.4.2|9=288|35=8|34=260|49=EXCHANGE|52=20260416-01:50:07.814|56=MINIFIX|6=105.4272|11=1299709752|14=5800|17=EXEC-1776304207693-1236|31=104.74000000000001|32=100|37=20260416-072007-613317|38=10000|39=1|40=2|44=100|54=2|55=CSCO|59=0|60=20260416-07:20:07.814|150=F|151=4200|527=TRADE-1776304207693-1236|10=124|
> 8=FIX.4.2|9=288|35=8|34=261|49=EXCHANGE|52=20260416-01:50:07.814|56=MINIFIX|6=105.4272|11=1299709752|14=5900|17=EXEC-1776304207693-1237|31=104.57000000000001|32=100|37=20260416-072007-613317|38=10000|39=1|40=2|44=100|54=2|55=CSCO|59=0|60=20260416-07:20:07.814|150=F|151=4100|527=TRADE-1776304207693-1237|10=128|
> 8=FIX.4.2|9=276|35=8|34=262|49=EXCHANGE|52=20260416-01:50:07.814|56=MINIFIX|6=105.4272|11=1299709752|14=6000|17=EXEC-1776304207693-1238|31=104.45|32=100|37=20260416-072007-613317|38=10000|39=1|40=2|44=100|54=2|55=CSCO|59=0|60=20260416-07:20:07.814|150=F|151=4000|527=TRADE-1776304207693-1238|10=051|
> 8=FIX.4.2|9=276|35=8|34=263|49=EXCHANGE|52=20260416-01:50:07.814|56=MINIFIX|6=105.4272|11=1299709752|14=6100|17=EXEC-1776304207693-1239|31=104.38|32=100|37=20260416-072007-613317|38=10000|39=1|40=2|44=100|54=2|55=CSCO|59=0|60=20260416-07:20:07.814|150=F|151=3900|527=TRADE-1776304207693-1239|10=065|
> 8=FIX.4.2|9=288|35=8|34=264|49=EXCHANGE|52=20260416-01:50:07.814|56=MINIFIX|6=105.4272|11=1299709752|14=6200|17=EXEC-1776304207693-1240|31=104.21000000000001|32=100|37=20260416-072007-613317|38=10000|39=1|40=2|44=100|54=2|55=CSCO|59=0|60=20260416-07:20:07.814|150=F|151=3800|527=TRADE-1776304207693-1240|10=110|
> 8=FIX.4.2|9=288|35=8|34=265|49=EXCHANGE|52=20260416-01:50:07.815|56=MINIFIX|6=105.4272|11=1299709752|14=6300|17=EXEC-1776304207693-1241|31=104.21000000000001|32=100|37=20260416-072007-613317|38=10000|39=1|40=2|44=100|54=2|55=CSCO|59=0|60=20260416-07:20:07.815|150=F|151=3700|527=TRADE-1776304207693-1241|10=115|
> 8=FIX.4.2|9=276|35=8|34=266|49=EXCHANGE|52=20260416-01:50:07.815|56=MINIFIX|6=105.4272|11=1299709752|14=6400|17=EXEC-1776304207693-1242|31=104.08|32=100|37=20260416-072007-613317|38=10000|39=1|40=2|44=100|54=2|55=CSCO|59=0|60=20260416-07:20:07.815|150=F|151=3600|527=TRADE-1776304207693-1242|10=055|
> 8=FIX.4.2|9=276|35=8|34=267|49=EXCHANGE|52=20260416-01:50:07.815|56=MINIFIX|6=105.4272|11=1299709752|14=6500|17=EXEC-1776304207693-1243|31=103.98|32=100|37=20260416-072007-613317|38=10000|39=1|40=2|44=100|54=2|55=CSCO|59=0|60=20260416-07:20:07.815|150=F|151=3500|527=TRADE-1776304207693-1243|10=066|
> 8=FIX.4.2|9=276|35=8|34=268|49=EXCHANGE|52=20260416-01:50:07.815|56=MINIFIX|6=105.4272|11=1299709752|14=6600|17=EXEC-1776304207693-1244|31=103.91|32=100|37=20260416-072007-613317|38=10000|39=1|40=2|44=100|54=2|55=CSCO|59=0|60=20260416-07:20:07.815|150=F|151=3400|527=TRADE-1776304207693-1244|10=062|
> 8=FIX.4.2|9=276|35=8|34=269|49=EXCHANGE|52=20260416-01:50:07.815|56=MINIFIX|6=105.4272|11=1299709752|14=6700|17=EXEC-1776304207693-1245|31=103.81|32=100|37=20260416-072007-613317|38=10000|39=1|40=2|44=100|54=2|55=CSCO|59=0|60=20260416-07:20:07.815|150=F|151=3300|527=TRADE-1776304207693-1245|10=064|
> 8=FIX.4.2|9=288|35=8|34=270|49=EXCHANGE|52=20260416-01:50:07.815|56=MINIFIX|6=105.4272|11=1299709752|14=6800|17=EXEC-1776304207693-1246|31=103.60000000000001|32=100|37=20260416-072007-613317|38=10000|39=1|40=2|44=100|54=2|55=CSCO|59=0|60=20260416-07:20:07.815|150=F|151=3200|527=TRADE-1776304207693-1246|10=123|
> 8=FIX.4.2|9=276|35=8|34=271|49=EXCHANGE|52=20260416-01:50:07.815|56=MINIFIX|6=105.4272|11=1299709752|14=6900|17=EXEC-1776304207693-1247|31=103.16|32=100|37=20260416-072007-613317|38=10000|39=1|40=2|44=100|54=2|55=CSCO|59=0|60=20260416-07:20:07.815|150=F|151=3100|527=TRADE-1776304207693-1247|10=059|
> 8=FIX.4.2|9=276|35=8|34=272|49=EXCHANGE|52=20260416-01:50:07.815|56=MINIFIX|6=105.4272|11=1299709752|14=7000|17=EXEC-1776304207693-1248|31=103.16|32=100|37=20260416-072007-613317|38=10000|39=1|40=2|44=100|54=2|55=CSCO|59=0|60=20260416-07:20:07.815|150=F|151=3000|527=TRADE-1776304207693-1248|10=053|
> 8=FIX.4.2|9=288|35=8|34=273|49=EXCHANGE|52=20260416-01:50:07.816|56=MINIFIX|6=105.4272|11=1299709752|14=7100|17=EXEC-1776304207693-1249|31=103.07000000000001|32=100|37=20260416-072007-613317|38=10000|39=1|40=2|44=100|54=2|55=CSCO|59=0|60=20260416-07:20:07.816|150=F|151=2900|527=TRADE-1776304207693-1249|10=135|
> 8=FIX.4.2|9=276|35=8|34=274|49=EXCHANGE|52=20260416-01:50:07.816|56=MINIFIX|6=105.4272|11=1299709752|14=7200|17=EXEC-1776304207693-1250|31=103.01|32=100|37=20260416-072007-613317|38=10000|39=1|40=2|44=100|54=2|55=CSCO|59=0|60=20260416-07:20:07.816|150=F|151=2800|527=TRADE-1776304207693-1250|10=046|
> 8=FIX.4.2|9=288|35=8|34=275|49=EXCHANGE|52=20260416-01:50:07.816|56=MINIFIX|6=105.4272|11=1299709752|14=7300|17=EXEC-1776304207693-1251|31=102.96000000000001|32=100|37=20260416-072007-613317|38=10000|39=1|40=2|44=100|54=2|55=CSCO|59=0|60=20260416-07:20:07.816|150=F|151=2700|527=TRADE-1776304207693-1251|10=130|
> 8=FIX.4.2|9=276|35=8|34=276|49=EXCHANGE|52=20260416-01:50:07.816|56=MINIFIX|6=105.4272|11=1299709752|14=7400|17=EXEC-1776304207693-1252|31=102.78|32=100|37=20260416-072007-613317|38=10000|39=1|40=2|44=100|54=2|55=CSCO|59=0|60=20260416-07:20:07.816|150=F|151=2600|527=TRADE-1776304207693-1252|10=065|
> 8=FIX.4.2|9=276|35=8|34=277|49=EXCHANGE|52=20260416-01:50:07.816|56=MINIFIX|6=105.4272|11=1299709752|14=7500|17=EXEC-1776304207693-1253|31=102.76|32=100|37=20260416-072007-613317|38=10000|39=1|40=2|44=100|54=2|55=CSCO|59=0|60=20260416-07:20:07.816|150=F|151=2500|527=TRADE-1776304207693-1253|10=066|
> 8=FIX.4.2|9=275|35=8|34=278|49=EXCHANGE|52=20260416-01:50:07.816|56=MINIFIX|6=105.4272|11=1299709752|14=7600|17=EXEC-1776304207693-1254|31=102.2|32=100|37=20260416-072007-613317|38=10000|39=1|40=2|44=100|54=2|55=CSCO|59=0|60=20260416-07:20:07.816|150=F|151=2400|527=TRADE-1776304207693-1254|10=009|
> 8=FIX.4.2|9=276|35=8|34=279|49=EXCHANGE|52=20260416-01:50:07.816|56=MINIFIX|6=105.4272|11=1299709752|14=7700|17=EXEC-1776304207693-1255|31=102.11|32=100|37=20260416-072007-613317|38=10000|39=1|40=2|44=100|54=2|55=CSCO|59=0|60=20260416-07:20:07.816|150=F|151=2300|527=TRADE-1776304207693-1255|10=061|
> 8=FIX.4.2|9=276|35=8|34=280|49=EXCHANGE|52=20260416-01:50:07.817|56=MINIFIX|6=105.4272|11=1299709752|14=7800|17=EXEC-1776304207693-1256|31=102.09|32=100|37=20260416-072007-613317|38=10000|39=1|40=2|44=100|54=2|55=CSCO|59=0|60=20260416-07:20:07.817|150=F|151=2200|527=TRADE-1776304207693-1256|10=064|
> 8=FIX.4.2|9=276|35=8|34=281|49=EXCHANGE|52=20260416-01:50:07.817|56=MINIFIX|6=105.4272|11=1299709752|14=7900|17=EXEC-1776304207693-1257|31=101.88|32=100|37=20260416-072007-613317|38=10000|39=1|40=2|44=100|54=2|55=CSCO|59=0|60=20260416-07:20:07.817|150=F|151=2100|527=TRADE-1776304207693-1257|10=073|
> 8=FIX.4.2|9=276|35=8|34=282|49=EXCHANGE|52=20260416-01:50:07.817|56=MINIFIX|6=105.4272|11=1299709752|14=8000|17=EXEC-1776304207693-1258|31=101.86|32=100|37=20260416-072007-613317|38=10000|39=1|40=2|44=100|54=2|55=CSCO|59=0|60=20260416-07:20:07.817|150=F|151=2000|527=TRADE-1776304207693-1258|10=065|
> 8=FIX.4.2|9=276|35=8|34=283|49=EXCHANGE|52=20260416-01:50:07.817|56=MINIFIX|6=105.4272|11=1299709752|14=8100|17=EXEC-1776304207693-1259|31=101.73|32=100|37=20260416-072007-613317|38=10000|39=1|40=2|44=100|54=2|55=CSCO|59=0|60=20260416-07:20:07.817|150=F|151=1900|527=TRADE-1776304207693-1259|10=073|
> 8=FIX.4.2|9=288|35=8|34=284|49=EXCHANGE|52=20260416-01:50:07.817|56=MINIFIX|6=105.4272|11=1299709752|14=8200|17=EXEC-1776304207693-1260|31=101.71000000000001|32=100|37=20260416-072007-613317|38=10000|39=1|40=2|44=100|54=2|55=CSCO|59=0|60=20260416-07:20:07.817|150=F|151=1800|527=TRADE-1776304207693-1260|10=124|
> 8=FIX.4.2|9=288|35=8|34=285|49=EXCHANGE|52=20260416-01:50:07.817|56=MINIFIX|6=105.4272|11=1299709752|14=8300|17=EXEC-1776304207693-1261|31=101.57000000000001|32=100|37=20260416-072007-613317|38=10000|39=1|40=2|44=100|54=2|55=CSCO|59=0|60=20260416-07:20:07.817|150=F|151=1700|527=TRADE-1776304207693-1261|10=131|
> 8=FIX.4.2|9=276|35=8|34=286|49=EXCHANGE|52=20260416-01:50:07.817|56=MINIFIX|6=105.4272|11=1299709752|14=8400|17=EXEC-1776304207693-1262|31=101.48|32=100|37=20260416-072007-613317|38=10000|39=1|40=2|44=100|54=2|55=CSCO|59=0|60=20260416-07:20:07.817|150=F|151=1600|527=TRADE-1776304207693-1262|10=066|
> 8=FIX.4.2|9=276|35=8|34=287|49=EXCHANGE|52=20260416-01:50:07.819|56=MINIFIX|6=105.4272|11=1299709752|14=8500|17=EXEC-1776304207693-1263|31=101.41|32=100|37=20260416-072007-613317|38=10000|39=1|40=2|44=100|54=2|55=CSCO|59=0|60=20260416-07:20:07.819|150=F|151=1500|527=TRADE-1776304207693-1263|10=066|
> 8=FIX.4.2|9=288|35=8|34=288|49=EXCHANGE|52=20260416-01:50:07.819|56=MINIFIX|6=105.4272|11=1299709752|14=8600|17=EXEC-1776304207693-1264|31=101.35000000000001|32=100|37=20260416-072007-613317|38=10000|39=1|40=2|44=100|54=2|55=CSCO|59=0|60=20260416-07:20:07.819|150=F|151=1400|527=TRADE-1776304207693-1264|10=140|
