: Adding FIX 4.0 protocol
: Adding FIX 4.1 protocol
: Adding FIX 4.2 protocol
: Adding FIX 4.3 protocol
: Adding FIX 4.4 protocol
: Bulding FIX 4.4 help
: Pipe (batch/log) interface active at \\.\pipe\minifix
: (C)2009-2013 Björn Ahlqvist, available free of charge from http://elato.se/minifix/
: Welcome to Mini-FIX 1.5.25!
: Pipe interface connected
: Pipe interface disconnected (code 109)
: Pipe interface connected
: Batch Session sequence numbers reset
: SenderCompId set to MINIFIX
: TargetCompId set to EXCHANGE
: Batch Connect 127.0.0.1:9876
: Pipe interface disconnected (code 109)
: Connect to 127.0.0.1, resolving..
: IP address 127.0.0.1 port 9876, connecting..
: Connected to 127.0.0.1:9876 at 20260416-01:50:22 UTC
< 8=FIX.4.2|9=66|35=A|49=MINIFIX|56=EXCHANGE|34=1|52=20260416-01:50:22|98=0|108=30|10=136|
> 8=FIX.4.2|9=70|35=A|34=1|49=EXCHANGE|52=20260416-01:50:22.053|56=MINIFIX|98=0|108=30|10=073|
: <done waiting, message matches>
: T33 SUBMIT_CANCEL_START 20260416-01:50:22
< 8=FIX.4.2|9=133|35=D|49=MINIFIX|56=EXCHANGE|34=2|52=20260416-01:50:22|11=963604542|21=1|55=MSFT|54=1|60=20260416-01:50:22|40=2|44=362.95|38=100|59=0|10=108|
< 8=FIX.4.2|9=121|35=F|49=MINIFIX|56=EXCHANGE|34=3|52=20260416-01:50:22|41=963604542|11=963604543|55=MSFT|54=1|60=20260416-01:50:22|38=100|10=136|
> 8=FIX.4.2|9=131|35=9|34=2|49=EXCHANGE|52=20260416-01:50:22.080|56=MINIFIX|11=963604543|37=UNKNOWN|39=8|41=963604542|58=Order not found|102=1|434=1|10=099|
> 8=FIX.4.2|9=222|35=8|34=3|49=EXCHANGE|52=20260416-01:50:22.080|56=MINIFIX|6=0|11=963604542|14=0|17=EXEC-1776303564458|31=0|32=0|37=20260416-072022-613319|38=100|39=0|40=2|44=362.95|54=1|55=MSFT|59=0|60=20260416-07:20:22.080|150=0|151=100|10=027|
< 8=FIX.4.2|9=133|35=D|49=MINIFIX|56=EXCHANGE|34=4|52=20260416-01:50:22|11=963604545|21=1|55=MSFT|54=1|60=20260416-01:50:22|40=2|44=227.09|38=100|59=0|10=108|
< 8=FIX.4.2|9=121|35=F|49=MINIFIX|56=EXCHANGE|34=5|52=20260416-01:50:22|41=963604545|11=963604546|55=MSFT|54=1|60=20260416-01:50:22|38=100|10=144|
> 8=FIX.4.2|9=222|35=8|34=4|49=EXCHANGE|52=20260416-01:50:22.081|56=MINIFIX|6=0|11=963604545|14=0|17=EXEC-1776303564459|31=0|32=0|37=20260416-072022-613320|38=100|39=0|40=2|44=227.09|54=1|55=MSFT|59=0|60=20260416-07:20:22.081|150=0|151=100|10=021|
< 8=FIX.4.2|9=133|35=D|49=MINIFIX|56=EXCHANGE|34=6|52=20260416-01:50:22|11=963604548|21=1|55=MSFT|54=1|60=20260416-01:50:22|40=2|44=381.16|38=100|59=0|10=112|
> 8=FIX.4.2|9=220|35=8|34=5|49=EXCHANGE|52=20260416-01:50:22.082|56=MINIFIX|6=0|11=963604545|14=0|17=EXEC-1776303564460|31=0|32=0|37=20260416-072022-613320|38=100|39=4|40=2|44=227.09|54=1|55=MSFT|59=0|60=20260416-07:20:22.082|150=4|151=0|10=181|
< 8=FIX.4.2|9=121|35=F|49=MINIFIX|56=EXCHANGE|34=7|52=20260416-01:50:22|41=963604548|11=963604549|55=MSFT|54=1|60=20260416-01:50:22|38=100|10=152|
> 8=FIX.4.2|9=131|35=9|34=6|49=EXCHANGE|52=20260416-01:50:22.082|56=MINIFIX|11=963604549|37=UNKNOWN|39=8|41=963604548|58=Order not found|102=1|434=1|10=117|
> 8=FIX.4.2|9=222|35=8|34=7|49=EXCHANGE|52=20260416-01:50:22.083|56=MINIFIX|6=0|11=963604548|14=0|17=EXEC-1776303564461|31=0|32=0|37=20260416-072022-613321|38=100|39=0|40=2|44=381.16|54=1|55=MSFT|59=0|60=20260416-07:20:22.083|150=0|151=100|10=024|
< 8=FIX.4.2|9=133|35=D|49=MINIFIX|56=EXCHANGE|34=8|52=20260416-01:50:22|11=963604551|21=1|55=MSFT|54=1|60=20260416-01:50:22|40=2|44=367.01|38=100|59=0|10=106|
< 8=FIX.4.2|9=121|35=F|49=MINIFIX|56=EXCHANGE|34=9|52=20260416-01:50:22|41=963604551|11=963604552|55=MSFT|54=1|60=20260416-01:50:22|38=100|10=142|
> 8=FIX.4.2|9=222|35=8|34=8|49=EXCHANGE|52=20260416-01:50:22.086|56=MINIFIX|6=0|11=963604551|14=0|17=EXEC-1776303564462|31=0|32=0|37=20260416-072022-613322|38=100|39=0|40=2|44=367.01|54=1|55=MSFT|59=0|60=20260416-07:20:22.086|150=0|151=100|10=025|
< 8=FIX.4.2|9=134|35=D|49=MINIFIX|56=EXCHANGE|34=10|52=20260416-01:50:22|11=963604554|21=1|55=MSFT|54=1|60=20260416-01:50:22|40=2|44=225.39|38=100|59=0|10=155|
> 8=FIX.4.2|9=220|35=8|34=9|49=EXCHANGE|52=20260416-01:50:22.086|56=MINIFIX|6=0|11=963604551|14=0|17=EXEC-1776303564463|31=0|32=0|37=20260416-072022-613322|38=100|39=4|40=2|44=367.01|54=1|55=MSFT|59=0|60=20260416-07:20:22.086|150=4|151=0|10=192|
< 8=FIX.4.2|9=122|35=F|49=MINIFIX|56=EXCHANGE|34=11|52=20260416-01:50:22|41=963604554|11=963604555|55=MSFT|54=1|60=20260416-01:50:22|38=100|10=190|
> 8=FIX.4.2|9=132|35=9|34=10|49=EXCHANGE|52=20260416-01:50:22.087|56=MINIFIX|11=963604555|37=UNKNOWN|39=8|41=963604554|58=Order not found|102=1|434=1|10=160|
> 8=FIX.4.2|9=235|35=8|34=11|49=EXCHANGE|52=20260416-01:50:22.087|56=MINIFIX|6=0|11=963604554|14=0|17=EXEC-1776303564464|31=0|32=0|37=20260416-072022-613323|38=100|39=0|40=2|44=225.39000000000001|54=1|55=MSFT|59=0|60=20260416-07:20:22.087|150=0|151=100|10=148|
< 8=FIX.4.2|9=134|35=D|49=MINIFIX|56=EXCHANGE|34=12|52=20260416-01:50:22|11=963604557|21=1|55=MSFT|54=1|60=20260416-01:50:22|40=2|44=393.78|38=100|59=0|10=169|
< 8=FIX.4.2|9=122|35=F|49=MINIFIX|56=EXCHANGE|34=13|52=20260416-01:50:22|41=963604557|11=963604558|55=MSFT|54=1|60=20260416-01:50:22|38=100|10=198|
> 8=FIX.4.2|9=235|35=8|34=12|49=EXCHANGE|52=20260416-01:50:22.088|56=MINIFIX|6=0|11=963604557|14=0|17=EXEC-1776303564465|31=0|32=0|37=20260416-072022-613324|38=100|39=0|40=2|44=393.78000000000003|54=1|55=MSFT|59=0|60=20260416-07:20:22.088|150=0|151=100|10=167|
< 8=FIX.4.2|9=134|35=D|49=MINIFIX|56=EXCHANGE|34=14|52=20260416-01:50:22|11=963604560|21=1|55=MSFT|54=1|60=20260416-01:50:22|40=2|44=382.68|38=100|59=0|10=162|
> 8=FIX.4.2|9=233|35=8|34=13|49=EXCHANGE|52=20260416-01:50:22.089|56=MINIFIX|6=0|11=963604557|14=0|17=EXEC-1776303564466|31=0|32=0|37=20260416-072022-613324|38=100|39=4|40=2|44=393.78000000000003|54=1|55=MSFT|59=0|60=20260416-07:20:22.089|150=4|151=0|10=080|
< 8=FIX.4.2|9=122|35=F|49=MINIFIX|56=EXCHANGE|34=15|52=20260416-01:50:22|41=963604560|11=963604561|55=MSFT|54=1|60=20260416-01:50:22|38=100|10=188|
< 8=FIX.4.2|9=133|35=D|49=MINIFIX|56=EXCHANGE|34=16|52=20260416-01:50:22|11=963604563|21=1|55=MSFT|54=1|60=20260416-01:50:22|40=2|44=244.2|38=100|59=0|10=103|
> 8=FIX.4.2|9=223|35=8|34=14|49=EXCHANGE|52=20260416-01:50:22.090|56=MINIFIX|6=0|11=963604560|14=0|17=EXEC-1776303564467|31=0|32=0|37=20260416-072022-613325|38=100|39=0|40=2|44=382.68|54=1|55=MSFT|59=0|60=20260416-07:20:22.090|150=0|151=100|10=079|
> 8=FIX.4.2|9=132|35=9|34=15|49=EXCHANGE|52=20260416-01:50:22.090|56=MINIFIX|11=963604561|37=UNKNOWN|39=8|41=963604560|58=Order not found|102=1|434=1|10=153|
< 8=FIX.4.2|9=122|35=F|49=MINIFIX|56=EXCHANGE|34=17|52=20260416-01:50:22|41=963604563|11=963604564|55=MSFT|54=1|60=20260416-01:50:22|38=100|10=196|
> 8=FIX.4.2|9=235|35=8|34=16|49=EXCHANGE|52=20260416-01:50:22.093|56=MINIFIX|6=0|11=963604563|14=0|17=EXEC-1776303564468|31=0|32=0|37=20260416-072022-613326|38=100|39=0|40=2|44=244.20000000000002|54=1|55=MSFT|59=0|60=20260416-07:20:22.093|150=0|151=100|10=146|
< 8=FIX.4.2|9=134|35=D|49=MINIFIX|56=EXCHANGE|34=18|52=20260416-01:50:22|11=963604566|21=1|55=MSFT|54=1|60=20260416-01:50:22|40=2|44=326.47|38=100|59=0|10=167|
> 8=FIX.4.2|9=233|35=8|34=17|49=EXCHANGE|52=20260416-01:50:22.093|56=MINIFIX|6=0|11=963604563|14=0|17=EXEC-1776303564469|31=0|32=0|37=20260416-072022-613326|38=100|39=4|40=2|44=244.20000000000002|54=1|55=MSFT|59=0|60=20260416-07:20:22.093|150=4|151=0|10=057|
< 8=FIX.4.2|9=122|35=F|49=MINIFIX|56=EXCHANGE|34=19|52=20260416-01:50:22|41=963604566|11=963604567|55=MSFT|54=1|60=20260416-01:50:22|38=100|10=204|
> 8=FIX.4.2|9=132|35=9|34=18|49=EXCHANGE|52=20260416-01:50:22.094|56=MINIFIX|11=963604567|37=UNKNOWN|39=8|41=963604566|58=Order not found|102=1|434=1|10=172|
< 8=FIX.4.2|9=134|35=D|49=MINIFIX|56=EXCHANGE|34=20|52=20260416-01:50:22|11=963604569|21=1|55=MSFT|54=1|60=20260416-01:50:22|40=2|44=261.63|38=100|59=0|10=159|
> 8=FIX.4.2|9=223|35=8|34=19|49=EXCHANGE|52=20260416-01:50:22.095|56=MINIFIX|6=0|11=963604566|14=0|17=EXEC-1776303564470|31=0|32=0|37=20260416-072022-613327|38=100|39=0|40=2|44=326.47|54=1|55=MSFT|59=0|60=20260416-07:20:22.095|150=0|151=100|10=091|
< 8=FIX.4.2|9=122|35=F|49=MINIFIX|56=EXCHANGE|34=21|52=20260416-01:50:22|41=963604569|11=963604570|55=MSFT|54=1|60=20260416-01:50:22|38=100|10=194|
> 8=FIX.4.2|9=223|35=8|34=20|49=EXCHANGE|52=20260416-01:50:22.096|56=MINIFIX|6=0|11=963604569|14=0|17=EXEC-1776303564471|31=0|32=0|37=20260416-072022-613328|38=100|39=0|40=2|44=261.63|54=1|55=MSFT|59=0|60=20260416-07:20:22.096|150=0|151=100|10=086|
< 8=FIX.4.2|9=133|35=D|49=MINIFIX|56=EXCHANGE|34=22|52=20260416-01:50:22|11=963604572|21=1|55=MSFT|54=1|60=20260416-01:50:22|40=2|44=219.5|38=100|59=0|10=105|
> 8=FIX.4.2|9=221|35=8|34=21|49=EXCHANGE|52=20260416-01:50:22.096|56=MINIFIX|6=0|11=963604569|14=0|17=EXEC-1776303564472|31=0|32=0|37=20260416-072022-613328|38=100|39=4|40=2|44=261.63|54=1|55=MSFT|59=0|60=20260416-07:20:22.096|150=4|151=0|10=253|
< 8=FIX.4.2|9=122|35=F|49=MINIFIX|56=EXCHANGE|34=23|52=20260416-01:50:22|41=963604572|11=963604573|55=MSFT|54=1|60=20260416-01:50:22|38=100|10=193|
> 8=FIX.4.2|9=132|35=9|34=22|49=EXCHANGE|52=20260416-01:50:22.098|56=MINIFIX|11=963604573|37=UNKNOWN|39=8|41=963604572|58=Order not found|102=1|434=1|10=165|
< 8=FIX.4.2|9=134|35=D|49=MINIFIX|56=EXCHANGE|34=24|52=20260416-01:50:22|11=963604575|21=1|55=MSFT|54=1|60=20260416-01:50:22|40=2|44=309.44|38=100|59=0|10=162|
> 8=FIX.4.2|9=222|35=8|34=23|49=EXCHANGE|52=20260416-01:50:22.098|56=MINIFIX|6=0|11=963604572|14=0|17=EXEC-1776303564473|31=0|32=0|37=20260416-072022-613329|38=100|39=0|40=2|44=219.5|54=1|55=MSFT|59=0|60=20260416-07:20:22.098|150=0|151=100|10=040|
< 8=FIX.4.2|9=122|35=F|49=MINIFIX|56=EXCHANGE|34=25|52=20260416-01:50:22|41=963604575|11=963604576|55=MSFT|54=1|60=20260416-01:50:22|38=100|10=201|
> 8=FIX.4.2|9=132|35=9|34=24|49=EXCHANGE|52=20260416-01:50:22.100|56=MINIFIX|11=963604576|37=UNKNOWN|39=8|41=963604575|58=Order not found|102=1|434=1|10=157|
> 8=FIX.4.2|9=223|35=8|34=25|49=EXCHANGE|52=20260416-01:50:22.100|56=MINIFIX|6=0|11=963604575|14=0|17=EXEC-1776303564474|31=0|32=0|37=20260416-072022-613330|38=100|39=0|40=2|44=309.44|54=1|55=MSFT|59=0|60=20260416-07:20:22.100|150=0|151=100|10=058|
< 8=FIX.4.2|9=133|35=D|49=MINIFIX|56=EXCHANGE|34=26|52=20260416-01:50:22|11=963604578|21=1|55=MSFT|54=1|60=20260416-01:50:22|40=2|44=255.7|38=100|59=0|10=117|
< 8=FIX.4.2|9=122|35=F|49=MINIFIX|56=EXCHANGE|34=27|52=20260416-01:50:22|41=963604578|11=963604579|55=MSFT|54=1|60=20260416-01:50:22|38=100|10=209|
> 8=FIX.4.2|9=235|35=8|34=26|49=EXCHANGE|52=20260416-01:50:22.101|56=MINIFIX|6=0|11=963604578|14=0|17=EXEC-1776303564475|31=0|32=0|37=20260416-072022-613331|38=100|39=0|40=2|44=255.70000000000002|54=1|55=MSFT|59=0|60=20260416-07:20:22.101|150=0|151=100|10=134|
< 8=FIX.4.2|9=134|35=D|49=MINIFIX|56=EXCHANGE|34=28|52=20260416-01:50:22|11=963604581|21=1|55=MSFT|54=1|60=20260416-01:50:22|40=2|44=237.67|38=100|59=0|10=168|
> 8=FIX.4.2|9=233|35=8|34=27|49=EXCHANGE|52=20260416-01:50:22.101|56=MINIFIX|6=0|11=963604578|14=0|17=EXEC-1776303564476|31=0|32=0|37=20260416-072022-613331|38=100|39=4|40=2|44=255.70000000000002|54=1|55=MSFT|59=0|60=20260416-07:20:22.101|150=4|151=0|10=045|
< 8=FIX.4.2|9=122|35=F|49=MINIFIX|56=EXCHANGE|34=29|52=20260416-01:50:22|41=963604581|11=963604582|55=MSFT|54=1|60=20260416-01:50:22|38=100|10=199|
> 8=FIX.4.2|9=132|35=9|34=28|49=EXCHANGE|52=20260416-01:50:22.102|56=MINIFIX|11=963604582|37=UNKNOWN|39=8|41=963604581|58=Order not found|102=1|434=1|10=157|
> 8=FIX.4.2|9=235|35=8|34=29|49=EXCHANGE|52=20260416-01:50:22.103|56=MINIFIX|6=0|11=963604581|14=0|17=EXEC-1776303564477|31=0|32=0|37=20260416-072022-613332|38=100|39=0|40=2|44=237.67000000000002|54=1|55=MSFT|59=0|60=20260416-07:20:22.103|150=0|151=100|10=144|
< 8=FIX.4.2|9=134|35=D|49=MINIFIX|56=EXCHANGE|34=30|52=20260416-01:50:22|11=963604584|21=1|55=MSFT|54=1|60=20260416-01:50:22|40=2|44=309.38|38=100|59=0|10=162|
< 8=FIX.4.2|9=122|35=F|49=MINIFIX|56=EXCHANGE|34=31|52=20260416-01:50:22|41=963604584|11=963604585|55=MSFT|54=1|60=20260416-01:50:22|38=100|10=198|
> 8=FIX.4.2|9=223|35=8|34=30|49=EXCHANGE|52=20260416-01:50:22.104|56=MINIFIX|6=0|11=963604584|14=0|17=EXEC-1776303564478|31=0|32=0|37=20260416-072022-613333|38=100|39=0|40=2|44=309.38|54=1|55=MSFT|59=0|60=20260416-07:20:22.104|150=0|151=100|10=072|
< 8=FIX.4.2|9=134|35=D|49=MINIFIX|56=EXCHANGE|34=32|52=20260416-01:50:22|11=963604587|21=1|55=MSFT|54=1|60=20260416-01:50:22|40=2|44=398.58|38=100|59=0|10=177|
> 8=FIX.4.2|9=221|35=8|34=31|49=EXCHANGE|52=20260416-01:50:22.105|56=MINIFIX|6=0|11=963604584|14=0|17=EXEC-1776303564479|31=0|32=0|37=20260416-072022-613333|38=100|39=4|40=2|44=309.38|54=1|55=MSFT|59=0|60=20260416-07:20:22.105|150=4|151=0|10=241|
< 8=FIX.4.2|9=122|35=F|49=MINIFIX|56=EXCHANGE|34=33|52=20260416-01:50:22|41=963604587|11=963604588|55=MSFT|54=1|60=20260416-01:50:22|38=100|10=206|
> 8=FIX.4.2|9=132|35=9|34=32|49=EXCHANGE|52=20260416-01:50:22.105|56=MINIFIX|11=963604588|37=UNKNOWN|39=8|41=963604587|58=Order not found|102=1|434=1|10=167|
> 8=FIX.4.2|9=223|35=8|34=33|49=EXCHANGE|52=20260416-01:50:22.105|56=MINIFIX|6=0|11=963604587|14=0|17=EXEC-1776303564480|31=0|32=0|37=20260416-072022-613334|38=100|39=0|40=2|44=398.58|54=1|55=MSFT|59=0|60=20260416-07:20:22.105|150=0|151=100|10=084|
< 8=FIX.4.2|9=134|35=D|49=MINIFIX|56=EXCHANGE|34=34|52=20260416-01:50:22|11=963604590|21=1|55=MSFT|54=1|60=20260416-01:50:22|40=2|44=391.51|38=100|59=0|10=159|
< 8=FIX.4.2|9=122|35=F|49=MINIFIX|56=EXCHANGE|34=35|52=20260416-01:50:22|41=963604590|11=963604591|55=MSFT|54=1|60=20260416-01:50:22|38=100|10=196|
> 8=FIX.4.2|9=223|35=8|34=34|49=EXCHANGE|52=20260416-01:50:22.106|56=MINIFIX|6=0|11=963604590|14=0|17=EXEC-1776303564481|31=0|32=0|37=20260416-072022-613335|38=100|39=0|40=2|44=391.51|54=1|55=MSFT|59=0|60=20260416-07:20:22.106|150=0|151=100|10=069|
< 8=FIX.4.2|9=133|35=D|49=MINIFIX|56=EXCHANGE|34=36|52=20260416-01:50:22|11=963604593|21=1|55=MSFT|54=1|60=20260416-01:50:22|40=2|44=399.3|38=100|59=0|10=120|
> 8=FIX.4.2|9=221|35=8|34=35|49=EXCHANGE|52=20260416-01:50:22.107|56=MINIFIX|6=0|11=963604590|14=0|17=EXEC-1776303564482|31=0|32=0|37=20260416-072022-613335|38=100|39=4|40=2|44=391.51|54=1|55=MSFT|59=0|60=20260416-07:20:22.107|150=4|151=0|10=238|
< 8=FIX.4.2|9=122|35=F|49=MINIFIX|56=EXCHANGE|34=37|52=20260416-01:50:22|41=963604593|11=963604594|55=MSFT|54=1|60=20260416-01:50:22|38=100|10=204|
< 8=FIX.4.2|9=134|35=D|49=MINIFIX|56=EXCHANGE|34=38|52=20260416-01:50:22|11=963604596|21=1|55=MSFT|54=1|60=20260416-01:50:22|40=2|44=392.98|38=100|59=0|10=181|
> 8=FIX.4.2|9=132|35=9|34=36|49=EXCHANGE|52=20260416-01:50:22.108|56=MINIFIX|11=963604594|37=UNKNOWN|39=8|41=963604593|58=Order not found|102=1|434=1|10=168|
> 8=FIX.4.2|9=222|35=8|34=37|49=EXCHANGE|52=20260416-01:50:22.108|56=MINIFIX|6=0|11=963604593|14=0|17=EXEC-1776303564483|31=0|32=0|37=20260416-072022-613336|38=100|39=0|40=2|44=399.3|54=1|55=MSFT|59=0|60=20260416-07:20:22.108|150=0|151=100|10=038|
< 8=FIX.4.2|9=122|35=F|49=MINIFIX|56=EXCHANGE|34=39|52=20260416-01:50:22|41=963604596|11=963604597|55=MSFT|54=1|60=20260416-01:50:22|38=100|10=212|
> 8=FIX.4.2|9=132|35=9|34=38|49=EXCHANGE|52=20260416-01:50:22.110|56=MINIFIX|11=963604597|37=UNKNOWN|39=8|41=963604596|58=Order not found|102=1|434=1|10=169|
< 8=FIX.4.2|9=134|35=D|49=MINIFIX|56=EXCHANGE|34=40|52=20260416-01:50:22|11=963604599|21=1|55=MSFT|54=1|60=20260416-01:50:22|40=2|44=393.54|38=100|59=0|10=170|
> 8=FIX.4.2|9=223|35=8|34=39|49=EXCHANGE|52=20260416-01:50:22.110|56=MINIFIX|6=0|11=963604596|14=0|17=EXEC-1776303564484|31=0|32=0|37=20260416-072022-613337|38=100|39=0|40=2|44=392.98|54=1|55=MSFT|59=0|60=20260416-07:20:22.110|150=0|151=100|10=087|
< 8=FIX.4.2|9=122|35=F|49=MINIFIX|56=EXCHANGE|34=41|52=20260416-01:50:22|41=963604599|11=963604600|55=MSFT|54=1|60=20260416-01:50:22|38=100|10=193|
> 8=FIX.4.2|9=223|35=8|34=40|49=EXCHANGE|52=20260416-01:50:22.110|56=MINIFIX|6=0|11=963604599|14=0|17=EXEC-1776303564485|31=0|32=0|37=20260416-072022-613338|38=100|39=0|40=2|44=393.54|54=1|55=MSFT|59=0|60=20260416-07:20:22.110|150=0|151=100|10=077|
< 8=FIX.4.2|9=134|35=D|49=MINIFIX|56=EXCHANGE|34=42|52=20260416-01:50:22|11=963604602|21=1|55=MSFT|54=1|60=20260416-01:50:22|40=2|44=231.52|38=100|59=0|10=146|
> 8=FIX.4.2|9=221|35=8|34=41|49=EXCHANGE|52=20260416-01:50:22.112|56=MINIFIX|6=0|11=963604599|14=0|17=EXEC-1776303564486|31=0|32=0|37=20260416-072022-613338|38=100|39=4|40=2|44=393.54|54=1|55=MSFT|59=0|60=20260416-07:20:22.112|150=4|151=0|10=248|
< 8=FIX.4.2|9=122|35=F|49=MINIFIX|56=EXCHANGE|34=43|52=20260416-01:50:22|41=963604602|11=963604603|55=MSFT|54=1|60=20260416-01:50:22|38=100|10=183|
> 8=FIX.4.2|9=132|35=9|34=42|49=EXCHANGE|52=20260416-01:50:22.113|56=MINIFIX|11=963604603|37=UNKNOWN|39=8|41=963604602|58=Order not found|102=1|434=1|10=143|
< 8=FIX.4.2|9=134|35=D|49=MINIFIX|56=EXCHANGE|34=44|52=20260416-01:50:22|11=963604605|21=1|55=MSFT|54=1|60=20260416-01:50:22|40=2|44=345.17|38=100|59=0|10=158|
> 8=FIX.4.2|9=223|35=8|34=43|49=EXCHANGE|52=20260416-01:50:22.113|56=MINIFIX|6=0|11=963604602|14=0|17=EXEC-1776303564487|31=0|32=0|37=20260416-072022-613339|38=100|39=0|40=2|44=231.52|54=1|55=MSFT|59=0|60=20260416-07:20:22.113|150=0|151=100|10=063|
< 8=FIX.4.2|9=122|35=F|49=MINIFIX|56=EXCHANGE|34=45|52=20260416-01:50:22|41=963604605|11=963604606|55=MSFT|54=1|60=20260416-01:50:22|38=100|10=191|
> 8=FIX.4.2|9=223|35=8|34=44|49=EXCHANGE|52=20260416-01:50:22.114|56=MINIFIX|6=0|11=963604605|14=0|17=EXEC-1776303564488|31=0|32=0|37=20260416-072022-613340|38=100|39=0|40=2|44=345.17|54=1|55=MSFT|59=0|60=20260416-07:20:22.114|150=0|151=100|10=069|
< 8=FIX.4.2|9=134|35=D|49=MINIFIX|56=EXCHANGE|34=46|52=20260416-01:50:22|11=963604608|21=1|55=MSFT|54=1|60=20260416-01:50:22|40=2|44=394.12|38=100|59=0|10=162|
> 8=FIX.4.2|9=221|35=8|34=45|49=EXCHANGE|52=20260416-01:50:22.115|56=MINIFIX|6=0|11=963604605|14=0|17=EXEC-1776303564489|31=0|32=0|37=20260416-072022-613340|38=100|39=4|40=2|44=345.17|54=1|55=MSFT|59=0|60=20260416-07:20:22.115|150=4|151=0|10=238|
< 8=FIX.4.2|9=122|35=F|49=MINIFIX|56=EXCHANGE|34=47|52=20260416-01:50:22|41=963604608|11=963604609|55=MSFT|54=1|60=20260416-01:50:22|38=100|10=199|
> 8=FIX.4.2|9=132|35=9|34=46|49=EXCHANGE|52=20260416-01:50:22.116|56=MINIFIX|11=963604609|37=UNKNOWN|39=8|41=963604608|58=Order not found|102=1|434=1|10=162|
> 8=FIX.4.2|9=223|35=8|34=47|49=EXCHANGE|52=20260416-01:50:22.116|56=MINIFIX|6=0|11=963604608|14=0|17=EXEC-1776303564490|31=0|32=0|37=20260416-072022-613341|38=100|39=0|40=2|44=394.12|54=1|55=MSFT|59=0|60=20260416-07:20:22.116|150=0|151=100|10=072|
< 8=FIX.4.2|9=134|35=D|49=MINIFIX|56=EXCHANGE|34=48|52=20260416-01:50:22|11=963604611|21=1|55=MSFT|54=1|60=20260416-01:50:22|40=2|44=396.23|38=100|59=0|10=162|
< 8=FIX.4.2|9=122|35=F|49=MINIFIX|56=EXCHANGE|34=49|52=20260416-01:50:22|41=963604611|11=963604612|55=MSFT|54=1|60=20260416-01:50:22|38=100|10=189|
> 8=FIX.4.2|9=132|35=9|34=48|49=EXCHANGE|52=20260416-01:50:22.117|56=MINIFIX|11=963604612|37=UNKNOWN|39=8|41=963604611|58=Order not found|102=1|434=1|10=153|
> 8=FIX.4.2|9=223|35=8|34=49|49=EXCHANGE|52=20260416-01:50:22.117|56=MINIFIX|6=0|11=963604611|14=0|17=EXEC-1776303564491|31=0|32=0|37=20260416-072022-613342|38=100|39=0|40=2|44=396.23|54=1|55=MSFT|59=0|60=20260416-07:20:22.117|150=0|151=100|10=076|
< 8=FIX.4.2|9=134|35=D|49=MINIFIX|56=EXCHANGE|34=50|52=20260416-01:50:22|11=963604614|21=1|55=MSFT|54=1|60=20260416-01:50:22|40=2|44=391.44|38=100|59=0|10=156|
< 8=FIX.4.2|9=122|35=F|49=MINIFIX|56=EXCHANGE|34=51|52=20260416-01:50:22|41=963604614|11=963604615|55=MSFT|54=1|60=20260416-01:50:22|38=100|10=188|
> 8=FIX.4.2|9=223|35=8|34=50|49=EXCHANGE|52=20260416-01:50:22.119|56=MINIFIX|6=0|11=963604614|14=0|17=EXEC-1776303564492|31=0|32=0|37=20260416-072022-613343|38=100|39=0|40=2|44=391.44|54=1|55=MSFT|59=0|60=20260416-07:20:22.119|150=0|151=100|10=075|
< 8=FIX.4.2|9=134|35=D|49=MINIFIX|56=EXCHANGE|34=52|52=20260416-01:50:22|11=963604617|21=1|55=MSFT|54=1|60=20260416-01:50:22|40=2|44=221.97|38=100|59=0|10=161|
> 8=FIX.4.2|9=221|35=8|34=51|49=EXCHANGE|52=20260416-01:50:22.120|56=MINIFIX|6=0|11=963604614|14=0|17=EXEC-1776303564493|31=0|32=0|37=20260416-072022-613343|38=100|39=4|40=2|44=391.44|54=1|55=MSFT|59=0|60=20260416-07:20:22.120|150=4|151=0|10=226|
< 8=FIX.4.2|9=122|35=F|49=MINIFIX|56=EXCHANGE|34=53|52=20260416-01:50:22|41=963604617|11=963604618|55=MSFT|54=1|60=20260416-01:50:22|38=100|10=196|
< 8=FIX.4.2|9=134|35=D|49=MINIFIX|56=EXCHANGE|34=54|52=20260416-01:50:22|11=963604620|21=1|55=MSFT|54=1|60=20260416-01:50:22|40=2|44=297.08|38=100|59=0|10=162|
> 8=FIX.4.2|9=132|35=9|34=52|49=EXCHANGE|52=20260416-01:50:22.121|56=MINIFIX|11=963604618|37=UNKNOWN|39=8|41=963604617|58=Order not found|102=1|434=1|10=155|
> 8=FIX.4.2|9=223|35=8|34=53|49=EXCHANGE|52=20260416-01:50:22.122|56=MINIFIX|6=0|11=963604617|14=0|17=EXEC-1776303564494|31=0|32=0|37=20260416-072022-613344|38=100|39=0|40=2|44=221.97|54=1|55=MSFT|59=0|60=20260416-07:20:22.122|150=0|151=100|10=072|
< 8=FIX.4.2|9=122|35=F|49=MINIFIX|56=EXCHANGE|34=55|52=20260416-01:50:22|41=963604620|11=963604621|55=MSFT|54=1|60=20260416-01:50:22|38=100|10=186|
> 8=FIX.4.2|9=132|35=9|34=54|49=EXCHANGE|52=20260416-01:50:22.123|56=MINIFIX|11=963604621|37=UNKNOWN|39=8|41=963604620|58=Order not found|102=1|434=1|10=147|
> 8=FIX.4.2|9=223|35=8|34=55|49=EXCHANGE|52=20260416-01:50:22.123|56=MINIFIX|6=0|11=963604620|14=0|17=EXEC-1776303564495|31=0|32=0|37=20260416-072022-613345|38=100|39=0|40=2|44=297.08|54=1|55=MSFT|59=0|60=20260416-07:20:22.123|150=0|151=100|10=077|
< 8=FIX.4.2|9=134|35=D|49=MINIFIX|56=EXCHANGE|34=56|52=20260416-01:50:22|11=963604623|21=1|55=MSFT|54=1|60=20260416-01:50:22|40=2|44=359.62|38=100|59=0|10=166|
< 8=FIX.4.2|9=122|35=F|49=MINIFIX|56=EXCHANGE|34=57|52=20260416-01:50:22|41=963604623|11=963604624|55=MSFT|54=1|60=20260416-01:50:22|38=100|10=194|
> 8=FIX.4.2|9=223|35=8|34=56|49=EXCHANGE|52=20260416-01:50:22.125|56=MINIFIX|6=0|11=963604623|14=0|17=EXEC-1776303564496|31=0|32=0|37=20260416-072022-613346|38=100|39=0|40=2|44=359.62|54=1|55=MSFT|59=0|60=20260416-07:20:22.125|150=0|151=100|10=086|
< 8=FIX.4.2|9=134|35=D|49=MINIFIX|56=EXCHANGE|34=58|52=20260416-01:50:22|11=963604626|21=1|55=MSFT|54=1|60=20260416-01:50:22|40=2|44=360.06|38=100|59=0|10=161|
> 8=FIX.4.2|9=221|35=8|34=57|49=EXCHANGE|52=20260416-01:50:22.126|56=MINIFIX|6=0|11=963604623|14=0|17=EXEC-1776303564497|31=0|32=0|37=20260416-072022-613346|38=100|39=4|40=2|44=359.62|54=1|55=MSFT|59=0|60=20260416-07:20:22.126|150=4|151=0|10=255|
< 8=FIX.4.2|9=122|35=F|49=MINIFIX|56=EXCHANGE|34=59|52=20260416-01:50:22|41=963604626|11=963604627|55=MSFT|54=1|60=20260416-01:50:22|38=100|10=202|
> 8=FIX.4.2|9=223|35=8|34=58|49=EXCHANGE|52=20260416-01:50:22.128|56=MINIFIX|6=0|11=963604626|14=0|17=EXEC-1776303564498|31=0|32=0|37=20260416-072022-613347|38=100|39=0|40=2|44=360.06|54=1|55=MSFT|59=0|60=20260416-07:20:22.128|150=0|151=100|10=090|
< 8=FIX.4.2|9=133|35=D|49=MINIFIX|56=EXCHANGE|34=60|52=20260416-01:50:22|11=963604629|21=1|55=MSFT|54=1|60=20260416-01:50:22|40=2|44=259.4|38=100|59=0|10=113|
> 8=FIX.4.2|9=132|35=9|34=59|49=EXCHANGE|52=20260416-01:50:22.128|56=MINIFIX|11=963604627|37=UNKNOWN|39=8|41=963604626|58=Order not found|102=1|434=1|10=169|
< 8=FIX.4.2|9=122|35=F|49=MINIFIX|56=EXCHANGE|34=61|52=20260416-01:50:22|41=963604629|11=963604630|55=MSFT|54=1|60=20260416-01:50:22|38=100|10=192|
> 8=FIX.4.2|9=222|35=8|34=60|49=EXCHANGE|52=20260416-01:50:22.130|56=MINIFIX|6=0|11=963604629|14=0|17=EXEC-1776303564499|31=0|32=0|37=20260416-072022-613348|38=100|39=0|40=2|44=259.4|54=1|55=MSFT|59=0|60=20260416-07:20:22.130|150=0|151=100|10=030|
< 8=FIX.4.2|9=134|35=D|49=MINIFIX|56=EXCHANGE|34=62|52=20260416-01:50:22|11=963604632|21=1|55=MSFT|54=1|60=20260416-01:50:22|40=2|44=228.37|38=100|59=0|10=160|
> 8=FIX.4.2|9=132|35=9|34=61|49=EXCHANGE|52=20260416-01:50:22.130|56=MINIFIX|11=963604630|37=UNKNOWN|39=8|41=963604629|58=Order not found|102=1|434=1|10=152|
< 8=FIX.4.2|9=122|35=F|49=MINIFIX|56=EXCHANGE|34=63|52=20260416-01:50:22|41=963604632|11=963604633|55=MSFT|54=1|60=20260416-01:50:22|38=100|10=191|
> 8=FIX.4.2|9=223|35=8|34=62|49=EXCHANGE|52=20260416-01:50:22.131|56=MINIFIX|6=0|11=963604632|14=0|17=EXEC-1776303564500|31=0|32=0|37=20260416-072022-613349|38=100|39=0|40=2|44=228.37|54=1|55=MSFT|59=0|60=20260416-07:20:22.131|150=0|151=100|10=063|
< 8=FIX.4.2|9=134|35=D|49=MINIFIX|56=EXCHANGE|34=64|52=20260416-01:50:22|11=963604635|21=1|55=MSFT|54=1|60=20260416-01:50:22|40=2|44=200.95|38=100|59=0|10=159|
> 8=FIX.4.2|9=221|35=8|34=63|49=EXCHANGE|52=20260416-01:50:22.132|56=MINIFIX|6=0|11=963604632|14=0|17=EXEC-1776303564501|31=0|32=0|37=20260416-072022-613349|38=100|39=4|40=2|44=228.37|54=1|55=MSFT|59=0|60=20260416-07:20:22.132|150=4|151=0|10=232|
< 8=FIX.4.2|9=122|35=F|49=MINIFIX|56=EXCHANGE|34=65|52=20260416-01:50:22|41=963604635|11=963604636|55=MSFT|54=1|60=20260416-01:50:22|38=100|10=199|
> 8=FIX.4.2|9=132|35=9|34=64|49=EXCHANGE|52=20260416-01:50:22.133|56=MINIFIX|11=963604636|37=UNKNOWN|39=8|41=963604635|58=Order not found|102=1|434=1|10=161|
> 8=FIX.4.2|9=235|35=8|34=65|49=EXCHANGE|52=20260416-01:50:22.133|56=MINIFIX|6=0|11=963604635|14=0|17=EXEC-1776303564502|31=0|32=0|37=20260416-072022-613350|38=100|39=0|40=2|44=200.95000000000002|54=1|55=MSFT|59=0|60=20260416-07:20:22.133|150=0|151=100|10=130|
< 8=FIX.4.2|9=134|35=D|49=MINIFIX|56=EXCHANGE|34=66|52=20260416-01:50:22|11=963604638|21=1|55=MSFT|54=1|60=20260416-01:50:22|40=2|44=284.35|38=100|59=0|10=170|
< 8=FIX.4.2|9=122|35=F|49=MINIFIX|56=EXCHANGE|34=67|52=20260416-01:50:22|41=963604638|11=963604639|55=MSFT|54=1|60=20260416-01:50:22|38=100|10=207|
> 8=FIX.4.2|9=223|35=8|34=66|49=EXCHANGE|52=20260416-01:50:22.134|56=MINIFIX|6=0|11=963604638|14=0|17=EXEC-1776303564503|31=0|32=0|37=20260416-072022-613351|38=100|39=0|40=2|44=284.35|54=1|55=MSFT|59=0|60=20260416-07:20:22.134|150=0|151=100|10=075|
< 8=FIX.4.2|9=134|35=D|49=MINIFIX|56=EXCHANGE|34=68|52=20260416-01:50:22|11=963604641|21=1|55=MSFT|54=1|60=20260416-01:50:22|40=2|44=222.49|38=100|59=0|10=163|
> 8=FIX.4.2|9=221|35=8|34=67|49=EXCHANGE|52=20260416-01:50:22.135|56=MINIFIX|6=0|11=963604638|14=0|17=EXEC-1776303564504|31=0|32=0|37=20260416-072022-613351|38=100|39=4|40=2|44=284.35|54=1|55=MSFT|59=0|60=20260416-07:20:22.135|150=4|151=0|10=244|
< 8=FIX.4.2|9=122|35=F|49=MINIFIX|56=EXCHANGE|34=69|52=20260416-01:50:22|41=963604641|11=963604642|55=MSFT|54=1|60=20260416-01:50:22|38=100|10=197|
> 8=FIX.4.2|9=132|35=9|34=68|49=EXCHANGE|52=20260416-01:50:22.136|56=MINIFIX|11=963604642|37=UNKNOWN|39=8|41=963604641|58=Order not found|102=1|434=1|10=162|
> 8=FIX.4.2|9=223|35=8|34=69|49=EXCHANGE|52=20260416-01:50:22.136|56=MINIFIX|6=0|11=963604641|14=0|17=EXEC-1776303564505|31=0|32=0|37=20260416-072022-613352|38=100|39=0|40=2|44=222.49|54=1|55=MSFT|59=0|60=20260416-07:20:22.136|150=0|151=100|10=076|
< 8=FIX.4.2|9=134|35=D|49=MINIFIX|56=EXCHANGE|34=70|52=20260416-01:50:22|11=963604644|21=1|55=MSFT|54=1|60=20260416-01:50:22|40=2|44=383.15|38=100|59=0|10=160|
< 8=FIX.4.2|9=122|35=F|49=MINIFIX|56=EXCHANGE|34=71|52=20260416-01:50:22|41=963604644|11=963604645|55=MSFT|54=1|60=20260416-01:50:22|38=100|10=196|
> 8=FIX.4.2|9=235|35=8|34=70|49=EXCHANGE|52=20260416-01:50:22.137|56=MINIFIX|6=0|11=963604644|14=0|17=EXEC-1776303564506|31=0|32=0|37=20260416-072022-613353|38=100|39=0|40=2|44=383.15000000000003|54=1|55=MSFT|59=0|60=20260416-07:20:22.137|150=0|151=100|10=146|
< 8=FIX.4.2|9=134|35=D|49=MINIFIX|56=EXCHANGE|34=72|52=20260416-01:50:22|11=963604647|21=1|55=MSFT|54=1|60=20260416-01:50:22|40=2|44=327.95|38=100|59=0|10=171|
> 8=FIX.4.2|9=233|35=8|34=71|49=EXCHANGE|52=20260416-01:50:22.138|56=MINIFIX|6=0|11=963604644|14=0|17=EXEC-1776303564507|31=0|32=0|37=20260416-072022-613353|38=100|39=4|40=2|44=383.15000000000003|54=1|55=MSFT|59=0|60=20260416-07:20:22.138|150=4|151=0|10=059|
< 8=FIX.4.2|9=122|35=F|49=MINIFIX|56=EXCHANGE|34=73|52=20260416-01:50:22|41=963604647|11=963604648|55=MSFT|54=1|60=20260416-01:50:22|38=100|10=204|
> 8=FIX.4.2|9=132|35=9|34=72|49=EXCHANGE|52=20260416-01:50:22.139|56=MINIFIX|11=963604648|37=UNKNOWN|39=8|41=963604647|58=Order not found|102=1|434=1|10=172|
> 8=FIX.4.2|9=223|35=8|34=73|49=EXCHANGE|52=20260416-01:50:22.139|56=MINIFIX|6=0|11=963604647|14=0|17=EXEC-1776303564508|31=0|32=0|37=20260416-072022-613354|38=100|39=0|40=2|44=327.95|54=1|55=MSFT|59=0|60=20260416-07:20:22.139|150=0|151=100|10=095|
< 8=FIX.4.2|9=134|35=D|49=MINIFIX|56=EXCHANGE|34=74|52=20260416-01:50:22|11=963604650|21=1|55=MSFT|54=1|60=20260416-01:50:22|40=2|44=358.44|38=100|59=0|10=165|
< 8=FIX.4.2|9=122|35=F|49=MINIFIX|56=EXCHANGE|34=75|52=20260416-01:50:22|41=963604650|11=963604651|55=MSFT|54=1|60=20260416-01:50:22|38=100|10=194|
> 8=FIX.4.2|9=223|35=8|34=74|49=EXCHANGE|52=20260416-01:50:22.141|56=MINIFIX|6=0|11=963604650|14=0|17=EXEC-1776303564509|31=0|32=0|37=20260416-072022-613355|38=100|39=0|40=2|44=358.44|54=1|55=MSFT|59=0|60=20260416-07:20:22.140|150=0|151=100|10=075|
< 8=FIX.4.2|9=134|35=D|49=MINIFIX|56=EXCHANGE|34=76|52=20260416-01:50:22|11=963604653|21=1|55=MSFT|54=1|60=20260416-01:50:22|40=2|44=375.69|38=100|59=0|10=176|
> 8=FIX.4.2|9=132|35=9|34=75|49=EXCHANGE|52=20260416-01:50:22.141|56=MINIFIX|11=963604651|37=UNKNOWN|39=8|41=963604650|58=Order not found|102=1|434=1|10=156|
< 8=FIX.4.2|9=122|35=F|49=MINIFIX|56=EXCHANGE|34=77|52=20260416-01:50:22|41=963604653|11=963604654|55=MSFT|54=1|60=20260416-01:50:22|38=100|10=202|
> 8=FIX.4.2|9=223|35=8|34=76|49=EXCHANGE|52=20260416-01:50:22.142|56=MINIFIX|6=0|11=963604653|14=0|17=EXEC-1776303564510|31=0|32=0|37=20260416-072022-613356|38=100|39=0|40=2|44=375.69|54=1|55=MSFT|59=0|60=20260416-07:20:22.142|150=0|151=100|10=082|
< 8=FIX.4.2|9=133|35=D|49=MINIFIX|56=EXCHANGE|34=78|52=20260416-01:50:22|11=963604656|21=1|55=MSFT|54=1|60=20260416-01:50:22|40=2|44=391.9|38=100|59=0|10=124|
> 8=FIX.4.2|9=221|35=8|34=77|49=EXCHANGE|52=20260416-01:50:22.143|56=MINIFIX|6=0|11=963604653|14=0|17=EXEC-1776303564511|31=0|32=0|37=20260416-072022-613356|38=100|39=4|40=2|44=375.69|54=1|55=MSFT|59=0|60=20260416-07:20:22.143|150=4|151=0|10=251|
< 8=FIX.4.2|9=122|35=F|49=MINIFIX|56=EXCHANGE|34=79|52=20260416-01:50:22|41=963604656|11=963604657|55=MSFT|54=1|60=20260416-01:50:22|38=100|10=210|
> 8=FIX.4.2|9=235|35=8|34=78|49=EXCHANGE|52=20260416-01:50:22.144|56=MINIFIX|6=0|11=963604656|14=0|17=EXEC-1776303564512|31=0|32=0|37=20260416-072022-613357|38=100|39=0|40=2|44=391.90000000000003|54=1|55=MSFT|59=0|60=20260416-07:20:22.144|150=0|151=100|10=156|
< 8=FIX.4.2|9=134|35=D|49=MINIFIX|56=EXCHANGE|34=80|52=20260416-01:50:22|11=963604659|21=1|55=MSFT|54=1|60=20260416-01:50:22|40=2|44=300.73|38=100|59=0|10=160|
< 8=FIX.4.2|9=122|35=F|49=MINIFIX|56=EXCHANGE|34=81|52=20260416-01:50:22|41=963604659|11=963604660|55=MSFT|54=1|60=20260416-01:50:22|38=100|10=200|
> 8=FIX.4.2|9=233|35=8|34=79|49=EXCHANGE|52=20260416-01:50:22.145|56=MINIFIX|6=0|11=963604656|14=0|17=EXEC-1776303564513|31=0|32=0|37=20260416-072022-613357|38=100|39=4|40=2|44=391.90000000000003|54=1|55=MSFT|59=0|60=20260416-07:20:22.145|150=4|151=0|10=069|
< 8=FIX.4.2|9=134|35=D|49=MINIFIX|56=EXCHANGE|34=82|52=20260416-01:50:22|11=963604662|21=1|55=MSFT|54=1|60=20260416-01:50:22|40=2|44=331.15|38=100|59=0|10=156|
> 8=FIX.4.2|9=132|35=9|34=80|49=EXCHANGE|52=20260416-01:50:22.146|56=MINIFIX|11=963604660|37=UNKNOWN|39=8|41=963604659|58=Order not found|102=1|434=1|10=166|
> 8=FIX.4.2|9=223|35=8|34=81|49=EXCHANGE|52=20260416-01:50:22.146|56=MINIFIX|6=0|11=963604659|14=0|17=EXEC-1776303564514|31=0|32=0|37=20260416-072022-613358|38=100|39=0|40=2|44=300.73|54=1|55=MSFT|59=0|60=20260416-07:20:22.146|150=0|151=100|10=081|
< 8=FIX.4.2|9=122|35=F|49=MINIFIX|56=EXCHANGE|34=83|52=20260416-01:50:22|41=963604662|11=963604663|55=MSFT|54=1|60=20260416-01:50:22|38=100|10=199|
> 8=FIX.4.2|9=132|35=9|34=82|49=EXCHANGE|52=20260416-01:50:22.147|56=MINIFIX|11=963604663|37=UNKNOWN|39=8|41=963604662|58=Order not found|102=1|434=1|10=166|
< 8=FIX.4.2|9=134|35=D|49=MINIFIX|56=EXCHANGE|34=84|52=20260416-01:50:22|11=963604665|21=1|55=MSFT|54=1|60=20260416-01:50:22|40=2|44=359.59|38=100|59=0|10=179|
> 8=FIX.4.2|9=235|35=8|34=83|49=EXCHANGE|52=20260416-01:50:22.147|56=MINIFIX|6=0|11=963604662|14=0|17=EXEC-1776303564515|31=0|32=0|37=20260416-072022-613359|38=100|39=0|40=2|44=331.15000000000003|54=1|55=MSFT|59=0|60=20260416-07:20:22.147|150=0|151=100|10=151|
< 8=FIX.4.2|9=122|35=F|49=MINIFIX|56=EXCHANGE|34=85|52=20260416-01:50:22|41=963604665|11=963604666|55=MSFT|54=1|60=20260416-01:50:22|38=100|10=207|
> 8=FIX.4.2|9=235|35=8|34=84|49=EXCHANGE|52=20260416-01:50:22.148|56=MINIFIX|6=0|11=963604665|14=0|17=EXEC-1776303564516|31=0|32=0|37=20260416-072022-613360|38=100|39=0|40=2|44=359.59000000000003|54=1|55=MSFT|59=0|60=20260416-07:20:22.148|150=0|151=100|10=168|
> 8=FIX.4.2|9=132|35=9|34=85|49=EXCHANGE|52=20260416-01:50:22.149|56=MINIFIX|11=963604666|37=UNKNOWN|39=8|41=963604665|58=Order not found|102=1|434=1|10=177|
< 8=FIX.4.2|9=134|35=D|49=MINIFIX|56=EXCHANGE|34=86|52=20260416-01:50:22|11=963604668|21=1|55=MSFT|54=1|60=20260416-01:50:22|40=2|44=207.14|38=100|59=0|10=167|
< 8=FIX.4.2|9=122|35=F|49=MINIFIX|56=EXCHANGE|34=87|52=20260416-01:50:22|41=963604668|11=963604669|55=MSFT|54=1|60=20260416-01:50:22|38=100|10=215|
> 8=FIX.4.2|9=235|35=8|34=86|49=EXCHANGE|52=20260416-01:50:22.150|56=MINIFIX|6=0|11=963604668|14=0|17=EXEC-1776303564517|31=0|32=0|37=20260416-072022-613361|38=100|39=0|40=2|44=207.14000000000001|54=1|55=MSFT|59=0|60=20260416-07:20:22.150|150=0|151=100|10=142|
< 8=FIX.4.2|9=134|35=D|49=MINIFIX|56=EXCHANGE|34=88|52=20260416-01:50:22|11=963604671|21=1|55=MSFT|54=1|60=20260416-01:50:22|40=2|44=272.26|38=100|59=0|10=168|
> 8=FIX.4.2|9=233|35=8|34=87|49=EXCHANGE|52=20260416-01:50:22.151|56=MINIFIX|6=0|11=963604668|14=0|17=EXEC-1776303564518|31=0|32=0|37=20260416-072022-613361|38=100|39=4|40=2|44=207.14000000000001|54=1|55=MSFT|59=0|60=20260416-07:20:22.151|150=4|151=0|10=055|
< 8=FIX.4.2|9=122|35=F|49=MINIFIX|56=EXCHANGE|34=89|52=20260416-01:50:22|41=963604671|11=963604672|55=MSFT|54=1|60=20260416-01:50:22|38=100|10=205|
< 8=FIX.4.2|9=134|35=D|49=MINIFIX|56=EXCHANGE|34=90|52=20260416-01:50:22|11=963604674|21=1|55=MSFT|54=1|60=20260416-01:50:22|40=2|44=369.83|38=100|59=0|10=174|
> 8=FIX.4.2|9=132|35=9|34=88|49=EXCHANGE|52=20260416-01:50:22.152|56=MINIFIX|11=963604672|37=UNKNOWN|39=8|41=963604671|58=Order not found|102=1|434=1|10=168|
> 8=FIX.4.2|9=223|35=8|34=89|49=EXCHANGE|52=20260416-01:50:22.152|56=MINIFIX|6=0|11=963604671|14=0|17=EXEC-1776303564519|31=0|32=0|37=20260416-072022-613362|38=100|39=0|40=2|44=272.26|54=1|55=MSFT|59=0|60=20260416-07:20:22.152|150=0|151=100|10=083|
< 8=FIX.4.2|9=122|35=F|49=MINIFIX|56=EXCHANGE|34=91|52=20260416-01:50:22|41=963604674|11=963604675|55=MSFT|54=1|60=20260416-01:50:22|38=100|10=204|
> 8=FIX.4.2|9=132|35=9|34=90|49=EXCHANGE|52=20260416-01:50:22.153|56=MINIFIX|11=963604675|37=UNKNOWN|39=8|41=963604674|58=Order not found|102=1|434=1|10=168|
> 8=FIX.4.2|9=223|35=8|34=91|49=EXCHANGE|52=20260416-01:50:22.154|56=MINIFIX|6=0|11=963604674|14=0|17=EXEC-1776303564520|31=0|32=0|37=20260416-072022-613363|38=100|39=0|40=2|44=369.83|54=1|55=MSFT|59=0|60=20260416-07:20:22.154|150=0|151=100|10=086|
< 8=FIX.4.2|9=134|35=D|49=MINIFIX|56=EXCHANGE|34=92|52=20260416-01:50:22|11=963604677|21=1|55=MSFT|54=1|60=20260416-01:50:22|40=2|44=242.38|38=100|59=0|10=169|
< 8=FIX.4.2|9=122|35=F|49=MINIFIX|56=EXCHANGE|34=93|52=20260416-01:50:22|41=963604677|11=963604678|55=MSFT|54=1|60=20260416-01:50:22|38=100|10=212|
> 8=FIX.4.2|9=223|35=8|34=92|49=EXCHANGE|52=20260416-01:50:22.155|56=MINIFIX|6=0|11=963604677|14=0|17=EXEC-1776303564521|31=0|32=0|37=20260416-072022-613364|38=100|39=0|40=2|44=242.38|54=1|55=MSFT|59=0|60=20260416-07:20:22.155|150=0|151=100|10=084|
> 8=FIX.4.2|9=132|35=9|34=93|49=EXCHANGE|52=20260416-01:50:22.155|56=MINIFIX|11=963604678|37=UNKNOWN|39=8|41=963604677|58=Order not found|102=1|434=1|10=179|
< 8=FIX.4.2|9=133|35=D|49=MINIFIX|56=EXCHANGE|34=94|52=20260416-01:50:22|11=963604680|21=1|55=MSFT|54=1|60=20260416-01:50:22|40=2|44=386.8|38=100|59=0|10=122|
< 8=FIX.4.2|9=122|35=F|49=MINIFIX|56=EXCHANGE|34=95|52=20260416-01:50:22|41=963604680|11=963604681|55=MSFT|54=1|60=20260416-01:50:22|38=100|10=202|
> 8=FIX.4.2|9=132|35=9|34=94|49=EXCHANGE|52=20260416-01:50:22.157|56=MINIFIX|11=963604681|37=UNKNOWN|39=8|41=963604680|58=Order not found|102=1|434=1|10=170|
< 8=FIX.4.2|9=134|35=D|49=MINIFIX|56=EXCHANGE|34=96|52=20260416-01:50:22|11=963604683|21=1|55=MSFT|54=1|60=20260416-01:50:22|40=2|44=336.27|38=100|59=0|10=172|
> 8=FIX.4.2|9=222|35=8|34=95|49=EXCHANGE|52=20260416-01:50:22.157|56=MINIFIX|6=0|11=963604680|14=0|17=EXEC-1776303564522|31=0|32=0|37=20260416-072022-613365|38=100|39=0|40=2|44=386.8|54=1|55=MSFT|59=0|60=20260416-07:20:22.157|150=0|151=100|10=044|
< 8=FIX.4.2|9=122|35=F|49=MINIFIX|56=EXCHANGE|34=97|52=20260416-01:50:22|41=963604683|11=963604684|55=MSFT|54=1|60=20260416-01:50:22|38=100|10=210|
> 8=FIX.4.2|9=223|35=8|34=96|49=EXCHANGE|52=20260416-01:50:22.159|56=MINIFIX|6=0|11=963604683|14=0|17=EXEC-1776303564523|31=0|32=0|37=20260416-072022-613366|38=100|39=0|40=2|44=336.27|54=1|55=MSFT|59=0|60=20260416-07:20:22.159|150=0|151=100|10=099|
< 8=FIX.4.2|9=134|35=D|49=MINIFIX|56=EXCHANGE|34=98|52=20260416-01:50:22|11=963604686|21=1|55=MSFT|54=1|60=20260416-01:50:22|40=2|44=335.75|38=100|59=0|10=179|
> 8=FIX.4.2|9=221|35=8|34=97|49=EXCHANGE|52=20260416-01:50:22.160|56=MINIFIX|6=0|11=963604683|14=0|17=EXEC-1776303564524|31=0|32=0|37=20260416-072022-613366|38=100|39=4|40=2|44=336.27|54=1|55=MSFT|59=0|60=20260416-07:20:22.160|150=4|151=0|10=250|
< 8=FIX.4.2|9=122|35=F|49=MINIFIX|56=EXCHANGE|34=99|52=20260416-01:50:22|41=963604686|11=963604687|55=MSFT|54=1|60=20260416-01:50:22|38=100|10=218|
< 8=FIX.4.2|9=135|35=D|49=MINIFIX|56=EXCHANGE|34=100|52=20260416-01:50:22|11=963604689|21=1|55=MSFT|54=1|60=20260416-01:50:22|40=2|44=279.75|38=100|59=0|10=222|
> 8=FIX.4.2|9=132|35=9|34=98|49=EXCHANGE|52=20260416-01:50:22.161|56=MINIFIX|11=963604687|37=UNKNOWN|39=8|41=963604686|58=Order not found|102=1|434=1|10=181|
> 8=FIX.4.2|9=223|35=8|34=99|49=EXCHANGE|52=20260416-01:50:22.161|56=MINIFIX|6=0|11=963604686|14=0|17=EXEC-1776303564525|31=0|32=0|37=20260416-072022-613367|38=100|39=0|40=2|44=335.75|54=1|55=MSFT|59=0|60=20260416-07:20:22.161|150=0|151=100|10=096|
< 8=FIX.4.2|9=123|35=F|49=MINIFIX|56=EXCHANGE|34=101|52=20260416-01:50:22|41=963604689|11=963604690|55=MSFT|54=1|60=20260416-01:50:22|38=100|10=248|
> 8=FIX.4.2|9=133|35=9|34=100|49=EXCHANGE|52=20260416-01:50:22.162|56=MINIFIX|11=963604690|37=UNKNOWN|39=8|41=963604689|58=Order not found|102=1|434=1|10=212|
< 8=FIX.4.2|9=135|35=D|49=MINIFIX|56=EXCHANGE|34=102|52=20260416-01:50:22|11=963604692|21=1|55=MSFT|54=1|60=20260416-01:50:22|40=2|44=351.55|38=100|59=0|10=207|
> 8=FIX.4.2|9=224|35=8|34=101|49=EXCHANGE|52=20260416-01:50:22.163|56=MINIFIX|6=0|11=963604689|14=0|17=EXEC-1776303564526|31=0|32=0|37=20260416-072022-613368|38=100|39=0|40=2|44=279.75|54=1|55=MSFT|59=0|60=20260416-07:20:22.163|150=0|151=100|10=145|
< 8=FIX.4.2|9=123|35=F|49=MINIFIX|56=EXCHANGE|34=103|52=20260416-01:50:22|41=963604692|11=963604693|55=MSFT|54=1|60=20260416-01:50:22|38=100|10=247|
> 8=FIX.4.2|9=133|35=9|34=102|49=EXCHANGE|52=20260416-01:50:22.164|56=MINIFIX|11=963604693|37=UNKNOWN|39=8|41=963604692|58=Order not found|102=1|434=1|10=213|
> 8=FIX.4.2|9=224|35=8|34=103|49=EXCHANGE|52=20260416-01:50:22.164|56=MINIFIX|6=0|11=963604692|14=0|17=EXEC-1776303564527|31=0|32=0|37=20260416-072022-613369|38=100|39=0|40=2|44=351.55|54=1|55=MSFT|59=0|60=20260416-07:20:22.164|150=0|151=100|10=134|
< 8=FIX.4.2|9=135|35=D|49=MINIFIX|56=EXCHANGE|34=104|52=20260416-01:50:22|11=963604695|21=1|55=MSFT|54=1|60=20260416-01:50:22|40=2|44=348.13|38=100|59=0|10=212|
< 8=FIX.4.2|9=123|35=F|49=MINIFIX|56=EXCHANGE|34=105|52=20260416-01:50:22|41=963604695|11=963604696|55=MSFT|54=1|60=20260416-01:50:22|38=100|10=255|
> 8=FIX.4.2|9=133|35=9|34=104|49=EXCHANGE|52=20260416-01:50:22.166|56=MINIFIX|11=963604696|37=UNKNOWN|39=8|41=963604695|58=Order not found|102=1|434=1|10=223|
> 8=FIX.4.2|9=224|35=8|34=105|49=EXCHANGE|52=20260416-01:50:22.166|56=MINIFIX|6=0|11=963604695|14=0|17=EXEC-1776303564528|31=0|32=0|37=20260416-072022-613370|38=100|39=0|40=2|44=348.13|54=1|55=MSFT|59=0|60=20260416-07:20:22.166|150=0|151=100|10=136|
< 8=FIX.4.2|9=135|35=D|49=MINIFIX|56=EXCHANGE|34=106|52=20260416-01:50:22|11=963604698|21=1|55=MSFT|54=1|60=20260416-01:50:22|40=2|44=348.63|38=100|59=0|10=222|
< 8=FIX.4.2|9=123|35=F|49=MINIFIX|56=EXCHANGE|34=107|52=20260416-01:50:22|41=963604698|11=963604699|55=MSFT|54=1|60=20260416-01:50:22|38=100|10=007|
> 8=FIX.4.2|9=133|35=9|34=106|49=EXCHANGE|52=20260416-01:50:22.167|56=MINIFIX|11=963604699|37=UNKNOWN|39=8|41=963604698|58=Order not found|102=1|434=1|10=232|
> 8=FIX.4.2|9=224|35=8|34=107|49=EXCHANGE|52=20260416-01:50:22.167|56=MINIFIX|6=0|11=963604698|14=0|17=EXEC-1776303564529|31=0|32=0|37=20260416-072022-613371|38=100|39=0|40=2|44=348.63|54=1|55=MSFT|59=0|60=20260416-07:20:22.167|150=0|151=100|10=150|
< 8=FIX.4.2|9=135|35=D|49=MINIFIX|56=EXCHANGE|34=108|52=20260416-01:50:22|11=963604701|21=1|55=MSFT|54=1|60=20260416-01:50:22|40=2|44=294.95|38=100|59=0|10=214|
< 8=FIX.4.2|9=123|35=F|49=MINIFIX|56=EXCHANGE|34=109|52=20260416-01:50:22|41=963604701|11=963604702|55=MSFT|54=1|60=20260416-01:50:22|38=100|10=235|
> 8=FIX.4.2|9=224|35=8|34=108|49=EXCHANGE|52=20260416-01:50:22.169|56=MINIFIX|6=0|11=963604701|14=0|17=EXEC-1776303564530|31=0|32=0|37=20260416-072022-613372|38=100|39=0|40=2|44=294.95|54=1|55=MSFT|59=0|60=20260416-07:20:22.169|150=0|151=100|10=138|
< 8=FIX.4.2|9=135|35=D|49=MINIFIX|56=EXCHANGE|34=110|52=20260416-01:50:22|11=963604704|21=1|55=MSFT|54=1|60=20260416-01:50:22|40=2|44=278.44|38=100|59=0|10=206|
> 8=FIX.4.2|9=133|35=9|34=109|49=EXCHANGE|52=20260416-01:50:22.169|56=MINIFIX|11=963604702|37=UNKNOWN|39=8|41=963604701|58=Order not found|102=1|434=1|10=207|
< 8=FIX.4.2|9=123|35=F|49=MINIFIX|56=EXCHANGE|34=111|52=20260416-01:50:22|41=963604704|11=963604705|55=MSFT|54=1|60=20260416-01:50:22|38=100|10=234|
> 8=FIX.4.2|9=133|35=9|34=110|49=EXCHANGE|52=20260416-01:50:22.170|56=MINIFIX|11=963604705|37=UNKNOWN|39=8|41=963604704|58=Order not found|102=1|434=1|10=197|
< 8=FIX.4.2|9=135|35=D|49=MINIFIX|56=EXCHANGE|34=112|52=20260416-01:50:22|11=963604707|21=1|55=MSFT|54=1|60=20260416-01:50:22|40=2|44=284.42|38=100|59=0|10=206|
> 8=FIX.4.2|9=224|35=8|34=111|49=EXCHANGE|52=20260416-01:50:22.170|56=MINIFIX|6=0|11=963604704|14=0|17=EXEC-1776303564531|31=0|32=0|37=20260416-072022-613373|38=100|39=0|40=2|44=278.44|54=1|55=MSFT|59=0|60=20260416-07:20:22.170|150=0|151=100|10=117|
< 8=FIX.4.2|9=123|35=F|49=MINIFIX|56=EXCHANGE|34=113|52=20260416-01:50:22|41=963604707|11=963604708|55=MSFT|54=1|60=20260416-01:50:22|38=100|10=242|
> 8=FIX.4.2|9=133|35=9|34=112|49=EXCHANGE|52=20260416-01:50:22.171|56=MINIFIX|11=963604708|37=UNKNOWN|39=8|41=963604707|58=Order not found|102=1|434=1|10=206|
> 8=FIX.4.2|9=224|35=8|34=113|49=EXCHANGE|52=20260416-01:50:22.173|56=MINIFIX|6=0|11=963604707|14=0|17=EXEC-1776303564532|31=0|32=0|37=20260416-072022-613374|38=100|39=0|40=2|44=284.42|54=1|55=MSFT|59=0|60=20260416-07:20:22.173|150=0|151=100|10=125|
< 8=FIX.4.2|9=134|35=D|49=MINIFIX|56=EXCHANGE|34=114|52=20260416-01:50:22|11=963604710|21=1|55=MSFT|54=1|60=20260416-01:50:22|40=2|44=331.1|38=100|59=0|10=141|
< 8=FIX.4.2|9=123|35=F|49=MINIFIX|56=EXCHANGE|34=115|52=20260416-01:50:22|41=963604710|11=963604711|55=MSFT|54=1|60=20260416-01:50:22|38=100|10=232|
> 8=FIX.4.2|9=133|35=9|34=114|49=EXCHANGE|52=20260416-01:50:22.174|56=MINIFIX|11=963604711|37=UNKNOWN|39=8|41=963604710|58=Order not found|102=1|434=1|10=199|
> 8=FIX.4.2|9=223|35=8|34=115|49=EXCHANGE|52=20260416-01:50:22.174|56=MINIFIX|6=0|11=963604710|14=0|17=EXEC-1776303564533|31=0|32=0|37=20260416-072022-613375|38=100|39=0|40=2|44=331.1|54=1|55=MSFT|59=0|60=20260416-07:20:22.174|150=0|151=100|10=064|
< 8=FIX.4.2|9=135|35=D|49=MINIFIX|56=EXCHANGE|34=116|52=20260416-01:50:22|11=963604713|21=1|55=MSFT|54=1|60=20260416-01:50:22|40=2|44=234.77|38=100|59=0|10=210|
< 8=FIX.4.2|9=123|35=F|49=MINIFIX|56=EXCHANGE|34=117|52=20260416-01:50:22|41=963604713|11=963604714|55=MSFT|54=1|60=20260416-01:50:22|38=100|10=240|
> 8=FIX.4.2|9=133|35=9|34=116|49=EXCHANGE|52=20260416-01:50:22.175|56=MINIFIX|11=963604714|37=UNKNOWN|39=8|41=963604713|58=Order not found|102=1|434=1|10=208|
> 8=FIX.4.2|9=224|35=8|34=117|49=EXCHANGE|52=20260416-01:50:22.175|56=MINIFIX|6=0|11=963604713|14=0|17=EXEC-1776303564534|31=0|32=0|37=20260416-072022-613376|38=100|39=0|40=2|44=234.77|54=1|55=MSFT|59=0|60=20260416-07:20:22.175|150=0|151=100|10=137|
< 8=FIX.4.2|9=135|35=D|49=MINIFIX|56=EXCHANGE|34=118|52=20260416-01:50:22|11=963604716|21=1|55=MSFT|54=1|60=20260416-01:50:22|40=2|44=234.23|38=100|59=0|10=206|
< 8=FIX.4.2|9=123|35=F|49=MINIFIX|56=EXCHANGE|34=119|52=20260416-01:50:22|41=963604716|11=963604717|55=MSFT|54=1|60=20260416-01:50:22|38=100|10=248|
> 8=FIX.4.2|9=236|35=8|34=118|49=EXCHANGE|52=20260416-01:50:22.177|56=MINIFIX|6=0|11=963604716|14=0|17=EXEC-1776303564535|31=0|32=0|37=20260416-072022-613377|38=100|39=0|40=2|44=234.23000000000002|54=1|55=MSFT|59=0|60=20260416-07:20:22.177|150=0|151=100|10=207|
< 8=FIX.4.2|9=135|35=D|49=MINIFIX|56=EXCHANGE|34=120|52=20260416-01:50:22|11=963604719|21=1|55=MSFT|54=1|60=20260416-01:50:22|40=2|44=260.38|38=100|59=0|10=207|
> 8=FIX.4.2|9=133|35=9|34=119|49=EXCHANGE|52=20260416-01:50:22.177|56=MINIFIX|11=963604717|37=UNKNOWN|39=8|41=963604716|58=Order not found|102=1|434=1|10=219|
< 8=FIX.4.2|9=123|35=F|49=MINIFIX|56=EXCHANGE|34=121|52=20260416-01:50:22|41=963604719|11=963604720|55=MSFT|54=1|60=20260416-01:50:22|38=100|10=238|
> 8=FIX.4.2|9=133|35=9|34=120|49=EXCHANGE|52=20260416-01:50:22.178|56=MINIFIX|11=963604720|37=UNKNOWN|39=8|41=963604719|58=Order not found|102=1|434=1|10=209|
> 8=FIX.4.2|9=224|35=8|34=121|49=EXCHANGE|52=20260416-01:50:22.178|56=MINIFIX|6=0|11=963604719|14=0|17=EXEC-1776303564536|31=0|32=0|37=20260416-072022-613378|38=100|39=0|40=2|44=260.38|54=1|55=MSFT|59=0|60=20260416-07:20:22.178|150=0|151=100|10=144|
< 8=FIX.4.2|9=135|35=D|49=MINIFIX|56=EXCHANGE|34=122|52=20260416-01:50:22|11=963604722|21=1|55=MSFT|54=1|60=20260416-01:50:22|40=2|44=341.21|38=100|59=0|10=195|
< 8=FIX.4.2|9=123|35=F|49=MINIFIX|56=EXCHANGE|34=123|52=20260416-01:50:22|41=963604722|11=963604723|55=MSFT|54=1|60=20260416-01:50:22|38=100|10=237|
> 8=FIX.4.2|9=133|35=9|34=122|49=EXCHANGE|52=20260416-01:50:22.180|56=MINIFIX|11=963604723|37=UNKNOWN|39=8|41=963604722|58=Order not found|102=1|434=1|10=201|
> 8=FIX.4.2|9=224|35=8|34=123|49=EXCHANGE|52=20260416-01:50:22.180|56=MINIFIX|6=0|11=963604722|14=0|17=EXEC-1776303564537|31=0|32=0|37=20260416-072022-613379|38=100|39=0|40=2|44=341.21|54=1|55=MSFT|59=0|60=20260416-07:20:22.180|150=0|151=100|10=120|
< 8=FIX.4.2|9=135|35=D|49=MINIFIX|56=EXCHANGE|34=124|52=20260416-01:50:22|11=963604725|21=1|55=MSFT|54=1|60=20260416-01:50:22|40=2|44=359.46|38=100|59=0|10=216|
< 8=FIX.4.2|9=123|35=F|49=MINIFIX|56=EXCHANGE|34=125|52=20260416-01:50:22|41=963604725|11=963604726|55=MSFT|54=1|60=20260416-01:50:22|38=100|10=245|
> 8=FIX.4.2|9=224|35=8|34=124|49=EXCHANGE|52=20260416-01:50:22.182|56=MINIFIX|6=0|11=963604725|14=0|17=EXEC-1776303564538|31=0|32=0|37=20260416-072022-613380|38=100|39=0|40=2|44=359.46|54=1|55=MSFT|59=0|60=20260416-07:20:22.182|150=0|151=100|10=137|
< 8=FIX.4.2|9=135|35=D|49=MINIFIX|56=EXCHANGE|34=126|52=20260416-01:50:22|11=963604728|21=1|55=MSFT|54=1|60=20260416-01:50:22|40=2|44=206.36|38=100|59=0|10=211|
> 8=FIX.4.2|9=222|35=8|34=125|49=EXCHANGE|52=20260416-01:50:22.183|56=MINIFIX|6=0|11=963604725|14=0|17=EXEC-1776303564539|31=0|32=0|37=20260416-072022-613380|38=100|39=4|40=2|44=359.46|54=1|55=MSFT|59=0|60=20260416-07:20:22.183|150=4|151=0|10=050|
< 8=FIX.4.2|9=123|35=F|49=MINIFIX|56=EXCHANGE|34=127|52=20260416-01:50:22|41=963604728|11=963604729|55=MSFT|54=1|60=20260416-01:50:22|38=100|10=253|
> 8=FIX.4.2|9=133|35=9|34=126|49=EXCHANGE|52=20260416-01:50:22.184|56=MINIFIX|11=963604729|37=UNKNOWN|39=8|41=963604728|58=Order not found|102=1|434=1|10=221|
< 8=FIX.4.2|9=135|35=D|49=MINIFIX|56=EXCHANGE|34=128|52=20260416-01:50:22|11=963604731|21=1|55=MSFT|54=1|60=20260416-01:50:22|40=2|44=263.31|38=100|59=0|10=205|
> 8=FIX.4.2|9=224|35=8|34=127|49=EXCHANGE|52=20260416-01:50:22.185|56=MINIFIX|6=0|11=963604728|14=0|17=EXEC-1776303564540|31=0|32=0|37=20260416-072022-613381|38=100|39=0|40=2|44=206.36|54=1|55=MSFT|59=0|60=20260416-07:20:22.184|150=0|151=100|10=132|
< 8=FIX.4.2|9=123|35=F|49=MINIFIX|56=EXCHANGE|34=129|52=20260416-01:50:22|41=963604731|11=963604732|55=MSFT|54=1|60=20260416-01:50:22|38=100|10=243|
> 8=FIX.4.2|9=224|35=8|34=128|49=EXCHANGE|52=20260416-01:50:22.185|56=MINIFIX|6=0|11=963604731|14=0|17=EXEC-1776303564541|31=0|32=0|37=20260416-072022-613382|38=100|39=0|40=2|44=263.31|54=1|55=MSFT|59=0|60=20260416-07:20:22.185|150=0|151=100|10=128|
< 8=FIX.4.2|9=135|35=D|49=MINIFIX|56=EXCHANGE|34=130|52=20260416-01:50:22|11=963604734|21=1|55=MSFT|54=1|60=20260416-01:50:22|40=2|44=255.38|38=100|59=0|10=209|
> 8=FIX.4.2|9=222|35=8|34=129|49=EXCHANGE|52=20260416-01:50:22.186|56=MINIFIX|6=0|11=963604731|14=0|17=EXEC-1776303564542|31=0|32=0|37=20260416-072022-613382|38=100|39=4|40=2|44=263.31|54=1|55=MSFT|59=0|60=20260416-07:20:22.186|150=4|151=0|10=041|
< 8=FIX.4.2|9=123|35=F|49=MINIFIX|56=EXCHANGE|34=131|52=20260416-01:50:22|41=963604734|11=963604735|55=MSFT|54=1|60=20260416-01:50:22|38=100|10=242|
> 8=FIX.4.2|9=133|35=9|34=130|49=EXCHANGE|52=20260416-01:50:22.187|56=MINIFIX|11=963604735|37=UNKNOWN|39=8|41=963604734|58=Order not found|102=1|434=1|10=213|
< 8=FIX.4.2|9=135|35=D|49=MINIFIX|56=EXCHANGE|34=132|52=20260416-01:50:22|11=963604737|21=1|55=MSFT|54=1|60=20260416-01:50:22|40=2|44=374.49|38=100|59=0|10=218|
> 8=FIX.4.2|9=224|35=8|34=131|49=EXCHANGE|52=20260416-01:50:22.188|56=MINIFIX|6=0|11=963604734|14=0|17=EXEC-1776303564543|31=0|32=0|37=20260416-072022-613383|38=100|39=0|40=2|44=255.38|54=1|55=MSFT|59=0|60=20260416-07:20:22.188|150=0|151=100|10=142|
< 8=FIX.4.2|9=123|35=F|49=MINIFIX|56=EXCHANGE|34=133|52=20260416-01:50:22|41=963604737|11=963604738|55=MSFT|54=1|60=20260416-01:50:22|38=100|10=250|
> 8=FIX.4.2|9=224|35=8|34=132|49=EXCHANGE|52=20260416-01:50:22.189|56=MINIFIX|6=0|11=963604737|14=0|17=EXEC-1776303564544|31=0|32=0|37=20260416-072022-613384|38=100|39=0|40=2|44=374.49|54=1|55=MSFT|59=0|60=20260416-07:20:22.189|150=0|151=100|10=154|
< 8=FIX.4.2|9=135|35=D|49=MINIFIX|56=EXCHANGE|34=134|52=20260416-01:50:22|11=963604740|21=1|55=MSFT|54=1|60=20260416-01:50:22|40=2|44=209.23|38=100|59=0|10=203|
> 8=FIX.4.2|9=222|35=8|34=133|49=EXCHANGE|52=20260416-01:50:22.190|56=MINIFIX|6=0|11=963604737|14=0|17=EXEC-1776303564545|31=0|32=0|37=20260416-072022-613384|38=100|39=4|40=2|44=374.49|54=1|55=MSFT|59=0|60=20260416-07:20:22.190|150=4|151=0|10=049|
< 8=FIX.4.2|9=123|35=F|49=MINIFIX|56=EXCHANGE|34=135|52=20260416-01:50:22|41=963604740|11=963604741|55=MSFT|54=1|60=20260416-01:50:22|38=100|10=240|
> 8=FIX.4.2|9=133|35=9|34=134|49=EXCHANGE|52=20260416-01:50:22.191|56=MINIFIX|11=963604741|37=UNKNOWN|39=8|41=963604740|58=Order not found|102=1|434=1|10=206|
< 8=FIX.4.2|9=135|35=D|49=MINIFIX|56=EXCHANGE|34=136|52=20260416-01:50:22|11=963604743|21=1|55=MSFT|54=1|60=20260416-01:50:22|40=2|44=229.82|38=100|59=0|10=215|
> 8=FIX.4.2|9=236|35=8|34=135|49=EXCHANGE|52=20260416-01:50:22.191|56=MINIFIX|6=0|11=963604740|14=0|17=EXEC-1776303564546|31=0|32=0|37=20260416-072022-613385|38=100|39=0|40=2|44=209.23000000000002|54=1|55=MSFT|59=0|60=20260416-07:20:22.191|150=0|151=100|10=198|
< 8=FIX.4.2|9=123|35=F|49=MINIFIX|56=EXCHANGE|34=137|52=20260416-01:50:22|41=963604743|11=963604744|55=MSFT|54=1|60=20260416-01:50:22|38=100|10=248|
> 8=FIX.4.2|9=224|35=8|34=136|49=EXCHANGE|52=20260416-01:50:22.193|56=MINIFIX|6=0|11=963604743|14=0|17=EXEC-1776303564547|31=0|32=0|37=20260416-072022-613386|38=100|39=0|40=2|44=229.82|54=1|55=MSFT|59=0|60=20260416-07:20:22.193|150=0|151=100|10=146|
> 8=FIX.4.2|9=133|35=9|34=137|49=EXCHANGE|52=20260416-01:50:22.193|56=MINIFIX|11=963604744|37=UNKNOWN|39=8|41=963604743|58=Order not found|102=1|434=1|10=217|
< 8=FIX.4.2|9=135|35=D|49=MINIFIX|56=EXCHANGE|34=138|52=20260416-01:50:22|11=963604746|21=1|55=MSFT|54=1|60=20260416-01:50:22|40=2|44=219.42|38=100|59=0|10=215|
< 8=FIX.4.2|9=123|35=F|49=MINIFIX|56=EXCHANGE|34=139|52=20260416-01:50:22|41=963604746|11=963604747|55=MSFT|54=1|60=20260416-01:50:22|38=100|10=000|
> 8=FIX.4.2|9=236|35=8|34=138|49=EXCHANGE|52=20260416-01:50:22.195|56=MINIFIX|6=0|11=963604746|14=0|17=EXEC-1776303564548|31=0|32=0|37=20260416-072022-613387|38=100|39=0|40=2|44=219.42000000000002|54=1|55=MSFT|59=0|60=20260416-07:20:22.195|150=0|151=100|10=221|
< 8=FIX.4.2|9=135|35=D|49=MINIFIX|56=EXCHANGE|34=140|52=20260416-01:50:22|11=963604749|21=1|55=MSFT|54=1|60=20260416-01:50:22|40=2|44=398.82|38=100|59=0|10=223|
> 8=FIX.4.2|9=133|35=9|34=139|49=EXCHANGE|52=20260416-01:50:22.195|56=MINIFIX|11=963604747|37=UNKNOWN|39=8|41=963604746|58=Order not found|102=1|434=1|10=227|
< 8=FIX.4.2|9=123|35=F|49=MINIFIX|56=EXCHANGE|34=141|52=20260416-01:50:22|41=963604749|11=963604750|55=MSFT|54=1|60=20260416-01:50:22|38=100|10=246|
> 8=FIX.4.2|9=133|35=9|34=140|49=EXCHANGE|52=20260416-01:50:22.196|56=MINIFIX|11=963604750|37=UNKNOWN|39=8|41=963604749|58=Order not found|102=1|434=1|10=217|
> 8=FIX.4.2|9=224|35=8|34=141|49=EXCHANGE|52=20260416-01:50:22.196|56=MINIFIX|6=0|11=963604749|14=0|17=EXEC-1776303564549|31=0|32=0|37=20260416-072022-613388|38=100|39=0|40=2|44=398.82|54=1|55=MSFT|59=0|60=20260416-07:20:22.196|150=0|151=100|10=165|
< 8=FIX.4.2|9=134|35=D|49=MINIFIX|56=EXCHANGE|34=142|52=20260416-01:50:22|11=963604752|21=1|55=MSFT|54=1|60=20260416-01:50:22|40=2|44=364.7|38=100|59=0|10=160|
< 8=FIX.4.2|9=123|35=F|49=MINIFIX|56=EXCHANGE|34=143|52=20260416-01:50:22|41=963604752|11=963604753|55=MSFT|54=1|60=20260416-01:50:22|38=100|10=245|
> 8=FIX.4.2|9=133|35=9|34=142|49=EXCHANGE|52=20260416-01:50:22.198|56=MINIFIX|11=963604753|37=UNKNOWN|39=8|41=963604752|58=Order not found|102=1|434=1|10=218|
> 8=FIX.4.2|9=223|35=8|34=143|49=EXCHANGE|52=20260416-01:50:22.198|56=MINIFIX|6=0|11=963604752|14=0|17=EXEC-1776303564550|31=0|32=0|37=20260416-072022-613389|38=100|39=0|40=2|44=364.7|54=1|55=MSFT|59=0|60=20260416-07:20:22.198|150=0|151=100|10=099|
< 8=FIX.4.2|9=135|35=D|49=MINIFIX|56=EXCHANGE|34=144|52=20260416-01:50:22|11=963604755|21=1|55=MSFT|54=1|60=20260416-01:50:22|40=2|44=364.38|38=100|59=0|10=218|
< 8=FIX.4.2|9=123|35=F|49=MINIFIX|56=EXCHANGE|34=145|52=20260416-01:50:22|41=963604755|11=963604756|55=MSFT|54=1|60=20260416-01:50:22|38=100|10=253|
> 8=FIX.4.2|9=224|35=8|34=144|49=EXCHANGE|52=20260416-01:50:22.199|56=MINIFIX|6=0|11=963604755|14=0|17=EXEC-1776303564551|31=0|32=0|37=20260416-072022-613390|38=100|39=0|40=2|44=364.38|54=1|55=MSFT|59=0|60=20260416-07:20:22.199|150=0|151=100|10=151|
< 8=FIX.4.2|9=135|35=D|49=MINIFIX|56=EXCHANGE|34=146|52=20260416-01:50:22|11=963604758|21=1|55=MSFT|54=1|60=20260416-01:50:22|40=2|44=338.97|38=100|59=0|10=229|
> 8=FIX.4.2|9=133|35=9|34=145|49=EXCHANGE|52=20260416-01:50:22.199|56=MINIFIX|11=963604756|37=UNKNOWN|39=8|41=963604755|58=Order not found|102=1|434=1|10=228|
< 8=FIX.4.2|9=123|35=F|49=MINIFIX|56=EXCHANGE|34=147|52=20260416-01:50:22|41=963604758|11=963604759|55=MSFT|54=1|60=20260416-01:50:22|38=100|10=005|
> 8=FIX.4.2|9=133|35=9|34=146|49=EXCHANGE|52=20260416-01:50:22.201|56=MINIFIX|11=963604759|37=UNKNOWN|39=8|41=963604758|58=Order not found|102=1|434=1|10=219|
< 8=FIX.4.2|9=135|35=D|49=MINIFIX|56=EXCHANGE|34=148|52=20260416-01:50:22|11=963604761|21=1|55=MSFT|54=1|60=20260416-01:50:22|40=2|44=225.03|38=100|59=0|10=207|
> 8=FIX.4.2|9=224|35=8|34=147|49=EXCHANGE|52=20260416-01:50:22.201|56=MINIFIX|6=0|11=963604758|14=0|17=EXEC-1776303564552|31=0|32=0|37=20260416-072022-613391|38=100|39=0|40=2|44=338.97|54=1|55=MSFT|59=0|60=20260416-07:20:22.201|150=0|151=100|10=133|
< 8=FIX.4.2|9=123|35=F|49=MINIFIX|56=EXCHANGE|34=149|52=20260416-01:50:22|41=963604761|11=963604762|55=MSFT|54=1|60=20260416-01:50:22|38=100|10=251|
> 8=FIX.4.2|9=133|35=9|34=148|49=EXCHANGE|52=20260416-01:50:22.202|56=MINIFIX|11=963604762|37=UNKNOWN|39=8|41=963604761|58=Order not found|102=1|434=1|10=210|
> 8=FIX.4.2|9=224|35=8|34=149|49=EXCHANGE|52=20260416-01:50:22.202|56=MINIFIX|6=0|11=963604761|14=0|17=EXEC-1776303564553|31=0|32=0|37=20260416-072022-613392|38=100|39=0|40=2|44=225.03|54=1|55=MSFT|59=0|60=20260416-07:20:22.202|150=0|151=100|10=115|
< 8=FIX.4.2|9=135|35=D|49=MINIFIX|56=EXCHANGE|34=150|52=20260416-01:50:22|11=963604764|21=1|55=MSFT|54=1|60=20260416-01:50:22|40=2|44=263.42|38=100|59=0|10=208|
< 8=FIX.4.2|9=123|35=F|49=MINIFIX|56=EXCHANGE|34=151|52=20260416-01:50:22|41=963604764|11=963604765|55=MSFT|54=1|60=20260416-01:50:22|38=100|10=250|
> 8=FIX.4.2|9=133|35=9|34=150|49=EXCHANGE|52=20260416-01:50:22.203|56=MINIFIX|11=963604765|37=UNKNOWN|39=8|41=963604764|58=Order not found|102=1|434=1|10=210|
> 8=FIX.4.2|9=224|35=8|34=151|49=EXCHANGE|52=20260416-01:50:22.204|56=MINIFIX|6=0|11=963604764|14=0|17=EXEC-1776303564554|31=0|32=0|37=20260416-072022-613393|38=100|39=0|40=2|44=263.42|54=1|55=MSFT|59=0|60=20260416-07:20:22.204|150=0|151=100|10=122|
< 8=FIX.4.2|9=135|35=D|49=MINIFIX|56=EXCHANGE|34=152|52=20260416-01:50:22|11=963604767|21=1|55=MSFT|54=1|60=20260416-01:50:22|40=2|44=352.75|38=100|59=0|10=218|
< 8=FIX.4.2|9=123|35=F|49=MINIFIX|56=EXCHANGE|34=153|52=20260416-01:50:22|41=963604767|11=963604768|55=MSFT|54=1|60=20260416-01:50:22|38=100|10=002|
> 8=FIX.4.2|9=224|35=8|34=152|49=EXCHANGE|52=20260416-01:50:22.205|56=MINIFIX|6=0|11=963604767|14=0|17=EXEC-1776303564555|31=0|32=0|37=20260416-072022-613394|38=100|39=0|40=2|44=352.75|54=1|55=MSFT|59=0|60=20260416-07:20:22.205|150=0|151=100|10=135|
< 8=FIX.4.2|9=135|35=D|49=MINIFIX|56=EXCHANGE|34=154|52=20260416-01:50:22|11=963604770|21=1|55=MSFT|54=1|60=20260416-01:50:22|40=2|44=390.05|38=100|59=0|10=209|
> 8=FIX.4.2|9=133|35=9|34=153|49=EXCHANGE|52=20260416-01:50:22.206|56=MINIFIX|11=963604768|37=UNKNOWN|39=8|41=963604767|58=Order not found|102=1|434=1|10=222|
< 8=FIX.4.2|9=123|35=F|49=MINIFIX|56=EXCHANGE|34=155|52=20260416-01:50:22|41=963604770|11=963604771|55=MSFT|54=1|60=20260416-01:50:22|38=100|10=248|
> 8=FIX.4.2|9=133|35=9|34=154|49=EXCHANGE|52=20260416-01:50:22.207|56=MINIFIX|11=963604771|37=UNKNOWN|39=8|41=963604770|58=Order not found|102=1|434=1|10=212|
< 8=FIX.4.2|9=135|35=D|49=MINIFIX|56=EXCHANGE|34=156|52=20260416-01:50:22|11=963604773|21=1|55=MSFT|54=1|60=20260416-01:50:22|40=2|44=298.12|38=100|59=0|10=219|
> 8=FIX.4.2|9=224|35=8|34=155|49=EXCHANGE|52=20260416-01:50:22.207|56=MINIFIX|6=0|11=963604770|14=0|17=EXEC-1776303564556|31=0|32=0|37=20260416-072022-613395|38=100|39=0|40=2|44=390.05|54=1|55=MSFT|59=0|60=20260416-07:20:22.207|150=0|151=100|10=133|
< 8=FIX.4.2|9=123|35=F|49=MINIFIX|56=EXCHANGE|34=157|52=20260416-01:50:22|41=963604773|11=963604774|55=MSFT|54=1|60=20260416-01:50:22|38=100|10=000|
> 8=FIX.4.2|9=133|35=9|34=156|49=EXCHANGE|52=20260416-01:50:22.208|56=MINIFIX|11=963604774|37=UNKNOWN|39=8|41=963604773|58=Order not found|102=1|434=1|10=221|
> 8=FIX.4.2|9=224|35=8|34=157|49=EXCHANGE|52=20260416-01:50:22.208|56=MINIFIX|6=0|11=963604773|14=0|17=EXEC-1776303564557|31=0|32=0|37=20260416-072022-613396|38=100|39=0|40=2|44=298.12|54=1|55=MSFT|59=0|60=20260416-07:20:22.208|150=0|151=100|10=147|
< 8=FIX.4.2|9=135|35=D|49=MINIFIX|56=EXCHANGE|34=158|52=20260416-01:50:22|11=963604776|21=1|55=MSFT|54=1|60=20260416-01:50:22|40=2|44=206.88|38=100|59=0|10=226|
< 8=FIX.4.2|9=123|35=F|49=MINIFIX|56=EXCHANGE|34=159|52=20260416-01:50:22|41=963604776|11=963604777|55=MSFT|54=1|60=20260416-01:50:22|38=100|10=008|
> 8=FIX.4.2|9=224|35=8|34=158|49=EXCHANGE|52=20260416-01:50:22.210|56=MINIFIX|6=0|11=963604776|14=0|17=EXEC-1776303564558|31=0|32=0|37=20260416-072022-613397|38=100|39=0|40=2|44=206.88|54=1|55=MSFT|59=0|60=20260416-07:20:22.209|150=0|151=100|10=149|
< 8=FIX.4.2|9=135|35=D|49=MINIFIX|56=EXCHANGE|34=160|52=20260416-01:50:22|11=963604779|21=1|55=MSFT|54=1|60=20260416-01:50:22|40=2|44=332.72|38=100|59=0|10=215|
> 8=FIX.4.2|9=222|35=8|34=159|49=EXCHANGE|52=20260416-01:50:22.210|56=MINIFIX|6=0|11=963604776|14=0|17=EXEC-1776303564559|31=0|32=0|37=20260416-072022-613397|38=100|39=4|40=2|44=206.88|54=1|55=MSFT|59=0|60=20260416-07:20:22.210|150=4|151=0|10=052|
< 8=FIX.4.2|9=123|35=F|49=MINIFIX|56=EXCHANGE|34=161|52=20260416-01:50:22|41=963604779|11=963604780|55=MSFT|54=1|60=20260416-01:50:22|38=100|10=254|
> 8=FIX.4.2|9=133|35=9|34=160|49=EXCHANGE|52=20260416-01:50:22.211|56=MINIFIX|11=963604780|37=UNKNOWN|39=8|41=963604779|58=Order not found|102=1|434=1|10=213|
< 8=FIX.4.2|9=135|35=D|49=MINIFIX|56=EXCHANGE|34=162|52=20260416-01:50:22|11=963604782|21=1|55=MSFT|54=1|60=20260416-01:50:22|40=2|44=287.75|38=100|59=0|10=223|
> 8=FIX.4.2|9=224|35=8|34=161|49=EXCHANGE|52=20260416-01:50:22.212|56=MINIFIX|6=0|11=963604779|14=0|17=EXEC-1776303564560|31=0|32=0|37=20260416-072022-613398|38=100|39=0|40=2|44=332.72|54=1|55=MSFT|59=0|60=20260416-07:20:22.212|150=0|151=100|10=129|
< 8=FIX.4.2|9=123|35=F|49=MINIFIX|56=EXCHANGE|34=163|52=20260416-01:50:22|41=963604782|11=963604783|55=MSFT|54=1|60=20260416-01:50:22|38=100|10=253|
> 8=FIX.4.2|9=224|35=8|34=162|49=EXCHANGE|52=20260416-01:50:22.213|56=MINIFIX|6=0|11=963604782|14=0|17=EXEC-1776303564561|31=0|32=0|37=20260416-072022-613399|38=100|39=0|40=2|44=287.75|54=1|55=MSFT|59=0|60=20260416-07:20:22.213|150=0|151=100|10=140|
< 8=FIX.4.2|9=135|35=D|49=MINIFIX|56=EXCHANGE|34=164|52=20260416-01:50:22|11=963604785|21=1|55=MSFT|54=1|60=20260416-01:50:22|40=2|44=225.18|38=100|59=0|10=217|
> 8=FIX.4.2|9=222|35=8|34=163|49=EXCHANGE|52=20260416-01:50:22.214|56=MINIFIX|6=0|11=963604782|14=0|17=EXEC-1776303564562|31=0|32=0|37=20260416-072022-613399|38=100|39=4|40=2|44=287.75|54=1|55=MSFT|59=0|60=20260416-07:20:22.214|150=4|151=0|10=053|
< 8=FIX.4.2|9=123|35=F|49=MINIFIX|56=EXCHANGE|34=165|52=20260416-01:50:22|41=963604785|11=963604786|55=MSFT|54=1|60=20260416-01:50:22|38=100|10=005|
< 8=FIX.4.2|9=135|35=D|49=MINIFIX|56=EXCHANGE|34=166|52=20260416-01:50:22|11=963604788|21=1|55=MSFT|54=1|60=20260416-01:50:22|40=2|44=276.31|38=100|59=0|10=223|
> 8=FIX.4.2|9=133|35=9|34=164|49=EXCHANGE|52=20260416-01:50:22.215|56=MINIFIX|11=963604786|37=UNKNOWN|39=8|41=963604785|58=Order not found|102=1|434=1|10=224|
> 8=FIX.4.2|9=224|35=8|34=165|49=EXCHANGE|52=20260416-01:50:22.215|56=MINIFIX|6=0|11=963604785|14=0|17=EXEC-1776303564563|31=0|32=0|37=20260416-072022-613400|38=100|39=0|40=2|44=225.18|54=1|55=MSFT|59=0|60=20260416-07:20:22.215|150=0|151=100|10=124|
< 8=FIX.4.2|9=123|35=F|49=MINIFIX|56=EXCHANGE|34=167|52=20260416-01:50:22|41=963604788|11=963604789|55=MSFT|54=1|60=20260416-01:50:22|38=100|10=013|
> 8=FIX.4.2|9=224|35=8|34=166|49=EXCHANGE|52=20260416-01:50:22.217|56=MINIFIX|6=0|11=963604788|14=0|17=EXEC-1776303564564|31=0|32=0|37=20260416-072022-613401|38=100|39=0|40=2|44=276.31|54=1|55=MSFT|59=0|60=20260416-07:20:22.217|150=0|151=100|10=135|
< 8=FIX.4.2|9=135|35=D|49=MINIFIX|56=EXCHANGE|34=168|52=20260416-01:50:22|11=963604791|21=1|55=MSFT|54=1|60=20260416-01:50:22|40=2|44=242.04|38=100|59=0|10=212|
> 8=FIX.4.2|9=222|35=8|34=167|49=EXCHANGE|52=20260416-01:50:22.218|56=MINIFIX|6=0|11=963604788|14=0|17=EXEC-1776303564565|31=0|32=0|37=20260416-072022-613401|38=100|39=4|40=2|44=276.31|54=1|55=MSFT|59=0|60=20260416-07:20:22.218|150=4|151=0|10=048|
< 8=FIX.4.2|9=123|35=F|49=MINIFIX|56=EXCHANGE|34=169|52=20260416-01:50:22|41=963604791|11=963604792|55=MSFT|54=1|60=20260416-01:50:22|38=100|10=003|
< 8=FIX.4.2|9=135|35=D|49=MINIFIX|56=EXCHANGE|34=170|52=20260416-01:50:22|11=963604794|21=1|55=MSFT|54=1|60=20260416-01:50:22|40=2|44=353.11|38=100|59=0|10=209|
> 8=FIX.4.2|9=133|35=9|34=168|49=EXCHANGE|52=20260416-01:50:22.220|56=MINIFIX|11=963604792|37=UNKNOWN|39=8|41=963604791|58=Order not found|102=1|434=1|10=218|
> 8=FIX.4.2|9=224|35=8|34=169|49=EXCHANGE|52=20260416-01:50:22.220|56=MINIFIX|6=0|11=963604791|14=0|17=EXEC-1776303564566|31=0|32=0|37=20260416-072022-613402|38=100|39=0|40=2|44=242.04|54=1|55=MSFT|59=0|60=20260416-07:20:22.220|150=0|151=100|10=116|
< 8=FIX.4.2|9=123|35=F|49=MINIFIX|56=EXCHANGE|34=171|52=20260416-01:50:22|41=963604794|11=963604795|55=MSFT|54=1|60=20260416-01:50:22|38=100|10=002|
> 8=FIX.4.2|9=133|35=9|34=170|49=EXCHANGE|52=20260416-01:50:22.221|56=MINIFIX|11=963604795|37=UNKNOWN|39=8|41=963604794|58=Order not found|102=1|434=1|10=218|
< 8=FIX.4.2|9=135|35=D|49=MINIFIX|56=EXCHANGE|34=172|52=20260416-01:50:22|11=963604797|21=1|55=MSFT|54=1|60=20260416-01:50:22|40=2|44=210.24|38=100|59=0|10=210|
> 8=FIX.4.2|9=224|35=8|34=171|49=EXCHANGE|52=20260416-01:50:22.221|56=MINIFIX|6=0|11=963604794|14=0|17=EXEC-1776303564567|31=0|32=0|37=20260416-072022-613403|38=100|39=0|40=2|44=353.11|54=1|55=MSFT|59=0|60=20260416-07:20:22.221|150=0|151=100|10=117|
< 8=FIX.4.2|9=123|35=F|49=MINIFIX|56=EXCHANGE|34=173|52=20260416-01:50:22|41=963604797|11=963604798|55=MSFT|54=1|60=20260416-01:50:22|38=100|10=010|
> 8=FIX.4.2|9=224|35=8|34=172|49=EXCHANGE|52=20260416-01:50:22.223|56=MINIFIX|6=0|11=963604797|14=0|17=EXEC-1776303564568|31=0|32=0|37=20260416-072022-613404|38=100|39=0|40=2|44=210.24|54=1|55=MSFT|59=0|60=20260416-07:20:22.223|150=0|151=100|10=123|
< 8=FIX.4.2|9=135|35=D|49=MINIFIX|56=EXCHANGE|34=174|52=20260416-01:50:22|11=963604800|21=1|55=MSFT|54=1|60=20260416-01:50:22|40=2|44=359.04|38=100|59=0|10=209|
> 8=FIX.4.2|9=222|35=8|34=173|49=EXCHANGE|52=20260416-01:50:22.224|56=MINIFIX|6=0|11=963604797|14=0|17=EXEC-1776303564569|31=0|32=0|37=20260416-072022-613404|38=100|39=4|40=2|44=210.24|54=1|55=MSFT|59=0|60=20260416-07:20:22.224|150=4|151=0|10=036|
< 8=FIX.4.2|9=123|35=F|49=MINIFIX|56=EXCHANGE|34=175|52=20260416-01:50:22|41=963604800|11=963604801|55=MSFT|54=1|60=20260416-01:50:22|38=100|10=238|
< 8=FIX.4.2|9=135|35=D|49=MINIFIX|56=EXCHANGE|34=176|52=20260416-01:50:22|11=963604803|21=1|55=MSFT|54=1|60=20260416-01:50:22|40=2|44=207.28|38=100|59=0|10=212|
> 8=FIX.4.2|9=133|35=9|34=174|49=EXCHANGE|52=20260416-01:50:22.226|56=MINIFIX|11=963604801|37=UNKNOWN|39=8|41=963604800|58=Order not found|102=1|434=1|10=203|
> 8=FIX.4.2|9=224|35=8|34=175|49=EXCHANGE|52=20260416-01:50:22.227|56=MINIFIX|6=0|11=963604800|14=0|17=EXEC-1776303564570|31=0|32=0|37=20260416-072022-613405|38=100|39=0|40=2|44=359.04|54=1|55=MSFT|59=0|60=20260416-07:20:22.227|150=0|151=100|10=125|
< 8=FIX.4.2|9=123|35=F|49=MINIFIX|56=EXCHANGE|34=177|52=20260416-01:50:22|41=963604803|11=963604804|55=MSFT|54=1|60=20260416-01:50:22|38=100|10=246|
> 8=FIX.4.2|9=133|35=9|34=176|49=EXCHANGE|52=20260416-01:50:22.228|56=MINIFIX|11=963604804|37=UNKNOWN|39=8|41=963604803|58=Order not found|102=1|434=1|10=213|
< 8=FIX.4.2|9=135|35=D|49=MINIFIX|56=EXCHANGE|34=178|52=20260416-01:50:22|11=963604806|21=1|55=MSFT|54=1|60=20260416-01:50:22|40=2|44=237.37|38=100|59=0|10=220|
> 8=FIX.4.2|9=224|35=8|34=177|49=EXCHANGE|52=20260416-01:50:22.228|56=MINIFIX|6=0|11=963604803|14=0|17=EXEC-1776303564571|31=0|32=0|37=20260416-072022-613406|38=100|39=0|40=2|44=207.28|54=1|55=MSFT|59=0|60=20260416-07:20:22.228|150=0|151=100|10=132|
< 8=FIX.4.2|9=123|35=F|49=MINIFIX|56=EXCHANGE|34=179|52=20260416-01:50:22|41=963604806|11=963604807|55=MSFT|54=1|60=20260416-01:50:22|38=100|10=254|
> 8=FIX.4.2|9=224|35=8|34=178|49=EXCHANGE|52=20260416-01:50:22.229|56=MINIFIX|6=0|11=963604806|14=0|17=EXEC-1776303564572|31=0|32=0|37=20260416-072022-613407|38=100|39=0|40=2|44=237.37|54=1|55=MSFT|59=0|60=20260416-07:20:22.229|150=0|151=100|10=143|
< 8=FIX.4.2|9=135|35=D|49=MINIFIX|56=EXCHANGE|34=180|52=20260416-01:50:22|11=963604809|21=1|55=MSFT|54=1|60=20260416-01:50:22|40=2|44=281.75|38=100|59=0|10=217|
> 8=FIX.4.2|9=133|35=9|34=179|49=EXCHANGE|52=20260416-01:50:22.229|56=MINIFIX|11=963604807|37=UNKNOWN|39=8|41=963604806|58=Order not found|102=1|434=1|10=223|
< 8=FIX.4.2|9=123|35=F|49=MINIFIX|56=EXCHANGE|34=181|52=20260416-01:50:22|41=963604809|11=963604810|55=MSFT|54=1|60=20260416-01:50:22|38=100|10=244|
> 8=FIX.4.2|9=133|35=9|34=180|49=EXCHANGE|52=20260416-01:50:22.231|56=MINIFIX|11=963604810|37=UNKNOWN|39=8|41=963604809|58=Order not found|102=1|434=1|10=205|
> 8=FIX.4.2|9=224|35=8|34=181|49=EXCHANGE|52=20260416-01:50:22.231|56=MINIFIX|6=0|11=963604809|14=0|17=EXEC-1776303564573|31=0|32=0|37=20260416-072022-613408|38=100|39=0|40=2|44=281.75|54=1|55=MSFT|59=0|60=20260416-07:20:22.231|150=0|151=100|10=129|
< 8=FIX.4.2|9=135|35=D|49=MINIFIX|56=EXCHANGE|34=182|52=20260416-01:50:22|11=963604812|21=1|55=MSFT|54=1|60=20260416-01:50:22|40=2|44=297.95|38=100|59=0|10=222|
< 8=FIX.4.2|9=123|35=F|49=MINIFIX|56=EXCHANGE|34=183|52=20260416-01:50:22|41=963604812|11=963604813|55=MSFT|54=1|60=20260416-01:50:22|38=100|10=243|
> 8=FIX.4.2|9=224|35=8|34=182|49=EXCHANGE|52=20260416-01:50:22.233|56=MINIFIX|6=0|11=963604812|14=0|17=EXEC-1776303564574|31=0|32=0|37=20260416-072022-613409|38=100|39=0|40=2|44=297.95|54=1|55=MSFT|59=0|60=20260416-07:20:22.233|150=0|151=100|10=139|
< 8=FIX.4.2|9=134|35=D|49=MINIFIX|56=EXCHANGE|34=184|52=20260416-01:50:22|11=963604815|21=1|55=MSFT|54=1|60=20260416-01:50:22|40=2|44=291.6|38=100|59=0|10=164|
> 8=FIX.4.2|9=222|35=8|34=183|49=EXCHANGE|52=20260416-01:50:22.234|56=MINIFIX|6=0|11=963604812|14=0|17=EXEC-1776303564575|31=0|32=0|37=20260416-072022-613409|38=100|39=4|40=2|44=297.95|54=1|55=MSFT|59=0|60=20260416-07:20:22.234|150=4|151=0|10=052|
< 8=FIX.4.2|9=123|35=F|49=MINIFIX|56=EXCHANGE|34=185|52=20260416-01:50:22|41=963604815|11=963604816|55=MSFT|54=1|60=20260416-01:50:22|38=100|10=251|
< 8=FIX.4.2|9=135|35=D|49=MINIFIX|56=EXCHANGE|34=186|52=20260416-01:50:22|11=963604818|21=1|55=MSFT|54=1|60=20260416-01:50:22|40=2|44=289.12|38=100|59=0|10=222|
> 8=FIX.4.2|9=133|35=9|34=184|49=EXCHANGE|52=20260416-01:50:22.236|56=MINIFIX|11=963604816|37=UNKNOWN|39=8|41=963604815|58=Order not found|102=1|434=1|10=217|
< 8=FIX.4.2|9=123|35=F|49=MINIFIX|56=EXCHANGE|34=187|52=20260416-01:50:22|41=963604818|11=963604819|55=MSFT|54=1|60=20260416-01:50:22|38=100|10=003|
> 8=FIX.4.2|9=223|35=8|34=185|49=EXCHANGE|52=20260416-01:50:22.237|56=MINIFIX|6=0|11=963604815|14=0|17=EXEC-1776303564576|31=0|32=0|37=20260416-072022-613410|38=100|39=0|40=2|44=291.6|54=1|55=MSFT|59=0|60=20260416-07:20:22.237|150=0|151=100|10=084|
< 8=FIX.4.2|9=135|35=D|49=MINIFIX|56=EXCHANGE|34=188|52=20260416-01:50:22|11=963604821|21=1|55=MSFT|54=1|60=20260416-01:50:22|40=2|44=297.51|38=100|59=0|10=220|
> 8=FIX.4.2|9=133|35=9|34=186|49=EXCHANGE|52=20260416-01:50:22.238|56=MINIFIX|11=963604819|37=UNKNOWN|39=8|41=963604818|58=Order not found|102=1|434=1|10=227|
> 8=FIX.4.2|9=224|35=8|34=187|49=EXCHANGE|52=20260416-01:50:22.239|56=MINIFIX|6=0|11=963604818|14=0|17=EXEC-1776303564577|31=0|32=0|37=20260416-072022-613411|38=100|39=0|40=2|44=289.12|54=1|55=MSFT|59=0|60=20260416-07:20:22.239|150=0|151=100|10=148|
< 8=FIX.4.2|9=123|35=F|49=MINIFIX|56=EXCHANGE|34=189|52=20260416-01:50:22|41=963604821|11=963604822|55=MSFT|54=1|60=20260416-01:50:22|38=100|10=249|
> 8=FIX.4.2|9=133|35=9|34=188|49=EXCHANGE|52=20260416-01:50:22.239|56=MINIFIX|11=963604822|37=UNKNOWN|39=8|41=963604821|58=Order not found|102=1|434=1|10=218|
< 8=FIX.4.2|9=135|35=D|49=MINIFIX|56=EXCHANGE|34=190|52=20260416-01:50:22|11=963604824|21=1|55=MSFT|54=1|60=20260416-01:50:22|40=2|44=329.26|38=100|59=0|10=214|
> 8=FIX.4.2|9=224|35=8|34=189|49=EXCHANGE|52=20260416-01:50:22.239|56=MINIFIX|6=0|11=963604821|14=0|17=EXEC-1776303564578|31=0|32=0|37=20260416-072022-613412|38=100|39=0|40=2|44=297.51|54=1|55=MSFT|59=0|60=20260416-07:20:22.239|150=0|151=100|10=148|
< 8=FIX.4.2|9=123|35=F|49=MINIFIX|56=EXCHANGE|34=191|52=20260416-01:50:22|41=963604824|11=963604825|55=MSFT|54=1|60=20260416-01:50:22|38=100|10=248|
< 8=FIX.4.2|9=134|35=D|49=MINIFIX|56=EXCHANGE|34=192|52=20260416-01:50:22|11=963604827|21=1|55=MSFT|54=1|60=20260416-01:50:22|40=2|44=358.8|38=100|59=0|10=172|
> 8=FIX.4.2|9=224|35=8|34=190|49=EXCHANGE|52=20260416-01:50:22.242|56=MINIFIX|6=0|11=963604824|14=0|17=EXEC-1776303564579|31=0|32=0|37=20260416-072022-613413|38=100|39=0|40=2|44=329.26|54=1|55=MSFT|59=0|60=20260416-07:20:22.242|150=0|151=100|10=131|
> 8=FIX.4.2|9=133|35=9|34=191|49=EXCHANGE|52=20260416-01:50:22.242|56=MINIFIX|11=963604825|37=UNKNOWN|39=8|41=963604824|58=Order not found|102=1|434=1|10=212|
< 8=FIX.4.2|9=123|35=F|49=MINIFIX|56=EXCHANGE|34=193|52=20260416-01:50:22|41=963604827|11=963604828|55=MSFT|54=1|60=20260416-01:50:22|38=100|10=000|
> 8=FIX.4.2|9=133|35=9|34=192|49=EXCHANGE|52=20260416-01:50:22.243|56=MINIFIX|11=963604828|37=UNKNOWN|39=8|41=963604827|58=Order not found|102=1|434=1|10=220|
> 8=FIX.4.2|9=223|35=8|34=193|49=EXCHANGE|52=20260416-01:50:22.244|56=MINIFIX|6=0|11=963604827|14=0|17=EXEC-1776303564580|31=0|32=0|37=20260416-072022-613414|38=100|39=0|40=2|44=358.8|54=1|55=MSFT|59=0|60=20260416-07:20:22.244|150=0|151=100|10=087|
< 8=FIX.4.2|9=135|35=D|49=MINIFIX|56=EXCHANGE|34=194|52=20260416-01:50:22|11=963604830|21=1|55=MSFT|54=1|60=20260416-01:50:22|40=2|44=341.88|38=100|59=0|10=217|
< 8=FIX.4.2|9=123|35=F|49=MINIFIX|56=EXCHANGE|34=195|52=20260416-01:50:22|41=963604830|11=963604831|55=MSFT|54=1|60=20260416-01:50:22|38=100|10=246|
> 8=FIX.4.2|9=224|35=8|34=194|49=EXCHANGE|52=20260416-01:50:22.245|56=MINIFIX|6=0|11=963604830|14=0|17=EXEC-1776303564581|31=0|32=0|37=20260416-072022-613415|38=100|39=0|40=2|44=341.88|54=1|55=MSFT|59=0|60=20260416-07:20:22.245|150=0|151=100|10=135|
< 8=FIX.4.2|9=135|35=D|49=MINIFIX|56=EXCHANGE|34=196|52=20260416-01:50:22|11=963604833|21=1|55=MSFT|54=1|60=20260416-01:50:22|40=2|44=384.18|38=100|59=0|10=222|
> 8=FIX.4.2|9=222|35=8|34=195|49=EXCHANGE|52=20260416-01:50:22.246|56=MINIFIX|6=0|11=963604830|14=0|17=EXEC-1776303564582|31=0|32=0|37=20260416-072022-613415|38=100|39=4|40=2|44=341.88|54=1|55=MSFT|59=0|60=20260416-07:20:22.246|150=4|151=0|10=048|
< 8=FIX.4.2|9=123|35=F|49=MINIFIX|56=EXCHANGE|34=197|52=20260416-01:50:22|41=963604833|11=963604834|55=MSFT|54=1|60=20260416-01:50:22|38=100|10=254|
< 8=FIX.4.2|9=135|35=D|49=MINIFIX|56=EXCHANGE|34=198|52=20260416-01:50:22|11=963604836|21=1|55=MSFT|54=1|60=20260416-01:50:22|40=2|44=350.94|38=100|59=0|10=224|
> 8=FIX.4.2|9=133|35=9|34=196|49=EXCHANGE|52=20260416-01:50:22.248|56=MINIFIX|11=963604834|37=UNKNOWN|39=8|41=963604833|58=Order not found|102=1|434=1|10=223|
> 8=FIX.4.2|9=224|35=8|34=197|49=EXCHANGE|52=20260416-01:50:22.248|56=MINIFIX|6=0|11=963604833|14=0|17=EXEC-1776303564583|31=0|32=0|37=20260416-072022-613416|38=100|39=0|40=2|44=384.18|54=1|55=MSFT|59=0|60=20260416-07:20:22.248|150=0|151=100|10=150|
< 8=FIX.4.2|9=123|35=F|49=MINIFIX|56=EXCHANGE|34=199|52=20260416-01:50:22|41=963604836|11=963604837|55=MSFT|54=1|60=20260416-01:50:22|38=100|10=006|
> 8=FIX.4.2|9=133|35=9|34=198|49=EXCHANGE|52=20260416-01:50:22.250|56=MINIFIX|11=963604837|37=UNKNOWN|39=8|41=963604836|58=Order not found|102=1|434=1|10=224|
< 8=FIX.4.2|9=135|35=D|49=MINIFIX|56=EXCHANGE|34=200|52=20260416-01:50:22|11=963604839|21=1|55=MSFT|54=1|60=20260416-01:50:22|40=2|44=361.51|38=100|59=0|10=206|
> 8=FIX.4.2|9=224|35=8|34=199|49=EXCHANGE|52=20260416-01:50:22.250|56=MINIFIX|6=0|11=963604836|14=0|17=EXEC-1776303564584|31=0|32=0|37=20260416-072022-613417|38=100|39=0|40=2|44=350.94|54=1|55=MSFT|59=0|60=20260416-07:20:22.250|150=0|151=100|10=140|
< 8=FIX.4.2|9=123|35=F|49=MINIFIX|56=EXCHANGE|34=201|52=20260416-01:50:22|41=963604839|11=963604840|55=MSFT|54=1|60=20260416-01:50:22|38=100|10=243|
> 8=FIX.4.2|9=224|35=8|34=200|49=EXCHANGE|52=20260416-01:50:22.252|56=MINIFIX|6=0|11=963604839|14=0|17=EXEC-1776303564585|31=0|32=0|37=20260416-072022-613418|38=100|39=0|40=2|44=361.51|54=1|55=MSFT|59=0|60=20260416-07:20:22.252|150=0|151=100|10=127|
> 8=FIX.4.2|9=133|35=9|34=201|49=EXCHANGE|52=20260416-01:50:22.252|56=MINIFIX|11=963604840|37=UNKNOWN|39=8|41=963604839|58=Order not found|102=1|434=1|10=208|
: T33 SUBMIT_CANCEL_END 20260416-01:50:22
: T33 PASSED - 100 orders submitted and canceled
: Batch Save to C:\Users\Aarav\OneDrive\Desktop\cmltest\fix-trading-simulator\external-scenarios\results\T33_result.txt
