: Adding FIX 4.0 protocol
: Adding FIX 4.1 protocol
: Adding FIX 4.2 protocol
: Adding FIX 4.3 protocol
: Adding FIX 4.4 protocol
: Bulding FIX 4.4 help
: Pipe (batch/log) interface active at \\.\pipe\minifix
: (C)2009-2013 Björn Ahlqvist, available free of charge from http://elato.se/minifix/
: Welcome to Mini-FIX 1.5.25!
: Pipe interface connected
: Pipe interface disconnected (code 109)
: Pipe interface connected
: Batch Session sequence numbers reset
: SenderCompId set to MINIFIX
: TargetCompId set to EXCHANGE
: Batch Connect 127.0.0.1:9876
: Pipe interface disconnected (code 109)
: Connect to 127.0.0.1, resolving..
: IP address 127.0.0.1 port 9876, connecting..
: Connected to 127.0.0.1:9876 at 20260416-01:50:32 UTC
< 8=FIX.4.2|9=66|35=A|49=MINIFIX|56=EXCHANGE|34=1|52=20260416-01:50:32|98=0|108=30|10=137|
> 8=FIX.4.2|9=70|35=A|34=1|49=EXCHANGE|52=20260416-01:50:32.217|56=MINIFIX|98=0|108=30|10=076|
: <done waiting, message matches>
: T34 START 20260416-01:50:32
< 8=FIX.4.2|9=133|35=D|49=MINIFIX|56=EXCHANGE|34=2|52=20260416-01:50:32|11=1924874258|21=1|55=DIS|54=1|60=20260416-01:50:32|40=2|44=110.75|38=170|59=0|10=075|
< 8=FIX.4.2|9=133|35=D|49=MINIFIX|56=EXCHANGE|34=3|52=20260416-01:50:32|11=1924874260|21=1|55=BAC|54=2|60=20260416-01:50:32|40=2|44=425.75|38=190|59=0|10=055|
< 8=FIX.4.2|9=130|35=D|49=MINIFIX|56=EXCHANGE|34=4|52=20260416-01:50:32|11=1924874262|21=1|55=MSFT|54=2|60=20260416-01:50:32|40=2|44=486|38=30|59=0|10=225|
> 8=FIX.4.2|9=222|35=8|34=2|49=EXCHANGE|52=20260416-01:50:32.241|56=MINIFIX|6=0|11=1924874258|14=0|17=EXEC-1776303564734|31=0|32=0|37=20260416-072032-613420|38=170|39=0|40=2|44=110.75|54=1|55=DIS|59=0|60=20260416-07:20:32.241|150=0|151=170|10=245|
< 8=FIX.4.2|9=132|35=D|49=MINIFIX|56=EXCHANGE|34=5|52=20260416-01:50:32|11=1924874264|21=1|55=BAC|54=1|60=20260416-01:50:32|40=2|44=149.5|38=190|59=0|10=007|
< 8=FIX.4.2|9=134|35=D|49=MINIFIX|56=EXCHANGE|34=6|52=20260416-01:50:32|11=1924874266|21=1|55=TSLA|54=1|60=20260416-01:50:32|40=2|44=188.75|38=130|59=0|10=174|
> 8=FIX.4.2|9=222|35=8|34=3|49=EXCHANGE|52=20260416-01:50:32.242|56=MINIFIX|6=0|11=1924874260|14=0|17=EXEC-1776303564735|31=0|32=0|37=20260416-072032-613421|38=190|39=0|40=2|44=425.75|54=2|55=BAC|59=0|60=20260416-07:20:32.242|150=0|151=190|10=231|
< 8=FIX.4.2|9=133|35=D|49=MINIFIX|56=EXCHANGE|34=7|52=20260416-01:50:32|11=1924874268|21=1|55=AAPL|54=2|60=20260416-01:50:32|40=2|44=296.25|38=20|59=0|10=100|
> 8=FIX.4.2|9=218|35=8|34=4|49=EXCHANGE|52=20260416-01:50:32.243|56=MINIFIX|6=0|11=1924874262|14=0|17=EXEC-1776303564736|31=0|32=0|37=20260416-072032-613422|38=30|39=0|40=2|44=486|54=2|55=MSFT|59=0|60=20260416-07:20:32.243|150=0|151=30|10=102|
< 8=FIX.4.2|9=133|35=D|49=MINIFIX|56=EXCHANGE|34=8|52=20260416-01:50:32|11=1924874270|21=1|55=AMZN|54=1|60=20260416-01:50:32|40=2|44=134.75|38=60|59=0|10=117|
< 8=FIX.4.2|9=131|35=D|49=MINIFIX|56=EXCHANGE|34=9|52=20260416-01:50:32|11=1924874272|21=1|55=META|54=2|60=20260416-01:50:32|40=2|44=497|38=110|59=0|10=006|
> 8=FIX.4.2|9=221|35=8|34=5|49=EXCHANGE|52=20260416-01:50:32.245|56=MINIFIX|6=0|11=1924874264|14=0|17=EXEC-1776303564737|31=0|32=0|37=20260416-072032-613423|38=190|39=0|40=2|44=149.5|54=1|55=BAC|59=0|60=20260416-07:20:32.245|150=0|151=190|10=193|
< 8=FIX.4.2|9=133|35=D|49=MINIFIX|56=EXCHANGE|34=10|52=20260416-01:50:32|11=1924874274|21=1|55=BAC|54=2|60=20260416-01:50:32|40=2|44=498.5|38=200|59=0|10=053|
> 8=FIX.4.2|9=223|35=8|34=6|49=EXCHANGE|52=20260416-01:50:32.246|56=MINIFIX|6=0|11=1924874266|14=0|17=EXEC-1776303564738|31=0|32=0|37=20260416-072032-613424|38=130|39=0|40=2|44=188.75|54=1|55=TSLA|59=0|60=20260416-07:20:32.246|150=0|151=130|10=102|
< 8=FIX.4.2|9=133|35=D|49=MINIFIX|56=EXCHANGE|34=11|52=20260416-01:50:32|11=1924874276|21=1|55=BAC|54=2|60=20260416-01:50:32|40=2|44=485.5|38=200|59=0|10=052|
> 8=FIX.4.2|9=221|35=8|34=7|49=EXCHANGE|52=20260416-01:50:32.248|56=MINIFIX|6=0|11=1924874268|14=0|17=EXEC-1776303564739|31=0|32=0|37=20260416-072032-613425|38=20|39=0|40=2|44=296.25|54=2|55=AAPL|59=0|60=20260416-07:20:32.248|150=0|151=20|10=239|
< 8=FIX.4.2|9=134|35=D|49=MINIFIX|56=EXCHANGE|34=12|52=20260416-01:50:32|11=1924874278|21=1|55=MSFT|54=2|60=20260416-01:50:32|40=2|44=376.75|38=40|59=0|10=180|
> 8=FIX.4.2|9=221|35=8|34=8|49=EXCHANGE|52=20260416-01:50:32.249|56=MINIFIX|6=0|11=1924874270|14=0|17=EXEC-1776303564740|31=0|32=0|37=20260416-072032-613426|38=60|39=0|40=2|44=134.75|54=1|55=AMZN|59=0|60=20260416-07:20:32.249|150=0|151=60|10=255|
< 8=FIX.4.2|9=133|35=D|49=MINIFIX|56=EXCHANGE|34=13|52=20260416-01:50:32|11=1924874280|21=1|55=BAC|54=2|60=20260416-01:50:32|40=2|44=491.5|38=200|59=0|10=046|
< 8=FIX.4.2|9=133|35=D|49=MINIFIX|56=EXCHANGE|34=14|52=20260416-01:50:32|11=1924874282|21=1|55=BAC|54=1|60=20260416-01:50:32|40=2|44=99.25|38=200|59=0|10=054|
> 8=FIX.4.2|9=220|35=8|34=9|49=EXCHANGE|52=20260416-01:50:32.250|56=MINIFIX|6=0|11=1924874272|14=0|17=EXEC-1776303564741|31=0|32=0|37=20260416-072032-613427|38=110|39=0|40=2|44=497|54=2|55=META|59=0|60=20260416-07:20:32.250|150=0|151=110|10=175|
< 8=FIX.4.2|9=135|35=D|49=MINIFIX|56=EXCHANGE|34=15|52=20260416-01:50:32|11=1924874284|21=1|55=META|54=2|60=20260416-01:50:32|40=2|44=409.25|38=100|59=0|10=199|
> 8=FIX.4.2|9=222|35=8|34=10|49=EXCHANGE|52=20260416-01:50:32.251|56=MINIFIX|6=0|11=1924874274|14=0|17=EXEC-1776303564742|31=0|32=0|37=20260416-072032-613428|38=200|39=0|40=2|44=498.5|54=2|55=BAC|59=0|60=20260416-07:20:32.251|150=0|151=200|10=226|
< 8=FIX.4.2|9=133|35=D|49=MINIFIX|56=EXCHANGE|34=16|52=20260416-01:50:32|11=1924874286|21=1|55=DIS|54=1|60=20260416-01:50:32|40=2|44=183.5|38=170|59=0|10=084|
< 8=FIX.4.2|9=130|35=D|49=MINIFIX|56=EXCHANGE|34=17|52=20260416-01:50:32|11=1924874288|21=1|55=MSFT|54=1|60=20260416-01:50:32|40=2|44=52|38=30|59=0|10=225|
> 8=FIX.4.2|9=222|35=8|34=11|49=EXCHANGE|52=20260416-01:50:32.253|56=MINIFIX|6=0|11=1924874276|14=0|17=EXEC-1776303564743|31=0|32=0|37=20260416-072032-613429|38=200|39=0|40=2|44=485.5|54=2|55=BAC|59=0|60=20260416-07:20:32.253|150=0|151=200|10=231|
< 8=FIX.4.2|9=134|35=D|49=MINIFIX|56=EXCHANGE|34=18|52=20260416-01:50:32|11=1924874290|21=1|55=GOOGL|54=1|60=20260416-01:50:32|40=2|44=100.5|38=90|59=0|10=176|
> 8=FIX.4.2|9=222|35=8|34=12|49=EXCHANGE|52=20260416-01:50:32.254|56=MINIFIX|6=0|11=1924874278|14=0|17=EXEC-1776303564744|31=0|32=0|37=20260416-072032-613430|38=40|39=0|40=2|44=376.75|54=2|55=MSFT|59=0|60=20260416-07:20:32.254|150=0|151=40|10=051|
< 8=FIX.4.2|9=131|35=D|49=MINIFIX|56=EXCHANGE|34=19|52=20260416-01:50:32|11=1924874292|21=1|55=BAC|54=2|60=20260416-01:50:32|40=2|44=338|38=190|59=0|10=218|
> 8=FIX.4.2|9=222|35=8|34=13|49=EXCHANGE|52=20260416-01:50:32.255|56=MINIFIX|6=0|11=1924874280|14=0|17=EXEC-1776303564745|31=0|32=0|37=20260416-072032-613431|38=200|39=0|40=2|44=491.5|54=2|55=BAC|59=0|60=20260416-07:20:32.255|150=0|151=200|10=224|
< 8=FIX.4.2|9=133|35=D|49=MINIFIX|56=EXCHANGE|34=20|52=20260416-01:50:32|11=1924874294|21=1|55=DIS|54=2|60=20260416-01:50:32|40=2|44=445.5|38=160|59=0|10=079|
< 8=FIX.4.2|9=134|35=D|49=MINIFIX|56=EXCHANGE|34=21|52=20260416-01:50:32|11=1924874296|21=1|55=BAC|54=2|60=20260416-01:50:32|40=2|44=276.75|38=200|59=0|10=109|
> 8=FIX.4.2|9=222|35=8|34=14|49=EXCHANGE|52=20260416-01:50:32.256|56=MINIFIX|6=0|11=1924874282|14=0|17=EXEC-1776303564746|31=0|32=0|37=20260416-072032-613432|38=200|39=0|40=2|44=99.25|54=1|55=BAC|59=0|60=20260416-07:20:32.256|150=0|151=200|10=236|
< 8=FIX.4.2|9=135|35=D|49=MINIFIX|56=EXCHANGE|34=22|52=20260416-01:50:32|11=1924874298|21=1|55=TSLA|54=2|60=20260416-01:50:32|40=2|44=409.25|38=140|59=0|10=219|
< 8=FIX.4.2|9=133|35=D|49=MINIFIX|56=EXCHANGE|34=23|52=20260416-01:50:32|11=1924874300|21=1|55=AAPL|54=1|60=20260416-01:50:32|40=2|44=212.5|38=10|59=0|10=069|
> 8=FIX.4.2|9=224|35=8|34=15|49=EXCHANGE|52=20260416-01:50:32.258|56=MINIFIX|6=0|11=1924874284|14=0|17=EXEC-1776303564747|31=0|32=0|37=20260416-072032-613433|38=100|39=0|40=2|44=409.25|54=2|55=META|59=0|60=20260416-07:20:32.258|150=0|151=100|10=130|
< 8=FIX.4.2|9=134|35=D|49=MINIFIX|56=EXCHANGE|34=24|52=20260416-01:50:32|11=1924874302|21=1|55=DIS|54=1|60=20260416-01:50:32|40=2|44=145.25|38=170|59=0|10=121|
< 8=FIX.4.2|9=134|35=D|49=MINIFIX|56=EXCHANGE|34=25|52=20260416-01:50:32|11=1924874304|21=1|55=BAC|54=2|60=20260416-01:50:32|40=2|44=356.75|38=190|59=0|10=110|
> 8=FIX.4.2|9=222|35=8|34=16|49=EXCHANGE|52=20260416-01:50:32.260|56=MINIFIX|6=0|11=1924874286|14=0|17=EXEC-1776303564748|31=0|32=0|37=20260416-072032-613434|38=170|39=0|40=2|44=183.5|54=1|55=DIS|59=0|60=20260416-07:20:32.260|150=0|151=170|10=010|
< 8=FIX.4.2|9=132|35=D|49=MINIFIX|56=EXCHANGE|34=26|52=20260416-01:50:32|11=1924874306|21=1|55=MA|54=1|60=20260416-01:50:32|40=2|44=229.5|38=140|59=0|10=249|
> 8=FIX.4.2|9=218|35=8|34=17|49=EXCHANGE|52=20260416-01:50:32.261|56=MINIFIX|6=0|11=1924874288|14=0|17=EXEC-1776303564749|31=0|32=0|37=20260416-072032-613435|38=30|39=0|40=2|44=52|54=1|55=MSFT|59=0|60=20260416-07:20:32.261|150=0|151=30|10=110|
< 8=FIX.4.2|9=133|35=D|49=MINIFIX|56=EXCHANGE|34=27|52=20260416-01:50:32|11=1924874308|21=1|55=MA|54=2|60=20260416-01:50:32|40=2|44=383.25|38=160|59=0|10=051|
< 8=FIX.4.2|9=133|35=D|49=MINIFIX|56=EXCHANGE|34=28|52=20260416-01:50:32|11=1924874310|21=1|55=MA|54=1|60=20260416-01:50:32|40=2|44=263.75|38=150|59=0|10=045|
> 8=FIX.4.2|9=222|35=8|34=18|49=EXCHANGE|52=20260416-01:50:32.262|56=MINIFIX|6=0|11=1924874290|14=0|17=EXEC-1776303564750|31=0|32=0|37=20260416-072032-613436|38=90|39=0|40=2|44=100.5|54=1|55=GOOGL|59=0|60=20260416-07:20:32.262|150=0|151=90|10=053|
< 8=FIX.4.2|9=132|35=D|49=MINIFIX|56=EXCHANGE|34=29|52=20260416-01:50:32|11=1924874312|21=1|55=GOOGL|54=1|60=20260416-01:50:32|40=2|44=240|38=80|59=0|10=076|
> 8=FIX.4.2|9=220|35=8|34=19|49=EXCHANGE|52=20260416-01:50:32.263|56=MINIFIX|6=0|11=1924874292|14=0|17=EXEC-1776303564751|31=0|32=0|37=20260416-072032-613437|38=190|39=0|40=2|44=338|54=2|55=BAC|59=0|60=20260416-07:20:32.263|150=0|151=190|10=149|
< 8=FIX.4.2|9=135|35=D|49=MINIFIX|56=EXCHANGE|34=30|52=20260416-01:50:32|11=1924874314|21=1|55=TSLA|54=1|60=20260416-01:50:32|40=2|44=128.25|38=140|59=0|10=204|
< 8=FIX.4.2|9=134|35=D|49=MINIFIX|56=EXCHANGE|34=31|52=20260416-01:50:32|11=1924874316|21=1|55=MSFT|54=1|60=20260416-01:50:32|40=2|44=185.75|38=40|59=0|10=171|
> 8=FIX.4.2|9=222|35=8|34=20|49=EXCHANGE|52=20260416-01:50:32.264|56=MINIFIX|6=0|11=1924874294|14=0|17=EXEC-1776303564752|31=0|32=0|37=20260416-072032-613438|38=160|39=0|40=2|44=445.5|54=2|55=DIS|59=0|60=20260416-07:20:32.264|150=0|151=160|10=011|
< 8=FIX.4.2|9=133|35=D|49=MINIFIX|56=EXCHANGE|34=32|52=20260416-01:50:32|11=1924874318|21=1|55=MA|54=2|60=20260416-01:50:32|40=2|44=408.75|38=150|59=0|10=050|
> 8=FIX.4.2|9=223|35=8|34=21|49=EXCHANGE|52=20260416-01:50:32.266|56=MINIFIX|6=0|11=1924874296|14=0|17=EXEC-1776303564753|31=0|32=0|37=20260416-072032-613439|38=200|39=0|40=2|44=276.75|54=2|55=BAC|59=0|60=20260416-07:20:32.266|150=0|151=200|10=042|
< 8=FIX.4.2|9=133|35=D|49=MINIFIX|56=EXCHANGE|34=33|52=20260416-01:50:32|11=1924874320|21=1|55=AAPL|54=1|60=20260416-01:50:32|40=2|44=192.5|38=10|59=0|10=079|
> 8=FIX.4.2|9=224|35=8|34=22|49=EXCHANGE|52=20260416-01:50:32.267|56=MINIFIX|6=0|11=1924874298|14=0|17=EXEC-1776303564754|31=0|32=0|37=20260416-072032-613440|38=140|39=0|40=2|44=409.25|54=2|55=TSLA|59=0|60=20260416-07:20:32.267|150=0|151=140|10=150|
< 8=FIX.4.2|9=134|35=D|49=MINIFIX|56=EXCHANGE|34=34|52=20260416-01:50:32|11=1924874322|21=1|55=AMZN|54=2|60=20260416-01:50:32|40=2|44=442.75|38=60|59=0|10=166|
< 8=FIX.4.2|9=131|35=D|49=MINIFIX|56=EXCHANGE|34=35|52=20260416-01:50:32|11=1924874324|21=1|55=AAPL|54=1|60=20260416-01:50:32|40=2|44=117|38=10|59=0|10=237|
> 8=FIX.4.2|9=221|35=8|34=23|49=EXCHANGE|52=20260416-01:50:32.268|56=MINIFIX|6=0|11=1924874300|14=0|17=EXEC-1776303564755|31=0|32=0|37=20260416-072032-613441|38=10|39=0|40=2|44=212.5|54=1|55=AAPL|59=0|60=20260416-07:20:32.268|150=0|151=10|10=207|
< 8=FIX.4.2|9=133|35=D|49=MINIFIX|56=EXCHANGE|34=36|52=20260416-01:50:32|11=1924874326|21=1|55=AAPL|54=2|60=20260416-01:50:32|40=2|44=497.5|38=20|59=0|10=098|
> 8=FIX.4.2|9=223|35=8|34=24|49=EXCHANGE|52=20260416-01:50:32.269|56=MINIFIX|6=0|11=1924874302|14=0|17=EXEC-1776303564756|31=0|32=0|37=20260416-072032-613442|38=170|39=0|40=2|44=145.25|54=1|55=DIS|59=0|60=20260416-07:20:32.269|150=0|151=170|10=063|
< 8=FIX.4.2|9=131|35=D|49=MINIFIX|56=EXCHANGE|34=37|52=20260416-01:50:32|11=1924874328|21=1|55=DIS|54=2|60=20260416-01:50:32|40=2|44=420|38=170|59=0|10=234|
> 8=FIX.4.2|9=223|35=8|34=25|49=EXCHANGE|52=20260416-01:50:32.270|56=MINIFIX|6=0|11=1924874304|14=0|17=EXEC-1776303564757|31=0|32=0|37=20260416-072032-613443|38=190|39=0|40=2|44=356.75|54=2|55=BAC|59=0|60=20260416-07:20:32.270|150=0|151=190|10=040|
< 8=FIX.4.2|9=133|35=D|49=MINIFIX|56=EXCHANGE|34=38|52=20260416-01:50:32|11=1924874330|21=1|55=MA|54=1|60=20260416-01:50:32|40=2|44=106.25|38=140|59=0|10=038|
< 8=FIX.4.2|9=134|35=D|49=MINIFIX|56=EXCHANGE|34=39|52=20260416-01:50:32|11=1924874332|21=1|55=AMZN|54=2|60=20260416-01:50:32|40=2|44=393.75|38=70|59=0|10=178|
> 8=FIX.4.2|9=221|35=8|34=26|49=EXCHANGE|52=20260416-01:50:32.271|56=MINIFIX|6=0|11=1924874306|14=0|17=EXEC-1776303564758|31=0|32=0|37=20260416-072032-613444|38=140|39=0|40=2|44=229.5|54=1|55=MA|59=0|60=20260416-07:20:32.271|150=0|151=140|10=178|
< 8=FIX.4.2|9=134|35=D|49=MINIFIX|56=EXCHANGE|34=40|52=20260416-01:50:32|11=1924874334|21=1|55=BAC|54=1|60=20260416-01:50:32|40=2|44=270.75|38=200|59=0|10=096|
> 8=FIX.4.2|9=222|35=8|34=27|49=EXCHANGE|52=20260416-01:50:32.273|56=MINIFIX|6=0|11=1924874308|14=0|17=EXEC-1776303564759|31=0|32=0|37=20260416-072032-613445|38=160|39=0|40=2|44=383.25|54=2|55=MA|59=0|60=20260416-07:20:32.273|150=0|151=160|10=244|
< 8=FIX.4.2|9=134|35=D|49=MINIFIX|56=EXCHANGE|34=41|52=20260416-01:50:32|11=1924874336|21=1|55=AAPL|54=2|60=20260416-01:50:32|40=2|44=348.75|38=10|59=0|10=145|
< 8=FIX.4.2|9=134|35=D|49=MINIFIX|56=EXCHANGE|34=42|52=20260416-01:50:32|11=1924874338|21=1|55=GOOGL|54=1|60=20260416-01:50:32|40=2|44=106.5|38=90|59=0|10=182|
> 8=FIX.4.2|9=222|35=8|34=28|49=EXCHANGE|52=20260416-01:50:32.274|56=MINIFIX|6=0|11=1924874310|14=0|17=EXEC-1776303564760|31=0|32=0|37=20260416-072032-613446|38=150|39=0|40=2|44=263.75|54=1|55=MA|59=0|60=20260416-07:20:32.274|150=0|151=150|10=232|
< 8=FIX.4.2|9=134|35=D|49=MINIFIX|56=EXCHANGE|34=43|52=20260416-01:50:32|11=1924874340|21=1|55=GOOGL|54=1|60=20260416-01:50:32|40=2|44=144.5|38=80|59=0|10=177|
< 8=FIX.4.2|9=129|35=D|49=MINIFIX|56=EXCHANGE|34=44|52=20260416-01:50:32|11=1924874342|21=1|55=MA|54=1|60=20260416-01:50:32|40=2|44=73|38=160|59=0|10=107|
> 8=FIX.4.2|9=220|35=8|34=29|49=EXCHANGE|52=20260416-01:50:32.275|56=MINIFIX|6=0|11=1924874312|14=0|17=EXEC-1776303564761|31=0|32=0|37=20260416-072032-613447|38=80|39=0|40=2|44=240|54=1|55=GOOGL|59=0|60=20260416-07:20:32.275|150=0|151=80|10=220|
< 8=FIX.4.2|9=133|35=D|49=MINIFIX|56=EXCHANGE|34=45|52=20260416-01:50:32|11=1924874344|21=1|55=DIS|54=1|60=20260416-01:50:32|40=2|44=66.25|38=160|59=0|10=082|
< 8=FIX.4.2|9=131|35=D|49=MINIFIX|56=EXCHANGE|34=46|52=20260416-01:50:32|11=1924874346|21=1|55=MSFT|54=1|60=20260416-01:50:32|40=2|44=234|38=40|59=0|10=018|
> 8=FIX.4.2|9=224|35=8|34=30|49=EXCHANGE|52=20260416-01:50:32.276|56=MINIFIX|6=0|11=1924874314|14=0|17=EXEC-1776303564762|31=0|32=0|37=20260416-072032-613448|38=140|39=0|40=2|44=128.25|54=1|55=TSLA|59=0|60=20260416-07:20:32.276|150=0|151=140|10=142|
< 8=FIX.4.2|9=132|35=D|49=MINIFIX|56=EXCHANGE|34=47|52=20260416-01:50:32|11=1924874348|21=1|55=META|54=1|60=20260416-01:50:32|40=2|44=256|38=100|59=0|10=052|
> 8=FIX.4.2|9=222|35=8|34=31|49=EXCHANGE|52=20260416-01:50:32.278|56=MINIFIX|6=0|11=1924874316|14=0|17=EXEC-1776303564763|31=0|32=0|37=20260416-072032-613449|38=40|39=0|40=2|44=185.75|54=1|55=MSFT|59=0|60=20260416-07:20:32.278|150=0|151=40|10=065|
< 8=FIX.4.2|9=133|35=D|49=MINIFIX|56=EXCHANGE|34=48|52=20260416-01:50:32|11=1924874350|21=1|55=META|54=1|60=20260416-01:50:32|40=2|44=269.5|38=90|59=0|10=110|
> 8=FIX.4.2|9=222|35=8|34=32|49=EXCHANGE|52=20260416-01:50:32.278|56=MINIFIX|6=0|11=1924874318|14=0|17=EXEC-1776303564764|31=0|32=0|37=20260416-072032-613450|38=150|39=0|40=2|44=408.75|54=2|55=MA|59=0|60=20260416-07:20:32.278|150=0|151=150|10=244|
< 8=FIX.4.2|9=135|35=D|49=MINIFIX|56=EXCHANGE|34=49|52=20260416-01:50:32|11=1924874352|21=1|55=TSLA|54=2|60=20260416-01:50:32|40=2|44=407.25|38=130|59=0|10=216|
< 8=FIX.4.2|9=132|35=D|49=MINIFIX|56=EXCHANGE|34=50|52=20260416-01:50:32|11=1924874354|21=1|55=MA|54=2|60=20260416-01:50:32|40=2|44=464.5|38=150|59=0|10=252|
> 8=FIX.4.2|9=221|35=8|34=33|49=EXCHANGE|52=20260416-01:50:32.280|56=MINIFIX|6=0|11=1924874320|14=0|17=EXEC-1776303564765|31=0|32=0|37=20260416-072032-613451|38=10|39=0|40=2|44=192.5|54=1|55=AAPL|59=0|60=20260416-07:20:32.280|150=0|151=10|10=207|
< 8=FIX.4.2|9=132|35=D|49=MINIFIX|56=EXCHANGE|34=51|52=20260416-01:50:32|11=1924874356|21=1|55=MA|54=2|60=20260416-01:50:32|40=2|44=413.5|38=160|59=0|10=250|
> 8=FIX.4.2|9=222|35=8|34=34|49=EXCHANGE|52=20260416-01:50:32.281|56=MINIFIX|6=0|11=1924874322|14=0|17=EXEC-1776303564766|31=0|32=0|37=20260416-072032-613452|38=60|39=0|40=2|44=442.75|54=2|55=AMZN|59=0|60=20260416-07:20:32.281|150=0|151=60|10=047|
< 8=FIX.4.2|9=134|35=D|49=MINIFIX|56=EXCHANGE|34=52|52=20260416-01:50:32|11=1924874358|21=1|55=AMZN|54=2|60=20260416-01:50:32|40=2|44=367.75|38=60|59=0|10=181|
< 8=FIX.4.2|9=132|35=D|49=MINIFIX|56=EXCHANGE|34=53|52=20260416-01:50:32|11=1924874360|21=1|55=MA|54=1|60=20260416-01:50:32|40=2|44=51.25|38=140|59=0|10=244|
> 8=FIX.4.2|9=219|35=8|34=35|49=EXCHANGE|52=20260416-01:50:32.282|56=MINIFIX|6=0|11=1924874324|14=0|17=EXEC-1776303564767|31=0|32=0|37=20260416-072032-613453|38=10|39=0|40=2|44=117|54=1|55=AAPL|59=0|60=20260416-07:20:32.282|150=0|151=10|10=126|
< 8=FIX.4.2|9=135|35=D|49=MINIFIX|56=EXCHANGE|34=54|52=20260416-01:50:32|11=1924874362|21=1|55=TSLA|54=2|60=20260416-01:50:32|40=2|44=369.75|38=140|59=0|10=226|
> 8=FIX.4.2|9=221|35=8|34=36|49=EXCHANGE|52=20260416-01:50:32.282|56=MINIFIX|6=0|11=1924874326|14=0|17=EXEC-1776303564768|31=0|32=0|37=20260416-072032-613454|38=20|39=0|40=2|44=497.5|54=2|55=AAPL|59=0|60=20260416-07:20:32.282|150=0|151=20|10=237|
< 8=FIX.4.2|9=134|35=D|49=MINIFIX|56=EXCHANGE|34=55|52=20260416-01:50:32|11=1924874364|21=1|55=MSFT|54=2|60=20260416-01:50:32|40=2|44=339.75|38=40|59=0|10=182|
< 8=FIX.4.2|9=134|35=D|49=MINIFIX|56=EXCHANGE|34=56|52=20260416-01:50:32|11=1924874366|21=1|55=MSFT|54=1|60=20260416-01:50:32|40=2|44=255.25|38=30|59=0|10=175|
> 8=FIX.4.2|9=220|35=8|34=37|49=EXCHANGE|52=20260416-01:50:32.284|56=MINIFIX|6=0|11=1924874328|14=0|17=EXEC-1776303564769|31=0|32=0|37=20260416-072032-613455|38=170|39=0|40=2|44=420|54=2|55=DIS|59=0|60=20260416-07:20:32.284|150=0|151=170|10=178|
< 8=FIX.4.2|9=135|35=D|49=MINIFIX|56=EXCHANGE|34=57|52=20260416-01:50:32|11=1924874368|21=1|55=META|54=2|60=20260416-01:50:32|40=2|44=398.25|38=100|59=0|10=215|
< 8=FIX.4.2|9=134|35=D|49=MINIFIX|56=EXCHANGE|34=58|52=20260416-01:50:32|11=1924874370|21=1|55=BAC|54=2|60=20260416-01:50:32|40=2|44=308.25|38=200|59=0|10=103|
> 8=FIX.4.2|9=222|35=8|34=38|49=EXCHANGE|52=20260416-01:50:32.286|56=MINIFIX|6=0|11=1924874330|14=0|17=EXEC-1776303564770|31=0|32=0|37=20260416-072032-613456|38=140|39=0|40=2|44=106.25|54=1|55=MA|59=0|60=20260416-07:20:32.286|150=0|151=140|10=232|
< 8=FIX.4.2|9=135|35=D|49=MINIFIX|56=EXCHANGE|34=59|52=20260416-01:50:32|11=1924874372|21=1|55=GOOGL|54=2|60=20260416-01:50:32|40=2|44=444.75|38=70|59=0|10=248|
> 8=FIX.4.2|9=222|35=8|34=39|49=EXCHANGE|52=20260416-01:50:32.286|56=MINIFIX|6=0|11=1924874332|14=0|17=EXEC-1776303564771|31=0|32=0|37=20260416-072032-613457|38=70|39=0|40=2|44=393.75|54=2|55=AMZN|59=0|60=20260416-07:20:32.286|150=0|151=70|10=071|
< 8=FIX.4.2|9=135|35=D|49=MINIFIX|56=EXCHANGE|34=60|52=20260416-01:50:32|11=1924874374|21=1|55=TSLA|54=2|60=20260416-01:50:32|40=2|44=413.75|38=120|59=0|10=214|
< 8=FIX.4.2|9=130|35=D|49=MINIFIX|56=EXCHANGE|34=61|52=20260416-01:50:32|11=1924874376|21=1|55=AMZN|54=1|60=20260416-01:50:32|40=2|44=58|38=50|59=0|10=226|
> 8=FIX.4.2|9=223|35=8|34=40|49=EXCHANGE|52=20260416-01:50:32.287|56=MINIFIX|6=0|11=1924874334|14=0|17=EXEC-1776303564772|31=0|32=0|37=20260416-072032-613458|38=200|39=0|40=2|44=270.75|54=1|55=BAC|59=0|60=20260416-07:20:32.287|150=0|151=200|10=037|
< 8=FIX.4.2|9=133|35=D|49=MINIFIX|56=EXCHANGE|34=62|52=20260416-01:50:32|11=1924874378|21=1|55=MA|54=2|60=20260416-01:50:32|40=2|44=419.75|38=160|59=0|10=062|
> 8=FIX.4.2|9=222|35=8|34=41|49=EXCHANGE|52=20260416-01:50:32.288|56=MINIFIX|6=0|11=1924874336|14=0|17=EXEC-1776303564773|31=0|32=0|37=20260416-072032-613459|38=10|39=0|40=2|44=348.75|54=2|55=AAPL|59=0|60=20260416-07:20:32.288|150=0|151=10|10=040|
< 8=FIX.4.2|9=133|35=D|49=MINIFIX|56=EXCHANGE|34=63|52=20260416-01:50:32|11=1924874380|21=1|55=AMZN|54=2|60=20260416-01:50:32|40=2|44=419.5|38=60|59=0|10=120|
> 8=FIX.4.2|9=222|35=8|34=42|49=EXCHANGE|52=20260416-01:50:32.289|56=MINIFIX|6=0|11=1924874338|14=0|17=EXEC-1776303564774|31=0|32=0|37=20260416-072032-613460|38=90|39=0|40=2|44=106.5|54=1|55=GOOGL|59=0|60=20260416-07:20:32.289|150=0|151=90|10=080|
< 8=FIX.4.2|9=135|35=D|49=MINIFIX|56=EXCHANGE|34=64|52=20260416-01:50:32|11=1924874382|21=1|55=META|54=2|60=20260416-01:50:32|40=2|44=473.25|38=110|59=0|10=204|
> 8=FIX.4.2|9=222|35=8|34=43|49=EXCHANGE|52=20260416-01:50:32.290|56=MINIFIX|6=0|11=1924874340|14=0|17=EXEC-1776303564775|31=0|32=0|37=20260416-072032-613461|38=80|39=0|40=2|44=144.5|54=1|55=GOOGL|59=0|60=20260416-07:20:32.290|150=0|151=80|10=060|
< 8=FIX.4.2|9=133|35=D|49=MINIFIX|56=EXCHANGE|34=65|52=20260416-01:50:32|11=1924874384|21=1|55=MA|54=1|60=20260416-01:50:32|40=2|44=235.75|38=140|59=0|10=055|
> 8=FIX.4.2|9=218|35=8|34=44|49=EXCHANGE|52=20260416-01:50:32.291|56=MINIFIX|6=0|11=1924874342|14=0|17=EXEC-1776303564776|31=0|32=0|37=20260416-072032-613462|38=160|39=0|40=2|44=73|54=1|55=MA|59=0|60=20260416-07:20:32.291|150=0|151=160|10=042|
< 8=FIX.4.2|9=133|35=D|49=MINIFIX|56=EXCHANGE|34=66|52=20260416-01:50:32|11=1924874386|21=1|55=BAC|54=1|60=20260416-01:50:32|40=2|44=240.5|38=180|59=0|10=059|
< 8=FIX.4.2|9=133|35=D|49=MINIFIX|56=EXCHANGE|34=67|52=20260416-01:50:32|11=1924874388|21=1|55=BAC|54=2|60=20260416-01:50:32|40=2|44=311.5|38=200|59=0|10=055|
> 8=FIX.4.2|9=222|35=8|34=45|49=EXCHANGE|52=20260416-01:50:32.292|56=MINIFIX|6=0|11=1924874344|14=0|17=EXEC-1776303564777|31=0|32=0|37=20260416-072032-613463|38=160|39=0|40=2|44=66.25|54=1|55=DIS|59=0|60=20260416-07:20:32.292|150=0|151=160|10=021|
< 8=FIX.4.2|9=132|35=D|49=MINIFIX|56=EXCHANGE|34=68|52=20260416-01:50:32|11=1924874390|21=1|55=META|54=1|60=20260416-01:50:32|40=2|44=121|38=110|59=0|10=044|
> 8=FIX.4.2|9=219|35=8|34=46|49=EXCHANGE|52=20260416-01:50:32.293|56=MINIFIX|6=0|11=1924874346|14=0|17=EXEC-1776303564778|31=0|32=0|37=20260416-072032-613464|38=40|39=0|40=2|44=234|54=1|55=MSFT|59=0|60=20260416-07:20:32.293|150=0|151=40|10=174|
< 8=FIX.4.2|9=134|35=D|49=MINIFIX|56=EXCHANGE|34=69|52=20260416-01:50:32|11=1924874392|21=1|55=MSFT|54=2|60=20260416-01:50:32|40=2|44=392.75|38=30|59=0|10=186|
< 8=FIX.4.2|9=133|35=D|49=MINIFIX|56=EXCHANGE|34=70|52=20260416-01:50:32|11=1924874394|21=1|55=MSFT|54=1|60=20260416-01:50:32|40=2|44=153.5|38=30|59=0|10=118|
> 8=FIX.4.2|9=221|35=8|34=47|49=EXCHANGE|52=20260416-01:50:32.294|56=MINIFIX|6=0|11=1924874348|14=0|17=EXEC-1776303564779|31=0|32=0|37=20260416-072032-613465|38=100|39=0|40=2|44=256|54=1|55=META|59=0|60=20260416-07:20:32.294|150=0|151=100|10=249|
< 8=FIX.4.2|9=133|35=D|49=MINIFIX|56=EXCHANGE|34=71|52=20260416-01:50:32|11=1924874396|21=1|55=AMZN|54=2|60=20260416-01:50:32|40=2|44=414.5|38=60|59=0|10=121|
< 8=FIX.4.2|9=131|35=D|49=MINIFIX|56=EXCHANGE|34=72|52=20260416-01:50:32|11=1924874398|21=1|55=DIS|54=2|60=20260416-01:50:32|40=2|44=495|38=170|59=0|10=252|
> 8=FIX.4.2|9=221|35=8|34=48|49=EXCHANGE|52=20260416-01:50:32.297|56=MINIFIX|6=0|11=1924874350|14=0|17=EXEC-1776303564780|31=0|32=0|37=20260416-072032-613466|38=90|39=0|40=2|44=269.5|54=1|55=META|59=0|60=20260416-07:20:32.297|150=0|151=90|10=009|
< 8=FIX.4.2|9=133|35=D|49=MINIFIX|56=EXCHANGE|34=73|52=20260416-01:50:32|11=1924874400|21=1|55=AMZN|54=1|60=20260416-01:50:32|40=2|44=199.5|38=60|59=0|10=118|
> 8=FIX.4.2|9=224|35=8|34=49|49=EXCHANGE|52=20260416-01:50:32.298|56=MINIFIX|6=0|11=1924874352|14=0|17=EXEC-1776303564781|31=0|32=0|37=20260416-072032-613467|38=130|39=0|40=2|44=407.25|54=2|55=TSLA|59=0|60=20260416-07:20:32.298|150=0|151=130|10=163|
< 8=FIX.4.2|9=134|35=D|49=MINIFIX|56=EXCHANGE|34=74|52=20260416-01:50:32|11=1924874402|21=1|55=DIS|54=1|60=20260416-01:50:32|40=2|44=184.75|38=170|59=0|10=135|
> 8=FIX.4.2|9=221|35=8|34=50|49=EXCHANGE|52=20260416-01:50:32.299|56=MINIFIX|6=0|11=1924874354|14=0|17=EXEC-1776303564782|31=0|32=0|37=20260416-072032-613468|38=150|39=0|40=2|44=464.5|54=2|55=MA|59=0|60=20260416-07:20:32.299|150=0|151=150|10=205|
< 8=FIX.4.2|9=130|35=D|49=MINIFIX|56=EXCHANGE|34=75|52=20260416-01:50:32|11=1924874404|21=1|55=AMZN|54=1|60=20260416-01:50:32|40=2|44=56|38=50|59=0|10=221|
> 8=FIX.4.2|9=221|35=8|34=51|49=EXCHANGE|52=20260416-01:50:32.300|56=MINIFIX|6=0|11=1924874356|14=0|17=EXEC-1776303564783|31=0|32=0|37=20260416-072032-613469|38=160|39=0|40=2|44=413.5|54=2|55=MA|59=0|60=20260416-07:20:32.300|150=0|151=160|10=172|
< 8=FIX.4.2|9=134|35=D|49=MINIFIX|56=EXCHANGE|34=76|52=20260416-01:50:32|11=1924874406|21=1|55=BAC|54=1|60=20260416-01:50:32|40=2|44=147.75|38=190|59=0|10=116|
> 8=FIX.4.2|9=222|35=8|34=52|49=EXCHANGE|52=20260416-01:50:32.300|56=MINIFIX|6=0|11=1924874358|14=0|17=EXEC-1776303564784|31=0|32=0|37=20260416-072032-613470|38=60|39=0|40=2|44=367.75|54=2|55=AMZN|59=0|60=20260416-07:20:32.300|150=0|151=60|10=046|
< 8=FIX.4.2|9=134|35=D|49=MINIFIX|56=EXCHANGE|34=77|52=20260416-01:50:32|11=1924874408|21=1|55=GOOGL|54=2|60=20260416-01:50:32|40=2|44=458.5|38=70|59=0|10=197|
> 8=FIX.4.2|9=221|35=8|34=53|49=EXCHANGE|52=20260416-01:50:32.301|56=MINIFIX|6=0|11=1924874360|14=0|17=EXEC-1776303564785|31=0|32=0|37=20260416-072032-613471|38=140|39=0|40=2|44=51.25|54=1|55=MA|59=0|60=20260416-07:20:32.301|150=0|151=140|10=161|
< 8=FIX.4.2|9=131|35=D|49=MINIFIX|56=EXCHANGE|34=78|52=20260416-01:50:32|11=1924874410|21=1|55=MSFT|54=2|60=20260416-01:50:32|40=2|44=432|38=40|59=0|10=016|
< 8=FIX.4.2|9=134|35=D|49=MINIFIX|56=EXCHANGE|34=79|52=20260416-01:50:32|11=1924874412|21=1|55=AMZN|54=2|60=20260416-01:50:32|40=2|44=479.75|38=60|59=0|10=185|
> 8=FIX.4.2|9=224|35=8|34=54|49=EXCHANGE|52=20260416-01:50:32.302|56=MINIFIX|6=0|11=1924874362|14=0|17=EXEC-1776303564786|31=0|32=0|37=20260416-072032-613472|38=140|39=0|40=2|44=369.75|54=2|55=TSLA|59=0|60=20260416-07:20:32.302|150=0|151=140|10=147|
< 8=FIX.4.2|9=134|35=D|49=MINIFIX|56=EXCHANGE|34=80|52=20260416-01:50:32|11=1924874414|21=1|55=TSLA|54=2|60=20260416-01:50:32|40=2|44=400.5|38=130|59=0|10=152|
< 8=FIX.4.2|9=134|35=D|49=MINIFIX|56=EXCHANGE|34=81|52=20260416-01:50:32|11=1924874416|21=1|55=META|54=2|60=20260416-01:50:32|40=2|44=494.5|38=100|59=0|10=152|
> 8=FIX.4.2|9=222|35=8|34=55|49=EXCHANGE|52=20260416-01:50:32.303|56=MINIFIX|6=0|11=1924874364|14=0|17=EXEC-1776303564787|31=0|32=0|37=20260416-072032-613473|38=40|39=0|40=2|44=339.75|54=2|55=MSFT|59=0|60=20260416-07:20:32.303|150=0|151=40|10=057|
< 8=FIX.4.2|9=134|35=D|49=MINIFIX|56=EXCHANGE|34=82|52=20260416-01:50:32|11=1924874418|21=1|55=GOOGL|54=1|60=20260416-01:50:32|40=2|44=80.25|38=80|59=0|10=187|
> 8=FIX.4.2|9=222|35=8|34=56|49=EXCHANGE|52=20260416-01:50:32.304|56=MINIFIX|6=0|11=1924874366|14=0|17=EXEC-1776303564788|31=0|32=0|37=20260416-072032-613474|38=30|39=0|40=2|44=255.25|54=1|55=MSFT|59=0|60=20260416-07:20:32.304|150=0|151=30|10=053|
< 8=FIX.4.2|9=134|35=D|49=MINIFIX|56=EXCHANGE|34=83|52=20260416-01:50:32|11=1924874420|21=1|55=DIS|54=2|60=20260416-01:50:32|40=2|44=407.25|38=170|59=0|10=129|
< 8=FIX.4.2|9=134|35=D|49=MINIFIX|56=EXCHANGE|34=84|52=20260416-01:50:32|11=1924874422|21=1|55=TSLA|54=2|60=20260416-01:50:32|40=2|44=317.5|38=120|59=0|10=161|
> 8=FIX.4.2|9=224|35=8|34=57|49=EXCHANGE|52=20260416-01:50:32.306|56=MINIFIX|6=0|11=1924874368|14=0|17=EXEC-1776303564789|31=0|32=0|37=20260416-072032-613475|38=100|39=0|40=2|44=398.25|54=2|55=META|59=0|60=20260416-07:20:32.306|150=0|151=100|10=146|
< 8=FIX.4.2|9=135|35=D|49=MINIFIX|56=EXCHANGE|34=85|52=20260416-01:50:32|11=1924874424|21=1|55=META|54=2|60=20260416-01:50:32|40=2|44=379.75|38=110|59=0|10=214|
> 8=FIX.4.2|9=223|35=8|34=58|49=EXCHANGE|52=20260416-01:50:32.306|56=MINIFIX|6=0|11=1924874370|14=0|17=EXEC-1776303564790|31=0|32=0|37=20260416-072032-613476|38=200|39=0|40=2|44=308.25|54=2|55=BAC|59=0|60=20260416-07:20:32.306|150=0|151=200|10=028|
< 8=FIX.4.2|9=131|35=D|49=MINIFIX|56=EXCHANGE|34=86|52=20260416-01:50:32|11=1924874426|21=1|55=BAC|54=2|60=20260416-01:50:32|40=2|44=363|38=190|59=0|10=219|
> 8=FIX.4.2|9=223|35=8|34=59|49=EXCHANGE|52=20260416-01:50:32.308|56=MINIFIX|6=0|11=1924874372|14=0|17=EXEC-1776303564791|31=0|32=0|37=20260416-072032-613477|38=70|39=0|40=2|44=444.75|54=2|55=GOOGL|59=0|60=20260416-07:20:32.308|150=0|151=70|10=135|
< 8=FIX.4.2|9=131|35=D|49=MINIFIX|56=EXCHANGE|34=87|52=20260416-01:50:32|11=1924874428|21=1|55=AMZN|54=2|60=20260416-01:50:32|40=2|44=356|38=60|59=0|10=028|
< 8=FIX.4.2|9=132|35=D|49=MINIFIX|56=EXCHANGE|34=88|52=20260416-01:50:32|11=1924874430|21=1|55=MA|54=1|60=20260416-01:50:32|40=2|44=226.5|38=160|59=0|10=254|
> 8=FIX.4.2|9=224|35=8|34=60|49=EXCHANGE|52=20260416-01:50:32.309|56=MINIFIX|6=0|11=1924874374|14=0|17=EXEC-1776303564792|31=0|32=0|37=20260416-072032-613478|38=120|39=0|40=2|44=413.75|54=2|55=TSLA|59=0|60=20260416-07:20:32.309|150=0|151=120|10=150|
< 8=FIX.4.2|9=133|35=D|49=MINIFIX|56=EXCHANGE|34=89|52=20260416-01:50:32|11=1924874432|21=1|55=MA|54=2|60=20260416-01:50:32|40=2|44=302.75|38=160|59=0|10=053|
> 8=FIX.4.2|9=218|35=8|34=61|49=EXCHANGE|52=20260416-01:50:32.310|56=MINIFIX|6=0|11=1924874376|14=0|17=EXEC-1776303564793|31=0|32=0|37=20260416-072032-613479|38=50|39=0|40=2|44=58|54=1|55=AMZN|59=0|60=20260416-07:20:32.310|150=0|151=50|10=110|
< 8=FIX.4.2|9=134|35=D|49=MINIFIX|56=EXCHANGE|34=90|52=20260416-01:50:32|11=1924874434|21=1|55=GOOGL|54=1|60=20260416-01:50:32|40=2|44=143.5|38=80|59=0|10=182|
< 8=FIX.4.2|9=135|35=D|49=MINIFIX|56=EXCHANGE|34=91|52=20260416-01:50:32|11=1924874436|21=1|55=TSLA|54=2|60=20260416-01:50:32|40=2|44=287.25|38=120|59=0|10=221|
> 8=FIX.4.2|9=222|35=8|34=62|49=EXCHANGE|52=20260416-01:50:32.311|56=MINIFIX|6=0|11=1924874378|14=0|17=EXEC-1776303564794|31=0|32=0|37=20260416-072032-613480|38=160|39=0|40=2|44=419.75|54=2|55=MA|59=0|60=20260416-07:20:32.311|150=0|151=160|10=239|
< 8=FIX.4.2|9=134|35=D|49=MINIFIX|56=EXCHANGE|34=92|52=20260416-01:50:32|11=1924874438|21=1|55=AAPL|54=1|60=20260416-01:50:32|40=2|44=231.75|38=20|59=0|10=145|
> 8=FIX.4.2|9=221|35=8|34=63|49=EXCHANGE|52=20260416-01:50:32.312|56=MINIFIX|6=0|11=1924874380|14=0|17=EXEC-1776303564795|31=0|32=0|37=20260416-072032-613481|38=60|39=0|40=2|44=419.5|54=2|55=AMZN|59=0|60=20260416-07:20:32.312|150=0|151=60|10=251|
< 8=FIX.4.2|9=134|35=D|49=MINIFIX|56=EXCHANGE|34=93|52=20260416-01:50:32|11=1924874440|21=1|55=AAPL|54=1|60=20260416-01:50:32|40=2|44=208.75|38=20|59=0|10=143|
> 8=FIX.4.2|9=224|35=8|34=64|49=EXCHANGE|52=20260416-01:50:32.313|56=MINIFIX|6=0|11=1924874382|14=0|17=EXEC-1776303564796|31=0|32=0|37=20260416-072032-613482|38=110|39=0|40=2|44=473.25|54=2|55=META|59=0|60=20260416-07:20:32.313|150=0|151=110|10=128|
< 8=FIX.4.2|9=135|35=D|49=MINIFIX|56=EXCHANGE|34=94|52=20260416-01:50:32|11=1924874442|21=1|55=META|54=2|60=20260416-01:50:32|40=2|44=316.75|38=110|59=0|10=205|
< 8=FIX.4.2|9=134|35=D|49=MINIFIX|56=EXCHANGE|34=95|52=20260416-01:50:32|11=1924874444|21=1|55=DIS|54=1|60=20260416-01:50:32|40=2|44=210.25|38=160|59=0|10=128|
> 8=FIX.4.2|9=222|35=8|34=65|49=EXCHANGE|52=20260416-01:50:32.314|56=MINIFIX|6=0|11=1924874384|14=0|17=EXEC-1776303564797|31=0|32=0|37=20260416-072032-613483|38=140|39=0|40=2|44=235.75|54=1|55=MA|59=0|60=20260416-07:20:32.314|150=0|151=140|10=242|
< 8=FIX.4.2|9=134|35=D|49=MINIFIX|56=EXCHANGE|34=96|52=20260416-01:50:32|11=1924874446|21=1|55=BAC|54=2|60=20260416-01:50:32|40=2|44=484.25|38=190|59=0|10=122|
> 8=FIX.4.2|9=222|35=8|34=66|49=EXCHANGE|52=20260416-01:50:32.315|56=MINIFIX|6=0|11=1924874386|14=0|17=EXEC-1776303564798|31=0|32=0|37=20260416-072032-613484|38=180|39=0|40=2|44=240.5|54=1|55=BAC|59=0|60=20260416-07:20:32.315|150=0|151=180|10=254|
< 8=FIX.4.2|9=133|35=D|49=MINIFIX|56=EXCHANGE|34=97|52=20260416-01:50:32|11=1924874448|21=1|55=MSFT|54=1|60=20260416-01:50:32|40=2|44=119.5|38=30|59=0|10=129|
< 8=FIX.4.2|9=135|35=D|49=MINIFIX|56=EXCHANGE|34=98|52=20260416-01:50:32|11=1924874450|21=1|55=TSLA|54=1|60=20260416-01:50:32|40=2|44=227.75|38=120|59=0|10=222|
> 8=FIX.4.2|9=222|35=8|34=67|49=EXCHANGE|52=20260416-01:50:32.318|56=MINIFIX|6=0|11=1924874388|14=0|17=EXEC-1776303564799|31=0|32=0|37=20260416-072032-613485|38=200|39=0|40=2|44=311.5|54=2|55=BAC|59=0|60=20260416-07:20:32.318|150=0|151=200|10=251|
< 8=FIX.4.2|9=135|35=D|49=MINIFIX|56=EXCHANGE|34=99|52=20260416-01:50:32|11=1924874452|21=1|55=META|54=1|60=20260416-01:50:32|40=2|44=224.25|38=100|59=0|10=202|
< 8=FIX.4.2|9=135|35=D|49=MINIFIX|56=EXCHANGE|34=100|52=20260416-01:50:32|11=1924874454|21=1|55=AAPL|54=2|60=20260416-01:50:32|40=2|44=377.25|38=10|59=0|10=188|
> 8=FIX.4.2|9=221|35=8|34=68|49=EXCHANGE|52=20260416-01:50:32.319|56=MINIFIX|6=0|11=1924874390|14=0|17=EXEC-1776303564800|31=0|32=0|37=20260416-072032-613486|38=110|39=0|40=2|44=121|54=1|55=META|59=0|60=20260416-07:20:32.319|150=0|151=110|10=226|
< 8=FIX.4.2|9=136|35=D|49=MINIFIX|56=EXCHANGE|34=101|52=20260416-01:50:32|11=1924874456|21=1|55=GOOGL|54=1|60=20260416-01:50:32|40=2|44=224.75|38=70|59=0|10=027|
> 8=FIX.4.2|9=222|35=8|34=69|49=EXCHANGE|52=20260416-01:50:32.321|56=MINIFIX|6=0|11=1924874392|14=0|17=EXEC-1776303564801|31=0|32=0|37=20260416-072032-613487|38=30|39=0|40=2|44=392.75|54=2|55=MSFT|59=0|60=20260416-07:20:32.321|150=0|151=30|10=052|
> 8=FIX.4.2|9=221|35=8|34=70|49=EXCHANGE|52=20260416-01:50:32.322|56=MINIFIX|6=0|11=1924874394|14=0|17=EXEC-1776303564802|31=0|32=0|37=20260416-072032-613488|38=30|39=0|40=2|44=153.5|54=1|55=MSFT|59=0|60=20260416-07:20:32.322|150=0|151=30|10=244|
> 8=FIX.4.2|9=221|35=8|34=71|49=EXCHANGE|52=20260416-01:50:32.323|56=MINIFIX|6=0|11=1924874396|14=0|17=EXEC-1776303564803|31=0|32=0|37=20260416-072032-613489|38=60|39=0|40=2|44=414.5|54=2|55=AMZN|59=0|60=20260416-07:20:32.323|150=0|151=60|10=254|
> 8=FIX.4.2|9=220|35=8|34=72|49=EXCHANGE|52=20260416-01:50:32.324|56=MINIFIX|6=0|11=1924874398|14=0|17=EXEC-1776303564804|31=0|32=0|37=20260416-072032-613490|38=170|39=0|40=2|44=495|54=2|55=DIS|59=0|60=20260416-07:20:32.324|150=0|151=170|10=175|
> 8=FIX.4.2|9=221|35=8|34=73|49=EXCHANGE|52=20260416-01:50:32.326|56=MINIFIX|6=0|11=1924874400|14=0|17=EXEC-1776303564805|31=0|32=0|37=20260416-072032-613491|38=60|39=0|40=2|44=199.5|54=1|55=AMZN|59=0|60=20260416-07:20:32.326|150=0|151=60|10=252|
> 8=FIX.4.2|9=223|35=8|34=74|49=EXCHANGE|52=20260416-01:50:32.327|56=MINIFIX|6=0|11=1924874402|14=0|17=EXEC-1776303564806|31=0|32=0|37=20260416-072032-613492|38=170|39=0|40=2|44=184.75|54=1|55=DIS|59=0|60=20260416-07:20:32.327|150=0|151=170|10=068|
> 8=FIX.4.2|9=218|35=8|34=75|49=EXCHANGE|52=20260416-01:50:32.328|56=MINIFIX|6=0|11=1924874404|14=0|17=EXEC-1776303564807|31=0|32=0|37=20260416-072032-613493|38=50|39=0|40=2|44=56|54=1|55=AMZN|59=0|60=20260416-07:20:32.328|150=0|151=50|10=115|
> 8=FIX.4.2|9=223|35=8|34=76|49=EXCHANGE|52=20260416-01:50:32.329|56=MINIFIX|6=0|11=1924874406|14=0|17=EXEC-1776303564808|31=0|32=0|37=20260416-072032-613494|38=190|39=0|40=2|44=147.75|54=1|55=BAC|59=0|60=20260416-07:20:32.329|150=0|151=190|10=059|
> 8=FIX.4.2|9=222|35=8|34=77|49=EXCHANGE|52=20260416-01:50:32.330|56=MINIFIX|6=0|11=1924874408|14=0|17=EXEC-1776303564809|31=0|32=0|37=20260416-072032-613495|38=70|39=0|40=2|44=458.5|54=2|55=GOOGL|59=0|60=20260416-07:20:32.330|150=0|151=70|10=074|
> 8=FIX.4.2|9=219|35=8|34=78|49=EXCHANGE|52=20260416-01:50:32.332|56=MINIFIX|6=0|11=1924874410|14=0|17=EXEC-1776303564810|31=0|32=0|37=20260416-072032-613496|38=40|39=0|40=2|44=432|54=2|55=MSFT|59=0|60=20260416-07:20:32.332|150=0|151=40|10=152|
> 8=FIX.4.2|9=222|35=8|34=79|49=EXCHANGE|52=20260416-01:50:32.333|56=MINIFIX|6=0|11=1924874412|14=0|17=EXEC-1776303564811|31=0|32=0|37=20260416-072032-613497|38=60|39=0|40=2|44=479.75|54=2|55=AMZN|59=0|60=20260416-07:20:32.333|150=0|151=60|10=062|
> 8=FIX.4.2|9=223|35=8|34=80|49=EXCHANGE|52=20260416-01:50:32.335|56=MINIFIX|6=0|11=1924874414|14=0|17=EXEC-1776303564812|31=0|32=0|37=20260416-072032-613498|38=130|39=0|40=2|44=400.5|54=2|55=TSLA|59=0|60=20260416-07:20:32.335|150=0|151=130|10=082|
> 8=FIX.4.2|9=223|35=8|34=81|49=EXCHANGE|52=20260416-01:50:32.336|56=MINIFIX|6=0|11=1924874416|14=0|17=EXEC-1776303564813|31=0|32=0|37=20260416-072032-613499|38=100|39=0|40=2|44=494.5|54=2|55=META|59=0|60=20260416-07:20:32.336|150=0|151=100|10=083|
> 8=FIX.4.2|9=222|35=8|34=82|49=EXCHANGE|52=20260416-01:50:32.337|56=MINIFIX|6=0|11=1924874418|14=0|17=EXEC-1776303564814|31=0|32=0|37=20260416-072032-613500|38=80|39=0|40=2|44=80.25|54=1|55=GOOGL|59=0|60=20260416-07:20:32.337|150=0|151=80|10=062|
> 8=FIX.4.2|9=223|35=8|34=83|49=EXCHANGE|52=20260416-01:50:32.339|56=MINIFIX|6=0|11=1924874420|14=0|17=EXEC-1776303564815|31=0|32=0|37=20260416-072032-613501|38=170|39=0|40=2|44=407.25|54=2|55=DIS|59=0|60=20260416-07:20:32.339|150=0|151=170|10=059|
> 8=FIX.4.2|9=223|35=8|34=84|49=EXCHANGE|52=20260416-01:50:32.340|56=MINIFIX|6=0|11=1924874422|14=0|17=EXEC-1776303564816|31=0|32=0|37=20260416-072032-613502|38=120|39=0|40=2|44=317.5|54=2|55=TSLA|59=0|60=20260416-07:20:32.340|150=0|151=120|10=072|
> 8=FIX.4.2|9=224|35=8|34=85|49=EXCHANGE|52=20260416-01:50:32.341|56=MINIFIX|6=0|11=1924874424|14=0|17=EXEC-1776303564817|31=0|32=0|37=20260416-072032-613503|38=110|39=0|40=2|44=379.75|54=2|55=META|59=0|60=20260416-07:20:32.341|150=0|151=110|10=128|
> 8=FIX.4.2|9=220|35=8|34=86|49=EXCHANGE|52=20260416-01:50:32.342|56=MINIFIX|6=0|11=1924874426|14=0|17=EXEC-1776303564818|31=0|32=0|37=20260416-072032-613504|38=190|39=0|40=2|44=363|54=2|55=BAC|59=0|60=20260416-07:20:32.342|150=0|151=190|10=145|
> 8=FIX.4.2|9=219|35=8|34=87|49=EXCHANGE|52=20260416-01:50:32.343|56=MINIFIX|6=0|11=1924874428|14=0|17=EXEC-1776303564819|31=0|32=0|37=20260416-072032-613505|38=60|39=0|40=2|44=356|54=2|55=AMZN|59=0|60=20260416-07:20:32.343|150=0|151=60|10=170|
> 8=FIX.4.2|9=221|35=8|34=88|49=EXCHANGE|52=20260416-01:50:32.345|56=MINIFIX|6=0|11=1924874430|14=0|17=EXEC-1776303564820|31=0|32=0|37=20260416-072032-613506|38=160|39=0|40=2|44=226.5|54=1|55=MA|59=0|60=20260416-07:20:32.345|150=0|151=160|10=178|
> 8=FIX.4.2|9=222|35=8|34=89|49=EXCHANGE|52=20260416-01:50:32.346|56=MINIFIX|6=0|11=1924874432|14=0|17=EXEC-1776303564821|31=0|32=0|37=20260416-072032-613507|38=160|39=0|40=2|44=302.75|54=2|55=MA|59=0|60=20260416-07:20:32.346|150=0|151=160|10=237|
> 8=FIX.4.2|9=222|35=8|34=90|49=EXCHANGE|52=20260416-01:50:32.347|56=MINIFIX|6=0|11=1924874434|14=0|17=EXEC-1776303564822|31=0|32=0|37=20260416-072032-613508|38=80|39=0|40=2|44=143.5|54=1|55=GOOGL|59=0|60=20260416-07:20:32.347|150=0|151=80|10=066|
> 8=FIX.4.2|9=224|35=8|34=91|49=EXCHANGE|52=20260416-01:50:32.348|56=MINIFIX|6=0|11=1924874436|14=0|17=EXEC-1776303564823|31=0|32=0|37=20260416-072032-613509|38=120|39=0|40=2|44=287.25|54=2|55=TSLA|59=0|60=20260416-07:20:32.348|150=0|151=120|10=153|
> 8=FIX.4.2|9=222|35=8|34=92|49=EXCHANGE|52=20260416-01:50:32.349|56=MINIFIX|6=0|11=1924874438|14=0|17=EXEC-1776303564824|31=0|32=0|37=20260416-072032-613510|38=20|39=0|40=2|44=231.75|54=1|55=AAPL|59=0|60=20260416-07:20:32.349|150=0|151=20|10=022|
> 8=FIX.4.2|9=222|35=8|34=93|49=EXCHANGE|52=20260416-01:50:32.351|56=MINIFIX|6=0|11=1924874440|14=0|17=EXEC-1776303564825|31=0|32=0|37=20260416-072032-613511|38=20|39=0|40=2|44=208.75|54=1|55=AAPL|59=0|60=20260416-07:20:32.351|150=0|151=20|10=008|
> 8=FIX.4.2|9=224|35=8|34=94|49=EXCHANGE|52=20260416-01:50:32.353|56=MINIFIX|6=0|11=1924874442|14=0|17=EXEC-1776303564826|31=0|32=0|37=20260416-072032-613512|38=110|39=0|40=2|44=316.75|54=2|55=META|59=0|60=20260416-07:20:32.353|150=0|151=110|10=125|
> 8=FIX.4.2|9=223|35=8|34=95|49=EXCHANGE|52=20260416-01:50:32.354|56=MINIFIX|6=0|11=1924874444|14=0|17=EXEC-1776303564827|31=0|32=0|37=20260416-072032-613513|38=160|39=0|40=2|44=210.25|54=1|55=DIS|59=0|60=20260416-07:20:32.354|150=0|151=160|10=057|
> 8=FIX.4.2|9=223|35=8|34=96|49=EXCHANGE|52=20260416-01:50:32.355|56=MINIFIX|6=0|11=1924874446|14=0|17=EXEC-1776303564828|31=0|32=0|37=20260416-072032-613514|38=190|39=0|40=2|44=484.25|54=2|55=BAC|59=0|60=20260416-07:20:32.355|150=0|151=190|10=058|
> 8=FIX.4.2|9=221|35=8|34=97|49=EXCHANGE|52=20260416-01:50:32.355|56=MINIFIX|6=0|11=1924874448|14=0|17=EXEC-1776303564829|31=0|32=0|37=20260416-072032-613515|38=30|39=0|40=2|44=119.5|54=1|55=MSFT|59=0|60=20260416-07:20:32.355|150=0|151=30|10=011|
> 8=FIX.4.2|9=224|35=8|34=98|49=EXCHANGE|52=20260416-01:50:32.356|56=MINIFIX|6=0|11=1924874450|14=0|17=EXEC-1776303564830|31=0|32=0|37=20260416-072032-613516|38=120|39=0|40=2|44=227.75|54=1|55=TSLA|59=0|60=20260416-07:20:32.356|150=0|151=120|10=148|
> 8=FIX.4.2|9=224|35=8|34=99|49=EXCHANGE|52=20260416-01:50:32.357|56=MINIFIX|6=0|11=1924874452|14=0|17=EXEC-1776303564831|31=0|32=0|37=20260416-072032-613517|38=100|39=0|40=2|44=224.25|54=1|55=META|59=0|60=20260416-07:20:32.357|150=0|151=100|10=130|
> 8=FIX.4.2|9=223|35=8|34=100|49=EXCHANGE|52=20260416-01:50:32.358|56=MINIFIX|6=0|11=1924874454|14=0|17=EXEC-1776303564832|31=0|32=0|37=20260416-072032-613518|38=10|39=0|40=2|44=377.25|54=2|55=AAPL|59=0|60=20260416-07:20:32.358|150=0|151=10|10=071|
> 8=FIX.4.2|9=224|35=8|34=101|49=EXCHANGE|52=20260416-01:50:32.360|56=MINIFIX|6=0|11=1924874456|14=0|17=EXEC-1776303564833|31=0|32=0|37=20260416-072032-613519|38=70|39=0|40=2|44=224.75|54=1|55=GOOGL|59=0|60=20260416-07:20:32.360|150=0|151=70|10=160|
: T34 PHASE1_BOOK_BUILT 20260416-01:50:32
< 8=FIX.4.2|9=136|35=D|49=MINIFIX|56=EXCHANGE|34=102|52=20260416-01:50:32|11=1924874458|21=1|55=AAPL|54=1|60=20260416-01:50:32|40=2|44=150.00|38=100|59=0|10=224|
< 8=FIX.4.2|9=135|35=D|49=MINIFIX|56=EXCHANGE|34=103|52=20260416-01:50:32|11=1924874460|21=1|55=BAC|54=2|60=20260416-01:50:32|40=2|44=150.00|38=100|59=0|10=130|
< 8=FIX.4.2|9=135|35=D|49=MINIFIX|56=EXCHANGE|34=104|52=20260416-01:50:32|11=1924874462|21=1|55=DIS|54=1|60=20260416-01:50:32|40=2|44=150.00|38=100|59=0|10=158|
> 8=FIX.4.2|9=222|35=8|34=102|49=EXCHANGE|52=20260416-01:50:32.579|56=MINIFIX|6=0|11=1924874458|14=0|17=EXEC-1776303564834|31=0|32=0|37=20260416-072032-613520|38=100|39=0|40=2|44=150|54=1|55=AAPL|59=0|60=20260416-07:20:32.579|150=0|151=100|10=016|
< 8=FIX.4.2|9=136|35=D|49=MINIFIX|56=EXCHANGE|34=105|52=20260416-01:50:32|11=1924874464|21=1|55=AMZN|54=2|60=20260416-01:50:32|40=2|44=150.00|38=100|59=0|10=249|
> 8=FIX.4.2|9=221|35=8|34=103|49=EXCHANGE|52=20260416-01:50:32.581|56=MINIFIX|6=0|11=1924874460|14=0|17=EXEC-1776303564835|31=0|32=0|37=20260416-072032-613521|38=100|39=0|40=2|44=150|54=2|55=BAC|59=0|60=20260416-07:20:32.581|150=0|151=100|10=166|
< 8=FIX.4.2|9=136|35=D|49=MINIFIX|56=EXCHANGE|34=106|52=20260416-01:50:32|11=1924874466|21=1|55=MSFT|54=1|60=20260416-01:50:32|40=2|44=150.00|38=100|59=0|10=255|
< 8=FIX.4.2|9=135|35=D|49=MINIFIX|56=EXCHANGE|34=107|52=20260416-01:50:32|11=1924874468|21=1|55=BAC|54=2|60=20260416-01:50:32|40=2|44=150.00|38=100|59=0|10=142|
> 8=FIX.4.2|9=272|35=8|34=104|49=EXCHANGE|52=20260416-01:50:32.583|56=MINIFIX|6=270.75|11=1924874334|14=100|17=EXEC-1776304232581-1352|31=270.75|32=100|37=20260416-072032-613458|38=200|39=1|40=2|44=270.75|54=1|55=BAC|59=0|60=20260416-07:20:32.583|150=F|151=100|527=TRADE-1776304232581-1352|10=055|
< 8=FIX.4.2|9=134|35=D|49=MINIFIX|56=EXCHANGE|34=108|52=20260416-01:50:32|11=1924874470|21=1|55=MA|54=1|60=20260416-01:50:32|40=2|44=150.00|38=100|59=0|10=078|
> 8=FIX.4.2|9=267|35=8|34=105|49=EXCHANGE|52=20260416-01:50:32.583|56=MINIFIX|6=270.75|11=1924874460|14=100|17=EXEC-1776304232581-1352|31=270.75|32=100|37=20260416-072032-613521|38=100|39=2|40=2|44=150|54=2|55=BAC|59=0|60=20260416-07:20:32.583|150=F|151=0|527=TRADE-1776304232581-1352|10=054|
< 8=FIX.4.2|9=134|35=D|49=MINIFIX|56=EXCHANGE|34=109|52=20260416-01:50:32|11=1924874472|21=1|55=MA|54=2|60=20260416-01:50:32|40=2|44=150.00|38=100|59=0|10=082|
> 8=FIX.4.2|9=221|35=8|34=106|49=EXCHANGE|52=20260416-01:50:32.584|56=MINIFIX|6=0|11=1924874462|14=0|17=EXEC-1776303564838|31=0|32=0|37=20260416-072032-613522|38=100|39=0|40=2|44=150|54=1|55=DIS|59=0|60=20260416-07:20:32.584|150=0|151=100|10=206|
< 8=FIX.4.2|9=136|35=D|49=MINIFIX|56=EXCHANGE|34=110|52=20260416-01:50:32|11=1924874474|21=1|55=AAPL|54=1|60=20260416-01:50:32|40=2|44=150.00|38=100|59=0|10=221|
< 8=FIX.4.2|9=136|35=D|49=MINIFIX|56=EXCHANGE|34=111|52=20260416-01:50:32|11=1924874476|21=1|55=AAPL|54=2|60=20260416-01:50:32|40=2|44=150.00|38=100|59=0|10=225|
> 8=FIX.4.2|9=222|35=8|34=107|49=EXCHANGE|52=20260416-01:50:32.585|56=MINIFIX|6=0|11=1924874464|14=0|17=EXEC-1776303564839|31=0|32=0|37=20260416-072032-613523|38=100|39=0|40=2|44=150|54=2|55=AMZN|59=0|60=20260416-07:20:32.585|150=0|151=100|10=045|
< 8=FIX.4.2|9=134|35=D|49=MINIFIX|56=EXCHANGE|34=112|52=20260416-01:50:32|11=1924874478|21=1|55=MA|54=1|60=20260416-01:50:32|40=2|44=150.00|38=100|59=0|10=081|
< 8=FIX.4.2|9=136|35=D|49=MINIFIX|56=EXCHANGE|34=113|52=20260416-01:50:32|11=1924874480|21=1|55=AMZN|54=2|60=20260416-01:50:32|40=2|44=150.00|38=100|59=0|10=246|
> 8=FIX.4.2|9=265|35=8|34=108|49=EXCHANGE|52=20260416-01:50:32.586|56=MINIFIX|6=199.5|11=1924874400|14=60|17=EXEC-1776304232585-1353|31=199.5|32=60|37=20260416-072032-613491|38=60|39=2|40=2|44=199.5|54=1|55=AMZN|59=0|60=20260416-07:20:32.586|150=F|151=0|527=TRADE-1776304232585-1353|10=075|
> 8=FIX.4.2|9=265|35=8|34=109|49=EXCHANGE|52=20260416-01:50:32.586|56=MINIFIX|6=199.5|11=1924874464|14=60|17=EXEC-1776304232585-1353|31=199.5|32=60|37=20260416-072032-613523|38=100|39=1|40=2|44=150|54=2|55=AMZN|59=0|60=20260416-07:20:32.586|150=F|151=40|527=TRADE-1776304232585-1353|10=065|
< 8=FIX.4.2|9=136|35=D|49=MINIFIX|56=EXCHANGE|34=114|52=20260416-01:50:32|11=1924874482|21=1|55=MSFT|54=1|60=20260416-01:50:32|40=2|44=150.00|38=100|59=0|10=252|
< 8=FIX.4.2|9=136|35=D|49=MINIFIX|56=EXCHANGE|34=115|52=20260416-01:50:32|11=1924874484|21=1|55=AMZN|54=2|60=20260416-01:50:32|40=2|44=150.00|38=100|59=0|10=252|
> 8=FIX.4.2|9=222|35=8|34=110|49=EXCHANGE|52=20260416-01:50:32.588|56=MINIFIX|6=0|11=1924874466|14=0|17=EXEC-1776303564842|31=0|32=0|37=20260416-072032-613524|38=100|39=0|40=2|44=150|54=1|55=MSFT|59=0|60=20260416-07:20:32.588|150=0|151=100|10=045|
< 8=FIX.4.2|9=134|35=D|49=MINIFIX|56=EXCHANGE|34=116|52=20260416-01:50:32|11=1924874486|21=1|55=MA|54=1|60=20260416-01:50:32|40=2|44=150.00|38=100|59=0|10=084|
< 8=FIX.4.2|9=134|35=D|49=MINIFIX|56=EXCHANGE|34=117|52=20260416-01:50:32|11=1924874488|21=1|55=MA|54=2|60=20260416-01:50:32|40=2|44=150.00|38=100|59=0|10=088|
> 8=FIX.4.2|9=221|35=8|34=111|49=EXCHANGE|52=20260416-01:50:32.590|56=MINIFIX|6=0|11=1924874468|14=0|17=EXEC-1776303564843|31=0|32=0|37=20260416-072032-613525|38=100|39=0|40=2|44=150|54=2|55=BAC|59=0|60=20260416-07:20:32.590|150=0|151=100|10=176|
< 8=FIX.4.2|9=135|35=D|49=MINIFIX|56=EXCHANGE|34=118|52=20260416-01:50:32|11=1924874490|21=1|55=DIS|54=1|60=20260416-01:50:32|40=2|44=150.00|38=100|59=0|10=164|
< 8=FIX.4.2|9=135|35=D|49=MINIFIX|56=EXCHANGE|34=119|52=20260416-01:50:32|11=1924874492|21=1|55=DIS|54=2|60=20260416-01:50:32|40=2|44=150.00|38=100|59=0|10=168|
> 8=FIX.4.2|9=270|35=8|34=112|49=EXCHANGE|52=20260416-01:50:32.591|56=MINIFIX|6=270.75|11=1924874334|14=200|17=EXEC-1776304232590-1354|31=270.75|32=100|37=20260416-072032-613458|38=200|39=2|40=2|44=270.75|54=1|55=BAC|59=0|60=20260416-07:20:32.591|150=F|151=0|527=TRADE-1776304232590-1354|10=215|
> 8=FIX.4.2|9=267|35=8|34=113|49=EXCHANGE|52=20260416-01:50:32.591|56=MINIFIX|6=270.75|11=1924874468|14=100|17=EXEC-1776304232590-1354|31=270.75|32=100|37=20260416-072032-613525|38=100|39=2|40=2|44=150|54=2|55=BAC|59=0|60=20260416-07:20:32.591|150=F|151=0|527=TRADE-1776304232590-1354|10=067|
< 8=FIX.4.2|9=135|35=D|49=MINIFIX|56=EXCHANGE|34=120|52=20260416-01:50:32|11=1924874494|21=1|55=DIS|54=1|60=20260416-01:50:32|40=2|44=150.00|38=100|59=0|10=161|
< 8=FIX.4.2|9=135|35=D|49=MINIFIX|56=EXCHANGE|34=121|52=20260416-01:50:32|11=1924874496|21=1|55=BAC|54=2|60=20260416-01:50:32|40=2|44=150.00|38=100|59=0|10=139|
> 8=FIX.4.2|9=220|35=8|34=114|49=EXCHANGE|52=20260416-01:50:32.592|56=MINIFIX|6=0|11=1924874470|14=0|17=EXEC-1776303564846|31=0|32=0|37=20260416-072032-613526|38=100|39=0|40=2|44=150|54=1|55=MA|59=0|60=20260416-07:20:32.592|150=0|151=100|10=122|
< 8=FIX.4.2|9=136|35=D|49=MINIFIX|56=EXCHANGE|34=122|52=20260416-01:50:32|11=1924874498|21=1|55=AMZN|54=1|60=20260416-01:50:32|40=2|44=150.00|38=100|59=0|10=254|
> 8=FIX.4.2|9=220|35=8|34=115|49=EXCHANGE|52=20260416-01:50:32.593|56=MINIFIX|6=0|11=1924874472|14=0|17=EXEC-1776303564847|31=0|32=0|37=20260416-072032-613527|38=100|39=0|40=2|44=150|54=2|55=MA|59=0|60=20260416-07:20:32.593|150=0|151=100|10=130|
< 8=FIX.4.2|9=135|35=D|49=MINIFIX|56=EXCHANGE|34=123|52=20260416-01:50:32|11=1924874500|21=1|55=DIS|54=2|60=20260416-01:50:32|40=2|44=150.00|38=100|59=0|10=153|
< 8=FIX.4.2|9=136|35=D|49=MINIFIX|56=EXCHANGE|34=124|52=20260416-01:50:32|11=1924874502|21=1|55=AAPL|54=1|60=20260416-01:50:32|40=2|44=150.00|38=100|59=0|10=218|
> 8=FIX.4.2|9=270|35=8|34=116|49=EXCHANGE|52=20260416-01:50:32.594|56=MINIFIX|6=263.75|11=1924874310|14=100|17=EXEC-1776304232594-1355|31=263.75|32=100|37=20260416-072032-613446|38=150|39=1|40=2|44=263.75|54=1|55=MA|59=0|60=20260416-07:20:32.594|150=F|151=50|527=TRADE-1776304232594-1355|10=231|
< 8=FIX.4.2|9=135|35=D|49=MINIFIX|56=EXCHANGE|34=125|52=20260416-01:50:32|11=1924874504|21=1|55=BAC|54=2|60=20260416-01:50:32|40=2|44=150.00|38=100|59=0|10=133|
> 8=FIX.4.2|9=266|35=8|34=117|49=EXCHANGE|52=20260416-01:50:32.596|56=MINIFIX|6=263.75|11=1924874472|14=100|17=EXEC-1776304232594-1355|31=263.75|32=100|37=20260416-072032-613527|38=100|39=2|40=2|44=150|54=2|55=MA|59=0|60=20260416-07:20:32.596|150=F|151=0|527=TRADE-1776304232594-1355|10=035|
< 8=FIX.4.2|9=136|35=D|49=MINIFIX|56=EXCHANGE|34=126|52=20260416-01:50:32|11=1924874506|21=1|55=MSFT|54=1|60=20260416-01:50:32|40=2|44=150.00|38=100|59=0|10=252|
> 8=FIX.4.2|9=222|35=8|34=118|49=EXCHANGE|52=20260416-01:50:32.597|56=MINIFIX|6=0|11=1924874474|14=0|17=EXEC-1776303564850|31=0|32=0|37=20260416-072032-613528|38=100|39=0|40=2|44=150|54=1|55=AAPL|59=0|60=20260416-07:20:32.597|150=0|151=100|10=027|
< 8=FIX.4.2|9=134|35=D|49=MINIFIX|56=EXCHANGE|34=127|52=20260416-01:50:32|11=1924874508|21=1|55=MA|54=2|60=20260416-01:50:32|40=2|44=150.00|38=100|59=0|10=082|
< 8=FIX.4.2|9=135|35=D|49=MINIFIX|56=EXCHANGE|34=128|52=20260416-01:50:32|11=1924874510|21=1|55=BAC|54=1|60=20260416-01:50:32|40=2|44=150.00|38=100|59=0|10=132|
> 8=FIX.4.2|9=222|35=8|34=119|49=EXCHANGE|52=20260416-01:50:32.598|56=MINIFIX|6=0|11=1924874476|14=0|17=EXEC-1776303564851|31=0|32=0|37=20260416-072032-613529|38=100|39=0|40=2|44=150|54=2|55=AAPL|59=0|60=20260416-07:20:32.598|150=0|151=100|10=035|
< 8=FIX.4.2|9=134|35=D|49=MINIFIX|56=EXCHANGE|34=129|52=20260416-01:50:32|11=1924874512|21=1|55=MA|54=2|60=20260416-01:50:32|40=2|44=150.00|38=100|59=0|10=079|
< 8=FIX.4.2|9=136|35=D|49=MINIFIX|56=EXCHANGE|34=130|52=20260416-01:50:32|11=1924874514|21=1|55=AAPL|54=1|60=20260416-01:50:32|40=2|44=150.00|38=100|59=0|10=218|
> 8=FIX.4.2|9=268|35=8|34=120|49=EXCHANGE|52=20260416-01:50:32.599|56=MINIFIX|6=231.75|11=1924874438|14=20|17=EXEC-1776304232598-1356|31=231.75|32=20|37=20260416-072032-613510|38=20|39=2|40=2|44=231.75|54=1|55=AAPL|59=0|60=20260416-07:20:32.599|150=F|151=0|527=TRADE-1776304232598-1356|10=187|
< 8=FIX.4.2|9=134|35=D|49=MINIFIX|56=EXCHANGE|34=131|52=20260416-01:50:32|11=1924874516|21=1|55=MA|54=2|60=20260416-01:50:32|40=2|44=150.00|38=100|59=0|10=076|
> 8=FIX.4.2|9=265|35=8|34=121|49=EXCHANGE|52=20260416-01:50:32.600|56=MINIFIX|6=212.5|11=1924874300|14=10|17=EXEC-1776304232598-1357|31=212.5|32=10|37=20260416-072032-613441|38=10|39=2|40=2|44=212.5|54=1|55=AAPL|59=0|60=20260416-07:20:32.600|150=F|151=0|527=TRADE-1776304232598-1357|10=229|
< 8=FIX.4.2|9=135|35=D|49=MINIFIX|56=EXCHANGE|34=132|52=20260416-01:50:32|11=1924874518|21=1|55=DIS|54=1|60=20260416-01:50:32|40=2|44=150.00|38=100|59=0|10=161|
< 8=FIX.4.2|9=136|35=D|49=MINIFIX|56=EXCHANGE|34=133|52=20260416-01:50:32|11=1924874520|21=1|55=AMZN|54=2|60=20260416-01:50:32|40=2|44=150.00|38=100|59=0|10=243|
> 8=FIX.4.2|9=268|35=8|34=122|49=EXCHANGE|52=20260416-01:50:32.602|56=MINIFIX|6=208.75|11=1924874440|14=20|17=EXEC-1776304232598-1358|31=208.75|32=20|37=20260416-072032-613511|38=20|39=2|40=2|44=208.75|54=1|55=AAPL|59=0|60=20260416-07:20:32.602|150=F|151=0|527=TRADE-1776304232598-1358|10=169|
< 8=FIX.4.2|9=134|35=D|49=MINIFIX|56=EXCHANGE|34=134|52=20260416-01:50:32|11=1924874522|21=1|55=MA|54=1|60=20260416-01:50:32|40=2|44=150.00|38=100|59=0|10=075|
> 8=FIX.4.2|9=265|35=8|34=123|49=EXCHANGE|52=20260416-01:50:32.603|56=MINIFIX|6=192.5|11=1924874320|14=10|17=EXEC-1776304232598-1359|31=192.5|32=10|37=20260416-072032-613451|38=10|39=2|40=2|44=192.5|54=1|55=AAPL|59=0|60=20260416-07:20:32.603|150=F|151=0|527=TRADE-1776304232598-1359|10=009|
< 8=FIX.4.2|9=134|35=D|49=MINIFIX|56=EXCHANGE|34=135|52=20260416-01:50:32|11=1924874524|21=1|55=MA|54=2|60=20260416-01:50:32|40=2|44=150.00|38=100|59=0|10=079|
> 8=FIX.4.2|9=261|35=8|34=124|49=EXCHANGE|52=20260416-01:50:32.606|56=MINIFIX|6=150|11=1924874458|14=40|17=EXEC-1776304232598-1360|31=150|32=40|37=20260416-072032-613520|38=100|39=1|40=2|44=150|54=1|55=AAPL|59=0|60=20260416-07:20:32.606|150=F|151=60|527=TRADE-1776304232598-1360|10=053|
< 8=FIX.4.2|9=135|35=D|49=MINIFIX|56=EXCHANGE|34=136|52=20260416-01:50:32|11=1924874526|21=1|55=BAC|54=1|60=20260416-01:50:32|40=2|44=150.00|38=100|59=0|10=138|
> 8=FIX.4.2|9=266|35=8|34=125|49=EXCHANGE|52=20260416-01:50:32.606|56=MINIFIX|6=188.6|11=1924874476|14=20|17=EXEC-1776304232598-1356|31=231.75|32=20|37=20260416-072032-613529|38=100|39=1|40=2|44=150|54=2|55=AAPL|59=0|60=20260416-07:20:32.606|150=F|151=80|527=TRADE-1776304232598-1356|10=086|
> 8=FIX.4.2|9=265|35=8|34=126|49=EXCHANGE|52=20260416-01:50:32.606|56=MINIFIX|6=188.6|11=1924874476|14=30|17=EXEC-1776304232598-1357|31=212.5|32=10|37=20260416-072032-613529|38=100|39=1|40=2|44=150|54=2|55=AAPL|59=0|60=20260416-07:20:32.606|150=F|151=70|527=TRADE-1776304232598-1357|10=031|
> 8=FIX.4.2|9=266|35=8|34=127|49=EXCHANGE|52=20260416-01:50:32.606|56=MINIFIX|6=188.6|11=1924874476|14=50|17=EXEC-1776304232598-1358|31=208.75|32=20|37=20260416-072032-613529|38=100|39=1|40=2|44=150|54=2|55=AAPL|59=0|60=20260416-07:20:32.606|150=F|151=50|527=TRADE-1776304232598-1358|10=096|
> 8=FIX.4.2|9=265|35=8|34=128|49=EXCHANGE|52=20260416-01:50:32.606|56=MINIFIX|6=188.6|11=1924874476|14=60|17=EXEC-1776304232598-1359|31=192.5|32=10|37=20260416-072032-613529|38=100|39=1|40=2|44=150|54=2|55=AAPL|59=0|60=20260416-07:20:32.606|150=F|151=40|527=TRADE-1776304232598-1359|10=044|
< 8=FIX.4.2|9=136|35=D|49=MINIFIX|56=EXCHANGE|34=137|52=20260416-01:50:32|11=1924874528|21=1|55=AMZN|54=2|60=20260416-01:50:32|40=2|44=150.00|38=100|59=0|10=255|
> 8=FIX.4.2|9=263|35=8|34=129|49=EXCHANGE|52=20260416-01:50:32.607|56=MINIFIX|6=188.6|11=1924874476|14=100|17=EXEC-1776304232598-1360|31=150|32=40|37=20260416-072032-613529|38=100|39=2|40=2|44=150|54=2|55=AAPL|59=0|60=20260416-07:20:32.607|150=F|151=0|527=TRADE-1776304232598-1360|10=175|
< 8=FIX.4.2|9=136|35=D|49=MINIFIX|56=EXCHANGE|34=138|52=20260416-01:50:32|11=1924874530|21=1|55=AAPL|54=1|60=20260416-01:50:32|40=2|44=150.00|38=100|59=0|10=224|
> 8=FIX.4.2|9=220|35=8|34=130|49=EXCHANGE|52=20260416-01:50:32.608|56=MINIFIX|6=0|11=1924874478|14=0|17=EXEC-1776303564862|31=0|32=0|37=20260416-072032-613530|38=100|39=0|40=2|44=150|54=1|55=MA|59=0|60=20260416-07:20:32.608|150=0|151=100|10=117|
< 8=FIX.4.2|9=135|35=D|49=MINIFIX|56=EXCHANGE|34=139|52=20260416-01:50:32|11=1924874532|21=1|55=BAC|54=2|60=20260416-01:50:32|40=2|44=150.00|38=100|59=0|10=139|
< 8=FIX.4.2|9=136|35=D|49=MINIFIX|56=EXCHANGE|34=140|52=20260416-01:50:32|11=1924874534|21=1|55=AMZN|54=1|60=20260416-01:50:32|40=2|44=150.00|38=100|59=0|10=245|
> 8=FIX.4.2|9=222|35=8|34=131|49=EXCHANGE|52=20260416-01:50:32.609|56=MINIFIX|6=0|11=1924874480|14=0|17=EXEC-1776303564863|31=0|32=0|37=20260416-072032-613531|38=100|39=0|40=2|44=150|54=2|55=AMZN|59=0|60=20260416-07:20:32.609|150=0|151=100|10=030|
< 8=FIX.4.2|9=134|35=D|49=MINIFIX|56=EXCHANGE|34=141|52=20260416-01:50:32|11=1924874536|21=1|55=MA|54=2|60=20260416-01:50:32|40=2|44=150.00|38=100|59=0|10=079|
> 8=FIX.4.2|9=222|35=8|34=132|49=EXCHANGE|52=20260416-01:50:32.611|56=MINIFIX|6=0|11=1924874482|14=0|17=EXEC-1776303564864|31=0|32=0|37=20260416-072032-613532|38=100|39=0|40=2|44=150|54=1|55=MSFT|59=0|60=20260416-07:20:32.610|150=0|151=100|10=023|
< 8=FIX.4.2|9=136|35=D|49=MINIFIX|56=EXCHANGE|34=142|52=20260416-01:50:32|11=1924874538|21=1|55=AAPL|54=1|60=20260416-01:50:32|40=2|44=150.00|38=100|59=0|10=227|
< 8=FIX.4.2|9=136|35=D|49=MINIFIX|56=EXCHANGE|34=143|52=20260416-01:50:32|11=1924874540|21=1|55=AMZN|54=2|60=20260416-01:50:32|40=2|44=150.00|38=100|59=0|10=246|
> 8=FIX.4.2|9=222|35=8|34=133|49=EXCHANGE|52=20260416-01:50:32.613|56=MINIFIX|6=0|11=1924874484|14=0|17=EXEC-1776303564865|31=0|32=0|37=20260416-072032-613533|38=100|39=0|40=2|44=150|54=2|55=AMZN|59=0|60=20260416-07:20:32.613|150=0|151=100|10=030|
< 8=FIX.4.2|9=135|35=D|49=MINIFIX|56=EXCHANGE|34=144|52=20260416-01:50:32|11=1924874542|21=1|55=BAC|54=1|60=20260416-01:50:32|40=2|44=150.00|38=100|59=0|10=135|
> 8=FIX.4.2|9=220|35=8|34=134|49=EXCHANGE|52=20260416-01:50:32.614|56=MINIFIX|6=0|11=1924874486|14=0|17=EXEC-1776303564866|31=0|32=0|37=20260416-072032-613534|38=100|39=0|40=2|44=150|54=1|55=MA|59=0|60=20260416-07:20:32.614|150=0|151=100|10=122|
< 8=FIX.4.2|9=135|35=D|49=MINIFIX|56=EXCHANGE|34=145|52=20260416-01:50:32|11=1924874544|21=1|55=BAC|54=2|60=20260416-01:50:32|40=2|44=150.00|38=100|59=0|10=139|
< 8=FIX.4.2|9=136|35=D|49=MINIFIX|56=EXCHANGE|34=146|52=20260416-01:50:32|11=1924874546|21=1|55=AAPL|54=1|60=20260416-01:50:32|40=2|44=150.00|38=100|59=0|10=230|
> 8=FIX.4.2|9=220|35=8|34=135|49=EXCHANGE|52=20260416-01:50:32.614|56=MINIFIX|6=0|11=1924874488|14=0|17=EXEC-1776303564867|31=0|32=0|37=20260416-072032-613535|38=100|39=0|40=2|44=150|54=2|55=MA|59=0|60=20260416-07:20:32.614|150=0|151=100|10=128|
< 8=FIX.4.2|9=136|35=D|49=MINIFIX|56=EXCHANGE|34=147|52=20260416-01:50:32|11=1924874548|21=1|55=AAPL|54=2|60=20260416-01:50:32|40=2|44=150.00|38=100|59=0|10=234|
> 8=FIX.4.2|9=268|35=8|34=136|49=EXCHANGE|52=20260416-01:50:32.616|56=MINIFIX|6=263.75|11=1924874310|14=150|17=EXEC-1776304232615-1361|31=263.75|32=50|37=20260416-072032-613446|38=150|39=2|40=2|44=263.75|54=1|55=MA|59=0|60=20260416-07:20:32.616|150=F|151=0|527=TRADE-1776304232615-1361|10=121|
< 8=FIX.4.2|9=135|35=D|49=MINIFIX|56=EXCHANGE|34=148|52=20260416-01:50:32|11=1924874550|21=1|55=DIS|54=1|60=20260416-01:50:32|40=2|44=150.00|38=100|59=0|10=164|
> 8=FIX.4.2|9=268|35=8|34=137|49=EXCHANGE|52=20260416-01:50:32.617|56=MINIFIX|6=235.75|11=1924874384|14=50|17=EXEC-1776304232615-1362|31=235.75|32=50|37=20260416-072032-613483|38=140|39=1|40=2|44=235.75|54=1|55=MA|59=0|60=20260416-07:20:32.617|150=F|151=90|527=TRADE-1776304232615-1362|10=141|
< 8=FIX.4.2|9=135|35=D|49=MINIFIX|56=EXCHANGE|34=149|52=20260416-01:50:32|11=1924874552|21=1|55=BAC|54=2|60=20260416-01:50:32|40=2|44=150.00|38=100|59=0|10=142|
> 8=FIX.4.2|9=265|35=8|34=138|49=EXCHANGE|52=20260416-01:50:32.617|56=MINIFIX|6=249.75|11=1924874488|14=50|17=EXEC-1776304232615-1361|31=263.75|32=50|37=20260416-072032-613535|38=100|39=1|40=2|44=150|54=2|55=MA|59=0|60=20260416-07:20:32.617|150=F|151=50|527=TRADE-1776304232615-1361|10=237|
> 8=FIX.4.2|9=265|35=8|34=139|49=EXCHANGE|52=20260416-01:50:32.618|56=MINIFIX|6=249.75|11=1924874488|14=100|17=EXEC-1776304232615-1362|31=235.75|32=50|37=20260416-072032-613535|38=100|39=2|40=2|44=150|54=2|55=MA|59=0|60=20260416-07:20:32.618|150=F|151=0|527=TRADE-1776304232615-1362|10=233|
< 8=FIX.4.2|9=135|35=D|49=MINIFIX|56=EXCHANGE|34=150|52=20260416-01:50:32|11=1924874554|21=1|55=DIS|54=1|60=20260416-01:50:32|40=2|44=150.00|38=100|59=0|10=161|
> 8=FIX.4.2|9=221|35=8|34=140|49=EXCHANGE|52=20260416-01:50:32.618|56=MINIFIX|6=0|11=1924874490|14=0|17=EXEC-1776303564872|31=0|32=0|37=20260416-072032-613536|38=100|39=0|40=2|44=150|54=1|55=DIS|59=0|60=20260416-07:20:32.618|150=0|151=100|10=204|
< 8=FIX.4.2|9=136|35=D|49=MINIFIX|56=EXCHANGE|34=151|52=20260416-01:50:32|11=1924874556|21=1|55=AMZN|54=2|60=20260416-01:50:32|40=2|44=150.00|38=100|59=0|10=252|
< 8=FIX.4.2|9=135|35=D|49=MINIFIX|56=EXCHANGE|34=152|52=20260416-01:50:32|11=1924874558|21=1|55=BAC|54=1|60=20260416-01:50:32|40=2|44=150.00|38=100|59=0|10=141|
> 8=FIX.4.2|9=221|35=8|34=141|49=EXCHANGE|52=20260416-01:50:32.619|56=MINIFIX|6=0|11=1924874492|14=0|17=EXEC-1776303564873|31=0|32=0|37=20260416-072032-613537|38=100|39=0|40=2|44=150|54=2|55=DIS|59=0|60=20260416-07:20:32.619|150=0|151=100|10=212|
< 8=FIX.4.2|9=135|35=D|49=MINIFIX|56=EXCHANGE|34=153|52=20260416-01:50:32|11=1924874560|21=1|55=DIS|54=2|60=20260416-01:50:32|40=2|44=150.00|38=100|59=0|10=162|
> 8=FIX.4.2|9=271|35=8|34=142|49=EXCHANGE|52=20260416-01:50:32.621|56=MINIFIX|6=210.25|11=1924874444|14=100|17=EXEC-1776304232620-1363|31=210.25|32=100|37=20260416-072032-613513|38=160|39=1|40=2|44=210.25|54=1|55=DIS|59=0|60=20260416-07:20:32.620|150=F|151=60|527=TRADE-1776304232620-1363|10=238|
< 8=FIX.4.2|9=136|35=D|49=MINIFIX|56=EXCHANGE|34=154|52=20260416-01:50:32|11=1924874562|21=1|55=AAPL|54=1|60=20260416-01:50:32|40=2|44=150.00|38=100|59=0|10=227|
> 8=FIX.4.2|9=267|35=8|34=143|49=EXCHANGE|52=20260416-01:50:32.621|56=MINIFIX|6=210.25|11=1924874492|14=100|17=EXEC-1776304232620-1363|31=210.25|32=100|37=20260416-072032-613537|38=100|39=2|40=2|44=150|54=2|55=DIS|59=0|60=20260416-07:20:32.621|150=F|151=0|527=TRADE-1776304232620-1363|10=050|
< 8=FIX.4.2|9=136|35=D|49=MINIFIX|56=EXCHANGE|34=155|52=20260416-01:50:32|11=1924874564|21=1|55=AMZN|54=2|60=20260416-01:50:32|40=2|44=150.00|38=100|59=0|10=255|
< 8=FIX.4.2|9=136|35=D|49=MINIFIX|56=EXCHANGE|34=156|52=20260416-01:50:32|11=1924874566|21=1|55=AMZN|54=1|60=20260416-01:50:32|40=2|44=150.00|38=100|59=0|10=001|
> 8=FIX.4.2|9=221|35=8|34=144|49=EXCHANGE|52=20260416-01:50:32.622|56=MINIFIX|6=0|11=1924874494|14=0|17=EXEC-1776303564876|31=0|32=0|37=20260416-072032-613538|38=100|39=0|40=2|44=150|54=1|55=DIS|59=0|60=20260416-07:20:32.622|150=0|151=100|10=208|
< 8=FIX.4.2|9=135|35=D|49=MINIFIX|56=EXCHANGE|34=157|52=20260416-01:50:32|11=1924874568|21=1|55=BAC|54=2|60=20260416-01:50:32|40=2|44=150.00|38=100|59=0|10=148|
> 8=FIX.4.2|9=221|35=8|34=145|49=EXCHANGE|52=20260416-01:50:32.623|56=MINIFIX|6=0|11=1924874496|14=0|17=EXEC-1776303564877|31=0|32=0|37=20260416-072032-613539|38=100|39=0|40=2|44=150|54=2|55=BAC|59=0|60=20260416-07:20:32.623|150=0|151=100|10=190|
< 8=FIX.4.2|9=136|35=D|49=MINIFIX|56=EXCHANGE|34=158|52=20260416-01:50:32|11=1924874570|21=1|55=MSFT|54=1|60=20260416-01:50:32|40=2|44=150.00|38=100|59=0|10=002|
< 8=FIX.4.2|9=136|35=D|49=MINIFIX|56=EXCHANGE|34=159|52=20260416-01:50:32|11=1924874572|21=1|55=AAPL|54=2|60=20260416-01:50:32|40=2|44=150.00|38=100|59=0|10=234|
> 8=FIX.4.2|9=268|35=8|34=146|49=EXCHANGE|52=20260416-01:50:32.625|56=MINIFIX|6=240.5|11=1924874386|14=100|17=EXEC-1776304232623-1364|31=240.5|32=100|37=20260416-072032-613484|38=180|39=1|40=2|44=240.5|54=1|55=BAC|59=0|60=20260416-07:20:32.625|150=F|151=80|527=TRADE-1776304232623-1364|10=114|
< 8=FIX.4.2|9=135|35=D|49=MINIFIX|56=EXCHANGE|34=160|52=20260416-01:50:32|11=1924874574|21=1|55=DIS|54=1|60=20260416-01:50:32|40=2|44=150.00|38=100|59=0|10=164|
> 8=FIX.4.2|9=265|35=8|34=147|49=EXCHANGE|52=20260416-01:50:32.625|56=MINIFIX|6=240.5|11=1924874496|14=100|17=EXEC-1776304232623-1364|31=240.5|32=100|37=20260416-072032-613539|38=100|39=2|40=2|44=150|54=2|55=BAC|59=0|60=20260416-07:20:32.625|150=F|151=0|527=TRADE-1776304232623-1364|10=210|
< 8=FIX.4.2|9=134|35=D|49=MINIFIX|56=EXCHANGE|34=161|52=20260416-01:50:32|11=1924874576|21=1|55=MA|54=2|60=20260416-01:50:32|40=2|44=150.00|38=100|59=0|10=085|
> 8=FIX.4.2|9=222|35=8|34=148|49=EXCHANGE|52=20260416-01:50:32.626|56=MINIFIX|6=0|11=1924874498|14=0|17=EXEC-1776303564880|31=0|32=0|37=20260416-072032-613540|38=100|39=0|40=2|44=150|54=1|55=AMZN|59=0|60=20260416-07:20:32.626|150=0|151=100|10=043|
< 8=FIX.4.2|9=136|35=D|49=MINIFIX|56=EXCHANGE|34=162|52=20260416-01:50:32|11=1924874578|21=1|55=AMZN|54=1|60=20260416-01:50:32|40=2|44=150.00|38=100|59=0|10=001|
< 8=FIX.4.2|9=135|35=D|49=MINIFIX|56=EXCHANGE|34=163|52=20260416-01:50:32|11=1924874580|21=1|55=DIS|54=2|60=20260416-01:50:32|40=2|44=150.00|38=100|59=0|10=165|
> 8=FIX.4.2|9=263|35=8|34=149|49=EXCHANGE|52=20260416-01:50:32.627|56=MINIFIX|6=179.7|11=1924874464|14=100|17=EXEC-1776304232626-1365|31=150|32=40|37=20260416-072032-613523|38=100|39=2|40=2|44=150|54=2|55=AMZN|59=0|60=20260416-07:20:32.627|150=F|151=0|527=TRADE-1776304232626-1365|10=191|
< 8=FIX.4.2|9=135|35=D|49=MINIFIX|56=EXCHANGE|34=164|52=20260416-01:50:32|11=1924874582|21=1|55=BAC|54=1|60=20260416-01:50:32|40=2|44=150.00|38=100|59=0|10=141|
< 8=FIX.4.2|9=136|35=D|49=MINIFIX|56=EXCHANGE|34=165|52=20260416-01:50:32|11=1924874584|21=1|55=AAPL|54=2|60=20260416-01:50:32|40=2|44=150.00|38=100|59=0|10=234|
> 8=FIX.4.2|9=261|35=8|34=150|49=EXCHANGE|52=20260416-01:50:32.628|56=MINIFIX|6=150|11=1924874480|14=60|17=EXEC-1776304232626-1366|31=150|32=60|37=20260416-072032-613531|38=100|39=1|40=2|44=150|54=2|55=AMZN|59=0|60=20260416-07:20:32.628|150=F|151=40|527=TRADE-1776304232626-1366|10=080|
> 8=FIX.4.2|9=261|35=8|34=151|49=EXCHANGE|52=20260416-01:50:32.628|56=MINIFIX|6=150|11=1924874498|14=40|17=EXEC-1776304232626-1365|31=150|32=40|37=20260416-072032-613540|38=100|39=1|40=2|44=150|54=1|55=AMZN|59=0|60=20260416-07:20:32.628|150=F|151=60|527=TRADE-1776304232626-1365|10=085|
< 8=FIX.4.2|9=136|35=D|49=MINIFIX|56=EXCHANGE|34=166|52=20260416-01:50:32|11=1924874586|21=1|55=MSFT|54=1|60=20260416-01:50:32|40=2|44=150.00|38=100|59=0|10=008|
> 8=FIX.4.2|9=261|35=8|34=152|49=EXCHANGE|52=20260416-01:50:32.629|56=MINIFIX|6=150|11=1924874498|14=100|17=EXEC-1776304232626-1366|31=150|32=60|37=20260416-072032-613540|38=100|39=2|40=2|44=150|54=1|55=AMZN|59=0|60=20260416-07:20:32.629|150=F|151=0|527=TRADE-1776304232626-1366|10=084|
< 8=FIX.4.2|9=135|35=D|49=MINIFIX|56=EXCHANGE|34=167|52=20260416-01:50:32|11=1924874588|21=1|55=BAC|54=2|60=20260416-01:50:32|40=2|44=150.00|38=100|59=0|10=151|
> 8=FIX.4.2|9=221|35=8|34=153|49=EXCHANGE|52=20260416-01:50:32.630|56=MINIFIX|6=0|11=1924874500|14=0|17=EXEC-1776303564885|31=0|32=0|37=20260416-072032-613541|38=100|39=0|40=2|44=150|54=2|55=DIS|59=0|60=20260416-07:20:32.630|150=0|151=100|10=189|
< 8=FIX.4.2|9=136|35=D|49=MINIFIX|56=EXCHANGE|34=168|52=20260416-01:50:32|11=1924874590|21=1|55=MSFT|54=1|60=20260416-01:50:32|40=2|44=150.00|38=100|59=0|10=005|
< 8=FIX.4.2|9=136|35=D|49=MINIFIX|56=EXCHANGE|34=169|52=20260416-01:50:32|11=1924874592|21=1|55=AAPL|54=2|60=20260416-01:50:32|40=2|44=150.00|38=100|59=0|10=237|
> 8=FIX.4.2|9=269|35=8|34=154|49=EXCHANGE|52=20260416-01:50:32.631|56=MINIFIX|6=210.25|11=1924874444|14=160|17=EXEC-1776304232630-1367|31=210.25|32=60|37=20260416-072032-613513|38=160|39=2|40=2|44=210.25|54=1|55=DIS|59=0|60=20260416-07:20:32.631|150=F|151=0|527=TRADE-1776304232630-1367|10=171|
< 8=FIX.4.2|9=136|35=D|49=MINIFIX|56=EXCHANGE|34=170|52=20260416-01:50:32|11=1924874594|21=1|55=AAPL|54=1|60=20260416-01:50:32|40=2|44=150.00|38=100|59=0|10=230|
> 8=FIX.4.2|9=270|35=8|34=155|49=EXCHANGE|52=20260416-01:50:32.632|56=MINIFIX|6=184.75|11=1924874402|14=40|17=EXEC-1776304232630-1368|31=184.75|32=40|37=20260416-072032-613492|38=170|39=1|40=2|44=184.75|54=1|55=DIS|59=0|60=20260416-07:20:32.632|150=F|151=130|527=TRADE-1776304232630-1368|10=004|
< 8=FIX.4.2|9=136|35=D|49=MINIFIX|56=EXCHANGE|34=171|52=20260416-01:50:32|11=1924874596|21=1|55=MSFT|54=2|60=20260416-01:50:32|40=2|44=150.00|38=100|59=0|10=006|
> 8=FIX.4.2|9=266|35=8|34=156|49=EXCHANGE|52=20260416-01:50:32.632|56=MINIFIX|6=200.05|11=1924874500|14=60|17=EXEC-1776304232630-1367|31=210.25|32=60|37=20260416-072032-613541|38=100|39=1|40=2|44=150|54=2|55=DIS|59=0|60=20260416-07:20:32.632|150=F|151=40|527=TRADE-1776304232630-1367|10=014|
> 8=FIX.4.2|9=266|35=8|34=157|49=EXCHANGE|52=20260416-01:50:32.632|56=MINIFIX|6=200.05|11=1924874500|14=100|17=EXEC-1776304232630-1368|31=184.75|32=40|37=20260416-072032-613541|38=100|39=2|40=2|44=150|54=2|55=DIS|59=0|60=20260416-07:20:32.632|150=F|151=0|527=TRADE-1776304232630-1368|10=022|
< 8=FIX.4.2|9=136|35=D|49=MINIFIX|56=EXCHANGE|34=172|52=20260416-01:50:32|11=1924874598|21=1|55=AAPL|54=1|60=20260416-01:50:32|40=2|44=150.00|38=100|59=0|10=236|
> 8=FIX.4.2|9=222|35=8|34=158|49=EXCHANGE|52=20260416-01:50:32.633|56=MINIFIX|6=0|11=1924874502|14=0|17=EXEC-1776303564890|31=0|32=0|37=20260416-072032-613542|38=100|39=0|40=2|44=150|54=1|55=AAPL|59=0|60=20260416-07:20:32.633|150=0|151=100|10=005|
< 8=FIX.4.2|9=135|35=D|49=MINIFIX|56=EXCHANGE|34=173|52=20260416-01:50:32|11=1924874600|21=1|55=DIS|54=2|60=20260416-01:50:32|40=2|44=150.00|38=100|59=0|10=159|
> 8=FIX.4.2|9=221|35=8|34=159|49=EXCHANGE|52=20260416-01:50:32.634|56=MINIFIX|6=0|11=1924874504|14=0|17=EXEC-1776303564891|31=0|32=0|37=20260416-072032-613543|38=100|39=0|40=2|44=150|54=2|55=BAC|59=0|60=20260416-07:20:32.634|150=0|151=100|10=180|
< 8=FIX.4.2|9=135|35=D|49=MINIFIX|56=EXCHANGE|34=174|52=20260416-01:50:32|11=1924874602|21=1|55=BAC|54=1|60=20260416-01:50:32|40=2|44=150.00|38=100|59=0|10=135|
> 8=FIX.4.2|9=266|35=8|34=160|49=EXCHANGE|52=20260416-01:50:32.635|56=MINIFIX|6=240.5|11=1924874386|14=180|17=EXEC-1776304232634-1369|31=240.5|32=80|37=20260416-072032-613484|38=180|39=2|40=2|44=240.5|54=1|55=BAC|59=0|60=20260416-07:20:32.635|150=F|151=0|527=TRADE-1776304232634-1369|10=036|
< 8=FIX.4.2|9=136|35=D|49=MINIFIX|56=EXCHANGE|34=175|52=20260416-01:50:32|11=1924874604|21=1|55=AAPL|54=2|60=20260416-01:50:32|40=2|44=150.00|38=100|59=0|10=228|
> 8=FIX.4.2|9=264|35=8|34=161|49=EXCHANGE|52=20260416-01:50:32.636|56=MINIFIX|6=240.5|11=1924874504|14=80|17=EXEC-1776304232634-1369|31=240.5|32=80|37=20260416-072032-613543|38=100|39=1|40=2|44=150|54=2|55=BAC|59=0|60=20260416-07:20:32.636|150=F|151=20|527=TRADE-1776304232634-1369|10=175|
< 8=FIX.4.2|9=134|35=D|49=MINIFIX|56=EXCHANGE|34=176|52=20260416-01:50:32|11=1924874606|21=1|55=MA|54=1|60=20260416-01:50:32|40=2|44=150.00|38=100|59=0|10=084|
< 8=FIX.4.2|9=134|35=D|49=MINIFIX|56=EXCHANGE|34=177|52=20260416-01:50:32|11=1924874608|21=1|55=MA|54=2|60=20260416-01:50:32|40=2|44=150.00|38=100|59=0|10=088|
> 8=FIX.4.2|9=222|35=8|34=162|49=EXCHANGE|52=20260416-01:50:32.637|56=MINIFIX|6=0|11=1924874506|14=0|17=EXEC-1776303564894|31=0|32=0|37=20260416-072032-613544|38=100|39=0|40=2|44=150|54=1|55=MSFT|59=0|60=20260416-07:20:32.637|150=0|151=100|10=046|
< 8=FIX.4.2|9=134|35=D|49=MINIFIX|56=EXCHANGE|34=178|52=20260416-01:50:32|11=1924874610|21=1|55=MA|54=1|60=20260416-01:50:32|40=2|44=150.00|38=100|59=0|10=081|
> 8=FIX.4.2|9=220|35=8|34=163|49=EXCHANGE|52=20260416-01:50:32.638|56=MINIFIX|6=0|11=1924874508|14=0|17=EXEC-1776303564895|31=0|32=0|37=20260416-072032-613545|38=100|39=0|40=2|44=150|54=2|55=MA|59=0|60=20260416-07:20:32.638|150=0|151=100|10=136|
< 8=FIX.4.2|9=136|35=D|49=MINIFIX|56=EXCHANGE|34=179|52=20260416-01:50:32|11=1924874612|21=1|55=AAPL|54=2|60=20260416-01:50:32|40=2|44=150.00|38=100|59=0|10=231|
< 8=FIX.4.2|9=136|35=D|49=MINIFIX|56=EXCHANGE|34=180|52=20260416-01:50:32|11=1924874614|21=1|55=AAPL|54=1|60=20260416-01:50:32|40=2|44=150.00|38=100|59=0|10=224|
> 8=FIX.4.2|9=268|35=8|34=164|49=EXCHANGE|52=20260416-01:50:32.639|56=MINIFIX|6=235.75|11=1924874384|14=140|17=EXEC-1776304232638-1370|31=235.75|32=90|37=20260416-072032-613483|38=140|39=2|40=2|44=235.75|54=1|55=MA|59=0|60=20260416-07:20:32.639|150=F|151=0|527=TRADE-1776304232638-1370|10=153|
< 8=FIX.4.2|9=135|35=D|49=MINIFIX|56=EXCHANGE|34=181|52=20260416-01:50:32|11=1924874616|21=1|55=DIS|54=2|60=20260416-01:50:32|40=2|44=150.00|38=100|59=0|10=165|
> 8=FIX.4.2|9=266|35=8|34=165|49=EXCHANGE|52=20260416-01:50:32.640|56=MINIFIX|6=229.5|11=1924874306|14=10|17=EXEC-1776304232638-1371|31=229.5|32=10|37=20260416-072032-613444|38=140|39=1|40=2|44=229.5|54=1|55=MA|59=0|60=20260416-07:20:32.640|150=F|151=130|527=TRADE-1776304232638-1371|10=012|
< 8=FIX.4.2|9=135|35=D|49=MINIFIX|56=EXCHANGE|34=182|52=20260416-01:50:32|11=1924874618|21=1|55=BAC|54=1|60=20260416-01:50:32|40=2|44=150.00|38=100|59=0|10=141|
> 8=FIX.4.2|9=266|35=8|34=166|49=EXCHANGE|52=20260416-01:50:32.640|56=MINIFIX|6=235.125|11=1924874508|14=90|17=EXEC-1776304232638-1370|31=235.75|32=90|37=20260416-072032-613545|38=100|39=1|40=2|44=150|54=2|55=MA|59=0|60=20260416-07:20:32.640|150=F|151=10|527=TRADE-1776304232638-1370|10=021|
> 8=FIX.4.2|9=265|35=8|34=167|49=EXCHANGE|52=20260416-01:50:32.640|56=MINIFIX|6=235.125|11=1924874508|14=100|17=EXEC-1776304232638-1371|31=229.5|32=10|37=20260416-072032-613545|38=100|39=2|40=2|44=150|54=2|55=MA|59=0|60=20260416-07:20:32.640|150=F|151=0|527=TRADE-1776304232638-1371|10=211|
< 8=FIX.4.2|9=134|35=D|49=MINIFIX|56=EXCHANGE|34=183|52=20260416-01:50:32|11=1924874620|21=1|55=MA|54=2|60=20260416-01:50:32|40=2|44=150.00|38=100|59=0|10=079|
> 8=FIX.4.2|9=221|35=8|34=168|49=EXCHANGE|52=20260416-01:50:32.641|56=MINIFIX|6=0|11=1924874510|14=0|17=EXEC-1776303564900|31=0|32=0|37=20260416-072032-613546|38=100|39=0|40=2|44=150|54=1|55=BAC|59=0|60=20260416-07:20:32.641|150=0|151=100|10=166|
< 8=FIX.4.2|9=134|35=D|49=MINIFIX|56=EXCHANGE|34=184|52=20260416-01:50:32|11=1924874622|21=1|55=MA|54=1|60=20260416-01:50:32|40=2|44=150.00|38=100|59=0|10=081|
< 8=FIX.4.2|9=136|35=D|49=MINIFIX|56=EXCHANGE|34=185|52=20260416-01:50:32|11=1924874624|21=1|55=AMZN|54=2|60=20260416-01:50:32|40=2|44=150.00|38=100|59=0|10=255|
> 8=FIX.4.2|9=262|35=8|34=169|49=EXCHANGE|52=20260416-01:50:32.642|56=MINIFIX|6=222.4|11=1924874504|14=100|17=EXEC-1776304232641-1372|31=150|32=20|37=20260416-072032-613543|38=100|39=2|40=2|44=150|54=2|55=BAC|59=0|60=20260416-07:20:32.642|150=F|151=0|527=TRADE-1776304232641-1372|10=045|
> 8=FIX.4.2|9=260|35=8|34=170|49=EXCHANGE|52=20260416-01:50:32.643|56=MINIFIX|6=150|11=1924874510|14=20|17=EXEC-1776304232641-1372|31=150|32=20|37=20260416-072032-613546|38=100|39=1|40=2|44=150|54=1|55=BAC|59=0|60=20260416-07:20:32.643|150=F|151=80|527=TRADE-1776304232641-1372|10=202|
< 8=FIX.4.2|9=136|35=D|49=MINIFIX|56=EXCHANGE|34=186|52=20260416-01:50:32|11=1924874626|21=1|55=AMZN|54=1|60=20260416-01:50:32|40=2|44=150.00|38=100|59=0|10=001|
< 8=FIX.4.2|9=136|35=D|49=MINIFIX|56=EXCHANGE|34=187|52=20260416-01:50:32|11=1924874628|21=1|55=MSFT|54=2|60=20260416-01:50:32|40=2|44=150.00|38=100|59=0|10=009|
> 8=FIX.4.2|9=220|35=8|34=171|49=EXCHANGE|52=20260416-01:50:32.644|56=MINIFIX|6=0|11=1924874512|14=0|17=EXEC-1776303564903|31=0|32=0|37=20260416-072032-613547|38=100|39=0|40=2|44=150|54=2|55=MA|59=0|60=20260416-07:20:32.644|150=0|151=100|10=116|
< 8=FIX.4.2|9=134|35=D|49=MINIFIX|56=EXCHANGE|34=188|52=20260416-01:50:32|11=1924874630|21=1|55=MA|54=1|60=20260416-01:50:32|40=2|44=150.00|38=100|59=0|10=084|
< 8=FIX.4.2|9=136|35=D|49=MINIFIX|56=EXCHANGE|34=189|52=20260416-01:50:32|11=1924874632|21=1|55=AAPL|54=2|60=20260416-01:50:32|40=2|44=150.00|38=100|59=0|10=234|
> 8=FIX.4.2|9=267|35=8|34=172|49=EXCHANGE|52=20260416-01:50:32.645|56=MINIFIX|6=229.5|11=1924874306|14=110|17=EXEC-1776304232644-1373|31=229.5|32=100|37=20260416-072032-613444|38=140|39=1|40=2|44=229.5|54=1|55=MA|59=0|60=20260416-07:20:32.645|150=F|151=30|527=TRADE-1776304232644-1373|10=067|
> 8=FIX.4.2|9=264|35=8|34=173|49=EXCHANGE|52=20260416-01:50:32.645|56=MINIFIX|6=229.5|11=1924874512|14=100|17=EXEC-1776304232644-1373|31=229.5|32=100|37=20260416-072032-613547|38=100|39=2|40=2|44=150|54=2|55=MA|59=0|60=20260416-07:20:32.645|150=F|151=0|527=TRADE-1776304232644-1373|10=164|
< 8=FIX.4.2|9=136|35=D|49=MINIFIX|56=EXCHANGE|34=190|52=20260416-01:50:32|11=1924874634|21=1|55=AMZN|54=1|60=20260416-01:50:32|40=2|44=150.00|38=100|59=0|10=251|
> 8=FIX.4.2|9=222|35=8|34=174|49=EXCHANGE|52=20260416-01:50:32.646|56=MINIFIX|6=0|11=1924874514|14=0|17=EXEC-1776303564906|31=0|32=0|37=20260416-072032-613548|38=100|39=0|40=2|44=150|54=1|55=AAPL|59=0|60=20260416-07:20:32.646|150=0|151=100|10=018|
< 8=FIX.4.2|9=136|35=D|49=MINIFIX|56=EXCHANGE|34=191|52=20260416-01:50:32|11=1924874636|21=1|55=AMZN|54=2|60=20260416-01:50:32|40=2|44=150.00|38=100|59=0|10=255|
< 8=FIX.4.2|9=136|35=D|49=MINIFIX|56=EXCHANGE|34=192|52=20260416-01:50:32|11=1924874638|21=1|55=AAPL|54=1|60=20260416-01:50:32|40=2|44=150.00|38=100|59=0|10=233|
> 8=FIX.4.2|9=220|35=8|34=175|49=EXCHANGE|52=20260416-01:50:32.647|56=MINIFIX|6=0|11=1924874516|14=0|17=EXEC-1776303564907|31=0|32=0|37=20260416-072032-613549|38=100|39=0|40=2|44=150|54=2|55=MA|59=0|60=20260416-07:20:32.647|150=0|151=100|10=136|
< 8=FIX.4.2|9=135|35=D|49=MINIFIX|56=EXCHANGE|34=193|52=20260416-01:50:32|11=1924874640|21=1|55=DIS|54=2|60=20260416-01:50:32|40=2|44=150.00|38=100|59=0|10=165|
< 8=FIX.4.2|9=136|35=D|49=MINIFIX|56=EXCHANGE|34=194|52=20260416-01:50:32|11=1924874642|21=1|55=MSFT|54=1|60=20260416-01:50:32|40=2|44=150.00|38=100|59=0|10=002|
> 8=FIX.4.2|9=265|35=8|34=176|49=EXCHANGE|52=20260416-01:50:32.648|56=MINIFIX|6=229.5|11=1924874306|14=140|17=EXEC-1776304232647-1374|31=229.5|32=30|37=20260416-072032-613444|38=140|39=2|40=2|44=229.5|54=1|55=MA|59=0|60=20260416-07:20:32.648|150=F|151=0|527=TRADE-1776304232647-1374|10=246|
< 8=FIX.4.2|9=136|35=D|49=MINIFIX|56=EXCHANGE|34=195|52=20260416-01:50:32|11=1924874644|21=1|55=AAPL|54=2|60=20260416-01:50:32|40=2|44=150.00|38=100|59=0|10=234|
> 8=FIX.4.2|9=265|35=8|34=177|49=EXCHANGE|52=20260416-01:50:32.650|56=MINIFIX|6=226.5|11=1924874430|14=70|17=EXEC-1776304232647-1375|31=226.5|32=70|37=20260416-072032-613506|38=160|39=1|40=2|44=226.5|54=1|55=MA|59=0|60=20260416-07:20:32.650|150=F|151=90|527=TRADE-1776304232647-1375|10=239|
< 8=FIX.4.2|9=136|35=D|49=MINIFIX|56=EXCHANGE|34=196|52=20260416-01:50:32|11=1924874646|21=1|55=AAPL|54=1|60=20260416-01:50:32|40=2|44=150.00|38=100|59=0|10=236|
> 8=FIX.4.2|9=263|35=8|34=178|49=EXCHANGE|52=20260416-01:50:32.650|56=MINIFIX|6=227.4|11=1924874516|14=30|17=EXEC-1776304232647-1374|31=229.5|32=30|37=20260416-072032-613549|38=100|39=1|40=2|44=150|54=2|55=MA|59=0|60=20260416-07:20:32.650|150=F|151=70|527=TRADE-1776304232647-1374|10=133|
> 8=FIX.4.2|9=263|35=8|34=179|49=EXCHANGE|52=20260416-01:50:32.650|56=MINIFIX|6=227.4|11=1924874516|14=100|17=EXEC-1776304232647-1375|31=226.5|32=70|37=20260416-072032-613549|38=100|39=2|40=2|44=150|54=2|55=MA|59=0|60=20260416-07:20:32.650|150=F|151=0|527=TRADE-1776304232647-1375|10=129|
< 8=FIX.4.2|9=136|35=D|49=MINIFIX|56=EXCHANGE|34=197|52=20260416-01:50:32|11=1924874648|21=1|55=MSFT|54=2|60=20260416-01:50:32|40=2|44=150.00|38=100|59=0|10=012|
< 8=FIX.4.2|9=136|35=D|49=MINIFIX|56=EXCHANGE|34=198|52=20260416-01:50:32|11=1924874650|21=1|55=MSFT|54=1|60=20260416-01:50:32|40=2|44=150.00|38=100|59=0|10=005|
> 8=FIX.4.2|9=221|35=8|34=180|49=EXCHANGE|52=20260416-01:50:32.651|56=MINIFIX|6=0|11=1924874518|14=0|17=EXEC-1776303564912|31=0|32=0|37=20260416-072032-613550|38=100|39=0|40=2|44=150|54=1|55=DIS|59=0|60=20260416-07:20:32.651|150=0|151=100|10=194|
< 8=FIX.4.2|9=134|35=D|49=MINIFIX|56=EXCHANGE|34=199|52=20260416-01:50:32|11=1924874652|21=1|55=MA|54=2|60=20260416-01:50:32|40=2|44=150.00|38=100|59=0|10=091|
> 8=FIX.4.2|9=222|35=8|34=181|49=EXCHANGE|52=20260416-01:50:32.653|56=MINIFIX|6=0|11=1924874520|14=0|17=EXEC-1776303564913|31=0|32=0|37=20260416-072032-613551|38=100|39=0|40=2|44=150|54=2|55=AMZN|59=0|60=20260416-07:20:32.653|150=0|151=100|10=026|
< 8=FIX.4.2|9=136|35=D|49=MINIFIX|56=EXCHANGE|34=200|52=20260416-01:50:32|11=1924874654|21=1|55=MSFT|54=1|60=20260416-01:50:32|40=2|44=150.00|38=100|59=0|10=249|
< 8=FIX.4.2|9=135|35=D|49=MINIFIX|56=EXCHANGE|34=201|52=20260416-01:50:32|11=1924874656|21=1|55=DIS|54=2|60=20260416-01:50:32|40=2|44=150.00|38=100|59=0|10=162|
> 8=FIX.4.2|9=220|35=8|34=182|49=EXCHANGE|52=20260416-01:50:32.653|56=MINIFIX|6=0|11=1924874522|14=0|17=EXEC-1776303564914|31=0|32=0|37=20260416-072032-613552|38=100|39=0|40=2|44=150|54=1|55=MA|59=0|60=20260416-07:20:32.653|150=0|151=100|10=116|
< 8=FIX.4.2|9=136|35=D|49=MINIFIX|56=EXCHANGE|34=202|52=20260416-01:50:32|11=1924874658|21=1|55=AMZN|54=1|60=20260416-01:50:32|40=2|44=150.00|38=100|59=0|10=251|
> 8=FIX.4.2|9=220|35=8|34=183|49=EXCHANGE|52=20260416-01:50:32.654|56=MINIFIX|6=0|11=1924874524|14=0|17=EXEC-1776303564915|31=0|32=0|37=20260416-072032-613553|38=100|39=0|40=2|44=150|54=2|55=MA|59=0|60=20260416-07:20:32.654|150=0|151=100|10=124|
< 8=FIX.4.2|9=135|35=D|49=MINIFIX|56=EXCHANGE|34=203|52=20260416-01:50:32|11=1924874660|21=1|55=BAC|54=2|60=20260416-01:50:32|40=2|44=150.00|38=100|59=0|10=133|
> 8=FIX.4.2|9=265|35=8|34=184|49=EXCHANGE|52=20260416-01:50:32.656|56=MINIFIX|6=226.5|11=1924874430|14=160|17=EXEC-1776304232654-1376|31=226.5|32=90|37=20260416-072032-613506|38=160|39=2|40=2|44=226.5|54=1|55=MA|59=0|60=20260416-07:20:32.656|150=F|151=0|527=TRADE-1776304232654-1376|10=241|
< 8=FIX.4.2|9=136|35=D|49=MINIFIX|56=EXCHANGE|34=204|52=20260416-01:50:32|11=1924874662|21=1|55=AAPL|54=1|60=20260416-01:50:32|40=2|44=150.00|38=100|59=0|10=224|
> 8=FIX.4.2|9=259|35=8|34=185|49=EXCHANGE|52=20260416-01:50:32.657|56=MINIFIX|6=150|11=1924874470|14=10|17=EXEC-1776304232654-1377|31=150|32=10|37=20260416-072032-613526|38=100|39=1|40=2|44=150|54=1|55=MA|59=0|60=20260416-07:20:32.657|150=F|151=90|527=TRADE-1776304232654-1377|10=190|
< 8=FIX.4.2|9=135|35=D|49=MINIFIX|56=EXCHANGE|34=205|52=20260416-01:50:32|11=1924874664|21=1|55=DIS|54=2|60=20260416-01:50:32|40=2|44=150.00|38=100|59=0|10=165|
> 8=FIX.4.2|9=264|35=8|34=186|49=EXCHANGE|52=20260416-01:50:32.657|56=MINIFIX|6=218.85|11=1924874524|14=90|17=EXEC-1776304232654-1376|31=226.5|32=90|37=20260416-072032-613553|38=100|39=1|40=2|44=150|54=2|55=MA|59=0|60=20260416-07:20:32.657|150=F|151=10|527=TRADE-1776304232654-1376|10=201|
> 8=FIX.4.2|9=262|35=8|34=187|49=EXCHANGE|52=20260416-01:50:32.657|56=MINIFIX|6=218.85|11=1924874524|14=100|17=EXEC-1776304232654-1377|31=150|32=10|37=20260416-072032-613553|38=100|39=2|40=2|44=150|54=2|55=MA|59=0|60=20260416-07:20:32.657|150=F|151=0|527=TRADE-1776304232654-1377|10=083|
< 8=FIX.4.2|9=135|35=D|49=MINIFIX|56=EXCHANGE|34=206|52=20260416-01:50:32|11=1924874666|21=1|55=BAC|54=1|60=20260416-01:50:32|40=2|44=150.00|38=100|59=0|10=141|
> 8=FIX.4.2|9=221|35=8|34=188|49=EXCHANGE|52=20260416-01:50:32.658|56=MINIFIX|6=0|11=1924874526|14=0|17=EXEC-1776303564920|31=0|32=0|37=20260416-072032-613554|38=100|39=0|40=2|44=150|54=1|55=BAC|59=0|60=20260416-07:20:32.658|150=0|151=100|10=192|
< 8=FIX.4.2|9=136|35=D|49=MINIFIX|56=EXCHANGE|34=207|52=20260416-01:50:32|11=1924874668|21=1|55=MSFT|54=2|60=20260416-01:50:32|40=2|44=150.00|38=100|59=0|10=006|
< 8=FIX.4.2|9=135|35=D|49=MINIFIX|56=EXCHANGE|34=208|52=20260416-01:50:32|11=1924874670|21=1|55=BAC|54=1|60=20260416-01:50:32|40=2|44=150.00|38=100|59=0|10=138|
> 8=FIX.4.2|9=222|35=8|34=189|49=EXCHANGE|52=20260416-01:50:32.660|56=MINIFIX|6=0|11=1924874528|14=0|17=EXEC-1776303564921|31=0|32=0|37=20260416-072032-613555|38=100|39=0|40=2|44=150|54=2|55=AMZN|59=0|60=20260416-07:20:32.660|150=0|151=100|10=041|
< 8=FIX.4.2|9=136|35=D|49=MINIFIX|56=EXCHANGE|34=209|52=20260416-01:50:32|11=1924874672|21=1|55=AAPL|54=2|60=20260416-01:50:32|40=2|44=150.00|38=100|59=0|10=231|
< 8=FIX.4.2|9=136|35=D|49=MINIFIX|56=EXCHANGE|34=210|52=20260416-01:50:32|11=1924874674|21=1|55=AMZN|54=1|60=20260416-01:50:32|40=2|44=150.00|38=100|59=0|10=248|
> 8=FIX.4.2|9=222|35=8|34=190|49=EXCHANGE|52=20260416-01:50:32.661|56=MINIFIX|6=0|11=1924874530|14=0|17=EXEC-1776303564922|31=0|32=0|37=20260416-072032-613556|38=100|39=0|40=2|44=150|54=1|55=AAPL|59=0|60=20260416-07:20:32.661|150=0|151=100|10=005|
< 8=FIX.4.2|9=136|35=D|49=MINIFIX|56=EXCHANGE|34=211|52=20260416-01:50:32|11=1924874676|21=1|55=MSFT|54=2|60=20260416-01:50:32|40=2|44=150.00|38=100|59=0|10=000|
< 8=FIX.4.2|9=136|35=D|49=MINIFIX|56=EXCHANGE|34=212|52=20260416-01:50:32|11=1924874678|21=1|55=AMZN|54=1|60=20260416-01:50:32|40=2|44=150.00|38=100|59=0|10=254|
> 8=FIX.4.2|9=221|35=8|34=191|49=EXCHANGE|52=20260416-01:50:32.662|56=MINIFIX|6=0|11=1924874532|14=0|17=EXEC-1776303564923|31=0|32=0|37=20260416-072032-613557|38=100|39=0|40=2|44=150|54=2|55=BAC|59=0|60=20260416-07:20:32.662|150=0|151=100|10=180|
< 8=FIX.4.2|9=134|35=D|49=MINIFIX|56=EXCHANGE|34=213|52=20260416-01:50:32|11=1924874680|21=1|55=MA|54=2|60=20260416-01:50:32|40=2|44=150.00|38=100|59=0|10=079|
> 8=FIX.4.2|9=260|35=8|34=192|49=EXCHANGE|52=20260416-01:50:32.663|56=MINIFIX|6=150|11=1924874510|14=100|17=EXEC-1776304232662-1378|31=150|32=80|37=20260416-072032-613546|38=100|39=2|40=2|44=150|54=1|55=BAC|59=0|60=20260416-07:20:32.663|150=F|151=0|527=TRADE-1776304232662-1378|10=226|
< 8=FIX.4.2|9=136|35=D|49=MINIFIX|56=EXCHANGE|34=214|52=20260416-01:50:32|11=1924874682|21=1|55=AMZN|54=1|60=20260416-01:50:32|40=2|44=150.00|38=100|59=0|10=251|
< 8=FIX.4.2|9=135|35=D|49=MINIFIX|56=EXCHANGE|34=215|52=20260416-01:50:32|11=1924874684|21=1|55=BAC|54=2|60=20260416-01:50:32|40=2|44=150.00|38=100|59=0|10=142|
> 8=FIX.4.2|9=260|35=8|34=193|49=EXCHANGE|52=20260416-01:50:32.664|56=MINIFIX|6=150|11=1924874526|14=20|17=EXEC-1776304232662-1379|31=150|32=20|37=20260416-072032-613554|38=100|39=1|40=2|44=150|54=1|55=BAC|59=0|60=20260416-07:20:32.664|150=F|151=80|527=TRADE-1776304232662-1379|10=239|
< 8=FIX.4.2|9=135|35=D|49=MINIFIX|56=EXCHANGE|34=216|52=20260416-01:50:32|11=1924874686|21=1|55=BAC|54=1|60=20260416-01:50:32|40=2|44=150.00|38=100|59=0|10=144|
> 8=FIX.4.2|9=260|35=8|34=194|49=EXCHANGE|52=20260416-01:50:32.664|56=MINIFIX|6=150|11=1924874532|14=80|17=EXEC-1776304232662-1378|31=150|32=80|37=20260416-072032-613557|38=100|39=1|40=2|44=150|54=2|55=BAC|59=0|60=20260416-07:20:32.664|150=F|151=20|527=TRADE-1776304232662-1378|10=245|
> 8=FIX.4.2|9=260|35=8|34=195|49=EXCHANGE|52=20260416-01:50:32.665|56=MINIFIX|6=150|11=1924874532|14=100|17=EXEC-1776304232662-1379|31=150|32=20|37=20260416-072032-613557|38=100|39=2|40=2|44=150|54=2|55=BAC|59=0|60=20260416-07:20:32.665|150=F|151=0|527=TRADE-1776304232662-1379|10=236|
< 8=FIX.4.2|9=136|35=D|49=MINIFIX|56=EXCHANGE|34=217|52=20260416-01:50:32|11=1924874688|21=1|55=AMZN|54=2|60=20260416-01:50:32|40=2|44=150.00|38=100|59=0|10=005|
< 8=FIX.4.2|9=136|35=D|49=MINIFIX|56=EXCHANGE|34=218|52=20260416-01:50:32|11=1924874690|21=1|55=AMZN|54=1|60=20260416-01:50:32|40=2|44=150.00|38=100|59=0|10=254|
> 8=FIX.4.2|9=222|35=8|34=196|49=EXCHANGE|52=20260416-01:50:32.666|56=MINIFIX|6=0|11=1924874534|14=0|17=EXEC-1776303564928|31=0|32=0|37=20260416-072032-613558|38=100|39=0|40=2|44=150|54=1|55=AMZN|59=0|60=20260416-07:20:32.666|150=0|151=100|10=057|
< 8=FIX.4.2|9=136|35=D|49=MINIFIX|56=EXCHANGE|34=219|52=20260416-01:50:32|11=1924874692|21=1|55=AAPL|54=2|60=20260416-01:50:32|40=2|44=150.00|38=100|59=0|10=234|
> 8=FIX.4.2|9=261|35=8|34=197|49=EXCHANGE|52=20260416-01:50:32.666|56=MINIFIX|6=150|11=1924874480|14=100|17=EXEC-1776304232666-1380|31=150|32=40|37=20260416-072032-613531|38=100|39=2|40=2|44=150|54=2|55=AMZN|59=0|60=20260416-07:20:32.666|150=F|151=0|527=TRADE-1776304232666-1380|10=085|
< 8=FIX.4.2|9=136|35=D|49=MINIFIX|56=EXCHANGE|34=220|52=20260416-01:50:32|11=1924874694|21=1|55=AAPL|54=1|60=20260416-01:50:32|40=2|44=150.00|38=100|59=0|10=227|
< 8=FIX.4.2|9=136|35=D|49=MINIFIX|56=EXCHANGE|34=221|52=20260416-01:50:32|11=1924874696|21=1|55=AAPL|54=2|60=20260416-01:50:32|40=2|44=150.00|38=100|59=0|10=231|
> 8=FIX.4.2|9=261|35=8|34=198|49=EXCHANGE|52=20260416-01:50:32.668|56=MINIFIX|6=150|11=1924874484|14=60|17=EXEC-1776304232666-1381|31=150|32=60|37=20260416-072032-613533|38=100|39=1|40=2|44=150|54=2|55=AMZN|59=0|60=20260416-07:20:32.668|150=F|151=40|527=TRADE-1776304232666-1381|10=108|
> 8=FIX.4.2|9=261|35=8|34=199|49=EXCHANGE|52=20260416-01:50:32.669|56=MINIFIX|6=150|11=1924874534|14=40|17=EXEC-1776304232666-1380|31=150|32=40|37=20260416-072032-613558|38=100|39=1|40=2|44=150|54=1|55=AMZN|59=0|60=20260416-07:20:32.669|150=F|151=60|527=TRADE-1776304232666-1380|10=109|
> 8=FIX.4.2|9=261|35=8|34=200|49=EXCHANGE|52=20260416-01:50:32.669|56=MINIFIX|6=150|11=1924874534|14=100|17=EXEC-1776304232666-1381|31=150|32=60|37=20260416-072032-613558|38=100|39=2|40=2|44=150|54=1|55=AMZN|59=0|60=20260416-07:20:32.669|150=F|151=0|527=TRADE-1776304232666-1381|10=088|
< 8=FIX.4.2|9=135|35=D|49=MINIFIX|56=EXCHANGE|34=222|52=20260416-01:50:32|11=1924874698|21=1|55=DIS|54=1|60=20260416-01:50:32|40=2|44=150.00|38=100|59=0|10=170|
< 8=FIX.4.2|9=135|35=D|49=MINIFIX|56=EXCHANGE|34=223|52=20260416-01:50:32|11=1924874700|21=1|55=BAC|54=2|60=20260416-01:50:32|40=2|44=150.00|38=100|59=0|10=130|
> 8=FIX.4.2|9=220|35=8|34=201|49=EXCHANGE|52=20260416-01:50:32.669|56=MINIFIX|6=0|11=1924874536|14=0|17=EXEC-1776303564933|31=0|32=0|37=20260416-072032-613559|38=100|39=0|40=2|44=150|54=2|55=MA|59=0|60=20260416-07:20:32.669|150=0|151=100|10=136|
< 8=FIX.4.2|9=136|35=D|49=MINIFIX|56=EXCHANGE|34=224|52=20260416-01:50:32|11=1924874702|21=1|55=AMZN|54=1|60=20260416-01:50:32|40=2|44=150.00|38=100|59=0|10=245|
< 8=FIX.4.2|9=136|35=D|49=MINIFIX|56=EXCHANGE|34=225|52=20260416-01:50:32|11=1924874704|21=1|55=MSFT|54=2|60=20260416-01:50:32|40=2|44=150.00|38=100|59=0|10=253|
> 8=FIX.4.2|9=259|35=8|34=202|49=EXCHANGE|52=20260416-01:50:32.670|56=MINIFIX|6=150|11=1924874470|14=100|17=EXEC-1776304232670-1382|31=150|32=90|37=20260416-072032-613526|38=100|39=2|40=2|44=150|54=1|55=MA|59=0|60=20260416-07:20:32.670|150=F|151=0|527=TRADE-1776304232670-1382|10=158|
< 8=FIX.4.2|9=136|35=D|49=MINIFIX|56=EXCHANGE|34=226|52=20260416-01:50:32|11=1924874706|21=1|55=MSFT|54=1|60=20260416-01:50:32|40=2|44=150.00|38=100|59=0|10=255|
< 8=FIX.4.2|9=136|35=D|49=MINIFIX|56=EXCHANGE|34=227|52=20260416-01:50:32|11=1924874708|21=1|55=MSFT|54=2|60=20260416-01:50:32|40=2|44=150.00|38=100|59=0|10=003|
> 8=FIX.4.2|9=259|35=8|34=203|49=EXCHANGE|52=20260416-01:50:32.673|56=MINIFIX|6=150|11=1924874478|14=10|17=EXEC-1776304232670-1383|31=150|32=10|37=20260416-072032-613530|38=100|39=1|40=2|44=150|54=1|55=MA|59=0|60=20260416-07:20:32.673|150=F|151=90|527=TRADE-1776304232670-1383|10=170|
> 8=FIX.4.2|9=259|35=8|34=204|49=EXCHANGE|52=20260416-01:50:32.673|56=MINIFIX|6=150|11=1924874536|14=90|17=EXEC-1776304232670-1382|31=150|32=90|37=20260416-072032-613559|38=100|39=1|40=2|44=150|54=2|55=MA|59=0|60=20260416-07:20:32.673|150=F|151=10|527=TRADE-1776304232670-1382|10=184|
> 8=FIX.4.2|9=259|35=8|34=205|49=EXCHANGE|52=20260416-01:50:32.673|56=MINIFIX|6=150|11=1924874536|14=100|17=EXEC-1776304232670-1383|31=150|32=10|37=20260416-072032-613559|38=100|39=2|40=2|44=150|54=2|55=MA|59=0|60=20260416-07:20:32.673|150=F|151=0|527=TRADE-1776304232670-1383|10=171|
< 8=FIX.4.2|9=136|35=D|49=MINIFIX|56=EXCHANGE|34=228|52=20260416-01:50:32|11=1924874710|21=1|55=AMZN|54=1|60=20260416-01:50:32|40=2|44=150.00|38=100|59=0|10=248|
< 8=FIX.4.2|9=136|35=D|49=MINIFIX|56=EXCHANGE|34=229|52=20260416-01:50:32|11=1924874712|21=1|55=AMZN|54=2|60=20260416-01:50:32|40=2|44=150.00|38=100|59=0|10=252|
> 8=FIX.4.2|9=222|35=8|34=206|49=EXCHANGE|52=20260416-01:50:32.674|56=MINIFIX|6=0|11=1924874538|14=0|17=EXEC-1776303564938|31=0|32=0|37=20260416-072032-613560|38=100|39=0|40=2|44=150|54=1|55=AAPL|59=0|60=20260416-07:20:32.674|150=0|151=100|10=021|
< 8=FIX.4.2|9=136|35=D|49=MINIFIX|56=EXCHANGE|34=230|52=20260416-01:50:32|11=1924874714|21=1|55=AAPL|54=1|60=20260416-01:50:32|40=2|44=150.00|38=100|59=0|10=221|
< 8=FIX.4.2|9=136|35=D|49=MINIFIX|56=EXCHANGE|34=231|52=20260416-01:50:32|11=1924874716|21=1|55=MSFT|54=2|60=20260416-01:50:32|40=2|44=150.00|38=100|59=0|10=253|
> 8=FIX.4.2|9=222|35=8|34=207|49=EXCHANGE|52=20260416-01:50:32.675|56=MINIFIX|6=0|11=1924874540|14=0|17=EXEC-1776303564939|31=0|32=0|37=20260416-072032-613561|38=100|39=0|40=2|44=150|54=2|55=AMZN|59=0|60=20260416-07:20:32.675|150=0|151=100|10=044|
< 8=FIX.4.2|9=136|35=D|49=MINIFIX|56=EXCHANGE|34=232|52=20260416-01:50:32|11=1924874718|21=1|55=AAPL|54=1|60=20260416-01:50:32|40=2|44=150.00|38=100|59=0|10=227|
> 8=FIX.4.2|9=221|35=8|34=208|49=EXCHANGE|52=20260416-01:50:32.676|56=MINIFIX|6=0|11=1924874542|14=0|17=EXEC-1776303564940|31=0|32=0|37=20260416-072032-613562|38=100|39=0|40=2|44=150|54=1|55=BAC|59=0|60=20260416-07:20:32.676|150=0|151=100|10=184|
< 8=FIX.4.2|9=136|35=D|49=MINIFIX|56=EXCHANGE|34=233|52=20260416-01:50:32|11=1924874720|21=1|55=AMZN|54=2|60=20260416-01:50:32|40=2|44=150.00|38=100|59=0|10=246|
> 8=FIX.4.2|9=221|35=8|34=209|49=EXCHANGE|52=20260416-01:50:32.677|56=MINIFIX|6=0|11=1924874544|14=0|17=EXEC-1776303564941|31=0|32=0|37=20260416-072032-613563|38=100|39=0|40=2|44=150|54=2|55=BAC|59=0|60=20260416-07:20:32.677|150=0|151=100|10=192|
< 8=FIX.4.2|9=135|35=D|49=MINIFIX|56=EXCHANGE|34=234|52=20260416-01:50:32|11=1924874722|21=1|55=BAC|54=1|60=20260416-01:50:32|40=2|44=150.00|38=100|59=0|10=135|
< 8=FIX.4.2|9=135|35=D|49=MINIFIX|56=EXCHANGE|34=235|52=20260416-01:50:32|11=1924874724|21=1|55=BAC|54=2|60=20260416-01:50:32|40=2|44=150.00|38=100|59=0|10=139|
> 8=FIX.4.2|9=260|35=8|34=210|49=EXCHANGE|52=20260416-01:50:32.678|56=MINIFIX|6=150|11=1924874526|14=100|17=EXEC-1776304232678-1384|31=150|32=80|37=20260416-072032-613554|38=100|39=2|40=2|44=150|54=1|55=BAC|59=0|60=20260416-07:20:32.678|150=F|151=0|527=TRADE-1776304232678-1384|10=243|
< 8=FIX.4.2|9=135|35=D|49=MINIFIX|56=EXCHANGE|34=236|52=20260416-01:50:32|11=1924874726|21=1|55=BAC|54=1|60=20260416-01:50:32|40=2|44=150.00|38=100|59=0|10=141|
< 8=FIX.4.2|9=134|35=D|49=MINIFIX|56=EXCHANGE|34=237|52=20260416-01:50:32|11=1924874728|21=1|55=MA|54=2|60=20260416-01:50:32|40=2|44=150.00|38=100|59=0|10=088|
> 8=FIX.4.2|9=260|35=8|34=211|49=EXCHANGE|52=20260416-01:50:32.679|56=MINIFIX|6=150|11=1924874542|14=20|17=EXEC-1776304232678-1385|31=150|32=20|37=20260416-072032-613562|38=100|39=1|40=2|44=150|54=1|55=BAC|59=0|60=20260416-07:20:32.679|150=F|151=80|527=TRADE-1776304232678-1385|10=247|
< 8=FIX.4.2|9=134|35=D|49=MINIFIX|56=EXCHANGE|34=238|52=20260416-01:50:32|11=1924874730|21=1|55=MA|54=1|60=20260416-01:50:32|40=2|44=150.00|38=100|59=0|10=081|
> 8=FIX.4.2|9=260|35=8|34=212|49=EXCHANGE|52=20260416-01:50:32.680|56=MINIFIX|6=150|11=1924874544|14=80|17=EXEC-1776304232678-1384|31=150|32=80|37=20260416-072032-613563|38=100|39=1|40=2|44=150|54=2|55=BAC|59=0|60=20260416-07:20:32.680|150=F|151=20|527=TRADE-1776304232678-1384|10=240|
> 8=FIX.4.2|9=260|35=8|34=213|49=EXCHANGE|52=20260416-01:50:32.680|56=MINIFIX|6=150|11=1924874544|14=100|17=EXEC-1776304232678-1385|31=150|32=20|37=20260416-072032-613563|38=100|39=2|40=2|44=150|54=2|55=BAC|59=0|60=20260416-07:20:32.680|150=F|151=0|527=TRADE-1776304232678-1385|10=229|
< 8=FIX.4.2|9=135|35=D|49=MINIFIX|56=EXCHANGE|34=239|52=20260416-01:50:32|11=1924874732|21=1|55=DIS|54=2|60=20260416-01:50:32|40=2|44=150.00|38=100|59=0|10=168|
> 8=FIX.4.2|9=222|35=8|34=214|49=EXCHANGE|52=20260416-01:50:32.682|56=MINIFIX|6=0|11=1924874546|14=0|17=EXEC-1776303564946|31=0|32=0|37=20260416-072032-613564|38=100|39=0|40=2|44=150|54=1|55=AAPL|59=0|60=20260416-07:20:32.682|150=0|151=100|10=020|
< 8=FIX.4.2|9=136|35=D|49=MINIFIX|56=EXCHANGE|34=240|52=20260416-01:50:32|11=1924874734|21=1|55=AAPL|54=1|60=20260416-01:50:32|40=2|44=150.00|38=100|59=0|10=224|
< 8=FIX.4.2|9=136|35=D|49=MINIFIX|56=EXCHANGE|34=241|52=20260416-01:50:32|11=1924874736|21=1|55=AMZN|54=2|60=20260416-01:50:32|40=2|44=150.00|38=100|59=0|10=252|
> 8=FIX.4.2|9=222|35=8|34=215|49=EXCHANGE|52=20260416-01:50:32.683|56=MINIFIX|6=0|11=1924874548|14=0|17=EXEC-1776303564947|31=0|32=0|37=20260416-072032-613565|38=100|39=0|40=2|44=150|54=2|55=AAPL|59=0|60=20260416-07:20:32.683|150=0|151=100|10=028|
< 8=FIX.4.2|9=136|35=D|49=MINIFIX|56=EXCHANGE|34=242|52=20260416-01:50:32|11=1924874738|21=1|55=MSFT|54=1|60=20260416-01:50:32|40=2|44=150.00|38=100|59=0|10=002|
> 8=FIX.4.2|9=261|35=8|34=216|49=EXCHANGE|52=20260416-01:50:32.684|56=MINIFIX|6=150|11=1924874458|14=100|17=EXEC-1776304232683-1386|31=150|32=60|37=20260416-072032-613520|38=100|39=2|40=2|44=150|54=1|55=AAPL|59=0|60=20260416-07:20:32.684|150=F|151=0|527=TRADE-1776304232683-1386|10=067|
< 8=FIX.4.2|9=134|35=D|49=MINIFIX|56=EXCHANGE|34=243|52=20260416-01:50:32|11=1924874740|21=1|55=MA|54=2|60=20260416-01:50:32|40=2|44=150.00|38=100|59=0|10=079|
< 8=FIX.4.2|9=136|35=D|49=MINIFIX|56=EXCHANGE|34=244|52=20260416-01:50:32|11=1924874742|21=1|55=AMZN|54=1|60=20260416-01:50:32|40=2|44=150.00|38=100|59=0|10=251|
> 8=FIX.4.2|9=261|35=8|34=217|49=EXCHANGE|52=20260416-01:50:32.685|56=MINIFIX|6=150|11=1924874474|14=40|17=EXEC-1776304232683-1387|31=150|32=40|37=20260416-072032-613528|38=100|39=1|40=2|44=150|54=1|55=AAPL|59=0|60=20260416-07:20:32.685|150=F|151=60|527=TRADE-1776304232683-1387|10=084|
> 8=FIX.4.2|9=261|35=8|34=218|49=EXCHANGE|52=20260416-01:50:32.686|56=MINIFIX|6=150|11=1924874548|14=60|17=EXEC-1776304232683-1386|31=150|32=60|37=20260416-072032-613565|38=100|39=1|40=2|44=150|54=2|55=AAPL|59=0|60=20260416-07:20:32.686|150=F|151=40|527=TRADE-1776304232683-1386|10=091|
< 8=FIX.4.2|9=136|35=D|49=MINIFIX|56=EXCHANGE|34=245|52=20260416-01:50:32|11=1924874744|21=1|55=AAPL|54=2|60=20260416-01:50:32|40=2|44=150.00|38=100|59=0|10=231|
> 8=FIX.4.2|9=261|35=8|34=219|49=EXCHANGE|52=20260416-01:50:32.686|56=MINIFIX|6=150|11=1924874548|14=100|17=EXEC-1776304232683-1387|31=150|32=40|37=20260416-072032-613565|38=100|39=2|40=2|44=150|54=2|55=AAPL|59=0|60=20260416-07:20:32.686|150=F|151=0|527=TRADE-1776304232683-1387|10=084|
< 8=FIX.4.2|9=135|35=D|49=MINIFIX|56=EXCHANGE|34=246|52=20260416-01:50:32|11=1924874746|21=1|55=DIS|54=1|60=20260416-01:50:32|40=2|44=150.00|38=100|59=0|10=170|
> 8=FIX.4.2|9=221|35=8|34=220|49=EXCHANGE|52=20260416-01:50:32.687|56=MINIFIX|6=0|11=1924874550|14=0|17=EXEC-1776303564952|31=0|32=0|37=20260416-072032-613566|38=100|39=0|40=2|44=150|54=1|55=DIS|59=0|60=20260416-07:20:32.687|150=0|151=100|10=214|
< 8=FIX.4.2|9=136|35=D|49=MINIFIX|56=EXCHANGE|34=247|52=20260416-01:50:32|11=1924874748|21=1|55=MSFT|54=2|60=20260416-01:50:32|40=2|44=150.00|38=100|59=0|10=009|
< 8=FIX.4.2|9=136|35=D|49=MINIFIX|56=EXCHANGE|34=248|52=20260416-01:50:32|11=1924874750|21=1|55=AAPL|54=1|60=20260416-01:50:32|40=2|44=150.00|38=100|59=0|10=230|
> 8=FIX.4.2|9=221|35=8|34=221|49=EXCHANGE|52=20260416-01:50:32.688|56=MINIFIX|6=0|11=1924874552|14=0|17=EXEC-1776303564953|31=0|32=0|37=20260416-072032-613567|38=100|39=0|40=2|44=150|54=2|55=BAC|59=0|60=20260416-07:20:32.688|150=0|151=100|10=196|
< 8=FIX.4.2|9=136|35=D|49=MINIFIX|56=EXCHANGE|34=249|52=20260416-01:50:32|11=1924874752|21=1|55=AMZN|54=2|60=20260416-01:50:32|40=2|44=150.00|38=100|59=0|10=002|
> 8=FIX.4.2|9=260|35=8|34=222|49=EXCHANGE|52=20260416-01:50:32.689|56=MINIFIX|6=150|11=1924874542|14=100|17=EXEC-1776304232688-1388|31=150|32=80|37=20260416-072032-613562|38=100|39=2|40=2|44=150|54=1|55=BAC|59=0|60=20260416-07:20:32.689|150=F|151=0|527=TRADE-1776304232688-1388|10=001|
< 8=FIX.4.2|9=136|35=D|49=MINIFIX|56=EXCHANGE|34=250|52=20260416-01:50:32|11=1924874754|21=1|55=AAPL|54=1|60=20260416-01:50:32|40=2|44=150.00|38=100|59=0|10=227|
