: Adding FIX 4.0 protocol
: Adding FIX 4.1 protocol
: Adding FIX 4.2 protocol
: Adding FIX 4.3 protocol
: Adding FIX 4.4 protocol
: Bulding FIX 4.4 help
: Pipe (batch/log) interface active at \\.\pipe\minifix
: (C)2009-2013 Björn Ahlqvist, available free of charge from http://elato.se/minifix/
: Welcome to Mini-FIX 1.5.25!
: Pipe interface connected
: Pipe interface disconnected (code 109)
: Pipe interface connected
: Batch Session sequence numbers reset
: SenderCompId set to MINIFIX
: TargetCompId set to EXCHANGE
: Batch Connect 127.0.0.1:9876
: Pipe interface disconnected (code 109)
: Connect to 127.0.0.1, resolving..
: IP address 127.0.0.1 port 9876, connecting..
: Connected to 127.0.0.1:9876 at 20260416-01:50:42 UTC
< 8=FIX.4.2|9=66|35=A|49=MINIFIX|56=EXCHANGE|34=1|52=20260416-01:50:42|98=0|108=30|10=138|
> 8=FIX.4.2|9=70|35=A|34=1|49=EXCHANGE|52=20260416-01:50:42.850|56=MINIFIX|98=0|108=30|10=080|
: <done waiting, message matches>
: T35 STRESS START 20260416-01:50:42
< 8=FIX.4.2|9=132|35=D|49=MINIFIX|56=EXCHANGE|34=1|52=20260416-01:50:42|11=2105608279|21=1|55=AAPL|54=1|60=20260416-01:50:42|40=2|44=2.50|38=100|59=0|10=017|
< 8=FIX.4.2|9=146|35=G|49=MINIFIX|56=EXCHANGE|34=2|52=20260416-01:50:42|41=2105608279|11=2105608280|21=1|55=AAPL|54=1|60=20260416-01:50:42|40=2|38=100|44=3.00|59=0|10=185|
< 8=FIX.4.2|9=123|35=F|49=MINIFIX|56=EXCHANGE|34=3|52=20260416-01:50:42|41=2105608280|11=2105608281|55=AAPL|54=1|60=20260416-01:50:42|38=100|10=196|
> 8=FIX.4.2|9=133|35=9|34=2|49=EXCHANGE|52=20260416-01:50:42.877|56=MINIFIX|11=2105608280|37=UNKNOWN|39=8|41=2105608279|58=Order not found|102=1|434=1|10=206|
> 8=FIX.4.2|9=220|35=8|34=3|49=EXCHANGE|52=20260416-01:50:42.877|56=MINIFIX|6=0|11=2105608279|14=0|17=EXEC-1776303566323|31=0|32=0|37=20260416-072042-614120|38=100|39=0|40=2|44=2.5|54=1|55=AAPL|59=0|60=20260416-07:20:42.877|150=0|151=100|10=158|
< 8=FIX.4.2|9=132|35=D|49=MINIFIX|56=EXCHANGE|34=4|52=20260416-01:50:42|11=2105608283|21=1|55=AAPL|54=1|60=20260416-01:50:42|40=2|44=2.50|38=100|59=0|10=015|
> 8=FIX.4.2|9=133|35=9|34=4|49=EXCHANGE|52=20260416-01:50:42.878|56=MINIFIX|11=2105608281|37=UNKNOWN|39=8|41=2105608280|58=Order not found|102=1|434=1|10=202|
< 8=FIX.4.2|9=146|35=G|49=MINIFIX|56=EXCHANGE|34=5|52=20260416-01:50:42|41=2105608283|11=2105608284|21=1|55=AAPL|54=1|60=20260416-01:50:42|40=2|38=100|44=3.00|59=0|10=187|
> 8=FIX.4.2|9=133|35=9|34=5|49=EXCHANGE|52=20260416-01:50:42.879|56=MINIFIX|11=2105608284|37=UNKNOWN|39=8|41=2105608283|58=Order not found|102=1|434=1|10=210|
< 8=FIX.4.2|9=123|35=F|49=MINIFIX|56=EXCHANGE|34=6|52=20260416-01:50:42|41=2105608284|11=2105608285|55=AAPL|54=1|60=20260416-01:50:42|38=100|10=207|
> 8=FIX.4.2|9=220|35=8|34=6|49=EXCHANGE|52=20260416-01:50:42.879|56=MINIFIX|6=0|11=2105608283|14=0|17=EXEC-1776303566324|31=0|32=0|37=20260416-072042-614121|38=100|39=0|40=2|44=2.5|54=1|55=AAPL|59=0|60=20260416-07:20:42.879|150=0|151=100|10=162|
> 8=FIX.4.2|9=133|35=9|34=7|49=EXCHANGE|52=20260416-01:50:42.880|56=MINIFIX|11=2105608285|37=UNKNOWN|39=8|41=2105608284|58=Order not found|102=1|434=1|10=206|
< 8=FIX.4.2|9=132|35=D|49=MINIFIX|56=EXCHANGE|34=7|52=20260416-01:50:42|11=2105608287|21=1|55=AAPL|54=1|60=20260416-01:50:42|40=2|44=2.50|38=100|59=0|10=022|
< 8=FIX.4.2|9=146|35=G|49=MINIFIX|56=EXCHANGE|34=8|52=20260416-01:50:42|41=2105608287|11=2105608288|21=1|55=AAPL|54=1|60=20260416-01:50:42|40=2|38=100|44=3.00|59=0|10=198|
> 8=FIX.4.2|9=220|35=8|34=8|49=EXCHANGE|52=20260416-01:50:42.881|56=MINIFIX|6=0|11=2105608287|14=0|17=EXEC-1776303566325|31=0|32=0|37=20260416-072042-614122|38=100|39=0|40=2|44=2.5|54=1|55=AAPL|59=0|60=20260416-07:20:42.881|150=0|151=100|10=156|
< 8=FIX.4.2|9=123|35=F|49=MINIFIX|56=EXCHANGE|34=9|52=20260416-01:50:42|41=2105608288|11=2105608289|55=AAPL|54=1|60=20260416-01:50:42|38=100|10=218|
> 8=FIX.4.2|9=232|35=8|34=9|49=EXCHANGE|52=20260416-01:50:42.882|56=MINIFIX|6=0|11=2105608288|14=0|17=EXEC-1776303566326|31=0|32=0|37=20260416-072042-614122|38=100|39=5|40=2|41=2105608287|44=3|54=1|55=AAPL|59=0|60=20260416-07:20:42.882|150=5|151=100|10=246|
< 8=FIX.4.2|9=133|35=D|49=MINIFIX|56=EXCHANGE|34=10|52=20260416-01:50:42|11=2105608291|21=1|55=AAPL|54=1|60=20260416-01:50:42|40=2|44=2.50|38=100|59=0|10=060|
< 8=FIX.4.2|9=147|35=G|49=MINIFIX|56=EXCHANGE|34=11|52=20260416-01:50:42|41=2105608291|11=2105608292|21=1|55=AAPL|54=1|60=20260416-01:50:42|40=2|38=100|44=3.00|59=0|10=231|
> 8=FIX.4.2|9=217|35=8|34=10|49=EXCHANGE|52=20260416-01:50:42.885|56=MINIFIX|6=0|11=2105608288|14=0|17=EXEC-1776303566327|31=0|32=0|37=20260416-072042-614122|38=100|39=4|40=2|44=3|54=1|55=AAPL|59=0|60=20260416-07:20:42.885|150=4|151=0|10=027|
< 8=FIX.4.2|9=124|35=F|49=MINIFIX|56=EXCHANGE|34=12|52=20260416-01:50:42|41=2105608292|11=2105608293|55=AAPL|54=1|60=20260416-01:50:42|38=100|10=251|
< 8=FIX.4.2|9=133|35=D|49=MINIFIX|56=EXCHANGE|34=13|52=20260416-01:50:42|11=2105608295|21=1|55=AAPL|54=1|60=20260416-01:50:42|40=2|44=2.50|38=100|59=0|10=067|
> 8=FIX.4.2|9=134|35=9|34=11|49=EXCHANGE|52=20260416-01:50:42.886|56=MINIFIX|11=2105608292|37=UNKNOWN|39=8|41=2105608291|58=Order not found|102=1|434=1|10=252|
> 8=FIX.4.2|9=221|35=8|34=12|49=EXCHANGE|52=20260416-01:50:42.886|56=MINIFIX|6=0|11=2105608291|14=0|17=EXEC-1776303566328|31=0|32=0|37=20260416-072042-614123|38=100|39=0|40=2|44=2.5|54=1|55=AAPL|59=0|60=20260416-07:20:42.886|150=0|151=100|10=209|
> 8=FIX.4.2|9=134|35=9|34=13|49=EXCHANGE|52=20260416-01:50:42.886|56=MINIFIX|11=2105608293|37=UNKNOWN|39=8|41=2105608292|58=Order not found|102=1|434=1|10=000|
< 8=FIX.4.2|9=147|35=G|49=MINIFIX|56=EXCHANGE|34=14|52=20260416-01:50:42|41=2105608295|11=2105608296|21=1|55=AAPL|54=1|60=20260416-01:50:42|40=2|38=100|44=3.00|59=0|10=242|
> 8=FIX.4.2|9=134|35=9|34=14|49=EXCHANGE|52=20260416-01:50:42.887|56=MINIFIX|11=2105608296|37=UNKNOWN|39=8|41=2105608295|58=Order not found|102=1|434=1|10=008|
< 8=FIX.4.2|9=124|35=F|49=MINIFIX|56=EXCHANGE|34=15|52=20260416-01:50:42|41=2105608296|11=2105608297|55=AAPL|54=1|60=20260416-01:50:42|38=100|10=006|
> 8=FIX.4.2|9=221|35=8|34=15|49=EXCHANGE|52=20260416-01:50:42.887|56=MINIFIX|6=0|11=2105608295|14=0|17=EXEC-1776303566329|31=0|32=0|37=20260416-072042-614124|38=100|39=0|40=2|44=2.5|54=1|55=AAPL|59=0|60=20260416-07:20:42.887|150=0|151=100|10=220|
> 8=FIX.4.2|9=134|35=9|34=16|49=EXCHANGE|52=20260416-01:50:42.887|56=MINIFIX|11=2105608297|37=UNKNOWN|39=8|41=2105608296|58=Order not found|102=1|434=1|10=012|
< 8=FIX.4.2|9=133|35=D|49=MINIFIX|56=EXCHANGE|34=16|52=20260416-01:50:42|11=2105608299|21=1|55=AAPL|54=1|60=20260416-01:50:42|40=2|44=2.50|38=100|59=0|10=074|
< 8=FIX.4.2|9=147|35=G|49=MINIFIX|56=EXCHANGE|34=17|52=20260416-01:50:42|41=2105608299|11=2105608300|21=1|55=AAPL|54=1|60=20260416-01:50:42|40=2|38=100|44=3.00|59=0|10=235|
> 8=FIX.4.2|9=221|35=8|34=17|49=EXCHANGE|52=20260416-01:50:42.888|56=MINIFIX|6=0|11=2105608299|14=0|17=EXEC-1776303566330|31=0|32=0|37=20260416-072042-614125|38=100|39=0|40=2|44=2.5|54=1|55=AAPL|59=0|60=20260416-07:20:42.888|150=0|151=100|10=221|
< 8=FIX.4.2|9=124|35=F|49=MINIFIX|56=EXCHANGE|34=18|52=20260416-01:50:42|41=2105608300|11=2105608301|55=AAPL|54=1|60=20260416-01:50:42|38=100|10=237|
> 8=FIX.4.2|9=233|35=8|34=18|49=EXCHANGE|52=20260416-01:50:42.890|56=MINIFIX|6=0|11=2105608300|14=0|17=EXEC-1776303566331|31=0|32=0|37=20260416-072042-614125|38=100|39=5|40=2|41=2105608299|44=3|54=1|55=AAPL|59=0|60=20260416-07:20:42.890|150=5|151=100|10=024|
< 8=FIX.4.2|9=133|35=D|49=MINIFIX|56=EXCHANGE|34=19|52=20260416-01:50:42|11=2105608303|21=1|55=AAPL|54=1|60=20260416-01:50:42|40=2|44=2.50|38=100|59=0|10=063|
> 8=FIX.4.2|9=217|35=8|34=19|49=EXCHANGE|52=20260416-01:50:42.891|56=MINIFIX|6=0|11=2105608300|14=0|17=EXEC-1776303566332|31=0|32=0|37=20260416-072042-614125|38=100|39=4|40=2|44=3|54=1|55=AAPL|59=0|60=20260416-07:20:42.891|150=4|151=0|10=014|
< 8=FIX.4.2|9=147|35=G|49=MINIFIX|56=EXCHANGE|34=20|52=20260416-01:50:42|41=2105608303|11=2105608304|21=1|55=AAPL|54=1|60=20260416-01:50:42|40=2|38=100|44=3.00|59=0|10=219|
> 8=FIX.4.2|9=134|35=9|34=20|49=EXCHANGE|52=20260416-01:50:42.891|56=MINIFIX|11=2105608304|37=UNKNOWN|39=8|41=2105608303|58=Order not found|102=1|434=1|10=236|
< 8=FIX.4.2|9=124|35=F|49=MINIFIX|56=EXCHANGE|34=21|52=20260416-01:50:42|41=2105608304|11=2105608305|55=AAPL|54=1|60=20260416-01:50:42|38=100|10=239|
> 8=FIX.4.2|9=221|35=8|34=21|49=EXCHANGE|52=20260416-01:50:42.893|56=MINIFIX|6=0|11=2105608303|14=0|17=EXEC-1776303566333|31=0|32=0|37=20260416-072042-614126|38=100|39=0|40=2|44=2.5|54=1|55=AAPL|59=0|60=20260416-07:20:42.893|150=0|151=100|10=198|
> 8=FIX.4.2|9=134|35=9|34=22|49=EXCHANGE|52=20260416-01:50:42.893|56=MINIFIX|11=2105608305|37=UNKNOWN|39=8|41=2105608304|58=Order not found|102=1|434=1|10=242|
< 8=FIX.4.2|9=133|35=D|49=MINIFIX|56=EXCHANGE|34=22|52=20260416-01:50:42|11=2105608307|21=1|55=AAPL|54=1|60=20260416-01:50:42|40=2|44=2.50|38=100|59=0|10=061|
> 8=FIX.4.2|9=221|35=8|34=23|49=EXCHANGE|52=20260416-01:50:42.894|56=MINIFIX|6=0|11=2105608307|14=0|17=EXEC-1776303566334|31=0|32=0|37=20260416-072042-614127|38=100|39=0|40=2|44=2.5|54=1|55=AAPL|59=0|60=20260416-07:20:42.894|150=0|151=100|10=208|
< 8=FIX.4.2|9=147|35=G|49=MINIFIX|56=EXCHANGE|34=23|52=20260416-01:50:42|41=2105608307|11=2105608308|21=1|55=AAPL|54=1|60=20260416-01:50:42|40=2|38=100|44=3.00|59=0|10=230|
< 8=FIX.4.2|9=124|35=F|49=MINIFIX|56=EXCHANGE|34=24|52=20260416-01:50:42|41=2105608308|11=2105608309|55=AAPL|54=1|60=20260416-01:50:42|38=100|10=250|
> 8=FIX.4.2|9=233|35=8|34=24|49=EXCHANGE|52=20260416-01:50:42.895|56=MINIFIX|6=0|11=2105608308|14=0|17=EXEC-1776303566335|31=0|32=0|37=20260416-072042-614127|38=100|39=5|40=2|41=2105608307|44=3|54=1|55=AAPL|59=0|60=20260416-07:20:42.895|150=5|151=100|10=035|
< 8=FIX.4.2|9=133|35=D|49=MINIFIX|56=EXCHANGE|34=25|52=20260416-01:50:42|11=2105608311|21=1|55=AAPL|54=1|60=20260416-01:50:42|40=2|44=2.50|38=100|59=0|10=059|
> 8=FIX.4.2|9=217|35=8|34=25|49=EXCHANGE|52=20260416-01:50:42.896|56=MINIFIX|6=0|11=2105608308|14=0|17=EXEC-1776303566336|31=0|32=0|37=20260416-072042-614127|38=100|39=4|40=2|44=3|54=1|55=AAPL|59=0|60=20260416-07:20:42.896|150=4|151=0|10=035|
< 8=FIX.4.2|9=147|35=G|49=MINIFIX|56=EXCHANGE|34=26|52=20260416-01:50:42|41=2105608311|11=2105608312|21=1|55=AAPL|54=1|60=20260416-01:50:42|40=2|38=100|44=3.00|59=0|10=223|
< 8=FIX.4.2|9=124|35=F|49=MINIFIX|56=EXCHANGE|34=27|52=20260416-01:50:42|41=2105608312|11=2105608313|55=AAPL|54=1|60=20260416-01:50:42|38=100|10=243|
> 8=FIX.4.2|9=134|35=9|34=26|49=EXCHANGE|52=20260416-01:50:42.898|56=MINIFIX|11=2105608312|37=UNKNOWN|39=8|41=2105608311|58=Order not found|102=1|434=1|10=247|
> 8=FIX.4.2|9=221|35=8|34=27|49=EXCHANGE|52=20260416-01:50:42.898|56=MINIFIX|6=0|11=2105608311|14=0|17=EXEC-1776303566337|31=0|32=0|37=20260416-072042-614128|38=100|39=0|40=2|44=2.5|54=1|55=AAPL|59=0|60=20260416-07:20:42.898|150=0|151=100|10=219|
> 8=FIX.4.2|9=134|35=9|34=28|49=EXCHANGE|52=20260416-01:50:42.898|56=MINIFIX|11=2105608313|37=UNKNOWN|39=8|41=2105608312|58=Order not found|102=1|434=1|10=251|
< 8=FIX.4.2|9=133|35=D|49=MINIFIX|56=EXCHANGE|34=28|52=20260416-01:50:42|11=2105608315|21=1|55=AAPL|54=1|60=20260416-01:50:42|40=2|44=2.50|38=100|59=0|10=066|
< 8=FIX.4.2|9=147|35=G|49=MINIFIX|56=EXCHANGE|34=29|52=20260416-01:50:42|41=2105608315|11=2105608316|21=1|55=AAPL|54=1|60=20260416-01:50:42|40=2|38=100|44=3.00|59=0|10=234|
> 8=FIX.4.2|9=221|35=8|34=29|49=EXCHANGE|52=20260416-01:50:42.899|56=MINIFIX|6=0|11=2105608315|14=0|17=EXEC-1776303566338|31=0|32=0|37=20260416-072042-614129|38=100|39=0|40=2|44=2.5|54=1|55=AAPL|59=0|60=20260416-07:20:42.899|150=0|151=100|10=229|
< 8=FIX.4.2|9=124|35=F|49=MINIFIX|56=EXCHANGE|34=30|52=20260416-01:50:42|41=2105608316|11=2105608317|55=AAPL|54=1|60=20260416-01:50:42|38=100|10=245|
> 8=FIX.4.2|9=233|35=8|34=30|49=EXCHANGE|52=20260416-01:50:42.900|56=MINIFIX|6=0|11=2105608316|14=0|17=EXEC-1776303566339|31=0|32=0|37=20260416-072042-614129|38=100|39=5|40=2|41=2105608315|44=3|54=1|55=AAPL|59=0|60=20260416-07:20:42.900|150=5|151=100|10=010|
< 8=FIX.4.2|9=133|35=D|49=MINIFIX|56=EXCHANGE|34=31|52=20260416-01:50:42|11=2105608319|21=1|55=AAPL|54=1|60=20260416-01:50:42|40=2|44=2.50|38=100|59=0|10=064|
> 8=FIX.4.2|9=217|35=8|34=31|49=EXCHANGE|52=20260416-01:50:42.901|56=MINIFIX|6=0|11=2105608316|14=0|17=EXEC-1776303566340|31=0|32=0|37=20260416-072042-614129|38=100|39=4|40=2|44=3|54=1|55=AAPL|59=0|60=20260416-07:20:42.901|150=4|151=0|10=002|
< 8=FIX.4.2|9=147|35=G|49=MINIFIX|56=EXCHANGE|34=32|52=20260416-01:50:42|41=2105608319|11=2105608320|21=1|55=AAPL|54=1|60=20260416-01:50:42|40=2|38=100|44=3.00|59=0|10=227|
< 8=FIX.4.2|9=124|35=F|49=MINIFIX|56=EXCHANGE|34=33|52=20260416-01:50:42|41=2105608320|11=2105608321|55=AAPL|54=1|60=20260416-01:50:42|38=100|10=238|
> 8=FIX.4.2|9=134|35=9|34=32|49=EXCHANGE|52=20260416-01:50:42.901|56=MINIFIX|11=2105608320|37=UNKNOWN|39=8|41=2105608319|58=Order not found|102=1|434=1|10=236|
> 8=FIX.4.2|9=221|35=8|34=33|49=EXCHANGE|52=20260416-01:50:42.902|56=MINIFIX|6=0|11=2105608319|14=0|17=EXEC-1776303566341|31=0|32=0|37=20260416-072042-614130|38=100|39=0|40=2|44=2.5|54=1|55=AAPL|59=0|60=20260416-07:20:42.902|150=0|151=100|10=184|
> 8=FIX.4.2|9=134|35=9|34=34|49=EXCHANGE|52=20260416-01:50:42.902|56=MINIFIX|11=2105608321|37=UNKNOWN|39=8|41=2105608320|58=Order not found|102=1|434=1|10=232|
< 8=FIX.4.2|9=133|35=D|49=MINIFIX|56=EXCHANGE|34=34|52=20260416-01:50:42|11=2105608323|21=1|55=AAPL|54=1|60=20260416-01:50:42|40=2|44=2.50|38=100|59=0|10=062|
< 8=FIX.4.2|9=147|35=G|49=MINIFIX|56=EXCHANGE|34=35|52=20260416-01:50:42|41=2105608323|11=2105608324|21=1|55=AAPL|54=1|60=20260416-01:50:42|40=2|38=100|44=3.00|59=0|10=229|
> 8=FIX.4.2|9=221|35=8|34=35|49=EXCHANGE|52=20260416-01:50:42.903|56=MINIFIX|6=0|11=2105608323|14=0|17=EXEC-1776303566342|31=0|32=0|37=20260416-072042-614131|38=100|39=0|40=2|44=2.5|54=1|55=AAPL|59=0|60=20260416-07:20:42.903|150=0|151=100|10=185|
< 8=FIX.4.2|9=124|35=F|49=MINIFIX|56=EXCHANGE|34=36|52=20260416-01:50:42|41=2105608324|11=2105608325|55=AAPL|54=1|60=20260416-01:50:42|38=100|10=249|
> 8=FIX.4.2|9=233|35=8|34=36|49=EXCHANGE|52=20260416-01:50:42.904|56=MINIFIX|6=0|11=2105608324|14=0|17=EXEC-1776303566343|31=0|32=0|37=20260416-072042-614131|38=100|39=5|40=2|41=2105608323|44=3|54=1|55=AAPL|59=0|60=20260416-07:20:42.904|150=5|151=100|10=010|
< 8=FIX.4.2|9=133|35=D|49=MINIFIX|56=EXCHANGE|34=37|52=20260416-01:50:42|11=2105608327|21=1|55=AAPL|54=1|60=20260416-01:50:42|40=2|44=2.50|38=100|59=0|10=069|
> 8=FIX.4.2|9=217|35=8|34=37|49=EXCHANGE|52=20260416-01:50:42.904|56=MINIFIX|6=0|11=2105608324|14=0|17=EXEC-1776303566344|31=0|32=0|37=20260416-072042-614131|38=100|39=4|40=2|44=3|54=1|55=AAPL|59=0|60=20260416-07:20:42.904|150=4|151=0|10=010|
< 8=FIX.4.2|9=147|35=G|49=MINIFIX|56=EXCHANGE|34=38|52=20260416-01:50:42|41=2105608327|11=2105608328|21=1|55=AAPL|54=1|60=20260416-01:50:42|40=2|38=100|44=3.00|59=0|10=240|
> 8=FIX.4.2|9=134|35=9|34=38|49=EXCHANGE|52=20260416-01:50:42.906|56=MINIFIX|11=2105608328|37=UNKNOWN|39=8|41=2105608327|58=Order not found|102=1|434=1|10=254|
< 8=FIX.4.2|9=124|35=F|49=MINIFIX|56=EXCHANGE|34=39|52=20260416-01:50:42|41=2105608328|11=2105608329|55=AAPL|54=1|60=20260416-01:50:42|38=100|10=004|
> 8=FIX.4.2|9=221|35=8|34=39|49=EXCHANGE|52=20260416-01:50:42.906|56=MINIFIX|6=0|11=2105608327|14=0|17=EXEC-1776303566345|31=0|32=0|37=20260416-072042-614132|38=100|39=0|40=2|44=2.5|54=1|55=AAPL|59=0|60=20260416-07:20:42.906|150=0|151=100|10=203|
> 8=FIX.4.2|9=134|35=9|34=40|49=EXCHANGE|52=20260416-01:50:42.907|56=MINIFIX|11=2105608329|37=UNKNOWN|39=8|41=2105608328|58=Order not found|102=1|434=1|10=250|
< 8=FIX.4.2|9=133|35=D|49=MINIFIX|56=EXCHANGE|34=40|52=20260416-01:50:42|11=2105608331|21=1|55=AAPL|54=1|60=20260416-01:50:42|40=2|44=2.50|38=100|59=0|10=058|
< 8=FIX.4.2|9=147|35=G|49=MINIFIX|56=EXCHANGE|34=41|52=20260416-01:50:42|41=2105608331|11=2105608332|21=1|55=AAPL|54=1|60=20260416-01:50:42|40=2|38=100|44=3.00|59=0|10=224|
> 8=FIX.4.2|9=221|35=8|34=41|49=EXCHANGE|52=20260416-01:50:42.909|56=MINIFIX|6=0|11=2105608331|14=0|17=EXEC-1776303566346|31=0|32=0|37=20260416-072042-614133|38=100|39=0|40=2|44=2.5|54=1|55=AAPL|59=0|60=20260416-07:20:42.909|150=0|151=100|10=199|
< 8=FIX.4.2|9=124|35=F|49=MINIFIX|56=EXCHANGE|34=42|52=20260416-01:50:42|41=2105608332|11=2105608333|55=AAPL|54=1|60=20260416-01:50:42|38=100|10=244|
> 8=FIX.4.2|9=233|35=8|34=42|49=EXCHANGE|52=20260416-01:50:42.910|56=MINIFIX|6=0|11=2105608332|14=0|17=EXEC-1776303566347|31=0|32=0|37=20260416-072042-614133|38=100|39=5|40=2|41=2105608331|44=3|54=1|55=AAPL|59=0|60=20260416-07:20:42.910|150=5|151=100|10=005|
< 8=FIX.4.2|9=133|35=D|49=MINIFIX|56=EXCHANGE|34=43|52=20260416-01:50:42|11=2105608335|21=1|55=AAPL|54=1|60=20260416-01:50:42|40=2|44=2.50|38=100|59=0|10=065|
< 8=FIX.4.2|9=147|35=G|49=MINIFIX|56=EXCHANGE|34=44|52=20260416-01:50:42|41=2105608335|11=2105608336|21=1|55=AAPL|54=1|60=20260416-01:50:42|40=2|38=100|44=3.00|59=0|10=235|
> 8=FIX.4.2|9=217|35=8|34=43|49=EXCHANGE|52=20260416-01:50:42.911|56=MINIFIX|6=0|11=2105608332|14=0|17=EXEC-1776303566348|31=0|32=0|37=20260416-072042-614133|38=100|39=4|40=2|44=3|54=1|55=AAPL|59=0|60=20260416-07:20:42.911|150=4|151=0|10=008|
< 8=FIX.4.2|9=124|35=F|49=MINIFIX|56=EXCHANGE|34=45|52=20260416-01:50:42|41=2105608336|11=2105608337|55=AAPL|54=1|60=20260416-01:50:42|38=100|10=255|
> 8=FIX.4.2|9=134|35=9|34=44|49=EXCHANGE|52=20260416-01:50:42.912|56=MINIFIX|11=2105608336|37=UNKNOWN|39=8|41=2105608335|58=Order not found|102=1|434=1|10=246|
< 8=FIX.4.2|9=133|35=D|49=MINIFIX|56=EXCHANGE|34=46|52=20260416-01:50:42|11=2105608339|21=1|55=AAPL|54=1|60=20260416-01:50:42|40=2|44=2.50|38=100|59=0|10=072|
> 8=FIX.4.2|9=221|35=8|34=45|49=EXCHANGE|52=20260416-01:50:42.912|56=MINIFIX|6=0|11=2105608335|14=0|17=EXEC-1776303566349|31=0|32=0|37=20260416-072042-614134|38=100|39=0|40=2|44=2.5|54=1|55=AAPL|59=0|60=20260416-07:20:42.912|150=0|151=100|10=199|
> 8=FIX.4.2|9=134|35=9|34=46|49=EXCHANGE|52=20260416-01:50:42.913|56=MINIFIX|11=2105608337|37=UNKNOWN|39=8|41=2105608336|58=Order not found|102=1|434=1|10=251|
< 8=FIX.4.2|9=147|35=G|49=MINIFIX|56=EXCHANGE|34=47|52=20260416-01:50:42|41=2105608339|11=2105608340|21=1|55=AAPL|54=1|60=20260416-01:50:42|40=2|38=100|44=3.00|59=0|10=237|
> 8=FIX.4.2|9=134|35=9|34=47|49=EXCHANGE|52=20260416-01:50:42.913|56=MINIFIX|11=2105608340|37=UNKNOWN|39=8|41=2105608339|58=Order not found|102=1|434=1|10=249|
< 8=FIX.4.2|9=124|35=F|49=MINIFIX|56=EXCHANGE|34=48|52=20260416-01:50:42|41=2105608340|11=2105608341|55=AAPL|54=1|60=20260416-01:50:42|38=100|10=248|
> 8=FIX.4.2|9=221|35=8|34=48|49=EXCHANGE|52=20260416-01:50:42.914|56=MINIFIX|6=0|11=2105608339|14=0|17=EXEC-1776303566350|31=0|32=0|37=20260416-072042-614135|38=100|39=0|40=2|44=2.5|54=1|55=AAPL|59=0|60=20260416-07:20:42.914|150=0|151=100|10=203|
> 8=FIX.4.2|9=134|35=9|34=49|49=EXCHANGE|52=20260416-01:50:42.914|56=MINIFIX|11=2105608341|37=UNKNOWN|39=8|41=2105608340|58=Order not found|102=1|434=1|10=245|
< 8=FIX.4.2|9=133|35=D|49=MINIFIX|56=EXCHANGE|34=49|52=20260416-01:50:42|11=2105608343|21=1|55=AAPL|54=1|60=20260416-01:50:42|40=2|44=2.50|38=100|59=0|10=070|
< 8=FIX.4.2|9=147|35=G|49=MINIFIX|56=EXCHANGE|34=50|52=20260416-01:50:42|41=2105608343|11=2105608344|21=1|55=AAPL|54=1|60=20260416-01:50:42|40=2|38=100|44=3.00|59=0|10=230|
> 8=FIX.4.2|9=221|35=8|34=50|49=EXCHANGE|52=20260416-01:50:42.917|56=MINIFIX|6=0|11=2105608343|14=0|17=EXEC-1776303566351|31=0|32=0|37=20260416-072042-614136|38=100|39=0|40=2|44=2.5|54=1|55=AAPL|59=0|60=20260416-07:20:42.917|150=0|151=100|10=199|
< 8=FIX.4.2|9=124|35=F|49=MINIFIX|56=EXCHANGE|34=51|52=20260416-01:50:42|41=2105608344|11=2105608345|55=AAPL|54=1|60=20260416-01:50:42|38=100|10=250|
> 8=FIX.4.2|9=233|35=8|34=51|49=EXCHANGE|52=20260416-01:50:42.918|56=MINIFIX|6=0|11=2105608344|14=0|17=EXEC-1776303566352|31=0|32=0|37=20260416-072042-614136|38=100|39=5|40=2|41=2105608343|44=3|54=1|55=AAPL|59=0|60=20260416-07:20:42.917|150=5|151=100|10=025|
< 8=FIX.4.2|9=133|35=D|49=MINIFIX|56=EXCHANGE|34=52|52=20260416-01:50:42|11=2105608347|21=1|55=AAPL|54=1|60=20260416-01:50:42|40=2|44=2.50|38=100|59=0|10=068|
< 8=FIX.4.2|9=147|35=G|49=MINIFIX|56=EXCHANGE|34=53|52=20260416-01:50:42|41=2105608347|11=2105608348|21=1|55=AAPL|54=1|60=20260416-01:50:42|40=2|38=100|44=3.00|59=0|10=241|
> 8=FIX.4.2|9=217|35=8|34=52|49=EXCHANGE|52=20260416-01:50:42.919|56=MINIFIX|6=0|11=2105608344|14=0|17=EXEC-1776303566353|31=0|32=0|37=20260416-072042-614136|38=100|39=4|40=2|44=3|54=1|55=AAPL|59=0|60=20260416-07:20:42.919|150=4|151=0|10=026|
< 8=FIX.4.2|9=124|35=F|49=MINIFIX|56=EXCHANGE|34=54|52=20260416-01:50:42|41=2105608348|11=2105608349|55=AAPL|54=1|60=20260416-01:50:42|38=100|10=005|
> 8=FIX.4.2|9=134|35=9|34=53|49=EXCHANGE|52=20260416-01:50:42.920|56=MINIFIX|11=2105608348|37=UNKNOWN|39=8|41=2105608347|58=Order not found|102=1|434=1|10=251|
> 8=FIX.4.2|9=221|35=8|34=54|49=EXCHANGE|52=20260416-01:50:42.920|56=MINIFIX|6=0|11=2105608347|14=0|17=EXEC-1776303566354|31=0|32=0|37=20260416-072042-614137|38=100|39=0|40=2|44=2.5|54=1|55=AAPL|59=0|60=20260416-07:20:42.920|150=0|151=100|10=199|
< 8=FIX.4.2|9=133|35=D|49=MINIFIX|56=EXCHANGE|34=55|52=20260416-01:50:42|11=2105608351|21=1|55=AAPL|54=1|60=20260416-01:50:42|40=2|44=2.50|38=100|59=0|10=066|
> 8=FIX.4.2|9=134|35=9|34=55|49=EXCHANGE|52=20260416-01:50:42.920|56=MINIFIX|11=2105608349|37=UNKNOWN|39=8|41=2105608348|58=Order not found|102=1|434=1|10=255|
< 8=FIX.4.2|9=147|35=G|49=MINIFIX|56=EXCHANGE|34=56|52=20260416-01:50:42|41=2105608351|11=2105608352|21=1|55=AAPL|54=1|60=20260416-01:50:42|40=2|38=100|44=3.00|59=0|10=234|
> 8=FIX.4.2|9=134|35=9|34=56|49=EXCHANGE|52=20260416-01:50:42.922|56=MINIFIX|11=2105608352|37=UNKNOWN|39=8|41=2105608351|58=Order not found|102=1|434=1|10=246|
> 8=FIX.4.2|9=221|35=8|34=57|49=EXCHANGE|52=20260416-01:50:42.922|56=MINIFIX|6=0|11=2105608351|14=0|17=EXEC-1776303566355|31=0|32=0|37=20260416-072042-614138|38=100|39=0|40=2|44=2.5|54=1|55=AAPL|59=0|60=20260416-07:20:42.922|150=0|151=100|10=203|
< 8=FIX.4.2|9=124|35=F|49=MINIFIX|56=EXCHANGE|34=57|52=20260416-01:50:42|41=2105608352|11=2105608353|55=AAPL|54=1|60=20260416-01:50:42|38=100|10=254|
< 8=FIX.4.2|9=133|35=D|49=MINIFIX|56=EXCHANGE|34=58|52=20260416-01:50:42|11=2105608355|21=1|55=AAPL|54=1|60=20260416-01:50:42|40=2|44=2.50|38=100|59=0|10=073|
> 8=FIX.4.2|9=134|35=9|34=58|49=EXCHANGE|52=20260416-01:50:42.923|56=MINIFIX|11=2105608353|37=UNKNOWN|39=8|41=2105608352|58=Order not found|102=1|434=1|10=251|
< 8=FIX.4.2|9=147|35=G|49=MINIFIX|56=EXCHANGE|34=59|52=20260416-01:50:42|41=2105608355|11=2105608356|21=1|55=AAPL|54=1|60=20260416-01:50:42|40=2|38=100|44=3.00|59=0|10=245|
> 8=FIX.4.2|9=134|35=9|34=59|49=EXCHANGE|52=20260416-01:50:42.924|56=MINIFIX|11=2105608356|37=UNKNOWN|39=8|41=2105608355|58=Order not found|102=1|434=1|10=003|
< 8=FIX.4.2|9=124|35=F|49=MINIFIX|56=EXCHANGE|34=60|52=20260416-01:50:42|41=2105608356|11=2105608357|55=AAPL|54=1|60=20260416-01:50:42|38=100|10=000|
> 8=FIX.4.2|9=221|35=8|34=60|49=EXCHANGE|52=20260416-01:50:42.924|56=MINIFIX|6=0|11=2105608355|14=0|17=EXEC-1776303566356|31=0|32=0|37=20260416-072042-614139|38=100|39=0|40=2|44=2.5|54=1|55=AAPL|59=0|60=20260416-07:20:42.924|150=0|151=100|10=207|
< 8=FIX.4.2|9=133|35=D|49=MINIFIX|56=EXCHANGE|34=61|52=20260416-01:50:42|11=2105608359|21=1|55=AAPL|54=1|60=20260416-01:50:42|40=2|44=2.50|38=100|59=0|10=071|
> 8=FIX.4.2|9=134|35=9|34=61|49=EXCHANGE|52=20260416-01:50:42.926|56=MINIFIX|11=2105608357|37=UNKNOWN|39=8|41=2105608356|58=Order not found|102=1|434=1|10=000|
< 8=FIX.4.2|9=147|35=G|49=MINIFIX|56=EXCHANGE|34=62|52=20260416-01:50:42|41=2105608359|11=2105608360|21=1|55=AAPL|54=1|60=20260416-01:50:42|40=2|38=100|44=3.00|59=0|10=238|
> 8=FIX.4.2|9=134|35=9|34=62|49=EXCHANGE|52=20260416-01:50:42.927|56=MINIFIX|11=2105608360|37=UNKNOWN|39=8|41=2105608359|58=Order not found|102=1|434=1|10=255|
< 8=FIX.4.2|9=124|35=F|49=MINIFIX|56=EXCHANGE|34=63|52=20260416-01:50:42|41=2105608360|11=2105608361|55=AAPL|54=1|60=20260416-01:50:42|38=100|10=249|
> 8=FIX.4.2|9=221|35=8|34=63|49=EXCHANGE|52=20260416-01:50:42.927|56=MINIFIX|6=0|11=2105608359|14=0|17=EXEC-1776303566357|31=0|32=0|37=20260416-072042-614140|38=100|39=0|40=2|44=2.5|54=1|55=AAPL|59=0|60=20260416-07:20:42.927|150=0|151=100|10=213|
< 8=FIX.4.2|9=133|35=D|49=MINIFIX|56=EXCHANGE|34=64|52=20260416-01:50:42|11=2105608363|21=1|55=AAPL|54=1|60=20260416-01:50:42|40=2|44=2.50|38=100|59=0|10=069|
> 8=FIX.4.2|9=134|35=9|34=64|49=EXCHANGE|52=20260416-01:50:42.928|56=MINIFIX|11=2105608361|37=UNKNOWN|39=8|41=2105608360|58=Order not found|102=1|434=1|10=251|
< 8=FIX.4.2|9=147|35=G|49=MINIFIX|56=EXCHANGE|34=65|52=20260416-01:50:42|41=2105608363|11=2105608364|21=1|55=AAPL|54=1|60=20260416-01:50:42|40=2|38=100|44=3.00|59=0|10=240|
> 8=FIX.4.2|9=134|35=9|34=65|49=EXCHANGE|52=20260416-01:50:42.929|56=MINIFIX|11=2105608364|37=UNKNOWN|39=8|41=2105608363|58=Order not found|102=1|434=1|10=003|
< 8=FIX.4.2|9=124|35=F|49=MINIFIX|56=EXCHANGE|34=66|52=20260416-01:50:42|41=2105608364|11=2105608365|55=AAPL|54=1|60=20260416-01:50:42|38=100|10=004|
> 8=FIX.4.2|9=221|35=8|34=66|49=EXCHANGE|52=20260416-01:50:42.929|56=MINIFIX|6=0|11=2105608363|14=0|17=EXEC-1776303566358|31=0|32=0|37=20260416-072042-614141|38=100|39=0|40=2|44=2.5|54=1|55=AAPL|59=0|60=20260416-07:20:42.929|150=0|151=100|10=217|
> 8=FIX.4.2|9=134|35=9|34=67|49=EXCHANGE|52=20260416-01:50:42.930|56=MINIFIX|11=2105608365|37=UNKNOWN|39=8|41=2105608364|58=Order not found|102=1|434=1|10=255|
< 8=FIX.4.2|9=133|35=D|49=MINIFIX|56=EXCHANGE|34=67|52=20260416-01:50:42|11=2105608367|21=1|55=AAPL|54=1|60=20260416-01:50:42|40=2|44=2.50|38=100|59=0|10=076|
< 8=FIX.4.2|9=147|35=G|49=MINIFIX|56=EXCHANGE|34=68|52=20260416-01:50:42|41=2105608367|11=2105608368|21=1|55=AAPL|54=1|60=20260416-01:50:42|40=2|38=100|44=3.00|59=0|10=251|
> 8=FIX.4.2|9=221|35=8|34=68|49=EXCHANGE|52=20260416-01:50:42.931|56=MINIFIX|6=0|11=2105608367|14=0|17=EXEC-1776303566359|31=0|32=0|37=20260416-072042-614142|38=100|39=0|40=2|44=2.5|54=1|55=AAPL|59=0|60=20260416-07:20:42.931|150=0|151=100|10=211|
< 8=FIX.4.2|9=124|35=F|49=MINIFIX|56=EXCHANGE|34=69|52=20260416-01:50:42|41=2105608368|11=2105608369|55=AAPL|54=1|60=20260416-01:50:42|38=100|10=015|
> 8=FIX.4.2|9=233|35=8|34=69|49=EXCHANGE|52=20260416-01:50:42.932|56=MINIFIX|6=0|11=2105608368|14=0|17=EXEC-1776303566360|31=0|32=0|37=20260416-072042-614142|38=100|39=5|40=2|41=2105608367|44=3|54=1|55=AAPL|59=0|60=20260416-07:20:42.932|150=5|151=100|10=035|
< 8=FIX.4.2|9=133|35=D|49=MINIFIX|56=EXCHANGE|34=70|52=20260416-01:50:42|11=2105608371|21=1|55=AAPL|54=1|60=20260416-01:50:42|40=2|44=2.50|38=100|59=0|10=065|
< 8=FIX.4.2|9=147|35=G|49=MINIFIX|56=EXCHANGE|34=71|52=20260416-01:50:42|41=2105608371|11=2105608372|21=1|55=AAPL|54=1|60=20260416-01:50:42|40=2|38=100|44=3.00|59=0|10=235|
> 8=FIX.4.2|9=217|35=8|34=70|49=EXCHANGE|52=20260416-01:50:42.935|56=MINIFIX|6=0|11=2105608368|14=0|17=EXEC-1776303566361|31=0|32=0|37=20260416-072042-614142|38=100|39=4|40=2|44=3|54=1|55=AAPL|59=0|60=20260416-07:20:42.935|150=4|151=0|10=024|
< 8=FIX.4.2|9=124|35=F|49=MINIFIX|56=EXCHANGE|34=72|52=20260416-01:50:42|41=2105608372|11=2105608373|55=AAPL|54=1|60=20260416-01:50:42|38=100|10=255|
> 8=FIX.4.2|9=134|35=9|34=71|49=EXCHANGE|52=20260416-01:50:42.935|56=MINIFIX|11=2105608372|37=UNKNOWN|39=8|41=2105608371|58=Order not found|102=1|434=1|10=251|
< 8=FIX.4.2|9=133|35=D|49=MINIFIX|56=EXCHANGE|34=73|52=20260416-01:50:42|11=2105608375|21=1|55=AAPL|54=1|60=20260416-01:50:42|40=2|44=2.50|38=100|59=0|10=072|
> 8=FIX.4.2|9=221|35=8|34=72|49=EXCHANGE|52=20260416-01:50:42.935|56=MINIFIX|6=0|11=2105608371|14=0|17=EXEC-1776303566362|31=0|32=0|37=20260416-072042-614143|38=100|39=0|40=2|44=2.5|54=1|55=AAPL|59=0|60=20260416-07:20:42.935|150=0|151=100|10=204|
> 8=FIX.4.2|9=134|35=9|34=73|49=EXCHANGE|52=20260416-01:50:42.936|56=MINIFIX|11=2105608373|37=UNKNOWN|39=8|41=2105608372|58=Order not found|102=1|434=1|10=000|
< 8=FIX.4.2|9=147|35=G|49=MINIFIX|56=EXCHANGE|34=74|52=20260416-01:50:42|41=2105608375|11=2105608376|21=1|55=AAPL|54=1|60=20260416-01:50:42|40=2|38=100|44=3.00|59=0|10=246|
> 8=FIX.4.2|9=134|35=9|34=74|49=EXCHANGE|52=20260416-01:50:42.936|56=MINIFIX|11=2105608376|37=UNKNOWN|39=8|41=2105608375|58=Order not found|102=1|434=1|10=007|
> 8=FIX.4.2|9=221|35=8|34=75|49=EXCHANGE|52=20260416-01:50:42.936|56=MINIFIX|6=0|11=2105608375|14=0|17=EXEC-1776303566363|31=0|32=0|37=20260416-072042-614144|38=100|39=0|40=2|44=2.5|54=1|55=AAPL|59=0|60=20260416-07:20:42.936|150=0|151=100|10=215|
< 8=FIX.4.2|9=124|35=F|49=MINIFIX|56=EXCHANGE|34=75|52=20260416-01:50:42|41=2105608376|11=2105608377|55=AAPL|54=1|60=20260416-01:50:42|38=100|10=010|
< 8=FIX.4.2|9=133|35=D|49=MINIFIX|56=EXCHANGE|34=76|52=20260416-01:50:42|11=2105608379|21=1|55=AAPL|54=1|60=20260416-01:50:42|40=2|44=2.50|38=100|59=0|10=079|
> 8=FIX.4.2|9=134|35=9|34=76|49=EXCHANGE|52=20260416-01:50:42.937|56=MINIFIX|11=2105608377|37=UNKNOWN|39=8|41=2105608376|58=Order not found|102=1|434=1|10=012|
< 8=FIX.4.2|9=147|35=G|49=MINIFIX|56=EXCHANGE|34=77|52=20260416-01:50:42|41=2105608379|11=2105608380|21=1|55=AAPL|54=1|60=20260416-01:50:42|40=2|38=100|44=3.00|59=0|10=248|
> 8=FIX.4.2|9=221|35=8|34=77|49=EXCHANGE|52=20260416-01:50:42.939|56=MINIFIX|6=0|11=2105608379|14=0|17=EXEC-1776303566364|31=0|32=0|37=20260416-072042-614145|38=100|39=0|40=2|44=2.5|54=1|55=AAPL|59=0|60=20260416-07:20:42.939|150=0|151=100|10=229|
< 8=FIX.4.2|9=124|35=F|49=MINIFIX|56=EXCHANGE|34=78|52=20260416-01:50:42|41=2105608380|11=2105608381|55=AAPL|54=1|60=20260416-01:50:42|38=100|10=003|
> 8=FIX.4.2|9=134|35=9|34=78|49=EXCHANGE|52=20260416-01:50:42.940|56=MINIFIX|11=2105608380|37=UNKNOWN|39=8|41=2105608379|58=Order not found|102=1|434=1|10=005|
< 8=FIX.4.2|9=133|35=D|49=MINIFIX|56=EXCHANGE|34=79|52=20260416-01:50:42|11=2105608383|21=1|55=AAPL|54=1|60=20260416-01:50:42|40=2|44=2.50|38=100|59=0|10=077|
> 8=FIX.4.2|9=134|35=9|34=79|49=EXCHANGE|52=20260416-01:50:42.940|56=MINIFIX|11=2105608381|37=UNKNOWN|39=8|41=2105608380|58=Order not found|102=1|434=1|10=255|
< 8=FIX.4.2|9=147|35=G|49=MINIFIX|56=EXCHANGE|34=80|52=20260416-01:50:42|41=2105608383|11=2105608384|21=1|55=AAPL|54=1|60=20260416-01:50:42|40=2|38=100|44=3.00|59=0|10=241|
> 8=FIX.4.2|9=221|35=8|34=80|49=EXCHANGE|52=20260416-01:50:42.941|56=MINIFIX|6=0|11=2105608383|14=0|17=EXEC-1776303566365|31=0|32=0|37=20260416-072042-614146|38=100|39=0|40=2|44=2.5|54=1|55=AAPL|59=0|60=20260416-07:20:42.941|150=0|151=100|10=206|
< 8=FIX.4.2|9=124|35=F|49=MINIFIX|56=EXCHANGE|34=81|52=20260416-01:50:42|41=2105608384|11=2105608385|55=AAPL|54=1|60=20260416-01:50:42|38=100|10=005|
> 8=FIX.4.2|9=233|35=8|34=81|49=EXCHANGE|52=20260416-01:50:42.942|56=MINIFIX|6=0|11=2105608384|14=0|17=EXEC-1776303566366|31=0|32=0|37=20260416-072042-614146|38=100|39=5|40=2|41=2105608383|44=3|54=1|55=AAPL|59=0|60=20260416-07:20:42.942|150=5|151=100|10=037|
< 8=FIX.4.2|9=133|35=D|49=MINIFIX|56=EXCHANGE|34=82|52=20260416-01:50:42|11=2105608387|21=1|55=AAPL|54=1|60=20260416-01:50:42|40=2|44=2.50|38=100|59=0|10=075|
< 8=FIX.4.2|9=147|35=G|49=MINIFIX|56=EXCHANGE|34=83|52=20260416-01:50:42|41=2105608387|11=2105608388|21=1|55=AAPL|54=1|60=20260416-01:50:42|40=2|38=100|44=3.00|59=0|10=252|
> 8=FIX.4.2|9=217|35=8|34=82|49=EXCHANGE|52=20260416-01:50:42.943|56=MINIFIX|6=0|11=2105608384|14=0|17=EXEC-1776303566367|31=0|32=0|37=20260416-072042-614146|38=100|39=4|40=2|44=3|54=1|55=AAPL|59=0|60=20260416-07:20:42.943|150=4|151=0|10=033|
< 8=FIX.4.2|9=124|35=F|49=MINIFIX|56=EXCHANGE|34=84|52=20260416-01:50:42|41=2105608388|11=2105608389|55=AAPL|54=1|60=20260416-01:50:42|38=100|10=016|
> 8=FIX.4.2|9=134|35=9|34=83|49=EXCHANGE|52=20260416-01:50:42.944|56=MINIFIX|11=2105608388|37=UNKNOWN|39=8|41=2105608387|58=Order not found|102=1|434=1|10=012|
< 8=FIX.4.2|9=133|35=D|49=MINIFIX|56=EXCHANGE|34=85|52=20260416-01:50:42|11=2105608391|21=1|55=AAPL|54=1|60=20260416-01:50:42|40=2|44=2.50|38=100|59=0|10=073|
> 8=FIX.4.2|9=221|35=8|34=84|49=EXCHANGE|52=20260416-01:50:42.944|56=MINIFIX|6=0|11=2105608387|14=0|17=EXEC-1776303566368|31=0|32=0|37=20260416-072042-614147|38=100|39=0|40=2|44=2.5|54=1|55=AAPL|59=0|60=20260416-07:20:42.944|150=0|151=100|10=224|
> 8=FIX.4.2|9=134|35=9|34=85|49=EXCHANGE|52=20260416-01:50:42.945|56=MINIFIX|11=2105608389|37=UNKNOWN|39=8|41=2105608388|58=Order not found|102=1|434=1|10=017|
< 8=FIX.4.2|9=147|35=G|49=MINIFIX|56=EXCHANGE|34=86|52=20260416-01:50:42|41=2105608391|11=2105608392|21=1|55=AAPL|54=1|60=20260416-01:50:42|40=2|38=100|44=3.00|59=0|10=245|
> 8=FIX.4.2|9=134|35=9|34=86|49=EXCHANGE|52=20260416-01:50:42.945|56=MINIFIX|11=2105608392|37=UNKNOWN|39=8|41=2105608391|58=Order not found|102=1|434=1|10=006|
> 8=FIX.4.2|9=221|35=8|34=87|49=EXCHANGE|52=20260416-01:50:42.945|56=MINIFIX|6=0|11=2105608391|14=0|17=EXEC-1776303566369|31=0|32=0|37=20260416-072042-614148|38=100|39=0|40=2|44=2.5|54=1|55=AAPL|59=0|60=20260416-07:20:42.945|150=0|151=100|10=226|
< 8=FIX.4.2|9=124|35=F|49=MINIFIX|56=EXCHANGE|34=87|52=20260416-01:50:42|41=2105608392|11=2105608393|55=AAPL|54=1|60=20260416-01:50:42|38=100|10=009|
> 8=FIX.4.2|9=134|35=9|34=88|49=EXCHANGE|52=20260416-01:50:42.946|56=MINIFIX|11=2105608393|37=UNKNOWN|39=8|41=2105608392|58=Order not found|102=1|434=1|10=011|
< 8=FIX.4.2|9=133|35=D|49=MINIFIX|56=EXCHANGE|34=88|52=20260416-01:50:42|11=2105608395|21=1|55=AAPL|54=1|60=20260416-01:50:42|40=2|44=2.50|38=100|59=0|10=080|
< 8=FIX.4.2|9=147|35=G|49=MINIFIX|56=EXCHANGE|34=89|52=20260416-01:50:42|41=2105608395|11=2105608396|21=1|55=AAPL|54=1|60=20260416-01:50:42|40=2|38=100|44=3.00|59=0|10=000|
> 8=FIX.4.2|9=221|35=8|34=89|49=EXCHANGE|52=20260416-01:50:42.948|56=MINIFIX|6=0|11=2105608395|14=0|17=EXEC-1776303566370|31=0|32=0|37=20260416-072042-614149|38=100|39=0|40=2|44=2.5|54=1|55=AAPL|59=0|60=20260416-07:20:42.948|150=0|151=100|10=231|
< 8=FIX.4.2|9=124|35=F|49=MINIFIX|56=EXCHANGE|34=90|52=20260416-01:50:42|41=2105608396|11=2105608397|55=AAPL|54=1|60=20260416-01:50:42|38=100|10=011|
> 8=FIX.4.2|9=233|35=8|34=90|49=EXCHANGE|52=20260416-01:50:42.948|56=MINIFIX|6=0|11=2105608396|14=0|17=EXEC-1776303566371|31=0|32=0|37=20260416-072042-614149|38=100|39=5|40=2|41=2105608395|44=3|54=1|55=AAPL|59=0|60=20260416-07:20:42.948|150=5|151=100|10=054|
< 8=FIX.4.2|9=133|35=D|49=MINIFIX|56=EXCHANGE|34=91|52=20260416-01:50:42|11=2105608399|21=1|55=AAPL|54=1|60=20260416-01:50:42|40=2|44=2.50|38=100|59=0|10=078|
> 8=FIX.4.2|9=217|35=8|34=91|49=EXCHANGE|52=20260416-01:50:42.949|56=MINIFIX|6=0|11=2105608396|14=0|17=EXEC-1776303566372|31=0|32=0|37=20260416-072042-614149|38=100|39=4|40=2|44=3|54=1|55=AAPL|59=0|60=20260416-07:20:42.949|150=4|151=0|10=047|
< 8=FIX.4.2|9=147|35=G|49=MINIFIX|56=EXCHANGE|34=92|52=20260416-01:50:42|41=2105608399|11=2105608400|21=1|55=AAPL|54=1|60=20260416-01:50:42|40=2|38=100|44=3.00|59=0|10=240|
> 8=FIX.4.2|9=134|35=9|34=92|49=EXCHANGE|52=20260416-01:50:42.950|56=MINIFIX|11=2105608400|37=UNKNOWN|39=8|41=2105608399|58=Order not found|102=1|434=1|10=253|
> 8=FIX.4.2|9=221|35=8|34=93|49=EXCHANGE|52=20260416-01:50:42.951|56=MINIFIX|6=0|11=2105608399|14=0|17=EXEC-1776303566373|31=0|32=0|37=20260416-072042-614150|38=100|39=0|40=2|44=2.5|54=1|55=AAPL|59=0|60=20260416-07:20:42.951|150=0|151=100|10=213|
< 8=FIX.4.2|9=124|35=F|49=MINIFIX|56=EXCHANGE|34=93|52=20260416-01:50:42|41=2105608400|11=2105608401|55=AAPL|54=1|60=20260416-01:50:42|38=100|10=242|
< 8=FIX.4.2|9=133|35=D|49=MINIFIX|56=EXCHANGE|34=94|52=20260416-01:50:42|11=2105608403|21=1|55=AAPL|54=1|60=20260416-01:50:42|40=2|44=2.50|38=100|59=0|10=067|
> 8=FIX.4.2|9=134|35=9|34=94|49=EXCHANGE|52=20260416-01:50:42.951|56=MINIFIX|11=2105608401|37=UNKNOWN|39=8|41=2105608400|58=Order not found|102=1|434=1|10=240|
< 8=FIX.4.2|9=147|35=G|49=MINIFIX|56=EXCHANGE|34=95|52=20260416-01:50:42|41=2105608403|11=2105608404|21=1|55=AAPL|54=1|60=20260416-01:50:42|40=2|38=100|44=3.00|59=0|10=233|
> 8=FIX.4.2|9=134|35=9|34=95|49=EXCHANGE|52=20260416-01:50:42.952|56=MINIFIX|11=2105608404|37=UNKNOWN|39=8|41=2105608403|58=Order not found|102=1|434=1|10=248|
> 8=FIX.4.2|9=221|35=8|34=96|49=EXCHANGE|52=20260416-01:50:42.952|56=MINIFIX|6=0|11=2105608403|14=0|17=EXEC-1776303566374|31=0|32=0|37=20260416-072042-614151|38=100|39=0|40=2|44=2.5|54=1|55=AAPL|59=0|60=20260416-07:20:42.952|150=0|151=100|10=206|
< 8=FIX.4.2|9=124|35=F|49=MINIFIX|56=EXCHANGE|34=96|52=20260416-01:50:42|41=2105608404|11=2105608405|55=AAPL|54=1|60=20260416-01:50:42|38=100|10=253|
< 8=FIX.4.2|9=133|35=D|49=MINIFIX|56=EXCHANGE|34=97|52=20260416-01:50:42|11=2105608407|21=1|55=AAPL|54=1|60=20260416-01:50:42|40=2|44=2.50|38=100|59=0|10=074|
> 8=FIX.4.2|9=134|35=9|34=97|49=EXCHANGE|52=20260416-01:50:42.953|56=MINIFIX|11=2105608405|37=UNKNOWN|39=8|41=2105608404|58=Order not found|102=1|434=1|10=253|
< 8=FIX.4.2|9=147|35=G|49=MINIFIX|56=EXCHANGE|34=98|52=20260416-01:50:42|41=2105608407|11=2105608408|21=1|55=AAPL|54=1|60=20260416-01:50:42|40=2|38=100|44=3.00|59=0|10=244|
> 8=FIX.4.2|9=221|35=8|34=98|49=EXCHANGE|52=20260416-01:50:42.954|56=MINIFIX|6=0|11=2105608407|14=0|17=EXEC-1776303566375|31=0|32=0|37=20260416-072042-614152|38=100|39=0|40=2|44=2.5|54=1|55=AAPL|59=0|60=20260416-07:20:42.954|150=0|151=100|10=218|
< 8=FIX.4.2|9=124|35=F|49=MINIFIX|56=EXCHANGE|34=99|52=20260416-01:50:42|41=2105608408|11=2105608409|55=AAPL|54=1|60=20260416-01:50:42|38=100|10=008|
> 8=FIX.4.2|9=233|35=8|34=99|49=EXCHANGE|52=20260416-01:50:42.954|56=MINIFIX|6=0|11=2105608408|14=0|17=EXEC-1776303566376|31=0|32=0|37=20260416-072042-614152|38=100|39=5|40=2|41=2105608407|44=3|54=1|55=AAPL|59=0|60=20260416-07:20:42.954|150=5|151=100|10=044|
< 8=FIX.4.2|9=134|35=D|49=MINIFIX|56=EXCHANGE|34=100|52=20260416-01:50:42|11=2105608411|21=1|55=AAPL|54=1|60=20260416-01:50:42|40=2|44=2.50|38=100|59=0|10=103|
> 8=FIX.4.2|9=218|35=8|34=100|49=EXCHANGE|52=20260416-01:50:42.956|56=MINIFIX|6=0|11=2105608408|14=0|17=EXEC-1776303566377|31=0|32=0|37=20260416-072042-614152|38=100|39=4|40=2|44=3|54=1|55=AAPL|59=0|60=20260416-07:20:42.956|150=4|151=0|10=076|
< 8=FIX.4.2|9=148|35=G|49=MINIFIX|56=EXCHANGE|34=101|52=20260416-01:50:42|41=2105608411|11=2105608412|21=1|55=AAPL|54=1|60=20260416-01:50:42|40=2|38=100|44=3.00|59=0|10=012|
> 8=FIX.4.2|9=135|35=9|34=101|49=EXCHANGE|52=20260416-01:50:42.958|56=MINIFIX|11=2105608412|37=UNKNOWN|39=8|41=2105608411|58=Order not found|102=1|434=1|10=033|
> 8=FIX.4.2|9=222|35=8|34=102|49=EXCHANGE|52=20260416-01:50:42.958|56=MINIFIX|6=0|11=2105608411|14=0|17=EXEC-1776303566378|31=0|32=0|37=20260416-072042-614153|38=100|39=0|40=2|44=2.5|54=1|55=AAPL|59=0|60=20260416-07:20:42.958|150=0|151=100|10=004|
< 8=FIX.4.2|9=125|35=F|49=MINIFIX|56=EXCHANGE|34=102|52=20260416-01:50:42|41=2105608412|11=2105608413|55=AAPL|54=1|60=20260416-01:50:42|38=100|10=032|
< 8=FIX.4.2|9=134|35=D|49=MINIFIX|56=EXCHANGE|34=103|52=20260416-01:50:42|11=2105608415|21=1|55=AAPL|54=1|60=20260416-01:50:42|40=2|44=2.50|38=100|59=0|10=110|
> 8=FIX.4.2|9=135|35=9|34=103|49=EXCHANGE|52=20260416-01:50:42.958|56=MINIFIX|11=2105608413|37=UNKNOWN|39=8|41=2105608412|58=Order not found|102=1|434=1|10=037|
< 8=FIX.4.2|9=148|35=G|49=MINIFIX|56=EXCHANGE|34=104|52=20260416-01:50:42|41=2105608415|11=2105608416|21=1|55=AAPL|54=1|60=20260416-01:50:42|40=2|38=100|44=3.00|59=0|10=023|
> 8=FIX.4.2|9=222|35=8|34=104|49=EXCHANGE|52=20260416-01:50:42.959|56=MINIFIX|6=0|11=2105608415|14=0|17=EXEC-1776303566379|31=0|32=0|37=20260416-072042-614154|38=100|39=0|40=2|44=2.5|54=1|55=AAPL|59=0|60=20260416-07:20:42.959|150=0|151=100|10=014|
< 8=FIX.4.2|9=125|35=F|49=MINIFIX|56=EXCHANGE|34=105|52=20260416-01:50:42|41=2105608416|11=2105608417|55=AAPL|54=1|60=20260416-01:50:42|38=100|10=043|
> 8=FIX.4.2|9=234|35=8|34=105|49=EXCHANGE|52=20260416-01:50:42.960|56=MINIFIX|6=0|11=2105608416|14=0|17=EXEC-1776303566380|31=0|32=0|37=20260416-072042-614154|38=100|39=5|40=2|41=2105608415|44=3|54=1|55=AAPL|59=0|60=20260416-07:20:42.960|150=5|151=100|10=070|
< 8=FIX.4.2|9=134|35=D|49=MINIFIX|56=EXCHANGE|34=106|52=20260416-01:50:42|11=2105608419|21=1|55=AAPL|54=1|60=20260416-01:50:42|40=2|44=2.50|38=100|59=0|10=117|
> 8=FIX.4.2|9=218|35=8|34=106|49=EXCHANGE|52=20260416-01:50:42.961|56=MINIFIX|6=0|11=2105608416|14=0|17=EXEC-1776303566381|31=0|32=0|37=20260416-072042-614154|38=100|39=4|40=2|44=3|54=1|55=AAPL|59=0|60=20260416-07:20:42.961|150=4|151=0|10=070|
< 8=FIX.4.2|9=148|35=G|49=MINIFIX|56=EXCHANGE|34=107|52=20260416-01:50:42|41=2105608419|11=2105608420|21=1|55=AAPL|54=1|60=20260416-01:50:42|40=2|38=100|44=3.00|59=0|10=025|
> 8=FIX.4.2|9=135|35=9|34=107|49=EXCHANGE|52=20260416-01:50:42.962|56=MINIFIX|11=2105608420|37=UNKNOWN|39=8|41=2105608419|58=Order not found|102=1|434=1|10=041|
> 8=FIX.4.2|9=222|35=8|34=108|49=EXCHANGE|52=20260416-01:50:42.962|56=MINIFIX|6=0|11=2105608419|14=0|17=EXEC-1776303566382|31=0|32=0|37=20260416-072042-614155|38=100|39=0|40=2|44=2.5|54=1|55=AAPL|59=0|60=20260416-07:20:42.962|150=0|151=100|10=005|
< 8=FIX.4.2|9=125|35=F|49=MINIFIX|56=EXCHANGE|34=108|52=20260416-01:50:42|41=2105608420|11=2105608421|55=AAPL|54=1|60=20260416-01:50:42|38=100|10=036|
< 8=FIX.4.2|9=134|35=D|49=MINIFIX|56=EXCHANGE|34=109|52=20260416-01:50:42|11=2105608423|21=1|55=AAPL|54=1|60=20260416-01:50:42|40=2|44=2.50|38=100|59=0|10=115|
> 8=FIX.4.2|9=135|35=9|34=109|49=EXCHANGE|52=20260416-01:50:42.963|56=MINIFIX|11=2105608421|37=UNKNOWN|39=8|41=2105608420|58=Order not found|102=1|434=1|10=037|
< 8=FIX.4.2|9=148|35=G|49=MINIFIX|56=EXCHANGE|34=110|52=20260416-01:50:42|41=2105608423|11=2105608424|21=1|55=AAPL|54=1|60=20260416-01:50:42|40=2|38=100|44=3.00|59=0|10=018|
> 8=FIX.4.2|9=222|35=8|34=110|49=EXCHANGE|52=20260416-01:50:42.964|56=MINIFIX|6=0|11=2105608423|14=0|17=EXEC-1776303566383|31=0|32=0|37=20260416-072042-614156|38=100|39=0|40=2|44=2.5|54=1|55=AAPL|59=0|60=20260416-07:20:42.964|150=0|151=100|10=255|
< 8=FIX.4.2|9=125|35=F|49=MINIFIX|56=EXCHANGE|34=111|52=20260416-01:50:42|41=2105608424|11=2105608425|55=AAPL|54=1|60=20260416-01:50:42|38=100|10=038|
> 8=FIX.4.2|9=135|35=9|34=111|49=EXCHANGE|52=20260416-01:50:42.964|56=MINIFIX|11=2105608424|37=UNKNOWN|39=8|41=2105608423|58=Order not found|102=1|434=1|10=037|
< 8=FIX.4.2|9=134|35=D|49=MINIFIX|56=EXCHANGE|34=112|52=20260416-01:50:42|11=2105608427|21=1|55=AAPL|54=1|60=20260416-01:50:42|40=2|44=2.50|38=100|59=0|10=113|
> 8=FIX.4.2|9=135|35=9|34=112|49=EXCHANGE|52=20260416-01:50:42.964|56=MINIFIX|11=2105608425|37=UNKNOWN|39=8|41=2105608424|58=Order not found|102=1|434=1|10=040|
< 8=FIX.4.2|9=148|35=G|49=MINIFIX|56=EXCHANGE|34=113|52=20260416-01:50:42|41=2105608427|11=2105608428|21=1|55=AAPL|54=1|60=20260416-01:50:42|40=2|38=100|44=3.00|59=0|10=029|
> 8=FIX.4.2|9=222|35=8|34=113|49=EXCHANGE|52=20260416-01:50:42.965|56=MINIFIX|6=0|11=2105608427|14=0|17=EXEC-1776303566384|31=0|32=0|37=20260416-072042-614157|38=100|39=0|40=2|44=2.5|54=1|55=AAPL|59=0|60=20260416-07:20:42.965|150=0|151=100|10=010|
< 8=FIX.4.2|9=125|35=F|49=MINIFIX|56=EXCHANGE|34=114|52=20260416-01:50:42|41=2105608428|11=2105608429|55=AAPL|54=1|60=20260416-01:50:42|38=100|10=049|
> 8=FIX.4.2|9=234|35=8|34=114|49=EXCHANGE|52=20260416-01:50:42.966|56=MINIFIX|6=0|11=2105608428|14=0|17=EXEC-1776303566385|31=0|32=0|37=20260416-072042-614157|38=100|39=5|40=2|41=2105608427|44=3|54=1|55=AAPL|59=0|60=20260416-07:20:42.966|150=5|151=100|10=096|
< 8=FIX.4.2|9=134|35=D|49=MINIFIX|56=EXCHANGE|34=115|52=20260416-01:50:42|11=2105608431|21=1|55=AAPL|54=1|60=20260416-01:50:42|40=2|44=2.50|38=100|59=0|10=111|
> 8=FIX.4.2|9=218|35=8|34=115|49=EXCHANGE|52=20260416-01:50:42.966|56=MINIFIX|6=0|11=2105608428|14=0|17=EXEC-1776303566386|31=0|32=0|37=20260416-072042-614157|38=100|39=4|40=2|44=3|54=1|55=AAPL|59=0|60=20260416-07:20:42.966|150=4|151=0|10=091|
< 8=FIX.4.2|9=148|35=G|49=MINIFIX|56=EXCHANGE|34=116|52=20260416-01:50:42|41=2105608431|11=2105608432|21=1|55=AAPL|54=1|60=20260416-01:50:42|40=2|38=100|44=3.00|59=0|10=022|
< 8=FIX.4.2|9=125|35=F|49=MINIFIX|56=EXCHANGE|34=117|52=20260416-01:50:42|41=2105608432|11=2105608433|55=AAPL|54=1|60=20260416-01:50:42|38=100|10=042|
> 8=FIX.4.2|9=135|35=9|34=116|49=EXCHANGE|52=20260416-01:50:42.968|56=MINIFIX|11=2105608432|37=UNKNOWN|39=8|41=2105608431|58=Order not found|102=1|434=1|10=044|
> 8=FIX.4.2|9=222|35=8|34=117|49=EXCHANGE|52=20260416-01:50:42.969|56=MINIFIX|6=0|11=2105608431|14=0|17=EXEC-1776303566387|31=0|32=0|37=20260416-072042-614158|38=100|39=0|40=2|44=2.5|54=1|55=AAPL|59=0|60=20260416-07:20:42.969|150=0|151=100|10=021|
< 8=FIX.4.2|9=134|35=D|49=MINIFIX|56=EXCHANGE|34=118|52=20260416-01:50:42|11=2105608435|21=1|55=AAPL|54=1|60=20260416-01:50:42|40=2|44=2.50|38=100|59=0|10=118|
> 8=FIX.4.2|9=135|35=9|34=118|49=EXCHANGE|52=20260416-01:50:42.969|56=MINIFIX|11=2105608433|37=UNKNOWN|39=8|41=2105608432|58=Order not found|102=1|434=1|10=049|
< 8=FIX.4.2|9=148|35=G|49=MINIFIX|56=EXCHANGE|34=119|52=20260416-01:50:42|41=2105608435|11=2105608436|21=1|55=AAPL|54=1|60=20260416-01:50:42|40=2|38=100|44=3.00|59=0|10=033|
> 8=FIX.4.2|9=135|35=9|34=119|49=EXCHANGE|52=20260416-01:50:42.970|56=MINIFIX|11=2105608436|37=UNKNOWN|39=8|41=2105608435|58=Order not found|102=1|434=1|10=048|
< 8=FIX.4.2|9=125|35=F|49=MINIFIX|56=EXCHANGE|34=120|52=20260416-01:50:42|41=2105608436|11=2105608437|55=AAPL|54=1|60=20260416-01:50:42|38=100|10=044|
> 8=FIX.4.2|9=222|35=8|34=120|49=EXCHANGE|52=20260416-01:50:42.970|56=MINIFIX|6=0|11=2105608435|14=0|17=EXEC-1776303566388|31=0|32=0|37=20260416-072042-614159|38=100|39=0|40=2|44=2.5|54=1|55=AAPL|59=0|60=20260416-07:20:42.970|150=0|151=100|10=005|
< 8=FIX.4.2|9=134|35=D|49=MINIFIX|56=EXCHANGE|34=121|52=20260416-01:50:42|11=2105608439|21=1|55=AAPL|54=1|60=20260416-01:50:42|40=2|44=2.50|38=100|59=0|10=116|
> 8=FIX.4.2|9=135|35=9|34=121|49=EXCHANGE|52=20260416-01:50:42.971|56=MINIFIX|11=2105608437|37=UNKNOWN|39=8|41=2105608436|58=Order not found|102=1|434=1|10=044|
< 8=FIX.4.2|9=148|35=G|49=MINIFIX|56=EXCHANGE|34=122|52=20260416-01:50:42|41=2105608439|11=2105608440|21=1|55=AAPL|54=1|60=20260416-01:50:42|40=2|38=100|44=3.00|59=0|10=026|
> 8=FIX.4.2|9=135|35=9|34=122|49=EXCHANGE|52=20260416-01:50:42.971|56=MINIFIX|11=2105608440|37=UNKNOWN|39=8|41=2105608439|58=Order not found|102=1|434=1|10=042|
< 8=FIX.4.2|9=125|35=F|49=MINIFIX|56=EXCHANGE|34=123|52=20260416-01:50:42|41=2105608440|11=2105608441|55=AAPL|54=1|60=20260416-01:50:42|38=100|10=037|
> 8=FIX.4.2|9=222|35=8|34=123|49=EXCHANGE|52=20260416-01:50:42.971|56=MINIFIX|6=0|11=2105608439|14=0|17=EXEC-1776303566389|31=0|32=0|37=20260416-072042-614160|38=100|39=0|40=2|44=2.5|54=1|55=AAPL|59=0|60=20260416-07:20:42.971|150=0|151=100|10=007|
< 8=FIX.4.2|9=134|35=D|49=MINIFIX|56=EXCHANGE|34=124|52=20260416-01:50:42|11=2105608443|21=1|55=AAPL|54=1|60=20260416-01:50:42|40=2|44=2.50|38=100|59=0|10=114|
> 8=FIX.4.2|9=135|35=9|34=124|49=EXCHANGE|52=20260416-01:50:42.973|56=MINIFIX|11=2105608441|37=UNKNOWN|39=8|41=2105608440|58=Order not found|102=1|434=1|10=039|
< 8=FIX.4.2|9=148|35=G|49=MINIFIX|56=EXCHANGE|34=125|52=20260416-01:50:42|41=2105608443|11=2105608444|21=1|55=AAPL|54=1|60=20260416-01:50:42|40=2|38=100|44=3.00|59=0|10=028|
> 8=FIX.4.2|9=222|35=8|34=125|49=EXCHANGE|52=20260416-01:50:42.974|56=MINIFIX|6=0|11=2105608443|14=0|17=EXEC-1776303566390|31=0|32=0|37=20260416-072042-614161|38=100|39=0|40=2|44=2.5|54=1|55=AAPL|59=0|60=20260416-07:20:42.974|150=0|151=100|10=003|
< 8=FIX.4.2|9=125|35=F|49=MINIFIX|56=EXCHANGE|34=126|52=20260416-01:50:42|41=2105608444|11=2105608445|55=AAPL|54=1|60=20260416-01:50:42|38=100|10=048|
> 8=FIX.4.2|9=135|35=9|34=126|49=EXCHANGE|52=20260416-01:50:42.974|56=MINIFIX|11=2105608444|37=UNKNOWN|39=8|41=2105608443|58=Order not found|102=1|434=1|10=048|
< 8=FIX.4.2|9=134|35=D|49=MINIFIX|56=EXCHANGE|34=127|52=20260416-01:50:42|11=2105608447|21=1|55=AAPL|54=1|60=20260416-01:50:42|40=2|44=2.50|38=100|59=0|10=121|
> 8=FIX.4.2|9=135|35=9|34=127|49=EXCHANGE|52=20260416-01:50:42.975|56=MINIFIX|11=2105608445|37=UNKNOWN|39=8|41=2105608444|58=Order not found|102=1|434=1|10=052|
< 8=FIX.4.2|9=148|35=G|49=MINIFIX|56=EXCHANGE|34=128|52=20260416-01:50:42|41=2105608447|11=2105608448|21=1|55=AAPL|54=1|60=20260416-01:50:42|40=2|38=100|44=3.00|59=0|10=039|
> 8=FIX.4.2|9=222|35=8|34=128|49=EXCHANGE|52=20260416-01:50:42.976|56=MINIFIX|6=0|11=2105608447|14=0|17=EXEC-1776303566391|31=0|32=0|37=20260416-072042-614162|38=100|39=0|40=2|44=2.5|54=1|55=AAPL|59=0|60=20260416-07:20:42.976|150=0|151=100|10=016|
< 8=FIX.4.2|9=125|35=F|49=MINIFIX|56=EXCHANGE|34=129|52=20260416-01:50:42|41=2105608448|11=2105608449|55=AAPL|54=1|60=20260416-01:50:42|38=100|10=059|
> 8=FIX.4.2|9=135|35=9|34=129|49=EXCHANGE|52=20260416-01:50:42.976|56=MINIFIX|11=2105608448|37=UNKNOWN|39=8|41=2105608447|58=Order not found|102=1|434=1|10=061|
< 8=FIX.4.2|9=134|35=D|49=MINIFIX|56=EXCHANGE|34=130|52=20260416-01:50:42|11=2105608451|21=1|55=AAPL|54=1|60=20260416-01:50:42|40=2|44=2.50|38=100|59=0|10=110|
> 8=FIX.4.2|9=135|35=9|34=130|49=EXCHANGE|52=20260416-01:50:42.977|56=MINIFIX|11=2105608449|37=UNKNOWN|39=8|41=2105608448|58=Order not found|102=1|434=1|10=056|
< 8=FIX.4.2|9=148|35=G|49=MINIFIX|56=EXCHANGE|34=131|52=20260416-01:50:42|41=2105608451|11=2105608452|21=1|55=AAPL|54=1|60=20260416-01:50:42|40=2|38=100|44=3.00|59=0|10=023|
> 8=FIX.4.2|9=222|35=8|34=131|49=EXCHANGE|52=20260416-01:50:42.977|56=MINIFIX|6=0|11=2105608451|14=0|17=EXEC-1776303566392|31=0|32=0|37=20260416-072042-614163|38=100|39=0|40=2|44=2.5|54=1|55=AAPL|59=0|60=20260416-07:20:42.977|150=0|151=100|10=009|
< 8=FIX.4.2|9=125|35=F|49=MINIFIX|56=EXCHANGE|34=132|52=20260416-01:50:42|41=2105608452|11=2105608453|55=AAPL|54=1|60=20260416-01:50:42|38=100|10=043|
> 8=FIX.4.2|9=234|35=8|34=132|49=EXCHANGE|52=20260416-01:50:42.979|56=MINIFIX|6=0|11=2105608452|14=0|17=EXEC-1776303566393|31=0|32=0|37=20260416-072042-614163|38=100|39=5|40=2|41=2105608451|44=3|54=1|55=AAPL|59=0|60=20260416-07:20:42.979|150=5|151=100|10=094|
< 8=FIX.4.2|9=134|35=D|49=MINIFIX|56=EXCHANGE|34=133|52=20260416-01:50:42|11=2105608455|21=1|55=AAPL|54=1|60=20260416-01:50:42|40=2|44=2.50|38=100|59=0|10=117|
> 8=FIX.4.2|9=218|35=8|34=133|49=EXCHANGE|52=20260416-01:50:42.980|56=MINIFIX|6=0|11=2105608452|14=0|17=EXEC-1776303566394|31=0|32=0|37=20260416-072042-614163|38=100|39=4|40=2|44=3|54=1|55=AAPL|59=0|60=20260416-07:20:42.980|150=4|151=0|10=076|
< 8=FIX.4.2|9=148|35=G|49=MINIFIX|56=EXCHANGE|34=134|52=20260416-01:50:42|41=2105608455|11=2105608456|21=1|55=AAPL|54=1|60=20260416-01:50:42|40=2|38=100|44=3.00|59=0|10=034|
> 8=FIX.4.2|9=135|35=9|34=134|49=EXCHANGE|52=20260416-01:50:42.980|56=MINIFIX|11=2105608456|37=UNKNOWN|39=8|41=2105608455|58=Order not found|102=1|434=1|10=050|
< 8=FIX.4.2|9=125|35=F|49=MINIFIX|56=EXCHANGE|34=135|52=20260416-01:50:42|41=2105608456|11=2105608457|55=AAPL|54=1|60=20260416-01:50:42|38=100|10=054|
> 8=FIX.4.2|9=222|35=8|34=135|49=EXCHANGE|52=20260416-01:50:42.981|56=MINIFIX|6=0|11=2105608455|14=0|17=EXEC-1776303566395|31=0|32=0|37=20260416-072042-614164|38=100|39=0|40=2|44=2.5|54=1|55=AAPL|59=0|60=20260416-07:20:42.981|150=0|151=100|10=011|
> 8=FIX.4.2|9=135|35=9|34=136|49=EXCHANGE|52=20260416-01:50:42.981|56=MINIFIX|11=2105608457|37=UNKNOWN|39=8|41=2105608456|58=Order not found|102=1|434=1|10=055|
< 8=FIX.4.2|9=134|35=D|49=MINIFIX|56=EXCHANGE|34=136|52=20260416-01:50:42|11=2105608459|21=1|55=AAPL|54=1|60=20260416-01:50:42|40=2|44=2.50|38=100|59=0|10=124|
< 8=FIX.4.2|9=148|35=G|49=MINIFIX|56=EXCHANGE|34=137|52=20260416-01:50:42|41=2105608459|11=2105608460|21=1|55=AAPL|54=1|60=20260416-01:50:42|40=2|38=100|44=3.00|59=0|10=036|
> 8=FIX.4.2|9=222|35=8|34=137|49=EXCHANGE|52=20260416-01:50:42.983|56=MINIFIX|6=0|11=2105608459|14=0|17=EXEC-1776303566396|31=0|32=0|37=20260416-072042-614165|38=100|39=0|40=2|44=2.5|54=1|55=AAPL|59=0|60=20260416-07:20:42.983|150=0|151=100|10=023|
< 8=FIX.4.2|9=125|35=F|49=MINIFIX|56=EXCHANGE|34=138|52=20260416-01:50:42|41=2105608460|11=2105608461|55=AAPL|54=1|60=20260416-01:50:42|38=100|10=047|
> 8=FIX.4.2|9=234|35=8|34=138|49=EXCHANGE|52=20260416-01:50:42.983|56=MINIFIX|6=0|11=2105608460|14=0|17=EXEC-1776303566397|31=0|32=0|37=20260416-072042-614165|38=100|39=5|40=2|41=2105608459|44=3|54=1|55=AAPL|59=0|60=20260416-07:20:42.983|150=5|151=100|10=103|
< 8=FIX.4.2|9=134|35=D|49=MINIFIX|56=EXCHANGE|34=139|52=20260416-01:50:42|11=2105608463|21=1|55=AAPL|54=1|60=20260416-01:50:42|40=2|44=2.50|38=100|59=0|10=122|
< 8=FIX.4.2|9=148|35=G|49=MINIFIX|56=EXCHANGE|34=140|52=20260416-01:50:42|41=2105608463|11=2105608464|21=1|55=AAPL|54=1|60=20260416-01:50:42|40=2|38=100|44=3.00|59=0|10=029|
> 8=FIX.4.2|9=218|35=8|34=139|49=EXCHANGE|52=20260416-01:50:42.984|56=MINIFIX|6=0|11=2105608460|14=0|17=EXEC-1776303566398|31=0|32=0|37=20260416-072042-614165|38=100|39=4|40=2|44=3|54=1|55=AAPL|59=0|60=20260416-07:20:42.984|150=4|151=0|10=095|
< 8=FIX.4.2|9=125|35=F|49=MINIFIX|56=EXCHANGE|34=141|52=20260416-01:50:42|41=2105608464|11=2105608465|55=AAPL|54=1|60=20260416-01:50:42|38=100|10=049|
> 8=FIX.4.2|9=135|35=9|34=140|49=EXCHANGE|52=20260416-01:50:42.985|56=MINIFIX|11=2105608464|37=UNKNOWN|39=8|41=2105608463|58=Order not found|102=1|434=1|10=050|
< 8=FIX.4.2|9=134|35=D|49=MINIFIX|56=EXCHANGE|34=142|52=20260416-01:50:42|11=2105608467|21=1|55=AAPL|54=1|60=20260416-01:50:42|40=2|44=2.50|38=100|59=0|10=120|
> 8=FIX.4.2|9=222|35=8|34=141|49=EXCHANGE|52=20260416-01:50:42.985|56=MINIFIX|6=0|11=2105608463|14=0|17=EXEC-1776303566399|31=0|32=0|37=20260416-072042-614166|38=100|39=0|40=2|44=2.5|54=1|55=AAPL|59=0|60=20260416-07:20:42.985|150=0|151=100|10=021|
> 8=FIX.4.2|9=135|35=9|34=142|49=EXCHANGE|52=20260416-01:50:42.985|56=MINIFIX|11=2105608465|37=UNKNOWN|39=8|41=2105608464|58=Order not found|102=1|434=1|10=054|
< 8=FIX.4.2|9=148|35=G|49=MINIFIX|56=EXCHANGE|34=143|52=20260416-01:50:42|41=2105608467|11=2105608468|21=1|55=AAPL|54=1|60=20260416-01:50:42|40=2|38=100|44=3.00|59=0|10=040|
> 8=FIX.4.2|9=135|35=9|34=143|49=EXCHANGE|52=20260416-01:50:42.986|56=MINIFIX|11=2105608468|37=UNKNOWN|39=8|41=2105608467|58=Order not found|102=1|434=1|10=062|
< 8=FIX.4.2|9=125|35=F|49=MINIFIX|56=EXCHANGE|34=144|52=20260416-01:50:42|41=2105608468|11=2105608469|55=AAPL|54=1|60=20260416-01:50:42|38=100|10=060|
> 8=FIX.4.2|9=222|35=8|34=144|49=EXCHANGE|52=20260416-01:50:42.987|56=MINIFIX|6=0|11=2105608467|14=0|17=EXEC-1776303566400|31=0|32=0|37=20260416-072042-614167|38=100|39=0|40=2|44=2.5|54=1|55=AAPL|59=0|60=20260416-07:20:42.987|150=0|151=100|10=016|
> 8=FIX.4.2|9=135|35=9|34=145|49=EXCHANGE|52=20260416-01:50:42.987|56=MINIFIX|11=2105608469|37=UNKNOWN|39=8|41=2105608468|58=Order not found|102=1|434=1|10=067|
< 8=FIX.4.2|9=134|35=D|49=MINIFIX|56=EXCHANGE|34=145|52=20260416-01:50:42|11=2105608471|21=1|55=AAPL|54=1|60=20260416-01:50:42|40=2|44=2.50|38=100|59=0|10=118|
< 8=FIX.4.2|9=148|35=G|49=MINIFIX|56=EXCHANGE|34=146|52=20260416-01:50:42|41=2105608471|11=2105608472|21=1|55=AAPL|54=1|60=20260416-01:50:42|40=2|38=100|44=3.00|59=0|10=033|
> 8=FIX.4.2|9=222|35=8|34=146|49=EXCHANGE|52=20260416-01:50:42.988|56=MINIFIX|6=0|11=2105608471|14=0|17=EXEC-1776303566401|31=0|32=0|37=20260416-072042-614168|38=100|39=0|40=2|44=2.5|54=1|55=AAPL|59=0|60=20260416-07:20:42.988|150=0|151=100|10=017|
< 8=FIX.4.2|9=125|35=F|49=MINIFIX|56=EXCHANGE|34=147|52=20260416-01:50:42|41=2105608472|11=2105608473|55=AAPL|54=1|60=20260416-01:50:42|38=100|10=053|
> 8=FIX.4.2|9=234|35=8|34=147|49=EXCHANGE|52=20260416-01:50:42.989|56=MINIFIX|6=0|11=2105608472|14=0|17=EXEC-1776303566402|31=0|32=0|37=20260416-072042-614168|38=100|39=5|40=2|41=2105608471|44=3|54=1|55=AAPL|59=0|60=20260416-07:20:42.989|150=5|151=100|10=102|
< 8=FIX.4.2|9=134|35=D|49=MINIFIX|56=EXCHANGE|34=148|52=20260416-01:50:42|11=2105608475|21=1|55=AAPL|54=1|60=20260416-01:50:42|40=2|44=2.50|38=100|59=0|10=125|
< 8=FIX.4.2|9=148|35=G|49=MINIFIX|56=EXCHANGE|34=149|52=20260416-01:50:42|41=2105608475|11=2105608476|21=1|55=AAPL|54=1|60=20260416-01:50:42|40=2|38=100|44=3.00|59=0|10=044|
> 8=FIX.4.2|9=218|35=8|34=148|49=EXCHANGE|52=20260416-01:50:42.990|56=MINIFIX|6=0|11=2105608472|14=0|17=EXEC-1776303566403|31=0|32=0|37=20260416-072042-614168|38=100|39=4|40=2|44=3|54=1|55=AAPL|59=0|60=20260416-07:20:42.990|150=4|151=0|10=082|
< 8=FIX.4.2|9=125|35=F|49=MINIFIX|56=EXCHANGE|34=150|52=20260416-01:50:42|41=2105608476|11=2105608477|55=AAPL|54=1|60=20260416-01:50:42|38=100|10=055|
> 8=FIX.4.2|9=135|35=9|34=149|49=EXCHANGE|52=20260416-01:50:42.991|56=MINIFIX|11=2105608476|37=UNKNOWN|39=8|41=2105608475|58=Order not found|102=1|434=1|10=062|
> 8=FIX.4.2|9=222|35=8|34=150|49=EXCHANGE|52=20260416-01:50:42.992|56=MINIFIX|6=0|11=2105608475|14=0|17=EXEC-1776303566404|31=0|32=0|37=20260416-072042-614169|38=100|39=0|40=2|44=2.5|54=1|55=AAPL|59=0|60=20260416-07:20:42.992|150=0|151=100|10=010|
< 8=FIX.4.2|9=134|35=D|49=MINIFIX|56=EXCHANGE|34=151|52=20260416-01:50:42|11=2105608479|21=1|55=AAPL|54=1|60=20260416-01:50:42|40=2|44=2.50|38=100|59=0|10=123|
> 8=FIX.4.2|9=135|35=9|34=151|49=EXCHANGE|52=20260416-01:50:42.992|56=MINIFIX|11=2105608477|37=UNKNOWN|39=8|41=2105608476|58=Order not found|102=1|434=1|10=058|
< 8=FIX.4.2|9=148|35=G|49=MINIFIX|56=EXCHANGE|34=152|52=20260416-01:50:42|41=2105608479|11=2105608480|21=1|55=AAPL|54=1|60=20260416-01:50:42|40=2|38=100|44=3.00|59=0|10=037|
> 8=FIX.4.2|9=222|35=8|34=152|49=EXCHANGE|52=20260416-01:50:42.993|56=MINIFIX|6=0|11=2105608479|14=0|17=EXEC-1776303566405|31=0|32=0|37=20260416-072042-614170|38=100|39=0|40=2|44=2.5|54=1|55=AAPL|59=0|60=20260416-07:20:42.993|150=0|151=100|10=011|
< 8=FIX.4.2|9=125|35=F|49=MINIFIX|56=EXCHANGE|34=153|52=20260416-01:50:42|41=2105608480|11=2105608481|55=AAPL|54=1|60=20260416-01:50:42|38=100|10=048|
> 8=FIX.4.2|9=234|35=8|34=153|49=EXCHANGE|52=20260416-01:50:42.995|56=MINIFIX|6=0|11=2105608480|14=0|17=EXEC-1776303566406|31=0|32=0|37=20260416-072042-614170|38=100|39=5|40=2|41=2105608479|44=3|54=1|55=AAPL|59=0|60=20260416-07:20:42.995|150=5|151=100|10=097|
< 8=FIX.4.2|9=134|35=D|49=MINIFIX|56=EXCHANGE|34=154|52=20260416-01:50:42|11=2105608483|21=1|55=AAPL|54=1|60=20260416-01:50:42|40=2|44=2.50|38=100|59=0|10=121|
> 8=FIX.4.2|9=218|35=8|34=154|49=EXCHANGE|52=20260416-01:50:42.996|56=MINIFIX|6=0|11=2105608480|14=0|17=EXEC-1776303566407|31=0|32=0|37=20260416-072042-614170|38=100|39=4|40=2|44=3|54=1|55=AAPL|59=0|60=20260416-07:20:42.996|150=4|151=0|10=087|
< 8=FIX.4.2|9=148|35=G|49=MINIFIX|56=EXCHANGE|34=155|52=20260416-01:50:42|41=2105608483|11=2105608484|21=1|55=AAPL|54=1|60=20260416-01:50:42|40=2|38=100|44=3.00|59=0|10=039|
> 8=FIX.4.2|9=135|35=9|34=155|49=EXCHANGE|52=20260416-01:50:42.997|56=MINIFIX|11=2105608484|37=UNKNOWN|39=8|41=2105608483|58=Order not found|102=1|434=1|10=063|
< 8=FIX.4.2|9=125|35=F|49=MINIFIX|56=EXCHANGE|34=156|52=20260416-01:50:42|41=2105608484|11=2105608485|55=AAPL|54=1|60=20260416-01:50:42|38=100|10=059|
> 8=FIX.4.2|9=222|35=8|34=156|49=EXCHANGE|52=20260416-01:50:42.998|56=MINIFIX|6=0|11=2105608483|14=0|17=EXEC-1776303566408|31=0|32=0|37=20260416-072042-614171|38=100|39=0|40=2|44=2.5|54=1|55=AAPL|59=0|60=20260416-07:20:42.998|150=0|151=100|10=024|
< 8=FIX.4.2|9=134|35=D|49=MINIFIX|56=EXCHANGE|34=157|52=20260416-01:50:42|11=2105608487|21=1|55=AAPL|54=1|60=20260416-01:50:42|40=2|44=2.50|38=100|59=0|10=128|
> 8=FIX.4.2|9=135|35=9|34=157|49=EXCHANGE|52=20260416-01:50:42.999|56=MINIFIX|11=2105608485|37=UNKNOWN|39=8|41=2105608484|58=Order not found|102=1|434=1|10=069|
< 8=FIX.4.2|9=148|35=G|49=MINIFIX|56=EXCHANGE|34=158|52=20260416-01:50:42|41=2105608487|11=2105608488|21=1|55=AAPL|54=1|60=20260416-01:50:42|40=2|38=100|44=3.00|59=0|10=050|
> 8=FIX.4.2|9=222|35=8|34=158|49=EXCHANGE|52=20260416-01:50:43.000|56=MINIFIX|6=0|11=2105608487|14=0|17=EXEC-1776303566409|31=0|32=0|37=20260416-072043-614172|38=100|39=0|40=2|44=2.5|54=1|55=AAPL|59=0|60=20260416-07:20:43.000|150=0|151=100|10=239|
< 8=FIX.4.2|9=125|35=F|49=MINIFIX|56=EXCHANGE|34=159|52=20260416-01:50:43|41=2105608488|11=2105608489|55=AAPL|54=1|60=20260416-01:50:43|38=100|10=072|
> 8=FIX.4.2|9=135|35=9|34=159|49=EXCHANGE|52=20260416-01:50:43.000|56=MINIFIX|11=2105608488|37=UNKNOWN|39=8|41=2105608487|58=Order not found|102=1|434=1|10=051|
> 8=FIX.4.2|9=135|35=9|34=160|49=EXCHANGE|52=20260416-01:50:43.001|56=MINIFIX|11=2105608489|37=UNKNOWN|39=8|41=2105608488|58=Order not found|102=1|434=1|10=046|
< 8=FIX.4.2|9=134|35=D|49=MINIFIX|56=EXCHANGE|34=160|52=20260416-01:50:43|11=2105608491|21=1|55=AAPL|54=1|60=20260416-01:50:43|40=2|44=2.50|38=100|59=0|10=119|
< 8=FIX.4.2|9=148|35=G|49=MINIFIX|56=EXCHANGE|34=161|52=20260416-01:50:43|41=2105608491|11=2105608492|21=1|55=AAPL|54=1|60=20260416-01:50:43|40=2|38=100|44=3.00|59=0|10=036|
> 8=FIX.4.2|9=222|35=8|34=161|49=EXCHANGE|52=20260416-01:50:43.002|56=MINIFIX|6=0|11=2105608491|14=0|17=EXEC-1776303566410|31=0|32=0|37=20260416-072043-614173|38=100|39=0|40=2|44=2.5|54=1|55=AAPL|59=0|60=20260416-07:20:43.002|150=0|151=100|10=225|
< 8=FIX.4.2|9=125|35=F|49=MINIFIX|56=EXCHANGE|34=162|52=20260416-01:50:43|41=2105608492|11=2105608493|55=AAPL|54=1|60=20260416-01:50:43|38=100|10=056|
> 8=FIX.4.2|9=234|35=8|34=162|49=EXCHANGE|52=20260416-01:50:43.003|56=MINIFIX|6=0|11=2105608492|14=0|17=EXEC-1776303566411|31=0|32=0|37=20260416-072043-614173|38=100|39=5|40=2|41=2105608491|44=3|54=1|55=AAPL|59=0|60=20260416-07:20:43.003|150=5|151=100|10=056|
< 8=FIX.4.2|9=134|35=D|49=MINIFIX|56=EXCHANGE|34=163|52=20260416-01:50:43|11=2105608495|21=1|55=AAPL|54=1|60=20260416-01:50:43|40=2|44=2.50|38=100|59=0|10=126|
< 8=FIX.4.2|9=148|35=G|49=MINIFIX|56=EXCHANGE|34=164|52=20260416-01:50:43|41=2105608495|11=2105608496|21=1|55=AAPL|54=1|60=20260416-01:50:43|40=2|38=100|44=3.00|59=0|10=047|
> 8=FIX.4.2|9=218|35=8|34=163|49=EXCHANGE|52=20260416-01:50:43.005|56=MINIFIX|6=0|11=2105608492|14=0|17=EXEC-1776303566412|31=0|32=0|37=20260416-072043-614173|38=100|39=4|40=2|44=3|54=1|55=AAPL|59=0|60=20260416-07:20:43.005|150=4|151=0|10=054|
< 8=FIX.4.2|9=125|35=F|49=MINIFIX|56=EXCHANGE|34=165|52=20260416-01:50:43|41=2105608496|11=2105608497|55=AAPL|54=1|60=20260416-01:50:43|38=100|10=067|
> 8=FIX.4.2|9=135|35=9|34=164|49=EXCHANGE|52=20260416-01:50:43.006|56=MINIFIX|11=2105608496|37=UNKNOWN|39=8|41=2105608495|58=Order not found|102=1|434=1|10=051|
> 8=FIX.4.2|9=222|35=8|34=165|49=EXCHANGE|52=20260416-01:50:43.007|56=MINIFIX|6=0|11=2105608495|14=0|17=EXEC-1776303566413|31=0|32=0|37=20260416-072043-614174|38=100|39=0|40=2|44=2.5|54=1|55=AAPL|59=0|60=20260416-07:20:43.007|150=0|151=100|10=247|
< 8=FIX.4.2|9=134|35=D|49=MINIFIX|56=EXCHANGE|34=166|52=20260416-01:50:43|11=2105608499|21=1|55=AAPL|54=1|60=20260416-01:50:43|40=2|44=2.50|38=100|59=0|10=133|
> 8=FIX.4.2|9=135|35=9|34=166|49=EXCHANGE|52=20260416-01:50:43.007|56=MINIFIX|11=2105608497|37=UNKNOWN|39=8|41=2105608496|58=Order not found|102=1|434=1|10=056|
< 8=FIX.4.2|9=148|35=G|49=MINIFIX|56=EXCHANGE|34=167|52=20260416-01:50:43|41=2105608499|11=2105608500|21=1|55=AAPL|54=1|60=20260416-01:50:43|40=2|38=100|44=3.00|59=0|10=040|
> 8=FIX.4.2|9=135|35=9|34=167|49=EXCHANGE|52=20260416-01:50:43.008|56=MINIFIX|11=2105608500|37=UNKNOWN|39=8|41=2105608499|58=Order not found|102=1|434=1|10=046|
> 8=FIX.4.2|9=222|35=8|34=168|49=EXCHANGE|52=20260416-01:50:43.008|56=MINIFIX|6=0|11=2105608499|14=0|17=EXEC-1776303566414|31=0|32=0|37=20260416-072043-614175|38=100|39=0|40=2|44=2.5|54=1|55=AAPL|59=0|60=20260416-07:20:43.008|150=0|151=100|10=002|
< 8=FIX.4.2|9=125|35=F|49=MINIFIX|56=EXCHANGE|34=168|52=20260416-01:50:43|41=2105608500|11=2105608501|55=AAPL|54=1|60=20260416-01:50:43|38=100|10=042|
< 8=FIX.4.2|9=134|35=D|49=MINIFIX|56=EXCHANGE|34=169|52=20260416-01:50:43|11=2105608503|21=1|55=AAPL|54=1|60=20260416-01:50:43|40=2|44=2.50|38=100|59=0|10=122|
> 8=FIX.4.2|9=135|35=9|34=169|49=EXCHANGE|52=20260416-01:50:43.009|56=MINIFIX|11=2105608501|37=UNKNOWN|39=8|41=2105608500|58=Order not found|102=1|434=1|10=033|
< 8=FIX.4.2|9=148|35=G|49=MINIFIX|56=EXCHANGE|34=170|52=20260416-01:50:43|41=2105608503|11=2105608504|21=1|55=AAPL|54=1|60=20260416-01:50:43|40=2|38=100|44=3.00|59=0|10=024|
> 8=FIX.4.2|9=222|35=8|34=170|49=EXCHANGE|52=20260416-01:50:43.010|56=MINIFIX|6=0|11=2105608503|14=0|17=EXEC-1776303566415|31=0|32=0|37=20260416-072043-614176|38=100|39=0|40=2|44=2.5|54=1|55=AAPL|59=0|60=20260416-07:20:43.010|150=0|151=100|10=225|
< 8=FIX.4.2|9=125|35=F|49=MINIFIX|56=EXCHANGE|34=171|52=20260416-01:50:43|41=2105608504|11=2105608505|55=AAPL|54=1|60=20260416-01:50:43|38=100|10=044|
< 8=FIX.4.2|9=134|35=D|49=MINIFIX|56=EXCHANGE|34=172|52=20260416-01:50:43|11=2105608507|21=1|55=AAPL|54=1|60=20260416-01:50:43|40=2|44=2.50|38=100|59=0|10=120|
> 8=FIX.4.2|9=234|35=8|34=171|49=EXCHANGE|52=20260416-01:50:43.011|56=MINIFIX|6=0|11=2105608504|14=0|17=EXEC-1776303566416|31=0|32=0|37=20260416-072043-614176|38=100|39=5|40=2|41=2105608503|44=3|54=1|55=AAPL|59=0|60=20260416-07:20:43.011|150=5|151=100|10=050|
< 8=FIX.4.2|9=148|35=G|49=MINIFIX|56=EXCHANGE|34=173|52=20260416-01:50:43|41=2105608507|11=2105608508|21=1|55=AAPL|54=1|60=20260416-01:50:43|40=2|38=100|44=3.00|59=0|10=035|
< 8=FIX.4.2|9=125|35=F|49=MINIFIX|56=EXCHANGE|34=174|52=20260416-01:50:43|41=2105608508|11=2105608509|55=AAPL|54=1|60=20260416-01:50:43|38=100|10=055|
> 8=FIX.4.2|9=218|35=8|34=172|49=EXCHANGE|52=20260416-01:50:43.013|56=MINIFIX|6=0|11=2105608504|14=0|17=EXEC-1776303566417|31=0|32=0|37=20260416-072043-614176|38=100|39=4|40=2|44=3|54=1|55=AAPL|59=0|60=20260416-07:20:43.013|150=4|151=0|10=054|
< 8=FIX.4.2|9=134|35=D|49=MINIFIX|56=EXCHANGE|34=175|52=20260416-01:50:43|11=2105608511|21=1|55=AAPL|54=1|60=20260416-01:50:43|40=2|44=2.50|38=100|59=0|10=118|
> 8=FIX.4.2|9=135|35=9|34=173|49=EXCHANGE|52=20260416-01:50:43.013|56=MINIFIX|11=2105608508|37=UNKNOWN|39=8|41=2105608507|58=Order not found|102=1|434=1|10=037|
< 8=FIX.4.2|9=148|35=G|49=MINIFIX|56=EXCHANGE|34=176|52=20260416-01:50:43|41=2105608511|11=2105608512|21=1|55=AAPL|54=1|60=20260416-01:50:43|40=2|38=100|44=3.00|59=0|10=028|
> 8=FIX.4.2|9=222|35=8|34=174|49=EXCHANGE|52=20260416-01:50:43.014|56=MINIFIX|6=0|11=2105608507|14=0|17=EXEC-1776303566418|31=0|32=0|37=20260416-072043-614177|38=100|39=0|40=2|44=2.5|54=1|55=AAPL|59=0|60=20260416-07:20:43.014|150=0|151=100|10=245|
> 8=FIX.4.2|9=135|35=9|34=175|49=EXCHANGE|52=20260416-01:50:43.014|56=MINIFIX|11=2105608509|37=UNKNOWN|39=8|41=2105608508|58=Order not found|102=1|434=1|10=042|
< 8=FIX.4.2|9=125|35=F|49=MINIFIX|56=EXCHANGE|34=177|52=20260416-01:50:43|41=2105608512|11=2105608513|55=AAPL|54=1|60=20260416-01:50:43|38=100|10=048|
> 8=FIX.4.2|9=135|35=9|34=176|49=EXCHANGE|52=20260416-01:50:43.015|56=MINIFIX|11=2105608512|37=UNKNOWN|39=8|41=2105608511|58=Order not found|102=1|434=1|10=032|
> 8=FIX.4.2|9=222|35=8|34=177|49=EXCHANGE|52=20260416-01:50:43.015|56=MINIFIX|6=0|11=2105608511|14=0|17=EXEC-1776303566419|31=0|32=0|37=20260416-072043-614178|38=100|39=0|40=2|44=2.5|54=1|55=AAPL|59=0|60=20260416-07:20:43.015|150=0|151=100|10=247|
< 8=FIX.4.2|9=134|35=D|49=MINIFIX|56=EXCHANGE|34=178|52=20260416-01:50:43|11=2105608515|21=1|55=AAPL|54=1|60=20260416-01:50:43|40=2|44=2.50|38=100|59=0|10=125|
> 8=FIX.4.2|9=135|35=9|34=178|49=EXCHANGE|52=20260416-01:50:43.015|56=MINIFIX|11=2105608513|37=UNKNOWN|39=8|41=2105608512|58=Order not found|102=1|434=1|10=036|
< 8=FIX.4.2|9=148|35=G|49=MINIFIX|56=EXCHANGE|34=179|52=20260416-01:50:43|41=2105608515|11=2105608516|21=1|55=AAPL|54=1|60=20260416-01:50:43|40=2|38=100|44=3.00|59=0|10=039|
> 8=FIX.4.2|9=135|35=9|34=179|49=EXCHANGE|52=20260416-01:50:43.017|56=MINIFIX|11=2105608516|37=UNKNOWN|39=8|41=2105608515|58=Order not found|102=1|434=1|10=045|
> 8=FIX.4.2|9=222|35=8|34=180|49=EXCHANGE|52=20260416-01:50:43.017|56=MINIFIX|6=0|11=2105608515|14=0|17=EXEC-1776303566420|31=0|32=0|37=20260416-072043-614179|38=100|39=0|40=2|44=2.5|54=1|55=AAPL|59=0|60=20260416-07:20:43.017|150=0|151=100|10=242|
< 8=FIX.4.2|9=125|35=F|49=MINIFIX|56=EXCHANGE|34=180|52=20260416-01:50:43|41=2105608516|11=2105608517|55=AAPL|54=1|60=20260416-01:50:43|38=100|10=050|
< 8=FIX.4.2|9=134|35=D|49=MINIFIX|56=EXCHANGE|34=181|52=20260416-01:50:43|11=2105608519|21=1|55=AAPL|54=1|60=20260416-01:50:43|40=2|44=2.50|38=100|59=0|10=123|
> 8=FIX.4.2|9=135|35=9|34=181|49=EXCHANGE|52=20260416-01:50:43.019|56=MINIFIX|11=2105608517|37=UNKNOWN|39=8|41=2105608516|58=Order not found|102=1|434=1|10=042|
< 8=FIX.4.2|9=148|35=G|49=MINIFIX|56=EXCHANGE|34=182|52=20260416-01:50:43|41=2105608519|11=2105608520|21=1|55=AAPL|54=1|60=20260416-01:50:43|40=2|38=100|44=3.00|59=0|10=032|
< 8=FIX.4.2|9=125|35=F|49=MINIFIX|56=EXCHANGE|34=183|52=20260416-01:50:43|41=2105608520|11=2105608521|55=AAPL|54=1|60=20260416-01:50:43|38=100|10=043|
> 8=FIX.4.2|9=135|35=9|34=182|49=EXCHANGE|52=20260416-01:50:43.020|56=MINIFIX|11=2105608520|37=UNKNOWN|39=8|41=2105608519|58=Order not found|102=1|434=1|10=032|
> 8=FIX.4.2|9=222|35=8|34=183|49=EXCHANGE|52=20260416-01:50:43.020|56=MINIFIX|6=0|11=2105608519|14=0|17=EXEC-1776303566421|31=0|32=0|37=20260416-072043-614180|38=100|39=0|40=2|44=2.5|54=1|55=AAPL|59=0|60=20260416-07:20:43.020|150=0|151=100|10=230|
< 8=FIX.4.2|9=134|35=D|49=MINIFIX|56=EXCHANGE|34=184|52=20260416-01:50:43|11=2105608523|21=1|55=AAPL|54=1|60=20260416-01:50:43|40=2|44=2.50|38=100|59=0|10=121|
> 8=FIX.4.2|9=135|35=9|34=184|49=EXCHANGE|52=20260416-01:50:43.020|56=MINIFIX|11=2105608521|37=UNKNOWN|39=8|41=2105608520|58=Order not found|102=1|434=1|10=027|
< 8=FIX.4.2|9=148|35=G|49=MINIFIX|56=EXCHANGE|34=185|52=20260416-01:50:43|41=2105608523|11=2105608524|21=1|55=AAPL|54=1|60=20260416-01:50:43|40=2|38=100|44=3.00|59=0|10=034|
> 8=FIX.4.2|9=222|35=8|34=185|49=EXCHANGE|52=20260416-01:50:43.021|56=MINIFIX|6=0|11=2105608523|14=0|17=EXEC-1776303566422|31=0|32=0|37=20260416-072043-614181|38=100|39=0|40=2|44=2.5|54=1|55=AAPL|59=0|60=20260416-07:20:43.021|150=0|151=100|10=231|
< 8=FIX.4.2|9=125|35=F|49=MINIFIX|56=EXCHANGE|34=186|52=20260416-01:50:43|41=2105608524|11=2105608525|55=AAPL|54=1|60=20260416-01:50:43|38=100|10=054|
> 8=FIX.4.2|9=234|35=8|34=186|49=EXCHANGE|52=20260416-01:50:43.022|56=MINIFIX|6=0|11=2105608524|14=0|17=EXEC-1776303566423|31=0|32=0|37=20260416-072043-614181|38=100|39=5|40=2|41=2105608523|44=3|54=1|55=AAPL|59=0|60=20260416-07:20:43.022|150=5|151=100|10=058|
< 8=FIX.4.2|9=134|35=D|49=MINIFIX|56=EXCHANGE|34=187|52=20260416-01:50:43|11=2105608527|21=1|55=AAPL|54=1|60=20260416-01:50:43|40=2|44=2.50|38=100|59=0|10=128|
< 8=FIX.4.2|9=148|35=G|49=MINIFIX|56=EXCHANGE|34=188|52=20260416-01:50:43|41=2105608527|11=2105608528|21=1|55=AAPL|54=1|60=20260416-01:50:43|40=2|38=100|44=3.00|59=0|10=045|
> 8=FIX.4.2|9=218|35=8|34=187|49=EXCHANGE|52=20260416-01:50:43.023|56=MINIFIX|6=0|11=2105608524|14=0|17=EXEC-1776303566424|31=0|32=0|37=20260416-072043-614181|38=100|39=4|40=2|44=3|54=1|55=AAPL|59=0|60=20260416-07:20:43.023|150=4|151=0|10=058|
< 8=FIX.4.2|9=125|35=F|49=MINIFIX|56=EXCHANGE|34=189|52=20260416-01:50:43|41=2105608528|11=2105608529|55=AAPL|54=1|60=20260416-01:50:43|38=100|10=065|
> 8=FIX.4.2|9=135|35=9|34=188|49=EXCHANGE|52=20260416-01:50:43.024|56=MINIFIX|11=2105608528|37=UNKNOWN|39=8|41=2105608527|58=Order not found|102=1|434=1|10=049|
< 8=FIX.4.2|9=134|35=D|49=MINIFIX|56=EXCHANGE|34=190|52=20260416-01:50:43|11=2105608531|21=1|55=AAPL|54=1|60=20260416-01:50:43|40=2|44=2.50|38=100|59=0|10=117|
> 8=FIX.4.2|9=222|35=8|34=189|49=EXCHANGE|52=20260416-01:50:43.025|56=MINIFIX|6=0|11=2105608527|14=0|17=EXEC-1776303566425|31=0|32=0|37=20260416-072043-614182|38=100|39=0|40=2|44=2.5|54=1|55=AAPL|59=0|60=20260416-07:20:43.025|150=0|151=100|10=251|
> 8=FIX.4.2|9=135|35=9|34=190|49=EXCHANGE|52=20260416-01:50:43.025|56=MINIFIX|11=2105608529|37=UNKNOWN|39=8|41=2105608528|58=Order not found|102=1|434=1|10=045|
< 8=FIX.4.2|9=148|35=G|49=MINIFIX|56=EXCHANGE|34=191|52=20260416-01:50:43|41=2105608531|11=2105608532|21=1|55=AAPL|54=1|60=20260416-01:50:43|40=2|38=100|44=3.00|59=0|10=029|
> 8=FIX.4.2|9=135|35=9|34=191|49=EXCHANGE|52=20260416-01:50:43.026|56=MINIFIX|11=2105608532|37=UNKNOWN|39=8|41=2105608531|58=Order not found|102=1|434=1|10=035|
> 8=FIX.4.2|9=222|35=8|34=192|49=EXCHANGE|52=20260416-01:50:43.026|56=MINIFIX|6=0|11=2105608531|14=0|17=EXEC-1776303566426|31=0|32=0|37=20260416-072043-614183|38=100|39=0|40=2|44=2.5|54=1|55=AAPL|59=0|60=20260416-07:20:43.026|150=0|151=100|10=244|
< 8=FIX.4.2|9=125|35=F|49=MINIFIX|56=EXCHANGE|34=192|52=20260416-01:50:43|41=2105608532|11=2105608533|55=AAPL|54=1|60=20260416-01:50:43|38=100|10=049|
> 8=FIX.4.2|9=135|35=9|34=193|49=EXCHANGE|52=20260416-01:50:43.027|56=MINIFIX|11=2105608533|37=UNKNOWN|39=8|41=2105608532|58=Order not found|102=1|434=1|10=040|
< 8=FIX.4.2|9=134|35=D|49=MINIFIX|56=EXCHANGE|34=193|52=20260416-01:50:43|11=2105608535|21=1|55=AAPL|54=1|60=20260416-01:50:43|40=2|44=2.50|38=100|59=0|10=124|
< 8=FIX.4.2|9=148|35=G|49=MINIFIX|56=EXCHANGE|34=194|52=20260416-01:50:43|41=2105608535|11=2105608536|21=1|55=AAPL|54=1|60=20260416-01:50:43|40=2|38=100|44=3.00|59=0|10=040|
> 8=FIX.4.2|9=222|35=8|34=194|49=EXCHANGE|52=20260416-01:50:43.028|56=MINIFIX|6=0|11=2105608535|14=0|17=EXEC-1776303566427|31=0|32=0|37=20260416-072043-614184|38=100|39=0|40=2|44=2.5|54=1|55=AAPL|59=0|60=20260416-07:20:43.028|150=0|151=100|10=000|
< 8=FIX.4.2|9=125|35=F|49=MINIFIX|56=EXCHANGE|34=195|52=20260416-01:50:43|41=2105608536|11=2105608537|55=AAPL|54=1|60=20260416-01:50:43|38=100|10=060|
> 8=FIX.4.2|9=234|35=8|34=195|49=EXCHANGE|52=20260416-01:50:43.029|56=MINIFIX|6=0|11=2105608536|14=0|17=EXEC-1776303566428|31=0|32=0|37=20260416-072043-614184|38=100|39=5|40=2|41=2105608535|44=3|54=1|55=AAPL|59=0|60=20260416-07:20:43.029|150=5|151=100|10=086|
< 8=FIX.4.2|9=134|35=D|49=MINIFIX|56=EXCHANGE|34=196|52=20260416-01:50:43|11=2105608539|21=1|55=AAPL|54=1|60=20260416-01:50:43|40=2|44=2.50|38=100|59=0|10=131|
< 8=FIX.4.2|9=148|35=G|49=MINIFIX|56=EXCHANGE|34=197|52=20260416-01:50:43|41=2105608539|11=2105608540|21=1|55=AAPL|54=1|60=20260416-01:50:43|40=2|38=100|44=3.00|59=0|10=042|
> 8=FIX.4.2|9=218|35=8|34=196|49=EXCHANGE|52=20260416-01:50:43.031|56=MINIFIX|6=0|11=2105608536|14=0|17=EXEC-1776303566429|31=0|32=0|37=20260416-072043-614184|38=100|39=4|40=2|44=3|54=1|55=AAPL|59=0|60=20260416-07:20:43.031|150=4|151=0|10=067|
< 8=FIX.4.2|9=125|35=F|49=MINIFIX|56=EXCHANGE|34=198|52=20260416-01:50:43|41=2105608540|11=2105608541|55=AAPL|54=1|60=20260416-01:50:43|38=100|10=053|
> 8=FIX.4.2|9=135|35=9|34=197|49=EXCHANGE|52=20260416-01:50:43.032|56=MINIFIX|11=2105608540|37=UNKNOWN|39=8|41=2105608539|58=Order not found|102=1|434=1|10=045|
< 8=FIX.4.2|9=134|35=D|49=MINIFIX|56=EXCHANGE|34=199|52=20260416-01:50:43|11=2105608543|21=1|55=AAPL|54=1|60=20260416-01:50:43|40=2|44=2.50|38=100|59=0|10=129|
> 8=FIX.4.2|9=222|35=8|34=198|49=EXCHANGE|52=20260416-01:50:43.032|56=MINIFIX|6=0|11=2105608539|14=0|17=EXEC-1776303566430|31=0|32=0|37=20260416-072043-614185|38=100|39=0|40=2|44=2.5|54=1|55=AAPL|59=0|60=20260416-07:20:43.032|150=0|151=100|10=249|
< 8=FIX.4.2|9=148|35=G|49=MINIFIX|56=EXCHANGE|34=200|52=20260416-01:50:43|41=2105608543|11=2105608544|21=1|55=AAPL|54=1|60=20260416-01:50:43|40=2|38=100|44=3.00|59=0|10=026|
> 8=FIX.4.2|9=135|35=9|34=199|49=EXCHANGE|52=20260416-01:50:43.033|56=MINIFIX|11=2105608541|37=UNKNOWN|39=8|41=2105608540|58=Order not found|102=1|434=1|10=041|
< 8=FIX.4.2|9=125|35=F|49=MINIFIX|56=EXCHANGE|34=201|52=20260416-01:50:43|41=2105608544|11=2105608545|55=AAPL|54=1|60=20260416-01:50:43|38=100|10=046|
> 8=FIX.4.2|9=135|35=9|34=200|49=EXCHANGE|52=20260416-01:50:43.034|56=MINIFIX|11=2105608544|37=UNKNOWN|39=8|41=2105608543|58=Order not found|102=1|434=1|10=031|
> 8=FIX.4.2|9=222|35=8|34=201|49=EXCHANGE|52=20260416-01:50:43.034|56=MINIFIX|6=0|11=2105608543|14=0|17=EXEC-1776303566431|31=0|32=0|37=20260416-072043-614186|38=100|39=0|40=2|44=2.5|54=1|55=AAPL|59=0|60=20260416-07:20:43.034|150=0|151=100|10=235|
< 8=FIX.4.2|9=134|35=D|49=MINIFIX|56=EXCHANGE|34=202|52=20260416-01:50:43|11=2105608547|21=1|55=AAPL|54=1|60=20260416-01:50:43|40=2|44=2.50|38=100|59=0|10=118|
> 8=FIX.4.2|9=135|35=9|34=202|49=EXCHANGE|52=20260416-01:50:43.035|56=MINIFIX|11=2105608545|37=UNKNOWN|39=8|41=2105608544|58=Order not found|102=1|434=1|10=036|
< 8=FIX.4.2|9=148|35=G|49=MINIFIX|56=EXCHANGE|34=203|52=20260416-01:50:43|41=2105608547|11=2105608548|21=1|55=AAPL|54=1|60=20260416-01:50:43|40=2|38=100|44=3.00|59=0|10=037|
< 8=FIX.4.2|9=125|35=F|49=MINIFIX|56=EXCHANGE|34=204|52=20260416-01:50:43|41=2105608548|11=2105608549|55=AAPL|54=1|60=20260416-01:50:43|38=100|10=057|
> 8=FIX.4.2|9=135|35=9|34=203|49=EXCHANGE|52=20260416-01:50:43.035|56=MINIFIX|11=2105608548|37=UNKNOWN|39=8|41=2105608547|58=Order not found|102=1|434=1|10=043|
> 8=FIX.4.2|9=222|35=8|34=204|49=EXCHANGE|52=20260416-01:50:43.037|56=MINIFIX|6=0|11=2105608547|14=0|17=EXEC-1776303566432|31=0|32=0|37=20260416-072043-614187|38=100|39=0|40=2|44=2.5|54=1|55=AAPL|59=0|60=20260416-07:20:43.037|150=0|151=100|10=250|
< 8=FIX.4.2|9=134|35=D|49=MINIFIX|56=EXCHANGE|34=205|52=20260416-01:50:43|11=2105608551|21=1|55=AAPL|54=1|60=20260416-01:50:43|40=2|44=2.50|38=100|59=0|10=116|
> 8=FIX.4.2|9=135|35=9|34=205|49=EXCHANGE|52=20260416-01:50:43.037|56=MINIFIX|11=2105608549|37=UNKNOWN|39=8|41=2105608548|58=Order not found|102=1|434=1|10=049|
< 8=FIX.4.2|9=148|35=G|49=MINIFIX|56=EXCHANGE|34=206|52=20260416-01:50:43|41=2105608551|11=2105608552|21=1|55=AAPL|54=1|60=20260416-01:50:43|40=2|38=100|44=3.00|59=0|10=030|
> 8=FIX.4.2|9=135|35=9|34=206|49=EXCHANGE|52=20260416-01:50:43.038|56=MINIFIX|11=2105608552|37=UNKNOWN|39=8|41=2105608551|58=Order not found|102=1|434=1|10=039|
> 8=FIX.4.2|9=222|35=8|34=207|49=EXCHANGE|52=20260416-01:50:43.038|56=MINIFIX|6=0|11=2105608551|14=0|17=EXEC-1776303566433|31=0|32=0|37=20260416-072043-614188|38=100|39=0|40=2|44=2.5|54=1|55=AAPL|59=0|60=20260416-07:20:43.038|150=0|151=100|10=252|
< 8=FIX.4.2|9=125|35=F|49=MINIFIX|56=EXCHANGE|34=207|52=20260416-01:50:43|41=2105608552|11=2105608553|55=AAPL|54=1|60=20260416-01:50:43|38=100|10=050|
< 8=FIX.4.2|9=134|35=D|49=MINIFIX|56=EXCHANGE|34=208|52=20260416-01:50:43|11=2105608555|21=1|55=AAPL|54=1|60=20260416-01:50:43|40=2|44=2.50|38=100|59=0|10=123|
> 8=FIX.4.2|9=135|35=9|34=208|49=EXCHANGE|52=20260416-01:50:43.039|56=MINIFIX|11=2105608553|37=UNKNOWN|39=8|41=2105608552|58=Order not found|102=1|434=1|10=044|
< 8=FIX.4.2|9=148|35=G|49=MINIFIX|56=EXCHANGE|34=209|52=20260416-01:50:43|41=2105608555|11=2105608556|21=1|55=AAPL|54=1|60=20260416-01:50:43|40=2|38=100|44=3.00|59=0|10=041|
> 8=FIX.4.2|9=135|35=9|34=209|49=EXCHANGE|52=20260416-01:50:43.040|56=MINIFIX|11=2105608556|37=UNKNOWN|39=8|41=2105608555|58=Order not found|102=1|434=1|10=043|
> 8=FIX.4.2|9=222|35=8|34=210|49=EXCHANGE|52=20260416-01:50:43.040|56=MINIFIX|6=0|11=2105608555|14=0|17=EXEC-1776303566434|31=0|32=0|37=20260416-072043-614189|38=100|39=0|40=2|44=2.5|54=1|55=AAPL|59=0|60=20260416-07:20:43.040|150=0|151=100|10=238|
< 8=FIX.4.2|9=125|35=F|49=MINIFIX|56=EXCHANGE|34=210|52=20260416-01:50:43|41=2105608556|11=2105608557|55=AAPL|54=1|60=20260416-01:50:43|38=100|10=052|
< 8=FIX.4.2|9=134|35=D|49=MINIFIX|56=EXCHANGE|34=211|52=20260416-01:50:43|11=2105608559|21=1|55=AAPL|54=1|60=20260416-01:50:43|40=2|44=2.50|38=100|59=0|10=121|
> 8=FIX.4.2|9=135|35=9|34=211|49=EXCHANGE|52=20260416-01:50:43.041|56=MINIFIX|11=2105608557|37=UNKNOWN|39=8|41=2105608556|58=Order not found|102=1|434=1|10=039|
< 8=FIX.4.2|9=148|35=G|49=MINIFIX|56=EXCHANGE|34=212|52=20260416-01:50:43|41=2105608559|11=2105608560|21=1|55=AAPL|54=1|60=20260416-01:50:43|40=2|38=100|44=3.00|59=0|10=034|
> 8=FIX.4.2|9=135|35=9|34=212|49=EXCHANGE|52=20260416-01:50:43.043|56=MINIFIX|11=2105608560|37=UNKNOWN|39=8|41=2105608559|58=Order not found|102=1|434=1|10=039|
< 8=FIX.4.2|9=125|35=F|49=MINIFIX|56=EXCHANGE|34=213|52=20260416-01:50:43|41=2105608560|11=2105608561|55=AAPL|54=1|60=20260416-01:50:43|38=100|10=045|
> 8=FIX.4.2|9=222|35=8|34=213|49=EXCHANGE|52=20260416-01:50:43.044|56=MINIFIX|6=0|11=2105608559|14=0|17=EXEC-1776303566435|31=0|32=0|37=20260416-072043-614190|38=100|39=0|40=2|44=2.5|54=1|55=AAPL|59=0|60=20260416-07:20:43.044|150=0|151=100|10=246|
> 8=FIX.4.2|9=135|35=9|34=214|49=EXCHANGE|52=20260416-01:50:43.044|56=MINIFIX|11=2105608561|37=UNKNOWN|39=8|41=2105608560|58=Order not found|102=1|434=1|10=035|
< 8=FIX.4.2|9=134|35=D|49=MINIFIX|56=EXCHANGE|34=214|52=20260416-01:50:43|11=2105608563|21=1|55=AAPL|54=1|60=20260416-01:50:43|40=2|44=2.50|38=100|59=0|10=119|
< 8=FIX.4.2|9=148|35=G|49=MINIFIX|56=EXCHANGE|34=215|52=20260416-01:50:43|41=2105608563|11=2105608564|21=1|55=AAPL|54=1|60=20260416-01:50:43|40=2|38=100|44=3.00|59=0|10=036|
> 8=FIX.4.2|9=222|35=8|34=215|49=EXCHANGE|52=20260416-01:50:43.045|56=MINIFIX|6=0|11=2105608563|14=0|17=EXEC-1776303566436|31=0|32=0|37=20260416-072043-614191|38=100|39=0|40=2|44=2.5|54=1|55=AAPL|59=0|60=20260416-07:20:43.045|150=0|151=100|10=247|
< 8=FIX.4.2|9=125|35=F|49=MINIFIX|56=EXCHANGE|34=216|52=20260416-01:50:43|41=2105608564|11=2105608565|55=AAPL|54=1|60=20260416-01:50:43|38=100|10=056|
> 8=FIX.4.2|9=234|35=8|34=216|49=EXCHANGE|52=20260416-01:50:43.047|56=MINIFIX|6=0|11=2105608564|14=0|17=EXEC-1776303566437|31=0|32=0|37=20260416-072043-614191|38=100|39=5|40=2|41=2105608563|44=3|54=1|55=AAPL|59=0|60=20260416-07:20:43.047|150=5|151=100|10=080|
< 8=FIX.4.2|9=134|35=D|49=MINIFIX|56=EXCHANGE|34=217|52=20260416-01:50:43|11=2105608567|21=1|55=AAPL|54=1|60=20260416-01:50:43|40=2|44=2.50|38=100|59=0|10=126|
< 8=FIX.4.2|9=148|35=G|49=MINIFIX|56=EXCHANGE|34=218|52=20260416-01:50:43|41=2105608567|11=2105608568|21=1|55=AAPL|54=1|60=20260416-01:50:43|40=2|38=100|44=3.00|59=0|10=047|
> 8=FIX.4.2|9=218|35=8|34=217|49=EXCHANGE|52=20260416-01:50:43.048|56=MINIFIX|6=0|11=2105608564|14=0|17=EXEC-1776303566438|31=0|32=0|37=20260416-072043-614191|38=100|39=4|40=2|44=3|54=1|55=AAPL|59=0|60=20260416-07:20:43.048|150=4|151=0|10=076|
< 8=FIX.4.2|9=125|35=F|49=MINIFIX|56=EXCHANGE|34=219|52=20260416-01:50:43|41=2105608568|11=2105608569|55=AAPL|54=1|60=20260416-01:50:43|38=100|10=067|
> 8=FIX.4.2|9=135|35=9|34=218|49=EXCHANGE|52=20260416-01:50:43.049|56=MINIFIX|11=2105608568|37=UNKNOWN|39=8|41=2105608567|58=Order not found|102=1|434=1|10=058|
< 8=FIX.4.2|9=134|35=D|49=MINIFIX|56=EXCHANGE|34=220|52=20260416-01:50:43|11=2105608571|21=1|55=AAPL|54=1|60=20260416-01:50:43|40=2|44=2.50|38=100|59=0|10=115|
> 8=FIX.4.2|9=222|35=8|34=219|49=EXCHANGE|52=20260416-01:50:43.050|56=MINIFIX|6=0|11=2105608567|14=0|17=EXEC-1776303566439|31=0|32=0|37=20260416-072043-614192|38=100|39=0|40=2|44=2.5|54=1|55=AAPL|59=0|60=20260416-07:20:43.050|150=0|151=100|10=251|
> 8=FIX.4.2|9=135|35=9|34=220|49=EXCHANGE|52=20260416-01:50:43.050|56=MINIFIX|11=2105608569|37=UNKNOWN|39=8|41=2105608568|58=Order not found|102=1|434=1|10=045|
< 8=FIX.4.2|9=148|35=G|49=MINIFIX|56=EXCHANGE|34=221|52=20260416-01:50:43|41=2105608571|11=2105608572|21=1|55=AAPL|54=1|60=20260416-01:50:43|40=2|38=100|44=3.00|59=0|10=031|
> 8=FIX.4.2|9=135|35=9|34=221|49=EXCHANGE|52=20260416-01:50:43.051|56=MINIFIX|11=2105608572|37=UNKNOWN|39=8|41=2105608571|58=Order not found|102=1|434=1|10=035|
> 8=FIX.4.2|9=222|35=8|34=222|49=EXCHANGE|52=20260416-01:50:43.051|56=MINIFIX|6=0|11=2105608571|14=0|17=EXEC-1776303566440|31=0|32=0|37=20260416-072043-614193|38=100|39=0|40=2|44=2.5|54=1|55=AAPL|59=0|60=20260416-07:20:43.051|150=0|151=100|10=235|
< 8=FIX.4.2|9=125|35=F|49=MINIFIX|56=EXCHANGE|34=222|52=20260416-01:50:43|41=2105608572|11=2105608573|55=AAPL|54=1|60=20260416-01:50:43|38=100|10=051|
< 8=FIX.4.2|9=134|35=D|49=MINIFIX|56=EXCHANGE|34=223|52=20260416-01:50:43|11=2105608575|21=1|55=AAPL|54=1|60=20260416-01:50:43|40=2|44=2.50|38=100|59=0|10=122|
> 8=FIX.4.2|9=135|35=9|34=223|49=EXCHANGE|52=20260416-01:50:43.053|56=MINIFIX|11=2105608573|37=UNKNOWN|39=8|41=2105608572|58=Order not found|102=1|434=1|10=041|
< 8=FIX.4.2|9=148|35=G|49=MINIFIX|56=EXCHANGE|34=224|52=20260416-01:50:43|41=2105608575|11=2105608576|21=1|55=AAPL|54=1|60=20260416-01:50:43|40=2|38=100|44=3.00|59=0|10=042|
> 8=FIX.4.2|9=135|35=9|34=224|49=EXCHANGE|52=20260416-01:50:43.055|56=MINIFIX|11=2105608576|37=UNKNOWN|39=8|41=2105608575|58=Order not found|102=1|434=1|10=050|
> 8=FIX.4.2|9=222|35=8|34=225|49=EXCHANGE|52=20260416-01:50:43.055|56=MINIFIX|6=0|11=2105608575|14=0|17=EXEC-1776303566441|31=0|32=0|37=20260416-072043-614194|38=100|39=0|40=2|44=2.5|54=1|55=AAPL|59=0|60=20260416-07:20:43.055|150=0|151=100|10=252|
< 8=FIX.4.2|9=125|35=F|49=MINIFIX|56=EXCHANGE|34=225|52=20260416-01:50:43|41=2105608576|11=2105608577|55=AAPL|54=1|60=20260416-01:50:43|38=100|10=062|
< 8=FIX.4.2|9=134|35=D|49=MINIFIX|56=EXCHANGE|34=226|52=20260416-01:50:43|11=2105608579|21=1|55=AAPL|54=1|60=20260416-01:50:43|40=2|44=2.50|38=100|59=0|10=129|
> 8=FIX.4.2|9=135|35=9|34=226|49=EXCHANGE|52=20260416-01:50:43.056|56=MINIFIX|11=2105608577|37=UNKNOWN|39=8|41=2105608576|58=Order not found|102=1|434=1|10=055|
< 8=FIX.4.2|9=148|35=G|49=MINIFIX|56=EXCHANGE|34=227|52=20260416-01:50:43|41=2105608579|11=2105608580|21=1|55=AAPL|54=1|60=20260416-01:50:43|40=2|38=100|44=3.00|59=0|10=044|
> 8=FIX.4.2|9=222|35=8|34=227|49=EXCHANGE|52=20260416-01:50:43.057|56=MINIFIX|6=0|11=2105608579|14=0|17=EXEC-1776303566442|31=0|32=0|37=20260416-072043-614195|38=100|39=0|40=2|44=2.5|54=1|55=AAPL|59=0|60=20260416-07:20:43.057|150=0|151=100|10=008|
< 8=FIX.4.2|9=125|35=F|49=MINIFIX|56=EXCHANGE|34=228|52=20260416-01:50:43|41=2105608580|11=2105608581|55=AAPL|54=1|60=20260416-01:50:43|38=100|10=055|
> 8=FIX.4.2|9=135|35=9|34=228|49=EXCHANGE|52=20260416-01:50:43.057|56=MINIFIX|11=2105608580|37=UNKNOWN|39=8|41=2105608579|58=Order not found|102=1|434=1|10=055|
> 8=FIX.4.2|9=135|35=9|34=229|49=EXCHANGE|52=20260416-01:50:43.058|56=MINIFIX|11=2105608581|37=UNKNOWN|39=8|41=2105608580|58=Order not found|102=1|434=1|10=050|
< 8=FIX.4.2|9=134|35=D|49=MINIFIX|56=EXCHANGE|34=229|52=20260416-01:50:43|11=2105608583|21=1|55=AAPL|54=1|60=20260416-01:50:43|40=2|44=2.50|38=100|59=0|10=127|
< 8=FIX.4.2|9=148|35=G|49=MINIFIX|56=EXCHANGE|34=230|52=20260416-01:50:43|41=2105608583|11=2105608584|21=1|55=AAPL|54=1|60=20260416-01:50:43|40=2|38=100|44=3.00|59=0|10=037|
> 8=FIX.4.2|9=135|35=9|34=230|49=EXCHANGE|52=20260416-01:50:43.059|56=MINIFIX|11=2105608584|37=UNKNOWN|39=8|41=2105608583|58=Order not found|102=1|434=1|10=049|
< 8=FIX.4.2|9=125|35=F|49=MINIFIX|56=EXCHANGE|34=231|52=20260416-01:50:43|41=2105608584|11=2105608585|55=AAPL|54=1|60=20260416-01:50:43|38=100|10=057|
> 8=FIX.4.2|9=222|35=8|34=231|49=EXCHANGE|52=20260416-01:50:43.060|56=MINIFIX|6=0|11=2105608583|14=0|17=EXEC-1776303566443|31=0|32=0|37=20260416-072043-614196|38=100|39=0|40=2|44=2.5|54=1|55=AAPL|59=0|60=20260416-07:20:43.060|150=0|151=100|10=244|
< 8=FIX.4.2|9=134|35=D|49=MINIFIX|56=EXCHANGE|34=232|52=20260416-01:50:43|11=2105608587|21=1|55=AAPL|54=1|60=20260416-01:50:43|40=2|44=2.50|38=100|59=0|10=125|
> 8=FIX.4.2|9=135|35=9|34=232|49=EXCHANGE|52=20260416-01:50:43.060|56=MINIFIX|11=2105608585|37=UNKNOWN|39=8|41=2105608584|58=Order not found|102=1|434=1|10=045|
< 8=FIX.4.2|9=148|35=G|49=MINIFIX|56=EXCHANGE|34=233|52=20260416-01:50:43|41=2105608587|11=2105608588|21=1|55=AAPL|54=1|60=20260416-01:50:43|40=2|38=100|44=3.00|59=0|10=048|
> 8=FIX.4.2|9=135|35=9|34=233|49=EXCHANGE|52=20260416-01:50:43.062|56=MINIFIX|11=2105608588|37=UNKNOWN|39=8|41=2105608587|58=Order not found|102=1|434=1|10=054|
> 8=FIX.4.2|9=222|35=8|34=234|49=EXCHANGE|52=20260416-01:50:43.062|56=MINIFIX|6=0|11=2105608587|14=0|17=EXEC-1776303566444|31=0|32=0|37=20260416-072043-614197|38=100|39=0|40=2|44=2.5|54=1|55=AAPL|59=0|60=20260416-07:20:43.062|150=0|151=100|10=001|
< 8=FIX.4.2|9=125|35=F|49=MINIFIX|56=EXCHANGE|34=234|52=20260416-01:50:43|41=2105608588|11=2105608589|55=AAPL|54=1|60=20260416-01:50:43|38=100|10=068|
> 8=FIX.4.2|9=135|35=9|34=235|49=EXCHANGE|52=20260416-01:50:43.063|56=MINIFIX|11=2105608589|37=UNKNOWN|39=8|41=2105608588|58=Order not found|102=1|434=1|10=059|
< 8=FIX.4.2|9=134|35=D|49=MINIFIX|56=EXCHANGE|34=235|52=20260416-01:50:43|11=2105608591|21=1|55=AAPL|54=1|60=20260416-01:50:43|40=2|44=2.50|38=100|59=0|10=123|
< 8=FIX.4.2|9=148|35=G|49=MINIFIX|56=EXCHANGE|34=236|52=20260416-01:50:43|41=2105608591|11=2105608592|21=1|55=AAPL|54=1|60=20260416-01:50:43|40=2|38=100|44=3.00|59=0|10=041|
> 8=FIX.4.2|9=222|35=8|34=236|49=EXCHANGE|52=20260416-01:50:43.064|56=MINIFIX|6=0|11=2105608591|14=0|17=EXEC-1776303566445|31=0|32=0|37=20260416-072043-614198|38=100|39=0|40=2|44=2.5|54=1|55=AAPL|59=0|60=20260416-07:20:43.064|150=0|151=100|10=004|
< 8=FIX.4.2|9=125|35=F|49=MINIFIX|56=EXCHANGE|34=237|52=20260416-01:50:43|41=2105608592|11=2105608593|55=AAPL|54=1|60=20260416-01:50:43|38=100|10=061|
> 8=FIX.4.2|9=234|35=8|34=237|49=EXCHANGE|52=20260416-01:50:43.065|56=MINIFIX|6=0|11=2105608592|14=0|17=EXEC-1776303566446|31=0|32=0|37=20260416-072043-614198|38=100|39=5|40=2|41=2105608591|44=3|54=1|55=AAPL|59=0|60=20260416-07:20:43.065|150=5|151=100|10=092|
< 8=FIX.4.2|9=134|35=D|49=MINIFIX|56=EXCHANGE|34=238|52=20260416-01:50:43|11=2105608595|21=1|55=AAPL|54=1|60=20260416-01:50:43|40=2|44=2.50|38=100|59=0|10=130|
< 8=FIX.4.2|9=148|35=G|49=MINIFIX|56=EXCHANGE|34=239|52=20260416-01:50:43|41=2105608595|11=2105608596|21=1|55=AAPL|54=1|60=20260416-01:50:43|40=2|38=100|44=3.00|59=0|10=052|
> 8=FIX.4.2|9=218|35=8|34=238|49=EXCHANGE|52=20260416-01:50:43.067|56=MINIFIX|6=0|11=2105608592|14=0|17=EXEC-1776303566447|31=0|32=0|37=20260416-072043-614198|38=100|39=4|40=2|44=3|54=1|55=AAPL|59=0|60=20260416-07:20:43.067|150=4|151=0|10=089|
< 8=FIX.4.2|9=125|35=F|49=MINIFIX|56=EXCHANGE|34=240|52=20260416-01:50:43|41=2105608596|11=2105608597|55=AAPL|54=1|60=20260416-01:50:43|38=100|10=063|
> 8=FIX.4.2|9=135|35=9|34=239|49=EXCHANGE|52=20260416-01:50:43.068|56=MINIFIX|11=2105608596|37=UNKNOWN|39=8|41=2105608595|58=Order not found|102=1|434=1|10=064|
> 8=FIX.4.2|9=222|35=8|34=240|49=EXCHANGE|52=20260416-01:50:43.068|56=MINIFIX|6=0|11=2105608595|14=0|17=EXEC-1776303566448|31=0|32=0|37=20260416-072043-614199|38=100|39=0|40=2|44=2.5|54=1|55=AAPL|59=0|60=20260416-07:20:43.068|150=0|151=100|10=015|
< 8=FIX.4.2|9=134|35=D|49=MINIFIX|56=EXCHANGE|34=241|52=20260416-01:50:43|11=2105608599|21=1|55=AAPL|54=1|60=20260416-01:50:43|40=2|44=2.50|38=100|59=0|10=128|
> 8=FIX.4.2|9=135|35=9|34=241|49=EXCHANGE|52=20260416-01:50:43.068|56=MINIFIX|11=2105608597|37=UNKNOWN|39=8|41=2105608596|58=Order not found|102=1|434=1|10=059|
< 8=FIX.4.2|9=148|35=G|49=MINIFIX|56=EXCHANGE|34=242|52=20260416-01:50:43|41=2105608599|11=2105608600|21=1|55=AAPL|54=1|60=20260416-01:50:43|40=2|38=100|44=3.00|59=0|10=036|
> 8=FIX.4.2|9=222|35=8|34=242|49=EXCHANGE|52=20260416-01:50:43.069|56=MINIFIX|6=0|11=2105608599|14=0|17=EXEC-1776303566449|31=0|32=0|37=20260416-072043-614200|38=100|39=0|40=2|44=2.5|54=1|55=AAPL|59=0|60=20260416-07:20:43.069|150=0|151=100|10=007|
< 8=FIX.4.2|9=125|35=F|49=MINIFIX|56=EXCHANGE|34=243|52=20260416-01:50:43|41=2105608600|11=2105608601|55=AAPL|54=1|60=20260416-01:50:43|38=100|10=038|
> 8=FIX.4.2|9=234|35=8|34=243|49=EXCHANGE|52=20260416-01:50:43.070|56=MINIFIX|6=0|11=2105608600|14=0|17=EXEC-1776303566450|31=0|32=0|37=20260416-072043-614200|38=100|39=5|40=2|41=2105608599|44=3|54=1|55=AAPL|59=0|60=20260416-07:20:43.070|150=5|151=100|10=058|
< 8=FIX.4.2|9=134|35=D|49=MINIFIX|56=EXCHANGE|34=244|52=20260416-01:50:43|11=2105608603|21=1|55=AAPL|54=1|60=20260416-01:50:43|40=2|44=2.50|38=100|59=0|10=117|
< 8=FIX.4.2|9=148|35=G|49=MINIFIX|56=EXCHANGE|34=245|52=20260416-01:50:43|41=2105608603|11=2105608604|21=1|55=AAPL|54=1|60=20260416-01:50:43|40=2|38=100|44=3.00|59=0|10=029|
> 8=FIX.4.2|9=218|35=8|34=244|49=EXCHANGE|52=20260416-01:50:43.072|56=MINIFIX|6=0|11=2105608600|14=0|17=EXEC-1776303566451|31=0|32=0|37=20260416-072043-614200|38=100|39=4|40=2|44=3|54=1|55=AAPL|59=0|60=20260416-07:20:43.072|150=4|151=0|10=047|
< 8=FIX.4.2|9=125|35=F|49=MINIFIX|56=EXCHANGE|34=246|52=20260416-01:50:43|41=2105608604|11=2105608605|55=AAPL|54=1|60=20260416-01:50:43|38=100|10=049|
> 8=FIX.4.2|9=135|35=9|34=245|49=EXCHANGE|52=20260416-01:50:43.074|56=MINIFIX|11=2105608604|37=UNKNOWN|39=8|41=2105608603|58=Order not found|102=1|434=1|10=038|
< 8=FIX.4.2|9=134|35=D|49=MINIFIX|56=EXCHANGE|34=247|52=20260416-01:50:43|11=2105608607|21=1|55=AAPL|54=1|60=20260416-01:50:43|40=2|44=2.50|38=100|59=0|10=124|
> 8=FIX.4.2|9=222|35=8|34=246|49=EXCHANGE|52=20260416-01:50:43.074|56=MINIFIX|6=0|11=2105608603|14=0|17=EXEC-1776303566452|31=0|32=0|37=20260416-072043-614201|38=100|39=0|40=2|44=2.5|54=1|55=AAPL|59=0|60=20260416-07:20:43.074|150=0|151=100|10=240|
> 8=FIX.4.2|9=135|35=9|34=247|49=EXCHANGE|52=20260416-01:50:43.074|56=MINIFIX|11=2105608605|37=UNKNOWN|39=8|41=2105608604|58=Order not found|102=1|434=1|10=042|
< 8=FIX.4.2|9=148|35=G|49=MINIFIX|56=EXCHANGE|34=248|52=20260416-01:50:43|41=2105608607|11=2105608608|21=1|55=AAPL|54=1|60=20260416-01:50:43|40=2|38=100|44=3.00|59=0|10=040|
> 8=FIX.4.2|9=135|35=9|34=248|49=EXCHANGE|52=20260416-01:50:43.075|56=MINIFIX|11=2105608608|37=UNKNOWN|39=8|41=2105608607|58=Order not found|102=1|434=1|10=050|
> 8=FIX.4.2|9=222|35=8|34=249|49=EXCHANGE|52=20260416-01:50:43.075|56=MINIFIX|6=0|11=2105608607|14=0|17=EXEC-1776303566453|31=0|32=0|37=20260416-072043-614202|38=100|39=0|40=2|44=2.5|54=1|55=AAPL|59=0|60=20260416-07:20:43.075|150=0|151=100|10=251|
< 8=FIX.4.2|9=125|35=F|49=MINIFIX|56=EXCHANGE|34=249|52=20260416-01:50:43|41=2105608608|11=2105608609|55=AAPL|54=1|60=20260416-01:50:43|38=100|10=060|
> 8=FIX.4.2|9=135|35=9|34=250|49=EXCHANGE|52=20260416-01:50:43.076|56=MINIFIX|11=2105608609|37=UNKNOWN|39=8|41=2105608608|58=Order not found|102=1|434=1|10=046|
< 8=FIX.4.2|9=134|35=D|49=MINIFIX|56=EXCHANGE|34=250|52=20260416-01:50:43|11=2105608611|21=1|55=AAPL|54=1|60=20260416-01:50:43|40=2|44=2.50|38=100|59=0|10=113|
< 8=FIX.4.2|9=148|35=G|49=MINIFIX|56=EXCHANGE|34=251|52=20260416-01:50:43|41=2105608611|11=2105608612|21=1|55=AAPL|54=1|60=20260416-01:50:43|40=2|38=100|44=3.00|59=0|10=024|
> 8=FIX.4.2|9=222|35=8|34=251|49=EXCHANGE|52=20260416-01:50:43.078|56=MINIFIX|6=0|11=2105608611|14=0|17=EXEC-1776303566454|31=0|32=0|37=20260416-072043-614203|38=100|39=0|40=2|44=2.5|54=1|55=AAPL|59=0|60=20260416-07:20:43.078|150=0|151=100|10=247|
< 8=FIX.4.2|9=125|35=F|49=MINIFIX|56=EXCHANGE|34=252|52=20260416-01:50:43|41=2105608612|11=2105608613|55=AAPL|54=1|60=20260416-01:50:43|38=100|10=044|
> 8=FIX.4.2|9=234|35=8|34=252|49=EXCHANGE|52=20260416-01:50:43.078|56=MINIFIX|6=0|11=2105608612|14=0|17=EXEC-1776303566455|31=0|32=0|37=20260416-072043-614203|38=100|39=5|40=2|41=2105608611|44=3|54=1|55=AAPL|59=0|60=20260416-07:20:43.078|150=5|151=100|10=070|
< 8=FIX.4.2|9=134|35=D|49=MINIFIX|56=EXCHANGE|34=253|52=20260416-01:50:43|11=2105608615|21=1|55=AAPL|54=1|60=20260416-01:50:43|40=2|44=2.50|38=100|59=0|10=120|
< 8=FIX.4.2|9=148|35=G|49=MINIFIX|56=EXCHANGE|34=254|52=20260416-01:50:43|41=2105608615|11=2105608616|21=1|55=AAPL|54=1|60=20260416-01:50:43|40=2|38=100|44=3.00|59=0|10=035|
> 8=FIX.4.2|9=218|35=8|34=253|49=EXCHANGE|52=20260416-01:50:43.080|56=MINIFIX|6=0|11=2105608612|14=0|17=EXEC-1776303566456|31=0|32=0|37=20260416-072043-614203|38=100|39=4|40=2|44=3|54=1|55=AAPL|59=0|60=20260416-07:20:43.080|150=4|151=0|10=056|
< 8=FIX.4.2|9=125|35=F|49=MINIFIX|56=EXCHANGE|34=255|52=20260416-01:50:43|41=2105608616|11=2105608617|55=AAPL|54=1|60=20260416-01:50:43|38=100|10=055|
> 8=FIX.4.2|9=135|35=9|34=254|49=EXCHANGE|52=20260416-01:50:43.080|56=MINIFIX|11=2105608616|37=UNKNOWN|39=8|41=2105608615|58=Order not found|102=1|434=1|10=041|
> 8=FIX.4.2|9=222|35=8|34=255|49=EXCHANGE|52=20260416-01:50:43.081|56=MINIFIX|6=0|11=2105608615|14=0|17=EXEC-1776303566457|31=0|32=0|37=20260416-072043-614204|38=100|39=0|40=2|44=2.5|54=1|55=AAPL|59=0|60=20260416-07:20:43.081|150=0|151=100|10=247|
< 8=FIX.4.2|9=134|35=D|49=MINIFIX|56=EXCHANGE|34=256|52=20260416-01:50:43|11=2105608619|21=1|55=AAPL|54=1|60=20260416-01:50:43|40=2|44=2.50|38=100|59=0|10=127|
> 8=FIX.4.2|9=135|35=9|34=256|49=EXCHANGE|52=20260416-01:50:43.081|56=MINIFIX|11=2105608617|37=UNKNOWN|39=8|41=2105608616|58=Order not found|102=1|434=1|10=046|
> 8=FIX.4.2|9=222|35=8|34=257|49=EXCHANGE|52=20260416-01:50:43.082|56=MINIFIX|6=0|11=2105608619|14=0|17=EXEC-1776303566458|31=0|32=0|37=20260416-072043-614205|38=100|39=0|40=2|44=2.5|54=1|55=AAPL|59=0|60=20260416-07:20:43.082|150=0|151=100|10=001|
< 8=FIX.4.2|9=148|35=G|49=MINIFIX|56=EXCHANGE|34=257|52=20260416-01:50:43|41=2105608619|11=2105608620|21=1|55=AAPL|54=1|60=20260416-01:50:43|40=2|38=100|44=3.00|59=0|10=037|
< 8=FIX.4.2|9=125|35=F|49=MINIFIX|56=EXCHANGE|34=258|52=20260416-01:50:43|41=2105608620|11=2105608621|55=AAPL|54=1|60=20260416-01:50:43|38=100|10=048|
< 8=FIX.4.2|9=134|35=D|49=MINIFIX|56=EXCHANGE|34=259|52=20260416-01:50:43|11=2105608623|21=1|55=AAPL|54=1|60=20260416-01:50:43|40=2|44=2.50|38=100|59=0|10=125|
> 8=FIX.4.2|9=234|35=8|34=258|49=EXCHANGE|52=20260416-01:50:43.084|56=MINIFIX|6=0|11=2105608620|14=0|17=EXEC-1776303566459|31=0|32=0|37=20260416-072043-614205|38=100|39=5|40=2|41=2105608619|44=3|54=1|55=AAPL|59=0|60=20260416-07:20:43.084|150=5|151=100|10=083|
< 8=FIX.4.2|9=148|35=G|49=MINIFIX|56=EXCHANGE|34=260|52=20260416-01:50:43|41=2105608623|11=2105608624|21=1|55=AAPL|54=1|60=20260416-01:50:43|40=2|38=100|44=3.00|59=0|10=030|
< 8=FIX.4.2|9=125|35=F|49=MINIFIX|56=EXCHANGE|34=261|52=20260416-01:50:43|41=2105608624|11=2105608625|55=AAPL|54=1|60=20260416-01:50:43|38=100|10=050|
> 8=FIX.4.2|9=218|35=8|34=259|49=EXCHANGE|52=20260416-01:50:43.086|56=MINIFIX|6=0|11=2105608620|14=0|17=EXEC-1776303566460|31=0|32=0|37=20260416-072043-614205|38=100|39=4|40=2|44=3|54=1|55=AAPL|59=0|60=20260416-07:20:43.086|150=4|151=0|10=070|
< 8=FIX.4.2|9=134|35=D|49=MINIFIX|56=EXCHANGE|34=262|52=20260416-01:50:43|11=2105608627|21=1|55=AAPL|54=1|60=20260416-01:50:43|40=2|44=2.50|38=100|59=0|10=123|
> 8=FIX.4.2|9=135|35=9|34=260|49=EXCHANGE|52=20260416-01:50:43.087|56=MINIFIX|11=2105608624|37=UNKNOWN|39=8|41=2105608623|58=Order not found|102=1|434=1|10=043|
< 8=FIX.4.2|9=148|35=G|49=MINIFIX|56=EXCHANGE|34=263|52=20260416-01:50:43|41=2105608627|11=2105608628|21=1|55=AAPL|54=1|60=20260416-01:50:43|40=2|38=100|44=3.00|59=0|10=041|
> 8=FIX.4.2|9=222|35=8|34=261|49=EXCHANGE|52=20260416-01:50:43.087|56=MINIFIX|6=0|11=2105608623|14=0|17=EXEC-1776303566461|31=0|32=0|37=20260416-072043-614206|38=100|39=0|40=2|44=2.5|54=1|55=AAPL|59=0|60=20260416-07:20:43.087|150=0|151=100|10=252|
> 8=FIX.4.2|9=135|35=9|34=262|49=EXCHANGE|52=20260416-01:50:43.087|56=MINIFIX|11=2105608625|37=UNKNOWN|39=8|41=2105608624|58=Order not found|102=1|434=1|10=047|
< 8=FIX.4.2|9=125|35=F|49=MINIFIX|56=EXCHANGE|34=264|52=20260416-01:50:43|41=2105608628|11=2105608629|55=AAPL|54=1|60=20260416-01:50:43|38=100|10=061|
> 8=FIX.4.2|9=135|35=9|34=263|49=EXCHANGE|52=20260416-01:50:43.088|56=MINIFIX|11=2105608628|37=UNKNOWN|39=8|41=2105608627|58=Order not found|102=1|434=1|10=055|
> 8=FIX.4.2|9=222|35=8|34=264|49=EXCHANGE|52=20260416-01:50:43.088|56=MINIFIX|6=0|11=2105608627|14=0|17=EXEC-1776303566462|31=0|32=0|37=20260416-072043-614207|38=100|39=0|40=2|44=2.5|54=1|55=AAPL|59=0|60=20260416-07:20:43.088|150=0|151=100|10=007|
< 8=FIX.4.2|9=134|35=D|49=MINIFIX|56=EXCHANGE|34=265|52=20260416-01:50:43|11=2105608631|21=1|55=AAPL|54=1|60=20260416-01:50:43|40=2|44=2.50|38=100|59=0|10=121|
> 8=FIX.4.2|9=135|35=9|34=265|49=EXCHANGE|52=20260416-01:50:43.089|56=MINIFIX|11=2105608629|37=UNKNOWN|39=8|41=2105608628|58=Order not found|102=1|434=1|10=060|
< 8=FIX.4.2|9=148|35=G|49=MINIFIX|56=EXCHANGE|34=266|52=20260416-01:50:43|41=2105608631|11=2105608632|21=1|55=AAPL|54=1|60=20260416-01:50:43|40=2|38=100|44=3.00|59=0|10=034|
